{
  "_format": "hh-sol-artifact-1",
  "contractName": "Marketplace",
  "sourceName": "contracts/Marketplace.sol",
  "abi": [
    {
      "inputs": [],
      "stateMutability": "nonpayable",
      "type": "constructor"
    },
    {
      "anonymous": false,
      "inputs": [
        {
          "indexed": true,
          "internalType": "address",
          "name": "owner",
          "type": "address"
        },
        {
          "indexed": true,
          "internalType": "address",
          "name": "approved",
          "type": "address"
        },
        {
          "indexed": true,
          "internalType": "uint256",
          "name": "tokenId",
          "type": "uint256"
        }
      ],
      "name": "Approval",
      "type": "event"
    },
    {
      "anonymous": false,
      "inputs": [
        {
          "indexed": true,
          "internalType": "address",
          "name": "owner",
          "type": "address"
        },
        {
          "indexed": true,
          "internalType": "address",
          "name": "operator",
          "type": "address"
        },
        {
          "indexed": false,
          "internalType": "bool",
          "name": "approved",
          "type": "bool"
        }
      ],
      "name": "ApprovalForAll",
      "type": "event"
    },
    {
      "anonymous": false,
      "inputs": [
        {
          "indexed": false,
          "internalType": "uint256",
          "name": "_fromTokenId",
          "type": "uint256"
        },
        {
          "indexed": false,
          "internalType": "uint256",
          "name": "_toTokenId",
          "type": "uint256"
        }
      ],
      "name": "BatchMetadataUpdate",
      "type": "event"
    },
    {
      "anonymous": false,
      "inputs": [
        {
          "indexed": false,
          "internalType": "uint256",
          "name": "amount",
          "type": "uint256"
        },
        {
          "indexed": false,
          "internalType": "address",
          "name": "targetWallet",
          "type": "address"
        }
      ],
      "name": "FundsWithdrawn",
      "type": "event"
    },
    {
      "anonymous": false,
      "inputs": [
        {
          "indexed": true,
          "internalType": "uint256",
          "name": "tokenId",
          "type": "uint256"
        },
        {
          "indexed": false,
          "internalType": "address",
          "name": "originalOwner",
          "type": "address"
        },
        {
          "indexed": false,
          "internalType": "address",
          "name": "seller",
          "type": "address"
        },
        {
          "indexed": false,
          "internalType": "address",
          "name": "owner",
          "type": "address"
        },
        {
          "indexed": false,
          "internalType": "uint256",
          "name": "royaltyPercentage",
          "type": "uint256"
        },
        {
          "indexed": false,
          "internalType": "uint256",
          "name": "price",
          "type": "uint256"
        },
        {
          "indexed": false,
          "internalType": "bool",
          "name": "auction",
          "type": "bool"
        },
        {
          "indexed": false,
          "internalType": "bool",
          "name": "sold",
          "type": "bool"
        }
      ],
      "name": "MarketItemCreated",
      "type": "event"
    },
    {
      "anonymous": false,
      "inputs": [
        {
          "indexed": false,
          "internalType": "uint256",
          "name": "_tokenId",
          "type": "uint256"
        }
      ],
      "name": "MetadataUpdate",
      "type": "event"
    },
    {
      "anonymous": false,
      "inputs": [
        {
          "indexed": false,
          "internalType": "uint256",
          "name": "nftId",
          "type": "uint256"
        },
        {
          "indexed": false,
          "internalType": "address",
          "name": "auctionWinner",
          "type": "address"
        }
      ],
      "name": "NFTTransferred",
      "type": "event"
    },
    {
      "anonymous": false,
      "inputs": [
        {
          "indexed": true,
          "internalType": "address",
          "name": "from",
          "type": "address"
        },
        {
          "indexed": true,
          "internalType": "address",
          "name": "to",
          "type": "address"
        },
        {
          "indexed": true,
          "internalType": "uint256",
          "name": "tokenId",
          "type": "uint256"
        }
      ],
      "name": "Transfer",
      "type": "event"
    },
    {
      "stateMutability": "payable",
      "type": "fallback"
    },
    {
      "inputs": [
        {
          "internalType": "address",
          "name": "to",
          "type": "address"
        },
        {
          "internalType": "uint256",
          "name": "tokenId",
          "type": "uint256"
        }
      ],
      "name": "approve",
      "outputs": [],
      "stateMutability": "nonpayable",
      "type": "function"
    },
    {
      "inputs": [
        {
          "internalType": "address",
          "name": "owner",
          "type": "address"
        }
      ],
      "name": "balanceOf",
      "outputs": [
        {
          "internalType": "uint256",
          "name": "",
          "type": "uint256"
        }
      ],
      "stateMutability": "view",
      "type": "function"
    },
    {
      "inputs": [
        {
          "internalType": "uint256",
          "name": "tokenId",
          "type": "uint256"
        },
        {
          "internalType": "uint256",
          "name": "royaltyPercentage",
          "type": "uint256"
        },
        {
          "internalType": "uint256",
          "name": "price",
          "type": "uint256"
        }
      ],
      "name": "createMarketItem",
      "outputs": [],
      "stateMutability": "payable",
      "type": "function"
    },
    {
      "inputs": [
        {
          "internalType": "uint256",
          "name": "tokenId",
          "type": "uint256"
        }
      ],
      "name": "createMarketSale",
      "outputs": [],
      "stateMutability": "payable",
      "type": "function"
    },
    {
      "inputs": [
        {
          "internalType": "string",
          "name": "tokenURI",
          "type": "string"
        },
        {
          "internalType": "uint256",
          "name": "royaltyPercentage",
          "type": "uint256"
        },
        {
          "internalType": "uint256",
          "name": "price",
          "type": "uint256"
        }
      ],
      "name": "createToken",
      "outputs": [
        {
          "internalType": "uint256",
          "name": "",
          "type": "uint256"
        }
      ],
      "stateMutability": "payable",
      "type": "function"
    },
    {
      "inputs": [],
      "name": "fetchItemsListed",
      "outputs": [
        {
          "components": [
            {
              "internalType": "uint256",
              "name": "tokenId",
              "type": "uint256"
            },
            {
              "internalType": "address payable",
              "name": "originalOwner",
              "type": "address"
            },
            {
              "internalType": "address payable",
              "name": "seller",
              "type": "address"
            },
            {
              "internalType": "address payable",
              "name": "owner",
              "type": "address"
            },
            {
              "internalType": "uint256",
              "name": "royaltyPercentage",
              "type": "uint256"
            },
            {
              "internalType": "uint256",
              "name": "price",
              "type": "uint256"
            },
            {
              "internalType": "bool",
              "name": "auction",
              "type": "bool"
            },
            {
              "internalType": "bool",
              "name": "sold",
              "type": "bool"
            }
          ],
          "internalType": "struct Marketplace.MarketItem[]",
          "name": "",
          "type": "tuple[]"
        }
      ],
      "stateMutability": "view",
      "type": "function"
    },
    {
      "inputs": [],
      "name": "fetchMarketItems",
      "outputs": [
        {
          "components": [
            {
              "internalType": "uint256",
              "name": "tokenId",
              "type": "uint256"
            },
            {
              "internalType": "address payable",
              "name": "originalOwner",
              "type": "address"
            },
            {
              "internalType": "address payable",
              "name": "seller",
              "type": "address"
            },
            {
              "internalType": "address payable",
              "name": "owner",
              "type": "address"
            },
            {
              "internalType": "uint256",
              "name": "royaltyPercentage",
              "type": "uint256"
            },
            {
              "internalType": "uint256",
              "name": "price",
              "type": "uint256"
            },
            {
              "internalType": "bool",
              "name": "auction",
              "type": "bool"
            },
            {
              "internalType": "bool",
              "name": "sold",
              "type": "bool"
            }
          ],
          "internalType": "struct Marketplace.MarketItem[]",
          "name": "",
          "type": "tuple[]"
        }
      ],
      "stateMutability": "view",
      "type": "function"
    },
    {
      "inputs": [],
      "name": "fetchMyNFT",
      "outputs": [
        {
          "components": [
            {
              "internalType": "uint256",
              "name": "tokenId",
              "type": "uint256"
            },
            {
              "internalType": "address payable",
              "name": "originalOwner",
              "type": "address"
            },
            {
              "internalType": "address payable",
              "name": "seller",
              "type": "address"
            },
            {
              "internalType": "address payable",
              "name": "owner",
              "type": "address"
            },
            {
              "internalType": "uint256",
              "name": "royaltyPercentage",
              "type": "uint256"
            },
            {
              "internalType": "uint256",
              "name": "price",
              "type": "uint256"
            },
            {
              "internalType": "bool",
              "name": "auction",
              "type": "bool"
            },
            {
              "internalType": "bool",
              "name": "sold",
              "type": "bool"
            }
          ],
          "internalType": "struct Marketplace.MarketItem[]",
          "name": "",
          "type": "tuple[]"
        }
      ],
      "stateMutability": "view",
      "type": "function"
    },
    {
      "inputs": [
        {
          "internalType": "uint256",
          "name": "tokenId",
          "type": "uint256"
        }
      ],
      "name": "getApproved",
      "outputs": [
        {
          "internalType": "address",
          "name": "",
          "type": "address"
        }
      ],
      "stateMutability": "view",
      "type": "function"
    },
    {
      "inputs": [
        {
          "internalType": "uint256",
          "name": "tokenId",
          "type": "uint256"
        }
      ],
      "name": "getNFTPrice",
      "outputs": [
        {
          "internalType": "uint256",
          "name": "price",
          "type": "uint256"
        }
      ],
      "stateMutability": "view",
      "type": "function"
    },
    {
      "inputs": [
        {
          "internalType": "uint256",
          "name": "tokenId",
          "type": "uint256"
        }
      ],
      "name": "getRoyaltyData",
      "outputs": [
        {
          "internalType": "uint256",
          "name": "",
          "type": "uint256"
        },
        {
          "internalType": "address payable",
          "name": "",
          "type": "address"
        }
      ],
      "stateMutability": "view",
      "type": "function"
    },
    {
      "inputs": [
        {
          "internalType": "uint256",
          "name": "tokenId",
          "type": "uint256"
        }
      ],
      "name": "getSellerAddress",
      "outputs": [
        {
          "internalType": "address",
          "name": "",
          "type": "address"
        }
      ],
      "stateMutability": "view",
      "type": "function"
    },
    {
      "inputs": [
        {
          "internalType": "uint256",
          "name": "tokenId",
          "type": "uint256"
        },
        {
          "internalType": "address",
          "name": "winner",
          "type": "address"
        }
      ],
      "name": "handleAuctionEnd",
      "outputs": [],
      "stateMutability": "nonpayable",
      "type": "function"
    },
    {
      "inputs": [
        {
          "internalType": "address",
          "name": "owner",
          "type": "address"
        },
        {
          "internalType": "address",
          "name": "operator",
          "type": "address"
        }
      ],
      "name": "isApprovedForAll",
      "outputs": [
        {
          "internalType": "bool",
          "name": "",
          "type": "bool"
        }
      ],
      "stateMutability": "view",
      "type": "function"
    },
    {
      "inputs": [],
      "name": "name",
      "outputs": [
        {
          "internalType": "string",
          "name": "",
          "type": "string"
        }
      ],
      "stateMutability": "view",
      "type": "function"
    },
    {
      "inputs": [
        {
          "internalType": "uint256",
          "name": "tokenId",
          "type": "uint256"
        }
      ],
      "name": "ownerOf",
      "outputs": [
        {
          "internalType": "address",
          "name": "",
          "type": "address"
        }
      ],
      "stateMutability": "view",
      "type": "function"
    },
    {
      "inputs": [
        {
          "internalType": "uint256",
          "name": "tokenId",
          "type": "uint256"
        },
        {
          "internalType": "uint256",
          "name": "price",
          "type": "uint256"
        },
        {
          "internalType": "address",
          "name": "seller",
          "type": "address"
        }
      ],
      "name": "resellMarketItem",
      "outputs": [],
      "stateMutability": "payable",
      "type": "function"
    },
    {
      "inputs": [
        {
          "internalType": "address",
          "name": "from",
          "type": "address"
        },
        {
          "internalType": "address",
          "name": "to",
          "type": "address"
        },
        {
          "internalType": "uint256",
          "name": "tokenId",
          "type": "uint256"
        }
      ],
      "name": "safeTransferFrom",
      "outputs": [],
      "stateMutability": "nonpayable",
      "type": "function"
    },
    {
      "inputs": [
        {
          "internalType": "address",
          "name": "from",
          "type": "address"
        },
        {
          "internalType": "address",
          "name": "to",
          "type": "address"
        },
        {
          "internalType": "uint256",
          "name": "tokenId",
          "type": "uint256"
        },
        {
          "internalType": "bytes",
          "name": "data",
          "type": "bytes"
        }
      ],
      "name": "safeTransferFrom",
      "outputs": [],
      "stateMutability": "nonpayable",
      "type": "function"
    },
    {
      "inputs": [
        {
          "internalType": "address",
          "name": "operator",
          "type": "address"
        },
        {
          "internalType": "bool",
          "name": "approved",
          "type": "bool"
        }
      ],
      "name": "setApprovalForAll",
      "outputs": [],
      "stateMutability": "nonpayable",
      "type": "function"
    },
    {
      "inputs": [
        {
          "internalType": "address",
          "name": "auctionFactoryAddress",
          "type": "address"
        }
      ],
      "name": "setAuctionFactoryAddress",
      "outputs": [],
      "stateMutability": "nonpayable",
      "type": "function"
    },
    {
      "inputs": [
        {
          "internalType": "bytes4",
          "name": "interfaceId",
          "type": "bytes4"
        }
      ],
      "name": "supportsInterface",
      "outputs": [
        {
          "internalType": "bool",
          "name": "",
          "type": "bool"
        }
      ],
      "stateMutability": "view",
      "type": "function"
    },
    {
      "inputs": [],
      "name": "symbol",
      "outputs": [
        {
          "internalType": "string",
          "name": "",
          "type": "string"
        }
      ],
      "stateMutability": "view",
      "type": "function"
    },
    {
      "inputs": [
        {
          "internalType": "uint256",
          "name": "tokenId",
          "type": "uint256"
        }
      ],
      "name": "tokenURI",
      "outputs": [
        {
          "internalType": "string",
          "name": "",
          "type": "string"
        }
      ],
      "stateMutability": "view",
      "type": "function"
    },
    {
      "inputs": [
        {
          "internalType": "address",
          "name": "from",
          "type": "address"
        },
        {
          "internalType": "address",
          "name": "to",
          "type": "address"
        },
        {
          "internalType": "uint256",
          "name": "tokenId",
          "type": "uint256"
        }
      ],
      "name": "transferFrom",
      "outputs": [],
      "stateMutability": "nonpayable",
      "type": "function"
    },
    {
      "inputs": [
        {
          "internalType": "uint256",
          "name": "_listingPrice",
          "type": "uint256"
        }
      ],
      "name": "updateListingPrice",
      "outputs": [],
      "stateMutability": "payable",
      "type": "function"
    },
    {
      "inputs": [
        {
          "internalType": "uint256",
          "name": "tokenId",
          "type": "uint256"
        },
        {
          "internalType": "uint256",
          "name": "price",
          "type": "uint256"
        }
      ],
      "name": "updateNFTPrice",
      "outputs": [],
      "stateMutability": "nonpayable",
      "type": "function"
    },
    {
      "inputs": [],
      "name": "withdrawFunds",
      "outputs": [],
      "stateMutability": "nonpayable",
      "type": "function"
    },
    {
      "stateMutability": "payable",
      "type": "receive"
    }
  ],
  "bytecode": "0x60806040526608e1bc9bf04000600a553480156200001c57600080fd5b506040518060400160405280601381526020017f4e4654204d657461766572736520546f6b656e000000000000000000000000008152506040518060400160405280600581526020017f4d594e465400000000000000000000000000000000000000000000000000000081525081600090816200009a919062000378565b508060019081620000ac919062000378565b505050600160078190555033600b60006101000a81548173ffffffffffffffffffffffffffffffffffffffff021916908373ffffffffffffffffffffffffffffffffffffffff1602179055506200045f565b600081519050919050565b7f4e487b7100000000000000000000000000000000000000000000000000000000600052604160045260246000fd5b7f4e487b7100000000000000000000000000000000000000000000000000000000600052602260045260246000fd5b600060028204905060018216806200018057607f821691505b60208210810362000196576200019562000138565b5b50919050565b60008190508160005260206000209050919050565b60006020601f8301049050919050565b600082821b905092915050565b600060088302620002007fffffffffffffffffffffffffffffffffffffffffffffffffffffffffffffffff82620001c1565b6200020c8683620001c1565b95508019841693508086168417925050509392505050565b6000819050919050565b6000819050919050565b600062000259620002536200024d8462000224565b6200022e565b62000224565b9050919050565b6000819050919050565b620002758362000238565b6200028d620002848262000260565b848454620001ce565b825550505050565b600090565b620002a462000295565b620002b18184846200026a565b505050565b5b81811015620002d957620002cd6000826200029a565b600181019050620002b7565b5050565b601f8211156200032857620002f2816200019c565b620002fd84620001b1565b810160208510156200030d578190505b620003256200031c85620001b1565b830182620002b6565b50505b505050565b600082821c905092915050565b60006200034d600019846008026200032d565b1980831691505092915050565b60006200036883836200033a565b9150826002028217905092915050565b6200038382620000fe565b67ffffffffffffffff8111156200039f576200039e62000109565b5b620003ab825462000167565b620003b8828285620002dd565b600060209050601f831160018114620003f05760008415620003db578287015190505b620003e785826200035a565b86555062000457565b601f19841662000400866200019c565b60005b828110156200042a5784890151825560018201915060208501945060208101905062000403565b868310156200044a578489015162000446601f8916826200033a565b8355505b6001600288020188555050505b505050505050565b615783806200046f6000396000f3fe6080604052600436106101bb5760003560e01c8063804fa835116100ec578063ae677aa31161008a578063bec2a7c511610064578063bec2a7c5146105eb578063c18763f71461061b578063c87b56dd14610646578063e985e9c514610683576101c2565b8063ae677aa31461058a578063b88d4fde146105a6578063be9af536146105cf576101c2565b806395d89b41116100c657806395d89b41146104bb578063a22cb465146104e6578063a65ff74c1461050f578063a675364d1461054d576101c2565b8063804fa835146104395780638f329b3114610455578063929761791461047e576101c2565b806324600fc31161015957806345f8fa801161013357806345f8fa801461036b5780634ac0123d146103965780636352211e146103bf57806370a08231146103fc576101c2565b806324600fc31461030f578063320343da1461032657806342842e0e14610342576101c2565b8063095ea7b311610195578063095ea7b3146102695780630f08efe0146102925780631cb88133146102bd57806323b872dd146102e6576101c2565b806301ffc9a7146101c457806306fdde0314610201578063081812fc1461022c576101c2565b366101c257005b005b3480156101d057600080fd5b506101eb60048036038101906101e69190613b62565b6106c0565b6040516101f89190613baa565b60405180910390f35b34801561020d57600080fd5b50610216610721565b6040516102239190613c55565b60405180910390f35b34801561023857600080fd5b50610253600480360381019061024e9190613cad565b6107b3565b6040516102609190613d1b565b60405180910390f35b34801561027557600080fd5b50610290600480360381019061028b9190613d62565b6107f9565b005b34801561029e57600080fd5b506102a7610910565b6040516102b49190613f33565b60405180910390f35b3480156102c957600080fd5b506102e460048036038101906102df9190613f55565b610bf4565b005b3480156102f257600080fd5b5061030d60048036038101906103089190613f82565b610c38565b005b34801561031b57600080fd5b50610324610c98565b005b610340600480360381019061033b9190613fd5565b610e7b565b005b34801561034e57600080fd5b5061036960048036038101906103649190613f82565b611145565b005b34801561037757600080fd5b50610380611165565b60405161038d9190613f33565b60405180910390f35b3480156103a257600080fd5b506103bd60048036038101906103b89190614028565b6114cd565b005b3480156103cb57600080fd5b506103e660048036038101906103e19190613cad565b6116cd565b6040516103f39190613d1b565b60405180910390f35b34801561040857600080fd5b50610423600480360381019061041e9190613f55565b611753565b6040516104309190614077565b60405180910390f35b610453600480360381019061044e9190614092565b61180a565b005b34801561046157600080fd5b5061047c600480360381019061047791906140e5565b611b28565b005b34801561048a57600080fd5b506104a560048036038101906104a09190613cad565b611c58565b6040516104b29190614077565b60405180910390f35b3480156104c757600080fd5b506104d0611ddf565b6040516104dd9190613c55565b60405180910390f35b3480156104f257600080fd5b5061050d60048036038101906105089190614151565b611e71565b005b34801561051b57600080fd5b5061053660048036038101906105319190613cad565b611e87565b6040516105449291906141a0565b60405180910390f35b34801561055957600080fd5b50610574600480360381019061056f9190613cad565b612017565b6040516105819190613d1b565b60405180910390f35b6105a4600480360381019061059f9190613cad565b612057565b005b3480156105b257600080fd5b506105cd60048036038101906105c891906142fe565b6120f1565b005b6105e960048036038101906105e49190613cad565b612153565b005b61060560048036038101906106009190614422565b612335565b6040516106129190614077565b60405180910390f35b34801561062757600080fd5b50610630612379565b60405161063d9190613f33565b60405180910390f35b34801561065257600080fd5b5061066d60048036038101906106689190613cad565b6126e1565b60405161067a9190613c55565b60405180910390f35b34801561068f57600080fd5b506106aa60048036038101906106a59190614491565b6127f3565b6040516106b79190613baa565b60405180910390f35b6000634906490660e01b7bffffffffffffffffffffffffffffffffffffffffffffffffffffffff1916827bffffffffffffffffffffffffffffffffffffffffffffffffffffffff1916148061071a575061071982612887565b5b9050919050565b60606000805461073090614500565b80601f016020809104026020016040519081016040528092919081815260200182805461075c90614500565b80156107a95780601f1061077e576101008083540402835291602001916107a9565b820191906000526020600020905b81548152906001019060200180831161078c57829003601f168201915b5050505050905090565b60006107be82612969565b6004600083815260200190815260200160002060009054906101000a900473ffffffffffffffffffffffffffffffffffffffff169050919050565b6000610804826116cd565b90508073ffffffffffffffffffffffffffffffffffffffff168373ffffffffffffffffffffffffffffffffffffffff1603610874576040517f08c379a000000000000000000000000000000000000000000000000000000000815260040161086b906145a3565b60405180910390fd5b8073ffffffffffffffffffffffffffffffffffffffff166108936129b4565b73ffffffffffffffffffffffffffffffffffffffff1614806108c257506108c1816108bc6129b4565b6127f3565b5b610901576040517f08c379a00000000000000000000000000000000000000000000000000000000081526004016108f890614635565b60405180910390fd5b61090b83836129bc565b505050565b6060600061091e6008612a75565b9050600061092c6009612a75565b6109366008612a75565b6109409190614684565b90506000808267ffffffffffffffff81111561095f5761095e6141d3565b5b60405190808252806020026020018201604052801561099857816020015b610985613a61565b81526020019060019003908161097d5790505b50905060005b84811015610be9573073ffffffffffffffffffffffffffffffffffffffff16600d60006001846109ce91906146b8565b815260200190815260200160002060030160009054906101000a900473ffffffffffffffffffffffffffffffffffffffff1673ffffffffffffffffffffffffffffffffffffffff1603610bd6576000600182610a2a91906146b8565b90506000600d600083815260200190815260200160002090508060405180610100016040529081600082015481526020016001820160009054906101000a900473ffffffffffffffffffffffffffffffffffffffff1673ffffffffffffffffffffffffffffffffffffffff1673ffffffffffffffffffffffffffffffffffffffff1681526020016002820160009054906101000a900473ffffffffffffffffffffffffffffffffffffffff1673ffffffffffffffffffffffffffffffffffffffff1673ffffffffffffffffffffffffffffffffffffffff1681526020016003820160009054906101000a900473ffffffffffffffffffffffffffffffffffffffff1673ffffffffffffffffffffffffffffffffffffffff1673ffffffffffffffffffffffffffffffffffffffff16815260200160048201548152602001600582015481526020016006820160009054906101000a900460ff161515151581526020016006820160019054906101000a900460ff161515151581525050848681518110610bb957610bb86146ec565b5b6020026020010181905250600185610bd191906146b8565b945050505b8080610be19061471b565b91505061099e565b508094505050505090565b80600c60006101000a81548173ffffffffffffffffffffffffffffffffffffffff021916908373ffffffffffffffffffffffffffffffffffffffff16021790555050565b610c49610c436129b4565b82612a83565b610c88576040517f08c379a0000000000000000000000000000000000000000000000000000000008152600401610c7f906147d5565b60405180910390fd5b610c93838383612b18565b505050565b600b60009054906101000a900473ffffffffffffffffffffffffffffffffffffffff1673ffffffffffffffffffffffffffffffffffffffff163373ffffffffffffffffffffffffffffffffffffffff1614610d28576040517f08c379a0000000000000000000000000000000000000000000000000000000008152600401610d1f90614867565b60405180910390fd5b600047905060008111610d70576040517f08c379a0000000000000000000000000000000000000000000000000000000008152600401610d67906148d3565b60405180910390fd5b6000600b60009054906101000a900473ffffffffffffffffffffffffffffffffffffffff1673ffffffffffffffffffffffffffffffffffffffff1682604051610db890614924565b60006040518083038185875af1925050503d8060008114610df5576040519150601f19603f3d011682016040523d82523d6000602084013e610dfa565b606091505b5050905080610e3e576040517f08c379a0000000000000000000000000000000000000000000000000000000008152600401610e3590614985565b60405180910390fd5b7f6141b54b56b8a52a8c6f5cd2a857f6117b18ffbf4d46bd3106f300a839cbf5ea8233604051610e6f9291906149a5565b60405180910390a15050565b610e9d60405180606001604052806024815260200161572a6024913933612e11565b60008111610ee0576040517f08c379a0000000000000000000000000000000000000000000000000000000008152600401610ed790614a1a565b60405180910390fd5b600a543414610f24576040517f08c379a0000000000000000000000000000000000000000000000000000000008152600401610f1b90614a86565b60405180910390fd5b6040518061010001604052808481526020013373ffffffffffffffffffffffffffffffffffffffff1681526020013373ffffffffffffffffffffffffffffffffffffffff1681526020013073ffffffffffffffffffffffffffffffffffffffff16815260200183815260200182815260200160001515815260200160001515815250600d60008581526020019081526020016000206000820151816000015560208201518160010160006101000a81548173ffffffffffffffffffffffffffffffffffffffff021916908373ffffffffffffffffffffffffffffffffffffffff16021790555060408201518160020160006101000a81548173ffffffffffffffffffffffffffffffffffffffff021916908373ffffffffffffffffffffffffffffffffffffffff16021790555060608201518160030160006101000a81548173ffffffffffffffffffffffffffffffffffffffff021916908373ffffffffffffffffffffffffffffffffffffffff1602179055506080820151816004015560a0820151816005015560c08201518160060160006101000a81548160ff02191690831515021790555060e08201518160060160016101000a81548160ff0219169083151502179055509050506110fa333085612b18565b827f6be207084465b1afd1fb9af05976e6d285e34a16bc67aaa8e62ebbbf7c406aac3333600086866000806040516111389796959493929190614aa6565b60405180910390a2505050565b611160838383604051806020016040528060008152506120f1565b505050565b606060006111736008612a75565b905060008060005b8381101561121b573373ffffffffffffffffffffffffffffffffffffffff16600d60006001846111ab91906146b8565b815260200190815260200160002060020160009054906101000a900473ffffffffffffffffffffffffffffffffffffffff1673ffffffffffffffffffffffffffffffffffffffff16036112085760018361120591906146b8565b92505b80806112139061471b565b91505061117b565b5060008267ffffffffffffffff811115611238576112376141d3565b5b60405190808252806020026020018201604052801561127157816020015b61125e613a61565b8152602001906001900390816112565790505b50905060005b848110156114c2573373ffffffffffffffffffffffffffffffffffffffff16600d60006001846112a791906146b8565b815260200190815260200160002060020160009054906101000a900473ffffffffffffffffffffffffffffffffffffffff1673ffffffffffffffffffffffffffffffffffffffff16036114af57600060018261130391906146b8565b90506000600d600083815260200190815260200160002090508060405180610100016040529081600082015481526020016001820160009054906101000a900473ffffffffffffffffffffffffffffffffffffffff1673ffffffffffffffffffffffffffffffffffffffff1673ffffffffffffffffffffffffffffffffffffffff1681526020016002820160009054906101000a900473ffffffffffffffffffffffffffffffffffffffff1673ffffffffffffffffffffffffffffffffffffffff1673ffffffffffffffffffffffffffffffffffffffff1681526020016003820160009054906101000a900473ffffffffffffffffffffffffffffffffffffffff1673ffffffffffffffffffffffffffffffffffffffff1673ffffffffffffffffffffffffffffffffffffffff16815260200160048201548152602001600582015481526020016006820160009054906101000a900460ff161515151581526020016006820160019054906101000a900460ff161515151581525050848681518110611492576114916146ec565b5b60200260200101819052506001856114aa91906146b8565b945050505b80806114ba9061471b565b915050611277565b508094505050505090565b600073ffffffffffffffffffffffffffffffffffffffff16600d600084815260200190815260200160002060030160009054906101000a900473ffffffffffffffffffffffffffffffffffffffff1673ffffffffffffffffffffffffffffffffffffffff1603611572576040517f08c379a000000000000000000000000000000000000000000000000000000000815260040161156990614b87565b60405180910390fd5b3373ffffffffffffffffffffffffffffffffffffffff16600d600084815260200190815260200160002060020160009054906101000a900473ffffffffffffffffffffffffffffffffffffffff1673ffffffffffffffffffffffffffffffffffffffff1614611616576040517f08c379a000000000000000000000000000000000000000000000000000000000815260040161160d90614bf3565b60405180910390fd5b60008111611659576040517f08c379a000000000000000000000000000000000000000000000000000000000815260040161165090614c5f565b60405180910390fd5b80600d6000848152602001908152602001600020600501819055506116c96040518060400160405280601581526020017f55706461746564206d61726b6574206974656d3a200000000000000000000000815250600d600085815260200190815260200160002060050154612ead565b5050565b6000806116d983612f49565b9050600073ffffffffffffffffffffffffffffffffffffffff168173ffffffffffffffffffffffffffffffffffffffff160361174a576040517f08c379a000000000000000000000000000000000000000000000000000000000815260040161174190614ccb565b60405180910390fd5b80915050919050565b60008073ffffffffffffffffffffffffffffffffffffffff168273ffffffffffffffffffffffffffffffffffffffff16036117c3576040517f08c379a00000000000000000000000000000000000000000000000000000000081526004016117ba90614d5d565b60405180910390fd5b600360008373ffffffffffffffffffffffffffffffffffffffff1673ffffffffffffffffffffffffffffffffffffffff168152602001908152602001600020549050919050565b6118486040518060400160405280601981526020017f526573656c6c206d61726b6574206974656d2063616c6c656400000000000000815250612f86565b3373ffffffffffffffffffffffffffffffffffffffff16600d600085815260200190815260200160002060030160009054906101000a900473ffffffffffffffffffffffffffffffffffffffff1673ffffffffffffffffffffffffffffffffffffffff1614806119055750600c60009054906101000a900473ffffffffffffffffffffffffffffffffffffffff1673ffffffffffffffffffffffffffffffffffffffff163373ffffffffffffffffffffffffffffffffffffffff16145b611944576040517f08c379a000000000000000000000000000000000000000000000000000000000815260040161193b90614dc9565b60405180910390fd5b600c60009054906101000a900473ffffffffffffffffffffffffffffffffffffffff1673ffffffffffffffffffffffffffffffffffffffff163373ffffffffffffffffffffffffffffffffffffffff16036119c9576001600d600085815260200190815260200160002060060160006101000a81548160ff0219169083151502179055505b6000600d600085815260200190815260200160002060060160016101000a81548160ff02191690831515021790555081600d60008581526020019081526020016000206005018190555033600d600085815260200190815260200160002060020160006101000a81548173ffffffffffffffffffffffffffffffffffffffff021916908373ffffffffffffffffffffffffffffffffffffffff16021790555030600d600085815260200190815260200160002060030160006101000a81548173ffffffffffffffffffffffffffffffffffffffff021916908373ffffffffffffffffffffffffffffffffffffffff1602179055506000611ac96009612a75565b1115611ada57611ad9600961301f565b5b611ae5813085612b18565b611b236040518060400160405280601981526020017f526573656c6c207472616e736665722073756363656564656400000000000000815250612f86565b505050565b3073ffffffffffffffffffffffffffffffffffffffff166342842e0e3083856040518463ffffffff1660e01b8152600401611b6593929190614de9565b600060405180830381600087803b158015611b7f57600080fd5b505af1158015611b93573d6000803e3d6000fd5b5050505080600d600084815260200190815260200160002060030160006101000a81548173ffffffffffffffffffffffffffffffffffffffff021916908373ffffffffffffffffffffffffffffffffffffffff1602179055506001600d600084815260200190815260200160002060060160016101000a81548160ff0219169083151502179055507f20665ee57a5e13af162123968d777ccebe86531a21e53d08afc78138a950192d8282604051611c4c9291906149a5565b60405180910390a15050565b600080600d600084815260200190815260200160002060405180610100016040529081600082015481526020016001820160009054906101000a900473ffffffffffffffffffffffffffffffffffffffff1673ffffffffffffffffffffffffffffffffffffffff1673ffffffffffffffffffffffffffffffffffffffff1681526020016002820160009054906101000a900473ffffffffffffffffffffffffffffffffffffffff1673ffffffffffffffffffffffffffffffffffffffff1673ffffffffffffffffffffffffffffffffffffffff1681526020016003820160009054906101000a900473ffffffffffffffffffffffffffffffffffffffff1673ffffffffffffffffffffffffffffffffffffffff1673ffffffffffffffffffffffffffffffffffffffff16815260200160048201548152602001600582015481526020016006820160009054906101000a900460ff161515151581526020016006820160019054906101000a900460ff16151515158152505090508060a00151915050919050565b606060018054611dee90614500565b80601f0160208091040260200160405190810160405280929190818152602001828054611e1a90614500565b8015611e675780601f10611e3c57610100808354040283529160200191611e67565b820191906000526020600020905b815481529060010190602001808311611e4a57829003601f168201915b5050505050905090565b611e83611e7c6129b4565b838361307b565b5050565b6000806000600d600085815260200190815260200160002060405180610100016040529081600082015481526020016001820160009054906101000a900473ffffffffffffffffffffffffffffffffffffffff1673ffffffffffffffffffffffffffffffffffffffff1673ffffffffffffffffffffffffffffffffffffffff1681526020016002820160009054906101000a900473ffffffffffffffffffffffffffffffffffffffff1673ffffffffffffffffffffffffffffffffffffffff1673ffffffffffffffffffffffffffffffffffffffff1681526020016003820160009054906101000a900473ffffffffffffffffffffffffffffffffffffffff1673ffffffffffffffffffffffffffffffffffffffff1673ffffffffffffffffffffffffffffffffffffffff16815260200160048201548152602001600582015481526020016006820160009054906101000a900460ff161515151581526020016006820160019054906101000a900460ff1615151515815250509050806080015181602001519250925050915091565b6000600d600083815260200190815260200160002060020160009054906101000a900473ffffffffffffffffffffffffffffffffffffffff169050919050565b600b60009054906101000a900473ffffffffffffffffffffffffffffffffffffffff1673ffffffffffffffffffffffffffffffffffffffff163373ffffffffffffffffffffffffffffffffffffffff16146120e7576040517f08c379a00000000000000000000000000000000000000000000000000000000081526004016120de90614867565b60405180910390fd5b80600a8190555050565b6121026120fc6129b4565b83612a83565b612141576040517f08c379a0000000000000000000000000000000000000000000000000000000008152600401612138906147d5565b60405180910390fd5b61214d848484846131e7565b50505050565b6000600d60008381526020019081526020016000206005015490508034146121b0576040517f08c379a00000000000000000000000000000000000000000000000000000000081526004016121a790614e92565b60405180910390fd5b33600d600084815260200190815260200160002060030160006101000a81548173ffffffffffffffffffffffffffffffffffffffff021916908373ffffffffffffffffffffffffffffffffffffffff1602179055506001600d600084815260200190815260200160002060060160016101000a81548160ff02191690831515021790555061223e6009613243565b612249303384612b18565b600b60009054906101000a900473ffffffffffffffffffffffffffffffffffffffff1673ffffffffffffffffffffffffffffffffffffffff166108fc600a549081150290604051600060405180830381858888f193505050501580156122b3573d6000803e3d6000fd5b50600d600083815260200190815260200160002060020160009054906101000a900473ffffffffffffffffffffffffffffffffffffffff1673ffffffffffffffffffffffffffffffffffffffff166108fc349081150290604051600060405180830381858888f19350505050158015612330573d6000803e3d6000fd5b505050565b60006123416008613243565b600061234d6008612a75565b90506123593382613259565b6123638186613476565b61236e818585610e7b565b809150509392505050565b606060006123876008612a75565b905060008060005b8381101561242f573373ffffffffffffffffffffffffffffffffffffffff16600d60006001846123bf91906146b8565b815260200190815260200160002060030160009054906101000a900473ffffffffffffffffffffffffffffffffffffffff1673ffffffffffffffffffffffffffffffffffffffff160361241c5760018361241991906146b8565b92505b80806124279061471b565b91505061238f565b5060008267ffffffffffffffff81111561244c5761244b6141d3565b5b60405190808252806020026020018201604052801561248557816020015b612472613a61565b81526020019060019003908161246a5790505b50905060005b848110156126d6573373ffffffffffffffffffffffffffffffffffffffff16600d60006001846124bb91906146b8565b815260200190815260200160002060030160009054906101000a900473ffffffffffffffffffffffffffffffffffffffff1673ffffffffffffffffffffffffffffffffffffffff16036126c357600060018261251791906146b8565b90506000600d600083815260200190815260200160002090508060405180610100016040529081600082015481526020016001820160009054906101000a900473ffffffffffffffffffffffffffffffffffffffff1673ffffffffffffffffffffffffffffffffffffffff1673ffffffffffffffffffffffffffffffffffffffff1681526020016002820160009054906101000a900473ffffffffffffffffffffffffffffffffffffffff1673ffffffffffffffffffffffffffffffffffffffff1673ffffffffffffffffffffffffffffffffffffffff1681526020016003820160009054906101000a900473ffffffffffffffffffffffffffffffffffffffff1673ffffffffffffffffffffffffffffffffffffffff1673ffffffffffffffffffffffffffffffffffffffff16815260200160048201548152602001600582015481526020016006820160009054906101000a900460ff161515151581526020016006820160019054906101000a900460ff1615151515815250508486815181106126a6576126a56146ec565b5b60200260200101819052506001856126be91906146b8565b945050505b80806126ce9061471b565b91505061248b565b508094505050505090565b60606126ec82612969565b600060066000848152602001908152602001600020805461270c90614500565b80601f016020809104026020016040519081016040528092919081815260200182805461273890614500565b80156127855780601f1061275a57610100808354040283529160200191612785565b820191906000526020600020905b81548152906001019060200180831161276857829003601f168201915b50505050509050600061279661351a565b905060008151036127ab5781925050506127ee565b6000825111156127e05780826040516020016127c8929190614eee565b604051602081830303815290604052925050506127ee565b6127e984613531565b925050505b919050565b6000600560008473ffffffffffffffffffffffffffffffffffffffff1673ffffffffffffffffffffffffffffffffffffffff16815260200190815260200160002060008373ffffffffffffffffffffffffffffffffffffffff1673ffffffffffffffffffffffffffffffffffffffff16815260200190815260200160002060009054906101000a900460ff16905092915050565b60007f80ac58cd000000000000000000000000000000000000000000000000000000007bffffffffffffffffffffffffffffffffffffffffffffffffffffffff1916827bffffffffffffffffffffffffffffffffffffffffffffffffffffffff1916148061295257507f5b5e139f000000000000000000000000000000000000000000000000000000007bffffffffffffffffffffffffffffffffffffffffffffffffffffffff1916827bffffffffffffffffffffffffffffffffffffffffffffffffffffffff1916145b80612962575061296182613599565b5b9050919050565b61297281613603565b6129b1576040517f08c379a00000000000000000000000000000000000000000000000000000000081526004016129a890614ccb565b60405180910390fd5b50565b600033905090565b816004600083815260200190815260200160002060006101000a81548173ffffffffffffffffffffffffffffffffffffffff021916908373ffffffffffffffffffffffffffffffffffffffff160217905550808273ffffffffffffffffffffffffffffffffffffffff16612a2f836116cd565b73ffffffffffffffffffffffffffffffffffffffff167f8c5be1e5ebec7d5bd14f71427d1e84f3dd0314c0f7b2291e5b200ac8c7c3b92560405160405180910390a45050565b600081600001549050919050565b600080612a8f836116cd565b90508073ffffffffffffffffffffffffffffffffffffffff168473ffffffffffffffffffffffffffffffffffffffff161480612ad15750612ad081856127f3565b5b80612b0f57508373ffffffffffffffffffffffffffffffffffffffff16612af7846107b3565b73ffffffffffffffffffffffffffffffffffffffff16145b91505092915050565b8273ffffffffffffffffffffffffffffffffffffffff16612b38826116cd565b73ffffffffffffffffffffffffffffffffffffffff1614612b8e576040517f08c379a0000000000000000000000000000000000000000000000000000000008152600401612b8590614f84565b60405180910390fd5b600073ffffffffffffffffffffffffffffffffffffffff168273ffffffffffffffffffffffffffffffffffffffff1603612bfd576040517f08c379a0000000000000000000000000000000000000000000000000000000008152600401612bf490615016565b60405180910390fd5b612c0a8383836001613644565b8273ffffffffffffffffffffffffffffffffffffffff16612c2a826116cd565b73ffffffffffffffffffffffffffffffffffffffff1614612c80576040517f08c379a0000000000000000000000000000000000000000000000000000000008152600401612c7790614f84565b60405180910390fd5b6004600082815260200190815260200160002060006101000a81549073ffffffffffffffffffffffffffffffffffffffff02191690556001600360008573ffffffffffffffffffffffffffffffffffffffff1673ffffffffffffffffffffffffffffffffffffffff168152602001908152602001600020600082825403925050819055506001600360008473ffffffffffffffffffffffffffffffffffffffff1673ffffffffffffffffffffffffffffffffffffffff16815260200190815260200160002060008282540192505081905550816002600083815260200190815260200160002060006101000a81548173ffffffffffffffffffffffffffffffffffffffff021916908373ffffffffffffffffffffffffffffffffffffffff160217905550808273ffffffffffffffffffffffffffffffffffffffff168473ffffffffffffffffffffffffffffffffffffffff167fddf252ad1be2c89b69c2b068fc378daa952ba7f163c4a11628f55a4df523b3ef60405160405180910390a4612e0c838383600161364a565b505050565b612ea98282604051602401612e27929190615036565b6040516020818303038152906040527f319af333000000000000000000000000000000000000000000000000000000007bffffffffffffffffffffffffffffffffffffffffffffffffffffffff19166020820180517bffffffffffffffffffffffffffffffffffffffffffffffffffffffff8381831617835250505050613650565b5050565b612f458282604051602401612ec3929190615066565b6040516020818303038152906040527fb60e72cc000000000000000000000000000000000000000000000000000000007bffffffffffffffffffffffffffffffffffffffffffffffffffffffff19166020820180517bffffffffffffffffffffffffffffffffffffffffffffffffffffffff8381831617835250505050613650565b5050565b60006002600083815260200190815260200160002060009054906101000a900473ffffffffffffffffffffffffffffffffffffffff169050919050565b61301c81604051602401612f9a9190613c55565b6040516020818303038152906040527f41304fac000000000000000000000000000000000000000000000000000000007bffffffffffffffffffffffffffffffffffffffffffffffffffffffff19166020820180517bffffffffffffffffffffffffffffffffffffffffffffffffffffffff8381831617835250505050613650565b50565b6000816000015490506000811161306b576040517f08c379a0000000000000000000000000000000000000000000000000000000008152600401613062906150e2565b60405180910390fd5b6001810382600001819055505050565b8173ffffffffffffffffffffffffffffffffffffffff168373ffffffffffffffffffffffffffffffffffffffff16036130e9576040517f08c379a00000000000000000000000000000000000000000000000000000000081526004016130e09061514e565b60405180910390fd5b80600560008573ffffffffffffffffffffffffffffffffffffffff1673ffffffffffffffffffffffffffffffffffffffff16815260200190815260200160002060008473ffffffffffffffffffffffffffffffffffffffff1673ffffffffffffffffffffffffffffffffffffffff16815260200190815260200160002060006101000a81548160ff0219169083151502179055508173ffffffffffffffffffffffffffffffffffffffff168373ffffffffffffffffffffffffffffffffffffffff167f17307eab39ab6107e8899845ad3d59bd9653f200f220920489ca2b5937696c31836040516131da9190613baa565b60405180910390a3505050565b6131f2848484612b18565b6131fe8484848461366a565b61323d576040517f08c379a0000000000000000000000000000000000000000000000000000000008152600401613234906151e0565b60405180910390fd5b50505050565b6001816000016000828254019250508190555050565b600073ffffffffffffffffffffffffffffffffffffffff168273ffffffffffffffffffffffffffffffffffffffff16036132c8576040517f08c379a00000000000000000000000000000000000000000000000000000000081526004016132bf9061524c565b60405180910390fd5b6132d181613603565b15613311576040517f08c379a0000000000000000000000000000000000000000000000000000000008152600401613308906152b8565b60405180910390fd5b61331f600083836001613644565b61332881613603565b15613368576040517f08c379a000000000000000000000000000000000000000000000000000000000815260040161335f906152b8565b60405180910390fd5b6001600360008473ffffffffffffffffffffffffffffffffffffffff1673ffffffffffffffffffffffffffffffffffffffff16815260200190815260200160002060008282540192505081905550816002600083815260200190815260200160002060006101000a81548173ffffffffffffffffffffffffffffffffffffffff021916908373ffffffffffffffffffffffffffffffffffffffff160217905550808273ffffffffffffffffffffffffffffffffffffffff16600073ffffffffffffffffffffffffffffffffffffffff167fddf252ad1be2c89b69c2b068fc378daa952ba7f163c4a11628f55a4df523b3ef60405160405180910390a461347260008383600161364a565b5050565b61347f82613603565b6134be576040517f08c379a00000000000000000000000000000000000000000000000000000000081526004016134b59061534a565b60405180910390fd5b806006600084815260200190815260200160002090816134de9190615516565b507ff8e1a15aba9398e019f0b49df1a4fde98ee17ae345cb5f6b5e2c27f5033e8ce78260405161350e9190614077565b60405180910390a15050565b606060405180602001604052806000815250905090565b606061353c82612969565b600061354661351a565b905060008151116135665760405180602001604052806000815250613591565b80613570846137f1565b604051602001613581929190614eee565b6040516020818303038152906040525b915050919050565b60007f01ffc9a7000000000000000000000000000000000000000000000000000000007bffffffffffffffffffffffffffffffffffffffffffffffffffffffff1916827bffffffffffffffffffffffffffffffffffffffffffffffffffffffff1916149050919050565b60008073ffffffffffffffffffffffffffffffffffffffff1661362583612f49565b73ffffffffffffffffffffffffffffffffffffffff1614159050919050565b50505050565b50505050565b6136678161365f6138bf6138e0565b63ffffffff16565b50565b600061368b8473ffffffffffffffffffffffffffffffffffffffff166138eb565b156137e4578373ffffffffffffffffffffffffffffffffffffffff1663150b7a026136b46129b4565b8786866040518563ffffffff1660e01b81526004016136d6949392919061563d565b6020604051808303816000875af192505050801561371257506040513d601f19601f8201168201806040525081019061370f919061569e565b60015b613794573d8060008114613742576040519150601f19603f3d011682016040523d82523d6000602084013e613747565b606091505b50600081510361378c576040517f08c379a0000000000000000000000000000000000000000000000000000000008152600401613783906151e0565b60405180910390fd5b805181602001fd5b63150b7a0260e01b7bffffffffffffffffffffffffffffffffffffffffffffffffffffffff1916817bffffffffffffffffffffffffffffffffffffffffffffffffffffffff1916149150506137e9565b600190505b949350505050565b6060600060016138008461390e565b01905060008167ffffffffffffffff81111561381f5761381e6141d3565b5b6040519080825280601f01601f1916602001820160405280156138515781602001600182028036833780820191505090505b509050600082602001820190505b6001156138b4578080600190039150507f3031323334353637383961626364656600000000000000000000000000000000600a86061a8153600a85816138a8576138a76156cb565b5b0494506000850361385f575b819350505050919050565b60006a636f6e736f6c652e6c6f679050600080835160208501845afa505050565b613aec819050919050565b6000808273ffffffffffffffffffffffffffffffffffffffff163b119050919050565b600080600090507a184f03e93ff9f4daa797ed6e38ed64bf6a1f010000000000000000831061396c577a184f03e93ff9f4daa797ed6e38ed64bf6a1f0100000000000000008381613962576139616156cb565b5b0492506040810190505b6d04ee2d6d415b85acef810000000083106139a9576d04ee2d6d415b85acef8100000000838161399f5761399e6156cb565b5b0492506020810190505b662386f26fc1000083106139d857662386f26fc1000083816139ce576139cd6156cb565b5b0492506010810190505b6305f5e1008310613a01576305f5e10083816139f7576139f66156cb565b5b0492506008810190505b6127108310613a26576127108381613a1c57613a1b6156cb565b5b0492506004810190505b60648310613a495760648381613a3f57613a3e6156cb565b5b0492506002810190505b600a8310613a58576001810190505b80915050919050565b60405180610100016040528060008152602001600073ffffffffffffffffffffffffffffffffffffffff168152602001600073ffffffffffffffffffffffffffffffffffffffff168152602001600073ffffffffffffffffffffffffffffffffffffffff16815260200160008152602001600081526020016000151581526020016000151581525090565b613af46156fa565b565b6000604051905090565b600080fd5b600080fd5b60007fffffffff0000000000000000000000000000000000000000000000000000000082169050919050565b613b3f81613b0a565b8114613b4a57600080fd5b50565b600081359050613b5c81613b36565b92915050565b600060208284031215613b7857613b77613b00565b5b6000613b8684828501613b4d565b91505092915050565b60008115159050919050565b613ba481613b8f565b82525050565b6000602082019050613bbf6000830184613b9b565b92915050565b600081519050919050565b600082825260208201905092915050565b60005b83811015613bff578082015181840152602081019050613be4565b60008484015250505050565b6000601f19601f8301169050919050565b6000613c2782613bc5565b613c318185613bd0565b9350613c41818560208601613be1565b613c4a81613c0b565b840191505092915050565b60006020820190508181036000830152613c6f8184613c1c565b905092915050565b6000819050919050565b613c8a81613c77565b8114613c9557600080fd5b50565b600081359050613ca781613c81565b92915050565b600060208284031215613cc357613cc2613b00565b5b6000613cd184828501613c98565b91505092915050565b600073ffffffffffffffffffffffffffffffffffffffff82169050919050565b6000613d0582613cda565b9050919050565b613d1581613cfa565b82525050565b6000602082019050613d306000830184613d0c565b92915050565b613d3f81613cfa565b8114613d4a57600080fd5b50565b600081359050613d5c81613d36565b92915050565b60008060408385031215613d7957613d78613b00565b5b6000613d8785828601613d4d565b9250506020613d9885828601613c98565b9150509250929050565b600081519050919050565b600082825260208201905092915050565b6000819050602082019050919050565b613dd781613c77565b82525050565b6000613de882613cda565b9050919050565b613df881613ddd565b82525050565b613e0781613b8f565b82525050565b61010082016000820151613e246000850182613dce565b506020820151613e376020850182613def565b506040820151613e4a6040850182613def565b506060820151613e5d6060850182613def565b506080820151613e706080850182613dce565b5060a0820151613e8360a0850182613dce565b5060c0820151613e9660c0850182613dfe565b5060e0820151613ea960e0850182613dfe565b50505050565b6000613ebb8383613e0d565b6101008301905092915050565b6000602082019050919050565b6000613ee082613da2565b613eea8185613dad565b9350613ef583613dbe565b8060005b83811015613f26578151613f0d8882613eaf565b9750613f1883613ec8565b925050600181019050613ef9565b5085935050505092915050565b60006020820190508181036000830152613f4d8184613ed5565b905092915050565b600060208284031215613f6b57613f6a613b00565b5b6000613f7984828501613d4d565b91505092915050565b600080600060608486031215613f9b57613f9a613b00565b5b6000613fa986828701613d4d565b9350506020613fba86828701613d4d565b9250506040613fcb86828701613c98565b9150509250925092565b600080600060608486031215613fee57613fed613b00565b5b6000613ffc86828701613c98565b935050602061400d86828701613c98565b925050604061401e86828701613c98565b9150509250925092565b6000806040838503121561403f5761403e613b00565b5b600061404d85828601613c98565b925050602061405e85828601613c98565b9150509250929050565b61407181613c77565b82525050565b600060208201905061408c6000830184614068565b92915050565b6000806000606084860312156140ab576140aa613b00565b5b60006140b986828701613c98565b93505060206140ca86828701613c98565b92505060406140db86828701613d4d565b9150509250925092565b600080604083850312156140fc576140fb613b00565b5b600061410a85828601613c98565b925050602061411b85828601613d4d565b9150509250929050565b61412e81613b8f565b811461413957600080fd5b50565b60008135905061414b81614125565b92915050565b6000806040838503121561416857614167613b00565b5b600061417685828601613d4d565b92505060206141878582860161413c565b9150509250929050565b61419a81613ddd565b82525050565b60006040820190506141b56000830185614068565b6141c26020830184614191565b9392505050565b600080fd5b600080fd5b7f4e487b7100000000000000000000000000000000000000000000000000000000600052604160045260246000fd5b61420b82613c0b565b810181811067ffffffffffffffff8211171561422a576142296141d3565b5b80604052505050565b600061423d613af6565b90506142498282614202565b919050565b600067ffffffffffffffff821115614269576142686141d3565b5b61427282613c0b565b9050602081019050919050565b82818337600083830152505050565b60006142a161429c8461424e565b614233565b9050828152602081018484840111156142bd576142bc6141ce565b5b6142c884828561427f565b509392505050565b600082601f8301126142e5576142e46141c9565b5b81356142f584826020860161428e565b91505092915050565b6000806000806080858703121561431857614317613b00565b5b600061432687828801613d4d565b945050602061433787828801613d4d565b935050604061434887828801613c98565b925050606085013567ffffffffffffffff81111561436957614368613b05565b5b614375878288016142d0565b91505092959194509250565b600067ffffffffffffffff82111561439c5761439b6141d3565b5b6143a582613c0b565b9050602081019050919050565b60006143c56143c084614381565b614233565b9050828152602081018484840111156143e1576143e06141ce565b5b6143ec84828561427f565b509392505050565b600082601f830112614409576144086141c9565b5b81356144198482602086016143b2565b91505092915050565b60008060006060848603121561443b5761443a613b00565b5b600084013567ffffffffffffffff81111561445957614458613b05565b5b614465868287016143f4565b935050602061447686828701613c98565b925050604061448786828701613c98565b9150509250925092565b600080604083850312156144a8576144a7613b00565b5b60006144b685828601613d4d565b92505060206144c785828601613d4d565b9150509250929050565b7f4e487b7100000000000000000000000000000000000000000000000000000000600052602260045260246000fd5b6000600282049050600182168061451857607f821691505b60208210810361452b5761452a6144d1565b5b50919050565b7f4552433732313a20617070726f76616c20746f2063757272656e74206f776e6560008201527f7200000000000000000000000000000000000000000000000000000000000000602082015250565b600061458d602183613bd0565b915061459882614531565b604082019050919050565b600060208201905081810360008301526145bc81614580565b9050919050565b7f4552433732313a20617070726f76652063616c6c6572206973206e6f7420746f60008201527f6b656e206f776e6572206f7220617070726f76656420666f7220616c6c000000602082015250565b600061461f603d83613bd0565b915061462a826145c3565b604082019050919050565b6000602082019050818103600083015261464e81614612565b9050919050565b7f4e487b7100000000000000000000000000000000000000000000000000000000600052601160045260246000fd5b600061468f82613c77565b915061469a83613c77565b92508282039050818111156146b2576146b1614655565b5b92915050565b60006146c382613c77565b91506146ce83613c77565b92508282019050808211156146e6576146e5614655565b5b92915050565b7f4e487b7100000000000000000000000000000000000000000000000000000000600052603260045260246000fd5b600061472682613c77565b91507fffffffffffffffffffffffffffffffffffffffffffffffffffffffffffffffff820361475857614757614655565b5b600182019050919050565b7f4552433732313a2063616c6c6572206973206e6f7420746f6b656e206f776e6560008201527f72206f7220617070726f76656400000000000000000000000000000000000000602082015250565b60006147bf602d83613bd0565b91506147ca82614763565b604082019050919050565b600060208201905081810360008301526147ee816147b2565b9050919050565b7f6f6e6c79206f776e6572206f662074686520636f6e74726163742063616e207560008201527f706461746520746865206c697374696e67207072696365000000000000000000602082015250565b6000614851603783613bd0565b915061485c826147f5565b604082019050919050565b6000602082019050818103600083015261488081614844565b9050919050565b7f4e6f2066756e647320746f207769746864726177000000000000000000000000600082015250565b60006148bd601483613bd0565b91506148c882614887565b602082019050919050565b600060208201905081810360008301526148ec816148b0565b9050919050565b600081905092915050565b50565b600061490e6000836148f3565b9150614919826148fe565b600082019050919050565b600061492f82614901565b9150819050919050565b7f4661696c656420746f2077697468647261772066756e64730000000000000000600082015250565b600061496f601883613bd0565b915061497a82614939565b602082019050919050565b6000602082019050818103600083015261499e81614962565b9050919050565b60006040820190506149ba6000830185614068565b6149c76020830184613d0c565b9392505050565b7f5072696365206d757374206265206174206c6561737420312077656900000000600082015250565b6000614a04601c83613bd0565b9150614a0f826149ce565b602082019050919050565b60006020820190508181036000830152614a33816149f7565b9050919050565b7f5072696365206d757374206265207061696420696e2066756c6c000000000000600082015250565b6000614a70601a83613bd0565b9150614a7b82614a3a565b602082019050919050565b60006020820190508181036000830152614a9f81614a63565b9050919050565b600060e082019050614abb600083018a613d0c565b614ac86020830189613d0c565b614ad56040830188613d0c565b614ae26060830187614068565b614aef6080830186614068565b614afc60a0830185613b9b565b614b0960c0830184613b9b565b98975050505050505050565b7f4e465420646f6573206e6f7420657869737420696e206d61726b6574706c616360008201527f6500000000000000000000000000000000000000000000000000000000000000602082015250565b6000614b71602183613bd0565b9150614b7c82614b15565b604082019050919050565b60006020820190508181036000830152614ba081614b64565b9050919050565b7f43616c6c6572206973206e6f7420746865206f776e6572000000000000000000600082015250565b6000614bdd601783613bd0565b9150614be882614ba7565b602082019050919050565b60006020820190508181036000830152614c0c81614bd0565b9050919050565b7f5072696365206d7573742062652067726561746572207468616e207a65726f00600082015250565b6000614c49601f83613bd0565b9150614c5482614c13565b602082019050919050565b60006020820190508181036000830152614c7881614c3c565b9050919050565b7f4552433732313a20696e76616c696420746f6b656e2049440000000000000000600082015250565b6000614cb5601883613bd0565b9150614cc082614c7f565b602082019050919050565b60006020820190508181036000830152614ce481614ca8565b9050919050565b7f4552433732313a2061646472657373207a65726f206973206e6f74206120766160008201527f6c6964206f776e65720000000000000000000000000000000000000000000000602082015250565b6000614d47602983613bd0565b9150614d5282614ceb565b604082019050919050565b60006020820190508181036000830152614d7681614d3a565b9050919050565b7f4f6e6c79206f776e65722063616e2072656c697374204e465400000000000000600082015250565b6000614db3601983613bd0565b9150614dbe82614d7d565b602082019050919050565b60006020820190508181036000830152614de281614da6565b9050919050565b6000606082019050614dfe6000830186613d0c565b614e0b6020830185613d0c565b614e186040830184614068565b949350505050565b7f506c65617365207375626d6974207468652061736b696e67207072696365206960008201527f6e206f7264657220746f20636f6d706c65746520746865207075726368617365602082015250565b6000614e7c604083613bd0565b9150614e8782614e20565b604082019050919050565b60006020820190508181036000830152614eab81614e6f565b9050919050565b600081905092915050565b6000614ec882613bc5565b614ed28185614eb2565b9350614ee2818560208601613be1565b80840191505092915050565b6000614efa8285614ebd565b9150614f068284614ebd565b91508190509392505050565b7f4552433732313a207472616e736665722066726f6d20696e636f72726563742060008201527f6f776e6572000000000000000000000000000000000000000000000000000000602082015250565b6000614f6e602583613bd0565b9150614f7982614f12565b604082019050919050565b60006020820190508181036000830152614f9d81614f61565b9050919050565b7f4552433732313a207472616e7366657220746f20746865207a65726f2061646460008201527f7265737300000000000000000000000000000000000000000000000000000000602082015250565b6000615000602483613bd0565b915061500b82614fa4565b604082019050919050565b6000602082019050818103600083015261502f81614ff3565b9050919050565b600060408201905081810360008301526150508185613c1c565b905061505f6020830184613d0c565b9392505050565b600060408201905081810360008301526150808185613c1c565b905061508f6020830184614068565b9392505050565b7f436f756e7465723a2064656372656d656e74206f766572666c6f770000000000600082015250565b60006150cc601b83613bd0565b91506150d782615096565b602082019050919050565b600060208201905081810360008301526150fb816150bf565b9050919050565b7f4552433732313a20617070726f766520746f2063616c6c657200000000000000600082015250565b6000615138601983613bd0565b915061514382615102565b602082019050919050565b600060208201905081810360008301526151678161512b565b9050919050565b7f4552433732313a207472616e7366657220746f206e6f6e20455243373231526560008201527f63656976657220696d706c656d656e7465720000000000000000000000000000602082015250565b60006151ca603283613bd0565b91506151d58261516e565b604082019050919050565b600060208201905081810360008301526151f9816151bd565b9050919050565b7f4552433732313a206d696e7420746f20746865207a65726f2061646472657373600082015250565b6000615236602083613bd0565b915061524182615200565b602082019050919050565b6000602082019050818103600083015261526581615229565b9050919050565b7f4552433732313a20746f6b656e20616c7265616479206d696e74656400000000600082015250565b60006152a2601c83613bd0565b91506152ad8261526c565b602082019050919050565b600060208201905081810360008301526152d181615295565b9050919050565b7f45524337323155524953746f726167653a2055524920736574206f66206e6f6e60008201527f6578697374656e7420746f6b656e000000000000000000000000000000000000602082015250565b6000615334602e83613bd0565b915061533f826152d8565b604082019050919050565b6000602082019050818103600083015261536381615327565b9050919050565b60008190508160005260206000209050919050565b60006020601f8301049050919050565b600082821b905092915050565b6000600883026153cc7fffffffffffffffffffffffffffffffffffffffffffffffffffffffffffffffff8261538f565b6153d6868361538f565b95508019841693508086168417925050509392505050565b6000819050919050565b600061541361540e61540984613c77565b6153ee565b613c77565b9050919050565b6000819050919050565b61542d836153f8565b6154416154398261541a565b84845461539c565b825550505050565b600090565b615456615449565b615461818484615424565b505050565b5b818110156154855761547a60008261544e565b600181019050615467565b5050565b601f8211156154ca5761549b8161536a565b6154a48461537f565b810160208510156154b3578190505b6154c76154bf8561537f565b830182615466565b50505b505050565b600082821c905092915050565b60006154ed600019846008026154cf565b1980831691505092915050565b600061550683836154dc565b9150826002028217905092915050565b61551f82613bc5565b67ffffffffffffffff811115615538576155376141d3565b5b6155428254614500565b61554d828285615489565b600060209050601f831160018114615580576000841561556e578287015190505b61557885826154fa565b8655506155e0565b601f19841661558e8661536a565b60005b828110156155b657848901518255600182019150602085019450602081019050615591565b868310156155d357848901516155cf601f8916826154dc565b8355505b6001600288020188555050505b505050505050565b600081519050919050565b600082825260208201905092915050565b600061560f826155e8565b61561981856155f3565b9350615629818560208601613be1565b61563281613c0b565b840191505092915050565b60006080820190506156526000830187613d0c565b61565f6020830186613d0c565b61566c6040830185614068565b818103606083015261567e8184615604565b905095945050505050565b60008151905061569881613b36565b92915050565b6000602082840312156156b4576156b3613b00565b5b60006156c284828501615689565b91505092915050565b7f4e487b7100000000000000000000000000000000000000000000000000000000600052601260045260246000fd5b7f4e487b7100000000000000000000000000000000000000000000000000000000600052605160045260246000fdfe437265617465204d61726b6574204974656d2046756e6374696f6e2043616c6c65723a20a2646970667358221220908a22e27e04ff1c07f35aa31c49c78e0d261f5d4c26daaffd7009c8264e2e6064736f6c63430008130033",
  "linkReferences": {},
  "deployedLinkReferences": {}
}