{
  "_format": "hh-sol-artifact-1",
  "contractName": "Marketplace",
  "sourceName": "contracts/Marketplace.sol",
  "abi": [
    {
      "inputs": [],
      "stateMutability": "nonpayable",
      "type": "constructor"
    },
    {
      "anonymous": false,
      "inputs": [
        {
          "indexed": true,
          "internalType": "address",
          "name": "owner",
          "type": "address"
        },
        {
          "indexed": true,
          "internalType": "address",
          "name": "approved",
          "type": "address"
        },
        {
          "indexed": true,
          "internalType": "uint256",
          "name": "tokenId",
          "type": "uint256"
        }
      ],
      "name": "Approval",
      "type": "event"
    },
    {
      "anonymous": false,
      "inputs": [
        {
          "indexed": true,
          "internalType": "address",
          "name": "owner",
          "type": "address"
        },
        {
          "indexed": true,
          "internalType": "address",
          "name": "operator",
          "type": "address"
        },
        {
          "indexed": false,
          "internalType": "bool",
          "name": "approved",
          "type": "bool"
        }
      ],
      "name": "ApprovalForAll",
      "type": "event"
    },
    {
      "anonymous": false,
      "inputs": [
        {
          "indexed": false,
          "internalType": "uint256",
          "name": "_fromTokenId",
          "type": "uint256"
        },
        {
          "indexed": false,
          "internalType": "uint256",
          "name": "_toTokenId",
          "type": "uint256"
        }
      ],
      "name": "BatchMetadataUpdate",
      "type": "event"
    },
    {
      "anonymous": false,
      "inputs": [
        {
          "indexed": false,
          "internalType": "uint256",
          "name": "amount",
          "type": "uint256"
        },
        {
          "indexed": false,
          "internalType": "address",
          "name": "targetWallet",
          "type": "address"
        }
      ],
      "name": "FundsWithdrawn",
      "type": "event"
    },
    {
      "anonymous": false,
      "inputs": [
        {
          "indexed": true,
          "internalType": "uint256",
          "name": "tokenId",
          "type": "uint256"
        },
        {
          "indexed": false,
          "internalType": "address",
          "name": "originalOwner",
          "type": "address"
        },
        {
          "indexed": false,
          "internalType": "address",
          "name": "seller",
          "type": "address"
        },
        {
          "indexed": false,
          "internalType": "address",
          "name": "owner",
          "type": "address"
        },
        {
          "indexed": false,
          "internalType": "uint256",
          "name": "royaltyPercentage",
          "type": "uint256"
        },
        {
          "indexed": false,
          "internalType": "uint256",
          "name": "price",
          "type": "uint256"
        },
        {
          "indexed": false,
          "internalType": "bool",
          "name": "auction",
          "type": "bool"
        },
        {
          "indexed": false,
          "internalType": "bool",
          "name": "sold",
          "type": "bool"
        }
      ],
      "name": "MarketItemCreated",
      "type": "event"
    },
    {
      "anonymous": false,
      "inputs": [
        {
          "indexed": false,
          "internalType": "uint256",
          "name": "_tokenId",
          "type": "uint256"
        }
      ],
      "name": "MetadataUpdate",
      "type": "event"
    },
    {
      "anonymous": false,
      "inputs": [
        {
          "indexed": false,
          "internalType": "uint256",
          "name": "nftId",
          "type": "uint256"
        },
        {
          "indexed": false,
          "internalType": "address",
          "name": "auctionWinner",
          "type": "address"
        }
      ],
      "name": "NFTTransferred",
      "type": "event"
    },
    {
      "anonymous": false,
      "inputs": [
        {
          "indexed": true,
          "internalType": "address",
          "name": "from",
          "type": "address"
        },
        {
          "indexed": true,
          "internalType": "address",
          "name": "to",
          "type": "address"
        },
        {
          "indexed": true,
          "internalType": "uint256",
          "name": "tokenId",
          "type": "uint256"
        }
      ],
      "name": "Transfer",
      "type": "event"
    },
    {
      "stateMutability": "payable",
      "type": "fallback"
    },
    {
      "inputs": [
        {
          "internalType": "address",
          "name": "to",
          "type": "address"
        },
        {
          "internalType": "uint256",
          "name": "tokenId",
          "type": "uint256"
        }
      ],
      "name": "approve",
      "outputs": [],
      "stateMutability": "nonpayable",
      "type": "function"
    },
    {
      "inputs": [
        {
          "internalType": "address",
          "name": "owner",
          "type": "address"
        }
      ],
      "name": "balanceOf",
      "outputs": [
        {
          "internalType": "uint256",
          "name": "",
          "type": "uint256"
        }
      ],
      "stateMutability": "view",
      "type": "function"
    },
    {
      "inputs": [
        {
          "internalType": "uint256",
          "name": "tokenId",
          "type": "uint256"
        },
        {
          "internalType": "uint256",
          "name": "royaltyPercentage",
          "type": "uint256"
        },
        {
          "internalType": "uint256",
          "name": "price",
          "type": "uint256"
        }
      ],
      "name": "createMarketItem",
      "outputs": [],
      "stateMutability": "payable",
      "type": "function"
    },
    {
      "inputs": [
        {
          "internalType": "uint256",
          "name": "tokenId",
          "type": "uint256"
        }
      ],
      "name": "createMarketSale",
      "outputs": [],
      "stateMutability": "payable",
      "type": "function"
    },
    {
      "inputs": [
        {
          "internalType": "string",
          "name": "tokenURI",
          "type": "string"
        },
        {
          "internalType": "uint256",
          "name": "royaltyPercentage",
          "type": "uint256"
        },
        {
          "internalType": "uint256",
          "name": "price",
          "type": "uint256"
        }
      ],
      "name": "createToken",
      "outputs": [
        {
          "internalType": "uint256",
          "name": "",
          "type": "uint256"
        }
      ],
      "stateMutability": "payable",
      "type": "function"
    },
    {
      "inputs": [
        {
          "internalType": "uint256",
          "name": "tokenId",
          "type": "uint256"
        }
      ],
      "name": "delistMarketItem",
      "outputs": [],
      "stateMutability": "nonpayable",
      "type": "function"
    },
    {
      "inputs": [],
      "name": "fetchItemsListed",
      "outputs": [
        {
          "components": [
            {
              "internalType": "uint256",
              "name": "tokenId",
              "type": "uint256"
            },
            {
              "internalType": "address payable",
              "name": "originalOwner",
              "type": "address"
            },
            {
              "internalType": "address payable",
              "name": "seller",
              "type": "address"
            },
            {
              "internalType": "address payable",
              "name": "owner",
              "type": "address"
            },
            {
              "internalType": "uint256",
              "name": "royaltyPercentage",
              "type": "uint256"
            },
            {
              "internalType": "uint256",
              "name": "price",
              "type": "uint256"
            },
            {
              "internalType": "bool",
              "name": "auction",
              "type": "bool"
            },
            {
              "internalType": "bool",
              "name": "sold",
              "type": "bool"
            }
          ],
          "internalType": "struct Marketplace.MarketItem[]",
          "name": "",
          "type": "tuple[]"
        }
      ],
      "stateMutability": "view",
      "type": "function"
    },
    {
      "inputs": [],
      "name": "fetchMarketItems",
      "outputs": [
        {
          "components": [
            {
              "internalType": "uint256",
              "name": "tokenId",
              "type": "uint256"
            },
            {
              "internalType": "address payable",
              "name": "originalOwner",
              "type": "address"
            },
            {
              "internalType": "address payable",
              "name": "seller",
              "type": "address"
            },
            {
              "internalType": "address payable",
              "name": "owner",
              "type": "address"
            },
            {
              "internalType": "uint256",
              "name": "royaltyPercentage",
              "type": "uint256"
            },
            {
              "internalType": "uint256",
              "name": "price",
              "type": "uint256"
            },
            {
              "internalType": "bool",
              "name": "auction",
              "type": "bool"
            },
            {
              "internalType": "bool",
              "name": "sold",
              "type": "bool"
            }
          ],
          "internalType": "struct Marketplace.MarketItem[]",
          "name": "",
          "type": "tuple[]"
        }
      ],
      "stateMutability": "view",
      "type": "function"
    },
    {
      "inputs": [],
      "name": "fetchMyNFT",
      "outputs": [
        {
          "components": [
            {
              "internalType": "uint256",
              "name": "tokenId",
              "type": "uint256"
            },
            {
              "internalType": "address payable",
              "name": "originalOwner",
              "type": "address"
            },
            {
              "internalType": "address payable",
              "name": "seller",
              "type": "address"
            },
            {
              "internalType": "address payable",
              "name": "owner",
              "type": "address"
            },
            {
              "internalType": "uint256",
              "name": "royaltyPercentage",
              "type": "uint256"
            },
            {
              "internalType": "uint256",
              "name": "price",
              "type": "uint256"
            },
            {
              "internalType": "bool",
              "name": "auction",
              "type": "bool"
            },
            {
              "internalType": "bool",
              "name": "sold",
              "type": "bool"
            }
          ],
          "internalType": "struct Marketplace.MarketItem[]",
          "name": "",
          "type": "tuple[]"
        }
      ],
      "stateMutability": "view",
      "type": "function"
    },
    {
      "inputs": [
        {
          "internalType": "uint256",
          "name": "tokenId",
          "type": "uint256"
        }
      ],
      "name": "getApproved",
      "outputs": [
        {
          "internalType": "address",
          "name": "",
          "type": "address"
        }
      ],
      "stateMutability": "view",
      "type": "function"
    },
    {
      "inputs": [
        {
          "internalType": "uint256",
          "name": "tokenId",
          "type": "uint256"
        }
      ],
      "name": "getNFTPrice",
      "outputs": [
        {
          "internalType": "uint256",
          "name": "price",
          "type": "uint256"
        }
      ],
      "stateMutability": "view",
      "type": "function"
    },
    {
      "inputs": [
        {
          "internalType": "uint256",
          "name": "tokenId",
          "type": "uint256"
        }
      ],
      "name": "getRoyaltyData",
      "outputs": [
        {
          "internalType": "uint256",
          "name": "",
          "type": "uint256"
        },
        {
          "internalType": "address payable",
          "name": "",
          "type": "address"
        }
      ],
      "stateMutability": "view",
      "type": "function"
    },
    {
      "inputs": [
        {
          "internalType": "uint256",
          "name": "tokenId",
          "type": "uint256"
        }
      ],
      "name": "getSellerAddress",
      "outputs": [
        {
          "internalType": "address",
          "name": "",
          "type": "address"
        }
      ],
      "stateMutability": "view",
      "type": "function"
    },
    {
      "inputs": [
        {
          "internalType": "uint256",
          "name": "tokenId",
          "type": "uint256"
        },
        {
          "internalType": "address",
          "name": "winner",
          "type": "address"
        }
      ],
      "name": "handleAuctionEnd",
      "outputs": [],
      "stateMutability": "nonpayable",
      "type": "function"
    },
    {
      "inputs": [
        {
          "internalType": "address",
          "name": "owner",
          "type": "address"
        },
        {
          "internalType": "address",
          "name": "operator",
          "type": "address"
        }
      ],
      "name": "isApprovedForAll",
      "outputs": [
        {
          "internalType": "bool",
          "name": "",
          "type": "bool"
        }
      ],
      "stateMutability": "view",
      "type": "function"
    },
    {
      "inputs": [],
      "name": "name",
      "outputs": [
        {
          "internalType": "string",
          "name": "",
          "type": "string"
        }
      ],
      "stateMutability": "view",
      "type": "function"
    },
    {
      "inputs": [
        {
          "internalType": "uint256",
          "name": "tokenId",
          "type": "uint256"
        }
      ],
      "name": "ownerOf",
      "outputs": [
        {
          "internalType": "address",
          "name": "",
          "type": "address"
        }
      ],
      "stateMutability": "view",
      "type": "function"
    },
    {
      "inputs": [
        {
          "internalType": "uint256",
          "name": "tokenId",
          "type": "uint256"
        },
        {
          "internalType": "uint256",
          "name": "price",
          "type": "uint256"
        },
        {
          "internalType": "address",
          "name": "seller",
          "type": "address"
        }
      ],
      "name": "resellMarketItem",
      "outputs": [],
      "stateMutability": "payable",
      "type": "function"
    },
    {
      "inputs": [
        {
          "internalType": "address",
          "name": "from",
          "type": "address"
        },
        {
          "internalType": "address",
          "name": "to",
          "type": "address"
        },
        {
          "internalType": "uint256",
          "name": "tokenId",
          "type": "uint256"
        }
      ],
      "name": "safeTransferFrom",
      "outputs": [],
      "stateMutability": "nonpayable",
      "type": "function"
    },
    {
      "inputs": [
        {
          "internalType": "address",
          "name": "from",
          "type": "address"
        },
        {
          "internalType": "address",
          "name": "to",
          "type": "address"
        },
        {
          "internalType": "uint256",
          "name": "tokenId",
          "type": "uint256"
        },
        {
          "internalType": "bytes",
          "name": "data",
          "type": "bytes"
        }
      ],
      "name": "safeTransferFrom",
      "outputs": [],
      "stateMutability": "nonpayable",
      "type": "function"
    },
    {
      "inputs": [
        {
          "internalType": "address",
          "name": "operator",
          "type": "address"
        },
        {
          "internalType": "bool",
          "name": "approved",
          "type": "bool"
        }
      ],
      "name": "setApprovalForAll",
      "outputs": [],
      "stateMutability": "nonpayable",
      "type": "function"
    },
    {
      "inputs": [
        {
          "internalType": "address",
          "name": "auctionFactoryAddress",
          "type": "address"
        }
      ],
      "name": "setAuctionFactoryAddress",
      "outputs": [],
      "stateMutability": "nonpayable",
      "type": "function"
    },
    {
      "inputs": [
        {
          "internalType": "bytes4",
          "name": "interfaceId",
          "type": "bytes4"
        }
      ],
      "name": "supportsInterface",
      "outputs": [
        {
          "internalType": "bool",
          "name": "",
          "type": "bool"
        }
      ],
      "stateMutability": "view",
      "type": "function"
    },
    {
      "inputs": [],
      "name": "symbol",
      "outputs": [
        {
          "internalType": "string",
          "name": "",
          "type": "string"
        }
      ],
      "stateMutability": "view",
      "type": "function"
    },
    {
      "inputs": [
        {
          "internalType": "uint256",
          "name": "tokenId",
          "type": "uint256"
        }
      ],
      "name": "tokenURI",
      "outputs": [
        {
          "internalType": "string",
          "name": "",
          "type": "string"
        }
      ],
      "stateMutability": "view",
      "type": "function"
    },
    {
      "inputs": [
        {
          "internalType": "address",
          "name": "from",
          "type": "address"
        },
        {
          "internalType": "address",
          "name": "to",
          "type": "address"
        },
        {
          "internalType": "uint256",
          "name": "tokenId",
          "type": "uint256"
        }
      ],
      "name": "transferFrom",
      "outputs": [],
      "stateMutability": "nonpayable",
      "type": "function"
    },
    {
      "inputs": [
        {
          "internalType": "address",
          "name": "auctionContractAddress",
          "type": "address"
        },
        {
          "internalType": "uint256",
          "name": "tokenId",
          "type": "uint256"
        }
      ],
      "name": "triggerEndAuction",
      "outputs": [],
      "stateMutability": "nonpayable",
      "type": "function"
    },
    {
      "inputs": [
        {
          "internalType": "uint256",
          "name": "_listingPrice",
          "type": "uint256"
        }
      ],
      "name": "updateListingPrice",
      "outputs": [],
      "stateMutability": "payable",
      "type": "function"
    },
    {
      "inputs": [
        {
          "internalType": "uint256",
          "name": "tokenId",
          "type": "uint256"
        },
        {
          "internalType": "uint256",
          "name": "price",
          "type": "uint256"
        }
      ],
      "name": "updateNFTPrice",
      "outputs": [],
      "stateMutability": "nonpayable",
      "type": "function"
    },
    {
      "inputs": [],
      "name": "withdrawFunds",
      "outputs": [],
      "stateMutability": "nonpayable",
      "type": "function"
    },
    {
      "stateMutability": "payable",
      "type": "receive"
    }
  ],
  "bytecode": "0x60806040526608e1bc9bf04000600a553480156200001c57600080fd5b506040518060400160405280601381526020017f4e4654204d657461766572736520546f6b656e000000000000000000000000008152506040518060400160405280600581526020017f4d594e465400000000000000000000000000000000000000000000000000000081525081600090816200009a919062000378565b508060019081620000ac919062000378565b505050600160078190555033600b60006101000a81548173ffffffffffffffffffffffffffffffffffffffff021916908373ffffffffffffffffffffffffffffffffffffffff1602179055506200045f565b600081519050919050565b7f4e487b7100000000000000000000000000000000000000000000000000000000600052604160045260246000fd5b7f4e487b7100000000000000000000000000000000000000000000000000000000600052602260045260246000fd5b600060028204905060018216806200018057607f821691505b60208210810362000196576200019562000138565b5b50919050565b60008190508160005260206000209050919050565b60006020601f8301049050919050565b600082821b905092915050565b600060088302620002007fffffffffffffffffffffffffffffffffffffffffffffffffffffffffffffffff82620001c1565b6200020c8683620001c1565b95508019841693508086168417925050509392505050565b6000819050919050565b6000819050919050565b600062000259620002536200024d8462000224565b6200022e565b62000224565b9050919050565b6000819050919050565b620002758362000238565b6200028d620002848262000260565b848454620001ce565b825550505050565b600090565b620002a462000295565b620002b18184846200026a565b505050565b5b81811015620002d957620002cd6000826200029a565b600181019050620002b7565b5050565b601f8211156200032857620002f2816200019c565b620002fd84620001b1565b810160208510156200030d578190505b620003256200031c85620001b1565b830182620002b6565b50505b505050565b600082821c905092915050565b60006200034d600019846008026200032d565b1980831691505092915050565b60006200036883836200033a565b9150826002028217905092915050565b6200038382620000fe565b67ffffffffffffffff8111156200039f576200039e62000109565b5b620003ab825462000167565b620003b8828285620002dd565b600060209050601f831160018114620003f05760008415620003db578287015190505b620003e785826200035a565b86555062000457565b601f19841662000400866200019c565b60005b828110156200042a5784890151825560018201915060208501945060208101905062000403565b868310156200044a578489015162000446601f8916826200033a565b8355505b6001600288020188555050505b505050505050565b615a0c806200046f6000396000f3fe6080604052600436106101d15760003560e01c80638f329b31116100f7578063ae677aa311610095578063c18763f711610064578063c18763f71461065a578063c68a0e1614610685578063c87b56dd146106ae578063e985e9c5146106eb576101d8565b8063ae677aa3146105c9578063b88d4fde146105e5578063be9af5361461060e578063bec2a7c51461062a576101d8565b806399f14a8b116100d157806399f14a8b146104fc578063a22cb46514610525578063a65ff74c1461054e578063a675364d1461058c576101d8565b80638f329b311461046b578063929761791461049457806395d89b41146104d1576101d8565b806324600fc31161016f5780634ac0123d1161013e5780634ac0123d146103ac5780636352211e146103d557806370a0823114610412578063804fa8351461044f576101d8565b806324600fc314610325578063320343da1461033c57806342842e0e1461035857806345f8fa8014610381576101d8565b8063095ea7b3116101ab578063095ea7b31461027f5780630f08efe0146102a85780631cb88133146102d357806323b872dd146102fc576101d8565b806301ffc9a7146101da57806306fdde0314610217578063081812fc14610242576101d8565b366101d857005b005b3480156101e657600080fd5b5061020160048036038101906101fc9190613d7f565b610728565b60405161020e9190613dc7565b60405180910390f35b34801561022357600080fd5b5061022c610789565b6040516102399190613e72565b60405180910390f35b34801561024e57600080fd5b5061026960048036038101906102649190613eca565b61081b565b6040516102769190613f38565b60405180910390f35b34801561028b57600080fd5b506102a660048036038101906102a19190613f7f565b610861565b005b3480156102b457600080fd5b506102bd610978565b6040516102ca9190614150565b60405180910390f35b3480156102df57600080fd5b506102fa60048036038101906102f59190614172565b610c5c565b005b34801561030857600080fd5b50610323600480360381019061031e919061419f565b610ca0565b005b34801561033157600080fd5b5061033a610d00565b005b610356600480360381019061035191906141f2565b610ee3565b005b34801561036457600080fd5b5061037f600480360381019061037a919061419f565b6111ad565b005b34801561038d57600080fd5b506103966111cd565b6040516103a39190614150565b60405180910390f35b3480156103b857600080fd5b506103d360048036038101906103ce9190614245565b611535565b005b3480156103e157600080fd5b506103fc60048036038101906103f79190613eca565b611735565b6040516104099190613f38565b60405180910390f35b34801561041e57600080fd5b5061043960048036038101906104349190614172565b6117bb565b6040516104469190614294565b60405180910390f35b610469600480360381019061046491906142af565b611872565b005b34801561047757600080fd5b50610492600480360381019061048d9190614302565b611b90565b005b3480156104a057600080fd5b506104bb60048036038101906104b69190613eca565b611cc0565b6040516104c89190614294565b60405180910390f35b3480156104dd57600080fd5b506104e6611e47565b6040516104f39190613e72565b60405180910390f35b34801561050857600080fd5b50610523600480360381019061051e9190613f7f565b611ed9565b005b34801561053157600080fd5b5061054c6004803603810190610547919061436e565b611f4e565b005b34801561055a57600080fd5b5061057560048036038101906105709190613eca565b611f64565b6040516105839291906143bd565b60405180910390f35b34801561059857600080fd5b506105b360048036038101906105ae9190613eca565b6120f4565b6040516105c09190613f38565b60405180910390f35b6105e360048036038101906105de9190613eca565b612134565b005b3480156105f157600080fd5b5061060c6004803603810190610607919061451b565b6121ce565b005b61062860048036038101906106239190613eca565b612230565b005b610644600480360381019061063f919061463f565b612412565b6040516106519190614294565b60405180910390f35b34801561066657600080fd5b5061066f612456565b60405161067c9190614150565b60405180910390f35b34801561069157600080fd5b506106ac60048036038101906106a79190613eca565b6127be565b005b3480156106ba57600080fd5b506106d560048036038101906106d09190613eca565b6128fe565b6040516106e29190613e72565b60405180910390f35b3480156106f757600080fd5b50610712600480360381019061070d91906146ae565b612a10565b60405161071f9190613dc7565b60405180910390f35b6000634906490660e01b7bffffffffffffffffffffffffffffffffffffffffffffffffffffffff1916827bffffffffffffffffffffffffffffffffffffffffffffffffffffffff19161480610782575061078182612aa4565b5b9050919050565b6060600080546107989061471d565b80601f01602080910402602001604051908101604052809291908181526020018280546107c49061471d565b80156108115780601f106107e657610100808354040283529160200191610811565b820191906000526020600020905b8154815290600101906020018083116107f457829003601f168201915b5050505050905090565b600061082682612b86565b6004600083815260200190815260200160002060009054906101000a900473ffffffffffffffffffffffffffffffffffffffff169050919050565b600061086c82611735565b90508073ffffffffffffffffffffffffffffffffffffffff168373ffffffffffffffffffffffffffffffffffffffff16036108dc576040517f08c379a00000000000000000000000000000000000000000000000000000000081526004016108d3906147c0565b60405180910390fd5b8073ffffffffffffffffffffffffffffffffffffffff166108fb612bd1565b73ffffffffffffffffffffffffffffffffffffffff16148061092a575061092981610924612bd1565b612a10565b5b610969576040517f08c379a000000000000000000000000000000000000000000000000000000000815260040161096090614852565b60405180910390fd5b6109738383612bd9565b505050565b606060006109866008612c92565b905060006109946009612c92565b61099e6008612c92565b6109a891906148a1565b90506000808267ffffffffffffffff8111156109c7576109c66143f0565b5b604051908082528060200260200182016040528015610a0057816020015b6109ed613c7e565b8152602001906001900390816109e55790505b50905060005b84811015610c51573073ffffffffffffffffffffffffffffffffffffffff16600d6000600184610a3691906148d5565b815260200190815260200160002060030160009054906101000a900473ffffffffffffffffffffffffffffffffffffffff1673ffffffffffffffffffffffffffffffffffffffff1603610c3e576000600182610a9291906148d5565b90506000600d600083815260200190815260200160002090508060405180610100016040529081600082015481526020016001820160009054906101000a900473ffffffffffffffffffffffffffffffffffffffff1673ffffffffffffffffffffffffffffffffffffffff1673ffffffffffffffffffffffffffffffffffffffff1681526020016002820160009054906101000a900473ffffffffffffffffffffffffffffffffffffffff1673ffffffffffffffffffffffffffffffffffffffff1673ffffffffffffffffffffffffffffffffffffffff1681526020016003820160009054906101000a900473ffffffffffffffffffffffffffffffffffffffff1673ffffffffffffffffffffffffffffffffffffffff1673ffffffffffffffffffffffffffffffffffffffff16815260200160048201548152602001600582015481526020016006820160009054906101000a900460ff161515151581526020016006820160019054906101000a900460ff161515151581525050848681518110610c2157610c20614909565b5b6020026020010181905250600185610c3991906148d5565b945050505b8080610c4990614938565b915050610a06565b508094505050505090565b80600c60006101000a81548173ffffffffffffffffffffffffffffffffffffffff021916908373ffffffffffffffffffffffffffffffffffffffff16021790555050565b610cb1610cab612bd1565b82612ca0565b610cf0576040517f08c379a0000000000000000000000000000000000000000000000000000000008152600401610ce7906149f2565b60405180910390fd5b610cfb838383612d35565b505050565b600b60009054906101000a900473ffffffffffffffffffffffffffffffffffffffff1673ffffffffffffffffffffffffffffffffffffffff163373ffffffffffffffffffffffffffffffffffffffff1614610d90576040517f08c379a0000000000000000000000000000000000000000000000000000000008152600401610d8790614a84565b60405180910390fd5b600047905060008111610dd8576040517f08c379a0000000000000000000000000000000000000000000000000000000008152600401610dcf90614af0565b60405180910390fd5b6000600b60009054906101000a900473ffffffffffffffffffffffffffffffffffffffff1673ffffffffffffffffffffffffffffffffffffffff1682604051610e2090614b41565b60006040518083038185875af1925050503d8060008114610e5d576040519150601f19603f3d011682016040523d82523d6000602084013e610e62565b606091505b5050905080610ea6576040517f08c379a0000000000000000000000000000000000000000000000000000000008152600401610e9d90614ba2565b60405180910390fd5b7f6141b54b56b8a52a8c6f5cd2a857f6117b18ffbf4d46bd3106f300a839cbf5ea8233604051610ed7929190614bc2565b60405180910390a15050565b610f056040518060600160405280602481526020016159b3602491393361302e565b60008111610f48576040517f08c379a0000000000000000000000000000000000000000000000000000000008152600401610f3f90614c37565b60405180910390fd5b600a543414610f8c576040517f08c379a0000000000000000000000000000000000000000000000000000000008152600401610f8390614ca3565b60405180910390fd5b6040518061010001604052808481526020013373ffffffffffffffffffffffffffffffffffffffff1681526020013373ffffffffffffffffffffffffffffffffffffffff1681526020013073ffffffffffffffffffffffffffffffffffffffff16815260200183815260200182815260200160001515815260200160001515815250600d60008581526020019081526020016000206000820151816000015560208201518160010160006101000a81548173ffffffffffffffffffffffffffffffffffffffff021916908373ffffffffffffffffffffffffffffffffffffffff16021790555060408201518160020160006101000a81548173ffffffffffffffffffffffffffffffffffffffff021916908373ffffffffffffffffffffffffffffffffffffffff16021790555060608201518160030160006101000a81548173ffffffffffffffffffffffffffffffffffffffff021916908373ffffffffffffffffffffffffffffffffffffffff1602179055506080820151816004015560a0820151816005015560c08201518160060160006101000a81548160ff02191690831515021790555060e08201518160060160016101000a81548160ff021916908315150217905550905050611162333085612d35565b827f6be207084465b1afd1fb9af05976e6d285e34a16bc67aaa8e62ebbbf7c406aac3333600086866000806040516111a09796959493929190614cc3565b60405180910390a2505050565b6111c8838383604051806020016040528060008152506121ce565b505050565b606060006111db6008612c92565b905060008060005b83811015611283573373ffffffffffffffffffffffffffffffffffffffff16600d600060018461121391906148d5565b815260200190815260200160002060020160009054906101000a900473ffffffffffffffffffffffffffffffffffffffff1673ffffffffffffffffffffffffffffffffffffffff16036112705760018361126d91906148d5565b92505b808061127b90614938565b9150506111e3565b5060008267ffffffffffffffff8111156112a05761129f6143f0565b5b6040519080825280602002602001820160405280156112d957816020015b6112c6613c7e565b8152602001906001900390816112be5790505b50905060005b8481101561152a573373ffffffffffffffffffffffffffffffffffffffff16600d600060018461130f91906148d5565b815260200190815260200160002060020160009054906101000a900473ffffffffffffffffffffffffffffffffffffffff1673ffffffffffffffffffffffffffffffffffffffff160361151757600060018261136b91906148d5565b90506000600d600083815260200190815260200160002090508060405180610100016040529081600082015481526020016001820160009054906101000a900473ffffffffffffffffffffffffffffffffffffffff1673ffffffffffffffffffffffffffffffffffffffff1673ffffffffffffffffffffffffffffffffffffffff1681526020016002820160009054906101000a900473ffffffffffffffffffffffffffffffffffffffff1673ffffffffffffffffffffffffffffffffffffffff1673ffffffffffffffffffffffffffffffffffffffff1681526020016003820160009054906101000a900473ffffffffffffffffffffffffffffffffffffffff1673ffffffffffffffffffffffffffffffffffffffff1673ffffffffffffffffffffffffffffffffffffffff16815260200160048201548152602001600582015481526020016006820160009054906101000a900460ff161515151581526020016006820160019054906101000a900460ff1615151515815250508486815181106114fa576114f9614909565b5b602002602001018190525060018561151291906148d5565b945050505b808061152290614938565b9150506112df565b508094505050505090565b600073ffffffffffffffffffffffffffffffffffffffff16600d600084815260200190815260200160002060030160009054906101000a900473ffffffffffffffffffffffffffffffffffffffff1673ffffffffffffffffffffffffffffffffffffffff16036115da576040517f08c379a00000000000000000000000000000000000000000000000000000000081526004016115d190614da4565b60405180910390fd5b3373ffffffffffffffffffffffffffffffffffffffff16600d600084815260200190815260200160002060020160009054906101000a900473ffffffffffffffffffffffffffffffffffffffff1673ffffffffffffffffffffffffffffffffffffffff161461167e576040517f08c379a000000000000000000000000000000000000000000000000000000000815260040161167590614e10565b60405180910390fd5b600081116116c1576040517f08c379a00000000000000000000000000000000000000000000000000000000081526004016116b890614e7c565b60405180910390fd5b80600d6000848152602001908152602001600020600501819055506117316040518060400160405280601581526020017f55706461746564206d61726b6574206974656d3a200000000000000000000000815250600d6000858152602001908152602001600020600501546130ca565b5050565b60008061174183613166565b9050600073ffffffffffffffffffffffffffffffffffffffff168173ffffffffffffffffffffffffffffffffffffffff16036117b2576040517f08c379a00000000000000000000000000000000000000000000000000000000081526004016117a990614ee8565b60405180910390fd5b80915050919050565b60008073ffffffffffffffffffffffffffffffffffffffff168273ffffffffffffffffffffffffffffffffffffffff160361182b576040517f08c379a000000000000000000000000000000000000000000000000000000000815260040161182290614f7a565b60405180910390fd5b600360008373ffffffffffffffffffffffffffffffffffffffff1673ffffffffffffffffffffffffffffffffffffffff168152602001908152602001600020549050919050565b6118b06040518060400160405280601981526020017f526573656c6c206d61726b6574206974656d2063616c6c6564000000000000008152506131a3565b3373ffffffffffffffffffffffffffffffffffffffff16600d600085815260200190815260200160002060030160009054906101000a900473ffffffffffffffffffffffffffffffffffffffff1673ffffffffffffffffffffffffffffffffffffffff16148061196d5750600c60009054906101000a900473ffffffffffffffffffffffffffffffffffffffff1673ffffffffffffffffffffffffffffffffffffffff163373ffffffffffffffffffffffffffffffffffffffff16145b6119ac576040517f08c379a00000000000000000000000000000000000000000000000000000000081526004016119a390614fe6565b60405180910390fd5b600c60009054906101000a900473ffffffffffffffffffffffffffffffffffffffff1673ffffffffffffffffffffffffffffffffffffffff163373ffffffffffffffffffffffffffffffffffffffff1603611a31576001600d600085815260200190815260200160002060060160006101000a81548160ff0219169083151502179055505b6000600d600085815260200190815260200160002060060160016101000a81548160ff02191690831515021790555081600d60008581526020019081526020016000206005018190555033600d600085815260200190815260200160002060020160006101000a81548173ffffffffffffffffffffffffffffffffffffffff021916908373ffffffffffffffffffffffffffffffffffffffff16021790555030600d600085815260200190815260200160002060030160006101000a81548173ffffffffffffffffffffffffffffffffffffffff021916908373ffffffffffffffffffffffffffffffffffffffff1602179055506000611b316009612c92565b1115611b4257611b41600961323c565b5b611b4d813085612d35565b611b8b6040518060400160405280601981526020017f526573656c6c207472616e7366657220737563636565646564000000000000008152506131a3565b505050565b3073ffffffffffffffffffffffffffffffffffffffff166342842e0e3083856040518463ffffffff1660e01b8152600401611bcd93929190615006565b600060405180830381600087803b158015611be757600080fd5b505af1158015611bfb573d6000803e3d6000fd5b5050505080600d600084815260200190815260200160002060030160006101000a81548173ffffffffffffffffffffffffffffffffffffffff021916908373ffffffffffffffffffffffffffffffffffffffff1602179055506001600d600084815260200190815260200160002060060160016101000a81548160ff0219169083151502179055507f20665ee57a5e13af162123968d777ccebe86531a21e53d08afc78138a950192d8282604051611cb4929190614bc2565b60405180910390a15050565b600080600d600084815260200190815260200160002060405180610100016040529081600082015481526020016001820160009054906101000a900473ffffffffffffffffffffffffffffffffffffffff1673ffffffffffffffffffffffffffffffffffffffff1673ffffffffffffffffffffffffffffffffffffffff1681526020016002820160009054906101000a900473ffffffffffffffffffffffffffffffffffffffff1673ffffffffffffffffffffffffffffffffffffffff1673ffffffffffffffffffffffffffffffffffffffff1681526020016003820160009054906101000a900473ffffffffffffffffffffffffffffffffffffffff1673ffffffffffffffffffffffffffffffffffffffff1673ffffffffffffffffffffffffffffffffffffffff16815260200160048201548152602001600582015481526020016006820160009054906101000a900460ff161515151581526020016006820160019054906101000a900460ff16151515158152505090508060a00151915050919050565b606060018054611e569061471d565b80601f0160208091040260200160405190810160405280929190818152602001828054611e829061471d565b8015611ecf5780601f10611ea457610100808354040283529160200191611ecf565b820191906000526020600020905b815481529060010190602001808311611eb257829003601f168201915b5050505050905090565b60008290508073ffffffffffffffffffffffffffffffffffffffff1663b9a2de3a836040518263ffffffff1660e01b8152600401611f179190614294565b600060405180830381600087803b158015611f3157600080fd5b505af1158015611f45573d6000803e3d6000fd5b50505050505050565b611f60611f59612bd1565b8383613298565b5050565b6000806000600d600085815260200190815260200160002060405180610100016040529081600082015481526020016001820160009054906101000a900473ffffffffffffffffffffffffffffffffffffffff1673ffffffffffffffffffffffffffffffffffffffff1673ffffffffffffffffffffffffffffffffffffffff1681526020016002820160009054906101000a900473ffffffffffffffffffffffffffffffffffffffff1673ffffffffffffffffffffffffffffffffffffffff1673ffffffffffffffffffffffffffffffffffffffff1681526020016003820160009054906101000a900473ffffffffffffffffffffffffffffffffffffffff1673ffffffffffffffffffffffffffffffffffffffff1673ffffffffffffffffffffffffffffffffffffffff16815260200160048201548152602001600582015481526020016006820160009054906101000a900460ff161515151581526020016006820160019054906101000a900460ff1615151515815250509050806080015181602001519250925050915091565b6000600d600083815260200190815260200160002060020160009054906101000a900473ffffffffffffffffffffffffffffffffffffffff169050919050565b600b60009054906101000a900473ffffffffffffffffffffffffffffffffffffffff1673ffffffffffffffffffffffffffffffffffffffff163373ffffffffffffffffffffffffffffffffffffffff16146121c4576040517f08c379a00000000000000000000000000000000000000000000000000000000081526004016121bb90614a84565b60405180910390fd5b80600a8190555050565b6121df6121d9612bd1565b83612ca0565b61221e576040517f08c379a0000000000000000000000000000000000000000000000000000000008152600401612215906149f2565b60405180910390fd5b61222a84848484613404565b50505050565b6000600d600083815260200190815260200160002060050154905080341461228d576040517f08c379a0000000000000000000000000000000000000000000000000000000008152600401612284906150af565b60405180910390fd5b33600d600084815260200190815260200160002060030160006101000a81548173ffffffffffffffffffffffffffffffffffffffff021916908373ffffffffffffffffffffffffffffffffffffffff1602179055506001600d600084815260200190815260200160002060060160016101000a81548160ff02191690831515021790555061231b6009613460565b612326303384612d35565b600b60009054906101000a900473ffffffffffffffffffffffffffffffffffffffff1673ffffffffffffffffffffffffffffffffffffffff166108fc600a549081150290604051600060405180830381858888f19350505050158015612390573d6000803e3d6000fd5b50600d600083815260200190815260200160002060020160009054906101000a900473ffffffffffffffffffffffffffffffffffffffff1673ffffffffffffffffffffffffffffffffffffffff166108fc349081150290604051600060405180830381858888f1935050505015801561240d573d6000803e3d6000fd5b505050565b600061241e6008613460565b600061242a6008612c92565b90506124363382613476565b6124408186613693565b61244b818585610ee3565b809150509392505050565b606060006124646008612c92565b905060008060005b8381101561250c573373ffffffffffffffffffffffffffffffffffffffff16600d600060018461249c91906148d5565b815260200190815260200160002060030160009054906101000a900473ffffffffffffffffffffffffffffffffffffffff1673ffffffffffffffffffffffffffffffffffffffff16036124f9576001836124f691906148d5565b92505b808061250490614938565b91505061246c565b5060008267ffffffffffffffff811115612529576125286143f0565b5b60405190808252806020026020018201604052801561256257816020015b61254f613c7e565b8152602001906001900390816125475790505b50905060005b848110156127b3573373ffffffffffffffffffffffffffffffffffffffff16600d600060018461259891906148d5565b815260200190815260200160002060030160009054906101000a900473ffffffffffffffffffffffffffffffffffffffff1673ffffffffffffffffffffffffffffffffffffffff16036127a05760006001826125f491906148d5565b90506000600d600083815260200190815260200160002090508060405180610100016040529081600082015481526020016001820160009054906101000a900473ffffffffffffffffffffffffffffffffffffffff1673ffffffffffffffffffffffffffffffffffffffff1673ffffffffffffffffffffffffffffffffffffffff1681526020016002820160009054906101000a900473ffffffffffffffffffffffffffffffffffffffff1673ffffffffffffffffffffffffffffffffffffffff1673ffffffffffffffffffffffffffffffffffffffff1681526020016003820160009054906101000a900473ffffffffffffffffffffffffffffffffffffffff1673ffffffffffffffffffffffffffffffffffffffff1673ffffffffffffffffffffffffffffffffffffffff16815260200160048201548152602001600582015481526020016006820160009054906101000a900460ff161515151581526020016006820160019054906101000a900460ff16151515158152505084868151811061278357612782614909565b5b602002602001018190525060018561279b91906148d5565b945050505b80806127ab90614938565b915050612568565b508094505050505090565b600d600082815260200190815260200160002060020160009054906101000a900473ffffffffffffffffffffffffffffffffffffffff1673ffffffffffffffffffffffffffffffffffffffff163373ffffffffffffffffffffffffffffffffffffffff1614612862576040517f08c379a00000000000000000000000000000000000000000000000000000000081526004016128599061511b565b60405180910390fd5b61286d303383612d35565b33600d600083815260200190815260200160002060030160006101000a81548173ffffffffffffffffffffffffffffffffffffffff021916908373ffffffffffffffffffffffffffffffffffffffff1602179055506001600d600083815260200190815260200160002060060160016101000a81548160ff0219169083151502179055506128fb6009613460565b50565b606061290982612b86565b60006006600084815260200190815260200160002080546129299061471d565b80601f01602080910402602001604051908101604052809291908181526020018280546129559061471d565b80156129a25780601f10612977576101008083540402835291602001916129a2565b820191906000526020600020905b81548152906001019060200180831161298557829003601f168201915b5050505050905060006129b3613737565b905060008151036129c8578192505050612a0b565b6000825111156129fd5780826040516020016129e5929190615177565b60405160208183030381529060405292505050612a0b565b612a068461374e565b925050505b919050565b6000600560008473ffffffffffffffffffffffffffffffffffffffff1673ffffffffffffffffffffffffffffffffffffffff16815260200190815260200160002060008373ffffffffffffffffffffffffffffffffffffffff1673ffffffffffffffffffffffffffffffffffffffff16815260200190815260200160002060009054906101000a900460ff16905092915050565b60007f80ac58cd000000000000000000000000000000000000000000000000000000007bffffffffffffffffffffffffffffffffffffffffffffffffffffffff1916827bffffffffffffffffffffffffffffffffffffffffffffffffffffffff19161480612b6f57507f5b5e139f000000000000000000000000000000000000000000000000000000007bffffffffffffffffffffffffffffffffffffffffffffffffffffffff1916827bffffffffffffffffffffffffffffffffffffffffffffffffffffffff1916145b80612b7f5750612b7e826137b6565b5b9050919050565b612b8f81613820565b612bce576040517f08c379a0000000000000000000000000000000000000000000000000000000008152600401612bc590614ee8565b60405180910390fd5b50565b600033905090565b816004600083815260200190815260200160002060006101000a81548173ffffffffffffffffffffffffffffffffffffffff021916908373ffffffffffffffffffffffffffffffffffffffff160217905550808273ffffffffffffffffffffffffffffffffffffffff16612c4c83611735565b73ffffffffffffffffffffffffffffffffffffffff167f8c5be1e5ebec7d5bd14f71427d1e84f3dd0314c0f7b2291e5b200ac8c7c3b92560405160405180910390a45050565b600081600001549050919050565b600080612cac83611735565b90508073ffffffffffffffffffffffffffffffffffffffff168473ffffffffffffffffffffffffffffffffffffffff161480612cee5750612ced8185612a10565b5b80612d2c57508373ffffffffffffffffffffffffffffffffffffffff16612d148461081b565b73ffffffffffffffffffffffffffffffffffffffff16145b91505092915050565b8273ffffffffffffffffffffffffffffffffffffffff16612d5582611735565b73ffffffffffffffffffffffffffffffffffffffff1614612dab576040517f08c379a0000000000000000000000000000000000000000000000000000000008152600401612da29061520d565b60405180910390fd5b600073ffffffffffffffffffffffffffffffffffffffff168273ffffffffffffffffffffffffffffffffffffffff1603612e1a576040517f08c379a0000000000000000000000000000000000000000000000000000000008152600401612e119061529f565b60405180910390fd5b612e278383836001613861565b8273ffffffffffffffffffffffffffffffffffffffff16612e4782611735565b73ffffffffffffffffffffffffffffffffffffffff1614612e9d576040517f08c379a0000000000000000000000000000000000000000000000000000000008152600401612e949061520d565b60405180910390fd5b6004600082815260200190815260200160002060006101000a81549073ffffffffffffffffffffffffffffffffffffffff02191690556001600360008573ffffffffffffffffffffffffffffffffffffffff1673ffffffffffffffffffffffffffffffffffffffff168152602001908152602001600020600082825403925050819055506001600360008473ffffffffffffffffffffffffffffffffffffffff1673ffffffffffffffffffffffffffffffffffffffff16815260200190815260200160002060008282540192505081905550816002600083815260200190815260200160002060006101000a81548173ffffffffffffffffffffffffffffffffffffffff021916908373ffffffffffffffffffffffffffffffffffffffff160217905550808273ffffffffffffffffffffffffffffffffffffffff168473ffffffffffffffffffffffffffffffffffffffff167fddf252ad1be2c89b69c2b068fc378daa952ba7f163c4a11628f55a4df523b3ef60405160405180910390a46130298383836001613867565b505050565b6130c682826040516024016130449291906152bf565b6040516020818303038152906040527f319af333000000000000000000000000000000000000000000000000000000007bffffffffffffffffffffffffffffffffffffffffffffffffffffffff19166020820180517bffffffffffffffffffffffffffffffffffffffffffffffffffffffff838183161783525050505061386d565b5050565b61316282826040516024016130e09291906152ef565b6040516020818303038152906040527fb60e72cc000000000000000000000000000000000000000000000000000000007bffffffffffffffffffffffffffffffffffffffffffffffffffffffff19166020820180517bffffffffffffffffffffffffffffffffffffffffffffffffffffffff838183161783525050505061386d565b5050565b60006002600083815260200190815260200160002060009054906101000a900473ffffffffffffffffffffffffffffffffffffffff169050919050565b613239816040516024016131b79190613e72565b6040516020818303038152906040527f41304fac000000000000000000000000000000000000000000000000000000007bffffffffffffffffffffffffffffffffffffffffffffffffffffffff19166020820180517bffffffffffffffffffffffffffffffffffffffffffffffffffffffff838183161783525050505061386d565b50565b60008160000154905060008111613288576040517f08c379a000000000000000000000000000000000000000000000000000000000815260040161327f9061536b565b60405180910390fd5b6001810382600001819055505050565b8173ffffffffffffffffffffffffffffffffffffffff168373ffffffffffffffffffffffffffffffffffffffff1603613306576040517f08c379a00000000000000000000000000000000000000000000000000000000081526004016132fd906153d7565b60405180910390fd5b80600560008573ffffffffffffffffffffffffffffffffffffffff1673ffffffffffffffffffffffffffffffffffffffff16815260200190815260200160002060008473ffffffffffffffffffffffffffffffffffffffff1673ffffffffffffffffffffffffffffffffffffffff16815260200190815260200160002060006101000a81548160ff0219169083151502179055508173ffffffffffffffffffffffffffffffffffffffff168373ffffffffffffffffffffffffffffffffffffffff167f17307eab39ab6107e8899845ad3d59bd9653f200f220920489ca2b5937696c31836040516133f79190613dc7565b60405180910390a3505050565b61340f848484612d35565b61341b84848484613887565b61345a576040517f08c379a000000000000000000000000000000000000000000000000000000000815260040161345190615469565b60405180910390fd5b50505050565b6001816000016000828254019250508190555050565b600073ffffffffffffffffffffffffffffffffffffffff168273ffffffffffffffffffffffffffffffffffffffff16036134e5576040517f08c379a00000000000000000000000000000000000000000000000000000000081526004016134dc906154d5565b60405180910390fd5b6134ee81613820565b1561352e576040517f08c379a000000000000000000000000000000000000000000000000000000000815260040161352590615541565b60405180910390fd5b61353c600083836001613861565b61354581613820565b15613585576040517f08c379a000000000000000000000000000000000000000000000000000000000815260040161357c90615541565b60405180910390fd5b6001600360008473ffffffffffffffffffffffffffffffffffffffff1673ffffffffffffffffffffffffffffffffffffffff16815260200190815260200160002060008282540192505081905550816002600083815260200190815260200160002060006101000a81548173ffffffffffffffffffffffffffffffffffffffff021916908373ffffffffffffffffffffffffffffffffffffffff160217905550808273ffffffffffffffffffffffffffffffffffffffff16600073ffffffffffffffffffffffffffffffffffffffff167fddf252ad1be2c89b69c2b068fc378daa952ba7f163c4a11628f55a4df523b3ef60405160405180910390a461368f600083836001613867565b5050565b61369c82613820565b6136db576040517f08c379a00000000000000000000000000000000000000000000000000000000081526004016136d2906155d3565b60405180910390fd5b806006600084815260200190815260200160002090816136fb919061579f565b507ff8e1a15aba9398e019f0b49df1a4fde98ee17ae345cb5f6b5e2c27f5033e8ce78260405161372b9190614294565b60405180910390a15050565b606060405180602001604052806000815250905090565b606061375982612b86565b6000613763613737565b9050600081511161378357604051806020016040528060008152506137ae565b8061378d84613a0e565b60405160200161379e929190615177565b6040516020818303038152906040525b915050919050565b60007f01ffc9a7000000000000000000000000000000000000000000000000000000007bffffffffffffffffffffffffffffffffffffffffffffffffffffffff1916827bffffffffffffffffffffffffffffffffffffffffffffffffffffffff1916149050919050565b60008073ffffffffffffffffffffffffffffffffffffffff1661384283613166565b73ffffffffffffffffffffffffffffffffffffffff1614159050919050565b50505050565b50505050565b6138848161387c613adc613afd565b63ffffffff16565b50565b60006138a88473ffffffffffffffffffffffffffffffffffffffff16613b08565b15613a01578373ffffffffffffffffffffffffffffffffffffffff1663150b7a026138d1612bd1565b8786866040518563ffffffff1660e01b81526004016138f394939291906158c6565b6020604051808303816000875af192505050801561392f57506040513d601f19601f8201168201806040525081019061392c9190615927565b60015b6139b1573d806000811461395f576040519150601f19603f3d011682016040523d82523d6000602084013e613964565b606091505b5060008151036139a9576040517f08c379a00000000000000000000000000000000000000000000000000000000081526004016139a090615469565b60405180910390fd5b805181602001fd5b63150b7a0260e01b7bffffffffffffffffffffffffffffffffffffffffffffffffffffffff1916817bffffffffffffffffffffffffffffffffffffffffffffffffffffffff191614915050613a06565b600190505b949350505050565b606060006001613a1d84613b2b565b01905060008167ffffffffffffffff811115613a3c57613a3b6143f0565b5b6040519080825280601f01601f191660200182016040528015613a6e5781602001600182028036833780820191505090505b509050600082602001820190505b600115613ad1578080600190039150507f3031323334353637383961626364656600000000000000000000000000000000600a86061a8153600a8581613ac557613ac4615954565b5b04945060008503613a7c575b819350505050919050565b60006a636f6e736f6c652e6c6f679050600080835160208501845afa505050565b613d09819050919050565b6000808273ffffffffffffffffffffffffffffffffffffffff163b119050919050565b600080600090507a184f03e93ff9f4daa797ed6e38ed64bf6a1f0100000000000000008310613b89577a184f03e93ff9f4daa797ed6e38ed64bf6a1f0100000000000000008381613b7f57613b7e615954565b5b0492506040810190505b6d04ee2d6d415b85acef81000000008310613bc6576d04ee2d6d415b85acef81000000008381613bbc57613bbb615954565b5b0492506020810190505b662386f26fc100008310613bf557662386f26fc100008381613beb57613bea615954565b5b0492506010810190505b6305f5e1008310613c1e576305f5e1008381613c1457613c13615954565b5b0492506008810190505b6127108310613c43576127108381613c3957613c38615954565b5b0492506004810190505b60648310613c665760648381613c5c57613c5b615954565b5b0492506002810190505b600a8310613c75576001810190505b80915050919050565b60405180610100016040528060008152602001600073ffffffffffffffffffffffffffffffffffffffff168152602001600073ffffffffffffffffffffffffffffffffffffffff168152602001600073ffffffffffffffffffffffffffffffffffffffff16815260200160008152602001600081526020016000151581526020016000151581525090565b613d11615983565b565b6000604051905090565b600080fd5b600080fd5b60007fffffffff0000000000000000000000000000000000000000000000000000000082169050919050565b613d5c81613d27565b8114613d6757600080fd5b50565b600081359050613d7981613d53565b92915050565b600060208284031215613d9557613d94613d1d565b5b6000613da384828501613d6a565b91505092915050565b60008115159050919050565b613dc181613dac565b82525050565b6000602082019050613ddc6000830184613db8565b92915050565b600081519050919050565b600082825260208201905092915050565b60005b83811015613e1c578082015181840152602081019050613e01565b60008484015250505050565b6000601f19601f8301169050919050565b6000613e4482613de2565b613e4e8185613ded565b9350613e5e818560208601613dfe565b613e6781613e28565b840191505092915050565b60006020820190508181036000830152613e8c8184613e39565b905092915050565b6000819050919050565b613ea781613e94565b8114613eb257600080fd5b50565b600081359050613ec481613e9e565b92915050565b600060208284031215613ee057613edf613d1d565b5b6000613eee84828501613eb5565b91505092915050565b600073ffffffffffffffffffffffffffffffffffffffff82169050919050565b6000613f2282613ef7565b9050919050565b613f3281613f17565b82525050565b6000602082019050613f4d6000830184613f29565b92915050565b613f5c81613f17565b8114613f6757600080fd5b50565b600081359050613f7981613f53565b92915050565b60008060408385031215613f9657613f95613d1d565b5b6000613fa485828601613f6a565b9250506020613fb585828601613eb5565b9150509250929050565b600081519050919050565b600082825260208201905092915050565b6000819050602082019050919050565b613ff481613e94565b82525050565b600061400582613ef7565b9050919050565b61401581613ffa565b82525050565b61402481613dac565b82525050565b610100820160008201516140416000850182613feb565b506020820151614054602085018261400c565b506040820151614067604085018261400c565b50606082015161407a606085018261400c565b50608082015161408d6080850182613feb565b5060a08201516140a060a0850182613feb565b5060c08201516140b360c085018261401b565b5060e08201516140c660e085018261401b565b50505050565b60006140d8838361402a565b6101008301905092915050565b6000602082019050919050565b60006140fd82613fbf565b6141078185613fca565b935061411283613fdb565b8060005b8381101561414357815161412a88826140cc565b9750614135836140e5565b925050600181019050614116565b5085935050505092915050565b6000602082019050818103600083015261416a81846140f2565b905092915050565b60006020828403121561418857614187613d1d565b5b600061419684828501613f6a565b91505092915050565b6000806000606084860312156141b8576141b7613d1d565b5b60006141c686828701613f6a565b93505060206141d786828701613f6a565b92505060406141e886828701613eb5565b9150509250925092565b60008060006060848603121561420b5761420a613d1d565b5b600061421986828701613eb5565b935050602061422a86828701613eb5565b925050604061423b86828701613eb5565b9150509250925092565b6000806040838503121561425c5761425b613d1d565b5b600061426a85828601613eb5565b925050602061427b85828601613eb5565b9150509250929050565b61428e81613e94565b82525050565b60006020820190506142a96000830184614285565b92915050565b6000806000606084860312156142c8576142c7613d1d565b5b60006142d686828701613eb5565b93505060206142e786828701613eb5565b92505060406142f886828701613f6a565b9150509250925092565b6000806040838503121561431957614318613d1d565b5b600061432785828601613eb5565b925050602061433885828601613f6a565b9150509250929050565b61434b81613dac565b811461435657600080fd5b50565b60008135905061436881614342565b92915050565b6000806040838503121561438557614384613d1d565b5b600061439385828601613f6a565b92505060206143a485828601614359565b9150509250929050565b6143b781613ffa565b82525050565b60006040820190506143d26000830185614285565b6143df60208301846143ae565b9392505050565b600080fd5b600080fd5b7f4e487b7100000000000000000000000000000000000000000000000000000000600052604160045260246000fd5b61442882613e28565b810181811067ffffffffffffffff82111715614447576144466143f0565b5b80604052505050565b600061445a613d13565b9050614466828261441f565b919050565b600067ffffffffffffffff821115614486576144856143f0565b5b61448f82613e28565b9050602081019050919050565b82818337600083830152505050565b60006144be6144b98461446b565b614450565b9050828152602081018484840111156144da576144d96143eb565b5b6144e584828561449c565b509392505050565b600082601f830112614502576145016143e6565b5b81356145128482602086016144ab565b91505092915050565b6000806000806080858703121561453557614534613d1d565b5b600061454387828801613f6a565b945050602061455487828801613f6a565b935050604061456587828801613eb5565b925050606085013567ffffffffffffffff81111561458657614585613d22565b5b614592878288016144ed565b91505092959194509250565b600067ffffffffffffffff8211156145b9576145b86143f0565b5b6145c282613e28565b9050602081019050919050565b60006145e26145dd8461459e565b614450565b9050828152602081018484840111156145fe576145fd6143eb565b5b61460984828561449c565b509392505050565b600082601f830112614626576146256143e6565b5b81356146368482602086016145cf565b91505092915050565b60008060006060848603121561465857614657613d1d565b5b600084013567ffffffffffffffff81111561467657614675613d22565b5b61468286828701614611565b935050602061469386828701613eb5565b92505060406146a486828701613eb5565b9150509250925092565b600080604083850312156146c5576146c4613d1d565b5b60006146d385828601613f6a565b92505060206146e485828601613f6a565b9150509250929050565b7f4e487b7100000000000000000000000000000000000000000000000000000000600052602260045260246000fd5b6000600282049050600182168061473557607f821691505b602082108103614748576147476146ee565b5b50919050565b7f4552433732313a20617070726f76616c20746f2063757272656e74206f776e6560008201527f7200000000000000000000000000000000000000000000000000000000000000602082015250565b60006147aa602183613ded565b91506147b58261474e565b604082019050919050565b600060208201905081810360008301526147d98161479d565b9050919050565b7f4552433732313a20617070726f76652063616c6c6572206973206e6f7420746f60008201527f6b656e206f776e6572206f7220617070726f76656420666f7220616c6c000000602082015250565b600061483c603d83613ded565b9150614847826147e0565b604082019050919050565b6000602082019050818103600083015261486b8161482f565b9050919050565b7f4e487b7100000000000000000000000000000000000000000000000000000000600052601160045260246000fd5b60006148ac82613e94565b91506148b783613e94565b92508282039050818111156148cf576148ce614872565b5b92915050565b60006148e082613e94565b91506148eb83613e94565b925082820190508082111561490357614902614872565b5b92915050565b7f4e487b7100000000000000000000000000000000000000000000000000000000600052603260045260246000fd5b600061494382613e94565b91507fffffffffffffffffffffffffffffffffffffffffffffffffffffffffffffffff820361497557614974614872565b5b600182019050919050565b7f4552433732313a2063616c6c6572206973206e6f7420746f6b656e206f776e6560008201527f72206f7220617070726f76656400000000000000000000000000000000000000602082015250565b60006149dc602d83613ded565b91506149e782614980565b604082019050919050565b60006020820190508181036000830152614a0b816149cf565b9050919050565b7f6f6e6c79206f776e6572206f662074686520636f6e74726163742063616e207560008201527f706461746520746865206c697374696e67207072696365000000000000000000602082015250565b6000614a6e603783613ded565b9150614a7982614a12565b604082019050919050565b60006020820190508181036000830152614a9d81614a61565b9050919050565b7f4e6f2066756e647320746f207769746864726177000000000000000000000000600082015250565b6000614ada601483613ded565b9150614ae582614aa4565b602082019050919050565b60006020820190508181036000830152614b0981614acd565b9050919050565b600081905092915050565b50565b6000614b2b600083614b10565b9150614b3682614b1b565b600082019050919050565b6000614b4c82614b1e565b9150819050919050565b7f4661696c656420746f2077697468647261772066756e64730000000000000000600082015250565b6000614b8c601883613ded565b9150614b9782614b56565b602082019050919050565b60006020820190508181036000830152614bbb81614b7f565b9050919050565b6000604082019050614bd76000830185614285565b614be46020830184613f29565b9392505050565b7f5072696365206d757374206265206174206c6561737420312077656900000000600082015250565b6000614c21601c83613ded565b9150614c2c82614beb565b602082019050919050565b60006020820190508181036000830152614c5081614c14565b9050919050565b7f5072696365206d757374206265207061696420696e2066756c6c000000000000600082015250565b6000614c8d601a83613ded565b9150614c9882614c57565b602082019050919050565b60006020820190508181036000830152614cbc81614c80565b9050919050565b600060e082019050614cd8600083018a613f29565b614ce56020830189613f29565b614cf26040830188613f29565b614cff6060830187614285565b614d0c6080830186614285565b614d1960a0830185613db8565b614d2660c0830184613db8565b98975050505050505050565b7f4e465420646f6573206e6f7420657869737420696e206d61726b6574706c616360008201527f6500000000000000000000000000000000000000000000000000000000000000602082015250565b6000614d8e602183613ded565b9150614d9982614d32565b604082019050919050565b60006020820190508181036000830152614dbd81614d81565b9050919050565b7f43616c6c6572206973206e6f7420746865206f776e6572000000000000000000600082015250565b6000614dfa601783613ded565b9150614e0582614dc4565b602082019050919050565b60006020820190508181036000830152614e2981614ded565b9050919050565b7f5072696365206d7573742062652067726561746572207468616e207a65726f00600082015250565b6000614e66601f83613ded565b9150614e7182614e30565b602082019050919050565b60006020820190508181036000830152614e9581614e59565b9050919050565b7f4552433732313a20696e76616c696420746f6b656e2049440000000000000000600082015250565b6000614ed2601883613ded565b9150614edd82614e9c565b602082019050919050565b60006020820190508181036000830152614f0181614ec5565b9050919050565b7f4552433732313a2061646472657373207a65726f206973206e6f74206120766160008201527f6c6964206f776e65720000000000000000000000000000000000000000000000602082015250565b6000614f64602983613ded565b9150614f6f82614f08565b604082019050919050565b60006020820190508181036000830152614f9381614f57565b9050919050565b7f4f6e6c79206f776e65722063616e2072656c697374204e465400000000000000600082015250565b6000614fd0601983613ded565b9150614fdb82614f9a565b602082019050919050565b60006020820190508181036000830152614fff81614fc3565b9050919050565b600060608201905061501b6000830186613f29565b6150286020830185613f29565b6150356040830184614285565b949350505050565b7f506c65617365207375626d6974207468652061736b696e67207072696365206960008201527f6e206f7264657220746f20636f6d706c65746520746865207075726368617365602082015250565b6000615099604083613ded565b91506150a48261503d565b604082019050919050565b600060208201905081810360008301526150c88161508c565b9050919050565b7f4f6e6c7920746f6b656e2073656c6c65722063616e2064656c69737400000000600082015250565b6000615105601c83613ded565b9150615110826150cf565b602082019050919050565b60006020820190508181036000830152615134816150f8565b9050919050565b600081905092915050565b600061515182613de2565b61515b818561513b565b935061516b818560208601613dfe565b80840191505092915050565b60006151838285615146565b915061518f8284615146565b91508190509392505050565b7f4552433732313a207472616e736665722066726f6d20696e636f72726563742060008201527f6f776e6572000000000000000000000000000000000000000000000000000000602082015250565b60006151f7602583613ded565b91506152028261519b565b604082019050919050565b60006020820190508181036000830152615226816151ea565b9050919050565b7f4552433732313a207472616e7366657220746f20746865207a65726f2061646460008201527f7265737300000000000000000000000000000000000000000000000000000000602082015250565b6000615289602483613ded565b91506152948261522d565b604082019050919050565b600060208201905081810360008301526152b88161527c565b9050919050565b600060408201905081810360008301526152d98185613e39565b90506152e86020830184613f29565b9392505050565b600060408201905081810360008301526153098185613e39565b90506153186020830184614285565b9392505050565b7f436f756e7465723a2064656372656d656e74206f766572666c6f770000000000600082015250565b6000615355601b83613ded565b91506153608261531f565b602082019050919050565b6000602082019050818103600083015261538481615348565b9050919050565b7f4552433732313a20617070726f766520746f2063616c6c657200000000000000600082015250565b60006153c1601983613ded565b91506153cc8261538b565b602082019050919050565b600060208201905081810360008301526153f0816153b4565b9050919050565b7f4552433732313a207472616e7366657220746f206e6f6e20455243373231526560008201527f63656976657220696d706c656d656e7465720000000000000000000000000000602082015250565b6000615453603283613ded565b915061545e826153f7565b604082019050919050565b6000602082019050818103600083015261548281615446565b9050919050565b7f4552433732313a206d696e7420746f20746865207a65726f2061646472657373600082015250565b60006154bf602083613ded565b91506154ca82615489565b602082019050919050565b600060208201905081810360008301526154ee816154b2565b9050919050565b7f4552433732313a20746f6b656e20616c7265616479206d696e74656400000000600082015250565b600061552b601c83613ded565b9150615536826154f5565b602082019050919050565b6000602082019050818103600083015261555a8161551e565b9050919050565b7f45524337323155524953746f726167653a2055524920736574206f66206e6f6e60008201527f6578697374656e7420746f6b656e000000000000000000000000000000000000602082015250565b60006155bd602e83613ded565b91506155c882615561565b604082019050919050565b600060208201905081810360008301526155ec816155b0565b9050919050565b60008190508160005260206000209050919050565b60006020601f8301049050919050565b600082821b905092915050565b6000600883026156557fffffffffffffffffffffffffffffffffffffffffffffffffffffffffffffffff82615618565b61565f8683615618565b95508019841693508086168417925050509392505050565b6000819050919050565b600061569c61569761569284613e94565b615677565b613e94565b9050919050565b6000819050919050565b6156b683615681565b6156ca6156c2826156a3565b848454615625565b825550505050565b600090565b6156df6156d2565b6156ea8184846156ad565b505050565b5b8181101561570e576157036000826156d7565b6001810190506156f0565b5050565b601f82111561575357615724816155f3565b61572d84615608565b8101602085101561573c578190505b61575061574885615608565b8301826156ef565b50505b505050565b600082821c905092915050565b600061577660001984600802615758565b1980831691505092915050565b600061578f8383615765565b9150826002028217905092915050565b6157a882613de2565b67ffffffffffffffff8111156157c1576157c06143f0565b5b6157cb825461471d565b6157d6828285615712565b600060209050601f83116001811461580957600084156157f7578287015190505b6158018582615783565b865550615869565b601f198416615817866155f3565b60005b8281101561583f5784890151825560018201915060208501945060208101905061581a565b8683101561585c5784890151615858601f891682615765565b8355505b6001600288020188555050505b505050505050565b600081519050919050565b600082825260208201905092915050565b600061589882615871565b6158a2818561587c565b93506158b2818560208601613dfe565b6158bb81613e28565b840191505092915050565b60006080820190506158db6000830187613f29565b6158e86020830186613f29565b6158f56040830185614285565b8181036060830152615907818461588d565b905095945050505050565b60008151905061592181613d53565b92915050565b60006020828403121561593d5761593c613d1d565b5b600061594b84828501615912565b91505092915050565b7f4e487b7100000000000000000000000000000000000000000000000000000000600052601260045260246000fd5b7f4e487b7100000000000000000000000000000000000000000000000000000000600052605160045260246000fdfe437265617465204d61726b6574204974656d2046756e6374696f6e2043616c6c65723a20a2646970667358221220a728df4e348c1d94758e382de5e98a68a9755dac9d69b44344bb693cc22e34c364736f6c63430008130033",
  "linkReferences": {},
  "deployedLinkReferences": {}
}