{
  "_format": "hh-sol-artifact-1",
  "contractName": "Marketplace",
  "sourceName": "contracts/Marketplace.sol",
  "abi": [
    {
      "inputs": [],
      "stateMutability": "nonpayable",
      "type": "constructor"
    },
    {
      "anonymous": false,
      "inputs": [
        {
          "indexed": true,
          "internalType": "address",
          "name": "owner",
          "type": "address"
        },
        {
          "indexed": true,
          "internalType": "address",
          "name": "approved",
          "type": "address"
        },
        {
          "indexed": true,
          "internalType": "uint256",
          "name": "tokenId",
          "type": "uint256"
        }
      ],
      "name": "Approval",
      "type": "event"
    },
    {
      "anonymous": false,
      "inputs": [
        {
          "indexed": true,
          "internalType": "address",
          "name": "owner",
          "type": "address"
        },
        {
          "indexed": true,
          "internalType": "address",
          "name": "operator",
          "type": "address"
        },
        {
          "indexed": false,
          "internalType": "bool",
          "name": "approved",
          "type": "bool"
        }
      ],
      "name": "ApprovalForAll",
      "type": "event"
    },
    {
      "anonymous": false,
      "inputs": [
        {
          "indexed": false,
          "internalType": "uint256",
          "name": "_fromTokenId",
          "type": "uint256"
        },
        {
          "indexed": false,
          "internalType": "uint256",
          "name": "_toTokenId",
          "type": "uint256"
        }
      ],
      "name": "BatchMetadataUpdate",
      "type": "event"
    },
    {
      "anonymous": false,
      "inputs": [
        {
          "indexed": true,
          "internalType": "uint256",
          "name": "tokenId",
          "type": "uint256"
        },
        {
          "indexed": false,
          "internalType": "address",
          "name": "originalOwner",
          "type": "address"
        },
        {
          "indexed": false,
          "internalType": "address",
          "name": "seller",
          "type": "address"
        },
        {
          "indexed": false,
          "internalType": "address",
          "name": "owner",
          "type": "address"
        },
        {
          "indexed": false,
          "internalType": "uint256",
          "name": "royaltyPercentage",
          "type": "uint256"
        },
        {
          "indexed": false,
          "internalType": "uint256",
          "name": "price",
          "type": "uint256"
        },
        {
          "indexed": false,
          "internalType": "bool",
          "name": "sold",
          "type": "bool"
        }
      ],
      "name": "MarketItemCreated",
      "type": "event"
    },
    {
      "anonymous": false,
      "inputs": [
        {
          "indexed": false,
          "internalType": "uint256",
          "name": "_tokenId",
          "type": "uint256"
        }
      ],
      "name": "MetadataUpdate",
      "type": "event"
    },
    {
      "anonymous": false,
      "inputs": [
        {
          "indexed": false,
          "internalType": "uint256",
          "name": "nftId",
          "type": "uint256"
        },
        {
          "indexed": false,
          "internalType": "address",
          "name": "auctionWinner",
          "type": "address"
        }
      ],
      "name": "NFTTransferred",
      "type": "event"
    },
    {
      "anonymous": false,
      "inputs": [
        {
          "indexed": true,
          "internalType": "address",
          "name": "from",
          "type": "address"
        },
        {
          "indexed": true,
          "internalType": "address",
          "name": "to",
          "type": "address"
        },
        {
          "indexed": true,
          "internalType": "uint256",
          "name": "tokenId",
          "type": "uint256"
        }
      ],
      "name": "Transfer",
      "type": "event"
    },
    {
      "stateMutability": "payable",
      "type": "fallback"
    },
    {
      "inputs": [
        {
          "internalType": "address",
          "name": "to",
          "type": "address"
        },
        {
          "internalType": "uint256",
          "name": "tokenId",
          "type": "uint256"
        }
      ],
      "name": "approve",
      "outputs": [],
      "stateMutability": "nonpayable",
      "type": "function"
    },
    {
      "inputs": [
        {
          "internalType": "address",
          "name": "owner",
          "type": "address"
        }
      ],
      "name": "balanceOf",
      "outputs": [
        {
          "internalType": "uint256",
          "name": "",
          "type": "uint256"
        }
      ],
      "stateMutability": "view",
      "type": "function"
    },
    {
      "inputs": [
        {
          "internalType": "uint256",
          "name": "tokenId",
          "type": "uint256"
        },
        {
          "internalType": "uint256",
          "name": "royaltyPercentage",
          "type": "uint256"
        },
        {
          "internalType": "uint256",
          "name": "price",
          "type": "uint256"
        }
      ],
      "name": "createMarketItem",
      "outputs": [],
      "stateMutability": "payable",
      "type": "function"
    },
    {
      "inputs": [
        {
          "internalType": "uint256",
          "name": "tokenId",
          "type": "uint256"
        }
      ],
      "name": "createMarketSale",
      "outputs": [],
      "stateMutability": "payable",
      "type": "function"
    },
    {
      "inputs": [
        {
          "internalType": "string",
          "name": "tokenURI",
          "type": "string"
        },
        {
          "internalType": "uint256",
          "name": "royaltyPercentage",
          "type": "uint256"
        },
        {
          "internalType": "uint256",
          "name": "price",
          "type": "uint256"
        }
      ],
      "name": "createToken",
      "outputs": [
        {
          "internalType": "uint256",
          "name": "",
          "type": "uint256"
        }
      ],
      "stateMutability": "payable",
      "type": "function"
    },
    {
      "inputs": [
        {
          "internalType": "uint256",
          "name": "tokenId",
          "type": "uint256"
        }
      ],
      "name": "delistMarketItem",
      "outputs": [],
      "stateMutability": "nonpayable",
      "type": "function"
    },
    {
      "inputs": [],
      "name": "fetchItemsListed",
      "outputs": [
        {
          "components": [
            {
              "internalType": "uint256",
              "name": "tokenId",
              "type": "uint256"
            },
            {
              "internalType": "address payable",
              "name": "originalOwner",
              "type": "address"
            },
            {
              "internalType": "address payable",
              "name": "seller",
              "type": "address"
            },
            {
              "internalType": "address payable",
              "name": "owner",
              "type": "address"
            },
            {
              "internalType": "uint256",
              "name": "royaltyPercentage",
              "type": "uint256"
            },
            {
              "internalType": "uint256",
              "name": "price",
              "type": "uint256"
            },
            {
              "internalType": "bool",
              "name": "sold",
              "type": "bool"
            }
          ],
          "internalType": "struct Marketplace.MarketItem[]",
          "name": "",
          "type": "tuple[]"
        }
      ],
      "stateMutability": "view",
      "type": "function"
    },
    {
      "inputs": [],
      "name": "fetchMarketItems",
      "outputs": [
        {
          "components": [
            {
              "internalType": "uint256",
              "name": "tokenId",
              "type": "uint256"
            },
            {
              "internalType": "address payable",
              "name": "originalOwner",
              "type": "address"
            },
            {
              "internalType": "address payable",
              "name": "seller",
              "type": "address"
            },
            {
              "internalType": "address payable",
              "name": "owner",
              "type": "address"
            },
            {
              "internalType": "uint256",
              "name": "royaltyPercentage",
              "type": "uint256"
            },
            {
              "internalType": "uint256",
              "name": "price",
              "type": "uint256"
            },
            {
              "internalType": "bool",
              "name": "sold",
              "type": "bool"
            }
          ],
          "internalType": "struct Marketplace.MarketItem[]",
          "name": "",
          "type": "tuple[]"
        }
      ],
      "stateMutability": "view",
      "type": "function"
    },
    {
      "inputs": [],
      "name": "fetchMyNFT",
      "outputs": [
        {
          "components": [
            {
              "internalType": "uint256",
              "name": "tokenId",
              "type": "uint256"
            },
            {
              "internalType": "address payable",
              "name": "originalOwner",
              "type": "address"
            },
            {
              "internalType": "address payable",
              "name": "seller",
              "type": "address"
            },
            {
              "internalType": "address payable",
              "name": "owner",
              "type": "address"
            },
            {
              "internalType": "uint256",
              "name": "royaltyPercentage",
              "type": "uint256"
            },
            {
              "internalType": "uint256",
              "name": "price",
              "type": "uint256"
            },
            {
              "internalType": "bool",
              "name": "sold",
              "type": "bool"
            }
          ],
          "internalType": "struct Marketplace.MarketItem[]",
          "name": "",
          "type": "tuple[]"
        }
      ],
      "stateMutability": "view",
      "type": "function"
    },
    {
      "inputs": [
        {
          "internalType": "uint256",
          "name": "tokenId",
          "type": "uint256"
        }
      ],
      "name": "getApproved",
      "outputs": [
        {
          "internalType": "address",
          "name": "",
          "type": "address"
        }
      ],
      "stateMutability": "view",
      "type": "function"
    },
    {
      "inputs": [
        {
          "internalType": "uint256",
          "name": "tokenId",
          "type": "uint256"
        }
      ],
      "name": "getNFTPrice",
      "outputs": [
        {
          "internalType": "uint256",
          "name": "price",
          "type": "uint256"
        }
      ],
      "stateMutability": "view",
      "type": "function"
    },
    {
      "inputs": [
        {
          "internalType": "uint256",
          "name": "tokenId",
          "type": "uint256"
        }
      ],
      "name": "getRoyaltyData",
      "outputs": [
        {
          "internalType": "uint256",
          "name": "",
          "type": "uint256"
        },
        {
          "internalType": "address payable",
          "name": "",
          "type": "address"
        }
      ],
      "stateMutability": "view",
      "type": "function"
    },
    {
      "inputs": [
        {
          "internalType": "uint256",
          "name": "tokenId",
          "type": "uint256"
        }
      ],
      "name": "getSellerAddress",
      "outputs": [
        {
          "internalType": "address",
          "name": "",
          "type": "address"
        }
      ],
      "stateMutability": "view",
      "type": "function"
    },
    {
      "inputs": [
        {
          "internalType": "address",
          "name": "approvee",
          "type": "address"
        },
        {
          "internalType": "uint256",
          "name": "tokenId",
          "type": "uint256"
        }
      ],
      "name": "giveApproval",
      "outputs": [],
      "stateMutability": "nonpayable",
      "type": "function"
    },
    {
      "inputs": [
        {
          "internalType": "uint256",
          "name": "tokenId",
          "type": "uint256"
        },
        {
          "internalType": "address",
          "name": "winner",
          "type": "address"
        }
      ],
      "name": "handleAuctionEnd",
      "outputs": [],
      "stateMutability": "nonpayable",
      "type": "function"
    },
    {
      "inputs": [
        {
          "internalType": "address",
          "name": "owner",
          "type": "address"
        },
        {
          "internalType": "address",
          "name": "operator",
          "type": "address"
        }
      ],
      "name": "isApprovedForAll",
      "outputs": [
        {
          "internalType": "bool",
          "name": "",
          "type": "bool"
        }
      ],
      "stateMutability": "view",
      "type": "function"
    },
    {
      "inputs": [],
      "name": "listingPrice",
      "outputs": [
        {
          "internalType": "uint256",
          "name": "",
          "type": "uint256"
        }
      ],
      "stateMutability": "view",
      "type": "function"
    },
    {
      "inputs": [],
      "name": "name",
      "outputs": [
        {
          "internalType": "string",
          "name": "",
          "type": "string"
        }
      ],
      "stateMutability": "view",
      "type": "function"
    },
    {
      "inputs": [
        {
          "internalType": "uint256",
          "name": "tokenId",
          "type": "uint256"
        }
      ],
      "name": "ownerOf",
      "outputs": [
        {
          "internalType": "address",
          "name": "",
          "type": "address"
        }
      ],
      "stateMutability": "view",
      "type": "function"
    },
    {
      "inputs": [
        {
          "internalType": "uint256",
          "name": "tokenId",
          "type": "uint256"
        },
        {
          "internalType": "uint256",
          "name": "price",
          "type": "uint256"
        },
        {
          "internalType": "address",
          "name": "seller",
          "type": "address"
        }
      ],
      "name": "resellMarketItem",
      "outputs": [],
      "stateMutability": "payable",
      "type": "function"
    },
    {
      "inputs": [
        {
          "internalType": "uint256",
          "name": "tokenId",
          "type": "uint256"
        }
      ],
      "name": "revokeApproval",
      "outputs": [],
      "stateMutability": "nonpayable",
      "type": "function"
    },
    {
      "inputs": [
        {
          "internalType": "address",
          "name": "from",
          "type": "address"
        },
        {
          "internalType": "address",
          "name": "to",
          "type": "address"
        },
        {
          "internalType": "uint256",
          "name": "tokenId",
          "type": "uint256"
        }
      ],
      "name": "safeTransferFrom",
      "outputs": [],
      "stateMutability": "nonpayable",
      "type": "function"
    },
    {
      "inputs": [
        {
          "internalType": "address",
          "name": "from",
          "type": "address"
        },
        {
          "internalType": "address",
          "name": "to",
          "type": "address"
        },
        {
          "internalType": "uint256",
          "name": "tokenId",
          "type": "uint256"
        },
        {
          "internalType": "bytes",
          "name": "data",
          "type": "bytes"
        }
      ],
      "name": "safeTransferFrom",
      "outputs": [],
      "stateMutability": "nonpayable",
      "type": "function"
    },
    {
      "inputs": [
        {
          "internalType": "address",
          "name": "operator",
          "type": "address"
        },
        {
          "internalType": "bool",
          "name": "approved",
          "type": "bool"
        }
      ],
      "name": "setApprovalForAll",
      "outputs": [],
      "stateMutability": "nonpayable",
      "type": "function"
    },
    {
      "inputs": [
        {
          "internalType": "address",
          "name": "auctionFactoryAddress",
          "type": "address"
        }
      ],
      "name": "setAuctionFactoryAddress",
      "outputs": [],
      "stateMutability": "nonpayable",
      "type": "function"
    },
    {
      "inputs": [
        {
          "internalType": "bytes4",
          "name": "interfaceId",
          "type": "bytes4"
        }
      ],
      "name": "supportsInterface",
      "outputs": [
        {
          "internalType": "bool",
          "name": "",
          "type": "bool"
        }
      ],
      "stateMutability": "view",
      "type": "function"
    },
    {
      "inputs": [],
      "name": "symbol",
      "outputs": [
        {
          "internalType": "string",
          "name": "",
          "type": "string"
        }
      ],
      "stateMutability": "view",
      "type": "function"
    },
    {
      "inputs": [
        {
          "internalType": "uint256",
          "name": "tokenId",
          "type": "uint256"
        }
      ],
      "name": "tokenURI",
      "outputs": [
        {
          "internalType": "string",
          "name": "",
          "type": "string"
        }
      ],
      "stateMutability": "view",
      "type": "function"
    },
    {
      "inputs": [
        {
          "internalType": "address",
          "name": "from",
          "type": "address"
        },
        {
          "internalType": "address",
          "name": "to",
          "type": "address"
        },
        {
          "internalType": "uint256",
          "name": "tokenId",
          "type": "uint256"
        }
      ],
      "name": "transferFrom",
      "outputs": [],
      "stateMutability": "nonpayable",
      "type": "function"
    },
    {
      "inputs": [
        {
          "internalType": "uint256",
          "name": "_listingPrice",
          "type": "uint256"
        }
      ],
      "name": "updateListingPrice",
      "outputs": [],
      "stateMutability": "payable",
      "type": "function"
    },
    {
      "inputs": [
        {
          "internalType": "uint256",
          "name": "tokenId",
          "type": "uint256"
        },
        {
          "internalType": "uint256",
          "name": "price",
          "type": "uint256"
        }
      ],
      "name": "updateNFTPrice",
      "outputs": [],
      "stateMutability": "nonpayable",
      "type": "function"
    },
    {
      "stateMutability": "payable",
      "type": "receive"
    }
  ],
  "bytecode": "0x60806040526608e1bc9bf04000600a553480156200001c57600080fd5b506040518060400160405280601381526020017f4e4654204d657461766572736520546f6b656e000000000000000000000000008152506040518060400160405280600581526020017f4d594e465400000000000000000000000000000000000000000000000000000081525081600090816200009a919062000378565b508060019081620000ac919062000378565b505050600160078190555033600b60006101000a81548173ffffffffffffffffffffffffffffffffffffffff021916908373ffffffffffffffffffffffffffffffffffffffff1602179055506200045f565b600081519050919050565b7f4e487b7100000000000000000000000000000000000000000000000000000000600052604160045260246000fd5b7f4e487b7100000000000000000000000000000000000000000000000000000000600052602260045260246000fd5b600060028204905060018216806200018057607f821691505b60208210810362000196576200019562000138565b5b50919050565b60008190508160005260206000209050919050565b60006020601f8301049050919050565b600082821b905092915050565b600060088302620002007fffffffffffffffffffffffffffffffffffffffffffffffffffffffffffffffff82620001c1565b6200020c8683620001c1565b95508019841693508086168417925050509392505050565b6000819050919050565b6000819050919050565b600062000259620002536200024d8462000224565b6200022e565b62000224565b9050919050565b6000819050919050565b620002758362000238565b6200028d620002848262000260565b848454620001ce565b825550505050565b600090565b620002a462000295565b620002b18184846200026a565b505050565b5b81811015620002d957620002cd6000826200029a565b600181019050620002b7565b5050565b601f8211156200032857620002f2816200019c565b620002fd84620001b1565b810160208510156200030d578190505b620003256200031c85620001b1565b830182620002b6565b50505b505050565b600082821c905092915050565b60006200034d600019846008026200032d565b1980831691505092915050565b60006200036883836200033a565b9150826002028217905092915050565b6200038382620000fe565b67ffffffffffffffff8111156200039f576200039e62000109565b5b620003ab825462000167565b620003b8828285620002dd565b600060209050601f831160018114620003f05760008415620003db578287015190505b620003e785826200035a565b86555062000457565b601f19841662000400866200019c565b60005b828110156200042a5784890151825560018201915060208501945060208101905062000403565b868310156200044a578489015162000446601f8916826200033a565b8355505b6001600288020188555050505b505050505050565b6154f8806200046f6000396000f3fe6080604052600436106101dc5760003560e01c80638f329b3111610102578063b88d4fde11610095578063c68a0e1611610064578063c68a0e16146106a2578063c78f19f9146106cb578063c87b56dd146106f6578063e985e9c514610733576101e3565b8063b88d4fde14610602578063be9af5361461062b578063bec2a7c514610647578063c18763f714610677576101e3565b8063a65ff74c116100d1578063a65ff74c14610542578063a675364d14610580578063ae677aa3146105bd578063b1e130fc146105d9576101e3565b80638f329b311461048857806392976179146104b157806395d89b41146104ee578063a22cb46514610519576101e3565b806323b872dd1161017a5780634ac0123d116101495780634ac0123d146103c95780636352211e146103f257806370a082311461042f578063804fa8351461046c576101e3565b806323b872dd14610330578063320343da1461035957806342842e0e1461037557806345f8fa801461039e576101e3565b8063095ea7b3116101b6578063095ea7b31461028a5780630bff0bcf146102b35780630f08efe0146102dc5780631cb8813314610307576101e3565b806301ffc9a7146101e557806306fdde0314610222578063081812fc1461024d576101e3565b366101e357005b005b3480156101f157600080fd5b5061020c600480360381019061020791906138cf565b610770565b6040516102199190613917565b60405180910390f35b34801561022e57600080fd5b506102376107d1565b60405161024491906139c2565b60405180910390f35b34801561025957600080fd5b50610274600480360381019061026f9190613a1a565b610863565b6040516102819190613a88565b60405180910390f35b34801561029657600080fd5b506102b160048036038101906102ac9190613acf565b6108a9565b005b3480156102bf57600080fd5b506102da60048036038101906102d59190613acf565b6109c0565b005b3480156102e857600080fd5b506102f1610a44565b6040516102fe9190613c8b565b60405180910390f35b34801561031357600080fd5b5061032e60048036038101906103299190613cad565b610d0c565b005b34801561033c57600080fd5b5061035760048036038101906103529190613cda565b610d50565b005b610373600480360381019061036e9190613d2d565b610db0565b005b34801561038157600080fd5b5061039c60048036038101906103979190613cda565b61102b565b005b3480156103aa57600080fd5b506103b361104b565b6040516103c09190613c8b565b60405180910390f35b3480156103d557600080fd5b506103f060048036038101906103eb9190613d80565b611397565b005b3480156103fe57600080fd5b5061041960048036038101906104149190613a1a565b611542565b6040516104269190613a88565b60405180910390f35b34801561043b57600080fd5b5061045660048036038101906104519190613cad565b6115c8565b6040516104639190613dcf565b60405180910390f35b61048660048036038101906104819190613dea565b61167f565b005b34801561049457600080fd5b506104af60048036038101906104aa9190613e3d565b61189c565b005b3480156104bd57600080fd5b506104d860048036038101906104d39190613a1a565b6119d6565b6040516104e59190613dcf565b60405180910390f35b3480156104fa57600080fd5b50610503611b41565b60405161051091906139c2565b60405180910390f35b34801561052557600080fd5b50610540600480360381019061053b9190613ea9565b611bd3565b005b34801561054e57600080fd5b5061056960048036038101906105649190613a1a565b611be9565b604051610577929190613ef8565b60405180910390f35b34801561058c57600080fd5b506105a760048036038101906105a29190613a1a565b611d5d565b6040516105b49190613a88565b60405180910390f35b6105d760048036038101906105d29190613a1a565b611d9d565b005b3480156105e557600080fd5b5061060060048036038101906105fb9190613a1a565b611e37565b005b34801561060e57600080fd5b5061062960048036038101906106249190614056565b611ebb565b005b61064560048036038101906106409190613a1a565b611f1d565b005b610661600480360381019061065c919061417a565b6121a3565b60405161066e9190613dcf565b60405180910390f35b34801561068357600080fd5b5061068c6121e7565b6040516106999190613c8b565b60405180910390f35b3480156106ae57600080fd5b506106c960048036038101906106c49190613a1a565b612533565b005b3480156106d757600080fd5b506106e0612673565b6040516106ed9190613dcf565b60405180910390f35b34801561070257600080fd5b5061071d60048036038101906107189190613a1a565b612679565b60405161072a91906139c2565b60405180910390f35b34801561073f57600080fd5b5061075a600480360381019061075591906141e9565b61278b565b6040516107679190613917565b60405180910390f35b6000634906490660e01b7bffffffffffffffffffffffffffffffffffffffffffffffffffffffff1916827bffffffffffffffffffffffffffffffffffffffffffffffffffffffff191614806107ca57506107c98261281f565b5b9050919050565b6060600080546107e090614258565b80601f016020809104026020016040519081016040528092919081815260200182805461080c90614258565b80156108595780601f1061082e57610100808354040283529160200191610859565b820191906000526020600020905b81548152906001019060200180831161083c57829003601f168201915b5050505050905090565b600061086e82612901565b6004600083815260200190815260200160002060009054906101000a900473ffffffffffffffffffffffffffffffffffffffff169050919050565b60006108b482611542565b90508073ffffffffffffffffffffffffffffffffffffffff168373ffffffffffffffffffffffffffffffffffffffff1603610924576040517f08c379a000000000000000000000000000000000000000000000000000000000815260040161091b906142fb565b60405180910390fd5b8073ffffffffffffffffffffffffffffffffffffffff1661094361294c565b73ffffffffffffffffffffffffffffffffffffffff16148061097257506109718161096c61294c565b61278b565b5b6109b1576040517f08c379a00000000000000000000000000000000000000000000000000000000081526004016109a89061438d565b60405180910390fd5b6109bb8383612954565b505050565b6109c981611542565b73ffffffffffffffffffffffffffffffffffffffff163373ffffffffffffffffffffffffffffffffffffffff1614610a36576040517f08c379a0000000000000000000000000000000000000000000000000000000008152600401610a2d906143f9565b60405180910390fd5b610a4082826108a9565b5050565b60606000610a526008612a0d565b90506000610a606009612a0d565b610a6a6008612a0d565b610a749190614448565b90506000808267ffffffffffffffff811115610a9357610a92613f2b565b5b604051908082528060200260200182016040528015610acc57816020015b610ab96137e2565b815260200190600190039081610ab15790505b50905060005b84811015610d01573073ffffffffffffffffffffffffffffffffffffffff16600d6000600184610b02919061447c565b815260200190815260200160002060030160009054906101000a900473ffffffffffffffffffffffffffffffffffffffff1673ffffffffffffffffffffffffffffffffffffffff1603610cee576000600182610b5e919061447c565b90506000600d60008381526020019081526020016000209050806040518060e0016040529081600082015481526020016001820160009054906101000a900473ffffffffffffffffffffffffffffffffffffffff1673ffffffffffffffffffffffffffffffffffffffff1673ffffffffffffffffffffffffffffffffffffffff1681526020016002820160009054906101000a900473ffffffffffffffffffffffffffffffffffffffff1673ffffffffffffffffffffffffffffffffffffffff1673ffffffffffffffffffffffffffffffffffffffff1681526020016003820160009054906101000a900473ffffffffffffffffffffffffffffffffffffffff1673ffffffffffffffffffffffffffffffffffffffff1673ffffffffffffffffffffffffffffffffffffffff16815260200160048201548152602001600582015481526020016006820160009054906101000a900460ff161515151581525050848681518110610cd157610cd06144b0565b5b6020026020010181905250600185610ce9919061447c565b945050505b8080610cf9906144df565b915050610ad2565b508094505050505090565b80600c60006101000a81548173ffffffffffffffffffffffffffffffffffffffff021916908373ffffffffffffffffffffffffffffffffffffffff16021790555050565b610d61610d5b61294c565b82612a1b565b610da0576040517f08c379a0000000000000000000000000000000000000000000000000000000008152600401610d9790614599565b60405180910390fd5b610dab838383612ab0565b505050565b60008111610df3576040517f08c379a0000000000000000000000000000000000000000000000000000000008152600401610dea90614605565b60405180910390fd5b600a543414610e37576040517f08c379a0000000000000000000000000000000000000000000000000000000008152600401610e2e90614671565b60405180910390fd5b6040518060e001604052808481526020013373ffffffffffffffffffffffffffffffffffffffff1681526020013373ffffffffffffffffffffffffffffffffffffffff1681526020013073ffffffffffffffffffffffffffffffffffffffff16815260200183815260200182815260200160001515815250600d60008581526020019081526020016000206000820151816000015560208201518160010160006101000a81548173ffffffffffffffffffffffffffffffffffffffff021916908373ffffffffffffffffffffffffffffffffffffffff16021790555060408201518160020160006101000a81548173ffffffffffffffffffffffffffffffffffffffff021916908373ffffffffffffffffffffffffffffffffffffffff16021790555060608201518160030160006101000a81548173ffffffffffffffffffffffffffffffffffffffff021916908373ffffffffffffffffffffffffffffffffffffffff1602179055506080820151816004015560a0820151816005015560c08201518160060160006101000a81548160ff021916908315150217905550905050610fe3333085612ab0565b827fa5d9d913ac4de93e8f5dc9a8834f347d521cd0daf35756b44fe413e9f34019793333308686600060405161101e96959493929190614691565b60405180910390a2505050565b61104683838360405180602001604052806000815250611ebb565b505050565b606060006110596008612a0d565b905060008060005b83811015611101573373ffffffffffffffffffffffffffffffffffffffff16600d6000600184611091919061447c565b815260200190815260200160002060020160009054906101000a900473ffffffffffffffffffffffffffffffffffffffff1673ffffffffffffffffffffffffffffffffffffffff16036110ee576001836110eb919061447c565b92505b80806110f9906144df565b915050611061565b5060008267ffffffffffffffff81111561111e5761111d613f2b565b5b60405190808252806020026020018201604052801561115757816020015b6111446137e2565b81526020019060019003908161113c5790505b50905060005b8481101561138c573373ffffffffffffffffffffffffffffffffffffffff16600d600060018461118d919061447c565b815260200190815260200160002060020160009054906101000a900473ffffffffffffffffffffffffffffffffffffffff1673ffffffffffffffffffffffffffffffffffffffff16036113795760006001826111e9919061447c565b90506000600d60008381526020019081526020016000209050806040518060e0016040529081600082015481526020016001820160009054906101000a900473ffffffffffffffffffffffffffffffffffffffff1673ffffffffffffffffffffffffffffffffffffffff1673ffffffffffffffffffffffffffffffffffffffff1681526020016002820160009054906101000a900473ffffffffffffffffffffffffffffffffffffffff1673ffffffffffffffffffffffffffffffffffffffff1673ffffffffffffffffffffffffffffffffffffffff1681526020016003820160009054906101000a900473ffffffffffffffffffffffffffffffffffffffff1673ffffffffffffffffffffffffffffffffffffffff1673ffffffffffffffffffffffffffffffffffffffff16815260200160048201548152602001600582015481526020016006820160009054906101000a900460ff16151515158152505084868151811061135c5761135b6144b0565b5b6020026020010181905250600185611374919061447c565b945050505b8080611384906144df565b91505061115d565b508094505050505090565b600073ffffffffffffffffffffffffffffffffffffffff16600d600084815260200190815260200160002060030160009054906101000a900473ffffffffffffffffffffffffffffffffffffffff1673ffffffffffffffffffffffffffffffffffffffff160361143c576040517f08c379a000000000000000000000000000000000000000000000000000000000815260040161143390614764565b60405180910390fd5b3373ffffffffffffffffffffffffffffffffffffffff16600d600084815260200190815260200160002060020160009054906101000a900473ffffffffffffffffffffffffffffffffffffffff1673ffffffffffffffffffffffffffffffffffffffff16146114e0576040517f08c379a00000000000000000000000000000000000000000000000000000000081526004016114d7906147d0565b60405180910390fd5b60008111611523576040517f08c379a000000000000000000000000000000000000000000000000000000000815260040161151a9061483c565b60405180910390fd5b80600d6000848152602001908152602001600020600501819055505050565b60008061154e83612da9565b9050600073ffffffffffffffffffffffffffffffffffffffff168173ffffffffffffffffffffffffffffffffffffffff16036115bf576040517f08c379a00000000000000000000000000000000000000000000000000000000081526004016115b6906148a8565b60405180910390fd5b80915050919050565b60008073ffffffffffffffffffffffffffffffffffffffff168273ffffffffffffffffffffffffffffffffffffffff1603611638576040517f08c379a000000000000000000000000000000000000000000000000000000000815260040161162f9061493a565b60405180910390fd5b600360008373ffffffffffffffffffffffffffffffffffffffff1673ffffffffffffffffffffffffffffffffffffffff168152602001908152602001600020549050919050565b3373ffffffffffffffffffffffffffffffffffffffff16600d600085815260200190815260200160002060030160009054906101000a900473ffffffffffffffffffffffffffffffffffffffff1673ffffffffffffffffffffffffffffffffffffffff16148061173c5750600c60009054906101000a900473ffffffffffffffffffffffffffffffffffffffff1673ffffffffffffffffffffffffffffffffffffffff163373ffffffffffffffffffffffffffffffffffffffff16145b61177b576040517f08c379a0000000000000000000000000000000000000000000000000000000008152600401611772906149a6565b60405180910390fd5b6000600d600085815260200190815260200160002060060160006101000a81548160ff02191690831515021790555081600d60008581526020019081526020016000206005018190555080600d600085815260200190815260200160002060020160006101000a81548173ffffffffffffffffffffffffffffffffffffffff021916908373ffffffffffffffffffffffffffffffffffffffff16021790555030600d600085815260200190815260200160002060030160006101000a81548173ffffffffffffffffffffffffffffffffffffffff021916908373ffffffffffffffffffffffffffffffffffffffff160217905550600061187b6009612a0d565b111561188c5761188b6009612de6565b5b611897813085612ab0565b505050565b3073ffffffffffffffffffffffffffffffffffffffff166342842e0e3083856040518463ffffffff1660e01b81526004016118d9939291906149c6565b600060405180830381600087803b1580156118f357600080fd5b505af1158015611907573d6000803e3d6000fd5b505050506119156009612e42565b80600d600084815260200190815260200160002060030160006101000a81548173ffffffffffffffffffffffffffffffffffffffff021916908373ffffffffffffffffffffffffffffffffffffffff1602179055506001600d600084815260200190815260200160002060060160006101000a81548160ff0219169083151502179055507f20665ee57a5e13af162123968d777ccebe86531a21e53d08afc78138a950192d82826040516119ca9291906149fd565b60405180910390a15050565b600080600d60008481526020019081526020016000206040518060e0016040529081600082015481526020016001820160009054906101000a900473ffffffffffffffffffffffffffffffffffffffff1673ffffffffffffffffffffffffffffffffffffffff1673ffffffffffffffffffffffffffffffffffffffff1681526020016002820160009054906101000a900473ffffffffffffffffffffffffffffffffffffffff1673ffffffffffffffffffffffffffffffffffffffff1673ffffffffffffffffffffffffffffffffffffffff1681526020016003820160009054906101000a900473ffffffffffffffffffffffffffffffffffffffff1673ffffffffffffffffffffffffffffffffffffffff1673ffffffffffffffffffffffffffffffffffffffff16815260200160048201548152602001600582015481526020016006820160009054906101000a900460ff16151515158152505090508060a00151915050919050565b606060018054611b5090614258565b80601f0160208091040260200160405190810160405280929190818152602001828054611b7c90614258565b8015611bc95780601f10611b9e57610100808354040283529160200191611bc9565b820191906000526020600020905b815481529060010190602001808311611bac57829003601f168201915b5050505050905090565b611be5611bde61294c565b8383612e58565b5050565b6000806000600d60008581526020019081526020016000206040518060e0016040529081600082015481526020016001820160009054906101000a900473ffffffffffffffffffffffffffffffffffffffff1673ffffffffffffffffffffffffffffffffffffffff1673ffffffffffffffffffffffffffffffffffffffff1681526020016002820160009054906101000a900473ffffffffffffffffffffffffffffffffffffffff1673ffffffffffffffffffffffffffffffffffffffff1673ffffffffffffffffffffffffffffffffffffffff1681526020016003820160009054906101000a900473ffffffffffffffffffffffffffffffffffffffff1673ffffffffffffffffffffffffffffffffffffffff1673ffffffffffffffffffffffffffffffffffffffff16815260200160048201548152602001600582015481526020016006820160009054906101000a900460ff1615151515815250509050806080015181602001519250925050915091565b6000600d600083815260200190815260200160002060020160009054906101000a900473ffffffffffffffffffffffffffffffffffffffff169050919050565b600b60009054906101000a900473ffffffffffffffffffffffffffffffffffffffff1673ffffffffffffffffffffffffffffffffffffffff163373ffffffffffffffffffffffffffffffffffffffff1614611e2d576040517f08c379a0000000000000000000000000000000000000000000000000000000008152600401611e2490614a98565b60405180910390fd5b80600a8190555050565b611e4081611542565b73ffffffffffffffffffffffffffffffffffffffff163373ffffffffffffffffffffffffffffffffffffffff1614611ead576040517f08c379a0000000000000000000000000000000000000000000000000000000008152600401611ea490614b2a565b60405180910390fd5b611eb86000826108a9565b50565b611ecc611ec661294c565b83612a1b565b611f0b576040517f08c379a0000000000000000000000000000000000000000000000000000000008152600401611f0290614599565b60405180910390fd5b611f1784848484612fc4565b50505050565b6000600d6000838152602001908152602001600020600501549050803414611f7a576040517f08c379a0000000000000000000000000000000000000000000000000000000008152600401611f7190614bbc565b60405180910390fd5b600d600083815260200190815260200160002060020160009054906101000a900473ffffffffffffffffffffffffffffffffffffffff1673ffffffffffffffffffffffffffffffffffffffff163373ffffffffffffffffffffffffffffffffffffffff160361201e576040517f08c379a000000000000000000000000000000000000000000000000000000000815260040161201590614c4e565b60405180910390fd5b33600d600084815260200190815260200160002060030160006101000a81548173ffffffffffffffffffffffffffffffffffffffff021916908373ffffffffffffffffffffffffffffffffffffffff1602179055506001600d600084815260200190815260200160002060060160006101000a81548160ff0219169083151502179055506120ac6009612e42565b6120b7303384612ab0565b600b60009054906101000a900473ffffffffffffffffffffffffffffffffffffffff1673ffffffffffffffffffffffffffffffffffffffff166108fc600a549081150290604051600060405180830381858888f19350505050158015612121573d6000803e3d6000fd5b50600d600083815260200190815260200160002060020160009054906101000a900473ffffffffffffffffffffffffffffffffffffffff1673ffffffffffffffffffffffffffffffffffffffff166108fc349081150290604051600060405180830381858888f1935050505015801561219e573d6000803e3d6000fd5b505050565b60006121af6008612e42565b60006121bb6008612a0d565b90506121c73382613020565b6121d1818661323d565b6121dc818585610db0565b809150509392505050565b606060006121f56008612a0d565b905060008060005b8381101561229d573373ffffffffffffffffffffffffffffffffffffffff16600d600060018461222d919061447c565b815260200190815260200160002060030160009054906101000a900473ffffffffffffffffffffffffffffffffffffffff1673ffffffffffffffffffffffffffffffffffffffff160361228a57600183612287919061447c565b92505b8080612295906144df565b9150506121fd565b5060008267ffffffffffffffff8111156122ba576122b9613f2b565b5b6040519080825280602002602001820160405280156122f357816020015b6122e06137e2565b8152602001906001900390816122d85790505b50905060005b84811015612528573373ffffffffffffffffffffffffffffffffffffffff16600d6000600184612329919061447c565b815260200190815260200160002060030160009054906101000a900473ffffffffffffffffffffffffffffffffffffffff1673ffffffffffffffffffffffffffffffffffffffff1603612515576000600182612385919061447c565b90506000600d60008381526020019081526020016000209050806040518060e0016040529081600082015481526020016001820160009054906101000a900473ffffffffffffffffffffffffffffffffffffffff1673ffffffffffffffffffffffffffffffffffffffff1673ffffffffffffffffffffffffffffffffffffffff1681526020016002820160009054906101000a900473ffffffffffffffffffffffffffffffffffffffff1673ffffffffffffffffffffffffffffffffffffffff1673ffffffffffffffffffffffffffffffffffffffff1681526020016003820160009054906101000a900473ffffffffffffffffffffffffffffffffffffffff1673ffffffffffffffffffffffffffffffffffffffff1673ffffffffffffffffffffffffffffffffffffffff16815260200160048201548152602001600582015481526020016006820160009054906101000a900460ff1615151515815250508486815181106124f8576124f76144b0565b5b6020026020010181905250600185612510919061447c565b945050505b8080612520906144df565b9150506122f9565b508094505050505090565b600d600082815260200190815260200160002060020160009054906101000a900473ffffffffffffffffffffffffffffffffffffffff1673ffffffffffffffffffffffffffffffffffffffff163373ffffffffffffffffffffffffffffffffffffffff16146125d7576040517f08c379a00000000000000000000000000000000000000000000000000000000081526004016125ce90614cba565b60405180910390fd5b6125e2303383612ab0565b33600d600083815260200190815260200160002060030160006101000a81548173ffffffffffffffffffffffffffffffffffffffff021916908373ffffffffffffffffffffffffffffffffffffffff1602179055506001600d600083815260200190815260200160002060060160006101000a81548160ff0219169083151502179055506126706009612e42565b50565b600a5481565b606061268482612901565b60006006600084815260200190815260200160002080546126a490614258565b80601f01602080910402602001604051908101604052809291908181526020018280546126d090614258565b801561271d5780601f106126f25761010080835404028352916020019161271d565b820191906000526020600020905b81548152906001019060200180831161270057829003601f168201915b50505050509050600061272e6132e1565b90506000815103612743578192505050612786565b600082511115612778578082604051602001612760929190614d16565b60405160208183030381529060405292505050612786565b612781846132f8565b925050505b919050565b6000600560008473ffffffffffffffffffffffffffffffffffffffff1673ffffffffffffffffffffffffffffffffffffffff16815260200190815260200160002060008373ffffffffffffffffffffffffffffffffffffffff1673ffffffffffffffffffffffffffffffffffffffff16815260200190815260200160002060009054906101000a900460ff16905092915050565b60007f80ac58cd000000000000000000000000000000000000000000000000000000007bffffffffffffffffffffffffffffffffffffffffffffffffffffffff1916827bffffffffffffffffffffffffffffffffffffffffffffffffffffffff191614806128ea57507f5b5e139f000000000000000000000000000000000000000000000000000000007bffffffffffffffffffffffffffffffffffffffffffffffffffffffff1916827bffffffffffffffffffffffffffffffffffffffffffffffffffffffff1916145b806128fa57506128f982613360565b5b9050919050565b61290a816133ca565b612949576040517f08c379a0000000000000000000000000000000000000000000000000000000008152600401612940906148a8565b60405180910390fd5b50565b600033905090565b816004600083815260200190815260200160002060006101000a81548173ffffffffffffffffffffffffffffffffffffffff021916908373ffffffffffffffffffffffffffffffffffffffff160217905550808273ffffffffffffffffffffffffffffffffffffffff166129c783611542565b73ffffffffffffffffffffffffffffffffffffffff167f8c5be1e5ebec7d5bd14f71427d1e84f3dd0314c0f7b2291e5b200ac8c7c3b92560405160405180910390a45050565b600081600001549050919050565b600080612a2783611542565b90508073ffffffffffffffffffffffffffffffffffffffff168473ffffffffffffffffffffffffffffffffffffffff161480612a695750612a68818561278b565b5b80612aa757508373ffffffffffffffffffffffffffffffffffffffff16612a8f84610863565b73ffffffffffffffffffffffffffffffffffffffff16145b91505092915050565b8273ffffffffffffffffffffffffffffffffffffffff16612ad082611542565b73ffffffffffffffffffffffffffffffffffffffff1614612b26576040517f08c379a0000000000000000000000000000000000000000000000000000000008152600401612b1d90614dac565b60405180910390fd5b600073ffffffffffffffffffffffffffffffffffffffff168273ffffffffffffffffffffffffffffffffffffffff1603612b95576040517f08c379a0000000000000000000000000000000000000000000000000000000008152600401612b8c90614e3e565b60405180910390fd5b612ba2838383600161340b565b8273ffffffffffffffffffffffffffffffffffffffff16612bc282611542565b73ffffffffffffffffffffffffffffffffffffffff1614612c18576040517f08c379a0000000000000000000000000000000000000000000000000000000008152600401612c0f90614dac565b60405180910390fd5b6004600082815260200190815260200160002060006101000a81549073ffffffffffffffffffffffffffffffffffffffff02191690556001600360008573ffffffffffffffffffffffffffffffffffffffff1673ffffffffffffffffffffffffffffffffffffffff168152602001908152602001600020600082825403925050819055506001600360008473ffffffffffffffffffffffffffffffffffffffff1673ffffffffffffffffffffffffffffffffffffffff16815260200190815260200160002060008282540192505081905550816002600083815260200190815260200160002060006101000a81548173ffffffffffffffffffffffffffffffffffffffff021916908373ffffffffffffffffffffffffffffffffffffffff160217905550808273ffffffffffffffffffffffffffffffffffffffff168473ffffffffffffffffffffffffffffffffffffffff167fddf252ad1be2c89b69c2b068fc378daa952ba7f163c4a11628f55a4df523b3ef60405160405180910390a4612da48383836001613411565b505050565b60006002600083815260200190815260200160002060009054906101000a900473ffffffffffffffffffffffffffffffffffffffff169050919050565b60008160000154905060008111612e32576040517f08c379a0000000000000000000000000000000000000000000000000000000008152600401612e2990614eaa565b60405180910390fd5b6001810382600001819055505050565b6001816000016000828254019250508190555050565b8173ffffffffffffffffffffffffffffffffffffffff168373ffffffffffffffffffffffffffffffffffffffff1603612ec6576040517f08c379a0000000000000000000000000000000000000000000000000000000008152600401612ebd90614f16565b60405180910390fd5b80600560008573ffffffffffffffffffffffffffffffffffffffff1673ffffffffffffffffffffffffffffffffffffffff16815260200190815260200160002060008473ffffffffffffffffffffffffffffffffffffffff1673ffffffffffffffffffffffffffffffffffffffff16815260200190815260200160002060006101000a81548160ff0219169083151502179055508173ffffffffffffffffffffffffffffffffffffffff168373ffffffffffffffffffffffffffffffffffffffff167f17307eab39ab6107e8899845ad3d59bd9653f200f220920489ca2b5937696c3183604051612fb79190613917565b60405180910390a3505050565b612fcf848484612ab0565b612fdb84848484613417565b61301a576040517f08c379a000000000000000000000000000000000000000000000000000000000815260040161301190614fa8565b60405180910390fd5b50505050565b600073ffffffffffffffffffffffffffffffffffffffff168273ffffffffffffffffffffffffffffffffffffffff160361308f576040517f08c379a000000000000000000000000000000000000000000000000000000000815260040161308690615014565b60405180910390fd5b613098816133ca565b156130d8576040517f08c379a00000000000000000000000000000000000000000000000000000000081526004016130cf90615080565b60405180910390fd5b6130e660008383600161340b565b6130ef816133ca565b1561312f576040517f08c379a000000000000000000000000000000000000000000000000000000000815260040161312690615080565b60405180910390fd5b6001600360008473ffffffffffffffffffffffffffffffffffffffff1673ffffffffffffffffffffffffffffffffffffffff16815260200190815260200160002060008282540192505081905550816002600083815260200190815260200160002060006101000a81548173ffffffffffffffffffffffffffffffffffffffff021916908373ffffffffffffffffffffffffffffffffffffffff160217905550808273ffffffffffffffffffffffffffffffffffffffff16600073ffffffffffffffffffffffffffffffffffffffff167fddf252ad1be2c89b69c2b068fc378daa952ba7f163c4a11628f55a4df523b3ef60405160405180910390a4613239600083836001613411565b5050565b613246826133ca565b613285576040517f08c379a000000000000000000000000000000000000000000000000000000000815260040161327c90615112565b60405180910390fd5b806006600084815260200190815260200160002090816132a591906152de565b507ff8e1a15aba9398e019f0b49df1a4fde98ee17ae345cb5f6b5e2c27f5033e8ce7826040516132d59190613dcf565b60405180910390a15050565b606060405180602001604052806000815250905090565b606061330382612901565b600061330d6132e1565b9050600081511161332d5760405180602001604052806000815250613358565b806133378461359e565b604051602001613348929190614d16565b6040516020818303038152906040525b915050919050565b60007f01ffc9a7000000000000000000000000000000000000000000000000000000007bffffffffffffffffffffffffffffffffffffffffffffffffffffffff1916827bffffffffffffffffffffffffffffffffffffffffffffffffffffffff1916149050919050565b60008073ffffffffffffffffffffffffffffffffffffffff166133ec83612da9565b73ffffffffffffffffffffffffffffffffffffffff1614159050919050565b50505050565b50505050565b60006134388473ffffffffffffffffffffffffffffffffffffffff1661366c565b15613591578373ffffffffffffffffffffffffffffffffffffffff1663150b7a0261346161294c565b8786866040518563ffffffff1660e01b81526004016134839493929190615405565b6020604051808303816000875af19250505080156134bf57506040513d601f19601f820116820180604052508101906134bc9190615466565b60015b613541573d80600081146134ef576040519150601f19603f3d011682016040523d82523d6000602084013e6134f4565b606091505b506000815103613539576040517f08c379a000000000000000000000000000000000000000000000000000000000815260040161353090614fa8565b60405180910390fd5b805181602001fd5b63150b7a0260e01b7bffffffffffffffffffffffffffffffffffffffffffffffffffffffff1916817bffffffffffffffffffffffffffffffffffffffffffffffffffffffff191614915050613596565b600190505b949350505050565b6060600060016135ad8461368f565b01905060008167ffffffffffffffff8111156135cc576135cb613f2b565b5b6040519080825280601f01601f1916602001820160405280156135fe5781602001600182028036833780820191505090505b509050600082602001820190505b600115613661578080600190039150507f3031323334353637383961626364656600000000000000000000000000000000600a86061a8153600a858161365557613654615493565b5b0494506000850361360c575b819350505050919050565b6000808273ffffffffffffffffffffffffffffffffffffffff163b119050919050565b600080600090507a184f03e93ff9f4daa797ed6e38ed64bf6a1f01000000000000000083106136ed577a184f03e93ff9f4daa797ed6e38ed64bf6a1f01000000000000000083816136e3576136e2615493565b5b0492506040810190505b6d04ee2d6d415b85acef8100000000831061372a576d04ee2d6d415b85acef810000000083816137205761371f615493565b5b0492506020810190505b662386f26fc10000831061375957662386f26fc10000838161374f5761374e615493565b5b0492506010810190505b6305f5e1008310613782576305f5e100838161377857613777615493565b5b0492506008810190505b61271083106137a757612710838161379d5761379c615493565b5b0492506004810190505b606483106137ca57606483816137c0576137bf615493565b5b0492506002810190505b600a83106137d9576001810190505b80915050919050565b6040518060e0016040528060008152602001600073ffffffffffffffffffffffffffffffffffffffff168152602001600073ffffffffffffffffffffffffffffffffffffffff168152602001600073ffffffffffffffffffffffffffffffffffffffff16815260200160008152602001600081526020016000151581525090565b6000604051905090565b600080fd5b600080fd5b60007fffffffff0000000000000000000000000000000000000000000000000000000082169050919050565b6138ac81613877565b81146138b757600080fd5b50565b6000813590506138c9816138a3565b92915050565b6000602082840312156138e5576138e461386d565b5b60006138f3848285016138ba565b91505092915050565b60008115159050919050565b613911816138fc565b82525050565b600060208201905061392c6000830184613908565b92915050565b600081519050919050565b600082825260208201905092915050565b60005b8381101561396c578082015181840152602081019050613951565b60008484015250505050565b6000601f19601f8301169050919050565b600061399482613932565b61399e818561393d565b93506139ae81856020860161394e565b6139b781613978565b840191505092915050565b600060208201905081810360008301526139dc8184613989565b905092915050565b6000819050919050565b6139f7816139e4565b8114613a0257600080fd5b50565b600081359050613a14816139ee565b92915050565b600060208284031215613a3057613a2f61386d565b5b6000613a3e84828501613a05565b91505092915050565b600073ffffffffffffffffffffffffffffffffffffffff82169050919050565b6000613a7282613a47565b9050919050565b613a8281613a67565b82525050565b6000602082019050613a9d6000830184613a79565b92915050565b613aac81613a67565b8114613ab757600080fd5b50565b600081359050613ac981613aa3565b92915050565b60008060408385031215613ae657613ae561386d565b5b6000613af485828601613aba565b9250506020613b0585828601613a05565b9150509250929050565b600081519050919050565b600082825260208201905092915050565b6000819050602082019050919050565b613b44816139e4565b82525050565b6000613b5582613a47565b9050919050565b613b6581613b4a565b82525050565b613b74816138fc565b82525050565b60e082016000820151613b906000850182613b3b565b506020820151613ba36020850182613b5c565b506040820151613bb66040850182613b5c565b506060820151613bc96060850182613b5c565b506080820151613bdc6080850182613b3b565b5060a0820151613bef60a0850182613b3b565b5060c0820151613c0260c0850182613b6b565b50505050565b6000613c148383613b7a565b60e08301905092915050565b6000602082019050919050565b6000613c3882613b0f565b613c428185613b1a565b9350613c4d83613b2b565b8060005b83811015613c7e578151613c658882613c08565b9750613c7083613c20565b925050600181019050613c51565b5085935050505092915050565b60006020820190508181036000830152613ca58184613c2d565b905092915050565b600060208284031215613cc357613cc261386d565b5b6000613cd184828501613aba565b91505092915050565b600080600060608486031215613cf357613cf261386d565b5b6000613d0186828701613aba565b9350506020613d1286828701613aba565b9250506040613d2386828701613a05565b9150509250925092565b600080600060608486031215613d4657613d4561386d565b5b6000613d5486828701613a05565b9350506020613d6586828701613a05565b9250506040613d7686828701613a05565b9150509250925092565b60008060408385031215613d9757613d9661386d565b5b6000613da585828601613a05565b9250506020613db685828601613a05565b9150509250929050565b613dc9816139e4565b82525050565b6000602082019050613de46000830184613dc0565b92915050565b600080600060608486031215613e0357613e0261386d565b5b6000613e1186828701613a05565b9350506020613e2286828701613a05565b9250506040613e3386828701613aba565b9150509250925092565b60008060408385031215613e5457613e5361386d565b5b6000613e6285828601613a05565b9250506020613e7385828601613aba565b9150509250929050565b613e86816138fc565b8114613e9157600080fd5b50565b600081359050613ea381613e7d565b92915050565b60008060408385031215613ec057613ebf61386d565b5b6000613ece85828601613aba565b9250506020613edf85828601613e94565b9150509250929050565b613ef281613b4a565b82525050565b6000604082019050613f0d6000830185613dc0565b613f1a6020830184613ee9565b9392505050565b600080fd5b600080fd5b7f4e487b7100000000000000000000000000000000000000000000000000000000600052604160045260246000fd5b613f6382613978565b810181811067ffffffffffffffff82111715613f8257613f81613f2b565b5b80604052505050565b6000613f95613863565b9050613fa18282613f5a565b919050565b600067ffffffffffffffff821115613fc157613fc0613f2b565b5b613fca82613978565b9050602081019050919050565b82818337600083830152505050565b6000613ff9613ff484613fa6565b613f8b565b90508281526020810184848401111561401557614014613f26565b5b614020848285613fd7565b509392505050565b600082601f83011261403d5761403c613f21565b5b813561404d848260208601613fe6565b91505092915050565b600080600080608085870312156140705761406f61386d565b5b600061407e87828801613aba565b945050602061408f87828801613aba565b93505060406140a087828801613a05565b925050606085013567ffffffffffffffff8111156140c1576140c0613872565b5b6140cd87828801614028565b91505092959194509250565b600067ffffffffffffffff8211156140f4576140f3613f2b565b5b6140fd82613978565b9050602081019050919050565b600061411d614118846140d9565b613f8b565b90508281526020810184848401111561413957614138613f26565b5b614144848285613fd7565b509392505050565b600082601f83011261416157614160613f21565b5b813561417184826020860161410a565b91505092915050565b6000806000606084860312156141935761419261386d565b5b600084013567ffffffffffffffff8111156141b1576141b0613872565b5b6141bd8682870161414c565b93505060206141ce86828701613a05565b92505060406141df86828701613a05565b9150509250925092565b60008060408385031215614200576141ff61386d565b5b600061420e85828601613aba565b925050602061421f85828601613aba565b9150509250929050565b7f4e487b7100000000000000000000000000000000000000000000000000000000600052602260045260246000fd5b6000600282049050600182168061427057607f821691505b60208210810361428357614282614229565b5b50919050565b7f4552433732313a20617070726f76616c20746f2063757272656e74206f776e6560008201527f7200000000000000000000000000000000000000000000000000000000000000602082015250565b60006142e560218361393d565b91506142f082614289565b604082019050919050565b60006020820190508181036000830152614314816142d8565b9050919050565b7f4552433732313a20617070726f76652063616c6c6572206973206e6f7420746f60008201527f6b656e206f776e6572206f7220617070726f76656420666f7220616c6c000000602082015250565b6000614377603d8361393d565b91506143828261431b565b604082019050919050565b600060208201905081810360008301526143a68161436a565b9050919050565b7f4f6e6c7920746865206f776e65722063616e206769766520617070726f76616c600082015250565b60006143e360208361393d565b91506143ee826143ad565b602082019050919050565b60006020820190508181036000830152614412816143d6565b9050919050565b7f4e487b7100000000000000000000000000000000000000000000000000000000600052601160045260246000fd5b6000614453826139e4565b915061445e836139e4565b925082820390508181111561447657614475614419565b5b92915050565b6000614487826139e4565b9150614492836139e4565b92508282019050808211156144aa576144a9614419565b5b92915050565b7f4e487b7100000000000000000000000000000000000000000000000000000000600052603260045260246000fd5b60006144ea826139e4565b91507fffffffffffffffffffffffffffffffffffffffffffffffffffffffffffffffff820361451c5761451b614419565b5b600182019050919050565b7f4552433732313a2063616c6c6572206973206e6f7420746f6b656e206f776e6560008201527f72206f7220617070726f76656400000000000000000000000000000000000000602082015250565b6000614583602d8361393d565b915061458e82614527565b604082019050919050565b600060208201905081810360008301526145b281614576565b9050919050565b7f5072696365206d757374206265206174206c6561737420312077656900000000600082015250565b60006145ef601c8361393d565b91506145fa826145b9565b602082019050919050565b6000602082019050818103600083015261461e816145e2565b9050919050565b7f5072696365206d757374206265207061696420696e2066756c6c000000000000600082015250565b600061465b601a8361393d565b915061466682614625565b602082019050919050565b6000602082019050818103600083015261468a8161464e565b9050919050565b600060c0820190506146a66000830189613a79565b6146b36020830188613a79565b6146c06040830187613a79565b6146cd6060830186613dc0565b6146da6080830185613dc0565b6146e760a0830184613908565b979650505050505050565b7f4e465420646f6573206e6f7420657869737420696e206d61726b6574706c616360008201527f6500000000000000000000000000000000000000000000000000000000000000602082015250565b600061474e60218361393d565b9150614759826146f2565b604082019050919050565b6000602082019050818103600083015261477d81614741565b9050919050565b7f43616c6c6572206973206e6f7420746865206f776e6572000000000000000000600082015250565b60006147ba60178361393d565b91506147c582614784565b602082019050919050565b600060208201905081810360008301526147e9816147ad565b9050919050565b7f5072696365206d7573742062652067726561746572207468616e207a65726f00600082015250565b6000614826601f8361393d565b9150614831826147f0565b602082019050919050565b6000602082019050818103600083015261485581614819565b9050919050565b7f4552433732313a20696e76616c696420746f6b656e2049440000000000000000600082015250565b600061489260188361393d565b915061489d8261485c565b602082019050919050565b600060208201905081810360008301526148c181614885565b9050919050565b7f4552433732313a2061646472657373207a65726f206973206e6f74206120766160008201527f6c6964206f776e65720000000000000000000000000000000000000000000000602082015250565b600061492460298361393d565b915061492f826148c8565b604082019050919050565b6000602082019050818103600083015261495381614917565b9050919050565b7f4f6e6c79206f776e65722063616e2072656c697374204e465400000000000000600082015250565b600061499060198361393d565b915061499b8261495a565b602082019050919050565b600060208201905081810360008301526149bf81614983565b9050919050565b60006060820190506149db6000830186613a79565b6149e86020830185613a79565b6149f56040830184613dc0565b949350505050565b6000604082019050614a126000830185613dc0565b614a1f6020830184613a79565b9392505050565b7f6f6e6c79206f776e6572206f662074686520636f6e74726163742063616e207560008201527f706461746520746865206c697374696e67207072696365000000000000000000602082015250565b6000614a8260378361393d565b9150614a8d82614a26565b604082019050919050565b60006020820190508181036000830152614ab181614a75565b9050919050565b7f4f6e6c7920746865206f776e65722063616e207265766f6b6520617070726f7660008201527f616c000000000000000000000000000000000000000000000000000000000000602082015250565b6000614b1460228361393d565b9150614b1f82614ab8565b604082019050919050565b60006020820190508181036000830152614b4381614b07565b9050919050565b7f506c65617365207375626d6974207468652061736b696e67207072696365206960008201527f6e206f7264657220746f20636f6d706c65746520746865207075726368617365602082015250565b6000614ba660408361393d565b9150614bb182614b4a565b604082019050919050565b60006020820190508181036000830152614bd581614b99565b9050919050565b7f557365722063616e6e6f74207075726368617365207468656972206f776e204e60008201527f4654000000000000000000000000000000000000000000000000000000000000602082015250565b6000614c3860228361393d565b9150614c4382614bdc565b604082019050919050565b60006020820190508181036000830152614c6781614c2b565b9050919050565b7f4f6e6c7920746f6b656e2073656c6c65722063616e2064656c69737400000000600082015250565b6000614ca4601c8361393d565b9150614caf82614c6e565b602082019050919050565b60006020820190508181036000830152614cd381614c97565b9050919050565b600081905092915050565b6000614cf082613932565b614cfa8185614cda565b9350614d0a81856020860161394e565b80840191505092915050565b6000614d228285614ce5565b9150614d2e8284614ce5565b91508190509392505050565b7f4552433732313a207472616e736665722066726f6d20696e636f72726563742060008201527f6f776e6572000000000000000000000000000000000000000000000000000000602082015250565b6000614d9660258361393d565b9150614da182614d3a565b604082019050919050565b60006020820190508181036000830152614dc581614d89565b9050919050565b7f4552433732313a207472616e7366657220746f20746865207a65726f2061646460008201527f7265737300000000000000000000000000000000000000000000000000000000602082015250565b6000614e2860248361393d565b9150614e3382614dcc565b604082019050919050565b60006020820190508181036000830152614e5781614e1b565b9050919050565b7f436f756e7465723a2064656372656d656e74206f766572666c6f770000000000600082015250565b6000614e94601b8361393d565b9150614e9f82614e5e565b602082019050919050565b60006020820190508181036000830152614ec381614e87565b9050919050565b7f4552433732313a20617070726f766520746f2063616c6c657200000000000000600082015250565b6000614f0060198361393d565b9150614f0b82614eca565b602082019050919050565b60006020820190508181036000830152614f2f81614ef3565b9050919050565b7f4552433732313a207472616e7366657220746f206e6f6e20455243373231526560008201527f63656976657220696d706c656d656e7465720000000000000000000000000000602082015250565b6000614f9260328361393d565b9150614f9d82614f36565b604082019050919050565b60006020820190508181036000830152614fc181614f85565b9050919050565b7f4552433732313a206d696e7420746f20746865207a65726f2061646472657373600082015250565b6000614ffe60208361393d565b915061500982614fc8565b602082019050919050565b6000602082019050818103600083015261502d81614ff1565b9050919050565b7f4552433732313a20746f6b656e20616c7265616479206d696e74656400000000600082015250565b600061506a601c8361393d565b915061507582615034565b602082019050919050565b600060208201905081810360008301526150998161505d565b9050919050565b7f45524337323155524953746f726167653a2055524920736574206f66206e6f6e60008201527f6578697374656e7420746f6b656e000000000000000000000000000000000000602082015250565b60006150fc602e8361393d565b9150615107826150a0565b604082019050919050565b6000602082019050818103600083015261512b816150ef565b9050919050565b60008190508160005260206000209050919050565b60006020601f8301049050919050565b600082821b905092915050565b6000600883026151947fffffffffffffffffffffffffffffffffffffffffffffffffffffffffffffffff82615157565b61519e8683615157565b95508019841693508086168417925050509392505050565b6000819050919050565b60006151db6151d66151d1846139e4565b6151b6565b6139e4565b9050919050565b6000819050919050565b6151f5836151c0565b615209615201826151e2565b848454615164565b825550505050565b600090565b61521e615211565b6152298184846151ec565b505050565b5b8181101561524d57615242600082615216565b60018101905061522f565b5050565b601f8211156152925761526381615132565b61526c84615147565b8101602085101561527b578190505b61528f61528785615147565b83018261522e565b50505b505050565b600082821c905092915050565b60006152b560001984600802615297565b1980831691505092915050565b60006152ce83836152a4565b9150826002028217905092915050565b6152e782613932565b67ffffffffffffffff811115615300576152ff613f2b565b5b61530a8254614258565b615315828285615251565b600060209050601f8311600181146153485760008415615336578287015190505b61534085826152c2565b8655506153a8565b601f19841661535686615132565b60005b8281101561537e57848901518255600182019150602085019450602081019050615359565b8683101561539b5784890151615397601f8916826152a4565b8355505b6001600288020188555050505b505050505050565b600081519050919050565b600082825260208201905092915050565b60006153d7826153b0565b6153e181856153bb565b93506153f181856020860161394e565b6153fa81613978565b840191505092915050565b600060808201905061541a6000830187613a79565b6154276020830186613a79565b6154346040830185613dc0565b818103606083015261544681846153cc565b905095945050505050565b600081519050615460816138a3565b92915050565b60006020828403121561547c5761547b61386d565b5b600061548a84828501615451565b91505092915050565b7f4e487b7100000000000000000000000000000000000000000000000000000000600052601260045260246000fdfea264697066735822122008be0e7a37a50d905e906bb8e3ea351a79061e0dc9a7c56b2e0b1a51870c3c5764736f6c63430008130033",
  "linkReferences": {},
  "deployedLinkReferences": {}
}