{
  "_format": "hh-sol-artifact-1",
  "contractName": "Marketplace",
  "sourceName": "contracts/Marketplace.sol",
  "abi": [
    {
      "inputs": [],
      "stateMutability": "nonpayable",
      "type": "constructor"
    },
    {
      "anonymous": false,
      "inputs": [
        {
          "indexed": true,
          "internalType": "address",
          "name": "owner",
          "type": "address"
        },
        {
          "indexed": true,
          "internalType": "address",
          "name": "approved",
          "type": "address"
        },
        {
          "indexed": true,
          "internalType": "uint256",
          "name": "tokenId",
          "type": "uint256"
        }
      ],
      "name": "Approval",
      "type": "event"
    },
    {
      "anonymous": false,
      "inputs": [
        {
          "indexed": true,
          "internalType": "address",
          "name": "owner",
          "type": "address"
        },
        {
          "indexed": true,
          "internalType": "address",
          "name": "operator",
          "type": "address"
        },
        {
          "indexed": false,
          "internalType": "bool",
          "name": "approved",
          "type": "bool"
        }
      ],
      "name": "ApprovalForAll",
      "type": "event"
    },
    {
      "anonymous": false,
      "inputs": [
        {
          "indexed": false,
          "internalType": "uint256",
          "name": "_fromTokenId",
          "type": "uint256"
        },
        {
          "indexed": false,
          "internalType": "uint256",
          "name": "_toTokenId",
          "type": "uint256"
        }
      ],
      "name": "BatchMetadataUpdate",
      "type": "event"
    },
    {
      "anonymous": false,
      "inputs": [
        {
          "indexed": false,
          "internalType": "uint256",
          "name": "amount",
          "type": "uint256"
        },
        {
          "indexed": false,
          "internalType": "address",
          "name": "targetWallet",
          "type": "address"
        }
      ],
      "name": "FundsWithdrawn",
      "type": "event"
    },
    {
      "anonymous": false,
      "inputs": [
        {
          "indexed": true,
          "internalType": "uint256",
          "name": "tokenId",
          "type": "uint256"
        },
        {
          "indexed": false,
          "internalType": "address",
          "name": "originalOwner",
          "type": "address"
        },
        {
          "indexed": false,
          "internalType": "address",
          "name": "seller",
          "type": "address"
        },
        {
          "indexed": false,
          "internalType": "address",
          "name": "owner",
          "type": "address"
        },
        {
          "indexed": false,
          "internalType": "uint256",
          "name": "royaltyPercentage",
          "type": "uint256"
        },
        {
          "indexed": false,
          "internalType": "uint256",
          "name": "price",
          "type": "uint256"
        },
        {
          "indexed": false,
          "internalType": "bool",
          "name": "auction",
          "type": "bool"
        },
        {
          "indexed": false,
          "internalType": "bool",
          "name": "sold",
          "type": "bool"
        }
      ],
      "name": "MarketItemCreated",
      "type": "event"
    },
    {
      "anonymous": false,
      "inputs": [
        {
          "indexed": false,
          "internalType": "uint256",
          "name": "_tokenId",
          "type": "uint256"
        }
      ],
      "name": "MetadataUpdate",
      "type": "event"
    },
    {
      "anonymous": false,
      "inputs": [
        {
          "indexed": false,
          "internalType": "uint256",
          "name": "nftId",
          "type": "uint256"
        },
        {
          "indexed": false,
          "internalType": "address",
          "name": "auctionWinner",
          "type": "address"
        }
      ],
      "name": "NFTTransferred",
      "type": "event"
    },
    {
      "anonymous": false,
      "inputs": [
        {
          "indexed": true,
          "internalType": "address",
          "name": "from",
          "type": "address"
        },
        {
          "indexed": true,
          "internalType": "address",
          "name": "to",
          "type": "address"
        },
        {
          "indexed": true,
          "internalType": "uint256",
          "name": "tokenId",
          "type": "uint256"
        }
      ],
      "name": "Transfer",
      "type": "event"
    },
    {
      "stateMutability": "payable",
      "type": "fallback"
    },
    {
      "inputs": [
        {
          "internalType": "address",
          "name": "to",
          "type": "address"
        },
        {
          "internalType": "uint256",
          "name": "tokenId",
          "type": "uint256"
        }
      ],
      "name": "approve",
      "outputs": [],
      "stateMutability": "nonpayable",
      "type": "function"
    },
    {
      "inputs": [
        {
          "internalType": "address",
          "name": "owner",
          "type": "address"
        }
      ],
      "name": "balanceOf",
      "outputs": [
        {
          "internalType": "uint256",
          "name": "",
          "type": "uint256"
        }
      ],
      "stateMutability": "view",
      "type": "function"
    },
    {
      "inputs": [
        {
          "internalType": "uint256",
          "name": "tokenId",
          "type": "uint256"
        },
        {
          "internalType": "uint256",
          "name": "royaltyPercentage",
          "type": "uint256"
        },
        {
          "internalType": "uint256",
          "name": "price",
          "type": "uint256"
        }
      ],
      "name": "createMarketItem",
      "outputs": [],
      "stateMutability": "payable",
      "type": "function"
    },
    {
      "inputs": [
        {
          "internalType": "uint256",
          "name": "tokenId",
          "type": "uint256"
        }
      ],
      "name": "createMarketSale",
      "outputs": [],
      "stateMutability": "payable",
      "type": "function"
    },
    {
      "inputs": [
        {
          "internalType": "string",
          "name": "tokenURI",
          "type": "string"
        },
        {
          "internalType": "uint256",
          "name": "royaltyPercentage",
          "type": "uint256"
        },
        {
          "internalType": "uint256",
          "name": "price",
          "type": "uint256"
        }
      ],
      "name": "createToken",
      "outputs": [
        {
          "internalType": "uint256",
          "name": "",
          "type": "uint256"
        }
      ],
      "stateMutability": "payable",
      "type": "function"
    },
    {
      "inputs": [
        {
          "internalType": "uint256",
          "name": "tokenId",
          "type": "uint256"
        }
      ],
      "name": "delistMarketItem",
      "outputs": [],
      "stateMutability": "nonpayable",
      "type": "function"
    },
    {
      "inputs": [],
      "name": "fetchItemsListed",
      "outputs": [
        {
          "components": [
            {
              "internalType": "uint256",
              "name": "tokenId",
              "type": "uint256"
            },
            {
              "internalType": "address payable",
              "name": "originalOwner",
              "type": "address"
            },
            {
              "internalType": "address payable",
              "name": "seller",
              "type": "address"
            },
            {
              "internalType": "address payable",
              "name": "owner",
              "type": "address"
            },
            {
              "internalType": "uint256",
              "name": "royaltyPercentage",
              "type": "uint256"
            },
            {
              "internalType": "uint256",
              "name": "price",
              "type": "uint256"
            },
            {
              "internalType": "bool",
              "name": "auction",
              "type": "bool"
            },
            {
              "internalType": "bool",
              "name": "sold",
              "type": "bool"
            }
          ],
          "internalType": "struct Marketplace.MarketItem[]",
          "name": "",
          "type": "tuple[]"
        }
      ],
      "stateMutability": "view",
      "type": "function"
    },
    {
      "inputs": [],
      "name": "fetchMarketItems",
      "outputs": [
        {
          "components": [
            {
              "internalType": "uint256",
              "name": "tokenId",
              "type": "uint256"
            },
            {
              "internalType": "address payable",
              "name": "originalOwner",
              "type": "address"
            },
            {
              "internalType": "address payable",
              "name": "seller",
              "type": "address"
            },
            {
              "internalType": "address payable",
              "name": "owner",
              "type": "address"
            },
            {
              "internalType": "uint256",
              "name": "royaltyPercentage",
              "type": "uint256"
            },
            {
              "internalType": "uint256",
              "name": "price",
              "type": "uint256"
            },
            {
              "internalType": "bool",
              "name": "auction",
              "type": "bool"
            },
            {
              "internalType": "bool",
              "name": "sold",
              "type": "bool"
            }
          ],
          "internalType": "struct Marketplace.MarketItem[]",
          "name": "",
          "type": "tuple[]"
        }
      ],
      "stateMutability": "view",
      "type": "function"
    },
    {
      "inputs": [],
      "name": "fetchMyNFT",
      "outputs": [
        {
          "components": [
            {
              "internalType": "uint256",
              "name": "tokenId",
              "type": "uint256"
            },
            {
              "internalType": "address payable",
              "name": "originalOwner",
              "type": "address"
            },
            {
              "internalType": "address payable",
              "name": "seller",
              "type": "address"
            },
            {
              "internalType": "address payable",
              "name": "owner",
              "type": "address"
            },
            {
              "internalType": "uint256",
              "name": "royaltyPercentage",
              "type": "uint256"
            },
            {
              "internalType": "uint256",
              "name": "price",
              "type": "uint256"
            },
            {
              "internalType": "bool",
              "name": "auction",
              "type": "bool"
            },
            {
              "internalType": "bool",
              "name": "sold",
              "type": "bool"
            }
          ],
          "internalType": "struct Marketplace.MarketItem[]",
          "name": "",
          "type": "tuple[]"
        }
      ],
      "stateMutability": "view",
      "type": "function"
    },
    {
      "inputs": [
        {
          "internalType": "uint256",
          "name": "tokenId",
          "type": "uint256"
        }
      ],
      "name": "getApproved",
      "outputs": [
        {
          "internalType": "address",
          "name": "",
          "type": "address"
        }
      ],
      "stateMutability": "view",
      "type": "function"
    },
    {
      "inputs": [
        {
          "internalType": "uint256",
          "name": "tokenId",
          "type": "uint256"
        }
      ],
      "name": "getNFTPrice",
      "outputs": [
        {
          "internalType": "uint256",
          "name": "price",
          "type": "uint256"
        }
      ],
      "stateMutability": "view",
      "type": "function"
    },
    {
      "inputs": [
        {
          "internalType": "uint256",
          "name": "tokenId",
          "type": "uint256"
        }
      ],
      "name": "getRoyaltyData",
      "outputs": [
        {
          "internalType": "uint256",
          "name": "",
          "type": "uint256"
        },
        {
          "internalType": "address payable",
          "name": "",
          "type": "address"
        }
      ],
      "stateMutability": "view",
      "type": "function"
    },
    {
      "inputs": [
        {
          "internalType": "uint256",
          "name": "tokenId",
          "type": "uint256"
        }
      ],
      "name": "getSellerAddress",
      "outputs": [
        {
          "internalType": "address",
          "name": "",
          "type": "address"
        }
      ],
      "stateMutability": "view",
      "type": "function"
    },
    {
      "inputs": [
        {
          "internalType": "uint256",
          "name": "tokenId",
          "type": "uint256"
        },
        {
          "internalType": "address",
          "name": "winner",
          "type": "address"
        }
      ],
      "name": "handleAuctionEnd",
      "outputs": [],
      "stateMutability": "nonpayable",
      "type": "function"
    },
    {
      "inputs": [
        {
          "internalType": "address",
          "name": "owner",
          "type": "address"
        },
        {
          "internalType": "address",
          "name": "operator",
          "type": "address"
        }
      ],
      "name": "isApprovedForAll",
      "outputs": [
        {
          "internalType": "bool",
          "name": "",
          "type": "bool"
        }
      ],
      "stateMutability": "view",
      "type": "function"
    },
    {
      "inputs": [],
      "name": "name",
      "outputs": [
        {
          "internalType": "string",
          "name": "",
          "type": "string"
        }
      ],
      "stateMutability": "view",
      "type": "function"
    },
    {
      "inputs": [
        {
          "internalType": "uint256",
          "name": "tokenId",
          "type": "uint256"
        }
      ],
      "name": "ownerOf",
      "outputs": [
        {
          "internalType": "address",
          "name": "",
          "type": "address"
        }
      ],
      "stateMutability": "view",
      "type": "function"
    },
    {
      "inputs": [
        {
          "internalType": "uint256",
          "name": "tokenId",
          "type": "uint256"
        },
        {
          "internalType": "uint256",
          "name": "price",
          "type": "uint256"
        },
        {
          "internalType": "address",
          "name": "seller",
          "type": "address"
        }
      ],
      "name": "resellMarketItem",
      "outputs": [],
      "stateMutability": "payable",
      "type": "function"
    },
    {
      "inputs": [
        {
          "internalType": "address",
          "name": "from",
          "type": "address"
        },
        {
          "internalType": "address",
          "name": "to",
          "type": "address"
        },
        {
          "internalType": "uint256",
          "name": "tokenId",
          "type": "uint256"
        }
      ],
      "name": "safeTransferFrom",
      "outputs": [],
      "stateMutability": "nonpayable",
      "type": "function"
    },
    {
      "inputs": [
        {
          "internalType": "address",
          "name": "from",
          "type": "address"
        },
        {
          "internalType": "address",
          "name": "to",
          "type": "address"
        },
        {
          "internalType": "uint256",
          "name": "tokenId",
          "type": "uint256"
        },
        {
          "internalType": "bytes",
          "name": "data",
          "type": "bytes"
        }
      ],
      "name": "safeTransferFrom",
      "outputs": [],
      "stateMutability": "nonpayable",
      "type": "function"
    },
    {
      "inputs": [
        {
          "internalType": "address",
          "name": "operator",
          "type": "address"
        },
        {
          "internalType": "bool",
          "name": "approved",
          "type": "bool"
        }
      ],
      "name": "setApprovalForAll",
      "outputs": [],
      "stateMutability": "nonpayable",
      "type": "function"
    },
    {
      "inputs": [
        {
          "internalType": "address",
          "name": "auctionFactoryAddress",
          "type": "address"
        }
      ],
      "name": "setAuctionFactoryAddress",
      "outputs": [],
      "stateMutability": "nonpayable",
      "type": "function"
    },
    {
      "inputs": [
        {
          "internalType": "bytes4",
          "name": "interfaceId",
          "type": "bytes4"
        }
      ],
      "name": "supportsInterface",
      "outputs": [
        {
          "internalType": "bool",
          "name": "",
          "type": "bool"
        }
      ],
      "stateMutability": "view",
      "type": "function"
    },
    {
      "inputs": [],
      "name": "symbol",
      "outputs": [
        {
          "internalType": "string",
          "name": "",
          "type": "string"
        }
      ],
      "stateMutability": "view",
      "type": "function"
    },
    {
      "inputs": [
        {
          "internalType": "uint256",
          "name": "tokenId",
          "type": "uint256"
        }
      ],
      "name": "tokenURI",
      "outputs": [
        {
          "internalType": "string",
          "name": "",
          "type": "string"
        }
      ],
      "stateMutability": "view",
      "type": "function"
    },
    {
      "inputs": [
        {
          "internalType": "address",
          "name": "from",
          "type": "address"
        },
        {
          "internalType": "address",
          "name": "to",
          "type": "address"
        },
        {
          "internalType": "uint256",
          "name": "tokenId",
          "type": "uint256"
        }
      ],
      "name": "transferFrom",
      "outputs": [],
      "stateMutability": "nonpayable",
      "type": "function"
    },
    {
      "inputs": [
        {
          "internalType": "address",
          "name": "auctionContractAddress",
          "type": "address"
        },
        {
          "internalType": "uint256",
          "name": "tokenId",
          "type": "uint256"
        }
      ],
      "name": "triggerEndAuction",
      "outputs": [],
      "stateMutability": "nonpayable",
      "type": "function"
    },
    {
      "inputs": [
        {
          "internalType": "uint256",
          "name": "_listingPrice",
          "type": "uint256"
        }
      ],
      "name": "updateListingPrice",
      "outputs": [],
      "stateMutability": "payable",
      "type": "function"
    },
    {
      "inputs": [
        {
          "internalType": "uint256",
          "name": "tokenId",
          "type": "uint256"
        },
        {
          "internalType": "uint256",
          "name": "price",
          "type": "uint256"
        }
      ],
      "name": "updateNFTPrice",
      "outputs": [],
      "stateMutability": "nonpayable",
      "type": "function"
    },
    {
      "inputs": [],
      "name": "withdrawFunds",
      "outputs": [],
      "stateMutability": "nonpayable",
      "type": "function"
    },
    {
      "stateMutability": "payable",
      "type": "receive"
    }
  ],
  "bytecode": "0x60806040526608e1bc9bf04000600a553480156200001c57600080fd5b506040518060400160405280601381526020017f4e4654204d657461766572736520546f6b656e000000000000000000000000008152506040518060400160405280600581526020017f4d594e465400000000000000000000000000000000000000000000000000000081525081600090816200009a919062000378565b508060019081620000ac919062000378565b505050600160078190555033600b60006101000a81548173ffffffffffffffffffffffffffffffffffffffff021916908373ffffffffffffffffffffffffffffffffffffffff1602179055506200045f565b600081519050919050565b7f4e487b7100000000000000000000000000000000000000000000000000000000600052604160045260246000fd5b7f4e487b7100000000000000000000000000000000000000000000000000000000600052602260045260246000fd5b600060028204905060018216806200018057607f821691505b60208210810362000196576200019562000138565b5b50919050565b60008190508160005260206000209050919050565b60006020601f8301049050919050565b600082821b905092915050565b600060088302620002007fffffffffffffffffffffffffffffffffffffffffffffffffffffffffffffffff82620001c1565b6200020c8683620001c1565b95508019841693508086168417925050509392505050565b6000819050919050565b6000819050919050565b600062000259620002536200024d8462000224565b6200022e565b62000224565b9050919050565b6000819050919050565b620002758362000238565b6200028d620002848262000260565b848454620001ce565b825550505050565b600090565b620002a462000295565b620002b18184846200026a565b505050565b5b81811015620002d957620002cd6000826200029a565b600181019050620002b7565b5050565b601f8211156200032857620002f2816200019c565b620002fd84620001b1565b810160208510156200030d578190505b620003256200031c85620001b1565b830182620002b6565b50505b505050565b600082821c905092915050565b60006200034d600019846008026200032d565b1980831691505092915050565b60006200036883836200033a565b9150826002028217905092915050565b6200038382620000fe565b67ffffffffffffffff8111156200039f576200039e62000109565b5b620003ab825462000167565b620003b8828285620002dd565b600060209050601f831160018114620003f05760008415620003db578287015190505b620003e785826200035a565b86555062000457565b601f19841662000400866200019c565b60005b828110156200042a5784890151825560018201915060208501945060208101905062000403565b868310156200044a578489015162000446601f8916826200033a565b8355505b6001600288020188555050505b505050505050565b615a01806200046f6000396000f3fe6080604052600436106101d15760003560e01c80638f329b31116100f7578063ae677aa311610095578063c18763f711610064578063c18763f71461065a578063c68a0e1614610685578063c87b56dd146106ae578063e985e9c5146106eb576101d8565b8063ae677aa3146105c9578063b88d4fde146105e5578063be9af5361461060e578063bec2a7c51461062a576101d8565b806399f14a8b116100d157806399f14a8b146104fc578063a22cb46514610525578063a65ff74c1461054e578063a675364d1461058c576101d8565b80638f329b311461046b578063929761791461049457806395d89b41146104d1576101d8565b806324600fc31161016f5780634ac0123d1161013e5780634ac0123d146103ac5780636352211e146103d557806370a0823114610412578063804fa8351461044f576101d8565b806324600fc314610325578063320343da1461033c57806342842e0e1461035857806345f8fa8014610381576101d8565b8063095ea7b3116101ab578063095ea7b31461027f5780630f08efe0146102a85780631cb88133146102d357806323b872dd146102fc576101d8565b806301ffc9a7146101da57806306fdde0314610217578063081812fc14610242576101d8565b366101d857005b005b3480156101e657600080fd5b5061020160048036038101906101fc9190613d74565b610728565b60405161020e9190613dbc565b60405180910390f35b34801561022357600080fd5b5061022c610789565b6040516102399190613e67565b60405180910390f35b34801561024e57600080fd5b5061026960048036038101906102649190613ebf565b61081b565b6040516102769190613f2d565b60405180910390f35b34801561028b57600080fd5b506102a660048036038101906102a19190613f74565b610861565b005b3480156102b457600080fd5b506102bd610978565b6040516102ca9190614145565b60405180910390f35b3480156102df57600080fd5b506102fa60048036038101906102f59190614167565b610c5c565b005b34801561030857600080fd5b50610323600480360381019061031e9190614194565b610ca0565b005b34801561033157600080fd5b5061033a610d00565b005b610356600480360381019061035191906141e7565b610ee3565b005b34801561036457600080fd5b5061037f600480360381019061037a9190614194565b6111ad565b005b34801561038d57600080fd5b506103966111cd565b6040516103a39190614145565b60405180910390f35b3480156103b857600080fd5b506103d360048036038101906103ce919061423a565b611535565b005b3480156103e157600080fd5b506103fc60048036038101906103f79190613ebf565b611735565b6040516104099190613f2d565b60405180910390f35b34801561041e57600080fd5b5061043960048036038101906104349190614167565b6117bb565b6040516104469190614289565b60405180910390f35b610469600480360381019061046491906142a4565b611872565b005b34801561047757600080fd5b50610492600480360381019061048d91906142f7565b611b90565b005b3480156104a057600080fd5b506104bb60048036038101906104b69190613ebf565b611cc0565b6040516104c89190614289565b60405180910390f35b3480156104dd57600080fd5b506104e6611e47565b6040516104f39190613e67565b60405180910390f35b34801561050857600080fd5b50610523600480360381019061051e9190613f74565b611ed9565b005b34801561053157600080fd5b5061054c60048036038101906105479190614363565b611f4e565b005b34801561055a57600080fd5b5061057560048036038101906105709190613ebf565b611f64565b6040516105839291906143b2565b60405180910390f35b34801561059857600080fd5b506105b360048036038101906105ae9190613ebf565b6120f4565b6040516105c09190613f2d565b60405180910390f35b6105e360048036038101906105de9190613ebf565b612134565b005b3480156105f157600080fd5b5061060c60048036038101906106079190614510565b6121ce565b005b61062860048036038101906106239190613ebf565b612230565b005b610644600480360381019061063f9190614634565b612412565b6040516106519190614289565b60405180910390f35b34801561066657600080fd5b5061066f612456565b60405161067c9190614145565b60405180910390f35b34801561069157600080fd5b506106ac60048036038101906106a79190613ebf565b6127be565b005b3480156106ba57600080fd5b506106d560048036038101906106d09190613ebf565b6128f3565b6040516106e29190613e67565b60405180910390f35b3480156106f757600080fd5b50610712600480360381019061070d91906146a3565b612a05565b60405161071f9190613dbc565b60405180910390f35b6000634906490660e01b7bffffffffffffffffffffffffffffffffffffffffffffffffffffffff1916827bffffffffffffffffffffffffffffffffffffffffffffffffffffffff19161480610782575061078182612a99565b5b9050919050565b60606000805461079890614712565b80601f01602080910402602001604051908101604052809291908181526020018280546107c490614712565b80156108115780601f106107e657610100808354040283529160200191610811565b820191906000526020600020905b8154815290600101906020018083116107f457829003601f168201915b5050505050905090565b600061082682612b7b565b6004600083815260200190815260200160002060009054906101000a900473ffffffffffffffffffffffffffffffffffffffff169050919050565b600061086c82611735565b90508073ffffffffffffffffffffffffffffffffffffffff168373ffffffffffffffffffffffffffffffffffffffff16036108dc576040517f08c379a00000000000000000000000000000000000000000000000000000000081526004016108d3906147b5565b60405180910390fd5b8073ffffffffffffffffffffffffffffffffffffffff166108fb612bc6565b73ffffffffffffffffffffffffffffffffffffffff16148061092a575061092981610924612bc6565b612a05565b5b610969576040517f08c379a000000000000000000000000000000000000000000000000000000000815260040161096090614847565b60405180910390fd5b6109738383612bce565b505050565b606060006109866008612c87565b905060006109946009612c87565b61099e6008612c87565b6109a89190614896565b90506000808267ffffffffffffffff8111156109c7576109c66143e5565b5b604051908082528060200260200182016040528015610a0057816020015b6109ed613c73565b8152602001906001900390816109e55790505b50905060005b84811015610c51573073ffffffffffffffffffffffffffffffffffffffff16600d6000600184610a3691906148ca565b815260200190815260200160002060030160009054906101000a900473ffffffffffffffffffffffffffffffffffffffff1673ffffffffffffffffffffffffffffffffffffffff1603610c3e576000600182610a9291906148ca565b90506000600d600083815260200190815260200160002090508060405180610100016040529081600082015481526020016001820160009054906101000a900473ffffffffffffffffffffffffffffffffffffffff1673ffffffffffffffffffffffffffffffffffffffff1673ffffffffffffffffffffffffffffffffffffffff1681526020016002820160009054906101000a900473ffffffffffffffffffffffffffffffffffffffff1673ffffffffffffffffffffffffffffffffffffffff1673ffffffffffffffffffffffffffffffffffffffff1681526020016003820160009054906101000a900473ffffffffffffffffffffffffffffffffffffffff1673ffffffffffffffffffffffffffffffffffffffff1673ffffffffffffffffffffffffffffffffffffffff16815260200160048201548152602001600582015481526020016006820160009054906101000a900460ff161515151581526020016006820160019054906101000a900460ff161515151581525050848681518110610c2157610c206148fe565b5b6020026020010181905250600185610c3991906148ca565b945050505b8080610c499061492d565b915050610a06565b508094505050505090565b80600c60006101000a81548173ffffffffffffffffffffffffffffffffffffffff021916908373ffffffffffffffffffffffffffffffffffffffff16021790555050565b610cb1610cab612bc6565b82612c95565b610cf0576040517f08c379a0000000000000000000000000000000000000000000000000000000008152600401610ce7906149e7565b60405180910390fd5b610cfb838383612d2a565b505050565b600b60009054906101000a900473ffffffffffffffffffffffffffffffffffffffff1673ffffffffffffffffffffffffffffffffffffffff163373ffffffffffffffffffffffffffffffffffffffff1614610d90576040517f08c379a0000000000000000000000000000000000000000000000000000000008152600401610d8790614a79565b60405180910390fd5b600047905060008111610dd8576040517f08c379a0000000000000000000000000000000000000000000000000000000008152600401610dcf90614ae5565b60405180910390fd5b6000600b60009054906101000a900473ffffffffffffffffffffffffffffffffffffffff1673ffffffffffffffffffffffffffffffffffffffff1682604051610e2090614b36565b60006040518083038185875af1925050503d8060008114610e5d576040519150601f19603f3d011682016040523d82523d6000602084013e610e62565b606091505b5050905080610ea6576040517f08c379a0000000000000000000000000000000000000000000000000000000008152600401610e9d90614b97565b60405180910390fd5b7f6141b54b56b8a52a8c6f5cd2a857f6117b18ffbf4d46bd3106f300a839cbf5ea8233604051610ed7929190614bb7565b60405180910390a15050565b610f056040518060600160405280602481526020016159a86024913933613023565b60008111610f48576040517f08c379a0000000000000000000000000000000000000000000000000000000008152600401610f3f90614c2c565b60405180910390fd5b600a543414610f8c576040517f08c379a0000000000000000000000000000000000000000000000000000000008152600401610f8390614c98565b60405180910390fd5b6040518061010001604052808481526020013373ffffffffffffffffffffffffffffffffffffffff1681526020013373ffffffffffffffffffffffffffffffffffffffff1681526020013073ffffffffffffffffffffffffffffffffffffffff16815260200183815260200182815260200160001515815260200160001515815250600d60008581526020019081526020016000206000820151816000015560208201518160010160006101000a81548173ffffffffffffffffffffffffffffffffffffffff021916908373ffffffffffffffffffffffffffffffffffffffff16021790555060408201518160020160006101000a81548173ffffffffffffffffffffffffffffffffffffffff021916908373ffffffffffffffffffffffffffffffffffffffff16021790555060608201518160030160006101000a81548173ffffffffffffffffffffffffffffffffffffffff021916908373ffffffffffffffffffffffffffffffffffffffff1602179055506080820151816004015560a0820151816005015560c08201518160060160006101000a81548160ff02191690831515021790555060e08201518160060160016101000a81548160ff021916908315150217905550905050611162333085612d2a565b827f6be207084465b1afd1fb9af05976e6d285e34a16bc67aaa8e62ebbbf7c406aac3333600086866000806040516111a09796959493929190614cb8565b60405180910390a2505050565b6111c8838383604051806020016040528060008152506121ce565b505050565b606060006111db6008612c87565b905060008060005b83811015611283573373ffffffffffffffffffffffffffffffffffffffff16600d600060018461121391906148ca565b815260200190815260200160002060020160009054906101000a900473ffffffffffffffffffffffffffffffffffffffff1673ffffffffffffffffffffffffffffffffffffffff16036112705760018361126d91906148ca565b92505b808061127b9061492d565b9150506111e3565b5060008267ffffffffffffffff8111156112a05761129f6143e5565b5b6040519080825280602002602001820160405280156112d957816020015b6112c6613c73565b8152602001906001900390816112be5790505b50905060005b8481101561152a573373ffffffffffffffffffffffffffffffffffffffff16600d600060018461130f91906148ca565b815260200190815260200160002060020160009054906101000a900473ffffffffffffffffffffffffffffffffffffffff1673ffffffffffffffffffffffffffffffffffffffff160361151757600060018261136b91906148ca565b90506000600d600083815260200190815260200160002090508060405180610100016040529081600082015481526020016001820160009054906101000a900473ffffffffffffffffffffffffffffffffffffffff1673ffffffffffffffffffffffffffffffffffffffff1673ffffffffffffffffffffffffffffffffffffffff1681526020016002820160009054906101000a900473ffffffffffffffffffffffffffffffffffffffff1673ffffffffffffffffffffffffffffffffffffffff1673ffffffffffffffffffffffffffffffffffffffff1681526020016003820160009054906101000a900473ffffffffffffffffffffffffffffffffffffffff1673ffffffffffffffffffffffffffffffffffffffff1673ffffffffffffffffffffffffffffffffffffffff16815260200160048201548152602001600582015481526020016006820160009054906101000a900460ff161515151581526020016006820160019054906101000a900460ff1615151515815250508486815181106114fa576114f96148fe565b5b602002602001018190525060018561151291906148ca565b945050505b80806115229061492d565b9150506112df565b508094505050505090565b600073ffffffffffffffffffffffffffffffffffffffff16600d600084815260200190815260200160002060030160009054906101000a900473ffffffffffffffffffffffffffffffffffffffff1673ffffffffffffffffffffffffffffffffffffffff16036115da576040517f08c379a00000000000000000000000000000000000000000000000000000000081526004016115d190614d99565b60405180910390fd5b3373ffffffffffffffffffffffffffffffffffffffff16600d600084815260200190815260200160002060020160009054906101000a900473ffffffffffffffffffffffffffffffffffffffff1673ffffffffffffffffffffffffffffffffffffffff161461167e576040517f08c379a000000000000000000000000000000000000000000000000000000000815260040161167590614e05565b60405180910390fd5b600081116116c1576040517f08c379a00000000000000000000000000000000000000000000000000000000081526004016116b890614e71565b60405180910390fd5b80600d6000848152602001908152602001600020600501819055506117316040518060400160405280601581526020017f55706461746564206d61726b6574206974656d3a200000000000000000000000815250600d6000858152602001908152602001600020600501546130bf565b5050565b6000806117418361315b565b9050600073ffffffffffffffffffffffffffffffffffffffff168173ffffffffffffffffffffffffffffffffffffffff16036117b2576040517f08c379a00000000000000000000000000000000000000000000000000000000081526004016117a990614edd565b60405180910390fd5b80915050919050565b60008073ffffffffffffffffffffffffffffffffffffffff168273ffffffffffffffffffffffffffffffffffffffff160361182b576040517f08c379a000000000000000000000000000000000000000000000000000000000815260040161182290614f6f565b60405180910390fd5b600360008373ffffffffffffffffffffffffffffffffffffffff1673ffffffffffffffffffffffffffffffffffffffff168152602001908152602001600020549050919050565b6118b06040518060400160405280601981526020017f526573656c6c206d61726b6574206974656d2063616c6c656400000000000000815250613198565b3373ffffffffffffffffffffffffffffffffffffffff16600d600085815260200190815260200160002060030160009054906101000a900473ffffffffffffffffffffffffffffffffffffffff1673ffffffffffffffffffffffffffffffffffffffff16148061196d5750600c60009054906101000a900473ffffffffffffffffffffffffffffffffffffffff1673ffffffffffffffffffffffffffffffffffffffff163373ffffffffffffffffffffffffffffffffffffffff16145b6119ac576040517f08c379a00000000000000000000000000000000000000000000000000000000081526004016119a390614fdb565b60405180910390fd5b600c60009054906101000a900473ffffffffffffffffffffffffffffffffffffffff1673ffffffffffffffffffffffffffffffffffffffff163373ffffffffffffffffffffffffffffffffffffffff1603611a31576001600d600085815260200190815260200160002060060160006101000a81548160ff0219169083151502179055505b6000600d600085815260200190815260200160002060060160016101000a81548160ff02191690831515021790555081600d60008581526020019081526020016000206005018190555033600d600085815260200190815260200160002060020160006101000a81548173ffffffffffffffffffffffffffffffffffffffff021916908373ffffffffffffffffffffffffffffffffffffffff16021790555030600d600085815260200190815260200160002060030160006101000a81548173ffffffffffffffffffffffffffffffffffffffff021916908373ffffffffffffffffffffffffffffffffffffffff1602179055506000611b316009612c87565b1115611b4257611b416009613231565b5b611b4d813085612d2a565b611b8b6040518060400160405280601981526020017f526573656c6c207472616e736665722073756363656564656400000000000000815250613198565b505050565b3073ffffffffffffffffffffffffffffffffffffffff166342842e0e3083856040518463ffffffff1660e01b8152600401611bcd93929190614ffb565b600060405180830381600087803b158015611be757600080fd5b505af1158015611bfb573d6000803e3d6000fd5b5050505080600d600084815260200190815260200160002060030160006101000a81548173ffffffffffffffffffffffffffffffffffffffff021916908373ffffffffffffffffffffffffffffffffffffffff1602179055506001600d600084815260200190815260200160002060060160016101000a81548160ff0219169083151502179055507f20665ee57a5e13af162123968d777ccebe86531a21e53d08afc78138a950192d8282604051611cb4929190614bb7565b60405180910390a15050565b600080600d600084815260200190815260200160002060405180610100016040529081600082015481526020016001820160009054906101000a900473ffffffffffffffffffffffffffffffffffffffff1673ffffffffffffffffffffffffffffffffffffffff1673ffffffffffffffffffffffffffffffffffffffff1681526020016002820160009054906101000a900473ffffffffffffffffffffffffffffffffffffffff1673ffffffffffffffffffffffffffffffffffffffff1673ffffffffffffffffffffffffffffffffffffffff1681526020016003820160009054906101000a900473ffffffffffffffffffffffffffffffffffffffff1673ffffffffffffffffffffffffffffffffffffffff1673ffffffffffffffffffffffffffffffffffffffff16815260200160048201548152602001600582015481526020016006820160009054906101000a900460ff161515151581526020016006820160019054906101000a900460ff16151515158152505090508060a00151915050919050565b606060018054611e5690614712565b80601f0160208091040260200160405190810160405280929190818152602001828054611e8290614712565b8015611ecf5780601f10611ea457610100808354040283529160200191611ecf565b820191906000526020600020905b815481529060010190602001808311611eb257829003601f168201915b5050505050905090565b60008290508073ffffffffffffffffffffffffffffffffffffffff1663b9a2de3a836040518263ffffffff1660e01b8152600401611f179190614289565b600060405180830381600087803b158015611f3157600080fd5b505af1158015611f45573d6000803e3d6000fd5b50505050505050565b611f60611f59612bc6565b838361328d565b5050565b6000806000600d600085815260200190815260200160002060405180610100016040529081600082015481526020016001820160009054906101000a900473ffffffffffffffffffffffffffffffffffffffff1673ffffffffffffffffffffffffffffffffffffffff1673ffffffffffffffffffffffffffffffffffffffff1681526020016002820160009054906101000a900473ffffffffffffffffffffffffffffffffffffffff1673ffffffffffffffffffffffffffffffffffffffff1673ffffffffffffffffffffffffffffffffffffffff1681526020016003820160009054906101000a900473ffffffffffffffffffffffffffffffffffffffff1673ffffffffffffffffffffffffffffffffffffffff1673ffffffffffffffffffffffffffffffffffffffff16815260200160048201548152602001600582015481526020016006820160009054906101000a900460ff161515151581526020016006820160019054906101000a900460ff1615151515815250509050806080015181602001519250925050915091565b6000600d600083815260200190815260200160002060020160009054906101000a900473ffffffffffffffffffffffffffffffffffffffff169050919050565b600b60009054906101000a900473ffffffffffffffffffffffffffffffffffffffff1673ffffffffffffffffffffffffffffffffffffffff163373ffffffffffffffffffffffffffffffffffffffff16146121c4576040517f08c379a00000000000000000000000000000000000000000000000000000000081526004016121bb90614a79565b60405180910390fd5b80600a8190555050565b6121df6121d9612bc6565b83612c95565b61221e576040517f08c379a0000000000000000000000000000000000000000000000000000000008152600401612215906149e7565b60405180910390fd5b61222a848484846133f9565b50505050565b6000600d600083815260200190815260200160002060050154905080341461228d576040517f08c379a0000000000000000000000000000000000000000000000000000000008152600401612284906150a4565b60405180910390fd5b33600d600084815260200190815260200160002060030160006101000a81548173ffffffffffffffffffffffffffffffffffffffff021916908373ffffffffffffffffffffffffffffffffffffffff1602179055506001600d600084815260200190815260200160002060060160016101000a81548160ff02191690831515021790555061231b6009613455565b612326303384612d2a565b600b60009054906101000a900473ffffffffffffffffffffffffffffffffffffffff1673ffffffffffffffffffffffffffffffffffffffff166108fc600a549081150290604051600060405180830381858888f19350505050158015612390573d6000803e3d6000fd5b50600d600083815260200190815260200160002060020160009054906101000a900473ffffffffffffffffffffffffffffffffffffffff1673ffffffffffffffffffffffffffffffffffffffff166108fc349081150290604051600060405180830381858888f1935050505015801561240d573d6000803e3d6000fd5b505050565b600061241e6008613455565b600061242a6008612c87565b9050612436338261346b565b6124408186613688565b61244b818585610ee3565b809150509392505050565b606060006124646008612c87565b905060008060005b8381101561250c573373ffffffffffffffffffffffffffffffffffffffff16600d600060018461249c91906148ca565b815260200190815260200160002060030160009054906101000a900473ffffffffffffffffffffffffffffffffffffffff1673ffffffffffffffffffffffffffffffffffffffff16036124f9576001836124f691906148ca565b92505b80806125049061492d565b91505061246c565b5060008267ffffffffffffffff811115612529576125286143e5565b5b60405190808252806020026020018201604052801561256257816020015b61254f613c73565b8152602001906001900390816125475790505b50905060005b848110156127b3573373ffffffffffffffffffffffffffffffffffffffff16600d600060018461259891906148ca565b815260200190815260200160002060030160009054906101000a900473ffffffffffffffffffffffffffffffffffffffff1673ffffffffffffffffffffffffffffffffffffffff16036127a05760006001826125f491906148ca565b90506000600d600083815260200190815260200160002090508060405180610100016040529081600082015481526020016001820160009054906101000a900473ffffffffffffffffffffffffffffffffffffffff1673ffffffffffffffffffffffffffffffffffffffff1673ffffffffffffffffffffffffffffffffffffffff1681526020016002820160009054906101000a900473ffffffffffffffffffffffffffffffffffffffff1673ffffffffffffffffffffffffffffffffffffffff1673ffffffffffffffffffffffffffffffffffffffff1681526020016003820160009054906101000a900473ffffffffffffffffffffffffffffffffffffffff1673ffffffffffffffffffffffffffffffffffffffff1673ffffffffffffffffffffffffffffffffffffffff16815260200160048201548152602001600582015481526020016006820160009054906101000a900460ff161515151581526020016006820160019054906101000a900460ff161515151581525050848681518110612783576127826148fe565b5b602002602001018190525060018561279b91906148ca565b945050505b80806127ab9061492d565b915050612568565b508094505050505090565b600d600082815260200190815260200160002060020160009054906101000a900473ffffffffffffffffffffffffffffffffffffffff1673ffffffffffffffffffffffffffffffffffffffff163373ffffffffffffffffffffffffffffffffffffffff1614612862576040517f08c379a000000000000000000000000000000000000000000000000000000000815260040161285990615110565b60405180910390fd5b33600d600083815260200190815260200160002060030160006101000a81548173ffffffffffffffffffffffffffffffffffffffff021916908373ffffffffffffffffffffffffffffffffffffffff1602179055506001600d600083815260200190815260200160002060060160016101000a81548160ff0219169083151502179055506128f06009613455565b50565b60606128fe82612b7b565b600060066000848152602001908152602001600020805461291e90614712565b80601f016020809104026020016040519081016040528092919081815260200182805461294a90614712565b80156129975780601f1061296c57610100808354040283529160200191612997565b820191906000526020600020905b81548152906001019060200180831161297a57829003601f168201915b5050505050905060006129a861372c565b905060008151036129bd578192505050612a00565b6000825111156129f25780826040516020016129da92919061516c565b60405160208183030381529060405292505050612a00565b6129fb84613743565b925050505b919050565b6000600560008473ffffffffffffffffffffffffffffffffffffffff1673ffffffffffffffffffffffffffffffffffffffff16815260200190815260200160002060008373ffffffffffffffffffffffffffffffffffffffff1673ffffffffffffffffffffffffffffffffffffffff16815260200190815260200160002060009054906101000a900460ff16905092915050565b60007f80ac58cd000000000000000000000000000000000000000000000000000000007bffffffffffffffffffffffffffffffffffffffffffffffffffffffff1916827bffffffffffffffffffffffffffffffffffffffffffffffffffffffff19161480612b6457507f5b5e139f000000000000000000000000000000000000000000000000000000007bffffffffffffffffffffffffffffffffffffffffffffffffffffffff1916827bffffffffffffffffffffffffffffffffffffffffffffffffffffffff1916145b80612b745750612b73826137ab565b5b9050919050565b612b8481613815565b612bc3576040517f08c379a0000000000000000000000000000000000000000000000000000000008152600401612bba90614edd565b60405180910390fd5b50565b600033905090565b816004600083815260200190815260200160002060006101000a81548173ffffffffffffffffffffffffffffffffffffffff021916908373ffffffffffffffffffffffffffffffffffffffff160217905550808273ffffffffffffffffffffffffffffffffffffffff16612c4183611735565b73ffffffffffffffffffffffffffffffffffffffff167f8c5be1e5ebec7d5bd14f71427d1e84f3dd0314c0f7b2291e5b200ac8c7c3b92560405160405180910390a45050565b600081600001549050919050565b600080612ca183611735565b90508073ffffffffffffffffffffffffffffffffffffffff168473ffffffffffffffffffffffffffffffffffffffff161480612ce35750612ce28185612a05565b5b80612d2157508373ffffffffffffffffffffffffffffffffffffffff16612d098461081b565b73ffffffffffffffffffffffffffffffffffffffff16145b91505092915050565b8273ffffffffffffffffffffffffffffffffffffffff16612d4a82611735565b73ffffffffffffffffffffffffffffffffffffffff1614612da0576040517f08c379a0000000000000000000000000000000000000000000000000000000008152600401612d9790615202565b60405180910390fd5b600073ffffffffffffffffffffffffffffffffffffffff168273ffffffffffffffffffffffffffffffffffffffff1603612e0f576040517f08c379a0000000000000000000000000000000000000000000000000000000008152600401612e0690615294565b60405180910390fd5b612e1c8383836001613856565b8273ffffffffffffffffffffffffffffffffffffffff16612e3c82611735565b73ffffffffffffffffffffffffffffffffffffffff1614612e92576040517f08c379a0000000000000000000000000000000000000000000000000000000008152600401612e8990615202565b60405180910390fd5b6004600082815260200190815260200160002060006101000a81549073ffffffffffffffffffffffffffffffffffffffff02191690556001600360008573ffffffffffffffffffffffffffffffffffffffff1673ffffffffffffffffffffffffffffffffffffffff168152602001908152602001600020600082825403925050819055506001600360008473ffffffffffffffffffffffffffffffffffffffff1673ffffffffffffffffffffffffffffffffffffffff16815260200190815260200160002060008282540192505081905550816002600083815260200190815260200160002060006101000a81548173ffffffffffffffffffffffffffffffffffffffff021916908373ffffffffffffffffffffffffffffffffffffffff160217905550808273ffffffffffffffffffffffffffffffffffffffff168473ffffffffffffffffffffffffffffffffffffffff167fddf252ad1be2c89b69c2b068fc378daa952ba7f163c4a11628f55a4df523b3ef60405160405180910390a461301e838383600161385c565b505050565b6130bb82826040516024016130399291906152b4565b6040516020818303038152906040527f319af333000000000000000000000000000000000000000000000000000000007bffffffffffffffffffffffffffffffffffffffffffffffffffffffff19166020820180517bffffffffffffffffffffffffffffffffffffffffffffffffffffffff8381831617835250505050613862565b5050565b61315782826040516024016130d59291906152e4565b6040516020818303038152906040527fb60e72cc000000000000000000000000000000000000000000000000000000007bffffffffffffffffffffffffffffffffffffffffffffffffffffffff19166020820180517bffffffffffffffffffffffffffffffffffffffffffffffffffffffff8381831617835250505050613862565b5050565b60006002600083815260200190815260200160002060009054906101000a900473ffffffffffffffffffffffffffffffffffffffff169050919050565b61322e816040516024016131ac9190613e67565b6040516020818303038152906040527f41304fac000000000000000000000000000000000000000000000000000000007bffffffffffffffffffffffffffffffffffffffffffffffffffffffff19166020820180517bffffffffffffffffffffffffffffffffffffffffffffffffffffffff8381831617835250505050613862565b50565b6000816000015490506000811161327d576040517f08c379a000000000000000000000000000000000000000000000000000000000815260040161327490615360565b60405180910390fd5b6001810382600001819055505050565b8173ffffffffffffffffffffffffffffffffffffffff168373ffffffffffffffffffffffffffffffffffffffff16036132fb576040517f08c379a00000000000000000000000000000000000000000000000000000000081526004016132f2906153cc565b60405180910390fd5b80600560008573ffffffffffffffffffffffffffffffffffffffff1673ffffffffffffffffffffffffffffffffffffffff16815260200190815260200160002060008473ffffffffffffffffffffffffffffffffffffffff1673ffffffffffffffffffffffffffffffffffffffff16815260200190815260200160002060006101000a81548160ff0219169083151502179055508173ffffffffffffffffffffffffffffffffffffffff168373ffffffffffffffffffffffffffffffffffffffff167f17307eab39ab6107e8899845ad3d59bd9653f200f220920489ca2b5937696c31836040516133ec9190613dbc565b60405180910390a3505050565b613404848484612d2a565b6134108484848461387c565b61344f576040517f08c379a00000000000000000000000000000000000000000000000000000000081526004016134469061545e565b60405180910390fd5b50505050565b6001816000016000828254019250508190555050565b600073ffffffffffffffffffffffffffffffffffffffff168273ffffffffffffffffffffffffffffffffffffffff16036134da576040517f08c379a00000000000000000000000000000000000000000000000000000000081526004016134d1906154ca565b60405180910390fd5b6134e381613815565b15613523576040517f08c379a000000000000000000000000000000000000000000000000000000000815260040161351a90615536565b60405180910390fd5b613531600083836001613856565b61353a81613815565b1561357a576040517f08c379a000000000000000000000000000000000000000000000000000000000815260040161357190615536565b60405180910390fd5b6001600360008473ffffffffffffffffffffffffffffffffffffffff1673ffffffffffffffffffffffffffffffffffffffff16815260200190815260200160002060008282540192505081905550816002600083815260200190815260200160002060006101000a81548173ffffffffffffffffffffffffffffffffffffffff021916908373ffffffffffffffffffffffffffffffffffffffff160217905550808273ffffffffffffffffffffffffffffffffffffffff16600073ffffffffffffffffffffffffffffffffffffffff167fddf252ad1be2c89b69c2b068fc378daa952ba7f163c4a11628f55a4df523b3ef60405160405180910390a461368460008383600161385c565b5050565b61369182613815565b6136d0576040517f08c379a00000000000000000000000000000000000000000000000000000000081526004016136c7906155c8565b60405180910390fd5b806006600084815260200190815260200160002090816136f09190615794565b507ff8e1a15aba9398e019f0b49df1a4fde98ee17ae345cb5f6b5e2c27f5033e8ce7826040516137209190614289565b60405180910390a15050565b606060405180602001604052806000815250905090565b606061374e82612b7b565b600061375861372c565b9050600081511161377857604051806020016040528060008152506137a3565b8061378284613a03565b60405160200161379392919061516c565b6040516020818303038152906040525b915050919050565b60007f01ffc9a7000000000000000000000000000000000000000000000000000000007bffffffffffffffffffffffffffffffffffffffffffffffffffffffff1916827bffffffffffffffffffffffffffffffffffffffffffffffffffffffff1916149050919050565b60008073ffffffffffffffffffffffffffffffffffffffff166138378361315b565b73ffffffffffffffffffffffffffffffffffffffff1614159050919050565b50505050565b50505050565b61387981613871613ad1613af2565b63ffffffff16565b50565b600061389d8473ffffffffffffffffffffffffffffffffffffffff16613afd565b156139f6578373ffffffffffffffffffffffffffffffffffffffff1663150b7a026138c6612bc6565b8786866040518563ffffffff1660e01b81526004016138e894939291906158bb565b6020604051808303816000875af192505050801561392457506040513d601f19601f82011682018060405250810190613921919061591c565b60015b6139a6573d8060008114613954576040519150601f19603f3d011682016040523d82523d6000602084013e613959565b606091505b50600081510361399e576040517f08c379a00000000000000000000000000000000000000000000000000000000081526004016139959061545e565b60405180910390fd5b805181602001fd5b63150b7a0260e01b7bffffffffffffffffffffffffffffffffffffffffffffffffffffffff1916817bffffffffffffffffffffffffffffffffffffffffffffffffffffffff1916149150506139fb565b600190505b949350505050565b606060006001613a1284613b20565b01905060008167ffffffffffffffff811115613a3157613a306143e5565b5b6040519080825280601f01601f191660200182016040528015613a635781602001600182028036833780820191505090505b509050600082602001820190505b600115613ac6578080600190039150507f3031323334353637383961626364656600000000000000000000000000000000600a86061a8153600a8581613aba57613ab9615949565b5b04945060008503613a71575b819350505050919050565b60006a636f6e736f6c652e6c6f679050600080835160208501845afa505050565b613cfe819050919050565b6000808273ffffffffffffffffffffffffffffffffffffffff163b119050919050565b600080600090507a184f03e93ff9f4daa797ed6e38ed64bf6a1f0100000000000000008310613b7e577a184f03e93ff9f4daa797ed6e38ed64bf6a1f0100000000000000008381613b7457613b73615949565b5b0492506040810190505b6d04ee2d6d415b85acef81000000008310613bbb576d04ee2d6d415b85acef81000000008381613bb157613bb0615949565b5b0492506020810190505b662386f26fc100008310613bea57662386f26fc100008381613be057613bdf615949565b5b0492506010810190505b6305f5e1008310613c13576305f5e1008381613c0957613c08615949565b5b0492506008810190505b6127108310613c38576127108381613c2e57613c2d615949565b5b0492506004810190505b60648310613c5b5760648381613c5157613c50615949565b5b0492506002810190505b600a8310613c6a576001810190505b80915050919050565b60405180610100016040528060008152602001600073ffffffffffffffffffffffffffffffffffffffff168152602001600073ffffffffffffffffffffffffffffffffffffffff168152602001600073ffffffffffffffffffffffffffffffffffffffff16815260200160008152602001600081526020016000151581526020016000151581525090565b613d06615978565b565b6000604051905090565b600080fd5b600080fd5b60007fffffffff0000000000000000000000000000000000000000000000000000000082169050919050565b613d5181613d1c565b8114613d5c57600080fd5b50565b600081359050613d6e81613d48565b92915050565b600060208284031215613d8a57613d89613d12565b5b6000613d9884828501613d5f565b91505092915050565b60008115159050919050565b613db681613da1565b82525050565b6000602082019050613dd16000830184613dad565b92915050565b600081519050919050565b600082825260208201905092915050565b60005b83811015613e11578082015181840152602081019050613df6565b60008484015250505050565b6000601f19601f8301169050919050565b6000613e3982613dd7565b613e438185613de2565b9350613e53818560208601613df3565b613e5c81613e1d565b840191505092915050565b60006020820190508181036000830152613e818184613e2e565b905092915050565b6000819050919050565b613e9c81613e89565b8114613ea757600080fd5b50565b600081359050613eb981613e93565b92915050565b600060208284031215613ed557613ed4613d12565b5b6000613ee384828501613eaa565b91505092915050565b600073ffffffffffffffffffffffffffffffffffffffff82169050919050565b6000613f1782613eec565b9050919050565b613f2781613f0c565b82525050565b6000602082019050613f426000830184613f1e565b92915050565b613f5181613f0c565b8114613f5c57600080fd5b50565b600081359050613f6e81613f48565b92915050565b60008060408385031215613f8b57613f8a613d12565b5b6000613f9985828601613f5f565b9250506020613faa85828601613eaa565b9150509250929050565b600081519050919050565b600082825260208201905092915050565b6000819050602082019050919050565b613fe981613e89565b82525050565b6000613ffa82613eec565b9050919050565b61400a81613fef565b82525050565b61401981613da1565b82525050565b610100820160008201516140366000850182613fe0565b5060208201516140496020850182614001565b50604082015161405c6040850182614001565b50606082015161406f6060850182614001565b5060808201516140826080850182613fe0565b5060a082015161409560a0850182613fe0565b5060c08201516140a860c0850182614010565b5060e08201516140bb60e0850182614010565b50505050565b60006140cd838361401f565b6101008301905092915050565b6000602082019050919050565b60006140f282613fb4565b6140fc8185613fbf565b935061410783613fd0565b8060005b8381101561413857815161411f88826140c1565b975061412a836140da565b92505060018101905061410b565b5085935050505092915050565b6000602082019050818103600083015261415f81846140e7565b905092915050565b60006020828403121561417d5761417c613d12565b5b600061418b84828501613f5f565b91505092915050565b6000806000606084860312156141ad576141ac613d12565b5b60006141bb86828701613f5f565b93505060206141cc86828701613f5f565b92505060406141dd86828701613eaa565b9150509250925092565b600080600060608486031215614200576141ff613d12565b5b600061420e86828701613eaa565b935050602061421f86828701613eaa565b925050604061423086828701613eaa565b9150509250925092565b6000806040838503121561425157614250613d12565b5b600061425f85828601613eaa565b925050602061427085828601613eaa565b9150509250929050565b61428381613e89565b82525050565b600060208201905061429e600083018461427a565b92915050565b6000806000606084860312156142bd576142bc613d12565b5b60006142cb86828701613eaa565b93505060206142dc86828701613eaa565b92505060406142ed86828701613f5f565b9150509250925092565b6000806040838503121561430e5761430d613d12565b5b600061431c85828601613eaa565b925050602061432d85828601613f5f565b9150509250929050565b61434081613da1565b811461434b57600080fd5b50565b60008135905061435d81614337565b92915050565b6000806040838503121561437a57614379613d12565b5b600061438885828601613f5f565b92505060206143998582860161434e565b9150509250929050565b6143ac81613fef565b82525050565b60006040820190506143c7600083018561427a565b6143d460208301846143a3565b9392505050565b600080fd5b600080fd5b7f4e487b7100000000000000000000000000000000000000000000000000000000600052604160045260246000fd5b61441d82613e1d565b810181811067ffffffffffffffff8211171561443c5761443b6143e5565b5b80604052505050565b600061444f613d08565b905061445b8282614414565b919050565b600067ffffffffffffffff82111561447b5761447a6143e5565b5b61448482613e1d565b9050602081019050919050565b82818337600083830152505050565b60006144b36144ae84614460565b614445565b9050828152602081018484840111156144cf576144ce6143e0565b5b6144da848285614491565b509392505050565b600082601f8301126144f7576144f66143db565b5b81356145078482602086016144a0565b91505092915050565b6000806000806080858703121561452a57614529613d12565b5b600061453887828801613f5f565b945050602061454987828801613f5f565b935050604061455a87828801613eaa565b925050606085013567ffffffffffffffff81111561457b5761457a613d17565b5b614587878288016144e2565b91505092959194509250565b600067ffffffffffffffff8211156145ae576145ad6143e5565b5b6145b782613e1d565b9050602081019050919050565b60006145d76145d284614593565b614445565b9050828152602081018484840111156145f3576145f26143e0565b5b6145fe848285614491565b509392505050565b600082601f83011261461b5761461a6143db565b5b813561462b8482602086016145c4565b91505092915050565b60008060006060848603121561464d5761464c613d12565b5b600084013567ffffffffffffffff81111561466b5761466a613d17565b5b61467786828701614606565b935050602061468886828701613eaa565b925050604061469986828701613eaa565b9150509250925092565b600080604083850312156146ba576146b9613d12565b5b60006146c885828601613f5f565b92505060206146d985828601613f5f565b9150509250929050565b7f4e487b7100000000000000000000000000000000000000000000000000000000600052602260045260246000fd5b6000600282049050600182168061472a57607f821691505b60208210810361473d5761473c6146e3565b5b50919050565b7f4552433732313a20617070726f76616c20746f2063757272656e74206f776e6560008201527f7200000000000000000000000000000000000000000000000000000000000000602082015250565b600061479f602183613de2565b91506147aa82614743565b604082019050919050565b600060208201905081810360008301526147ce81614792565b9050919050565b7f4552433732313a20617070726f76652063616c6c6572206973206e6f7420746f60008201527f6b656e206f776e6572206f7220617070726f76656420666f7220616c6c000000602082015250565b6000614831603d83613de2565b915061483c826147d5565b604082019050919050565b6000602082019050818103600083015261486081614824565b9050919050565b7f4e487b7100000000000000000000000000000000000000000000000000000000600052601160045260246000fd5b60006148a182613e89565b91506148ac83613e89565b92508282039050818111156148c4576148c3614867565b5b92915050565b60006148d582613e89565b91506148e083613e89565b92508282019050808211156148f8576148f7614867565b5b92915050565b7f4e487b7100000000000000000000000000000000000000000000000000000000600052603260045260246000fd5b600061493882613e89565b91507fffffffffffffffffffffffffffffffffffffffffffffffffffffffffffffffff820361496a57614969614867565b5b600182019050919050565b7f4552433732313a2063616c6c6572206973206e6f7420746f6b656e206f776e6560008201527f72206f7220617070726f76656400000000000000000000000000000000000000602082015250565b60006149d1602d83613de2565b91506149dc82614975565b604082019050919050565b60006020820190508181036000830152614a00816149c4565b9050919050565b7f6f6e6c79206f776e6572206f662074686520636f6e74726163742063616e207560008201527f706461746520746865206c697374696e67207072696365000000000000000000602082015250565b6000614a63603783613de2565b9150614a6e82614a07565b604082019050919050565b60006020820190508181036000830152614a9281614a56565b9050919050565b7f4e6f2066756e647320746f207769746864726177000000000000000000000000600082015250565b6000614acf601483613de2565b9150614ada82614a99565b602082019050919050565b60006020820190508181036000830152614afe81614ac2565b9050919050565b600081905092915050565b50565b6000614b20600083614b05565b9150614b2b82614b10565b600082019050919050565b6000614b4182614b13565b9150819050919050565b7f4661696c656420746f2077697468647261772066756e64730000000000000000600082015250565b6000614b81601883613de2565b9150614b8c82614b4b565b602082019050919050565b60006020820190508181036000830152614bb081614b74565b9050919050565b6000604082019050614bcc600083018561427a565b614bd96020830184613f1e565b9392505050565b7f5072696365206d757374206265206174206c6561737420312077656900000000600082015250565b6000614c16601c83613de2565b9150614c2182614be0565b602082019050919050565b60006020820190508181036000830152614c4581614c09565b9050919050565b7f5072696365206d757374206265207061696420696e2066756c6c000000000000600082015250565b6000614c82601a83613de2565b9150614c8d82614c4c565b602082019050919050565b60006020820190508181036000830152614cb181614c75565b9050919050565b600060e082019050614ccd600083018a613f1e565b614cda6020830189613f1e565b614ce76040830188613f1e565b614cf4606083018761427a565b614d01608083018661427a565b614d0e60a0830185613dad565b614d1b60c0830184613dad565b98975050505050505050565b7f4e465420646f6573206e6f7420657869737420696e206d61726b6574706c616360008201527f6500000000000000000000000000000000000000000000000000000000000000602082015250565b6000614d83602183613de2565b9150614d8e82614d27565b604082019050919050565b60006020820190508181036000830152614db281614d76565b9050919050565b7f43616c6c6572206973206e6f7420746865206f776e6572000000000000000000600082015250565b6000614def601783613de2565b9150614dfa82614db9565b602082019050919050565b60006020820190508181036000830152614e1e81614de2565b9050919050565b7f5072696365206d7573742062652067726561746572207468616e207a65726f00600082015250565b6000614e5b601f83613de2565b9150614e6682614e25565b602082019050919050565b60006020820190508181036000830152614e8a81614e4e565b9050919050565b7f4552433732313a20696e76616c696420746f6b656e2049440000000000000000600082015250565b6000614ec7601883613de2565b9150614ed282614e91565b602082019050919050565b60006020820190508181036000830152614ef681614eba565b9050919050565b7f4552433732313a2061646472657373207a65726f206973206e6f74206120766160008201527f6c6964206f776e65720000000000000000000000000000000000000000000000602082015250565b6000614f59602983613de2565b9150614f6482614efd565b604082019050919050565b60006020820190508181036000830152614f8881614f4c565b9050919050565b7f4f6e6c79206f776e65722063616e2072656c697374204e465400000000000000600082015250565b6000614fc5601983613de2565b9150614fd082614f8f565b602082019050919050565b60006020820190508181036000830152614ff481614fb8565b9050919050565b60006060820190506150106000830186613f1e565b61501d6020830185613f1e565b61502a604083018461427a565b949350505050565b7f506c65617365207375626d6974207468652061736b696e67207072696365206960008201527f6e206f7264657220746f20636f6d706c65746520746865207075726368617365602082015250565b600061508e604083613de2565b915061509982615032565b604082019050919050565b600060208201905081810360008301526150bd81615081565b9050919050565b7f4f6e6c7920746f6b656e2073656c6c65722063616e2064656c69737400000000600082015250565b60006150fa601c83613de2565b9150615105826150c4565b602082019050919050565b60006020820190508181036000830152615129816150ed565b9050919050565b600081905092915050565b600061514682613dd7565b6151508185615130565b9350615160818560208601613df3565b80840191505092915050565b6000615178828561513b565b9150615184828461513b565b91508190509392505050565b7f4552433732313a207472616e736665722066726f6d20696e636f72726563742060008201527f6f776e6572000000000000000000000000000000000000000000000000000000602082015250565b60006151ec602583613de2565b91506151f782615190565b604082019050919050565b6000602082019050818103600083015261521b816151df565b9050919050565b7f4552433732313a207472616e7366657220746f20746865207a65726f2061646460008201527f7265737300000000000000000000000000000000000000000000000000000000602082015250565b600061527e602483613de2565b915061528982615222565b604082019050919050565b600060208201905081810360008301526152ad81615271565b9050919050565b600060408201905081810360008301526152ce8185613e2e565b90506152dd6020830184613f1e565b9392505050565b600060408201905081810360008301526152fe8185613e2e565b905061530d602083018461427a565b9392505050565b7f436f756e7465723a2064656372656d656e74206f766572666c6f770000000000600082015250565b600061534a601b83613de2565b915061535582615314565b602082019050919050565b600060208201905081810360008301526153798161533d565b9050919050565b7f4552433732313a20617070726f766520746f2063616c6c657200000000000000600082015250565b60006153b6601983613de2565b91506153c182615380565b602082019050919050565b600060208201905081810360008301526153e5816153a9565b9050919050565b7f4552433732313a207472616e7366657220746f206e6f6e20455243373231526560008201527f63656976657220696d706c656d656e7465720000000000000000000000000000602082015250565b6000615448603283613de2565b9150615453826153ec565b604082019050919050565b600060208201905081810360008301526154778161543b565b9050919050565b7f4552433732313a206d696e7420746f20746865207a65726f2061646472657373600082015250565b60006154b4602083613de2565b91506154bf8261547e565b602082019050919050565b600060208201905081810360008301526154e3816154a7565b9050919050565b7f4552433732313a20746f6b656e20616c7265616479206d696e74656400000000600082015250565b6000615520601c83613de2565b915061552b826154ea565b602082019050919050565b6000602082019050818103600083015261554f81615513565b9050919050565b7f45524337323155524953746f726167653a2055524920736574206f66206e6f6e60008201527f6578697374656e7420746f6b656e000000000000000000000000000000000000602082015250565b60006155b2602e83613de2565b91506155bd82615556565b604082019050919050565b600060208201905081810360008301526155e1816155a5565b9050919050565b60008190508160005260206000209050919050565b60006020601f8301049050919050565b600082821b905092915050565b60006008830261564a7fffffffffffffffffffffffffffffffffffffffffffffffffffffffffffffffff8261560d565b615654868361560d565b95508019841693508086168417925050509392505050565b6000819050919050565b600061569161568c61568784613e89565b61566c565b613e89565b9050919050565b6000819050919050565b6156ab83615676565b6156bf6156b782615698565b84845461561a565b825550505050565b600090565b6156d46156c7565b6156df8184846156a2565b505050565b5b81811015615703576156f86000826156cc565b6001810190506156e5565b5050565b601f82111561574857615719816155e8565b615722846155fd565b81016020851015615731578190505b61574561573d856155fd565b8301826156e4565b50505b505050565b600082821c905092915050565b600061576b6000198460080261574d565b1980831691505092915050565b6000615784838361575a565b9150826002028217905092915050565b61579d82613dd7565b67ffffffffffffffff8111156157b6576157b56143e5565b5b6157c08254614712565b6157cb828285615707565b600060209050601f8311600181146157fe57600084156157ec578287015190505b6157f68582615778565b86555061585e565b601f19841661580c866155e8565b60005b828110156158345784890151825560018201915060208501945060208101905061580f565b86831015615851578489015161584d601f89168261575a565b8355505b6001600288020188555050505b505050505050565b600081519050919050565b600082825260208201905092915050565b600061588d82615866565b6158978185615871565b93506158a7818560208601613df3565b6158b081613e1d565b840191505092915050565b60006080820190506158d06000830187613f1e565b6158dd6020830186613f1e565b6158ea604083018561427a565b81810360608301526158fc8184615882565b905095945050505050565b60008151905061591681613d48565b92915050565b60006020828403121561593257615931613d12565b5b600061594084828501615907565b91505092915050565b7f4e487b7100000000000000000000000000000000000000000000000000000000600052601260045260246000fd5b7f4e487b7100000000000000000000000000000000000000000000000000000000600052605160045260246000fdfe437265617465204d61726b6574204974656d2046756e6374696f6e2043616c6c65723a20a264697066735822122089f5649830ad42a6b4879222a933fe7eb4774bf0f38ed24b3e1848a8f878354964736f6c63430008130033",
  "linkReferences": {},
  "deployedLinkReferences": {}
}