{
  "_format": "hh-sol-artifact-1",
  "contractName": "Marketplace",
  "sourceName": "contracts/Marketplace.sol",
  "abi": [
    {
      "inputs": [],
      "stateMutability": "nonpayable",
      "type": "constructor"
    },
    {
      "anonymous": false,
      "inputs": [
        {
          "indexed": true,
          "internalType": "address",
          "name": "owner",
          "type": "address"
        },
        {
          "indexed": true,
          "internalType": "address",
          "name": "approved",
          "type": "address"
        },
        {
          "indexed": true,
          "internalType": "uint256",
          "name": "tokenId",
          "type": "uint256"
        }
      ],
      "name": "Approval",
      "type": "event"
    },
    {
      "anonymous": false,
      "inputs": [
        {
          "indexed": true,
          "internalType": "address",
          "name": "owner",
          "type": "address"
        },
        {
          "indexed": true,
          "internalType": "address",
          "name": "operator",
          "type": "address"
        },
        {
          "indexed": false,
          "internalType": "bool",
          "name": "approved",
          "type": "bool"
        }
      ],
      "name": "ApprovalForAll",
      "type": "event"
    },
    {
      "anonymous": false,
      "inputs": [
        {
          "indexed": false,
          "internalType": "uint256",
          "name": "_fromTokenId",
          "type": "uint256"
        },
        {
          "indexed": false,
          "internalType": "uint256",
          "name": "_toTokenId",
          "type": "uint256"
        }
      ],
      "name": "BatchMetadataUpdate",
      "type": "event"
    },
    {
      "anonymous": false,
      "inputs": [
        {
          "indexed": false,
          "internalType": "uint256",
          "name": "amount",
          "type": "uint256"
        },
        {
          "indexed": false,
          "internalType": "address",
          "name": "targetWallet",
          "type": "address"
        }
      ],
      "name": "FundsWithdrawn",
      "type": "event"
    },
    {
      "anonymous": false,
      "inputs": [
        {
          "indexed": true,
          "internalType": "uint256",
          "name": "tokenId",
          "type": "uint256"
        },
        {
          "indexed": false,
          "internalType": "address",
          "name": "originalOwner",
          "type": "address"
        },
        {
          "indexed": false,
          "internalType": "address",
          "name": "seller",
          "type": "address"
        },
        {
          "indexed": false,
          "internalType": "address",
          "name": "owner",
          "type": "address"
        },
        {
          "indexed": false,
          "internalType": "uint256",
          "name": "royaltyPercentage",
          "type": "uint256"
        },
        {
          "indexed": false,
          "internalType": "uint256",
          "name": "price",
          "type": "uint256"
        },
        {
          "indexed": false,
          "internalType": "bool",
          "name": "auction",
          "type": "bool"
        },
        {
          "indexed": false,
          "internalType": "bool",
          "name": "sold",
          "type": "bool"
        }
      ],
      "name": "MarketItemCreated",
      "type": "event"
    },
    {
      "anonymous": false,
      "inputs": [
        {
          "indexed": false,
          "internalType": "uint256",
          "name": "_tokenId",
          "type": "uint256"
        }
      ],
      "name": "MetadataUpdate",
      "type": "event"
    },
    {
      "anonymous": false,
      "inputs": [
        {
          "indexed": false,
          "internalType": "uint256",
          "name": "nftId",
          "type": "uint256"
        },
        {
          "indexed": false,
          "internalType": "address",
          "name": "auctionWinner",
          "type": "address"
        }
      ],
      "name": "NFTTransferred",
      "type": "event"
    },
    {
      "anonymous": false,
      "inputs": [
        {
          "indexed": true,
          "internalType": "address",
          "name": "from",
          "type": "address"
        },
        {
          "indexed": true,
          "internalType": "address",
          "name": "to",
          "type": "address"
        },
        {
          "indexed": true,
          "internalType": "uint256",
          "name": "tokenId",
          "type": "uint256"
        }
      ],
      "name": "Transfer",
      "type": "event"
    },
    {
      "inputs": [
        {
          "internalType": "address",
          "name": "to",
          "type": "address"
        },
        {
          "internalType": "uint256",
          "name": "tokenId",
          "type": "uint256"
        }
      ],
      "name": "approve",
      "outputs": [],
      "stateMutability": "nonpayable",
      "type": "function"
    },
    {
      "inputs": [
        {
          "internalType": "address",
          "name": "owner",
          "type": "address"
        }
      ],
      "name": "balanceOf",
      "outputs": [
        {
          "internalType": "uint256",
          "name": "",
          "type": "uint256"
        }
      ],
      "stateMutability": "view",
      "type": "function"
    },
    {
      "inputs": [
        {
          "internalType": "uint256",
          "name": "tokenId",
          "type": "uint256"
        },
        {
          "internalType": "uint256",
          "name": "royaltyPercentage",
          "type": "uint256"
        },
        {
          "internalType": "uint256",
          "name": "price",
          "type": "uint256"
        }
      ],
      "name": "createMarketItem",
      "outputs": [],
      "stateMutability": "payable",
      "type": "function"
    },
    {
      "inputs": [
        {
          "internalType": "uint256",
          "name": "tokenId",
          "type": "uint256"
        }
      ],
      "name": "createMarketSale",
      "outputs": [],
      "stateMutability": "payable",
      "type": "function"
    },
    {
      "inputs": [
        {
          "internalType": "string",
          "name": "tokenURI",
          "type": "string"
        },
        {
          "internalType": "uint256",
          "name": "royaltyPercentage",
          "type": "uint256"
        },
        {
          "internalType": "uint256",
          "name": "price",
          "type": "uint256"
        }
      ],
      "name": "createToken",
      "outputs": [
        {
          "internalType": "uint256",
          "name": "",
          "type": "uint256"
        }
      ],
      "stateMutability": "payable",
      "type": "function"
    },
    {
      "inputs": [],
      "name": "fetchItemsListed",
      "outputs": [
        {
          "components": [
            {
              "internalType": "uint256",
              "name": "tokenId",
              "type": "uint256"
            },
            {
              "internalType": "address payable",
              "name": "originalOwner",
              "type": "address"
            },
            {
              "internalType": "address payable",
              "name": "seller",
              "type": "address"
            },
            {
              "internalType": "address payable",
              "name": "owner",
              "type": "address"
            },
            {
              "internalType": "uint256",
              "name": "royaltyPercentage",
              "type": "uint256"
            },
            {
              "internalType": "uint256",
              "name": "price",
              "type": "uint256"
            },
            {
              "internalType": "bool",
              "name": "auction",
              "type": "bool"
            },
            {
              "internalType": "bool",
              "name": "sold",
              "type": "bool"
            }
          ],
          "internalType": "struct Marketplace.MarketItem[]",
          "name": "",
          "type": "tuple[]"
        }
      ],
      "stateMutability": "view",
      "type": "function"
    },
    {
      "inputs": [],
      "name": "fetchMarketItems",
      "outputs": [
        {
          "components": [
            {
              "internalType": "uint256",
              "name": "tokenId",
              "type": "uint256"
            },
            {
              "internalType": "address payable",
              "name": "originalOwner",
              "type": "address"
            },
            {
              "internalType": "address payable",
              "name": "seller",
              "type": "address"
            },
            {
              "internalType": "address payable",
              "name": "owner",
              "type": "address"
            },
            {
              "internalType": "uint256",
              "name": "royaltyPercentage",
              "type": "uint256"
            },
            {
              "internalType": "uint256",
              "name": "price",
              "type": "uint256"
            },
            {
              "internalType": "bool",
              "name": "auction",
              "type": "bool"
            },
            {
              "internalType": "bool",
              "name": "sold",
              "type": "bool"
            }
          ],
          "internalType": "struct Marketplace.MarketItem[]",
          "name": "",
          "type": "tuple[]"
        }
      ],
      "stateMutability": "view",
      "type": "function"
    },
    {
      "inputs": [],
      "name": "fetchMyNFT",
      "outputs": [
        {
          "components": [
            {
              "internalType": "uint256",
              "name": "tokenId",
              "type": "uint256"
            },
            {
              "internalType": "address payable",
              "name": "originalOwner",
              "type": "address"
            },
            {
              "internalType": "address payable",
              "name": "seller",
              "type": "address"
            },
            {
              "internalType": "address payable",
              "name": "owner",
              "type": "address"
            },
            {
              "internalType": "uint256",
              "name": "royaltyPercentage",
              "type": "uint256"
            },
            {
              "internalType": "uint256",
              "name": "price",
              "type": "uint256"
            },
            {
              "internalType": "bool",
              "name": "auction",
              "type": "bool"
            },
            {
              "internalType": "bool",
              "name": "sold",
              "type": "bool"
            }
          ],
          "internalType": "struct Marketplace.MarketItem[]",
          "name": "",
          "type": "tuple[]"
        }
      ],
      "stateMutability": "view",
      "type": "function"
    },
    {
      "inputs": [
        {
          "internalType": "uint256",
          "name": "tokenId",
          "type": "uint256"
        }
      ],
      "name": "getApproved",
      "outputs": [
        {
          "internalType": "address",
          "name": "",
          "type": "address"
        }
      ],
      "stateMutability": "view",
      "type": "function"
    },
    {
      "inputs": [
        {
          "internalType": "uint256",
          "name": "tokenId",
          "type": "uint256"
        }
      ],
      "name": "getRoyaltyData",
      "outputs": [
        {
          "internalType": "uint256",
          "name": "",
          "type": "uint256"
        },
        {
          "internalType": "address payable",
          "name": "",
          "type": "address"
        }
      ],
      "stateMutability": "view",
      "type": "function"
    },
    {
      "inputs": [
        {
          "internalType": "uint256",
          "name": "tokenId",
          "type": "uint256"
        },
        {
          "internalType": "address",
          "name": "winner",
          "type": "address"
        }
      ],
      "name": "handleAuctionEnd",
      "outputs": [],
      "stateMutability": "nonpayable",
      "type": "function"
    },
    {
      "inputs": [
        {
          "internalType": "address",
          "name": "owner",
          "type": "address"
        },
        {
          "internalType": "address",
          "name": "operator",
          "type": "address"
        }
      ],
      "name": "isApprovedForAll",
      "outputs": [
        {
          "internalType": "bool",
          "name": "",
          "type": "bool"
        }
      ],
      "stateMutability": "view",
      "type": "function"
    },
    {
      "inputs": [],
      "name": "name",
      "outputs": [
        {
          "internalType": "string",
          "name": "",
          "type": "string"
        }
      ],
      "stateMutability": "view",
      "type": "function"
    },
    {
      "inputs": [
        {
          "internalType": "uint256",
          "name": "tokenId",
          "type": "uint256"
        }
      ],
      "name": "ownerOf",
      "outputs": [
        {
          "internalType": "address",
          "name": "",
          "type": "address"
        }
      ],
      "stateMutability": "view",
      "type": "function"
    },
    {
      "inputs": [
        {
          "internalType": "uint256",
          "name": "tokenId",
          "type": "uint256"
        },
        {
          "internalType": "uint256",
          "name": "price",
          "type": "uint256"
        }
      ],
      "name": "resellMarketItem",
      "outputs": [],
      "stateMutability": "payable",
      "type": "function"
    },
    {
      "inputs": [
        {
          "internalType": "address",
          "name": "from",
          "type": "address"
        },
        {
          "internalType": "address",
          "name": "to",
          "type": "address"
        },
        {
          "internalType": "uint256",
          "name": "tokenId",
          "type": "uint256"
        }
      ],
      "name": "safeTransferFrom",
      "outputs": [],
      "stateMutability": "nonpayable",
      "type": "function"
    },
    {
      "inputs": [
        {
          "internalType": "address",
          "name": "from",
          "type": "address"
        },
        {
          "internalType": "address",
          "name": "to",
          "type": "address"
        },
        {
          "internalType": "uint256",
          "name": "tokenId",
          "type": "uint256"
        },
        {
          "internalType": "bytes",
          "name": "data",
          "type": "bytes"
        }
      ],
      "name": "safeTransferFrom",
      "outputs": [],
      "stateMutability": "nonpayable",
      "type": "function"
    },
    {
      "inputs": [
        {
          "internalType": "address",
          "name": "operator",
          "type": "address"
        },
        {
          "internalType": "bool",
          "name": "approved",
          "type": "bool"
        }
      ],
      "name": "setApprovalForAll",
      "outputs": [],
      "stateMutability": "nonpayable",
      "type": "function"
    },
    {
      "inputs": [
        {
          "internalType": "address",
          "name": "auctionFactoryAddress",
          "type": "address"
        }
      ],
      "name": "setAuctionFactoryAddress",
      "outputs": [],
      "stateMutability": "nonpayable",
      "type": "function"
    },
    {
      "inputs": [
        {
          "internalType": "bytes4",
          "name": "interfaceId",
          "type": "bytes4"
        }
      ],
      "name": "supportsInterface",
      "outputs": [
        {
          "internalType": "bool",
          "name": "",
          "type": "bool"
        }
      ],
      "stateMutability": "view",
      "type": "function"
    },
    {
      "inputs": [],
      "name": "symbol",
      "outputs": [
        {
          "internalType": "string",
          "name": "",
          "type": "string"
        }
      ],
      "stateMutability": "view",
      "type": "function"
    },
    {
      "inputs": [
        {
          "internalType": "uint256",
          "name": "tokenId",
          "type": "uint256"
        }
      ],
      "name": "tokenURI",
      "outputs": [
        {
          "internalType": "string",
          "name": "",
          "type": "string"
        }
      ],
      "stateMutability": "view",
      "type": "function"
    },
    {
      "inputs": [
        {
          "internalType": "address",
          "name": "from",
          "type": "address"
        },
        {
          "internalType": "address",
          "name": "to",
          "type": "address"
        },
        {
          "internalType": "uint256",
          "name": "tokenId",
          "type": "uint256"
        }
      ],
      "name": "transferFrom",
      "outputs": [],
      "stateMutability": "nonpayable",
      "type": "function"
    },
    {
      "inputs": [
        {
          "internalType": "uint256",
          "name": "_listingPrice",
          "type": "uint256"
        }
      ],
      "name": "updateListingPrice",
      "outputs": [],
      "stateMutability": "payable",
      "type": "function"
    },
    {
      "inputs": [
        {
          "internalType": "uint256",
          "name": "tokenId",
          "type": "uint256"
        },
        {
          "internalType": "uint256",
          "name": "price",
          "type": "uint256"
        }
      ],
      "name": "updateNFTPrice",
      "outputs": [],
      "stateMutability": "nonpayable",
      "type": "function"
    },
    {
      "inputs": [],
      "name": "withdrawFunds",
      "outputs": [],
      "stateMutability": "nonpayable",
      "type": "function"
    }
  ],
  "bytecode": "0x60806040526608e1bc9bf04000600a553480156200001c57600080fd5b506040518060400160405280601381526020017f4e4654204d657461766572736520546f6b656e000000000000000000000000008152506040518060400160405280600581526020017f4d594e465400000000000000000000000000000000000000000000000000000081525081600090816200009a919062000378565b508060019081620000ac919062000378565b505050600160078190555033600b60006101000a81548173ffffffffffffffffffffffffffffffffffffffff021916908373ffffffffffffffffffffffffffffffffffffffff1602179055506200045f565b600081519050919050565b7f4e487b7100000000000000000000000000000000000000000000000000000000600052604160045260246000fd5b7f4e487b7100000000000000000000000000000000000000000000000000000000600052602260045260246000fd5b600060028204905060018216806200018057607f821691505b60208210810362000196576200019562000138565b5b50919050565b60008190508160005260206000209050919050565b60006020601f8301049050919050565b600082821b905092915050565b600060088302620002007fffffffffffffffffffffffffffffffffffffffffffffffffffffffffffffffff82620001c1565b6200020c8683620001c1565b95508019841693508086168417925050509392505050565b6000819050919050565b6000819050919050565b600062000259620002536200024d8462000224565b6200022e565b62000224565b9050919050565b6000819050919050565b620002758362000238565b6200028d620002848262000260565b848454620001ce565b825550505050565b600090565b620002a462000295565b620002b18184846200026a565b505050565b5b81811015620002d957620002cd6000826200029a565b600181019050620002b7565b5050565b601f8211156200032857620002f2816200019c565b620002fd84620001b1565b810160208510156200030d578190505b620003256200031c85620001b1565b830182620002b6565b50505b505050565b600082821c905092915050565b60006200034d600019846008026200032d565b1980831691505092915050565b60006200036883836200033a565b9150826002028217905092915050565b6200038382620000fe565b67ffffffffffffffff8111156200039f576200039e62000109565b5b620003ab825462000167565b620003b8828285620002dd565b600060209050601f831160018114620003f05760008415620003db578287015190505b620003e785826200035a565b86555062000457565b601f19841662000400866200019c565b60005b828110156200042a5784890151825560018201915060208501945060208101905062000403565b868310156200044a578489015162000446601f8916826200033a565b8355505b6001600288020188555050505b505050505050565b615225806200046f6000396000f3fe6080604052600436106101815760003560e01c80636b52d832116100d1578063ae677aa31161008a578063bec2a7c511610064578063bec2a7c514610533578063c18763f714610563578063c87b56dd1461058e578063e985e9c5146105cb57610181565b8063ae677aa3146104d2578063b88d4fde146104ee578063be9af5361461051757610181565b80636b52d832146103be57806370a08231146103da5780638f329b311461041757806395d89b4114610440578063a22cb4651461046b578063a65ff74c1461049457610181565b806323b872dd1161013e57806342842e0e1161011857806342842e0e1461030457806345f8fa801461032d5780634ac0123d146103585780636352211e1461038157610181565b806323b872dd146102a857806324600fc3146102d1578063320343da146102e857610181565b806301ffc9a71461018657806306fdde03146101c3578063081812fc146101ee578063095ea7b31461022b5780630f08efe0146102545780631cb881331461027f575b600080fd5b34801561019257600080fd5b506101ad60048036038101906101a891906136ad565b610608565b6040516101ba91906136f5565b60405180910390f35b3480156101cf57600080fd5b506101d8610669565b6040516101e591906137a0565b60405180910390f35b3480156101fa57600080fd5b50610215600480360381019061021091906137f8565b6106fb565b6040516102229190613866565b60405180910390f35b34801561023757600080fd5b50610252600480360381019061024d91906138ad565b610741565b005b34801561026057600080fd5b50610269610858565b6040516102769190613a7e565b60405180910390f35b34801561028b57600080fd5b506102a660048036038101906102a19190613aa0565b610b3c565b005b3480156102b457600080fd5b506102cf60048036038101906102ca9190613acd565b610b80565b005b3480156102dd57600080fd5b506102e6610be0565b005b61030260048036038101906102fd9190613b20565b610dc3565b005b34801561031057600080fd5b5061032b60048036038101906103269190613acd565b61108d565b005b34801561033957600080fd5b506103426110ad565b60405161034f9190613a7e565b60405180910390f35b34801561036457600080fd5b5061037f600480360381019061037a9190613b73565b611415565b005b34801561038d57600080fd5b506103a860048036038101906103a391906137f8565b6115c0565b6040516103b59190613866565b60405180910390f35b6103d860048036038101906103d39190613b73565b611646565b005b3480156103e657600080fd5b5061040160048036038101906103fc9190613aa0565b6118e7565b60405161040e9190613bc2565b60405180910390f35b34801561042357600080fd5b5061043e60048036038101906104399190613bdd565b61199e565b005b34801561044c57600080fd5b50610455611a9f565b60405161046291906137a0565b60405180910390f35b34801561047757600080fd5b50610492600480360381019061048d9190613c49565b611b31565b005b3480156104a057600080fd5b506104bb60048036038101906104b691906137f8565b611b47565b6040516104c9929190613c98565b60405180910390f35b6104ec60048036038101906104e791906137f8565b611cd7565b005b3480156104fa57600080fd5b5061051560048036038101906105109190613df6565b611d71565b005b610531600480360381019061052c91906137f8565b611dd3565b005b61054d60048036038101906105489190613f1a565b611fb5565b60405161055a9190613bc2565b60405180910390f35b34801561056f57600080fd5b50610578611ff9565b6040516105859190613a7e565b60405180910390f35b34801561059a57600080fd5b506105b560048036038101906105b091906137f8565b612361565b6040516105c291906137a0565b60405180910390f35b3480156105d757600080fd5b506105f260048036038101906105ed9190613f89565b612473565b6040516105ff91906136f5565b60405180910390f35b6000634906490660e01b7bffffffffffffffffffffffffffffffffffffffffffffffffffffffff1916827bffffffffffffffffffffffffffffffffffffffffffffffffffffffff19161480610662575061066182612507565b5b9050919050565b60606000805461067890613ff8565b80601f01602080910402602001604051908101604052809291908181526020018280546106a490613ff8565b80156106f15780601f106106c6576101008083540402835291602001916106f1565b820191906000526020600020905b8154815290600101906020018083116106d457829003601f168201915b5050505050905090565b6000610706826125e9565b6004600083815260200190815260200160002060009054906101000a900473ffffffffffffffffffffffffffffffffffffffff169050919050565b600061074c826115c0565b90508073ffffffffffffffffffffffffffffffffffffffff168373ffffffffffffffffffffffffffffffffffffffff16036107bc576040517f08c379a00000000000000000000000000000000000000000000000000000000081526004016107b39061409b565b60405180910390fd5b8073ffffffffffffffffffffffffffffffffffffffff166107db612634565b73ffffffffffffffffffffffffffffffffffffffff16148061080a575061080981610804612634565b612473565b5b610849576040517f08c379a00000000000000000000000000000000000000000000000000000000081526004016108409061412d565b60405180910390fd5b610853838361263c565b505050565b6060600061086660086126f5565b9050600061087460096126f5565b61087e60086126f5565b610888919061417c565b90506000808267ffffffffffffffff8111156108a7576108a6613ccb565b5b6040519080825280602002602001820160405280156108e057816020015b6108cd6135ac565b8152602001906001900390816108c55790505b50905060005b84811015610b31573073ffffffffffffffffffffffffffffffffffffffff16600d600060018461091691906141b0565b815260200190815260200160002060030160009054906101000a900473ffffffffffffffffffffffffffffffffffffffff1673ffffffffffffffffffffffffffffffffffffffff1603610b1e57600060018261097291906141b0565b90506000600d600083815260200190815260200160002090508060405180610100016040529081600082015481526020016001820160009054906101000a900473ffffffffffffffffffffffffffffffffffffffff1673ffffffffffffffffffffffffffffffffffffffff1673ffffffffffffffffffffffffffffffffffffffff1681526020016002820160009054906101000a900473ffffffffffffffffffffffffffffffffffffffff1673ffffffffffffffffffffffffffffffffffffffff1673ffffffffffffffffffffffffffffffffffffffff1681526020016003820160009054906101000a900473ffffffffffffffffffffffffffffffffffffffff1673ffffffffffffffffffffffffffffffffffffffff1673ffffffffffffffffffffffffffffffffffffffff16815260200160048201548152602001600582015481526020016006820160009054906101000a900460ff161515151581526020016006820160019054906101000a900460ff161515151581525050848681518110610b0157610b006141e4565b5b6020026020010181905250600185610b1991906141b0565b945050505b8080610b2990614213565b9150506108e6565b508094505050505090565b80600c60006101000a81548173ffffffffffffffffffffffffffffffffffffffff021916908373ffffffffffffffffffffffffffffffffffffffff16021790555050565b610b91610b8b612634565b82612703565b610bd0576040517f08c379a0000000000000000000000000000000000000000000000000000000008152600401610bc7906142cd565b60405180910390fd5b610bdb838383612798565b505050565b600b60009054906101000a900473ffffffffffffffffffffffffffffffffffffffff1673ffffffffffffffffffffffffffffffffffffffff163373ffffffffffffffffffffffffffffffffffffffff1614610c70576040517f08c379a0000000000000000000000000000000000000000000000000000000008152600401610c679061435f565b60405180910390fd5b600047905060008111610cb8576040517f08c379a0000000000000000000000000000000000000000000000000000000008152600401610caf906143cb565b60405180910390fd5b6000600b60009054906101000a900473ffffffffffffffffffffffffffffffffffffffff1673ffffffffffffffffffffffffffffffffffffffff1682604051610d009061441c565b60006040518083038185875af1925050503d8060008114610d3d576040519150601f19603f3d011682016040523d82523d6000602084013e610d42565b606091505b5050905080610d86576040517f08c379a0000000000000000000000000000000000000000000000000000000008152600401610d7d9061447d565b60405180910390fd5b7f6141b54b56b8a52a8c6f5cd2a857f6117b18ffbf4d46bd3106f300a839cbf5ea8233604051610db792919061449d565b60405180910390a15050565b610de56040518060600160405280602481526020016151cc6024913933612a91565b60008111610e28576040517f08c379a0000000000000000000000000000000000000000000000000000000008152600401610e1f90614512565b60405180910390fd5b600a543414610e6c576040517f08c379a0000000000000000000000000000000000000000000000000000000008152600401610e639061457e565b60405180910390fd5b6040518061010001604052808481526020013373ffffffffffffffffffffffffffffffffffffffff1681526020013373ffffffffffffffffffffffffffffffffffffffff1681526020013073ffffffffffffffffffffffffffffffffffffffff16815260200183815260200182815260200160001515815260200160001515815250600d60008581526020019081526020016000206000820151816000015560208201518160010160006101000a81548173ffffffffffffffffffffffffffffffffffffffff021916908373ffffffffffffffffffffffffffffffffffffffff16021790555060408201518160020160006101000a81548173ffffffffffffffffffffffffffffffffffffffff021916908373ffffffffffffffffffffffffffffffffffffffff16021790555060608201518160030160006101000a81548173ffffffffffffffffffffffffffffffffffffffff021916908373ffffffffffffffffffffffffffffffffffffffff1602179055506080820151816004015560a0820151816005015560c08201518160060160006101000a81548160ff02191690831515021790555060e08201518160060160016101000a81548160ff021916908315150217905550905050611042333085612798565b827f6be207084465b1afd1fb9af05976e6d285e34a16bc67aaa8e62ebbbf7c406aac333360008686600080604051611080979695949392919061459e565b60405180910390a2505050565b6110a883838360405180602001604052806000815250611d71565b505050565b606060006110bb60086126f5565b905060008060005b83811015611163573373ffffffffffffffffffffffffffffffffffffffff16600d60006001846110f391906141b0565b815260200190815260200160002060020160009054906101000a900473ffffffffffffffffffffffffffffffffffffffff1673ffffffffffffffffffffffffffffffffffffffff16036111505760018361114d91906141b0565b92505b808061115b90614213565b9150506110c3565b5060008267ffffffffffffffff8111156111805761117f613ccb565b5b6040519080825280602002602001820160405280156111b957816020015b6111a66135ac565b81526020019060019003908161119e5790505b50905060005b8481101561140a573373ffffffffffffffffffffffffffffffffffffffff16600d60006001846111ef91906141b0565b815260200190815260200160002060020160009054906101000a900473ffffffffffffffffffffffffffffffffffffffff1673ffffffffffffffffffffffffffffffffffffffff16036113f757600060018261124b91906141b0565b90506000600d600083815260200190815260200160002090508060405180610100016040529081600082015481526020016001820160009054906101000a900473ffffffffffffffffffffffffffffffffffffffff1673ffffffffffffffffffffffffffffffffffffffff1673ffffffffffffffffffffffffffffffffffffffff1681526020016002820160009054906101000a900473ffffffffffffffffffffffffffffffffffffffff1673ffffffffffffffffffffffffffffffffffffffff1673ffffffffffffffffffffffffffffffffffffffff1681526020016003820160009054906101000a900473ffffffffffffffffffffffffffffffffffffffff1673ffffffffffffffffffffffffffffffffffffffff1673ffffffffffffffffffffffffffffffffffffffff16815260200160048201548152602001600582015481526020016006820160009054906101000a900460ff161515151581526020016006820160019054906101000a900460ff1615151515815250508486815181106113da576113d96141e4565b5b60200260200101819052506001856113f291906141b0565b945050505b808061140290614213565b9150506111bf565b508094505050505090565b600073ffffffffffffffffffffffffffffffffffffffff16600d600084815260200190815260200160002060030160009054906101000a900473ffffffffffffffffffffffffffffffffffffffff1673ffffffffffffffffffffffffffffffffffffffff16036114ba576040517f08c379a00000000000000000000000000000000000000000000000000000000081526004016114b190614659565b60405180910390fd5b3373ffffffffffffffffffffffffffffffffffffffff16600d600084815260200190815260200160002060020160009054906101000a900473ffffffffffffffffffffffffffffffffffffffff1673ffffffffffffffffffffffffffffffffffffffff161461155e576040517f08c379a0000000000000000000000000000000000000000000000000000000008152600401611555906146c5565b60405180910390fd5b600081116115a1576040517f08c379a000000000000000000000000000000000000000000000000000000000815260040161159890614731565b60405180910390fd5b80600d6000848152602001908152602001600020600501819055505050565b6000806115cc83612b2d565b9050600073ffffffffffffffffffffffffffffffffffffffff168173ffffffffffffffffffffffffffffffffffffffff160361163d576040517f08c379a00000000000000000000000000000000000000000000000000000000081526004016116349061479d565b60405180910390fd5b80915050919050565b3373ffffffffffffffffffffffffffffffffffffffff16600d600084815260200190815260200160002060030160009054906101000a900473ffffffffffffffffffffffffffffffffffffffff1673ffffffffffffffffffffffffffffffffffffffff1614806117035750600c60009054906101000a900473ffffffffffffffffffffffffffffffffffffffff1673ffffffffffffffffffffffffffffffffffffffff163373ffffffffffffffffffffffffffffffffffffffff16145b611742576040517f08c379a000000000000000000000000000000000000000000000000000000000815260040161173990614809565b60405180910390fd5b600c60009054906101000a900473ffffffffffffffffffffffffffffffffffffffff1673ffffffffffffffffffffffffffffffffffffffff163373ffffffffffffffffffffffffffffffffffffffff16036117c7576001600d600084815260200190815260200160002060060160006101000a81548160ff0219169083151502179055505b6000600d600084815260200190815260200160002060060160016101000a81548160ff02191690831515021790555080600d60008481526020019081526020016000206005018190555033600d600084815260200190815260200160002060020160006101000a81548173ffffffffffffffffffffffffffffffffffffffff021916908373ffffffffffffffffffffffffffffffffffffffff16021790555030600d600084815260200190815260200160002060030160006101000a81548173ffffffffffffffffffffffffffffffffffffffff021916908373ffffffffffffffffffffffffffffffffffffffff16021790555060006118c760096126f5565b11156118d8576118d76009612b6a565b5b6118e3333084612798565b5050565b60008073ffffffffffffffffffffffffffffffffffffffff168273ffffffffffffffffffffffffffffffffffffffff1603611957576040517f08c379a000000000000000000000000000000000000000000000000000000000815260040161194e9061489b565b60405180910390fd5b600360008373ffffffffffffffffffffffffffffffffffffffff1673ffffffffffffffffffffffffffffffffffffffff168152602001908152602001600020549050919050565b3073ffffffffffffffffffffffffffffffffffffffff166342842e0e3083856040518463ffffffff1660e01b81526004016119db939291906148bb565b600060405180830381600087803b1580156119f557600080fd5b505af1158015611a09573d6000803e3d6000fd5b5050505080600d600084815260200190815260200160002060030160006101000a81548173ffffffffffffffffffffffffffffffffffffffff021916908373ffffffffffffffffffffffffffffffffffffffff1602179055507f20665ee57a5e13af162123968d777ccebe86531a21e53d08afc78138a950192d8282604051611a9392919061449d565b60405180910390a15050565b606060018054611aae90613ff8565b80601f0160208091040260200160405190810160405280929190818152602001828054611ada90613ff8565b8015611b275780601f10611afc57610100808354040283529160200191611b27565b820191906000526020600020905b815481529060010190602001808311611b0a57829003601f168201915b5050505050905090565b611b43611b3c612634565b8383612bc6565b5050565b6000806000600d600085815260200190815260200160002060405180610100016040529081600082015481526020016001820160009054906101000a900473ffffffffffffffffffffffffffffffffffffffff1673ffffffffffffffffffffffffffffffffffffffff1673ffffffffffffffffffffffffffffffffffffffff1681526020016002820160009054906101000a900473ffffffffffffffffffffffffffffffffffffffff1673ffffffffffffffffffffffffffffffffffffffff1673ffffffffffffffffffffffffffffffffffffffff1681526020016003820160009054906101000a900473ffffffffffffffffffffffffffffffffffffffff1673ffffffffffffffffffffffffffffffffffffffff1673ffffffffffffffffffffffffffffffffffffffff16815260200160048201548152602001600582015481526020016006820160009054906101000a900460ff161515151581526020016006820160019054906101000a900460ff1615151515815250509050806080015181602001519250925050915091565b600b60009054906101000a900473ffffffffffffffffffffffffffffffffffffffff1673ffffffffffffffffffffffffffffffffffffffff163373ffffffffffffffffffffffffffffffffffffffff1614611d67576040517f08c379a0000000000000000000000000000000000000000000000000000000008152600401611d5e9061435f565b60405180910390fd5b80600a8190555050565b611d82611d7c612634565b83612703565b611dc1576040517f08c379a0000000000000000000000000000000000000000000000000000000008152600401611db8906142cd565b60405180910390fd5b611dcd84848484612d32565b50505050565b6000600d6000838152602001908152602001600020600501549050803414611e30576040517f08c379a0000000000000000000000000000000000000000000000000000000008152600401611e2790614964565b60405180910390fd5b33600d600084815260200190815260200160002060030160006101000a81548173ffffffffffffffffffffffffffffffffffffffff021916908373ffffffffffffffffffffffffffffffffffffffff1602179055506001600d600084815260200190815260200160002060060160016101000a81548160ff021916908315150217905550611ebe6009612d8e565b611ec9303384612798565b600b60009054906101000a900473ffffffffffffffffffffffffffffffffffffffff1673ffffffffffffffffffffffffffffffffffffffff166108fc600a549081150290604051600060405180830381858888f19350505050158015611f33573d6000803e3d6000fd5b50600d600083815260200190815260200160002060020160009054906101000a900473ffffffffffffffffffffffffffffffffffffffff1673ffffffffffffffffffffffffffffffffffffffff166108fc349081150290604051600060405180830381858888f19350505050158015611fb0573d6000803e3d6000fd5b505050565b6000611fc16008612d8e565b6000611fcd60086126f5565b9050611fd93382612da4565b611fe38186612fc1565b611fee818585610dc3565b809150509392505050565b6060600061200760086126f5565b905060008060005b838110156120af573373ffffffffffffffffffffffffffffffffffffffff16600d600060018461203f91906141b0565b815260200190815260200160002060030160009054906101000a900473ffffffffffffffffffffffffffffffffffffffff1673ffffffffffffffffffffffffffffffffffffffff160361209c5760018361209991906141b0565b92505b80806120a790614213565b91505061200f565b5060008267ffffffffffffffff8111156120cc576120cb613ccb565b5b60405190808252806020026020018201604052801561210557816020015b6120f26135ac565b8152602001906001900390816120ea5790505b50905060005b84811015612356573373ffffffffffffffffffffffffffffffffffffffff16600d600060018461213b91906141b0565b815260200190815260200160002060030160009054906101000a900473ffffffffffffffffffffffffffffffffffffffff1673ffffffffffffffffffffffffffffffffffffffff160361234357600060018261219791906141b0565b90506000600d600083815260200190815260200160002090508060405180610100016040529081600082015481526020016001820160009054906101000a900473ffffffffffffffffffffffffffffffffffffffff1673ffffffffffffffffffffffffffffffffffffffff1673ffffffffffffffffffffffffffffffffffffffff1681526020016002820160009054906101000a900473ffffffffffffffffffffffffffffffffffffffff1673ffffffffffffffffffffffffffffffffffffffff1673ffffffffffffffffffffffffffffffffffffffff1681526020016003820160009054906101000a900473ffffffffffffffffffffffffffffffffffffffff1673ffffffffffffffffffffffffffffffffffffffff1673ffffffffffffffffffffffffffffffffffffffff16815260200160048201548152602001600582015481526020016006820160009054906101000a900460ff161515151581526020016006820160019054906101000a900460ff161515151581525050848681518110612326576123256141e4565b5b602002602001018190525060018561233e91906141b0565b945050505b808061234e90614213565b91505061210b565b508094505050505090565b606061236c826125e9565b600060066000848152602001908152602001600020805461238c90613ff8565b80601f01602080910402602001604051908101604052809291908181526020018280546123b890613ff8565b80156124055780601f106123da57610100808354040283529160200191612405565b820191906000526020600020905b8154815290600101906020018083116123e857829003601f168201915b505050505090506000612416613065565b9050600081510361242b57819250505061246e565b6000825111156124605780826040516020016124489291906149c0565b6040516020818303038152906040529250505061246e565b6124698461307c565b925050505b919050565b6000600560008473ffffffffffffffffffffffffffffffffffffffff1673ffffffffffffffffffffffffffffffffffffffff16815260200190815260200160002060008373ffffffffffffffffffffffffffffffffffffffff1673ffffffffffffffffffffffffffffffffffffffff16815260200190815260200160002060009054906101000a900460ff16905092915050565b60007f80ac58cd000000000000000000000000000000000000000000000000000000007bffffffffffffffffffffffffffffffffffffffffffffffffffffffff1916827bffffffffffffffffffffffffffffffffffffffffffffffffffffffff191614806125d257507f5b5e139f000000000000000000000000000000000000000000000000000000007bffffffffffffffffffffffffffffffffffffffffffffffffffffffff1916827bffffffffffffffffffffffffffffffffffffffffffffffffffffffff1916145b806125e257506125e1826130e4565b5b9050919050565b6125f28161314e565b612631576040517f08c379a00000000000000000000000000000000000000000000000000000000081526004016126289061479d565b60405180910390fd5b50565b600033905090565b816004600083815260200190815260200160002060006101000a81548173ffffffffffffffffffffffffffffffffffffffff021916908373ffffffffffffffffffffffffffffffffffffffff160217905550808273ffffffffffffffffffffffffffffffffffffffff166126af836115c0565b73ffffffffffffffffffffffffffffffffffffffff167f8c5be1e5ebec7d5bd14f71427d1e84f3dd0314c0f7b2291e5b200ac8c7c3b92560405160405180910390a45050565b600081600001549050919050565b60008061270f836115c0565b90508073ffffffffffffffffffffffffffffffffffffffff168473ffffffffffffffffffffffffffffffffffffffff16148061275157506127508185612473565b5b8061278f57508373ffffffffffffffffffffffffffffffffffffffff16612777846106fb565b73ffffffffffffffffffffffffffffffffffffffff16145b91505092915050565b8273ffffffffffffffffffffffffffffffffffffffff166127b8826115c0565b73ffffffffffffffffffffffffffffffffffffffff161461280e576040517f08c379a000000000000000000000000000000000000000000000000000000000815260040161280590614a56565b60405180910390fd5b600073ffffffffffffffffffffffffffffffffffffffff168273ffffffffffffffffffffffffffffffffffffffff160361287d576040517f08c379a000000000000000000000000000000000000000000000000000000000815260040161287490614ae8565b60405180910390fd5b61288a838383600161318f565b8273ffffffffffffffffffffffffffffffffffffffff166128aa826115c0565b73ffffffffffffffffffffffffffffffffffffffff1614612900576040517f08c379a00000000000000000000000000000000000000000000000000000000081526004016128f790614a56565b60405180910390fd5b6004600082815260200190815260200160002060006101000a81549073ffffffffffffffffffffffffffffffffffffffff02191690556001600360008573ffffffffffffffffffffffffffffffffffffffff1673ffffffffffffffffffffffffffffffffffffffff168152602001908152602001600020600082825403925050819055506001600360008473ffffffffffffffffffffffffffffffffffffffff1673ffffffffffffffffffffffffffffffffffffffff16815260200190815260200160002060008282540192505081905550816002600083815260200190815260200160002060006101000a81548173ffffffffffffffffffffffffffffffffffffffff021916908373ffffffffffffffffffffffffffffffffffffffff160217905550808273ffffffffffffffffffffffffffffffffffffffff168473ffffffffffffffffffffffffffffffffffffffff167fddf252ad1be2c89b69c2b068fc378daa952ba7f163c4a11628f55a4df523b3ef60405160405180910390a4612a8c8383836001613195565b505050565b612b298282604051602401612aa7929190614b08565b6040516020818303038152906040527f319af333000000000000000000000000000000000000000000000000000000007bffffffffffffffffffffffffffffffffffffffffffffffffffffffff19166020820180517bffffffffffffffffffffffffffffffffffffffffffffffffffffffff838183161783525050505061319b565b5050565b60006002600083815260200190815260200160002060009054906101000a900473ffffffffffffffffffffffffffffffffffffffff169050919050565b60008160000154905060008111612bb6576040517f08c379a0000000000000000000000000000000000000000000000000000000008152600401612bad90614b84565b60405180910390fd5b6001810382600001819055505050565b8173ffffffffffffffffffffffffffffffffffffffff168373ffffffffffffffffffffffffffffffffffffffff1603612c34576040517f08c379a0000000000000000000000000000000000000000000000000000000008152600401612c2b90614bf0565b60405180910390fd5b80600560008573ffffffffffffffffffffffffffffffffffffffff1673ffffffffffffffffffffffffffffffffffffffff16815260200190815260200160002060008473ffffffffffffffffffffffffffffffffffffffff1673ffffffffffffffffffffffffffffffffffffffff16815260200190815260200160002060006101000a81548160ff0219169083151502179055508173ffffffffffffffffffffffffffffffffffffffff168373ffffffffffffffffffffffffffffffffffffffff167f17307eab39ab6107e8899845ad3d59bd9653f200f220920489ca2b5937696c3183604051612d2591906136f5565b60405180910390a3505050565b612d3d848484612798565b612d49848484846131b5565b612d88576040517f08c379a0000000000000000000000000000000000000000000000000000000008152600401612d7f90614c82565b60405180910390fd5b50505050565b6001816000016000828254019250508190555050565b600073ffffffffffffffffffffffffffffffffffffffff168273ffffffffffffffffffffffffffffffffffffffff1603612e13576040517f08c379a0000000000000000000000000000000000000000000000000000000008152600401612e0a90614cee565b60405180910390fd5b612e1c8161314e565b15612e5c576040517f08c379a0000000000000000000000000000000000000000000000000000000008152600401612e5390614d5a565b60405180910390fd5b612e6a60008383600161318f565b612e738161314e565b15612eb3576040517f08c379a0000000000000000000000000000000000000000000000000000000008152600401612eaa90614d5a565b60405180910390fd5b6001600360008473ffffffffffffffffffffffffffffffffffffffff1673ffffffffffffffffffffffffffffffffffffffff16815260200190815260200160002060008282540192505081905550816002600083815260200190815260200160002060006101000a81548173ffffffffffffffffffffffffffffffffffffffff021916908373ffffffffffffffffffffffffffffffffffffffff160217905550808273ffffffffffffffffffffffffffffffffffffffff16600073ffffffffffffffffffffffffffffffffffffffff167fddf252ad1be2c89b69c2b068fc378daa952ba7f163c4a11628f55a4df523b3ef60405160405180910390a4612fbd600083836001613195565b5050565b612fca8261314e565b613009576040517f08c379a000000000000000000000000000000000000000000000000000000000815260040161300090614dec565b60405180910390fd5b806006600084815260200190815260200160002090816130299190614fb8565b507ff8e1a15aba9398e019f0b49df1a4fde98ee17ae345cb5f6b5e2c27f5033e8ce7826040516130599190613bc2565b60405180910390a15050565b606060405180602001604052806000815250905090565b6060613087826125e9565b6000613091613065565b905060008151116130b157604051806020016040528060008152506130dc565b806130bb8461333c565b6040516020016130cc9291906149c0565b6040516020818303038152906040525b915050919050565b60007f01ffc9a7000000000000000000000000000000000000000000000000000000007bffffffffffffffffffffffffffffffffffffffffffffffffffffffff1916827bffffffffffffffffffffffffffffffffffffffffffffffffffffffff1916149050919050565b60008073ffffffffffffffffffffffffffffffffffffffff1661317083612b2d565b73ffffffffffffffffffffffffffffffffffffffff1614159050919050565b50505050565b50505050565b6131b2816131aa61340a61342b565b63ffffffff16565b50565b60006131d68473ffffffffffffffffffffffffffffffffffffffff16613436565b1561332f578373ffffffffffffffffffffffffffffffffffffffff1663150b7a026131ff612634565b8786866040518563ffffffff1660e01b815260040161322194939291906150df565b6020604051808303816000875af192505050801561325d57506040513d601f19601f8201168201806040525081019061325a9190615140565b60015b6132df573d806000811461328d576040519150601f19603f3d011682016040523d82523d6000602084013e613292565b606091505b5060008151036132d7576040517f08c379a00000000000000000000000000000000000000000000000000000000081526004016132ce90614c82565b60405180910390fd5b805181602001fd5b63150b7a0260e01b7bffffffffffffffffffffffffffffffffffffffffffffffffffffffff1916817bffffffffffffffffffffffffffffffffffffffffffffffffffffffff191614915050613334565b600190505b949350505050565b60606000600161334b84613459565b01905060008167ffffffffffffffff81111561336a57613369613ccb565b5b6040519080825280601f01601f19166020018201604052801561339c5781602001600182028036833780820191505090505b509050600082602001820190505b6001156133ff578080600190039150507f3031323334353637383961626364656600000000000000000000000000000000600a86061a8153600a85816133f3576133f261516d565b5b049450600085036133aa575b819350505050919050565b60006a636f6e736f6c652e6c6f679050600080835160208501845afa505050565b613637819050919050565b6000808273ffffffffffffffffffffffffffffffffffffffff163b119050919050565b600080600090507a184f03e93ff9f4daa797ed6e38ed64bf6a1f01000000000000000083106134b7577a184f03e93ff9f4daa797ed6e38ed64bf6a1f01000000000000000083816134ad576134ac61516d565b5b0492506040810190505b6d04ee2d6d415b85acef810000000083106134f4576d04ee2d6d415b85acef810000000083816134ea576134e961516d565b5b0492506020810190505b662386f26fc10000831061352357662386f26fc1000083816135195761351861516d565b5b0492506010810190505b6305f5e100831061354c576305f5e10083816135425761354161516d565b5b0492506008810190505b61271083106135715761271083816135675761356661516d565b5b0492506004810190505b60648310613594576064838161358a5761358961516d565b5b0492506002810190505b600a83106135a3576001810190505b80915050919050565b60405180610100016040528060008152602001600073ffffffffffffffffffffffffffffffffffffffff168152602001600073ffffffffffffffffffffffffffffffffffffffff168152602001600073ffffffffffffffffffffffffffffffffffffffff16815260200160008152602001600081526020016000151581526020016000151581525090565b61363f61519c565b565b6000604051905090565b600080fd5b600080fd5b60007fffffffff0000000000000000000000000000000000000000000000000000000082169050919050565b61368a81613655565b811461369557600080fd5b50565b6000813590506136a781613681565b92915050565b6000602082840312156136c3576136c261364b565b5b60006136d184828501613698565b91505092915050565b60008115159050919050565b6136ef816136da565b82525050565b600060208201905061370a60008301846136e6565b92915050565b600081519050919050565b600082825260208201905092915050565b60005b8381101561374a57808201518184015260208101905061372f565b60008484015250505050565b6000601f19601f8301169050919050565b600061377282613710565b61377c818561371b565b935061378c81856020860161372c565b61379581613756565b840191505092915050565b600060208201905081810360008301526137ba8184613767565b905092915050565b6000819050919050565b6137d5816137c2565b81146137e057600080fd5b50565b6000813590506137f2816137cc565b92915050565b60006020828403121561380e5761380d61364b565b5b600061381c848285016137e3565b91505092915050565b600073ffffffffffffffffffffffffffffffffffffffff82169050919050565b600061385082613825565b9050919050565b61386081613845565b82525050565b600060208201905061387b6000830184613857565b92915050565b61388a81613845565b811461389557600080fd5b50565b6000813590506138a781613881565b92915050565b600080604083850312156138c4576138c361364b565b5b60006138d285828601613898565b92505060206138e3858286016137e3565b9150509250929050565b600081519050919050565b600082825260208201905092915050565b6000819050602082019050919050565b613922816137c2565b82525050565b600061393382613825565b9050919050565b61394381613928565b82525050565b613952816136da565b82525050565b6101008201600082015161396f6000850182613919565b506020820151613982602085018261393a565b506040820151613995604085018261393a565b5060608201516139a8606085018261393a565b5060808201516139bb6080850182613919565b5060a08201516139ce60a0850182613919565b5060c08201516139e160c0850182613949565b5060e08201516139f460e0850182613949565b50505050565b6000613a068383613958565b6101008301905092915050565b6000602082019050919050565b6000613a2b826138ed565b613a3581856138f8565b9350613a4083613909565b8060005b83811015613a71578151613a5888826139fa565b9750613a6383613a13565b925050600181019050613a44565b5085935050505092915050565b60006020820190508181036000830152613a988184613a20565b905092915050565b600060208284031215613ab657613ab561364b565b5b6000613ac484828501613898565b91505092915050565b600080600060608486031215613ae657613ae561364b565b5b6000613af486828701613898565b9350506020613b0586828701613898565b9250506040613b16868287016137e3565b9150509250925092565b600080600060608486031215613b3957613b3861364b565b5b6000613b47868287016137e3565b9350506020613b58868287016137e3565b9250506040613b69868287016137e3565b9150509250925092565b60008060408385031215613b8a57613b8961364b565b5b6000613b98858286016137e3565b9250506020613ba9858286016137e3565b9150509250929050565b613bbc816137c2565b82525050565b6000602082019050613bd76000830184613bb3565b92915050565b60008060408385031215613bf457613bf361364b565b5b6000613c02858286016137e3565b9250506020613c1385828601613898565b9150509250929050565b613c26816136da565b8114613c3157600080fd5b50565b600081359050613c4381613c1d565b92915050565b60008060408385031215613c6057613c5f61364b565b5b6000613c6e85828601613898565b9250506020613c7f85828601613c34565b9150509250929050565b613c9281613928565b82525050565b6000604082019050613cad6000830185613bb3565b613cba6020830184613c89565b9392505050565b600080fd5b600080fd5b7f4e487b7100000000000000000000000000000000000000000000000000000000600052604160045260246000fd5b613d0382613756565b810181811067ffffffffffffffff82111715613d2257613d21613ccb565b5b80604052505050565b6000613d35613641565b9050613d418282613cfa565b919050565b600067ffffffffffffffff821115613d6157613d60613ccb565b5b613d6a82613756565b9050602081019050919050565b82818337600083830152505050565b6000613d99613d9484613d46565b613d2b565b905082815260208101848484011115613db557613db4613cc6565b5b613dc0848285613d77565b509392505050565b600082601f830112613ddd57613ddc613cc1565b5b8135613ded848260208601613d86565b91505092915050565b60008060008060808587031215613e1057613e0f61364b565b5b6000613e1e87828801613898565b9450506020613e2f87828801613898565b9350506040613e40878288016137e3565b925050606085013567ffffffffffffffff811115613e6157613e60613650565b5b613e6d87828801613dc8565b91505092959194509250565b600067ffffffffffffffff821115613e9457613e93613ccb565b5b613e9d82613756565b9050602081019050919050565b6000613ebd613eb884613e79565b613d2b565b905082815260208101848484011115613ed957613ed8613cc6565b5b613ee4848285613d77565b509392505050565b600082601f830112613f0157613f00613cc1565b5b8135613f11848260208601613eaa565b91505092915050565b600080600060608486031215613f3357613f3261364b565b5b600084013567ffffffffffffffff811115613f5157613f50613650565b5b613f5d86828701613eec565b9350506020613f6e868287016137e3565b9250506040613f7f868287016137e3565b9150509250925092565b60008060408385031215613fa057613f9f61364b565b5b6000613fae85828601613898565b9250506020613fbf85828601613898565b9150509250929050565b7f4e487b7100000000000000000000000000000000000000000000000000000000600052602260045260246000fd5b6000600282049050600182168061401057607f821691505b60208210810361402357614022613fc9565b5b50919050565b7f4552433732313a20617070726f76616c20746f2063757272656e74206f776e6560008201527f7200000000000000000000000000000000000000000000000000000000000000602082015250565b600061408560218361371b565b915061409082614029565b604082019050919050565b600060208201905081810360008301526140b481614078565b9050919050565b7f4552433732313a20617070726f76652063616c6c6572206973206e6f7420746f60008201527f6b656e206f776e6572206f7220617070726f76656420666f7220616c6c000000602082015250565b6000614117603d8361371b565b9150614122826140bb565b604082019050919050565b600060208201905081810360008301526141468161410a565b9050919050565b7f4e487b7100000000000000000000000000000000000000000000000000000000600052601160045260246000fd5b6000614187826137c2565b9150614192836137c2565b92508282039050818111156141aa576141a961414d565b5b92915050565b60006141bb826137c2565b91506141c6836137c2565b92508282019050808211156141de576141dd61414d565b5b92915050565b7f4e487b7100000000000000000000000000000000000000000000000000000000600052603260045260246000fd5b600061421e826137c2565b91507fffffffffffffffffffffffffffffffffffffffffffffffffffffffffffffffff82036142505761424f61414d565b5b600182019050919050565b7f4552433732313a2063616c6c6572206973206e6f7420746f6b656e206f776e6560008201527f72206f7220617070726f76656400000000000000000000000000000000000000602082015250565b60006142b7602d8361371b565b91506142c28261425b565b604082019050919050565b600060208201905081810360008301526142e6816142aa565b9050919050565b7f6f6e6c79206f776e6572206f662074686520636f6e74726163742063616e207560008201527f706461746520746865206c697374696e67207072696365000000000000000000602082015250565b600061434960378361371b565b9150614354826142ed565b604082019050919050565b600060208201905081810360008301526143788161433c565b9050919050565b7f4e6f2066756e647320746f207769746864726177000000000000000000000000600082015250565b60006143b560148361371b565b91506143c08261437f565b602082019050919050565b600060208201905081810360008301526143e4816143a8565b9050919050565b600081905092915050565b50565b60006144066000836143eb565b9150614411826143f6565b600082019050919050565b6000614427826143f9565b9150819050919050565b7f4661696c656420746f2077697468647261772066756e64730000000000000000600082015250565b600061446760188361371b565b915061447282614431565b602082019050919050565b600060208201905081810360008301526144968161445a565b9050919050565b60006040820190506144b26000830185613bb3565b6144bf6020830184613857565b9392505050565b7f5072696365206d757374206265206174206c6561737420312077656900000000600082015250565b60006144fc601c8361371b565b9150614507826144c6565b602082019050919050565b6000602082019050818103600083015261452b816144ef565b9050919050565b7f5072696365206d757374206265207061696420696e2066756c6c000000000000600082015250565b6000614568601a8361371b565b915061457382614532565b602082019050919050565b600060208201905081810360008301526145978161455b565b9050919050565b600060e0820190506145b3600083018a613857565b6145c06020830189613857565b6145cd6040830188613857565b6145da6060830187613bb3565b6145e76080830186613bb3565b6145f460a08301856136e6565b61460160c08301846136e6565b98975050505050505050565b7f4e465420646f6573206e6f742065786973740000000000000000000000000000600082015250565b600061464360128361371b565b915061464e8261460d565b602082019050919050565b6000602082019050818103600083015261467281614636565b9050919050565b7f43616c6c6572206973206e6f7420746865206f776e6572000000000000000000600082015250565b60006146af60178361371b565b91506146ba82614679565b602082019050919050565b600060208201905081810360008301526146de816146a2565b9050919050565b7f5072696365206d7573742062652067726561746572207468616e207a65726f00600082015250565b600061471b601f8361371b565b9150614726826146e5565b602082019050919050565b6000602082019050818103600083015261474a8161470e565b9050919050565b7f4552433732313a20696e76616c696420746f6b656e2049440000000000000000600082015250565b600061478760188361371b565b915061479282614751565b602082019050919050565b600060208201905081810360008301526147b68161477a565b9050919050565b7f4f6e6c79206f776e65722063616e2072656c697374204e465400000000000000600082015250565b60006147f360198361371b565b91506147fe826147bd565b602082019050919050565b60006020820190508181036000830152614822816147e6565b9050919050565b7f4552433732313a2061646472657373207a65726f206973206e6f74206120766160008201527f6c6964206f776e65720000000000000000000000000000000000000000000000602082015250565b600061488560298361371b565b915061489082614829565b604082019050919050565b600060208201905081810360008301526148b481614878565b9050919050565b60006060820190506148d06000830186613857565b6148dd6020830185613857565b6148ea6040830184613bb3565b949350505050565b7f506c65617365207375626d6974207468652061736b696e67207072696365206960008201527f6e206f7264657220746f20636f6d706c65746520746865207075726368617365602082015250565b600061494e60408361371b565b9150614959826148f2565b604082019050919050565b6000602082019050818103600083015261497d81614941565b9050919050565b600081905092915050565b600061499a82613710565b6149a48185614984565b93506149b481856020860161372c565b80840191505092915050565b60006149cc828561498f565b91506149d8828461498f565b91508190509392505050565b7f4552433732313a207472616e736665722066726f6d20696e636f72726563742060008201527f6f776e6572000000000000000000000000000000000000000000000000000000602082015250565b6000614a4060258361371b565b9150614a4b826149e4565b604082019050919050565b60006020820190508181036000830152614a6f81614a33565b9050919050565b7f4552433732313a207472616e7366657220746f20746865207a65726f2061646460008201527f7265737300000000000000000000000000000000000000000000000000000000602082015250565b6000614ad260248361371b565b9150614add82614a76565b604082019050919050565b60006020820190508181036000830152614b0181614ac5565b9050919050565b60006040820190508181036000830152614b228185613767565b9050614b316020830184613857565b9392505050565b7f436f756e7465723a2064656372656d656e74206f766572666c6f770000000000600082015250565b6000614b6e601b8361371b565b9150614b7982614b38565b602082019050919050565b60006020820190508181036000830152614b9d81614b61565b9050919050565b7f4552433732313a20617070726f766520746f2063616c6c657200000000000000600082015250565b6000614bda60198361371b565b9150614be582614ba4565b602082019050919050565b60006020820190508181036000830152614c0981614bcd565b9050919050565b7f4552433732313a207472616e7366657220746f206e6f6e20455243373231526560008201527f63656976657220696d706c656d656e7465720000000000000000000000000000602082015250565b6000614c6c60328361371b565b9150614c7782614c10565b604082019050919050565b60006020820190508181036000830152614c9b81614c5f565b9050919050565b7f4552433732313a206d696e7420746f20746865207a65726f2061646472657373600082015250565b6000614cd860208361371b565b9150614ce382614ca2565b602082019050919050565b60006020820190508181036000830152614d0781614ccb565b9050919050565b7f4552433732313a20746f6b656e20616c7265616479206d696e74656400000000600082015250565b6000614d44601c8361371b565b9150614d4f82614d0e565b602082019050919050565b60006020820190508181036000830152614d7381614d37565b9050919050565b7f45524337323155524953746f726167653a2055524920736574206f66206e6f6e60008201527f6578697374656e7420746f6b656e000000000000000000000000000000000000602082015250565b6000614dd6602e8361371b565b9150614de182614d7a565b604082019050919050565b60006020820190508181036000830152614e0581614dc9565b9050919050565b60008190508160005260206000209050919050565b60006020601f8301049050919050565b600082821b905092915050565b600060088302614e6e7fffffffffffffffffffffffffffffffffffffffffffffffffffffffffffffffff82614e31565b614e788683614e31565b95508019841693508086168417925050509392505050565b6000819050919050565b6000614eb5614eb0614eab846137c2565b614e90565b6137c2565b9050919050565b6000819050919050565b614ecf83614e9a565b614ee3614edb82614ebc565b848454614e3e565b825550505050565b600090565b614ef8614eeb565b614f03818484614ec6565b505050565b5b81811015614f2757614f1c600082614ef0565b600181019050614f09565b5050565b601f821115614f6c57614f3d81614e0c565b614f4684614e21565b81016020851015614f55578190505b614f69614f6185614e21565b830182614f08565b50505b505050565b600082821c905092915050565b6000614f8f60001984600802614f71565b1980831691505092915050565b6000614fa88383614f7e565b9150826002028217905092915050565b614fc182613710565b67ffffffffffffffff811115614fda57614fd9613ccb565b5b614fe48254613ff8565b614fef828285614f2b565b600060209050601f8311600181146150225760008415615010578287015190505b61501a8582614f9c565b865550615082565b601f19841661503086614e0c565b60005b8281101561505857848901518255600182019150602085019450602081019050615033565b868310156150755784890151615071601f891682614f7e565b8355505b6001600288020188555050505b505050505050565b600081519050919050565b600082825260208201905092915050565b60006150b18261508a565b6150bb8185615095565b93506150cb81856020860161372c565b6150d481613756565b840191505092915050565b60006080820190506150f46000830187613857565b6151016020830186613857565b61510e6040830185613bb3565b818103606083015261512081846150a6565b905095945050505050565b60008151905061513a81613681565b92915050565b6000602082840312156151565761515561364b565b5b60006151648482850161512b565b91505092915050565b7f4e487b7100000000000000000000000000000000000000000000000000000000600052601260045260246000fd5b7f4e487b7100000000000000000000000000000000000000000000000000000000600052605160045260246000fdfe437265617465204d61726b6574204974656d2046756e6374696f6e2043616c6c65723a20a264697066735822122076a8407c8964ad074c5205ac54112328d4e82ce7fedb94e3ce94b0237041040764736f6c63430008130033",
  "linkReferences": {},
  "deployedLinkReferences": {}
}