{
  "_format": "hh-sol-artifact-1",
  "contractName": "Marketplace",
  "sourceName": "contracts/Marketplace.sol",
  "abi": [
    {
      "inputs": [],
      "stateMutability": "nonpayable",
      "type": "constructor"
    },
    {
      "anonymous": false,
      "inputs": [
        {
          "indexed": true,
          "internalType": "address",
          "name": "owner",
          "type": "address"
        },
        {
          "indexed": true,
          "internalType": "address",
          "name": "approved",
          "type": "address"
        },
        {
          "indexed": true,
          "internalType": "uint256",
          "name": "tokenId",
          "type": "uint256"
        }
      ],
      "name": "Approval",
      "type": "event"
    },
    {
      "anonymous": false,
      "inputs": [
        {
          "indexed": true,
          "internalType": "address",
          "name": "owner",
          "type": "address"
        },
        {
          "indexed": true,
          "internalType": "address",
          "name": "operator",
          "type": "address"
        },
        {
          "indexed": false,
          "internalType": "bool",
          "name": "approved",
          "type": "bool"
        }
      ],
      "name": "ApprovalForAll",
      "type": "event"
    },
    {
      "anonymous": false,
      "inputs": [
        {
          "indexed": false,
          "internalType": "uint256",
          "name": "_fromTokenId",
          "type": "uint256"
        },
        {
          "indexed": false,
          "internalType": "uint256",
          "name": "_toTokenId",
          "type": "uint256"
        }
      ],
      "name": "BatchMetadataUpdate",
      "type": "event"
    },
    {
      "anonymous": false,
      "inputs": [
        {
          "indexed": true,
          "internalType": "uint256",
          "name": "tokenId",
          "type": "uint256"
        },
        {
          "indexed": false,
          "internalType": "address",
          "name": "originalOwner",
          "type": "address"
        },
        {
          "indexed": false,
          "internalType": "address",
          "name": "seller",
          "type": "address"
        },
        {
          "indexed": false,
          "internalType": "address",
          "name": "owner",
          "type": "address"
        },
        {
          "indexed": false,
          "internalType": "uint256",
          "name": "royaltyPercentage",
          "type": "uint256"
        },
        {
          "indexed": false,
          "internalType": "uint256",
          "name": "price",
          "type": "uint256"
        },
        {
          "indexed": false,
          "internalType": "bool",
          "name": "sold",
          "type": "bool"
        }
      ],
      "name": "MarketItemCreated",
      "type": "event"
    },
    {
      "anonymous": false,
      "inputs": [
        {
          "indexed": false,
          "internalType": "uint256",
          "name": "_tokenId",
          "type": "uint256"
        }
      ],
      "name": "MetadataUpdate",
      "type": "event"
    },
    {
      "anonymous": false,
      "inputs": [
        {
          "indexed": false,
          "internalType": "uint256",
          "name": "nftId",
          "type": "uint256"
        },
        {
          "indexed": false,
          "internalType": "address",
          "name": "auctionWinner",
          "type": "address"
        }
      ],
      "name": "NFTTransferred",
      "type": "event"
    },
    {
      "anonymous": false,
      "inputs": [
        {
          "indexed": true,
          "internalType": "address",
          "name": "from",
          "type": "address"
        },
        {
          "indexed": true,
          "internalType": "address",
          "name": "to",
          "type": "address"
        },
        {
          "indexed": true,
          "internalType": "uint256",
          "name": "tokenId",
          "type": "uint256"
        }
      ],
      "name": "Transfer",
      "type": "event"
    },
    {
      "stateMutability": "payable",
      "type": "fallback"
    },
    {
      "inputs": [
        {
          "internalType": "address",
          "name": "to",
          "type": "address"
        },
        {
          "internalType": "uint256",
          "name": "tokenId",
          "type": "uint256"
        }
      ],
      "name": "approve",
      "outputs": [],
      "stateMutability": "nonpayable",
      "type": "function"
    },
    {
      "inputs": [
        {
          "internalType": "address",
          "name": "owner",
          "type": "address"
        }
      ],
      "name": "balanceOf",
      "outputs": [
        {
          "internalType": "uint256",
          "name": "",
          "type": "uint256"
        }
      ],
      "stateMutability": "view",
      "type": "function"
    },
    {
      "inputs": [
        {
          "internalType": "uint256",
          "name": "tokenId",
          "type": "uint256"
        },
        {
          "internalType": "uint256",
          "name": "royaltyPercentage",
          "type": "uint256"
        },
        {
          "internalType": "uint256",
          "name": "price",
          "type": "uint256"
        }
      ],
      "name": "createMarketItem",
      "outputs": [],
      "stateMutability": "payable",
      "type": "function"
    },
    {
      "inputs": [
        {
          "internalType": "uint256",
          "name": "tokenId",
          "type": "uint256"
        }
      ],
      "name": "createMarketSale",
      "outputs": [],
      "stateMutability": "payable",
      "type": "function"
    },
    {
      "inputs": [
        {
          "internalType": "string",
          "name": "tokenURI",
          "type": "string"
        },
        {
          "internalType": "uint256",
          "name": "royaltyPercentage",
          "type": "uint256"
        },
        {
          "internalType": "uint256",
          "name": "price",
          "type": "uint256"
        }
      ],
      "name": "createToken",
      "outputs": [
        {
          "internalType": "uint256",
          "name": "",
          "type": "uint256"
        }
      ],
      "stateMutability": "payable",
      "type": "function"
    },
    {
      "inputs": [
        {
          "internalType": "uint256",
          "name": "tokenId",
          "type": "uint256"
        }
      ],
      "name": "delistMarketItem",
      "outputs": [],
      "stateMutability": "nonpayable",
      "type": "function"
    },
    {
      "inputs": [],
      "name": "fetchItemsListed",
      "outputs": [
        {
          "components": [
            {
              "internalType": "uint256",
              "name": "tokenId",
              "type": "uint256"
            },
            {
              "internalType": "address payable",
              "name": "originalOwner",
              "type": "address"
            },
            {
              "internalType": "address payable",
              "name": "seller",
              "type": "address"
            },
            {
              "internalType": "address payable",
              "name": "owner",
              "type": "address"
            },
            {
              "internalType": "uint256",
              "name": "royaltyPercentage",
              "type": "uint256"
            },
            {
              "internalType": "uint256",
              "name": "price",
              "type": "uint256"
            },
            {
              "internalType": "bool",
              "name": "sold",
              "type": "bool"
            }
          ],
          "internalType": "struct Marketplace.MarketItem[]",
          "name": "",
          "type": "tuple[]"
        }
      ],
      "stateMutability": "view",
      "type": "function"
    },
    {
      "inputs": [],
      "name": "fetchMarketItems",
      "outputs": [
        {
          "components": [
            {
              "internalType": "uint256",
              "name": "tokenId",
              "type": "uint256"
            },
            {
              "internalType": "address payable",
              "name": "originalOwner",
              "type": "address"
            },
            {
              "internalType": "address payable",
              "name": "seller",
              "type": "address"
            },
            {
              "internalType": "address payable",
              "name": "owner",
              "type": "address"
            },
            {
              "internalType": "uint256",
              "name": "royaltyPercentage",
              "type": "uint256"
            },
            {
              "internalType": "uint256",
              "name": "price",
              "type": "uint256"
            },
            {
              "internalType": "bool",
              "name": "sold",
              "type": "bool"
            }
          ],
          "internalType": "struct Marketplace.MarketItem[]",
          "name": "",
          "type": "tuple[]"
        }
      ],
      "stateMutability": "view",
      "type": "function"
    },
    {
      "inputs": [],
      "name": "fetchMyNFT",
      "outputs": [
        {
          "components": [
            {
              "internalType": "uint256",
              "name": "tokenId",
              "type": "uint256"
            },
            {
              "internalType": "address payable",
              "name": "originalOwner",
              "type": "address"
            },
            {
              "internalType": "address payable",
              "name": "seller",
              "type": "address"
            },
            {
              "internalType": "address payable",
              "name": "owner",
              "type": "address"
            },
            {
              "internalType": "uint256",
              "name": "royaltyPercentage",
              "type": "uint256"
            },
            {
              "internalType": "uint256",
              "name": "price",
              "type": "uint256"
            },
            {
              "internalType": "bool",
              "name": "sold",
              "type": "bool"
            }
          ],
          "internalType": "struct Marketplace.MarketItem[]",
          "name": "",
          "type": "tuple[]"
        }
      ],
      "stateMutability": "view",
      "type": "function"
    },
    {
      "inputs": [
        {
          "internalType": "uint256",
          "name": "tokenId",
          "type": "uint256"
        }
      ],
      "name": "getApproved",
      "outputs": [
        {
          "internalType": "address",
          "name": "",
          "type": "address"
        }
      ],
      "stateMutability": "view",
      "type": "function"
    },
    {
      "inputs": [
        {
          "internalType": "uint256",
          "name": "tokenId",
          "type": "uint256"
        }
      ],
      "name": "getNFTPrice",
      "outputs": [
        {
          "internalType": "uint256",
          "name": "price",
          "type": "uint256"
        }
      ],
      "stateMutability": "view",
      "type": "function"
    },
    {
      "inputs": [
        {
          "internalType": "uint256",
          "name": "tokenId",
          "type": "uint256"
        }
      ],
      "name": "getRoyaltyData",
      "outputs": [
        {
          "internalType": "uint256",
          "name": "",
          "type": "uint256"
        },
        {
          "internalType": "address payable",
          "name": "",
          "type": "address"
        }
      ],
      "stateMutability": "view",
      "type": "function"
    },
    {
      "inputs": [
        {
          "internalType": "uint256",
          "name": "tokenId",
          "type": "uint256"
        }
      ],
      "name": "getSellerAddress",
      "outputs": [
        {
          "internalType": "address",
          "name": "",
          "type": "address"
        }
      ],
      "stateMutability": "view",
      "type": "function"
    },
    {
      "inputs": [
        {
          "internalType": "address",
          "name": "approvee",
          "type": "address"
        },
        {
          "internalType": "uint256",
          "name": "tokenId",
          "type": "uint256"
        }
      ],
      "name": "giveApproval",
      "outputs": [],
      "stateMutability": "nonpayable",
      "type": "function"
    },
    {
      "inputs": [
        {
          "internalType": "uint256",
          "name": "tokenId",
          "type": "uint256"
        },
        {
          "internalType": "address",
          "name": "winner",
          "type": "address"
        }
      ],
      "name": "handleAuctionEnd",
      "outputs": [],
      "stateMutability": "nonpayable",
      "type": "function"
    },
    {
      "inputs": [
        {
          "internalType": "address",
          "name": "owner",
          "type": "address"
        },
        {
          "internalType": "address",
          "name": "operator",
          "type": "address"
        }
      ],
      "name": "isApprovedForAll",
      "outputs": [
        {
          "internalType": "bool",
          "name": "",
          "type": "bool"
        }
      ],
      "stateMutability": "view",
      "type": "function"
    },
    {
      "inputs": [],
      "name": "listingPrice",
      "outputs": [
        {
          "internalType": "uint256",
          "name": "",
          "type": "uint256"
        }
      ],
      "stateMutability": "view",
      "type": "function"
    },
    {
      "inputs": [],
      "name": "name",
      "outputs": [
        {
          "internalType": "string",
          "name": "",
          "type": "string"
        }
      ],
      "stateMutability": "view",
      "type": "function"
    },
    {
      "inputs": [
        {
          "internalType": "uint256",
          "name": "tokenId",
          "type": "uint256"
        }
      ],
      "name": "ownerOf",
      "outputs": [
        {
          "internalType": "address",
          "name": "",
          "type": "address"
        }
      ],
      "stateMutability": "view",
      "type": "function"
    },
    {
      "inputs": [
        {
          "internalType": "uint256",
          "name": "tokenId",
          "type": "uint256"
        },
        {
          "internalType": "uint256",
          "name": "price",
          "type": "uint256"
        },
        {
          "internalType": "address",
          "name": "seller",
          "type": "address"
        }
      ],
      "name": "resellMarketItem",
      "outputs": [],
      "stateMutability": "payable",
      "type": "function"
    },
    {
      "inputs": [
        {
          "internalType": "uint256",
          "name": "tokenId",
          "type": "uint256"
        }
      ],
      "name": "revokeApproval",
      "outputs": [],
      "stateMutability": "nonpayable",
      "type": "function"
    },
    {
      "inputs": [
        {
          "internalType": "address",
          "name": "from",
          "type": "address"
        },
        {
          "internalType": "address",
          "name": "to",
          "type": "address"
        },
        {
          "internalType": "uint256",
          "name": "tokenId",
          "type": "uint256"
        }
      ],
      "name": "safeTransferFrom",
      "outputs": [],
      "stateMutability": "nonpayable",
      "type": "function"
    },
    {
      "inputs": [
        {
          "internalType": "address",
          "name": "from",
          "type": "address"
        },
        {
          "internalType": "address",
          "name": "to",
          "type": "address"
        },
        {
          "internalType": "uint256",
          "name": "tokenId",
          "type": "uint256"
        },
        {
          "internalType": "bytes",
          "name": "data",
          "type": "bytes"
        }
      ],
      "name": "safeTransferFrom",
      "outputs": [],
      "stateMutability": "nonpayable",
      "type": "function"
    },
    {
      "inputs": [
        {
          "internalType": "address",
          "name": "operator",
          "type": "address"
        },
        {
          "internalType": "bool",
          "name": "approved",
          "type": "bool"
        }
      ],
      "name": "setApprovalForAll",
      "outputs": [],
      "stateMutability": "nonpayable",
      "type": "function"
    },
    {
      "inputs": [
        {
          "internalType": "address",
          "name": "auctionFactoryAddress",
          "type": "address"
        }
      ],
      "name": "setAuctionFactoryAddress",
      "outputs": [],
      "stateMutability": "nonpayable",
      "type": "function"
    },
    {
      "inputs": [
        {
          "internalType": "bytes4",
          "name": "interfaceId",
          "type": "bytes4"
        }
      ],
      "name": "supportsInterface",
      "outputs": [
        {
          "internalType": "bool",
          "name": "",
          "type": "bool"
        }
      ],
      "stateMutability": "view",
      "type": "function"
    },
    {
      "inputs": [],
      "name": "symbol",
      "outputs": [
        {
          "internalType": "string",
          "name": "",
          "type": "string"
        }
      ],
      "stateMutability": "view",
      "type": "function"
    },
    {
      "inputs": [
        {
          "internalType": "uint256",
          "name": "tokenId",
          "type": "uint256"
        }
      ],
      "name": "tokenURI",
      "outputs": [
        {
          "internalType": "string",
          "name": "",
          "type": "string"
        }
      ],
      "stateMutability": "view",
      "type": "function"
    },
    {
      "inputs": [
        {
          "internalType": "address",
          "name": "from",
          "type": "address"
        },
        {
          "internalType": "address",
          "name": "to",
          "type": "address"
        },
        {
          "internalType": "uint256",
          "name": "tokenId",
          "type": "uint256"
        }
      ],
      "name": "transferFrom",
      "outputs": [],
      "stateMutability": "nonpayable",
      "type": "function"
    },
    {
      "inputs": [
        {
          "internalType": "address",
          "name": "auctionContractAddress",
          "type": "address"
        },
        {
          "internalType": "uint256",
          "name": "tokenId",
          "type": "uint256"
        }
      ],
      "name": "triggerEndAuction",
      "outputs": [],
      "stateMutability": "nonpayable",
      "type": "function"
    },
    {
      "inputs": [
        {
          "internalType": "uint256",
          "name": "_listingPrice",
          "type": "uint256"
        }
      ],
      "name": "updateListingPrice",
      "outputs": [],
      "stateMutability": "payable",
      "type": "function"
    },
    {
      "inputs": [
        {
          "internalType": "uint256",
          "name": "tokenId",
          "type": "uint256"
        },
        {
          "internalType": "uint256",
          "name": "price",
          "type": "uint256"
        }
      ],
      "name": "updateNFTPrice",
      "outputs": [],
      "stateMutability": "nonpayable",
      "type": "function"
    },
    {
      "stateMutability": "payable",
      "type": "receive"
    }
  ],
  "bytecode": "0x60806040526608e1bc9bf04000600a553480156200001c57600080fd5b506040518060400160405280601381526020017f4e4654204d657461766572736520546f6b656e000000000000000000000000008152506040518060400160405280600581526020017f4d594e465400000000000000000000000000000000000000000000000000000081525081600090816200009a919062000378565b508060019081620000ac919062000378565b505050600160078190555033600b60006101000a81548173ffffffffffffffffffffffffffffffffffffffff021916908373ffffffffffffffffffffffffffffffffffffffff1602179055506200045f565b600081519050919050565b7f4e487b7100000000000000000000000000000000000000000000000000000000600052604160045260246000fd5b7f4e487b7100000000000000000000000000000000000000000000000000000000600052602260045260246000fd5b600060028204905060018216806200018057607f821691505b60208210810362000196576200019562000138565b5b50919050565b60008190508160005260206000209050919050565b60006020601f8301049050919050565b600082821b905092915050565b600060088302620002007fffffffffffffffffffffffffffffffffffffffffffffffffffffffffffffffff82620001c1565b6200020c8683620001c1565b95508019841693508086168417925050509392505050565b6000819050919050565b6000819050919050565b600062000259620002536200024d8462000224565b6200022e565b62000224565b9050919050565b6000819050919050565b620002758362000238565b6200028d620002848262000260565b848454620001ce565b825550505050565b600090565b620002a462000295565b620002b18184846200026a565b505050565b5b81811015620002d957620002cd6000826200029a565b600181019050620002b7565b5050565b601f8211156200032857620002f2816200019c565b620002fd84620001b1565b810160208510156200030d578190505b620003256200031c85620001b1565b830182620002b6565b50505b505050565b600082821c905092915050565b60006200034d600019846008026200032d565b1980831691505092915050565b60006200036883836200033a565b9150826002028217905092915050565b6200038382620000fe565b67ffffffffffffffff8111156200039f576200039e62000109565b5b620003ab825462000167565b620003b8828285620002dd565b600060209050601f831160018114620003f05760008415620003db578287015190505b620003e785826200035a565b86555062000457565b601f19841662000400866200019c565b60005b828110156200042a5784890151825560018201915060208501945060208101905062000403565b868310156200044a578489015162000446601f8916826200033a565b8355505b6001600288020188555050505b505050505050565b615597806200046f6000396000f3fe6080604052600436106101e75760003560e01c80639297617911610102578063b88d4fde11610095578063c68a0e1611610064578063c68a0e16146106d6578063c78f19f9146106ff578063c87b56dd1461072a578063e985e9c514610767576101ee565b8063b88d4fde14610636578063be9af5361461065f578063bec2a7c51461067b578063c18763f7146106ab576101ee565b8063a65ff74c116100d1578063a65ff74c14610576578063a675364d146105b4578063ae677aa3146105f1578063b1e130fc1461060d576101ee565b806392976179146104bc57806395d89b41146104f957806399f14a8b14610524578063a22cb4651461054d576101ee565b8063320343da1161017a5780636352211e116101495780636352211e146103fd57806370a082311461043a578063804fa835146104775780638f329b3114610493576101ee565b8063320343da1461036457806342842e0e1461038057806345f8fa80146103a95780634ac0123d146103d4576101ee565b80630bff0bcf116101b65780630bff0bcf146102be5780630f08efe0146102e75780631cb881331461031257806323b872dd1461033b576101ee565b806301ffc9a7146101f057806306fdde031461022d578063081812fc14610258578063095ea7b314610295576101ee565b366101ee57005b005b3480156101fc57600080fd5b506102176004803603810190610212919061396e565b6107a4565b60405161022491906139b6565b60405180910390f35b34801561023957600080fd5b50610242610805565b60405161024f9190613a61565b60405180910390f35b34801561026457600080fd5b5061027f600480360381019061027a9190613ab9565b610897565b60405161028c9190613b27565b60405180910390f35b3480156102a157600080fd5b506102bc60048036038101906102b79190613b6e565b6108dd565b005b3480156102ca57600080fd5b506102e560048036038101906102e09190613b6e565b6109f4565b005b3480156102f357600080fd5b506102fc610a78565b6040516103099190613d2a565b60405180910390f35b34801561031e57600080fd5b5061033960048036038101906103349190613d4c565b610d40565b005b34801561034757600080fd5b50610362600480360381019061035d9190613d79565b610d84565b005b61037e60048036038101906103799190613dcc565b610de4565b005b34801561038c57600080fd5b506103a760048036038101906103a29190613d79565b61105f565b005b3480156103b557600080fd5b506103be61107f565b6040516103cb9190613d2a565b60405180910390f35b3480156103e057600080fd5b506103fb60048036038101906103f69190613e1f565b6113cb565b005b34801561040957600080fd5b50610424600480360381019061041f9190613ab9565b611576565b6040516104319190613b27565b60405180910390f35b34801561044657600080fd5b50610461600480360381019061045c9190613d4c565b6115fc565b60405161046e9190613e6e565b60405180910390f35b610491600480360381019061048c9190613e89565b6116b3565b005b34801561049f57600080fd5b506104ba60048036038101906104b59190613edc565b6118d0565b005b3480156104c857600080fd5b506104e360048036038101906104de9190613ab9565b611a00565b6040516104f09190613e6e565b60405180910390f35b34801561050557600080fd5b5061050e611b6b565b60405161051b9190613a61565b60405180910390f35b34801561053057600080fd5b5061054b60048036038101906105469190613b6e565b611bfd565b005b34801561055957600080fd5b50610574600480360381019061056f9190613f48565b611c72565b005b34801561058257600080fd5b5061059d60048036038101906105989190613ab9565b611c88565b6040516105ab929190613f97565b60405180910390f35b3480156105c057600080fd5b506105db60048036038101906105d69190613ab9565b611dfc565b6040516105e89190613b27565b60405180910390f35b61060b60048036038101906106069190613ab9565b611e3c565b005b34801561061957600080fd5b50610634600480360381019061062f9190613ab9565b611ed6565b005b34801561064257600080fd5b5061065d600480360381019061065891906140f5565b611f5a565b005b61067960048036038101906106749190613ab9565b611fbc565b005b61069560048036038101906106909190614219565b612242565b6040516106a29190613e6e565b60405180910390f35b3480156106b757600080fd5b506106c0612286565b6040516106cd9190613d2a565b60405180910390f35b3480156106e257600080fd5b506106fd60048036038101906106f89190613ab9565b6125d2565b005b34801561070b57600080fd5b50610714612712565b6040516107219190613e6e565b60405180910390f35b34801561073657600080fd5b50610751600480360381019061074c9190613ab9565b612718565b60405161075e9190613a61565b60405180910390f35b34801561077357600080fd5b5061078e60048036038101906107899190614288565b61282a565b60405161079b91906139b6565b60405180910390f35b6000634906490660e01b7bffffffffffffffffffffffffffffffffffffffffffffffffffffffff1916827bffffffffffffffffffffffffffffffffffffffffffffffffffffffff191614806107fe57506107fd826128be565b5b9050919050565b606060008054610814906142f7565b80601f0160208091040260200160405190810160405280929190818152602001828054610840906142f7565b801561088d5780601f106108625761010080835404028352916020019161088d565b820191906000526020600020905b81548152906001019060200180831161087057829003601f168201915b5050505050905090565b60006108a2826129a0565b6004600083815260200190815260200160002060009054906101000a900473ffffffffffffffffffffffffffffffffffffffff169050919050565b60006108e882611576565b90508073ffffffffffffffffffffffffffffffffffffffff168373ffffffffffffffffffffffffffffffffffffffff1603610958576040517f08c379a000000000000000000000000000000000000000000000000000000000815260040161094f9061439a565b60405180910390fd5b8073ffffffffffffffffffffffffffffffffffffffff166109776129eb565b73ffffffffffffffffffffffffffffffffffffffff1614806109a657506109a5816109a06129eb565b61282a565b5b6109e5576040517f08c379a00000000000000000000000000000000000000000000000000000000081526004016109dc9061442c565b60405180910390fd5b6109ef83836129f3565b505050565b6109fd81611576565b73ffffffffffffffffffffffffffffffffffffffff163373ffffffffffffffffffffffffffffffffffffffff1614610a6a576040517f08c379a0000000000000000000000000000000000000000000000000000000008152600401610a6190614498565b60405180910390fd5b610a7482826108dd565b5050565b60606000610a866008612aac565b90506000610a946009612aac565b610a9e6008612aac565b610aa891906144e7565b90506000808267ffffffffffffffff811115610ac757610ac6613fca565b5b604051908082528060200260200182016040528015610b0057816020015b610aed613881565b815260200190600190039081610ae55790505b50905060005b84811015610d35573073ffffffffffffffffffffffffffffffffffffffff16600d6000600184610b36919061451b565b815260200190815260200160002060030160009054906101000a900473ffffffffffffffffffffffffffffffffffffffff1673ffffffffffffffffffffffffffffffffffffffff1603610d22576000600182610b92919061451b565b90506000600d60008381526020019081526020016000209050806040518060e0016040529081600082015481526020016001820160009054906101000a900473ffffffffffffffffffffffffffffffffffffffff1673ffffffffffffffffffffffffffffffffffffffff1673ffffffffffffffffffffffffffffffffffffffff1681526020016002820160009054906101000a900473ffffffffffffffffffffffffffffffffffffffff1673ffffffffffffffffffffffffffffffffffffffff1673ffffffffffffffffffffffffffffffffffffffff1681526020016003820160009054906101000a900473ffffffffffffffffffffffffffffffffffffffff1673ffffffffffffffffffffffffffffffffffffffff1673ffffffffffffffffffffffffffffffffffffffff16815260200160048201548152602001600582015481526020016006820160009054906101000a900460ff161515151581525050848681518110610d0557610d0461454f565b5b6020026020010181905250600185610d1d919061451b565b945050505b8080610d2d9061457e565b915050610b06565b508094505050505090565b80600c60006101000a81548173ffffffffffffffffffffffffffffffffffffffff021916908373ffffffffffffffffffffffffffffffffffffffff16021790555050565b610d95610d8f6129eb565b82612aba565b610dd4576040517f08c379a0000000000000000000000000000000000000000000000000000000008152600401610dcb90614638565b60405180910390fd5b610ddf838383612b4f565b505050565b60008111610e27576040517f08c379a0000000000000000000000000000000000000000000000000000000008152600401610e1e906146a4565b60405180910390fd5b600a543414610e6b576040517f08c379a0000000000000000000000000000000000000000000000000000000008152600401610e6290614710565b60405180910390fd5b6040518060e001604052808481526020013373ffffffffffffffffffffffffffffffffffffffff1681526020013373ffffffffffffffffffffffffffffffffffffffff1681526020013073ffffffffffffffffffffffffffffffffffffffff16815260200183815260200182815260200160001515815250600d60008581526020019081526020016000206000820151816000015560208201518160010160006101000a81548173ffffffffffffffffffffffffffffffffffffffff021916908373ffffffffffffffffffffffffffffffffffffffff16021790555060408201518160020160006101000a81548173ffffffffffffffffffffffffffffffffffffffff021916908373ffffffffffffffffffffffffffffffffffffffff16021790555060608201518160030160006101000a81548173ffffffffffffffffffffffffffffffffffffffff021916908373ffffffffffffffffffffffffffffffffffffffff1602179055506080820151816004015560a0820151816005015560c08201518160060160006101000a81548160ff021916908315150217905550905050611017333085612b4f565b827fa5d9d913ac4de93e8f5dc9a8834f347d521cd0daf35756b44fe413e9f34019793333308686600060405161105296959493929190614730565b60405180910390a2505050565b61107a83838360405180602001604052806000815250611f5a565b505050565b6060600061108d6008612aac565b905060008060005b83811015611135573373ffffffffffffffffffffffffffffffffffffffff16600d60006001846110c5919061451b565b815260200190815260200160002060020160009054906101000a900473ffffffffffffffffffffffffffffffffffffffff1673ffffffffffffffffffffffffffffffffffffffff16036111225760018361111f919061451b565b92505b808061112d9061457e565b915050611095565b5060008267ffffffffffffffff81111561115257611151613fca565b5b60405190808252806020026020018201604052801561118b57816020015b611178613881565b8152602001906001900390816111705790505b50905060005b848110156113c0573373ffffffffffffffffffffffffffffffffffffffff16600d60006001846111c1919061451b565b815260200190815260200160002060020160009054906101000a900473ffffffffffffffffffffffffffffffffffffffff1673ffffffffffffffffffffffffffffffffffffffff16036113ad57600060018261121d919061451b565b90506000600d60008381526020019081526020016000209050806040518060e0016040529081600082015481526020016001820160009054906101000a900473ffffffffffffffffffffffffffffffffffffffff1673ffffffffffffffffffffffffffffffffffffffff1673ffffffffffffffffffffffffffffffffffffffff1681526020016002820160009054906101000a900473ffffffffffffffffffffffffffffffffffffffff1673ffffffffffffffffffffffffffffffffffffffff1673ffffffffffffffffffffffffffffffffffffffff1681526020016003820160009054906101000a900473ffffffffffffffffffffffffffffffffffffffff1673ffffffffffffffffffffffffffffffffffffffff1673ffffffffffffffffffffffffffffffffffffffff16815260200160048201548152602001600582015481526020016006820160009054906101000a900460ff1615151515815250508486815181106113905761138f61454f565b5b60200260200101819052506001856113a8919061451b565b945050505b80806113b89061457e565b915050611191565b508094505050505090565b600073ffffffffffffffffffffffffffffffffffffffff16600d600084815260200190815260200160002060030160009054906101000a900473ffffffffffffffffffffffffffffffffffffffff1673ffffffffffffffffffffffffffffffffffffffff1603611470576040517f08c379a000000000000000000000000000000000000000000000000000000000815260040161146790614803565b60405180910390fd5b3373ffffffffffffffffffffffffffffffffffffffff16600d600084815260200190815260200160002060020160009054906101000a900473ffffffffffffffffffffffffffffffffffffffff1673ffffffffffffffffffffffffffffffffffffffff1614611514576040517f08c379a000000000000000000000000000000000000000000000000000000000815260040161150b9061486f565b60405180910390fd5b60008111611557576040517f08c379a000000000000000000000000000000000000000000000000000000000815260040161154e906148db565b60405180910390fd5b80600d6000848152602001908152602001600020600501819055505050565b60008061158283612e48565b9050600073ffffffffffffffffffffffffffffffffffffffff168173ffffffffffffffffffffffffffffffffffffffff16036115f3576040517f08c379a00000000000000000000000000000000000000000000000000000000081526004016115ea90614947565b60405180910390fd5b80915050919050565b60008073ffffffffffffffffffffffffffffffffffffffff168273ffffffffffffffffffffffffffffffffffffffff160361166c576040517f08c379a0000000000000000000000000000000000000000000000000000000008152600401611663906149d9565b60405180910390fd5b600360008373ffffffffffffffffffffffffffffffffffffffff1673ffffffffffffffffffffffffffffffffffffffff168152602001908152602001600020549050919050565b3373ffffffffffffffffffffffffffffffffffffffff16600d600085815260200190815260200160002060030160009054906101000a900473ffffffffffffffffffffffffffffffffffffffff1673ffffffffffffffffffffffffffffffffffffffff1614806117705750600c60009054906101000a900473ffffffffffffffffffffffffffffffffffffffff1673ffffffffffffffffffffffffffffffffffffffff163373ffffffffffffffffffffffffffffffffffffffff16145b6117af576040517f08c379a00000000000000000000000000000000000000000000000000000000081526004016117a690614a45565b60405180910390fd5b6000600d600085815260200190815260200160002060060160006101000a81548160ff02191690831515021790555081600d60008581526020019081526020016000206005018190555033600d600085815260200190815260200160002060020160006101000a81548173ffffffffffffffffffffffffffffffffffffffff021916908373ffffffffffffffffffffffffffffffffffffffff16021790555030600d600085815260200190815260200160002060030160006101000a81548173ffffffffffffffffffffffffffffffffffffffff021916908373ffffffffffffffffffffffffffffffffffffffff16021790555060006118af6009612aac565b11156118c0576118bf6009612e85565b5b6118cb813085612b4f565b505050565b3073ffffffffffffffffffffffffffffffffffffffff166342842e0e3083856040518463ffffffff1660e01b815260040161190d93929190614a65565b600060405180830381600087803b15801561192757600080fd5b505af115801561193b573d6000803e3d6000fd5b5050505080600d600084815260200190815260200160002060030160006101000a81548173ffffffffffffffffffffffffffffffffffffffff021916908373ffffffffffffffffffffffffffffffffffffffff1602179055506001600d600084815260200190815260200160002060060160006101000a81548160ff0219169083151502179055507f20665ee57a5e13af162123968d777ccebe86531a21e53d08afc78138a950192d82826040516119f4929190614a9c565b60405180910390a15050565b600080600d60008481526020019081526020016000206040518060e0016040529081600082015481526020016001820160009054906101000a900473ffffffffffffffffffffffffffffffffffffffff1673ffffffffffffffffffffffffffffffffffffffff1673ffffffffffffffffffffffffffffffffffffffff1681526020016002820160009054906101000a900473ffffffffffffffffffffffffffffffffffffffff1673ffffffffffffffffffffffffffffffffffffffff1673ffffffffffffffffffffffffffffffffffffffff1681526020016003820160009054906101000a900473ffffffffffffffffffffffffffffffffffffffff1673ffffffffffffffffffffffffffffffffffffffff1673ffffffffffffffffffffffffffffffffffffffff16815260200160048201548152602001600582015481526020016006820160009054906101000a900460ff16151515158152505090508060a00151915050919050565b606060018054611b7a906142f7565b80601f0160208091040260200160405190810160405280929190818152602001828054611ba6906142f7565b8015611bf35780601f10611bc857610100808354040283529160200191611bf3565b820191906000526020600020905b815481529060010190602001808311611bd657829003601f168201915b5050505050905090565b60008290508073ffffffffffffffffffffffffffffffffffffffff1663b9a2de3a836040518263ffffffff1660e01b8152600401611c3b9190613e6e565b600060405180830381600087803b158015611c5557600080fd5b505af1158015611c69573d6000803e3d6000fd5b50505050505050565b611c84611c7d6129eb565b8383612ee1565b5050565b6000806000600d60008581526020019081526020016000206040518060e0016040529081600082015481526020016001820160009054906101000a900473ffffffffffffffffffffffffffffffffffffffff1673ffffffffffffffffffffffffffffffffffffffff1673ffffffffffffffffffffffffffffffffffffffff1681526020016002820160009054906101000a900473ffffffffffffffffffffffffffffffffffffffff1673ffffffffffffffffffffffffffffffffffffffff1673ffffffffffffffffffffffffffffffffffffffff1681526020016003820160009054906101000a900473ffffffffffffffffffffffffffffffffffffffff1673ffffffffffffffffffffffffffffffffffffffff1673ffffffffffffffffffffffffffffffffffffffff16815260200160048201548152602001600582015481526020016006820160009054906101000a900460ff1615151515815250509050806080015181602001519250925050915091565b6000600d600083815260200190815260200160002060020160009054906101000a900473ffffffffffffffffffffffffffffffffffffffff169050919050565b600b60009054906101000a900473ffffffffffffffffffffffffffffffffffffffff1673ffffffffffffffffffffffffffffffffffffffff163373ffffffffffffffffffffffffffffffffffffffff1614611ecc576040517f08c379a0000000000000000000000000000000000000000000000000000000008152600401611ec390614b37565b60405180910390fd5b80600a8190555050565b611edf81611576565b73ffffffffffffffffffffffffffffffffffffffff163373ffffffffffffffffffffffffffffffffffffffff1614611f4c576040517f08c379a0000000000000000000000000000000000000000000000000000000008152600401611f4390614bc9565b60405180910390fd5b611f576000826108dd565b50565b611f6b611f656129eb565b83612aba565b611faa576040517f08c379a0000000000000000000000000000000000000000000000000000000008152600401611fa190614638565b60405180910390fd5b611fb68484848461304d565b50505050565b6000600d6000838152602001908152602001600020600501549050803414612019576040517f08c379a000000000000000000000000000000000000000000000000000000000815260040161201090614c5b565b60405180910390fd5b600d600083815260200190815260200160002060020160009054906101000a900473ffffffffffffffffffffffffffffffffffffffff1673ffffffffffffffffffffffffffffffffffffffff163373ffffffffffffffffffffffffffffffffffffffff16036120bd576040517f08c379a00000000000000000000000000000000000000000000000000000000081526004016120b490614ced565b60405180910390fd5b33600d600084815260200190815260200160002060030160006101000a81548173ffffffffffffffffffffffffffffffffffffffff021916908373ffffffffffffffffffffffffffffffffffffffff1602179055506001600d600084815260200190815260200160002060060160006101000a81548160ff02191690831515021790555061214b60096130a9565b612156303384612b4f565b600b60009054906101000a900473ffffffffffffffffffffffffffffffffffffffff1673ffffffffffffffffffffffffffffffffffffffff166108fc600a549081150290604051600060405180830381858888f193505050501580156121c0573d6000803e3d6000fd5b50600d600083815260200190815260200160002060020160009054906101000a900473ffffffffffffffffffffffffffffffffffffffff1673ffffffffffffffffffffffffffffffffffffffff166108fc349081150290604051600060405180830381858888f1935050505015801561223d573d6000803e3d6000fd5b505050565b600061224e60086130a9565b600061225a6008612aac565b905061226633826130bf565b61227081866132dc565b61227b818585610de4565b809150509392505050565b606060006122946008612aac565b905060008060005b8381101561233c573373ffffffffffffffffffffffffffffffffffffffff16600d60006001846122cc919061451b565b815260200190815260200160002060030160009054906101000a900473ffffffffffffffffffffffffffffffffffffffff1673ffffffffffffffffffffffffffffffffffffffff160361232957600183612326919061451b565b92505b80806123349061457e565b91505061229c565b5060008267ffffffffffffffff81111561235957612358613fca565b5b60405190808252806020026020018201604052801561239257816020015b61237f613881565b8152602001906001900390816123775790505b50905060005b848110156125c7573373ffffffffffffffffffffffffffffffffffffffff16600d60006001846123c8919061451b565b815260200190815260200160002060030160009054906101000a900473ffffffffffffffffffffffffffffffffffffffff1673ffffffffffffffffffffffffffffffffffffffff16036125b4576000600182612424919061451b565b90506000600d60008381526020019081526020016000209050806040518060e0016040529081600082015481526020016001820160009054906101000a900473ffffffffffffffffffffffffffffffffffffffff1673ffffffffffffffffffffffffffffffffffffffff1673ffffffffffffffffffffffffffffffffffffffff1681526020016002820160009054906101000a900473ffffffffffffffffffffffffffffffffffffffff1673ffffffffffffffffffffffffffffffffffffffff1673ffffffffffffffffffffffffffffffffffffffff1681526020016003820160009054906101000a900473ffffffffffffffffffffffffffffffffffffffff1673ffffffffffffffffffffffffffffffffffffffff1673ffffffffffffffffffffffffffffffffffffffff16815260200160048201548152602001600582015481526020016006820160009054906101000a900460ff1615151515815250508486815181106125975761259661454f565b5b60200260200101819052506001856125af919061451b565b945050505b80806125bf9061457e565b915050612398565b508094505050505090565b600d600082815260200190815260200160002060020160009054906101000a900473ffffffffffffffffffffffffffffffffffffffff1673ffffffffffffffffffffffffffffffffffffffff163373ffffffffffffffffffffffffffffffffffffffff1614612676576040517f08c379a000000000000000000000000000000000000000000000000000000000815260040161266d90614d59565b60405180910390fd5b612681303383612b4f565b33600d600083815260200190815260200160002060030160006101000a81548173ffffffffffffffffffffffffffffffffffffffff021916908373ffffffffffffffffffffffffffffffffffffffff1602179055506001600d600083815260200190815260200160002060060160006101000a81548160ff02191690831515021790555061270f60096130a9565b50565b600a5481565b6060612723826129a0565b6000600660008481526020019081526020016000208054612743906142f7565b80601f016020809104026020016040519081016040528092919081815260200182805461276f906142f7565b80156127bc5780601f10612791576101008083540402835291602001916127bc565b820191906000526020600020905b81548152906001019060200180831161279f57829003601f168201915b5050505050905060006127cd613380565b905060008151036127e2578192505050612825565b6000825111156128175780826040516020016127ff929190614db5565b60405160208183030381529060405292505050612825565b61282084613397565b925050505b919050565b6000600560008473ffffffffffffffffffffffffffffffffffffffff1673ffffffffffffffffffffffffffffffffffffffff16815260200190815260200160002060008373ffffffffffffffffffffffffffffffffffffffff1673ffffffffffffffffffffffffffffffffffffffff16815260200190815260200160002060009054906101000a900460ff16905092915050565b60007f80ac58cd000000000000000000000000000000000000000000000000000000007bffffffffffffffffffffffffffffffffffffffffffffffffffffffff1916827bffffffffffffffffffffffffffffffffffffffffffffffffffffffff1916148061298957507f5b5e139f000000000000000000000000000000000000000000000000000000007bffffffffffffffffffffffffffffffffffffffffffffffffffffffff1916827bffffffffffffffffffffffffffffffffffffffffffffffffffffffff1916145b806129995750612998826133ff565b5b9050919050565b6129a981613469565b6129e8576040517f08c379a00000000000000000000000000000000000000000000000000000000081526004016129df90614947565b60405180910390fd5b50565b600033905090565b816004600083815260200190815260200160002060006101000a81548173ffffffffffffffffffffffffffffffffffffffff021916908373ffffffffffffffffffffffffffffffffffffffff160217905550808273ffffffffffffffffffffffffffffffffffffffff16612a6683611576565b73ffffffffffffffffffffffffffffffffffffffff167f8c5be1e5ebec7d5bd14f71427d1e84f3dd0314c0f7b2291e5b200ac8c7c3b92560405160405180910390a45050565b600081600001549050919050565b600080612ac683611576565b90508073ffffffffffffffffffffffffffffffffffffffff168473ffffffffffffffffffffffffffffffffffffffff161480612b085750612b07818561282a565b5b80612b4657508373ffffffffffffffffffffffffffffffffffffffff16612b2e84610897565b73ffffffffffffffffffffffffffffffffffffffff16145b91505092915050565b8273ffffffffffffffffffffffffffffffffffffffff16612b6f82611576565b73ffffffffffffffffffffffffffffffffffffffff1614612bc5576040517f08c379a0000000000000000000000000000000000000000000000000000000008152600401612bbc90614e4b565b60405180910390fd5b600073ffffffffffffffffffffffffffffffffffffffff168273ffffffffffffffffffffffffffffffffffffffff1603612c34576040517f08c379a0000000000000000000000000000000000000000000000000000000008152600401612c2b90614edd565b60405180910390fd5b612c4183838360016134aa565b8273ffffffffffffffffffffffffffffffffffffffff16612c6182611576565b73ffffffffffffffffffffffffffffffffffffffff1614612cb7576040517f08c379a0000000000000000000000000000000000000000000000000000000008152600401612cae90614e4b565b60405180910390fd5b6004600082815260200190815260200160002060006101000a81549073ffffffffffffffffffffffffffffffffffffffff02191690556001600360008573ffffffffffffffffffffffffffffffffffffffff1673ffffffffffffffffffffffffffffffffffffffff168152602001908152602001600020600082825403925050819055506001600360008473ffffffffffffffffffffffffffffffffffffffff1673ffffffffffffffffffffffffffffffffffffffff16815260200190815260200160002060008282540192505081905550816002600083815260200190815260200160002060006101000a81548173ffffffffffffffffffffffffffffffffffffffff021916908373ffffffffffffffffffffffffffffffffffffffff160217905550808273ffffffffffffffffffffffffffffffffffffffff168473ffffffffffffffffffffffffffffffffffffffff167fddf252ad1be2c89b69c2b068fc378daa952ba7f163c4a11628f55a4df523b3ef60405160405180910390a4612e4383838360016134b0565b505050565b60006002600083815260200190815260200160002060009054906101000a900473ffffffffffffffffffffffffffffffffffffffff169050919050565b60008160000154905060008111612ed1576040517f08c379a0000000000000000000000000000000000000000000000000000000008152600401612ec890614f49565b60405180910390fd5b6001810382600001819055505050565b8173ffffffffffffffffffffffffffffffffffffffff168373ffffffffffffffffffffffffffffffffffffffff1603612f4f576040517f08c379a0000000000000000000000000000000000000000000000000000000008152600401612f4690614fb5565b60405180910390fd5b80600560008573ffffffffffffffffffffffffffffffffffffffff1673ffffffffffffffffffffffffffffffffffffffff16815260200190815260200160002060008473ffffffffffffffffffffffffffffffffffffffff1673ffffffffffffffffffffffffffffffffffffffff16815260200190815260200160002060006101000a81548160ff0219169083151502179055508173ffffffffffffffffffffffffffffffffffffffff168373ffffffffffffffffffffffffffffffffffffffff167f17307eab39ab6107e8899845ad3d59bd9653f200f220920489ca2b5937696c318360405161304091906139b6565b60405180910390a3505050565b613058848484612b4f565b613064848484846134b6565b6130a3576040517f08c379a000000000000000000000000000000000000000000000000000000000815260040161309a90615047565b60405180910390fd5b50505050565b6001816000016000828254019250508190555050565b600073ffffffffffffffffffffffffffffffffffffffff168273ffffffffffffffffffffffffffffffffffffffff160361312e576040517f08c379a0000000000000000000000000000000000000000000000000000000008152600401613125906150b3565b60405180910390fd5b61313781613469565b15613177576040517f08c379a000000000000000000000000000000000000000000000000000000000815260040161316e9061511f565b60405180910390fd5b6131856000838360016134aa565b61318e81613469565b156131ce576040517f08c379a00000000000000000000000000000000000000000000000000000000081526004016131c59061511f565b60405180910390fd5b6001600360008473ffffffffffffffffffffffffffffffffffffffff1673ffffffffffffffffffffffffffffffffffffffff16815260200190815260200160002060008282540192505081905550816002600083815260200190815260200160002060006101000a81548173ffffffffffffffffffffffffffffffffffffffff021916908373ffffffffffffffffffffffffffffffffffffffff160217905550808273ffffffffffffffffffffffffffffffffffffffff16600073ffffffffffffffffffffffffffffffffffffffff167fddf252ad1be2c89b69c2b068fc378daa952ba7f163c4a11628f55a4df523b3ef60405160405180910390a46132d86000838360016134b0565b5050565b6132e582613469565b613324576040517f08c379a000000000000000000000000000000000000000000000000000000000815260040161331b906151b1565b60405180910390fd5b80600660008481526020019081526020016000209081613344919061537d565b507ff8e1a15aba9398e019f0b49df1a4fde98ee17ae345cb5f6b5e2c27f5033e8ce7826040516133749190613e6e565b60405180910390a15050565b606060405180602001604052806000815250905090565b60606133a2826129a0565b60006133ac613380565b905060008151116133cc57604051806020016040528060008152506133f7565b806133d68461363d565b6040516020016133e7929190614db5565b6040516020818303038152906040525b915050919050565b60007f01ffc9a7000000000000000000000000000000000000000000000000000000007bffffffffffffffffffffffffffffffffffffffffffffffffffffffff1916827bffffffffffffffffffffffffffffffffffffffffffffffffffffffff1916149050919050565b60008073ffffffffffffffffffffffffffffffffffffffff1661348b83612e48565b73ffffffffffffffffffffffffffffffffffffffff1614159050919050565b50505050565b50505050565b60006134d78473ffffffffffffffffffffffffffffffffffffffff1661370b565b15613630578373ffffffffffffffffffffffffffffffffffffffff1663150b7a026135006129eb565b8786866040518563ffffffff1660e01b815260040161352294939291906154a4565b6020604051808303816000875af192505050801561355e57506040513d601f19601f8201168201806040525081019061355b9190615505565b60015b6135e0573d806000811461358e576040519150601f19603f3d011682016040523d82523d6000602084013e613593565b606091505b5060008151036135d8576040517f08c379a00000000000000000000000000000000000000000000000000000000081526004016135cf90615047565b60405180910390fd5b805181602001fd5b63150b7a0260e01b7bffffffffffffffffffffffffffffffffffffffffffffffffffffffff1916817bffffffffffffffffffffffffffffffffffffffffffffffffffffffff191614915050613635565b600190505b949350505050565b60606000600161364c8461372e565b01905060008167ffffffffffffffff81111561366b5761366a613fca565b5b6040519080825280601f01601f19166020018201604052801561369d5781602001600182028036833780820191505090505b509050600082602001820190505b600115613700578080600190039150507f3031323334353637383961626364656600000000000000000000000000000000600a86061a8153600a85816136f4576136f3615532565b5b049450600085036136ab575b819350505050919050565b6000808273ffffffffffffffffffffffffffffffffffffffff163b119050919050565b600080600090507a184f03e93ff9f4daa797ed6e38ed64bf6a1f010000000000000000831061378c577a184f03e93ff9f4daa797ed6e38ed64bf6a1f010000000000000000838161378257613781615532565b5b0492506040810190505b6d04ee2d6d415b85acef810000000083106137c9576d04ee2d6d415b85acef810000000083816137bf576137be615532565b5b0492506020810190505b662386f26fc1000083106137f857662386f26fc1000083816137ee576137ed615532565b5b0492506010810190505b6305f5e1008310613821576305f5e100838161381757613816615532565b5b0492506008810190505b612710831061384657612710838161383c5761383b615532565b5b0492506004810190505b60648310613869576064838161385f5761385e615532565b5b0492506002810190505b600a8310613878576001810190505b80915050919050565b6040518060e0016040528060008152602001600073ffffffffffffffffffffffffffffffffffffffff168152602001600073ffffffffffffffffffffffffffffffffffffffff168152602001600073ffffffffffffffffffffffffffffffffffffffff16815260200160008152602001600081526020016000151581525090565b6000604051905090565b600080fd5b600080fd5b60007fffffffff0000000000000000000000000000000000000000000000000000000082169050919050565b61394b81613916565b811461395657600080fd5b50565b60008135905061396881613942565b92915050565b6000602082840312156139845761398361390c565b5b600061399284828501613959565b91505092915050565b60008115159050919050565b6139b08161399b565b82525050565b60006020820190506139cb60008301846139a7565b92915050565b600081519050919050565b600082825260208201905092915050565b60005b83811015613a0b5780820151818401526020810190506139f0565b60008484015250505050565b6000601f19601f8301169050919050565b6000613a33826139d1565b613a3d81856139dc565b9350613a4d8185602086016139ed565b613a5681613a17565b840191505092915050565b60006020820190508181036000830152613a7b8184613a28565b905092915050565b6000819050919050565b613a9681613a83565b8114613aa157600080fd5b50565b600081359050613ab381613a8d565b92915050565b600060208284031215613acf57613ace61390c565b5b6000613add84828501613aa4565b91505092915050565b600073ffffffffffffffffffffffffffffffffffffffff82169050919050565b6000613b1182613ae6565b9050919050565b613b2181613b06565b82525050565b6000602082019050613b3c6000830184613b18565b92915050565b613b4b81613b06565b8114613b5657600080fd5b50565b600081359050613b6881613b42565b92915050565b60008060408385031215613b8557613b8461390c565b5b6000613b9385828601613b59565b9250506020613ba485828601613aa4565b9150509250929050565b600081519050919050565b600082825260208201905092915050565b6000819050602082019050919050565b613be381613a83565b82525050565b6000613bf482613ae6565b9050919050565b613c0481613be9565b82525050565b613c138161399b565b82525050565b60e082016000820151613c2f6000850182613bda565b506020820151613c426020850182613bfb565b506040820151613c556040850182613bfb565b506060820151613c686060850182613bfb565b506080820151613c7b6080850182613bda565b5060a0820151613c8e60a0850182613bda565b5060c0820151613ca160c0850182613c0a565b50505050565b6000613cb38383613c19565b60e08301905092915050565b6000602082019050919050565b6000613cd782613bae565b613ce18185613bb9565b9350613cec83613bca565b8060005b83811015613d1d578151613d048882613ca7565b9750613d0f83613cbf565b925050600181019050613cf0565b5085935050505092915050565b60006020820190508181036000830152613d448184613ccc565b905092915050565b600060208284031215613d6257613d6161390c565b5b6000613d7084828501613b59565b91505092915050565b600080600060608486031215613d9257613d9161390c565b5b6000613da086828701613b59565b9350506020613db186828701613b59565b9250506040613dc286828701613aa4565b9150509250925092565b600080600060608486031215613de557613de461390c565b5b6000613df386828701613aa4565b9350506020613e0486828701613aa4565b9250506040613e1586828701613aa4565b9150509250925092565b60008060408385031215613e3657613e3561390c565b5b6000613e4485828601613aa4565b9250506020613e5585828601613aa4565b9150509250929050565b613e6881613a83565b82525050565b6000602082019050613e836000830184613e5f565b92915050565b600080600060608486031215613ea257613ea161390c565b5b6000613eb086828701613aa4565b9350506020613ec186828701613aa4565b9250506040613ed286828701613b59565b9150509250925092565b60008060408385031215613ef357613ef261390c565b5b6000613f0185828601613aa4565b9250506020613f1285828601613b59565b9150509250929050565b613f258161399b565b8114613f3057600080fd5b50565b600081359050613f4281613f1c565b92915050565b60008060408385031215613f5f57613f5e61390c565b5b6000613f6d85828601613b59565b9250506020613f7e85828601613f33565b9150509250929050565b613f9181613be9565b82525050565b6000604082019050613fac6000830185613e5f565b613fb96020830184613f88565b9392505050565b600080fd5b600080fd5b7f4e487b7100000000000000000000000000000000000000000000000000000000600052604160045260246000fd5b61400282613a17565b810181811067ffffffffffffffff8211171561402157614020613fca565b5b80604052505050565b6000614034613902565b90506140408282613ff9565b919050565b600067ffffffffffffffff8211156140605761405f613fca565b5b61406982613a17565b9050602081019050919050565b82818337600083830152505050565b600061409861409384614045565b61402a565b9050828152602081018484840111156140b4576140b3613fc5565b5b6140bf848285614076565b509392505050565b600082601f8301126140dc576140db613fc0565b5b81356140ec848260208601614085565b91505092915050565b6000806000806080858703121561410f5761410e61390c565b5b600061411d87828801613b59565b945050602061412e87828801613b59565b935050604061413f87828801613aa4565b925050606085013567ffffffffffffffff8111156141605761415f613911565b5b61416c878288016140c7565b91505092959194509250565b600067ffffffffffffffff82111561419357614192613fca565b5b61419c82613a17565b9050602081019050919050565b60006141bc6141b784614178565b61402a565b9050828152602081018484840111156141d8576141d7613fc5565b5b6141e3848285614076565b509392505050565b600082601f830112614200576141ff613fc0565b5b81356142108482602086016141a9565b91505092915050565b6000806000606084860312156142325761423161390c565b5b600084013567ffffffffffffffff8111156142505761424f613911565b5b61425c868287016141eb565b935050602061426d86828701613aa4565b925050604061427e86828701613aa4565b9150509250925092565b6000806040838503121561429f5761429e61390c565b5b60006142ad85828601613b59565b92505060206142be85828601613b59565b9150509250929050565b7f4e487b7100000000000000000000000000000000000000000000000000000000600052602260045260246000fd5b6000600282049050600182168061430f57607f821691505b602082108103614322576143216142c8565b5b50919050565b7f4552433732313a20617070726f76616c20746f2063757272656e74206f776e6560008201527f7200000000000000000000000000000000000000000000000000000000000000602082015250565b60006143846021836139dc565b915061438f82614328565b604082019050919050565b600060208201905081810360008301526143b381614377565b9050919050565b7f4552433732313a20617070726f76652063616c6c6572206973206e6f7420746f60008201527f6b656e206f776e6572206f7220617070726f76656420666f7220616c6c000000602082015250565b6000614416603d836139dc565b9150614421826143ba565b604082019050919050565b6000602082019050818103600083015261444581614409565b9050919050565b7f4f6e6c7920746865206f776e65722063616e206769766520617070726f76616c600082015250565b60006144826020836139dc565b915061448d8261444c565b602082019050919050565b600060208201905081810360008301526144b181614475565b9050919050565b7f4e487b7100000000000000000000000000000000000000000000000000000000600052601160045260246000fd5b60006144f282613a83565b91506144fd83613a83565b9250828203905081811115614515576145146144b8565b5b92915050565b600061452682613a83565b915061453183613a83565b9250828201905080821115614549576145486144b8565b5b92915050565b7f4e487b7100000000000000000000000000000000000000000000000000000000600052603260045260246000fd5b600061458982613a83565b91507fffffffffffffffffffffffffffffffffffffffffffffffffffffffffffffffff82036145bb576145ba6144b8565b5b600182019050919050565b7f4552433732313a2063616c6c6572206973206e6f7420746f6b656e206f776e6560008201527f72206f7220617070726f76656400000000000000000000000000000000000000602082015250565b6000614622602d836139dc565b915061462d826145c6565b604082019050919050565b6000602082019050818103600083015261465181614615565b9050919050565b7f5072696365206d757374206265206174206c6561737420312077656900000000600082015250565b600061468e601c836139dc565b915061469982614658565b602082019050919050565b600060208201905081810360008301526146bd81614681565b9050919050565b7f5072696365206d757374206265207061696420696e2066756c6c000000000000600082015250565b60006146fa601a836139dc565b9150614705826146c4565b602082019050919050565b60006020820190508181036000830152614729816146ed565b9050919050565b600060c0820190506147456000830189613b18565b6147526020830188613b18565b61475f6040830187613b18565b61476c6060830186613e5f565b6147796080830185613e5f565b61478660a08301846139a7565b979650505050505050565b7f4e465420646f6573206e6f7420657869737420696e206d61726b6574706c616360008201527f6500000000000000000000000000000000000000000000000000000000000000602082015250565b60006147ed6021836139dc565b91506147f882614791565b604082019050919050565b6000602082019050818103600083015261481c816147e0565b9050919050565b7f43616c6c6572206973206e6f7420746865206f776e6572000000000000000000600082015250565b60006148596017836139dc565b915061486482614823565b602082019050919050565b600060208201905081810360008301526148888161484c565b9050919050565b7f5072696365206d7573742062652067726561746572207468616e207a65726f00600082015250565b60006148c5601f836139dc565b91506148d08261488f565b602082019050919050565b600060208201905081810360008301526148f4816148b8565b9050919050565b7f4552433732313a20696e76616c696420746f6b656e2049440000000000000000600082015250565b60006149316018836139dc565b915061493c826148fb565b602082019050919050565b6000602082019050818103600083015261496081614924565b9050919050565b7f4552433732313a2061646472657373207a65726f206973206e6f74206120766160008201527f6c6964206f776e65720000000000000000000000000000000000000000000000602082015250565b60006149c36029836139dc565b91506149ce82614967565b604082019050919050565b600060208201905081810360008301526149f2816149b6565b9050919050565b7f4f6e6c79206f776e65722063616e2072656c697374204e465400000000000000600082015250565b6000614a2f6019836139dc565b9150614a3a826149f9565b602082019050919050565b60006020820190508181036000830152614a5e81614a22565b9050919050565b6000606082019050614a7a6000830186613b18565b614a876020830185613b18565b614a946040830184613e5f565b949350505050565b6000604082019050614ab16000830185613e5f565b614abe6020830184613b18565b9392505050565b7f6f6e6c79206f776e6572206f662074686520636f6e74726163742063616e207560008201527f706461746520746865206c697374696e67207072696365000000000000000000602082015250565b6000614b216037836139dc565b9150614b2c82614ac5565b604082019050919050565b60006020820190508181036000830152614b5081614b14565b9050919050565b7f4f6e6c7920746865206f776e65722063616e207265766f6b6520617070726f7660008201527f616c000000000000000000000000000000000000000000000000000000000000602082015250565b6000614bb36022836139dc565b9150614bbe82614b57565b604082019050919050565b60006020820190508181036000830152614be281614ba6565b9050919050565b7f506c65617365207375626d6974207468652061736b696e67207072696365206960008201527f6e206f7264657220746f20636f6d706c65746520746865207075726368617365602082015250565b6000614c456040836139dc565b9150614c5082614be9565b604082019050919050565b60006020820190508181036000830152614c7481614c38565b9050919050565b7f557365722063616e6e6f74207075726368617365207468656972206f776e204e60008201527f4654000000000000000000000000000000000000000000000000000000000000602082015250565b6000614cd76022836139dc565b9150614ce282614c7b565b604082019050919050565b60006020820190508181036000830152614d0681614cca565b9050919050565b7f4f6e6c7920746f6b656e2073656c6c65722063616e2064656c69737400000000600082015250565b6000614d43601c836139dc565b9150614d4e82614d0d565b602082019050919050565b60006020820190508181036000830152614d7281614d36565b9050919050565b600081905092915050565b6000614d8f826139d1565b614d998185614d79565b9350614da98185602086016139ed565b80840191505092915050565b6000614dc18285614d84565b9150614dcd8284614d84565b91508190509392505050565b7f4552433732313a207472616e736665722066726f6d20696e636f72726563742060008201527f6f776e6572000000000000000000000000000000000000000000000000000000602082015250565b6000614e356025836139dc565b9150614e4082614dd9565b604082019050919050565b60006020820190508181036000830152614e6481614e28565b9050919050565b7f4552433732313a207472616e7366657220746f20746865207a65726f2061646460008201527f7265737300000000000000000000000000000000000000000000000000000000602082015250565b6000614ec76024836139dc565b9150614ed282614e6b565b604082019050919050565b60006020820190508181036000830152614ef681614eba565b9050919050565b7f436f756e7465723a2064656372656d656e74206f766572666c6f770000000000600082015250565b6000614f33601b836139dc565b9150614f3e82614efd565b602082019050919050565b60006020820190508181036000830152614f6281614f26565b9050919050565b7f4552433732313a20617070726f766520746f2063616c6c657200000000000000600082015250565b6000614f9f6019836139dc565b9150614faa82614f69565b602082019050919050565b60006020820190508181036000830152614fce81614f92565b9050919050565b7f4552433732313a207472616e7366657220746f206e6f6e20455243373231526560008201527f63656976657220696d706c656d656e7465720000000000000000000000000000602082015250565b60006150316032836139dc565b915061503c82614fd5565b604082019050919050565b6000602082019050818103600083015261506081615024565b9050919050565b7f4552433732313a206d696e7420746f20746865207a65726f2061646472657373600082015250565b600061509d6020836139dc565b91506150a882615067565b602082019050919050565b600060208201905081810360008301526150cc81615090565b9050919050565b7f4552433732313a20746f6b656e20616c7265616479206d696e74656400000000600082015250565b6000615109601c836139dc565b9150615114826150d3565b602082019050919050565b60006020820190508181036000830152615138816150fc565b9050919050565b7f45524337323155524953746f726167653a2055524920736574206f66206e6f6e60008201527f6578697374656e7420746f6b656e000000000000000000000000000000000000602082015250565b600061519b602e836139dc565b91506151a68261513f565b604082019050919050565b600060208201905081810360008301526151ca8161518e565b9050919050565b60008190508160005260206000209050919050565b60006020601f8301049050919050565b600082821b905092915050565b6000600883026152337fffffffffffffffffffffffffffffffffffffffffffffffffffffffffffffffff826151f6565b61523d86836151f6565b95508019841693508086168417925050509392505050565b6000819050919050565b600061527a61527561527084613a83565b615255565b613a83565b9050919050565b6000819050919050565b6152948361525f565b6152a86152a082615281565b848454615203565b825550505050565b600090565b6152bd6152b0565b6152c881848461528b565b505050565b5b818110156152ec576152e16000826152b5565b6001810190506152ce565b5050565b601f82111561533157615302816151d1565b61530b846151e6565b8101602085101561531a578190505b61532e615326856151e6565b8301826152cd565b50505b505050565b600082821c905092915050565b600061535460001984600802615336565b1980831691505092915050565b600061536d8383615343565b9150826002028217905092915050565b615386826139d1565b67ffffffffffffffff81111561539f5761539e613fca565b5b6153a982546142f7565b6153b48282856152f0565b600060209050601f8311600181146153e757600084156153d5578287015190505b6153df8582615361565b865550615447565b601f1984166153f5866151d1565b60005b8281101561541d578489015182556001820191506020850194506020810190506153f8565b8683101561543a5784890151615436601f891682615343565b8355505b6001600288020188555050505b505050505050565b600081519050919050565b600082825260208201905092915050565b60006154768261544f565b615480818561545a565b93506154908185602086016139ed565b61549981613a17565b840191505092915050565b60006080820190506154b96000830187613b18565b6154c66020830186613b18565b6154d36040830185613e5f565b81810360608301526154e5818461546b565b905095945050505050565b6000815190506154ff81613942565b92915050565b60006020828403121561551b5761551a61390c565b5b6000615529848285016154f0565b91505092915050565b7f4e487b7100000000000000000000000000000000000000000000000000000000600052601260045260246000fdfea2646970667358221220d751918dc00278a24b446da9e3820a9e4a1fa13c525309e7abca798b4e00dccd64736f6c63430008130033",
  "linkReferences": {},
  "deployedLinkReferences": {}
}