{
  "_format": "hh-sol-artifact-1",
  "contractName": "Marketplace",
  "sourceName": "contracts/Marketplace.sol",
  "abi": [
    {
      "inputs": [],
      "stateMutability": "nonpayable",
      "type": "constructor"
    },
    {
      "anonymous": false,
      "inputs": [
        {
          "indexed": true,
          "internalType": "address",
          "name": "owner",
          "type": "address"
        },
        {
          "indexed": true,
          "internalType": "address",
          "name": "approved",
          "type": "address"
        },
        {
          "indexed": true,
          "internalType": "uint256",
          "name": "tokenId",
          "type": "uint256"
        }
      ],
      "name": "Approval",
      "type": "event"
    },
    {
      "anonymous": false,
      "inputs": [
        {
          "indexed": true,
          "internalType": "address",
          "name": "owner",
          "type": "address"
        },
        {
          "indexed": true,
          "internalType": "address",
          "name": "operator",
          "type": "address"
        },
        {
          "indexed": false,
          "internalType": "bool",
          "name": "approved",
          "type": "bool"
        }
      ],
      "name": "ApprovalForAll",
      "type": "event"
    },
    {
      "anonymous": false,
      "inputs": [
        {
          "indexed": false,
          "internalType": "uint256",
          "name": "_fromTokenId",
          "type": "uint256"
        },
        {
          "indexed": false,
          "internalType": "uint256",
          "name": "_toTokenId",
          "type": "uint256"
        }
      ],
      "name": "BatchMetadataUpdate",
      "type": "event"
    },
    {
      "anonymous": false,
      "inputs": [
        {
          "indexed": false,
          "internalType": "uint256",
          "name": "amount",
          "type": "uint256"
        },
        {
          "indexed": false,
          "internalType": "address",
          "name": "targetWallet",
          "type": "address"
        }
      ],
      "name": "FundsWithdrawn",
      "type": "event"
    },
    {
      "anonymous": false,
      "inputs": [
        {
          "indexed": true,
          "internalType": "uint256",
          "name": "tokenId",
          "type": "uint256"
        },
        {
          "indexed": false,
          "internalType": "address",
          "name": "originalOwner",
          "type": "address"
        },
        {
          "indexed": false,
          "internalType": "address",
          "name": "seller",
          "type": "address"
        },
        {
          "indexed": false,
          "internalType": "address",
          "name": "owner",
          "type": "address"
        },
        {
          "indexed": false,
          "internalType": "uint256",
          "name": "royaltyPercentage",
          "type": "uint256"
        },
        {
          "indexed": false,
          "internalType": "uint256",
          "name": "price",
          "type": "uint256"
        },
        {
          "indexed": false,
          "internalType": "bool",
          "name": "auction",
          "type": "bool"
        },
        {
          "indexed": false,
          "internalType": "bool",
          "name": "sold",
          "type": "bool"
        }
      ],
      "name": "MarketItemCreated",
      "type": "event"
    },
    {
      "anonymous": false,
      "inputs": [
        {
          "indexed": false,
          "internalType": "uint256",
          "name": "_tokenId",
          "type": "uint256"
        }
      ],
      "name": "MetadataUpdate",
      "type": "event"
    },
    {
      "anonymous": false,
      "inputs": [
        {
          "indexed": false,
          "internalType": "uint256",
          "name": "nftId",
          "type": "uint256"
        },
        {
          "indexed": false,
          "internalType": "address",
          "name": "auctionWinner",
          "type": "address"
        }
      ],
      "name": "NFTTransferred",
      "type": "event"
    },
    {
      "anonymous": false,
      "inputs": [
        {
          "indexed": true,
          "internalType": "address",
          "name": "from",
          "type": "address"
        },
        {
          "indexed": true,
          "internalType": "address",
          "name": "to",
          "type": "address"
        },
        {
          "indexed": true,
          "internalType": "uint256",
          "name": "tokenId",
          "type": "uint256"
        }
      ],
      "name": "Transfer",
      "type": "event"
    },
    {
      "inputs": [
        {
          "internalType": "address",
          "name": "to",
          "type": "address"
        },
        {
          "internalType": "uint256",
          "name": "tokenId",
          "type": "uint256"
        }
      ],
      "name": "approve",
      "outputs": [],
      "stateMutability": "nonpayable",
      "type": "function"
    },
    {
      "inputs": [
        {
          "internalType": "address",
          "name": "owner",
          "type": "address"
        }
      ],
      "name": "balanceOf",
      "outputs": [
        {
          "internalType": "uint256",
          "name": "",
          "type": "uint256"
        }
      ],
      "stateMutability": "view",
      "type": "function"
    },
    {
      "inputs": [
        {
          "internalType": "uint256",
          "name": "tokenId",
          "type": "uint256"
        },
        {
          "internalType": "uint256",
          "name": "royaltyPercentage",
          "type": "uint256"
        },
        {
          "internalType": "uint256",
          "name": "price",
          "type": "uint256"
        }
      ],
      "name": "createMarketItem",
      "outputs": [],
      "stateMutability": "payable",
      "type": "function"
    },
    {
      "inputs": [
        {
          "internalType": "uint256",
          "name": "tokenId",
          "type": "uint256"
        }
      ],
      "name": "createMarketSale",
      "outputs": [],
      "stateMutability": "payable",
      "type": "function"
    },
    {
      "inputs": [
        {
          "internalType": "string",
          "name": "tokenURI",
          "type": "string"
        },
        {
          "internalType": "uint256",
          "name": "royaltyPercentage",
          "type": "uint256"
        },
        {
          "internalType": "uint256",
          "name": "price",
          "type": "uint256"
        }
      ],
      "name": "createToken",
      "outputs": [
        {
          "internalType": "uint256",
          "name": "",
          "type": "uint256"
        }
      ],
      "stateMutability": "payable",
      "type": "function"
    },
    {
      "inputs": [],
      "name": "fetchItemsListed",
      "outputs": [
        {
          "components": [
            {
              "internalType": "uint256",
              "name": "tokenId",
              "type": "uint256"
            },
            {
              "internalType": "address payable",
              "name": "originalOwner",
              "type": "address"
            },
            {
              "internalType": "address payable",
              "name": "seller",
              "type": "address"
            },
            {
              "internalType": "address payable",
              "name": "owner",
              "type": "address"
            },
            {
              "internalType": "uint256",
              "name": "royaltyPercentage",
              "type": "uint256"
            },
            {
              "internalType": "uint256",
              "name": "price",
              "type": "uint256"
            },
            {
              "internalType": "bool",
              "name": "auction",
              "type": "bool"
            },
            {
              "internalType": "bool",
              "name": "sold",
              "type": "bool"
            }
          ],
          "internalType": "struct Marketplace.MarketItem[]",
          "name": "",
          "type": "tuple[]"
        }
      ],
      "stateMutability": "view",
      "type": "function"
    },
    {
      "inputs": [],
      "name": "fetchMarketItems",
      "outputs": [
        {
          "components": [
            {
              "internalType": "uint256",
              "name": "tokenId",
              "type": "uint256"
            },
            {
              "internalType": "address payable",
              "name": "originalOwner",
              "type": "address"
            },
            {
              "internalType": "address payable",
              "name": "seller",
              "type": "address"
            },
            {
              "internalType": "address payable",
              "name": "owner",
              "type": "address"
            },
            {
              "internalType": "uint256",
              "name": "royaltyPercentage",
              "type": "uint256"
            },
            {
              "internalType": "uint256",
              "name": "price",
              "type": "uint256"
            },
            {
              "internalType": "bool",
              "name": "auction",
              "type": "bool"
            },
            {
              "internalType": "bool",
              "name": "sold",
              "type": "bool"
            }
          ],
          "internalType": "struct Marketplace.MarketItem[]",
          "name": "",
          "type": "tuple[]"
        }
      ],
      "stateMutability": "view",
      "type": "function"
    },
    {
      "inputs": [],
      "name": "fetchMyNFT",
      "outputs": [
        {
          "components": [
            {
              "internalType": "uint256",
              "name": "tokenId",
              "type": "uint256"
            },
            {
              "internalType": "address payable",
              "name": "originalOwner",
              "type": "address"
            },
            {
              "internalType": "address payable",
              "name": "seller",
              "type": "address"
            },
            {
              "internalType": "address payable",
              "name": "owner",
              "type": "address"
            },
            {
              "internalType": "uint256",
              "name": "royaltyPercentage",
              "type": "uint256"
            },
            {
              "internalType": "uint256",
              "name": "price",
              "type": "uint256"
            },
            {
              "internalType": "bool",
              "name": "auction",
              "type": "bool"
            },
            {
              "internalType": "bool",
              "name": "sold",
              "type": "bool"
            }
          ],
          "internalType": "struct Marketplace.MarketItem[]",
          "name": "",
          "type": "tuple[]"
        }
      ],
      "stateMutability": "view",
      "type": "function"
    },
    {
      "inputs": [
        {
          "internalType": "uint256",
          "name": "tokenId",
          "type": "uint256"
        }
      ],
      "name": "getApproved",
      "outputs": [
        {
          "internalType": "address",
          "name": "",
          "type": "address"
        }
      ],
      "stateMutability": "view",
      "type": "function"
    },
    {
      "inputs": [
        {
          "internalType": "uint256",
          "name": "tokenId",
          "type": "uint256"
        }
      ],
      "name": "getRoyaltyData",
      "outputs": [
        {
          "internalType": "uint256",
          "name": "",
          "type": "uint256"
        },
        {
          "internalType": "address payable",
          "name": "",
          "type": "address"
        }
      ],
      "stateMutability": "view",
      "type": "function"
    },
    {
      "inputs": [
        {
          "internalType": "uint256",
          "name": "tokenId",
          "type": "uint256"
        }
      ],
      "name": "getSellerAddress",
      "outputs": [
        {
          "internalType": "address",
          "name": "",
          "type": "address"
        }
      ],
      "stateMutability": "view",
      "type": "function"
    },
    {
      "inputs": [
        {
          "internalType": "uint256",
          "name": "tokenId",
          "type": "uint256"
        },
        {
          "internalType": "address",
          "name": "winner",
          "type": "address"
        }
      ],
      "name": "handleAuctionEnd",
      "outputs": [],
      "stateMutability": "nonpayable",
      "type": "function"
    },
    {
      "inputs": [
        {
          "internalType": "address",
          "name": "owner",
          "type": "address"
        },
        {
          "internalType": "address",
          "name": "operator",
          "type": "address"
        }
      ],
      "name": "isApprovedForAll",
      "outputs": [
        {
          "internalType": "bool",
          "name": "",
          "type": "bool"
        }
      ],
      "stateMutability": "view",
      "type": "function"
    },
    {
      "inputs": [],
      "name": "name",
      "outputs": [
        {
          "internalType": "string",
          "name": "",
          "type": "string"
        }
      ],
      "stateMutability": "view",
      "type": "function"
    },
    {
      "inputs": [
        {
          "internalType": "uint256",
          "name": "tokenId",
          "type": "uint256"
        }
      ],
      "name": "ownerOf",
      "outputs": [
        {
          "internalType": "address",
          "name": "",
          "type": "address"
        }
      ],
      "stateMutability": "view",
      "type": "function"
    },
    {
      "inputs": [
        {
          "internalType": "uint256",
          "name": "tokenId",
          "type": "uint256"
        },
        {
          "internalType": "uint256",
          "name": "price",
          "type": "uint256"
        }
      ],
      "name": "resellMarketItem",
      "outputs": [],
      "stateMutability": "payable",
      "type": "function"
    },
    {
      "inputs": [
        {
          "internalType": "address",
          "name": "from",
          "type": "address"
        },
        {
          "internalType": "address",
          "name": "to",
          "type": "address"
        },
        {
          "internalType": "uint256",
          "name": "tokenId",
          "type": "uint256"
        }
      ],
      "name": "safeTransferFrom",
      "outputs": [],
      "stateMutability": "nonpayable",
      "type": "function"
    },
    {
      "inputs": [
        {
          "internalType": "address",
          "name": "from",
          "type": "address"
        },
        {
          "internalType": "address",
          "name": "to",
          "type": "address"
        },
        {
          "internalType": "uint256",
          "name": "tokenId",
          "type": "uint256"
        },
        {
          "internalType": "bytes",
          "name": "data",
          "type": "bytes"
        }
      ],
      "name": "safeTransferFrom",
      "outputs": [],
      "stateMutability": "nonpayable",
      "type": "function"
    },
    {
      "inputs": [
        {
          "internalType": "address",
          "name": "operator",
          "type": "address"
        },
        {
          "internalType": "bool",
          "name": "approved",
          "type": "bool"
        }
      ],
      "name": "setApprovalForAll",
      "outputs": [],
      "stateMutability": "nonpayable",
      "type": "function"
    },
    {
      "inputs": [
        {
          "internalType": "address",
          "name": "auctionFactoryAddress",
          "type": "address"
        }
      ],
      "name": "setAuctionFactoryAddress",
      "outputs": [],
      "stateMutability": "nonpayable",
      "type": "function"
    },
    {
      "inputs": [
        {
          "internalType": "bytes4",
          "name": "interfaceId",
          "type": "bytes4"
        }
      ],
      "name": "supportsInterface",
      "outputs": [
        {
          "internalType": "bool",
          "name": "",
          "type": "bool"
        }
      ],
      "stateMutability": "view",
      "type": "function"
    },
    {
      "inputs": [],
      "name": "symbol",
      "outputs": [
        {
          "internalType": "string",
          "name": "",
          "type": "string"
        }
      ],
      "stateMutability": "view",
      "type": "function"
    },
    {
      "inputs": [
        {
          "internalType": "uint256",
          "name": "tokenId",
          "type": "uint256"
        }
      ],
      "name": "tokenURI",
      "outputs": [
        {
          "internalType": "string",
          "name": "",
          "type": "string"
        }
      ],
      "stateMutability": "view",
      "type": "function"
    },
    {
      "inputs": [
        {
          "internalType": "address",
          "name": "from",
          "type": "address"
        },
        {
          "internalType": "address",
          "name": "to",
          "type": "address"
        },
        {
          "internalType": "uint256",
          "name": "tokenId",
          "type": "uint256"
        }
      ],
      "name": "transferFrom",
      "outputs": [],
      "stateMutability": "nonpayable",
      "type": "function"
    },
    {
      "inputs": [
        {
          "internalType": "uint256",
          "name": "_listingPrice",
          "type": "uint256"
        }
      ],
      "name": "updateListingPrice",
      "outputs": [],
      "stateMutability": "payable",
      "type": "function"
    },
    {
      "inputs": [
        {
          "internalType": "uint256",
          "name": "tokenId",
          "type": "uint256"
        },
        {
          "internalType": "uint256",
          "name": "price",
          "type": "uint256"
        }
      ],
      "name": "updateNFTPrice",
      "outputs": [],
      "stateMutability": "nonpayable",
      "type": "function"
    },
    {
      "inputs": [],
      "name": "withdrawFunds",
      "outputs": [],
      "stateMutability": "nonpayable",
      "type": "function"
    }
  ],
  "bytecode": "0x60806040526608e1bc9bf04000600a553480156200001c57600080fd5b506040518060400160405280601381526020017f4e4654204d657461766572736520546f6b656e000000000000000000000000008152506040518060400160405280600581526020017f4d594e465400000000000000000000000000000000000000000000000000000081525081600090816200009a919062000378565b508060019081620000ac919062000378565b505050600160078190555033600b60006101000a81548173ffffffffffffffffffffffffffffffffffffffff021916908373ffffffffffffffffffffffffffffffffffffffff1602179055506200045f565b600081519050919050565b7f4e487b7100000000000000000000000000000000000000000000000000000000600052604160045260246000fd5b7f4e487b7100000000000000000000000000000000000000000000000000000000600052602260045260246000fd5b600060028204905060018216806200018057607f821691505b60208210810362000196576200019562000138565b5b50919050565b60008190508160005260206000209050919050565b60006020601f8301049050919050565b600082821b905092915050565b600060088302620002007fffffffffffffffffffffffffffffffffffffffffffffffffffffffffffffffff82620001c1565b6200020c8683620001c1565b95508019841693508086168417925050509392505050565b6000819050919050565b6000819050919050565b600062000259620002536200024d8462000224565b6200022e565b62000224565b9050919050565b6000819050919050565b620002758362000238565b6200028d620002848262000260565b848454620001ce565b825550505050565b600090565b620002a462000295565b620002b18184846200026a565b505050565b5b81811015620002d957620002cd6000826200029a565b600181019050620002b7565b5050565b601f8211156200032857620002f2816200019c565b620002fd84620001b1565b810160208510156200030d578190505b620003256200031c85620001b1565b830182620002b6565b50505b505050565b600082821c905092915050565b60006200034d600019846008026200032d565b1980831691505092915050565b60006200036883836200033a565b9150826002028217905092915050565b6200038382620000fe565b67ffffffffffffffff8111156200039f576200039e62000109565b5b620003ab825462000167565b620003b8828285620002dd565b600060209050601f831160018114620003f05760008415620003db578287015190505b620003e785826200035a565b86555062000457565b601f19841662000400866200019c565b60005b828110156200042a5784890151825560018201915060208501945060208101905062000403565b868310156200044a578489015162000446601f8916826200033a565b8355505b6001600288020188555050505b505050505050565b615404806200046f6000396000f3fe60806040526004361061019c5760003560e01c80636b52d832116100ec578063ae677aa31161008a578063bec2a7c511610064578063bec2a7c51461058b578063c18763f7146105bb578063c87b56dd146105e6578063e985e9c5146106235761019c565b8063ae677aa31461052a578063b88d4fde14610546578063be9af5361461056f5761019c565b806395d89b41116100c657806395d89b411461045b578063a22cb46514610486578063a65ff74c146104af578063a675364d146104ed5761019c565b80636b52d832146103d957806370a08231146103f55780638f329b31146104325761019c565b806323b872dd1161015957806342842e0e1161013357806342842e0e1461031f57806345f8fa80146103485780634ac0123d146103735780636352211e1461039c5761019c565b806323b872dd146102c357806324600fc3146102ec578063320343da146103035761019c565b806301ffc9a7146101a157806306fdde03146101de578063081812fc14610209578063095ea7b3146102465780630f08efe01461026f5780631cb881331461029a575b600080fd5b3480156101ad57600080fd5b506101c860048036038101906101c39190613836565b610660565b6040516101d5919061387e565b60405180910390f35b3480156101ea57600080fd5b506101f36106c1565b6040516102009190613929565b60405180910390f35b34801561021557600080fd5b50610230600480360381019061022b9190613981565b610753565b60405161023d91906139ef565b60405180910390f35b34801561025257600080fd5b5061026d60048036038101906102689190613a36565b610799565b005b34801561027b57600080fd5b506102846108b0565b6040516102919190613c07565b60405180910390f35b3480156102a657600080fd5b506102c160048036038101906102bc9190613c29565b610b94565b005b3480156102cf57600080fd5b506102ea60048036038101906102e59190613c56565b610bd8565b005b3480156102f857600080fd5b50610301610c38565b005b61031d60048036038101906103189190613ca9565b610e1b565b005b34801561032b57600080fd5b5061034660048036038101906103419190613c56565b6110e5565b005b34801561035457600080fd5b5061035d611105565b60405161036a9190613c07565b60405180910390f35b34801561037f57600080fd5b5061039a60048036038101906103959190613cfc565b61146d565b005b3480156103a857600080fd5b506103c360048036038101906103be9190613981565b61166d565b6040516103d091906139ef565b60405180910390f35b6103f360048036038101906103ee9190613cfc565b6116f3565b005b34801561040157600080fd5b5061041c60048036038101906104179190613c29565b611994565b6040516104299190613d4b565b60405180910390f35b34801561043e57600080fd5b5061045960048036038101906104549190613d66565b611a4b565b005b34801561046757600080fd5b50610470611b4c565b60405161047d9190613929565b60405180910390f35b34801561049257600080fd5b506104ad60048036038101906104a89190613dd2565b611bde565b005b3480156104bb57600080fd5b506104d660048036038101906104d19190613981565b611bf4565b6040516104e4929190613e21565b60405180910390f35b3480156104f957600080fd5b50610514600480360381019061050f9190613981565b611d84565b60405161052191906139ef565b60405180910390f35b610544600480360381019061053f9190613981565b611dc4565b005b34801561055257600080fd5b5061056d60048036038101906105689190613f7f565b611e5e565b005b61058960048036038101906105849190613981565b611ec0565b005b6105a560048036038101906105a091906140a3565b6120a2565b6040516105b29190613d4b565b60405180910390f35b3480156105c757600080fd5b506105d06120e6565b6040516105dd9190613c07565b60405180910390f35b3480156105f257600080fd5b5061060d60048036038101906106089190613981565b61244e565b60405161061a9190613929565b60405180910390f35b34801561062f57600080fd5b5061064a60048036038101906106459190614112565b612560565b604051610657919061387e565b60405180910390f35b6000634906490660e01b7bffffffffffffffffffffffffffffffffffffffffffffffffffffffff1916827bffffffffffffffffffffffffffffffffffffffffffffffffffffffff191614806106ba57506106b9826125f4565b5b9050919050565b6060600080546106d090614181565b80601f01602080910402602001604051908101604052809291908181526020018280546106fc90614181565b80156107495780601f1061071e57610100808354040283529160200191610749565b820191906000526020600020905b81548152906001019060200180831161072c57829003601f168201915b5050505050905090565b600061075e826126d6565b6004600083815260200190815260200160002060009054906101000a900473ffffffffffffffffffffffffffffffffffffffff169050919050565b60006107a48261166d565b90508073ffffffffffffffffffffffffffffffffffffffff168373ffffffffffffffffffffffffffffffffffffffff1603610814576040517f08c379a000000000000000000000000000000000000000000000000000000000815260040161080b90614224565b60405180910390fd5b8073ffffffffffffffffffffffffffffffffffffffff16610833612721565b73ffffffffffffffffffffffffffffffffffffffff16148061086257506108618161085c612721565b612560565b5b6108a1576040517f08c379a0000000000000000000000000000000000000000000000000000000008152600401610898906142b6565b60405180910390fd5b6108ab8383612729565b505050565b606060006108be60086127e2565b905060006108cc60096127e2565b6108d660086127e2565b6108e09190614305565b90506000808267ffffffffffffffff8111156108ff576108fe613e54565b5b60405190808252806020026020018201604052801561093857816020015b610925613735565b81526020019060019003908161091d5790505b50905060005b84811015610b89573073ffffffffffffffffffffffffffffffffffffffff16600d600060018461096e9190614339565b815260200190815260200160002060030160009054906101000a900473ffffffffffffffffffffffffffffffffffffffff1673ffffffffffffffffffffffffffffffffffffffff1603610b765760006001826109ca9190614339565b90506000600d600083815260200190815260200160002090508060405180610100016040529081600082015481526020016001820160009054906101000a900473ffffffffffffffffffffffffffffffffffffffff1673ffffffffffffffffffffffffffffffffffffffff1673ffffffffffffffffffffffffffffffffffffffff1681526020016002820160009054906101000a900473ffffffffffffffffffffffffffffffffffffffff1673ffffffffffffffffffffffffffffffffffffffff1673ffffffffffffffffffffffffffffffffffffffff1681526020016003820160009054906101000a900473ffffffffffffffffffffffffffffffffffffffff1673ffffffffffffffffffffffffffffffffffffffff1673ffffffffffffffffffffffffffffffffffffffff16815260200160048201548152602001600582015481526020016006820160009054906101000a900460ff161515151581526020016006820160019054906101000a900460ff161515151581525050848681518110610b5957610b5861436d565b5b6020026020010181905250600185610b719190614339565b945050505b8080610b819061439c565b91505061093e565b508094505050505090565b80600c60006101000a81548173ffffffffffffffffffffffffffffffffffffffff021916908373ffffffffffffffffffffffffffffffffffffffff16021790555050565b610be9610be3612721565b826127f0565b610c28576040517f08c379a0000000000000000000000000000000000000000000000000000000008152600401610c1f90614456565b60405180910390fd5b610c33838383612885565b505050565b600b60009054906101000a900473ffffffffffffffffffffffffffffffffffffffff1673ffffffffffffffffffffffffffffffffffffffff163373ffffffffffffffffffffffffffffffffffffffff1614610cc8576040517f08c379a0000000000000000000000000000000000000000000000000000000008152600401610cbf906144e8565b60405180910390fd5b600047905060008111610d10576040517f08c379a0000000000000000000000000000000000000000000000000000000008152600401610d0790614554565b60405180910390fd5b6000600b60009054906101000a900473ffffffffffffffffffffffffffffffffffffffff1673ffffffffffffffffffffffffffffffffffffffff1682604051610d58906145a5565b60006040518083038185875af1925050503d8060008114610d95576040519150601f19603f3d011682016040523d82523d6000602084013e610d9a565b606091505b5050905080610dde576040517f08c379a0000000000000000000000000000000000000000000000000000000008152600401610dd590614606565b60405180910390fd5b7f6141b54b56b8a52a8c6f5cd2a857f6117b18ffbf4d46bd3106f300a839cbf5ea8233604051610e0f929190614626565b60405180910390a15050565b610e3d6040518060600160405280602481526020016153ab6024913933612b7e565b60008111610e80576040517f08c379a0000000000000000000000000000000000000000000000000000000008152600401610e779061469b565b60405180910390fd5b600a543414610ec4576040517f08c379a0000000000000000000000000000000000000000000000000000000008152600401610ebb90614707565b60405180910390fd5b6040518061010001604052808481526020013373ffffffffffffffffffffffffffffffffffffffff1681526020013373ffffffffffffffffffffffffffffffffffffffff1681526020013073ffffffffffffffffffffffffffffffffffffffff16815260200183815260200182815260200160001515815260200160001515815250600d60008581526020019081526020016000206000820151816000015560208201518160010160006101000a81548173ffffffffffffffffffffffffffffffffffffffff021916908373ffffffffffffffffffffffffffffffffffffffff16021790555060408201518160020160006101000a81548173ffffffffffffffffffffffffffffffffffffffff021916908373ffffffffffffffffffffffffffffffffffffffff16021790555060608201518160030160006101000a81548173ffffffffffffffffffffffffffffffffffffffff021916908373ffffffffffffffffffffffffffffffffffffffff1602179055506080820151816004015560a0820151816005015560c08201518160060160006101000a81548160ff02191690831515021790555060e08201518160060160016101000a81548160ff02191690831515021790555090505061109a333085612885565b827f6be207084465b1afd1fb9af05976e6d285e34a16bc67aaa8e62ebbbf7c406aac3333600086866000806040516110d89796959493929190614727565b60405180910390a2505050565b61110083838360405180602001604052806000815250611e5e565b505050565b6060600061111360086127e2565b905060008060005b838110156111bb573373ffffffffffffffffffffffffffffffffffffffff16600d600060018461114b9190614339565b815260200190815260200160002060020160009054906101000a900473ffffffffffffffffffffffffffffffffffffffff1673ffffffffffffffffffffffffffffffffffffffff16036111a8576001836111a59190614339565b92505b80806111b39061439c565b91505061111b565b5060008267ffffffffffffffff8111156111d8576111d7613e54565b5b60405190808252806020026020018201604052801561121157816020015b6111fe613735565b8152602001906001900390816111f65790505b50905060005b84811015611462573373ffffffffffffffffffffffffffffffffffffffff16600d60006001846112479190614339565b815260200190815260200160002060020160009054906101000a900473ffffffffffffffffffffffffffffffffffffffff1673ffffffffffffffffffffffffffffffffffffffff160361144f5760006001826112a39190614339565b90506000600d600083815260200190815260200160002090508060405180610100016040529081600082015481526020016001820160009054906101000a900473ffffffffffffffffffffffffffffffffffffffff1673ffffffffffffffffffffffffffffffffffffffff1673ffffffffffffffffffffffffffffffffffffffff1681526020016002820160009054906101000a900473ffffffffffffffffffffffffffffffffffffffff1673ffffffffffffffffffffffffffffffffffffffff1673ffffffffffffffffffffffffffffffffffffffff1681526020016003820160009054906101000a900473ffffffffffffffffffffffffffffffffffffffff1673ffffffffffffffffffffffffffffffffffffffff1673ffffffffffffffffffffffffffffffffffffffff16815260200160048201548152602001600582015481526020016006820160009054906101000a900460ff161515151581526020016006820160019054906101000a900460ff1615151515815250508486815181106114325761143161436d565b5b602002602001018190525060018561144a9190614339565b945050505b808061145a9061439c565b915050611217565b508094505050505090565b600073ffffffffffffffffffffffffffffffffffffffff16600d600084815260200190815260200160002060030160009054906101000a900473ffffffffffffffffffffffffffffffffffffffff1673ffffffffffffffffffffffffffffffffffffffff1603611512576040517f08c379a000000000000000000000000000000000000000000000000000000000815260040161150990614808565b60405180910390fd5b3373ffffffffffffffffffffffffffffffffffffffff16600d600084815260200190815260200160002060020160009054906101000a900473ffffffffffffffffffffffffffffffffffffffff1673ffffffffffffffffffffffffffffffffffffffff16146115b6576040517f08c379a00000000000000000000000000000000000000000000000000000000081526004016115ad90614874565b60405180910390fd5b600081116115f9576040517f08c379a00000000000000000000000000000000000000000000000000000000081526004016115f0906148e0565b60405180910390fd5b80600d6000848152602001908152602001600020600501819055506116696040518060400160405280601581526020017f55706461746564206d61726b6574206974656d3a200000000000000000000000815250600d600085815260200190815260200160002060050154612c1a565b5050565b60008061167983612cb6565b9050600073ffffffffffffffffffffffffffffffffffffffff168173ffffffffffffffffffffffffffffffffffffffff16036116ea576040517f08c379a00000000000000000000000000000000000000000000000000000000081526004016116e19061494c565b60405180910390fd5b80915050919050565b3373ffffffffffffffffffffffffffffffffffffffff16600d600084815260200190815260200160002060030160009054906101000a900473ffffffffffffffffffffffffffffffffffffffff1673ffffffffffffffffffffffffffffffffffffffff1614806117b05750600c60009054906101000a900473ffffffffffffffffffffffffffffffffffffffff1673ffffffffffffffffffffffffffffffffffffffff163373ffffffffffffffffffffffffffffffffffffffff16145b6117ef576040517f08c379a00000000000000000000000000000000000000000000000000000000081526004016117e6906149b8565b60405180910390fd5b600c60009054906101000a900473ffffffffffffffffffffffffffffffffffffffff1673ffffffffffffffffffffffffffffffffffffffff163373ffffffffffffffffffffffffffffffffffffffff1603611874576001600d600084815260200190815260200160002060060160006101000a81548160ff0219169083151502179055505b6000600d600084815260200190815260200160002060060160016101000a81548160ff02191690831515021790555080600d60008481526020019081526020016000206005018190555033600d600084815260200190815260200160002060020160006101000a81548173ffffffffffffffffffffffffffffffffffffffff021916908373ffffffffffffffffffffffffffffffffffffffff16021790555030600d600084815260200190815260200160002060030160006101000a81548173ffffffffffffffffffffffffffffffffffffffff021916908373ffffffffffffffffffffffffffffffffffffffff160217905550600061197460096127e2565b1115611985576119846009612cf3565b5b611990333084612885565b5050565b60008073ffffffffffffffffffffffffffffffffffffffff168273ffffffffffffffffffffffffffffffffffffffff1603611a04576040517f08c379a00000000000000000000000000000000000000000000000000000000081526004016119fb90614a4a565b60405180910390fd5b600360008373ffffffffffffffffffffffffffffffffffffffff1673ffffffffffffffffffffffffffffffffffffffff168152602001908152602001600020549050919050565b3073ffffffffffffffffffffffffffffffffffffffff166342842e0e3083856040518463ffffffff1660e01b8152600401611a8893929190614a6a565b600060405180830381600087803b158015611aa257600080fd5b505af1158015611ab6573d6000803e3d6000fd5b5050505080600d600084815260200190815260200160002060030160006101000a81548173ffffffffffffffffffffffffffffffffffffffff021916908373ffffffffffffffffffffffffffffffffffffffff1602179055507f20665ee57a5e13af162123968d777ccebe86531a21e53d08afc78138a950192d8282604051611b40929190614626565b60405180910390a15050565b606060018054611b5b90614181565b80601f0160208091040260200160405190810160405280929190818152602001828054611b8790614181565b8015611bd45780601f10611ba957610100808354040283529160200191611bd4565b820191906000526020600020905b815481529060010190602001808311611bb757829003601f168201915b5050505050905090565b611bf0611be9612721565b8383612d4f565b5050565b6000806000600d600085815260200190815260200160002060405180610100016040529081600082015481526020016001820160009054906101000a900473ffffffffffffffffffffffffffffffffffffffff1673ffffffffffffffffffffffffffffffffffffffff1673ffffffffffffffffffffffffffffffffffffffff1681526020016002820160009054906101000a900473ffffffffffffffffffffffffffffffffffffffff1673ffffffffffffffffffffffffffffffffffffffff1673ffffffffffffffffffffffffffffffffffffffff1681526020016003820160009054906101000a900473ffffffffffffffffffffffffffffffffffffffff1673ffffffffffffffffffffffffffffffffffffffff1673ffffffffffffffffffffffffffffffffffffffff16815260200160048201548152602001600582015481526020016006820160009054906101000a900460ff161515151581526020016006820160019054906101000a900460ff1615151515815250509050806080015181602001519250925050915091565b6000600d600083815260200190815260200160002060020160009054906101000a900473ffffffffffffffffffffffffffffffffffffffff169050919050565b600b60009054906101000a900473ffffffffffffffffffffffffffffffffffffffff1673ffffffffffffffffffffffffffffffffffffffff163373ffffffffffffffffffffffffffffffffffffffff1614611e54576040517f08c379a0000000000000000000000000000000000000000000000000000000008152600401611e4b906144e8565b60405180910390fd5b80600a8190555050565b611e6f611e69612721565b836127f0565b611eae576040517f08c379a0000000000000000000000000000000000000000000000000000000008152600401611ea590614456565b60405180910390fd5b611eba84848484612ebb565b50505050565b6000600d6000838152602001908152602001600020600501549050803414611f1d576040517f08c379a0000000000000000000000000000000000000000000000000000000008152600401611f1490614b13565b60405180910390fd5b33600d600084815260200190815260200160002060030160006101000a81548173ffffffffffffffffffffffffffffffffffffffff021916908373ffffffffffffffffffffffffffffffffffffffff1602179055506001600d600084815260200190815260200160002060060160016101000a81548160ff021916908315150217905550611fab6009612f17565b611fb6303384612885565b600b60009054906101000a900473ffffffffffffffffffffffffffffffffffffffff1673ffffffffffffffffffffffffffffffffffffffff166108fc600a549081150290604051600060405180830381858888f19350505050158015612020573d6000803e3d6000fd5b50600d600083815260200190815260200160002060020160009054906101000a900473ffffffffffffffffffffffffffffffffffffffff1673ffffffffffffffffffffffffffffffffffffffff166108fc349081150290604051600060405180830381858888f1935050505015801561209d573d6000803e3d6000fd5b505050565b60006120ae6008612f17565b60006120ba60086127e2565b90506120c63382612f2d565b6120d0818661314a565b6120db818585610e1b565b809150509392505050565b606060006120f460086127e2565b905060008060005b8381101561219c573373ffffffffffffffffffffffffffffffffffffffff16600d600060018461212c9190614339565b815260200190815260200160002060030160009054906101000a900473ffffffffffffffffffffffffffffffffffffffff1673ffffffffffffffffffffffffffffffffffffffff1603612189576001836121869190614339565b92505b80806121949061439c565b9150506120fc565b5060008267ffffffffffffffff8111156121b9576121b8613e54565b5b6040519080825280602002602001820160405280156121f257816020015b6121df613735565b8152602001906001900390816121d75790505b50905060005b84811015612443573373ffffffffffffffffffffffffffffffffffffffff16600d60006001846122289190614339565b815260200190815260200160002060030160009054906101000a900473ffffffffffffffffffffffffffffffffffffffff1673ffffffffffffffffffffffffffffffffffffffff16036124305760006001826122849190614339565b90506000600d600083815260200190815260200160002090508060405180610100016040529081600082015481526020016001820160009054906101000a900473ffffffffffffffffffffffffffffffffffffffff1673ffffffffffffffffffffffffffffffffffffffff1673ffffffffffffffffffffffffffffffffffffffff1681526020016002820160009054906101000a900473ffffffffffffffffffffffffffffffffffffffff1673ffffffffffffffffffffffffffffffffffffffff1673ffffffffffffffffffffffffffffffffffffffff1681526020016003820160009054906101000a900473ffffffffffffffffffffffffffffffffffffffff1673ffffffffffffffffffffffffffffffffffffffff1673ffffffffffffffffffffffffffffffffffffffff16815260200160048201548152602001600582015481526020016006820160009054906101000a900460ff161515151581526020016006820160019054906101000a900460ff1615151515815250508486815181106124135761241261436d565b5b602002602001018190525060018561242b9190614339565b945050505b808061243b9061439c565b9150506121f8565b508094505050505090565b6060612459826126d6565b600060066000848152602001908152602001600020805461247990614181565b80601f01602080910402602001604051908101604052809291908181526020018280546124a590614181565b80156124f25780601f106124c7576101008083540402835291602001916124f2565b820191906000526020600020905b8154815290600101906020018083116124d557829003601f168201915b5050505050905060006125036131ee565b9050600081510361251857819250505061255b565b60008251111561254d578082604051602001612535929190614b6f565b6040516020818303038152906040529250505061255b565b61255684613205565b925050505b919050565b6000600560008473ffffffffffffffffffffffffffffffffffffffff1673ffffffffffffffffffffffffffffffffffffffff16815260200190815260200160002060008373ffffffffffffffffffffffffffffffffffffffff1673ffffffffffffffffffffffffffffffffffffffff16815260200190815260200160002060009054906101000a900460ff16905092915050565b60007f80ac58cd000000000000000000000000000000000000000000000000000000007bffffffffffffffffffffffffffffffffffffffffffffffffffffffff1916827bffffffffffffffffffffffffffffffffffffffffffffffffffffffff191614806126bf57507f5b5e139f000000000000000000000000000000000000000000000000000000007bffffffffffffffffffffffffffffffffffffffffffffffffffffffff1916827bffffffffffffffffffffffffffffffffffffffffffffffffffffffff1916145b806126cf57506126ce8261326d565b5b9050919050565b6126df816132d7565b61271e576040517f08c379a00000000000000000000000000000000000000000000000000000000081526004016127159061494c565b60405180910390fd5b50565b600033905090565b816004600083815260200190815260200160002060006101000a81548173ffffffffffffffffffffffffffffffffffffffff021916908373ffffffffffffffffffffffffffffffffffffffff160217905550808273ffffffffffffffffffffffffffffffffffffffff1661279c8361166d565b73ffffffffffffffffffffffffffffffffffffffff167f8c5be1e5ebec7d5bd14f71427d1e84f3dd0314c0f7b2291e5b200ac8c7c3b92560405160405180910390a45050565b600081600001549050919050565b6000806127fc8361166d565b90508073ffffffffffffffffffffffffffffffffffffffff168473ffffffffffffffffffffffffffffffffffffffff16148061283e575061283d8185612560565b5b8061287c57508373ffffffffffffffffffffffffffffffffffffffff1661286484610753565b73ffffffffffffffffffffffffffffffffffffffff16145b91505092915050565b8273ffffffffffffffffffffffffffffffffffffffff166128a58261166d565b73ffffffffffffffffffffffffffffffffffffffff16146128fb576040517f08c379a00000000000000000000000000000000000000000000000000000000081526004016128f290614c05565b60405180910390fd5b600073ffffffffffffffffffffffffffffffffffffffff168273ffffffffffffffffffffffffffffffffffffffff160361296a576040517f08c379a000000000000000000000000000000000000000000000000000000000815260040161296190614c97565b60405180910390fd5b6129778383836001613318565b8273ffffffffffffffffffffffffffffffffffffffff166129978261166d565b73ffffffffffffffffffffffffffffffffffffffff16146129ed576040517f08c379a00000000000000000000000000000000000000000000000000000000081526004016129e490614c05565b60405180910390fd5b6004600082815260200190815260200160002060006101000a81549073ffffffffffffffffffffffffffffffffffffffff02191690556001600360008573ffffffffffffffffffffffffffffffffffffffff1673ffffffffffffffffffffffffffffffffffffffff168152602001908152602001600020600082825403925050819055506001600360008473ffffffffffffffffffffffffffffffffffffffff1673ffffffffffffffffffffffffffffffffffffffff16815260200190815260200160002060008282540192505081905550816002600083815260200190815260200160002060006101000a81548173ffffffffffffffffffffffffffffffffffffffff021916908373ffffffffffffffffffffffffffffffffffffffff160217905550808273ffffffffffffffffffffffffffffffffffffffff168473ffffffffffffffffffffffffffffffffffffffff167fddf252ad1be2c89b69c2b068fc378daa952ba7f163c4a11628f55a4df523b3ef60405160405180910390a4612b79838383600161331e565b505050565b612c168282604051602401612b94929190614cb7565b6040516020818303038152906040527f319af333000000000000000000000000000000000000000000000000000000007bffffffffffffffffffffffffffffffffffffffffffffffffffffffff19166020820180517bffffffffffffffffffffffffffffffffffffffffffffffffffffffff8381831617835250505050613324565b5050565b612cb28282604051602401612c30929190614ce7565b6040516020818303038152906040527fb60e72cc000000000000000000000000000000000000000000000000000000007bffffffffffffffffffffffffffffffffffffffffffffffffffffffff19166020820180517bffffffffffffffffffffffffffffffffffffffffffffffffffffffff8381831617835250505050613324565b5050565b60006002600083815260200190815260200160002060009054906101000a900473ffffffffffffffffffffffffffffffffffffffff169050919050565b60008160000154905060008111612d3f576040517f08c379a0000000000000000000000000000000000000000000000000000000008152600401612d3690614d63565b60405180910390fd5b6001810382600001819055505050565b8173ffffffffffffffffffffffffffffffffffffffff168373ffffffffffffffffffffffffffffffffffffffff1603612dbd576040517f08c379a0000000000000000000000000000000000000000000000000000000008152600401612db490614dcf565b60405180910390fd5b80600560008573ffffffffffffffffffffffffffffffffffffffff1673ffffffffffffffffffffffffffffffffffffffff16815260200190815260200160002060008473ffffffffffffffffffffffffffffffffffffffff1673ffffffffffffffffffffffffffffffffffffffff16815260200190815260200160002060006101000a81548160ff0219169083151502179055508173ffffffffffffffffffffffffffffffffffffffff168373ffffffffffffffffffffffffffffffffffffffff167f17307eab39ab6107e8899845ad3d59bd9653f200f220920489ca2b5937696c3183604051612eae919061387e565b60405180910390a3505050565b612ec6848484612885565b612ed28484848461333e565b612f11576040517f08c379a0000000000000000000000000000000000000000000000000000000008152600401612f0890614e61565b60405180910390fd5b50505050565b6001816000016000828254019250508190555050565b600073ffffffffffffffffffffffffffffffffffffffff168273ffffffffffffffffffffffffffffffffffffffff1603612f9c576040517f08c379a0000000000000000000000000000000000000000000000000000000008152600401612f9390614ecd565b60405180910390fd5b612fa5816132d7565b15612fe5576040517f08c379a0000000000000000000000000000000000000000000000000000000008152600401612fdc90614f39565b60405180910390fd5b612ff3600083836001613318565b612ffc816132d7565b1561303c576040517f08c379a000000000000000000000000000000000000000000000000000000000815260040161303390614f39565b60405180910390fd5b6001600360008473ffffffffffffffffffffffffffffffffffffffff1673ffffffffffffffffffffffffffffffffffffffff16815260200190815260200160002060008282540192505081905550816002600083815260200190815260200160002060006101000a81548173ffffffffffffffffffffffffffffffffffffffff021916908373ffffffffffffffffffffffffffffffffffffffff160217905550808273ffffffffffffffffffffffffffffffffffffffff16600073ffffffffffffffffffffffffffffffffffffffff167fddf252ad1be2c89b69c2b068fc378daa952ba7f163c4a11628f55a4df523b3ef60405160405180910390a461314660008383600161331e565b5050565b613153826132d7565b613192576040517f08c379a000000000000000000000000000000000000000000000000000000000815260040161318990614fcb565b60405180910390fd5b806006600084815260200190815260200160002090816131b29190615197565b507ff8e1a15aba9398e019f0b49df1a4fde98ee17ae345cb5f6b5e2c27f5033e8ce7826040516131e29190613d4b565b60405180910390a15050565b606060405180602001604052806000815250905090565b6060613210826126d6565b600061321a6131ee565b9050600081511161323a5760405180602001604052806000815250613265565b80613244846134c5565b604051602001613255929190614b6f565b6040516020818303038152906040525b915050919050565b60007f01ffc9a7000000000000000000000000000000000000000000000000000000007bffffffffffffffffffffffffffffffffffffffffffffffffffffffff1916827bffffffffffffffffffffffffffffffffffffffffffffffffffffffff1916149050919050565b60008073ffffffffffffffffffffffffffffffffffffffff166132f983612cb6565b73ffffffffffffffffffffffffffffffffffffffff1614159050919050565b50505050565b50505050565b61333b816133336135936135b4565b63ffffffff16565b50565b600061335f8473ffffffffffffffffffffffffffffffffffffffff166135bf565b156134b8578373ffffffffffffffffffffffffffffffffffffffff1663150b7a02613388612721565b8786866040518563ffffffff1660e01b81526004016133aa94939291906152be565b6020604051808303816000875af19250505080156133e657506040513d601f19601f820116820180604052508101906133e3919061531f565b60015b613468573d8060008114613416576040519150601f19603f3d011682016040523d82523d6000602084013e61341b565b606091505b506000815103613460576040517f08c379a000000000000000000000000000000000000000000000000000000000815260040161345790614e61565b60405180910390fd5b805181602001fd5b63150b7a0260e01b7bffffffffffffffffffffffffffffffffffffffffffffffffffffffff1916817bffffffffffffffffffffffffffffffffffffffffffffffffffffffff1916149150506134bd565b600190505b949350505050565b6060600060016134d4846135e2565b01905060008167ffffffffffffffff8111156134f3576134f2613e54565b5b6040519080825280601f01601f1916602001820160405280156135255781602001600182028036833780820191505090505b509050600082602001820190505b600115613588578080600190039150507f3031323334353637383961626364656600000000000000000000000000000000600a86061a8153600a858161357c5761357b61534c565b5b04945060008503613533575b819350505050919050565b60006a636f6e736f6c652e6c6f679050600080835160208501845afa505050565b6137c0819050919050565b6000808273ffffffffffffffffffffffffffffffffffffffff163b119050919050565b600080600090507a184f03e93ff9f4daa797ed6e38ed64bf6a1f0100000000000000008310613640577a184f03e93ff9f4daa797ed6e38ed64bf6a1f01000000000000000083816136365761363561534c565b5b0492506040810190505b6d04ee2d6d415b85acef8100000000831061367d576d04ee2d6d415b85acef810000000083816136735761367261534c565b5b0492506020810190505b662386f26fc1000083106136ac57662386f26fc1000083816136a2576136a161534c565b5b0492506010810190505b6305f5e10083106136d5576305f5e10083816136cb576136ca61534c565b5b0492506008810190505b61271083106136fa5761271083816136f0576136ef61534c565b5b0492506004810190505b6064831061371d57606483816137135761371261534c565b5b0492506002810190505b600a831061372c576001810190505b80915050919050565b60405180610100016040528060008152602001600073ffffffffffffffffffffffffffffffffffffffff168152602001600073ffffffffffffffffffffffffffffffffffffffff168152602001600073ffffffffffffffffffffffffffffffffffffffff16815260200160008152602001600081526020016000151581526020016000151581525090565b6137c861537b565b565b6000604051905090565b600080fd5b600080fd5b60007fffffffff0000000000000000000000000000000000000000000000000000000082169050919050565b613813816137de565b811461381e57600080fd5b50565b6000813590506138308161380a565b92915050565b60006020828403121561384c5761384b6137d4565b5b600061385a84828501613821565b91505092915050565b60008115159050919050565b61387881613863565b82525050565b6000602082019050613893600083018461386f565b92915050565b600081519050919050565b600082825260208201905092915050565b60005b838110156138d35780820151818401526020810190506138b8565b60008484015250505050565b6000601f19601f8301169050919050565b60006138fb82613899565b61390581856138a4565b93506139158185602086016138b5565b61391e816138df565b840191505092915050565b6000602082019050818103600083015261394381846138f0565b905092915050565b6000819050919050565b61395e8161394b565b811461396957600080fd5b50565b60008135905061397b81613955565b92915050565b600060208284031215613997576139966137d4565b5b60006139a58482850161396c565b91505092915050565b600073ffffffffffffffffffffffffffffffffffffffff82169050919050565b60006139d9826139ae565b9050919050565b6139e9816139ce565b82525050565b6000602082019050613a0460008301846139e0565b92915050565b613a13816139ce565b8114613a1e57600080fd5b50565b600081359050613a3081613a0a565b92915050565b60008060408385031215613a4d57613a4c6137d4565b5b6000613a5b85828601613a21565b9250506020613a6c8582860161396c565b9150509250929050565b600081519050919050565b600082825260208201905092915050565b6000819050602082019050919050565b613aab8161394b565b82525050565b6000613abc826139ae565b9050919050565b613acc81613ab1565b82525050565b613adb81613863565b82525050565b61010082016000820151613af86000850182613aa2565b506020820151613b0b6020850182613ac3565b506040820151613b1e6040850182613ac3565b506060820151613b316060850182613ac3565b506080820151613b446080850182613aa2565b5060a0820151613b5760a0850182613aa2565b5060c0820151613b6a60c0850182613ad2565b5060e0820151613b7d60e0850182613ad2565b50505050565b6000613b8f8383613ae1565b6101008301905092915050565b6000602082019050919050565b6000613bb482613a76565b613bbe8185613a81565b9350613bc983613a92565b8060005b83811015613bfa578151613be18882613b83565b9750613bec83613b9c565b925050600181019050613bcd565b5085935050505092915050565b60006020820190508181036000830152613c218184613ba9565b905092915050565b600060208284031215613c3f57613c3e6137d4565b5b6000613c4d84828501613a21565b91505092915050565b600080600060608486031215613c6f57613c6e6137d4565b5b6000613c7d86828701613a21565b9350506020613c8e86828701613a21565b9250506040613c9f8682870161396c565b9150509250925092565b600080600060608486031215613cc257613cc16137d4565b5b6000613cd08682870161396c565b9350506020613ce18682870161396c565b9250506040613cf28682870161396c565b9150509250925092565b60008060408385031215613d1357613d126137d4565b5b6000613d218582860161396c565b9250506020613d328582860161396c565b9150509250929050565b613d458161394b565b82525050565b6000602082019050613d606000830184613d3c565b92915050565b60008060408385031215613d7d57613d7c6137d4565b5b6000613d8b8582860161396c565b9250506020613d9c85828601613a21565b9150509250929050565b613daf81613863565b8114613dba57600080fd5b50565b600081359050613dcc81613da6565b92915050565b60008060408385031215613de957613de86137d4565b5b6000613df785828601613a21565b9250506020613e0885828601613dbd565b9150509250929050565b613e1b81613ab1565b82525050565b6000604082019050613e366000830185613d3c565b613e436020830184613e12565b9392505050565b600080fd5b600080fd5b7f4e487b7100000000000000000000000000000000000000000000000000000000600052604160045260246000fd5b613e8c826138df565b810181811067ffffffffffffffff82111715613eab57613eaa613e54565b5b80604052505050565b6000613ebe6137ca565b9050613eca8282613e83565b919050565b600067ffffffffffffffff821115613eea57613ee9613e54565b5b613ef3826138df565b9050602081019050919050565b82818337600083830152505050565b6000613f22613f1d84613ecf565b613eb4565b905082815260208101848484011115613f3e57613f3d613e4f565b5b613f49848285613f00565b509392505050565b600082601f830112613f6657613f65613e4a565b5b8135613f76848260208601613f0f565b91505092915050565b60008060008060808587031215613f9957613f986137d4565b5b6000613fa787828801613a21565b9450506020613fb887828801613a21565b9350506040613fc98782880161396c565b925050606085013567ffffffffffffffff811115613fea57613fe96137d9565b5b613ff687828801613f51565b91505092959194509250565b600067ffffffffffffffff82111561401d5761401c613e54565b5b614026826138df565b9050602081019050919050565b600061404661404184614002565b613eb4565b90508281526020810184848401111561406257614061613e4f565b5b61406d848285613f00565b509392505050565b600082601f83011261408a57614089613e4a565b5b813561409a848260208601614033565b91505092915050565b6000806000606084860312156140bc576140bb6137d4565b5b600084013567ffffffffffffffff8111156140da576140d96137d9565b5b6140e686828701614075565b93505060206140f78682870161396c565b92505060406141088682870161396c565b9150509250925092565b60008060408385031215614129576141286137d4565b5b600061413785828601613a21565b925050602061414885828601613a21565b9150509250929050565b7f4e487b7100000000000000000000000000000000000000000000000000000000600052602260045260246000fd5b6000600282049050600182168061419957607f821691505b6020821081036141ac576141ab614152565b5b50919050565b7f4552433732313a20617070726f76616c20746f2063757272656e74206f776e6560008201527f7200000000000000000000000000000000000000000000000000000000000000602082015250565b600061420e6021836138a4565b9150614219826141b2565b604082019050919050565b6000602082019050818103600083015261423d81614201565b9050919050565b7f4552433732313a20617070726f76652063616c6c6572206973206e6f7420746f60008201527f6b656e206f776e6572206f7220617070726f76656420666f7220616c6c000000602082015250565b60006142a0603d836138a4565b91506142ab82614244565b604082019050919050565b600060208201905081810360008301526142cf81614293565b9050919050565b7f4e487b7100000000000000000000000000000000000000000000000000000000600052601160045260246000fd5b60006143108261394b565b915061431b8361394b565b9250828203905081811115614333576143326142d6565b5b92915050565b60006143448261394b565b915061434f8361394b565b9250828201905080821115614367576143666142d6565b5b92915050565b7f4e487b7100000000000000000000000000000000000000000000000000000000600052603260045260246000fd5b60006143a78261394b565b91507fffffffffffffffffffffffffffffffffffffffffffffffffffffffffffffffff82036143d9576143d86142d6565b5b600182019050919050565b7f4552433732313a2063616c6c6572206973206e6f7420746f6b656e206f776e6560008201527f72206f7220617070726f76656400000000000000000000000000000000000000602082015250565b6000614440602d836138a4565b915061444b826143e4565b604082019050919050565b6000602082019050818103600083015261446f81614433565b9050919050565b7f6f6e6c79206f776e6572206f662074686520636f6e74726163742063616e207560008201527f706461746520746865206c697374696e67207072696365000000000000000000602082015250565b60006144d26037836138a4565b91506144dd82614476565b604082019050919050565b60006020820190508181036000830152614501816144c5565b9050919050565b7f4e6f2066756e647320746f207769746864726177000000000000000000000000600082015250565b600061453e6014836138a4565b915061454982614508565b602082019050919050565b6000602082019050818103600083015261456d81614531565b9050919050565b600081905092915050565b50565b600061458f600083614574565b915061459a8261457f565b600082019050919050565b60006145b082614582565b9150819050919050565b7f4661696c656420746f2077697468647261772066756e64730000000000000000600082015250565b60006145f06018836138a4565b91506145fb826145ba565b602082019050919050565b6000602082019050818103600083015261461f816145e3565b9050919050565b600060408201905061463b6000830185613d3c565b61464860208301846139e0565b9392505050565b7f5072696365206d757374206265206174206c6561737420312077656900000000600082015250565b6000614685601c836138a4565b91506146908261464f565b602082019050919050565b600060208201905081810360008301526146b481614678565b9050919050565b7f5072696365206d757374206265207061696420696e2066756c6c000000000000600082015250565b60006146f1601a836138a4565b91506146fc826146bb565b602082019050919050565b60006020820190508181036000830152614720816146e4565b9050919050565b600060e08201905061473c600083018a6139e0565b61474960208301896139e0565b61475660408301886139e0565b6147636060830187613d3c565b6147706080830186613d3c565b61477d60a083018561386f565b61478a60c083018461386f565b98975050505050505050565b7f4e465420646f6573206e6f7420657869737420696e206d61726b6574706c616360008201527f6500000000000000000000000000000000000000000000000000000000000000602082015250565b60006147f26021836138a4565b91506147fd82614796565b604082019050919050565b60006020820190508181036000830152614821816147e5565b9050919050565b7f43616c6c6572206973206e6f7420746865206f776e6572000000000000000000600082015250565b600061485e6017836138a4565b915061486982614828565b602082019050919050565b6000602082019050818103600083015261488d81614851565b9050919050565b7f5072696365206d7573742062652067726561746572207468616e207a65726f00600082015250565b60006148ca601f836138a4565b91506148d582614894565b602082019050919050565b600060208201905081810360008301526148f9816148bd565b9050919050565b7f4552433732313a20696e76616c696420746f6b656e2049440000000000000000600082015250565b60006149366018836138a4565b915061494182614900565b602082019050919050565b6000602082019050818103600083015261496581614929565b9050919050565b7f4f6e6c79206f776e65722063616e2072656c697374204e465400000000000000600082015250565b60006149a26019836138a4565b91506149ad8261496c565b602082019050919050565b600060208201905081810360008301526149d181614995565b9050919050565b7f4552433732313a2061646472657373207a65726f206973206e6f74206120766160008201527f6c6964206f776e65720000000000000000000000000000000000000000000000602082015250565b6000614a346029836138a4565b9150614a3f826149d8565b604082019050919050565b60006020820190508181036000830152614a6381614a27565b9050919050565b6000606082019050614a7f60008301866139e0565b614a8c60208301856139e0565b614a996040830184613d3c565b949350505050565b7f506c65617365207375626d6974207468652061736b696e67207072696365206960008201527f6e206f7264657220746f20636f6d706c65746520746865207075726368617365602082015250565b6000614afd6040836138a4565b9150614b0882614aa1565b604082019050919050565b60006020820190508181036000830152614b2c81614af0565b9050919050565b600081905092915050565b6000614b4982613899565b614b538185614b33565b9350614b638185602086016138b5565b80840191505092915050565b6000614b7b8285614b3e565b9150614b878284614b3e565b91508190509392505050565b7f4552433732313a207472616e736665722066726f6d20696e636f72726563742060008201527f6f776e6572000000000000000000000000000000000000000000000000000000602082015250565b6000614bef6025836138a4565b9150614bfa82614b93565b604082019050919050565b60006020820190508181036000830152614c1e81614be2565b9050919050565b7f4552433732313a207472616e7366657220746f20746865207a65726f2061646460008201527f7265737300000000000000000000000000000000000000000000000000000000602082015250565b6000614c816024836138a4565b9150614c8c82614c25565b604082019050919050565b60006020820190508181036000830152614cb081614c74565b9050919050565b60006040820190508181036000830152614cd181856138f0565b9050614ce060208301846139e0565b9392505050565b60006040820190508181036000830152614d0181856138f0565b9050614d106020830184613d3c565b9392505050565b7f436f756e7465723a2064656372656d656e74206f766572666c6f770000000000600082015250565b6000614d4d601b836138a4565b9150614d5882614d17565b602082019050919050565b60006020820190508181036000830152614d7c81614d40565b9050919050565b7f4552433732313a20617070726f766520746f2063616c6c657200000000000000600082015250565b6000614db96019836138a4565b9150614dc482614d83565b602082019050919050565b60006020820190508181036000830152614de881614dac565b9050919050565b7f4552433732313a207472616e7366657220746f206e6f6e20455243373231526560008201527f63656976657220696d706c656d656e7465720000000000000000000000000000602082015250565b6000614e4b6032836138a4565b9150614e5682614def565b604082019050919050565b60006020820190508181036000830152614e7a81614e3e565b9050919050565b7f4552433732313a206d696e7420746f20746865207a65726f2061646472657373600082015250565b6000614eb76020836138a4565b9150614ec282614e81565b602082019050919050565b60006020820190508181036000830152614ee681614eaa565b9050919050565b7f4552433732313a20746f6b656e20616c7265616479206d696e74656400000000600082015250565b6000614f23601c836138a4565b9150614f2e82614eed565b602082019050919050565b60006020820190508181036000830152614f5281614f16565b9050919050565b7f45524337323155524953746f726167653a2055524920736574206f66206e6f6e60008201527f6578697374656e7420746f6b656e000000000000000000000000000000000000602082015250565b6000614fb5602e836138a4565b9150614fc082614f59565b604082019050919050565b60006020820190508181036000830152614fe481614fa8565b9050919050565b60008190508160005260206000209050919050565b60006020601f8301049050919050565b600082821b905092915050565b60006008830261504d7fffffffffffffffffffffffffffffffffffffffffffffffffffffffffffffffff82615010565b6150578683615010565b95508019841693508086168417925050509392505050565b6000819050919050565b600061509461508f61508a8461394b565b61506f565b61394b565b9050919050565b6000819050919050565b6150ae83615079565b6150c26150ba8261509b565b84845461501d565b825550505050565b600090565b6150d76150ca565b6150e28184846150a5565b505050565b5b81811015615106576150fb6000826150cf565b6001810190506150e8565b5050565b601f82111561514b5761511c81614feb565b61512584615000565b81016020851015615134578190505b61514861514085615000565b8301826150e7565b50505b505050565b600082821c905092915050565b600061516e60001984600802615150565b1980831691505092915050565b6000615187838361515d565b9150826002028217905092915050565b6151a082613899565b67ffffffffffffffff8111156151b9576151b8613e54565b5b6151c38254614181565b6151ce82828561510a565b600060209050601f83116001811461520157600084156151ef578287015190505b6151f9858261517b565b865550615261565b601f19841661520f86614feb565b60005b8281101561523757848901518255600182019150602085019450602081019050615212565b868310156152545784890151615250601f89168261515d565b8355505b6001600288020188555050505b505050505050565b600081519050919050565b600082825260208201905092915050565b600061529082615269565b61529a8185615274565b93506152aa8185602086016138b5565b6152b3816138df565b840191505092915050565b60006080820190506152d360008301876139e0565b6152e060208301866139e0565b6152ed6040830185613d3c565b81810360608301526152ff8184615285565b905095945050505050565b6000815190506153198161380a565b92915050565b600060208284031215615335576153346137d4565b5b60006153438482850161530a565b91505092915050565b7f4e487b7100000000000000000000000000000000000000000000000000000000600052601260045260246000fd5b7f4e487b7100000000000000000000000000000000000000000000000000000000600052605160045260246000fdfe437265617465204d61726b6574204974656d2046756e6374696f6e2043616c6c65723a20a2646970667358221220738db812b1ed25309fe42a67c0a400395e1a554b175617f17dc347977608096364736f6c63430008130033",
  "linkReferences": {},
  "deployedLinkReferences": {}
}