{
  "_format": "hh-sol-artifact-1",
  "contractName": "Marketplace",
  "sourceName": "contracts/Marketplace.sol",
  "abi": [
    {
      "inputs": [],
      "stateMutability": "nonpayable",
      "type": "constructor"
    },
    {
      "anonymous": false,
      "inputs": [
        {
          "indexed": true,
          "internalType": "address",
          "name": "owner",
          "type": "address"
        },
        {
          "indexed": true,
          "internalType": "address",
          "name": "approved",
          "type": "address"
        },
        {
          "indexed": true,
          "internalType": "uint256",
          "name": "tokenId",
          "type": "uint256"
        }
      ],
      "name": "Approval",
      "type": "event"
    },
    {
      "anonymous": false,
      "inputs": [
        {
          "indexed": true,
          "internalType": "address",
          "name": "owner",
          "type": "address"
        },
        {
          "indexed": true,
          "internalType": "address",
          "name": "operator",
          "type": "address"
        },
        {
          "indexed": false,
          "internalType": "bool",
          "name": "approved",
          "type": "bool"
        }
      ],
      "name": "ApprovalForAll",
      "type": "event"
    },
    {
      "anonymous": false,
      "inputs": [
        {
          "indexed": false,
          "internalType": "uint256",
          "name": "_fromTokenId",
          "type": "uint256"
        },
        {
          "indexed": false,
          "internalType": "uint256",
          "name": "_toTokenId",
          "type": "uint256"
        }
      ],
      "name": "BatchMetadataUpdate",
      "type": "event"
    },
    {
      "anonymous": false,
      "inputs": [
        {
          "indexed": false,
          "internalType": "uint256",
          "name": "amount",
          "type": "uint256"
        },
        {
          "indexed": false,
          "internalType": "address",
          "name": "targetWallet",
          "type": "address"
        }
      ],
      "name": "FundsWithdrawn",
      "type": "event"
    },
    {
      "anonymous": false,
      "inputs": [
        {
          "indexed": true,
          "internalType": "uint256",
          "name": "tokenId",
          "type": "uint256"
        },
        {
          "indexed": false,
          "internalType": "address",
          "name": "originalOwner",
          "type": "address"
        },
        {
          "indexed": false,
          "internalType": "address",
          "name": "seller",
          "type": "address"
        },
        {
          "indexed": false,
          "internalType": "address",
          "name": "owner",
          "type": "address"
        },
        {
          "indexed": false,
          "internalType": "uint256",
          "name": "royaltyPercentage",
          "type": "uint256"
        },
        {
          "indexed": false,
          "internalType": "uint256",
          "name": "price",
          "type": "uint256"
        },
        {
          "indexed": false,
          "internalType": "bool",
          "name": "auction",
          "type": "bool"
        },
        {
          "indexed": false,
          "internalType": "bool",
          "name": "sold",
          "type": "bool"
        }
      ],
      "name": "MarketItemCreated",
      "type": "event"
    },
    {
      "anonymous": false,
      "inputs": [
        {
          "indexed": false,
          "internalType": "uint256",
          "name": "_tokenId",
          "type": "uint256"
        }
      ],
      "name": "MetadataUpdate",
      "type": "event"
    },
    {
      "anonymous": false,
      "inputs": [
        {
          "indexed": false,
          "internalType": "uint256",
          "name": "nftId",
          "type": "uint256"
        },
        {
          "indexed": false,
          "internalType": "address",
          "name": "auctionWinner",
          "type": "address"
        }
      ],
      "name": "NFTTransferred",
      "type": "event"
    },
    {
      "anonymous": false,
      "inputs": [
        {
          "indexed": true,
          "internalType": "address",
          "name": "from",
          "type": "address"
        },
        {
          "indexed": true,
          "internalType": "address",
          "name": "to",
          "type": "address"
        },
        {
          "indexed": true,
          "internalType": "uint256",
          "name": "tokenId",
          "type": "uint256"
        }
      ],
      "name": "Transfer",
      "type": "event"
    },
    {
      "inputs": [
        {
          "internalType": "address",
          "name": "to",
          "type": "address"
        },
        {
          "internalType": "uint256",
          "name": "tokenId",
          "type": "uint256"
        }
      ],
      "name": "approve",
      "outputs": [],
      "stateMutability": "nonpayable",
      "type": "function"
    },
    {
      "inputs": [
        {
          "internalType": "address",
          "name": "owner",
          "type": "address"
        }
      ],
      "name": "balanceOf",
      "outputs": [
        {
          "internalType": "uint256",
          "name": "",
          "type": "uint256"
        }
      ],
      "stateMutability": "view",
      "type": "function"
    },
    {
      "inputs": [
        {
          "internalType": "uint256",
          "name": "tokenId",
          "type": "uint256"
        },
        {
          "internalType": "uint256",
          "name": "royaltyPercentage",
          "type": "uint256"
        },
        {
          "internalType": "uint256",
          "name": "price",
          "type": "uint256"
        }
      ],
      "name": "createMarketItem",
      "outputs": [],
      "stateMutability": "payable",
      "type": "function"
    },
    {
      "inputs": [
        {
          "internalType": "uint256",
          "name": "tokenId",
          "type": "uint256"
        }
      ],
      "name": "createMarketSale",
      "outputs": [],
      "stateMutability": "payable",
      "type": "function"
    },
    {
      "inputs": [
        {
          "internalType": "string",
          "name": "tokenURI",
          "type": "string"
        },
        {
          "internalType": "uint256",
          "name": "royaltyPercentage",
          "type": "uint256"
        },
        {
          "internalType": "uint256",
          "name": "price",
          "type": "uint256"
        }
      ],
      "name": "createToken",
      "outputs": [
        {
          "internalType": "uint256",
          "name": "",
          "type": "uint256"
        }
      ],
      "stateMutability": "payable",
      "type": "function"
    },
    {
      "inputs": [],
      "name": "fetchItemsListed",
      "outputs": [
        {
          "components": [
            {
              "internalType": "uint256",
              "name": "tokenId",
              "type": "uint256"
            },
            {
              "internalType": "address payable",
              "name": "originalOwner",
              "type": "address"
            },
            {
              "internalType": "address payable",
              "name": "seller",
              "type": "address"
            },
            {
              "internalType": "address payable",
              "name": "owner",
              "type": "address"
            },
            {
              "internalType": "uint256",
              "name": "royaltyPercentage",
              "type": "uint256"
            },
            {
              "internalType": "uint256",
              "name": "price",
              "type": "uint256"
            },
            {
              "internalType": "bool",
              "name": "auction",
              "type": "bool"
            },
            {
              "internalType": "bool",
              "name": "sold",
              "type": "bool"
            }
          ],
          "internalType": "struct Marketplace.MarketItem[]",
          "name": "",
          "type": "tuple[]"
        }
      ],
      "stateMutability": "view",
      "type": "function"
    },
    {
      "inputs": [],
      "name": "fetchMarketItems",
      "outputs": [
        {
          "components": [
            {
              "internalType": "uint256",
              "name": "tokenId",
              "type": "uint256"
            },
            {
              "internalType": "address payable",
              "name": "originalOwner",
              "type": "address"
            },
            {
              "internalType": "address payable",
              "name": "seller",
              "type": "address"
            },
            {
              "internalType": "address payable",
              "name": "owner",
              "type": "address"
            },
            {
              "internalType": "uint256",
              "name": "royaltyPercentage",
              "type": "uint256"
            },
            {
              "internalType": "uint256",
              "name": "price",
              "type": "uint256"
            },
            {
              "internalType": "bool",
              "name": "auction",
              "type": "bool"
            },
            {
              "internalType": "bool",
              "name": "sold",
              "type": "bool"
            }
          ],
          "internalType": "struct Marketplace.MarketItem[]",
          "name": "",
          "type": "tuple[]"
        }
      ],
      "stateMutability": "view",
      "type": "function"
    },
    {
      "inputs": [],
      "name": "fetchMyNFT",
      "outputs": [
        {
          "components": [
            {
              "internalType": "uint256",
              "name": "tokenId",
              "type": "uint256"
            },
            {
              "internalType": "address payable",
              "name": "originalOwner",
              "type": "address"
            },
            {
              "internalType": "address payable",
              "name": "seller",
              "type": "address"
            },
            {
              "internalType": "address payable",
              "name": "owner",
              "type": "address"
            },
            {
              "internalType": "uint256",
              "name": "royaltyPercentage",
              "type": "uint256"
            },
            {
              "internalType": "uint256",
              "name": "price",
              "type": "uint256"
            },
            {
              "internalType": "bool",
              "name": "auction",
              "type": "bool"
            },
            {
              "internalType": "bool",
              "name": "sold",
              "type": "bool"
            }
          ],
          "internalType": "struct Marketplace.MarketItem[]",
          "name": "",
          "type": "tuple[]"
        }
      ],
      "stateMutability": "view",
      "type": "function"
    },
    {
      "inputs": [
        {
          "internalType": "uint256",
          "name": "tokenId",
          "type": "uint256"
        }
      ],
      "name": "getApproved",
      "outputs": [
        {
          "internalType": "address",
          "name": "",
          "type": "address"
        }
      ],
      "stateMutability": "view",
      "type": "function"
    },
    {
      "inputs": [
        {
          "internalType": "uint256",
          "name": "tokenId",
          "type": "uint256"
        }
      ],
      "name": "getRoyaltyData",
      "outputs": [
        {
          "internalType": "uint256",
          "name": "",
          "type": "uint256"
        },
        {
          "internalType": "address payable",
          "name": "",
          "type": "address"
        }
      ],
      "stateMutability": "view",
      "type": "function"
    },
    {
      "inputs": [
        {
          "internalType": "uint256",
          "name": "tokenId",
          "type": "uint256"
        }
      ],
      "name": "getSellerAddress",
      "outputs": [
        {
          "internalType": "address",
          "name": "",
          "type": "address"
        }
      ],
      "stateMutability": "view",
      "type": "function"
    },
    {
      "inputs": [
        {
          "internalType": "uint256",
          "name": "tokenId",
          "type": "uint256"
        },
        {
          "internalType": "address",
          "name": "winner",
          "type": "address"
        }
      ],
      "name": "handleAuctionEnd",
      "outputs": [],
      "stateMutability": "nonpayable",
      "type": "function"
    },
    {
      "inputs": [
        {
          "internalType": "address",
          "name": "owner",
          "type": "address"
        },
        {
          "internalType": "address",
          "name": "operator",
          "type": "address"
        }
      ],
      "name": "isApprovedForAll",
      "outputs": [
        {
          "internalType": "bool",
          "name": "",
          "type": "bool"
        }
      ],
      "stateMutability": "view",
      "type": "function"
    },
    {
      "inputs": [],
      "name": "name",
      "outputs": [
        {
          "internalType": "string",
          "name": "",
          "type": "string"
        }
      ],
      "stateMutability": "view",
      "type": "function"
    },
    {
      "inputs": [
        {
          "internalType": "uint256",
          "name": "tokenId",
          "type": "uint256"
        }
      ],
      "name": "ownerOf",
      "outputs": [
        {
          "internalType": "address",
          "name": "",
          "type": "address"
        }
      ],
      "stateMutability": "view",
      "type": "function"
    },
    {
      "inputs": [
        {
          "internalType": "uint256",
          "name": "tokenId",
          "type": "uint256"
        },
        {
          "internalType": "uint256",
          "name": "price",
          "type": "uint256"
        },
        {
          "internalType": "address",
          "name": "seller",
          "type": "address"
        }
      ],
      "name": "resellMarketItem",
      "outputs": [],
      "stateMutability": "payable",
      "type": "function"
    },
    {
      "inputs": [
        {
          "internalType": "address",
          "name": "from",
          "type": "address"
        },
        {
          "internalType": "address",
          "name": "to",
          "type": "address"
        },
        {
          "internalType": "uint256",
          "name": "tokenId",
          "type": "uint256"
        }
      ],
      "name": "safeTransferFrom",
      "outputs": [],
      "stateMutability": "nonpayable",
      "type": "function"
    },
    {
      "inputs": [
        {
          "internalType": "address",
          "name": "from",
          "type": "address"
        },
        {
          "internalType": "address",
          "name": "to",
          "type": "address"
        },
        {
          "internalType": "uint256",
          "name": "tokenId",
          "type": "uint256"
        },
        {
          "internalType": "bytes",
          "name": "data",
          "type": "bytes"
        }
      ],
      "name": "safeTransferFrom",
      "outputs": [],
      "stateMutability": "nonpayable",
      "type": "function"
    },
    {
      "inputs": [
        {
          "internalType": "address",
          "name": "operator",
          "type": "address"
        },
        {
          "internalType": "bool",
          "name": "approved",
          "type": "bool"
        }
      ],
      "name": "setApprovalForAll",
      "outputs": [],
      "stateMutability": "nonpayable",
      "type": "function"
    },
    {
      "inputs": [
        {
          "internalType": "address",
          "name": "auctionFactoryAddress",
          "type": "address"
        }
      ],
      "name": "setAuctionFactoryAddress",
      "outputs": [],
      "stateMutability": "nonpayable",
      "type": "function"
    },
    {
      "inputs": [
        {
          "internalType": "bytes4",
          "name": "interfaceId",
          "type": "bytes4"
        }
      ],
      "name": "supportsInterface",
      "outputs": [
        {
          "internalType": "bool",
          "name": "",
          "type": "bool"
        }
      ],
      "stateMutability": "view",
      "type": "function"
    },
    {
      "inputs": [],
      "name": "symbol",
      "outputs": [
        {
          "internalType": "string",
          "name": "",
          "type": "string"
        }
      ],
      "stateMutability": "view",
      "type": "function"
    },
    {
      "inputs": [
        {
          "internalType": "uint256",
          "name": "tokenId",
          "type": "uint256"
        }
      ],
      "name": "tokenURI",
      "outputs": [
        {
          "internalType": "string",
          "name": "",
          "type": "string"
        }
      ],
      "stateMutability": "view",
      "type": "function"
    },
    {
      "inputs": [
        {
          "internalType": "address",
          "name": "from",
          "type": "address"
        },
        {
          "internalType": "address",
          "name": "to",
          "type": "address"
        },
        {
          "internalType": "uint256",
          "name": "tokenId",
          "type": "uint256"
        }
      ],
      "name": "transferFrom",
      "outputs": [],
      "stateMutability": "nonpayable",
      "type": "function"
    },
    {
      "inputs": [
        {
          "internalType": "uint256",
          "name": "_listingPrice",
          "type": "uint256"
        }
      ],
      "name": "updateListingPrice",
      "outputs": [],
      "stateMutability": "payable",
      "type": "function"
    },
    {
      "inputs": [
        {
          "internalType": "uint256",
          "name": "tokenId",
          "type": "uint256"
        },
        {
          "internalType": "uint256",
          "name": "price",
          "type": "uint256"
        }
      ],
      "name": "updateNFTPrice",
      "outputs": [],
      "stateMutability": "nonpayable",
      "type": "function"
    },
    {
      "inputs": [],
      "name": "withdrawFunds",
      "outputs": [],
      "stateMutability": "nonpayable",
      "type": "function"
    }
  ],
  "bytecode": "0x60806040526608e1bc9bf04000600a553480156200001c57600080fd5b506040518060400160405280601381526020017f4e4654204d657461766572736520546f6b656e000000000000000000000000008152506040518060400160405280600581526020017f4d594e465400000000000000000000000000000000000000000000000000000081525081600090816200009a919062000378565b508060019081620000ac919062000378565b505050600160078190555033600b60006101000a81548173ffffffffffffffffffffffffffffffffffffffff021916908373ffffffffffffffffffffffffffffffffffffffff1602179055506200045f565b600081519050919050565b7f4e487b7100000000000000000000000000000000000000000000000000000000600052604160045260246000fd5b7f4e487b7100000000000000000000000000000000000000000000000000000000600052602260045260246000fd5b600060028204905060018216806200018057607f821691505b60208210810362000196576200019562000138565b5b50919050565b60008190508160005260206000209050919050565b60006020601f8301049050919050565b600082821b905092915050565b600060088302620002007fffffffffffffffffffffffffffffffffffffffffffffffffffffffffffffffff82620001c1565b6200020c8683620001c1565b95508019841693508086168417925050509392505050565b6000819050919050565b6000819050919050565b600062000259620002536200024d8462000224565b6200022e565b62000224565b9050919050565b6000819050919050565b620002758362000238565b6200028d620002848262000260565b848454620001ce565b825550505050565b600090565b620002a462000295565b620002b18184846200026a565b505050565b5b81811015620002d957620002cd6000826200029a565b600181019050620002b7565b5050565b601f8211156200032857620002f2816200019c565b620002fd84620001b1565b810160208510156200030d578190505b620003256200031c85620001b1565b830182620002b6565b50505b505050565b600082821c905092915050565b60006200034d600019846008026200032d565b1980831691505092915050565b60006200036883836200033a565b9150826002028217905092915050565b6200038382620000fe565b67ffffffffffffffff8111156200039f576200039e62000109565b5b620003ab825462000167565b620003b8828285620002dd565b600060209050601f831160018114620003f05760008415620003db578287015190505b620003e785826200035a565b86555062000457565b601f19841662000400866200019c565b60005b828110156200042a5784890151825560018201915060208501945060208101905062000403565b868310156200044a578489015162000446601f8916826200033a565b8355505b6001600288020188555050505b505050505050565b615458806200046f6000396000f3fe60806040526004361061019c5760003560e01c806370a08231116100ec578063ae677aa31161008a578063bec2a7c511610064578063bec2a7c51461058b578063c18763f7146105bb578063c87b56dd146105e6578063e985e9c5146106235761019c565b8063ae677aa31461052a578063b88d4fde14610546578063be9af5361461056f5761019c565b806395d89b41116100c657806395d89b411461045b578063a22cb46514610486578063a65ff74c146104af578063a675364d146104ed5761019c565b806370a08231146103d9578063804fa835146104165780638f329b31146104325761019c565b806323b872dd1161015957806342842e0e1161013357806342842e0e1461031f57806345f8fa80146103485780634ac0123d146103735780636352211e1461039c5761019c565b806323b872dd146102c357806324600fc3146102ec578063320343da146103035761019c565b806301ffc9a7146101a157806306fdde03146101de578063081812fc14610209578063095ea7b3146102465780630f08efe01461026f5780631cb881331461029a575b600080fd5b3480156101ad57600080fd5b506101c860048036038101906101c39190613837565b610660565b6040516101d5919061387f565b60405180910390f35b3480156101ea57600080fd5b506101f36106c1565b604051610200919061392a565b60405180910390f35b34801561021557600080fd5b50610230600480360381019061022b9190613982565b610753565b60405161023d91906139f0565b60405180910390f35b34801561025257600080fd5b5061026d60048036038101906102689190613a37565b610799565b005b34801561027b57600080fd5b506102846108b0565b6040516102919190613c08565b60405180910390f35b3480156102a657600080fd5b506102c160048036038101906102bc9190613c2a565b610b94565b005b3480156102cf57600080fd5b506102ea60048036038101906102e59190613c57565b610bd8565b005b3480156102f857600080fd5b50610301610c38565b005b61031d60048036038101906103189190613caa565b610e1b565b005b34801561032b57600080fd5b5061034660048036038101906103419190613c57565b6110e5565b005b34801561035457600080fd5b5061035d611105565b60405161036a9190613c08565b60405180910390f35b34801561037f57600080fd5b5061039a60048036038101906103959190613cfd565b61146d565b005b3480156103a857600080fd5b506103c360048036038101906103be9190613982565b61166d565b6040516103d091906139f0565b60405180910390f35b3480156103e557600080fd5b5061040060048036038101906103fb9190613c2a565b6116f3565b60405161040d9190613d4c565b60405180910390f35b610430600480360381019061042b9190613d67565b6117aa565b005b34801561043e57600080fd5b5061045960048036038101906104549190613dba565b611a4c565b005b34801561046757600080fd5b50610470611b4d565b60405161047d919061392a565b60405180910390f35b34801561049257600080fd5b506104ad60048036038101906104a89190613e26565b611bdf565b005b3480156104bb57600080fd5b506104d660048036038101906104d19190613982565b611bf5565b6040516104e4929190613e75565b60405180910390f35b3480156104f957600080fd5b50610514600480360381019061050f9190613982565b611d85565b60405161052191906139f0565b60405180910390f35b610544600480360381019061053f9190613982565b611dc5565b005b34801561055257600080fd5b5061056d60048036038101906105689190613fd3565b611e5f565b005b61058960048036038101906105849190613982565b611ec1565b005b6105a560048036038101906105a091906140f7565b6120a3565b6040516105b29190613d4c565b60405180910390f35b3480156105c757600080fd5b506105d06120e7565b6040516105dd9190613c08565b60405180910390f35b3480156105f257600080fd5b5061060d60048036038101906106089190613982565b61244f565b60405161061a919061392a565b60405180910390f35b34801561062f57600080fd5b5061064a60048036038101906106459190614166565b612561565b604051610657919061387f565b60405180910390f35b6000634906490660e01b7bffffffffffffffffffffffffffffffffffffffffffffffffffffffff1916827bffffffffffffffffffffffffffffffffffffffffffffffffffffffff191614806106ba57506106b9826125f5565b5b9050919050565b6060600080546106d0906141d5565b80601f01602080910402602001604051908101604052809291908181526020018280546106fc906141d5565b80156107495780601f1061071e57610100808354040283529160200191610749565b820191906000526020600020905b81548152906001019060200180831161072c57829003601f168201915b5050505050905090565b600061075e826126d7565b6004600083815260200190815260200160002060009054906101000a900473ffffffffffffffffffffffffffffffffffffffff169050919050565b60006107a48261166d565b90508073ffffffffffffffffffffffffffffffffffffffff168373ffffffffffffffffffffffffffffffffffffffff1603610814576040517f08c379a000000000000000000000000000000000000000000000000000000000815260040161080b90614278565b60405180910390fd5b8073ffffffffffffffffffffffffffffffffffffffff16610833612722565b73ffffffffffffffffffffffffffffffffffffffff16148061086257506108618161085c612722565b612561565b5b6108a1576040517f08c379a00000000000000000000000000000000000000000000000000000000081526004016108989061430a565b60405180910390fd5b6108ab838361272a565b505050565b606060006108be60086127e3565b905060006108cc60096127e3565b6108d660086127e3565b6108e09190614359565b90506000808267ffffffffffffffff8111156108ff576108fe613ea8565b5b60405190808252806020026020018201604052801561093857816020015b610925613736565b81526020019060019003908161091d5790505b50905060005b84811015610b89573073ffffffffffffffffffffffffffffffffffffffff16600d600060018461096e919061438d565b815260200190815260200160002060030160009054906101000a900473ffffffffffffffffffffffffffffffffffffffff1673ffffffffffffffffffffffffffffffffffffffff1603610b765760006001826109ca919061438d565b90506000600d600083815260200190815260200160002090508060405180610100016040529081600082015481526020016001820160009054906101000a900473ffffffffffffffffffffffffffffffffffffffff1673ffffffffffffffffffffffffffffffffffffffff1673ffffffffffffffffffffffffffffffffffffffff1681526020016002820160009054906101000a900473ffffffffffffffffffffffffffffffffffffffff1673ffffffffffffffffffffffffffffffffffffffff1673ffffffffffffffffffffffffffffffffffffffff1681526020016003820160009054906101000a900473ffffffffffffffffffffffffffffffffffffffff1673ffffffffffffffffffffffffffffffffffffffff1673ffffffffffffffffffffffffffffffffffffffff16815260200160048201548152602001600582015481526020016006820160009054906101000a900460ff161515151581526020016006820160019054906101000a900460ff161515151581525050848681518110610b5957610b586143c1565b5b6020026020010181905250600185610b71919061438d565b945050505b8080610b81906143f0565b91505061093e565b508094505050505090565b80600c60006101000a81548173ffffffffffffffffffffffffffffffffffffffff021916908373ffffffffffffffffffffffffffffffffffffffff16021790555050565b610be9610be3612722565b826127f1565b610c28576040517f08c379a0000000000000000000000000000000000000000000000000000000008152600401610c1f906144aa565b60405180910390fd5b610c33838383612886565b505050565b600b60009054906101000a900473ffffffffffffffffffffffffffffffffffffffff1673ffffffffffffffffffffffffffffffffffffffff163373ffffffffffffffffffffffffffffffffffffffff1614610cc8576040517f08c379a0000000000000000000000000000000000000000000000000000000008152600401610cbf9061453c565b60405180910390fd5b600047905060008111610d10576040517f08c379a0000000000000000000000000000000000000000000000000000000008152600401610d07906145a8565b60405180910390fd5b6000600b60009054906101000a900473ffffffffffffffffffffffffffffffffffffffff1673ffffffffffffffffffffffffffffffffffffffff1682604051610d58906145f9565b60006040518083038185875af1925050503d8060008114610d95576040519150601f19603f3d011682016040523d82523d6000602084013e610d9a565b606091505b5050905080610dde576040517f08c379a0000000000000000000000000000000000000000000000000000000008152600401610dd59061465a565b60405180910390fd5b7f6141b54b56b8a52a8c6f5cd2a857f6117b18ffbf4d46bd3106f300a839cbf5ea8233604051610e0f92919061467a565b60405180910390a15050565b610e3d6040518060600160405280602481526020016153ff6024913933612b7f565b60008111610e80576040517f08c379a0000000000000000000000000000000000000000000000000000000008152600401610e77906146ef565b60405180910390fd5b600a543414610ec4576040517f08c379a0000000000000000000000000000000000000000000000000000000008152600401610ebb9061475b565b60405180910390fd5b6040518061010001604052808481526020013373ffffffffffffffffffffffffffffffffffffffff1681526020013373ffffffffffffffffffffffffffffffffffffffff1681526020013073ffffffffffffffffffffffffffffffffffffffff16815260200183815260200182815260200160001515815260200160001515815250600d60008581526020019081526020016000206000820151816000015560208201518160010160006101000a81548173ffffffffffffffffffffffffffffffffffffffff021916908373ffffffffffffffffffffffffffffffffffffffff16021790555060408201518160020160006101000a81548173ffffffffffffffffffffffffffffffffffffffff021916908373ffffffffffffffffffffffffffffffffffffffff16021790555060608201518160030160006101000a81548173ffffffffffffffffffffffffffffffffffffffff021916908373ffffffffffffffffffffffffffffffffffffffff1602179055506080820151816004015560a0820151816005015560c08201518160060160006101000a81548160ff02191690831515021790555060e08201518160060160016101000a81548160ff02191690831515021790555090505061109a333085612886565b827f6be207084465b1afd1fb9af05976e6d285e34a16bc67aaa8e62ebbbf7c406aac3333600086866000806040516110d8979695949392919061477b565b60405180910390a2505050565b61110083838360405180602001604052806000815250611e5f565b505050565b6060600061111360086127e3565b905060008060005b838110156111bb573373ffffffffffffffffffffffffffffffffffffffff16600d600060018461114b919061438d565b815260200190815260200160002060020160009054906101000a900473ffffffffffffffffffffffffffffffffffffffff1673ffffffffffffffffffffffffffffffffffffffff16036111a8576001836111a5919061438d565b92505b80806111b3906143f0565b91505061111b565b5060008267ffffffffffffffff8111156111d8576111d7613ea8565b5b60405190808252806020026020018201604052801561121157816020015b6111fe613736565b8152602001906001900390816111f65790505b50905060005b84811015611462573373ffffffffffffffffffffffffffffffffffffffff16600d6000600184611247919061438d565b815260200190815260200160002060020160009054906101000a900473ffffffffffffffffffffffffffffffffffffffff1673ffffffffffffffffffffffffffffffffffffffff160361144f5760006001826112a3919061438d565b90506000600d600083815260200190815260200160002090508060405180610100016040529081600082015481526020016001820160009054906101000a900473ffffffffffffffffffffffffffffffffffffffff1673ffffffffffffffffffffffffffffffffffffffff1673ffffffffffffffffffffffffffffffffffffffff1681526020016002820160009054906101000a900473ffffffffffffffffffffffffffffffffffffffff1673ffffffffffffffffffffffffffffffffffffffff1673ffffffffffffffffffffffffffffffffffffffff1681526020016003820160009054906101000a900473ffffffffffffffffffffffffffffffffffffffff1673ffffffffffffffffffffffffffffffffffffffff1673ffffffffffffffffffffffffffffffffffffffff16815260200160048201548152602001600582015481526020016006820160009054906101000a900460ff161515151581526020016006820160019054906101000a900460ff161515151581525050848681518110611432576114316143c1565b5b602002602001018190525060018561144a919061438d565b945050505b808061145a906143f0565b915050611217565b508094505050505090565b600073ffffffffffffffffffffffffffffffffffffffff16600d600084815260200190815260200160002060030160009054906101000a900473ffffffffffffffffffffffffffffffffffffffff1673ffffffffffffffffffffffffffffffffffffffff1603611512576040517f08c379a00000000000000000000000000000000000000000000000000000000081526004016115099061485c565b60405180910390fd5b3373ffffffffffffffffffffffffffffffffffffffff16600d600084815260200190815260200160002060020160009054906101000a900473ffffffffffffffffffffffffffffffffffffffff1673ffffffffffffffffffffffffffffffffffffffff16146115b6576040517f08c379a00000000000000000000000000000000000000000000000000000000081526004016115ad906148c8565b60405180910390fd5b600081116115f9576040517f08c379a00000000000000000000000000000000000000000000000000000000081526004016115f090614934565b60405180910390fd5b80600d6000848152602001908152602001600020600501819055506116696040518060400160405280601581526020017f55706461746564206d61726b6574206974656d3a200000000000000000000000815250600d600085815260200190815260200160002060050154612c1b565b5050565b60008061167983612cb7565b9050600073ffffffffffffffffffffffffffffffffffffffff168173ffffffffffffffffffffffffffffffffffffffff16036116ea576040517f08c379a00000000000000000000000000000000000000000000000000000000081526004016116e1906149a0565b60405180910390fd5b80915050919050565b60008073ffffffffffffffffffffffffffffffffffffffff168273ffffffffffffffffffffffffffffffffffffffff1603611763576040517f08c379a000000000000000000000000000000000000000000000000000000000815260040161175a90614a32565b60405180910390fd5b600360008373ffffffffffffffffffffffffffffffffffffffff1673ffffffffffffffffffffffffffffffffffffffff168152602001908152602001600020549050919050565b3373ffffffffffffffffffffffffffffffffffffffff16600d600085815260200190815260200160002060030160009054906101000a900473ffffffffffffffffffffffffffffffffffffffff1673ffffffffffffffffffffffffffffffffffffffff1614806118675750600c60009054906101000a900473ffffffffffffffffffffffffffffffffffffffff1673ffffffffffffffffffffffffffffffffffffffff163373ffffffffffffffffffffffffffffffffffffffff16145b6118a6576040517f08c379a000000000000000000000000000000000000000000000000000000000815260040161189d90614a9e565b60405180910390fd5b600c60009054906101000a900473ffffffffffffffffffffffffffffffffffffffff1673ffffffffffffffffffffffffffffffffffffffff163373ffffffffffffffffffffffffffffffffffffffff160361192b576001600d600085815260200190815260200160002060060160006101000a81548160ff0219169083151502179055505b6000600d600085815260200190815260200160002060060160016101000a81548160ff02191690831515021790555081600d60008581526020019081526020016000206005018190555033600d600085815260200190815260200160002060020160006101000a81548173ffffffffffffffffffffffffffffffffffffffff021916908373ffffffffffffffffffffffffffffffffffffffff16021790555030600d600085815260200190815260200160002060030160006101000a81548173ffffffffffffffffffffffffffffffffffffffff021916908373ffffffffffffffffffffffffffffffffffffffff1602179055506000611a2b60096127e3565b1115611a3c57611a3b6009612cf4565b5b611a47813085612886565b505050565b3073ffffffffffffffffffffffffffffffffffffffff166342842e0e3083856040518463ffffffff1660e01b8152600401611a8993929190614abe565b600060405180830381600087803b158015611aa357600080fd5b505af1158015611ab7573d6000803e3d6000fd5b5050505080600d600084815260200190815260200160002060030160006101000a81548173ffffffffffffffffffffffffffffffffffffffff021916908373ffffffffffffffffffffffffffffffffffffffff1602179055507f20665ee57a5e13af162123968d777ccebe86531a21e53d08afc78138a950192d8282604051611b4192919061467a565b60405180910390a15050565b606060018054611b5c906141d5565b80601f0160208091040260200160405190810160405280929190818152602001828054611b88906141d5565b8015611bd55780601f10611baa57610100808354040283529160200191611bd5565b820191906000526020600020905b815481529060010190602001808311611bb857829003601f168201915b5050505050905090565b611bf1611bea612722565b8383612d50565b5050565b6000806000600d600085815260200190815260200160002060405180610100016040529081600082015481526020016001820160009054906101000a900473ffffffffffffffffffffffffffffffffffffffff1673ffffffffffffffffffffffffffffffffffffffff1673ffffffffffffffffffffffffffffffffffffffff1681526020016002820160009054906101000a900473ffffffffffffffffffffffffffffffffffffffff1673ffffffffffffffffffffffffffffffffffffffff1673ffffffffffffffffffffffffffffffffffffffff1681526020016003820160009054906101000a900473ffffffffffffffffffffffffffffffffffffffff1673ffffffffffffffffffffffffffffffffffffffff1673ffffffffffffffffffffffffffffffffffffffff16815260200160048201548152602001600582015481526020016006820160009054906101000a900460ff161515151581526020016006820160019054906101000a900460ff1615151515815250509050806080015181602001519250925050915091565b6000600d600083815260200190815260200160002060020160009054906101000a900473ffffffffffffffffffffffffffffffffffffffff169050919050565b600b60009054906101000a900473ffffffffffffffffffffffffffffffffffffffff1673ffffffffffffffffffffffffffffffffffffffff163373ffffffffffffffffffffffffffffffffffffffff1614611e55576040517f08c379a0000000000000000000000000000000000000000000000000000000008152600401611e4c9061453c565b60405180910390fd5b80600a8190555050565b611e70611e6a612722565b836127f1565b611eaf576040517f08c379a0000000000000000000000000000000000000000000000000000000008152600401611ea6906144aa565b60405180910390fd5b611ebb84848484612ebc565b50505050565b6000600d6000838152602001908152602001600020600501549050803414611f1e576040517f08c379a0000000000000000000000000000000000000000000000000000000008152600401611f1590614b67565b60405180910390fd5b33600d600084815260200190815260200160002060030160006101000a81548173ffffffffffffffffffffffffffffffffffffffff021916908373ffffffffffffffffffffffffffffffffffffffff1602179055506001600d600084815260200190815260200160002060060160016101000a81548160ff021916908315150217905550611fac6009612f18565b611fb7303384612886565b600b60009054906101000a900473ffffffffffffffffffffffffffffffffffffffff1673ffffffffffffffffffffffffffffffffffffffff166108fc600a549081150290604051600060405180830381858888f19350505050158015612021573d6000803e3d6000fd5b50600d600083815260200190815260200160002060020160009054906101000a900473ffffffffffffffffffffffffffffffffffffffff1673ffffffffffffffffffffffffffffffffffffffff166108fc349081150290604051600060405180830381858888f1935050505015801561209e573d6000803e3d6000fd5b505050565b60006120af6008612f18565b60006120bb60086127e3565b90506120c73382612f2e565b6120d1818661314b565b6120dc818585610e1b565b809150509392505050565b606060006120f560086127e3565b905060008060005b8381101561219d573373ffffffffffffffffffffffffffffffffffffffff16600d600060018461212d919061438d565b815260200190815260200160002060030160009054906101000a900473ffffffffffffffffffffffffffffffffffffffff1673ffffffffffffffffffffffffffffffffffffffff160361218a57600183612187919061438d565b92505b8080612195906143f0565b9150506120fd565b5060008267ffffffffffffffff8111156121ba576121b9613ea8565b5b6040519080825280602002602001820160405280156121f357816020015b6121e0613736565b8152602001906001900390816121d85790505b50905060005b84811015612444573373ffffffffffffffffffffffffffffffffffffffff16600d6000600184612229919061438d565b815260200190815260200160002060030160009054906101000a900473ffffffffffffffffffffffffffffffffffffffff1673ffffffffffffffffffffffffffffffffffffffff1603612431576000600182612285919061438d565b90506000600d600083815260200190815260200160002090508060405180610100016040529081600082015481526020016001820160009054906101000a900473ffffffffffffffffffffffffffffffffffffffff1673ffffffffffffffffffffffffffffffffffffffff1673ffffffffffffffffffffffffffffffffffffffff1681526020016002820160009054906101000a900473ffffffffffffffffffffffffffffffffffffffff1673ffffffffffffffffffffffffffffffffffffffff1673ffffffffffffffffffffffffffffffffffffffff1681526020016003820160009054906101000a900473ffffffffffffffffffffffffffffffffffffffff1673ffffffffffffffffffffffffffffffffffffffff1673ffffffffffffffffffffffffffffffffffffffff16815260200160048201548152602001600582015481526020016006820160009054906101000a900460ff161515151581526020016006820160019054906101000a900460ff161515151581525050848681518110612414576124136143c1565b5b602002602001018190525060018561242c919061438d565b945050505b808061243c906143f0565b9150506121f9565b508094505050505090565b606061245a826126d7565b600060066000848152602001908152602001600020805461247a906141d5565b80601f01602080910402602001604051908101604052809291908181526020018280546124a6906141d5565b80156124f35780601f106124c8576101008083540402835291602001916124f3565b820191906000526020600020905b8154815290600101906020018083116124d657829003601f168201915b5050505050905060006125046131ef565b9050600081510361251957819250505061255c565b60008251111561254e578082604051602001612536929190614bc3565b6040516020818303038152906040529250505061255c565b61255784613206565b925050505b919050565b6000600560008473ffffffffffffffffffffffffffffffffffffffff1673ffffffffffffffffffffffffffffffffffffffff16815260200190815260200160002060008373ffffffffffffffffffffffffffffffffffffffff1673ffffffffffffffffffffffffffffffffffffffff16815260200190815260200160002060009054906101000a900460ff16905092915050565b60007f80ac58cd000000000000000000000000000000000000000000000000000000007bffffffffffffffffffffffffffffffffffffffffffffffffffffffff1916827bffffffffffffffffffffffffffffffffffffffffffffffffffffffff191614806126c057507f5b5e139f000000000000000000000000000000000000000000000000000000007bffffffffffffffffffffffffffffffffffffffffffffffffffffffff1916827bffffffffffffffffffffffffffffffffffffffffffffffffffffffff1916145b806126d057506126cf8261326e565b5b9050919050565b6126e0816132d8565b61271f576040517f08c379a0000000000000000000000000000000000000000000000000000000008152600401612716906149a0565b60405180910390fd5b50565b600033905090565b816004600083815260200190815260200160002060006101000a81548173ffffffffffffffffffffffffffffffffffffffff021916908373ffffffffffffffffffffffffffffffffffffffff160217905550808273ffffffffffffffffffffffffffffffffffffffff1661279d8361166d565b73ffffffffffffffffffffffffffffffffffffffff167f8c5be1e5ebec7d5bd14f71427d1e84f3dd0314c0f7b2291e5b200ac8c7c3b92560405160405180910390a45050565b600081600001549050919050565b6000806127fd8361166d565b90508073ffffffffffffffffffffffffffffffffffffffff168473ffffffffffffffffffffffffffffffffffffffff16148061283f575061283e8185612561565b5b8061287d57508373ffffffffffffffffffffffffffffffffffffffff1661286584610753565b73ffffffffffffffffffffffffffffffffffffffff16145b91505092915050565b8273ffffffffffffffffffffffffffffffffffffffff166128a68261166d565b73ffffffffffffffffffffffffffffffffffffffff16146128fc576040517f08c379a00000000000000000000000000000000000000000000000000000000081526004016128f390614c59565b60405180910390fd5b600073ffffffffffffffffffffffffffffffffffffffff168273ffffffffffffffffffffffffffffffffffffffff160361296b576040517f08c379a000000000000000000000000000000000000000000000000000000000815260040161296290614ceb565b60405180910390fd5b6129788383836001613319565b8273ffffffffffffffffffffffffffffffffffffffff166129988261166d565b73ffffffffffffffffffffffffffffffffffffffff16146129ee576040517f08c379a00000000000000000000000000000000000000000000000000000000081526004016129e590614c59565b60405180910390fd5b6004600082815260200190815260200160002060006101000a81549073ffffffffffffffffffffffffffffffffffffffff02191690556001600360008573ffffffffffffffffffffffffffffffffffffffff1673ffffffffffffffffffffffffffffffffffffffff168152602001908152602001600020600082825403925050819055506001600360008473ffffffffffffffffffffffffffffffffffffffff1673ffffffffffffffffffffffffffffffffffffffff16815260200190815260200160002060008282540192505081905550816002600083815260200190815260200160002060006101000a81548173ffffffffffffffffffffffffffffffffffffffff021916908373ffffffffffffffffffffffffffffffffffffffff160217905550808273ffffffffffffffffffffffffffffffffffffffff168473ffffffffffffffffffffffffffffffffffffffff167fddf252ad1be2c89b69c2b068fc378daa952ba7f163c4a11628f55a4df523b3ef60405160405180910390a4612b7a838383600161331f565b505050565b612c178282604051602401612b95929190614d0b565b6040516020818303038152906040527f319af333000000000000000000000000000000000000000000000000000000007bffffffffffffffffffffffffffffffffffffffffffffffffffffffff19166020820180517bffffffffffffffffffffffffffffffffffffffffffffffffffffffff8381831617835250505050613325565b5050565b612cb38282604051602401612c31929190614d3b565b6040516020818303038152906040527fb60e72cc000000000000000000000000000000000000000000000000000000007bffffffffffffffffffffffffffffffffffffffffffffffffffffffff19166020820180517bffffffffffffffffffffffffffffffffffffffffffffffffffffffff8381831617835250505050613325565b5050565b60006002600083815260200190815260200160002060009054906101000a900473ffffffffffffffffffffffffffffffffffffffff169050919050565b60008160000154905060008111612d40576040517f08c379a0000000000000000000000000000000000000000000000000000000008152600401612d3790614db7565b60405180910390fd5b6001810382600001819055505050565b8173ffffffffffffffffffffffffffffffffffffffff168373ffffffffffffffffffffffffffffffffffffffff1603612dbe576040517f08c379a0000000000000000000000000000000000000000000000000000000008152600401612db590614e23565b60405180910390fd5b80600560008573ffffffffffffffffffffffffffffffffffffffff1673ffffffffffffffffffffffffffffffffffffffff16815260200190815260200160002060008473ffffffffffffffffffffffffffffffffffffffff1673ffffffffffffffffffffffffffffffffffffffff16815260200190815260200160002060006101000a81548160ff0219169083151502179055508173ffffffffffffffffffffffffffffffffffffffff168373ffffffffffffffffffffffffffffffffffffffff167f17307eab39ab6107e8899845ad3d59bd9653f200f220920489ca2b5937696c3183604051612eaf919061387f565b60405180910390a3505050565b612ec7848484612886565b612ed38484848461333f565b612f12576040517f08c379a0000000000000000000000000000000000000000000000000000000008152600401612f0990614eb5565b60405180910390fd5b50505050565b6001816000016000828254019250508190555050565b600073ffffffffffffffffffffffffffffffffffffffff168273ffffffffffffffffffffffffffffffffffffffff1603612f9d576040517f08c379a0000000000000000000000000000000000000000000000000000000008152600401612f9490614f21565b60405180910390fd5b612fa6816132d8565b15612fe6576040517f08c379a0000000000000000000000000000000000000000000000000000000008152600401612fdd90614f8d565b60405180910390fd5b612ff4600083836001613319565b612ffd816132d8565b1561303d576040517f08c379a000000000000000000000000000000000000000000000000000000000815260040161303490614f8d565b60405180910390fd5b6001600360008473ffffffffffffffffffffffffffffffffffffffff1673ffffffffffffffffffffffffffffffffffffffff16815260200190815260200160002060008282540192505081905550816002600083815260200190815260200160002060006101000a81548173ffffffffffffffffffffffffffffffffffffffff021916908373ffffffffffffffffffffffffffffffffffffffff160217905550808273ffffffffffffffffffffffffffffffffffffffff16600073ffffffffffffffffffffffffffffffffffffffff167fddf252ad1be2c89b69c2b068fc378daa952ba7f163c4a11628f55a4df523b3ef60405160405180910390a461314760008383600161331f565b5050565b613154826132d8565b613193576040517f08c379a000000000000000000000000000000000000000000000000000000000815260040161318a9061501f565b60405180910390fd5b806006600084815260200190815260200160002090816131b391906151eb565b507ff8e1a15aba9398e019f0b49df1a4fde98ee17ae345cb5f6b5e2c27f5033e8ce7826040516131e39190613d4c565b60405180910390a15050565b606060405180602001604052806000815250905090565b6060613211826126d7565b600061321b6131ef565b9050600081511161323b5760405180602001604052806000815250613266565b80613245846134c6565b604051602001613256929190614bc3565b6040516020818303038152906040525b915050919050565b60007f01ffc9a7000000000000000000000000000000000000000000000000000000007bffffffffffffffffffffffffffffffffffffffffffffffffffffffff1916827bffffffffffffffffffffffffffffffffffffffffffffffffffffffff1916149050919050565b60008073ffffffffffffffffffffffffffffffffffffffff166132fa83612cb7565b73ffffffffffffffffffffffffffffffffffffffff1614159050919050565b50505050565b50505050565b61333c816133346135946135b5565b63ffffffff16565b50565b60006133608473ffffffffffffffffffffffffffffffffffffffff166135c0565b156134b9578373ffffffffffffffffffffffffffffffffffffffff1663150b7a02613389612722565b8786866040518563ffffffff1660e01b81526004016133ab9493929190615312565b6020604051808303816000875af19250505080156133e757506040513d601f19601f820116820180604052508101906133e49190615373565b60015b613469573d8060008114613417576040519150601f19603f3d011682016040523d82523d6000602084013e61341c565b606091505b506000815103613461576040517f08c379a000000000000000000000000000000000000000000000000000000000815260040161345890614eb5565b60405180910390fd5b805181602001fd5b63150b7a0260e01b7bffffffffffffffffffffffffffffffffffffffffffffffffffffffff1916817bffffffffffffffffffffffffffffffffffffffffffffffffffffffff1916149150506134be565b600190505b949350505050565b6060600060016134d5846135e3565b01905060008167ffffffffffffffff8111156134f4576134f3613ea8565b5b6040519080825280601f01601f1916602001820160405280156135265781602001600182028036833780820191505090505b509050600082602001820190505b600115613589578080600190039150507f3031323334353637383961626364656600000000000000000000000000000000600a86061a8153600a858161357d5761357c6153a0565b5b04945060008503613534575b819350505050919050565b60006a636f6e736f6c652e6c6f679050600080835160208501845afa505050565b6137c1819050919050565b6000808273ffffffffffffffffffffffffffffffffffffffff163b119050919050565b600080600090507a184f03e93ff9f4daa797ed6e38ed64bf6a1f0100000000000000008310613641577a184f03e93ff9f4daa797ed6e38ed64bf6a1f0100000000000000008381613637576136366153a0565b5b0492506040810190505b6d04ee2d6d415b85acef8100000000831061367e576d04ee2d6d415b85acef81000000008381613674576136736153a0565b5b0492506020810190505b662386f26fc1000083106136ad57662386f26fc1000083816136a3576136a26153a0565b5b0492506010810190505b6305f5e10083106136d6576305f5e10083816136cc576136cb6153a0565b5b0492506008810190505b61271083106136fb5761271083816136f1576136f06153a0565b5b0492506004810190505b6064831061371e5760648381613714576137136153a0565b5b0492506002810190505b600a831061372d576001810190505b80915050919050565b60405180610100016040528060008152602001600073ffffffffffffffffffffffffffffffffffffffff168152602001600073ffffffffffffffffffffffffffffffffffffffff168152602001600073ffffffffffffffffffffffffffffffffffffffff16815260200160008152602001600081526020016000151581526020016000151581525090565b6137c96153cf565b565b6000604051905090565b600080fd5b600080fd5b60007fffffffff0000000000000000000000000000000000000000000000000000000082169050919050565b613814816137df565b811461381f57600080fd5b50565b6000813590506138318161380b565b92915050565b60006020828403121561384d5761384c6137d5565b5b600061385b84828501613822565b91505092915050565b60008115159050919050565b61387981613864565b82525050565b60006020820190506138946000830184613870565b92915050565b600081519050919050565b600082825260208201905092915050565b60005b838110156138d45780820151818401526020810190506138b9565b60008484015250505050565b6000601f19601f8301169050919050565b60006138fc8261389a565b61390681856138a5565b93506139168185602086016138b6565b61391f816138e0565b840191505092915050565b6000602082019050818103600083015261394481846138f1565b905092915050565b6000819050919050565b61395f8161394c565b811461396a57600080fd5b50565b60008135905061397c81613956565b92915050565b600060208284031215613998576139976137d5565b5b60006139a68482850161396d565b91505092915050565b600073ffffffffffffffffffffffffffffffffffffffff82169050919050565b60006139da826139af565b9050919050565b6139ea816139cf565b82525050565b6000602082019050613a0560008301846139e1565b92915050565b613a14816139cf565b8114613a1f57600080fd5b50565b600081359050613a3181613a0b565b92915050565b60008060408385031215613a4e57613a4d6137d5565b5b6000613a5c85828601613a22565b9250506020613a6d8582860161396d565b9150509250929050565b600081519050919050565b600082825260208201905092915050565b6000819050602082019050919050565b613aac8161394c565b82525050565b6000613abd826139af565b9050919050565b613acd81613ab2565b82525050565b613adc81613864565b82525050565b61010082016000820151613af96000850182613aa3565b506020820151613b0c6020850182613ac4565b506040820151613b1f6040850182613ac4565b506060820151613b326060850182613ac4565b506080820151613b456080850182613aa3565b5060a0820151613b5860a0850182613aa3565b5060c0820151613b6b60c0850182613ad3565b5060e0820151613b7e60e0850182613ad3565b50505050565b6000613b908383613ae2565b6101008301905092915050565b6000602082019050919050565b6000613bb582613a77565b613bbf8185613a82565b9350613bca83613a93565b8060005b83811015613bfb578151613be28882613b84565b9750613bed83613b9d565b925050600181019050613bce565b5085935050505092915050565b60006020820190508181036000830152613c228184613baa565b905092915050565b600060208284031215613c4057613c3f6137d5565b5b6000613c4e84828501613a22565b91505092915050565b600080600060608486031215613c7057613c6f6137d5565b5b6000613c7e86828701613a22565b9350506020613c8f86828701613a22565b9250506040613ca08682870161396d565b9150509250925092565b600080600060608486031215613cc357613cc26137d5565b5b6000613cd18682870161396d565b9350506020613ce28682870161396d565b9250506040613cf38682870161396d565b9150509250925092565b60008060408385031215613d1457613d136137d5565b5b6000613d228582860161396d565b9250506020613d338582860161396d565b9150509250929050565b613d468161394c565b82525050565b6000602082019050613d616000830184613d3d565b92915050565b600080600060608486031215613d8057613d7f6137d5565b5b6000613d8e8682870161396d565b9350506020613d9f8682870161396d565b9250506040613db086828701613a22565b9150509250925092565b60008060408385031215613dd157613dd06137d5565b5b6000613ddf8582860161396d565b9250506020613df085828601613a22565b9150509250929050565b613e0381613864565b8114613e0e57600080fd5b50565b600081359050613e2081613dfa565b92915050565b60008060408385031215613e3d57613e3c6137d5565b5b6000613e4b85828601613a22565b9250506020613e5c85828601613e11565b9150509250929050565b613e6f81613ab2565b82525050565b6000604082019050613e8a6000830185613d3d565b613e976020830184613e66565b9392505050565b600080fd5b600080fd5b7f4e487b7100000000000000000000000000000000000000000000000000000000600052604160045260246000fd5b613ee0826138e0565b810181811067ffffffffffffffff82111715613eff57613efe613ea8565b5b80604052505050565b6000613f126137cb565b9050613f1e8282613ed7565b919050565b600067ffffffffffffffff821115613f3e57613f3d613ea8565b5b613f47826138e0565b9050602081019050919050565b82818337600083830152505050565b6000613f76613f7184613f23565b613f08565b905082815260208101848484011115613f9257613f91613ea3565b5b613f9d848285613f54565b509392505050565b600082601f830112613fba57613fb9613e9e565b5b8135613fca848260208601613f63565b91505092915050565b60008060008060808587031215613fed57613fec6137d5565b5b6000613ffb87828801613a22565b945050602061400c87828801613a22565b935050604061401d8782880161396d565b925050606085013567ffffffffffffffff81111561403e5761403d6137da565b5b61404a87828801613fa5565b91505092959194509250565b600067ffffffffffffffff82111561407157614070613ea8565b5b61407a826138e0565b9050602081019050919050565b600061409a61409584614056565b613f08565b9050828152602081018484840111156140b6576140b5613ea3565b5b6140c1848285613f54565b509392505050565b600082601f8301126140de576140dd613e9e565b5b81356140ee848260208601614087565b91505092915050565b6000806000606084860312156141105761410f6137d5565b5b600084013567ffffffffffffffff81111561412e5761412d6137da565b5b61413a868287016140c9565b935050602061414b8682870161396d565b925050604061415c8682870161396d565b9150509250925092565b6000806040838503121561417d5761417c6137d5565b5b600061418b85828601613a22565b925050602061419c85828601613a22565b9150509250929050565b7f4e487b7100000000000000000000000000000000000000000000000000000000600052602260045260246000fd5b600060028204905060018216806141ed57607f821691505b602082108103614200576141ff6141a6565b5b50919050565b7f4552433732313a20617070726f76616c20746f2063757272656e74206f776e6560008201527f7200000000000000000000000000000000000000000000000000000000000000602082015250565b60006142626021836138a5565b915061426d82614206565b604082019050919050565b6000602082019050818103600083015261429181614255565b9050919050565b7f4552433732313a20617070726f76652063616c6c6572206973206e6f7420746f60008201527f6b656e206f776e6572206f7220617070726f76656420666f7220616c6c000000602082015250565b60006142f4603d836138a5565b91506142ff82614298565b604082019050919050565b60006020820190508181036000830152614323816142e7565b9050919050565b7f4e487b7100000000000000000000000000000000000000000000000000000000600052601160045260246000fd5b60006143648261394c565b915061436f8361394c565b92508282039050818111156143875761438661432a565b5b92915050565b60006143988261394c565b91506143a38361394c565b92508282019050808211156143bb576143ba61432a565b5b92915050565b7f4e487b7100000000000000000000000000000000000000000000000000000000600052603260045260246000fd5b60006143fb8261394c565b91507fffffffffffffffffffffffffffffffffffffffffffffffffffffffffffffffff820361442d5761442c61432a565b5b600182019050919050565b7f4552433732313a2063616c6c6572206973206e6f7420746f6b656e206f776e6560008201527f72206f7220617070726f76656400000000000000000000000000000000000000602082015250565b6000614494602d836138a5565b915061449f82614438565b604082019050919050565b600060208201905081810360008301526144c381614487565b9050919050565b7f6f6e6c79206f776e6572206f662074686520636f6e74726163742063616e207560008201527f706461746520746865206c697374696e67207072696365000000000000000000602082015250565b60006145266037836138a5565b9150614531826144ca565b604082019050919050565b6000602082019050818103600083015261455581614519565b9050919050565b7f4e6f2066756e647320746f207769746864726177000000000000000000000000600082015250565b60006145926014836138a5565b915061459d8261455c565b602082019050919050565b600060208201905081810360008301526145c181614585565b9050919050565b600081905092915050565b50565b60006145e36000836145c8565b91506145ee826145d3565b600082019050919050565b6000614604826145d6565b9150819050919050565b7f4661696c656420746f2077697468647261772066756e64730000000000000000600082015250565b60006146446018836138a5565b915061464f8261460e565b602082019050919050565b6000602082019050818103600083015261467381614637565b9050919050565b600060408201905061468f6000830185613d3d565b61469c60208301846139e1565b9392505050565b7f5072696365206d757374206265206174206c6561737420312077656900000000600082015250565b60006146d9601c836138a5565b91506146e4826146a3565b602082019050919050565b60006020820190508181036000830152614708816146cc565b9050919050565b7f5072696365206d757374206265207061696420696e2066756c6c000000000000600082015250565b6000614745601a836138a5565b91506147508261470f565b602082019050919050565b6000602082019050818103600083015261477481614738565b9050919050565b600060e082019050614790600083018a6139e1565b61479d60208301896139e1565b6147aa60408301886139e1565b6147b76060830187613d3d565b6147c46080830186613d3d565b6147d160a0830185613870565b6147de60c0830184613870565b98975050505050505050565b7f4e465420646f6573206e6f7420657869737420696e206d61726b6574706c616360008201527f6500000000000000000000000000000000000000000000000000000000000000602082015250565b60006148466021836138a5565b9150614851826147ea565b604082019050919050565b6000602082019050818103600083015261487581614839565b9050919050565b7f43616c6c6572206973206e6f7420746865206f776e6572000000000000000000600082015250565b60006148b26017836138a5565b91506148bd8261487c565b602082019050919050565b600060208201905081810360008301526148e1816148a5565b9050919050565b7f5072696365206d7573742062652067726561746572207468616e207a65726f00600082015250565b600061491e601f836138a5565b9150614929826148e8565b602082019050919050565b6000602082019050818103600083015261494d81614911565b9050919050565b7f4552433732313a20696e76616c696420746f6b656e2049440000000000000000600082015250565b600061498a6018836138a5565b915061499582614954565b602082019050919050565b600060208201905081810360008301526149b98161497d565b9050919050565b7f4552433732313a2061646472657373207a65726f206973206e6f74206120766160008201527f6c6964206f776e65720000000000000000000000000000000000000000000000602082015250565b6000614a1c6029836138a5565b9150614a27826149c0565b604082019050919050565b60006020820190508181036000830152614a4b81614a0f565b9050919050565b7f4f6e6c79206f776e65722063616e2072656c697374204e465400000000000000600082015250565b6000614a886019836138a5565b9150614a9382614a52565b602082019050919050565b60006020820190508181036000830152614ab781614a7b565b9050919050565b6000606082019050614ad360008301866139e1565b614ae060208301856139e1565b614aed6040830184613d3d565b949350505050565b7f506c65617365207375626d6974207468652061736b696e67207072696365206960008201527f6e206f7264657220746f20636f6d706c65746520746865207075726368617365602082015250565b6000614b516040836138a5565b9150614b5c82614af5565b604082019050919050565b60006020820190508181036000830152614b8081614b44565b9050919050565b600081905092915050565b6000614b9d8261389a565b614ba78185614b87565b9350614bb78185602086016138b6565b80840191505092915050565b6000614bcf8285614b92565b9150614bdb8284614b92565b91508190509392505050565b7f4552433732313a207472616e736665722066726f6d20696e636f72726563742060008201527f6f776e6572000000000000000000000000000000000000000000000000000000602082015250565b6000614c436025836138a5565b9150614c4e82614be7565b604082019050919050565b60006020820190508181036000830152614c7281614c36565b9050919050565b7f4552433732313a207472616e7366657220746f20746865207a65726f2061646460008201527f7265737300000000000000000000000000000000000000000000000000000000602082015250565b6000614cd56024836138a5565b9150614ce082614c79565b604082019050919050565b60006020820190508181036000830152614d0481614cc8565b9050919050565b60006040820190508181036000830152614d2581856138f1565b9050614d3460208301846139e1565b9392505050565b60006040820190508181036000830152614d5581856138f1565b9050614d646020830184613d3d565b9392505050565b7f436f756e7465723a2064656372656d656e74206f766572666c6f770000000000600082015250565b6000614da1601b836138a5565b9150614dac82614d6b565b602082019050919050565b60006020820190508181036000830152614dd081614d94565b9050919050565b7f4552433732313a20617070726f766520746f2063616c6c657200000000000000600082015250565b6000614e0d6019836138a5565b9150614e1882614dd7565b602082019050919050565b60006020820190508181036000830152614e3c81614e00565b9050919050565b7f4552433732313a207472616e7366657220746f206e6f6e20455243373231526560008201527f63656976657220696d706c656d656e7465720000000000000000000000000000602082015250565b6000614e9f6032836138a5565b9150614eaa82614e43565b604082019050919050565b60006020820190508181036000830152614ece81614e92565b9050919050565b7f4552433732313a206d696e7420746f20746865207a65726f2061646472657373600082015250565b6000614f0b6020836138a5565b9150614f1682614ed5565b602082019050919050565b60006020820190508181036000830152614f3a81614efe565b9050919050565b7f4552433732313a20746f6b656e20616c7265616479206d696e74656400000000600082015250565b6000614f77601c836138a5565b9150614f8282614f41565b602082019050919050565b60006020820190508181036000830152614fa681614f6a565b9050919050565b7f45524337323155524953746f726167653a2055524920736574206f66206e6f6e60008201527f6578697374656e7420746f6b656e000000000000000000000000000000000000602082015250565b6000615009602e836138a5565b915061501482614fad565b604082019050919050565b6000602082019050818103600083015261503881614ffc565b9050919050565b60008190508160005260206000209050919050565b60006020601f8301049050919050565b600082821b905092915050565b6000600883026150a17fffffffffffffffffffffffffffffffffffffffffffffffffffffffffffffffff82615064565b6150ab8683615064565b95508019841693508086168417925050509392505050565b6000819050919050565b60006150e86150e36150de8461394c565b6150c3565b61394c565b9050919050565b6000819050919050565b615102836150cd565b61511661510e826150ef565b848454615071565b825550505050565b600090565b61512b61511e565b6151368184846150f9565b505050565b5b8181101561515a5761514f600082615123565b60018101905061513c565b5050565b601f82111561519f576151708161503f565b61517984615054565b81016020851015615188578190505b61519c61519485615054565b83018261513b565b50505b505050565b600082821c905092915050565b60006151c2600019846008026151a4565b1980831691505092915050565b60006151db83836151b1565b9150826002028217905092915050565b6151f48261389a565b67ffffffffffffffff81111561520d5761520c613ea8565b5b61521782546141d5565b61522282828561515e565b600060209050601f8311600181146152555760008415615243578287015190505b61524d85826151cf565b8655506152b5565b601f1984166152638661503f565b60005b8281101561528b57848901518255600182019150602085019450602081019050615266565b868310156152a857848901516152a4601f8916826151b1565b8355505b6001600288020188555050505b505050505050565b600081519050919050565b600082825260208201905092915050565b60006152e4826152bd565b6152ee81856152c8565b93506152fe8185602086016138b6565b615307816138e0565b840191505092915050565b600060808201905061532760008301876139e1565b61533460208301866139e1565b6153416040830185613d3d565b818103606083015261535381846152d9565b905095945050505050565b60008151905061536d8161380b565b92915050565b600060208284031215615389576153886137d5565b5b60006153978482850161535e565b91505092915050565b7f4e487b7100000000000000000000000000000000000000000000000000000000600052601260045260246000fd5b7f4e487b7100000000000000000000000000000000000000000000000000000000600052605160045260246000fdfe437265617465204d61726b6574204974656d2046756e6374696f6e2043616c6c65723a20a2646970667358221220ee70a2bd04a5709c7e0b0fd01b3ecb85cf371a04967d79efe6edc27cbac2ce3e64736f6c63430008130033",
  "linkReferences": {},
  "deployedLinkReferences": {}
}