{
  "_format": "hh-sol-artifact-1",
  "contractName": "Marketplace",
  "sourceName": "contracts/Marketplace.sol",
  "abi": [
    {
      "inputs": [],
      "stateMutability": "nonpayable",
      "type": "constructor"
    },
    {
      "anonymous": false,
      "inputs": [
        {
          "indexed": true,
          "internalType": "address",
          "name": "owner",
          "type": "address"
        },
        {
          "indexed": true,
          "internalType": "address",
          "name": "approved",
          "type": "address"
        },
        {
          "indexed": true,
          "internalType": "uint256",
          "name": "tokenId",
          "type": "uint256"
        }
      ],
      "name": "Approval",
      "type": "event"
    },
    {
      "anonymous": false,
      "inputs": [
        {
          "indexed": true,
          "internalType": "address",
          "name": "owner",
          "type": "address"
        },
        {
          "indexed": true,
          "internalType": "address",
          "name": "operator",
          "type": "address"
        },
        {
          "indexed": false,
          "internalType": "bool",
          "name": "approved",
          "type": "bool"
        }
      ],
      "name": "ApprovalForAll",
      "type": "event"
    },
    {
      "anonymous": false,
      "inputs": [
        {
          "indexed": false,
          "internalType": "uint256",
          "name": "_fromTokenId",
          "type": "uint256"
        },
        {
          "indexed": false,
          "internalType": "uint256",
          "name": "_toTokenId",
          "type": "uint256"
        }
      ],
      "name": "BatchMetadataUpdate",
      "type": "event"
    },
    {
      "anonymous": false,
      "inputs": [
        {
          "indexed": false,
          "internalType": "uint256",
          "name": "amount",
          "type": "uint256"
        },
        {
          "indexed": false,
          "internalType": "address",
          "name": "targetWallet",
          "type": "address"
        }
      ],
      "name": "FundsWithdrawn",
      "type": "event"
    },
    {
      "anonymous": false,
      "inputs": [
        {
          "indexed": true,
          "internalType": "uint256",
          "name": "tokenId",
          "type": "uint256"
        },
        {
          "indexed": false,
          "internalType": "address",
          "name": "originalOwner",
          "type": "address"
        },
        {
          "indexed": false,
          "internalType": "address",
          "name": "seller",
          "type": "address"
        },
        {
          "indexed": false,
          "internalType": "address",
          "name": "owner",
          "type": "address"
        },
        {
          "indexed": false,
          "internalType": "uint256",
          "name": "royaltyPercentage",
          "type": "uint256"
        },
        {
          "indexed": false,
          "internalType": "uint256",
          "name": "price",
          "type": "uint256"
        },
        {
          "indexed": false,
          "internalType": "bool",
          "name": "sold",
          "type": "bool"
        }
      ],
      "name": "MarketItemCreated",
      "type": "event"
    },
    {
      "anonymous": false,
      "inputs": [
        {
          "indexed": false,
          "internalType": "uint256",
          "name": "_tokenId",
          "type": "uint256"
        }
      ],
      "name": "MetadataUpdate",
      "type": "event"
    },
    {
      "anonymous": false,
      "inputs": [
        {
          "indexed": false,
          "internalType": "uint256",
          "name": "nftId",
          "type": "uint256"
        },
        {
          "indexed": false,
          "internalType": "address",
          "name": "auctionWinner",
          "type": "address"
        }
      ],
      "name": "NFTTransferred",
      "type": "event"
    },
    {
      "anonymous": false,
      "inputs": [
        {
          "indexed": true,
          "internalType": "address",
          "name": "from",
          "type": "address"
        },
        {
          "indexed": true,
          "internalType": "address",
          "name": "to",
          "type": "address"
        },
        {
          "indexed": true,
          "internalType": "uint256",
          "name": "tokenId",
          "type": "uint256"
        }
      ],
      "name": "Transfer",
      "type": "event"
    },
    {
      "inputs": [
        {
          "internalType": "address",
          "name": "to",
          "type": "address"
        },
        {
          "internalType": "uint256",
          "name": "tokenId",
          "type": "uint256"
        }
      ],
      "name": "approve",
      "outputs": [],
      "stateMutability": "nonpayable",
      "type": "function"
    },
    {
      "inputs": [
        {
          "internalType": "address",
          "name": "owner",
          "type": "address"
        }
      ],
      "name": "balanceOf",
      "outputs": [
        {
          "internalType": "uint256",
          "name": "",
          "type": "uint256"
        }
      ],
      "stateMutability": "view",
      "type": "function"
    },
    {
      "inputs": [
        {
          "internalType": "uint256",
          "name": "tokenId",
          "type": "uint256"
        },
        {
          "internalType": "uint256",
          "name": "royaltyPercentage",
          "type": "uint256"
        },
        {
          "internalType": "uint256",
          "name": "price",
          "type": "uint256"
        }
      ],
      "name": "createMarketItem",
      "outputs": [],
      "stateMutability": "payable",
      "type": "function"
    },
    {
      "inputs": [
        {
          "internalType": "uint256",
          "name": "tokenId",
          "type": "uint256"
        }
      ],
      "name": "createMarketSale",
      "outputs": [],
      "stateMutability": "payable",
      "type": "function"
    },
    {
      "inputs": [
        {
          "internalType": "string",
          "name": "tokenURI",
          "type": "string"
        },
        {
          "internalType": "uint256",
          "name": "royaltyPercentage",
          "type": "uint256"
        },
        {
          "internalType": "uint256",
          "name": "price",
          "type": "uint256"
        }
      ],
      "name": "createToken",
      "outputs": [
        {
          "internalType": "uint256",
          "name": "",
          "type": "uint256"
        }
      ],
      "stateMutability": "payable",
      "type": "function"
    },
    {
      "inputs": [],
      "name": "fetchItemsListed",
      "outputs": [
        {
          "components": [
            {
              "internalType": "uint256",
              "name": "tokenId",
              "type": "uint256"
            },
            {
              "internalType": "address payable",
              "name": "originalOwner",
              "type": "address"
            },
            {
              "internalType": "address payable",
              "name": "seller",
              "type": "address"
            },
            {
              "internalType": "address payable",
              "name": "owner",
              "type": "address"
            },
            {
              "internalType": "uint256",
              "name": "royaltyPercentage",
              "type": "uint256"
            },
            {
              "internalType": "uint256",
              "name": "price",
              "type": "uint256"
            },
            {
              "internalType": "bool",
              "name": "sold",
              "type": "bool"
            }
          ],
          "internalType": "struct Marketplace.MarketItem[]",
          "name": "",
          "type": "tuple[]"
        }
      ],
      "stateMutability": "view",
      "type": "function"
    },
    {
      "inputs": [],
      "name": "fetchMarketItems",
      "outputs": [
        {
          "components": [
            {
              "internalType": "uint256",
              "name": "tokenId",
              "type": "uint256"
            },
            {
              "internalType": "address payable",
              "name": "originalOwner",
              "type": "address"
            },
            {
              "internalType": "address payable",
              "name": "seller",
              "type": "address"
            },
            {
              "internalType": "address payable",
              "name": "owner",
              "type": "address"
            },
            {
              "internalType": "uint256",
              "name": "royaltyPercentage",
              "type": "uint256"
            },
            {
              "internalType": "uint256",
              "name": "price",
              "type": "uint256"
            },
            {
              "internalType": "bool",
              "name": "sold",
              "type": "bool"
            }
          ],
          "internalType": "struct Marketplace.MarketItem[]",
          "name": "",
          "type": "tuple[]"
        }
      ],
      "stateMutability": "view",
      "type": "function"
    },
    {
      "inputs": [],
      "name": "fetchMyNFT",
      "outputs": [
        {
          "components": [
            {
              "internalType": "uint256",
              "name": "tokenId",
              "type": "uint256"
            },
            {
              "internalType": "address payable",
              "name": "originalOwner",
              "type": "address"
            },
            {
              "internalType": "address payable",
              "name": "seller",
              "type": "address"
            },
            {
              "internalType": "address payable",
              "name": "owner",
              "type": "address"
            },
            {
              "internalType": "uint256",
              "name": "royaltyPercentage",
              "type": "uint256"
            },
            {
              "internalType": "uint256",
              "name": "price",
              "type": "uint256"
            },
            {
              "internalType": "bool",
              "name": "sold",
              "type": "bool"
            }
          ],
          "internalType": "struct Marketplace.MarketItem[]",
          "name": "",
          "type": "tuple[]"
        }
      ],
      "stateMutability": "view",
      "type": "function"
    },
    {
      "inputs": [
        {
          "internalType": "uint256",
          "name": "tokenId",
          "type": "uint256"
        }
      ],
      "name": "getApproved",
      "outputs": [
        {
          "internalType": "address",
          "name": "",
          "type": "address"
        }
      ],
      "stateMutability": "view",
      "type": "function"
    },
    {
      "inputs": [
        {
          "internalType": "uint256",
          "name": "tokenId",
          "type": "uint256"
        }
      ],
      "name": "getRoyaltyData",
      "outputs": [
        {
          "internalType": "uint256",
          "name": "",
          "type": "uint256"
        },
        {
          "internalType": "address payable",
          "name": "",
          "type": "address"
        }
      ],
      "stateMutability": "view",
      "type": "function"
    },
    {
      "inputs": [
        {
          "internalType": "uint256",
          "name": "tokenId",
          "type": "uint256"
        },
        {
          "internalType": "address",
          "name": "winner",
          "type": "address"
        }
      ],
      "name": "handleAuctionEnd",
      "outputs": [],
      "stateMutability": "nonpayable",
      "type": "function"
    },
    {
      "inputs": [
        {
          "internalType": "address",
          "name": "owner",
          "type": "address"
        },
        {
          "internalType": "address",
          "name": "operator",
          "type": "address"
        }
      ],
      "name": "isApprovedForAll",
      "outputs": [
        {
          "internalType": "bool",
          "name": "",
          "type": "bool"
        }
      ],
      "stateMutability": "view",
      "type": "function"
    },
    {
      "inputs": [],
      "name": "name",
      "outputs": [
        {
          "internalType": "string",
          "name": "",
          "type": "string"
        }
      ],
      "stateMutability": "view",
      "type": "function"
    },
    {
      "inputs": [
        {
          "internalType": "uint256",
          "name": "tokenId",
          "type": "uint256"
        }
      ],
      "name": "ownerOf",
      "outputs": [
        {
          "internalType": "address",
          "name": "",
          "type": "address"
        }
      ],
      "stateMutability": "view",
      "type": "function"
    },
    {
      "inputs": [
        {
          "internalType": "uint256",
          "name": "tokenId",
          "type": "uint256"
        },
        {
          "internalType": "uint256",
          "name": "price",
          "type": "uint256"
        }
      ],
      "name": "resellMarketItem",
      "outputs": [],
      "stateMutability": "payable",
      "type": "function"
    },
    {
      "inputs": [
        {
          "internalType": "address",
          "name": "from",
          "type": "address"
        },
        {
          "internalType": "address",
          "name": "to",
          "type": "address"
        },
        {
          "internalType": "uint256",
          "name": "tokenId",
          "type": "uint256"
        }
      ],
      "name": "safeTransferFrom",
      "outputs": [],
      "stateMutability": "nonpayable",
      "type": "function"
    },
    {
      "inputs": [
        {
          "internalType": "address",
          "name": "from",
          "type": "address"
        },
        {
          "internalType": "address",
          "name": "to",
          "type": "address"
        },
        {
          "internalType": "uint256",
          "name": "tokenId",
          "type": "uint256"
        },
        {
          "internalType": "bytes",
          "name": "data",
          "type": "bytes"
        }
      ],
      "name": "safeTransferFrom",
      "outputs": [],
      "stateMutability": "nonpayable",
      "type": "function"
    },
    {
      "inputs": [
        {
          "internalType": "address",
          "name": "operator",
          "type": "address"
        },
        {
          "internalType": "bool",
          "name": "approved",
          "type": "bool"
        }
      ],
      "name": "setApprovalForAll",
      "outputs": [],
      "stateMutability": "nonpayable",
      "type": "function"
    },
    {
      "inputs": [
        {
          "internalType": "bytes4",
          "name": "interfaceId",
          "type": "bytes4"
        }
      ],
      "name": "supportsInterface",
      "outputs": [
        {
          "internalType": "bool",
          "name": "",
          "type": "bool"
        }
      ],
      "stateMutability": "view",
      "type": "function"
    },
    {
      "inputs": [],
      "name": "symbol",
      "outputs": [
        {
          "internalType": "string",
          "name": "",
          "type": "string"
        }
      ],
      "stateMutability": "view",
      "type": "function"
    },
    {
      "inputs": [
        {
          "internalType": "uint256",
          "name": "tokenId",
          "type": "uint256"
        }
      ],
      "name": "tokenURI",
      "outputs": [
        {
          "internalType": "string",
          "name": "",
          "type": "string"
        }
      ],
      "stateMutability": "view",
      "type": "function"
    },
    {
      "inputs": [
        {
          "internalType": "address",
          "name": "from",
          "type": "address"
        },
        {
          "internalType": "address",
          "name": "to",
          "type": "address"
        },
        {
          "internalType": "uint256",
          "name": "tokenId",
          "type": "uint256"
        }
      ],
      "name": "transferFrom",
      "outputs": [],
      "stateMutability": "nonpayable",
      "type": "function"
    },
    {
      "inputs": [
        {
          "internalType": "uint256",
          "name": "_listingPrice",
          "type": "uint256"
        }
      ],
      "name": "updateListingPrice",
      "outputs": [],
      "stateMutability": "payable",
      "type": "function"
    },
    {
      "inputs": [],
      "name": "withdrawFunds",
      "outputs": [],
      "stateMutability": "nonpayable",
      "type": "function"
    }
  ],
  "bytecode": "0x60806040526608e1bc9bf04000600a553480156200001c57600080fd5b506040518060400160405280601381526020017f4e4654204d657461766572736520546f6b656e000000000000000000000000008152506040518060400160405280600581526020017f4d594e465400000000000000000000000000000000000000000000000000000081525081600090816200009a919062000378565b508060019081620000ac919062000378565b505050600160078190555033600b60006101000a81548173ffffffffffffffffffffffffffffffffffffffff021916908373ffffffffffffffffffffffffffffffffffffffff1602179055506200045f565b600081519050919050565b7f4e487b7100000000000000000000000000000000000000000000000000000000600052604160045260246000fd5b7f4e487b7100000000000000000000000000000000000000000000000000000000600052602260045260246000fd5b600060028204905060018216806200018057607f821691505b60208210810362000196576200019562000138565b5b50919050565b60008190508160005260206000209050919050565b60006020601f8301049050919050565b600082821b905092915050565b600060088302620002007fffffffffffffffffffffffffffffffffffffffffffffffffffffffffffffffff82620001c1565b6200020c8683620001c1565b95508019841693508086168417925050509392505050565b6000819050919050565b6000819050919050565b600062000259620002536200024d8462000224565b6200022e565b62000224565b9050919050565b6000819050919050565b620002758362000238565b6200028d620002848262000260565b848454620001ce565b825550505050565b600090565b620002a462000295565b620002b18184846200026a565b505050565b5b81811015620002d957620002cd6000826200029a565b600181019050620002b7565b5050565b601f8211156200032857620002f2816200019c565b620002fd84620001b1565b810160208510156200030d578190505b620003256200031c85620001b1565b830182620002b6565b50505b505050565b600082821c905092915050565b60006200034d600019846008026200032d565b1980831691505092915050565b60006200036883836200033a565b9150826002028217905092915050565b6200038382620000fe565b67ffffffffffffffff8111156200039f576200039e62000109565b5b620003ab825462000167565b620003b8828285620002dd565b600060209050601f831160018114620003f05760008415620003db578287015190505b620003e785826200035a565b86555062000457565b601f19841662000400866200019c565b60005b828110156200042a5784890151825560018201915060208501945060208101905062000403565b868310156200044a578489015162000446601f8916826200033a565b8355505b6001600288020188555050505b505050505050565b614b46806200046f6000396000f3fe60806040526004361061014b5760003560e01c806370a08231116100b6578063b88d4fde1161006f578063b88d4fde14610466578063be9af5361461048f578063bec2a7c5146104ab578063c18763f7146104db578063c87b56dd14610506578063e985e9c5146105435761014b565b806370a08231146103525780638f329b311461038f57806395d89b41146103b8578063a22cb465146103e3578063a65ff74c1461040c578063ae677aa31461044a5761014b565b806324600fc31161010857806324600fc314610272578063320343da1461028957806342842e0e146102a557806345f8fa80146102ce5780636352211e146102f95780636b52d832146103365761014b565b806301ffc9a71461015057806306fdde031461018d578063081812fc146101b8578063095ea7b3146101f55780630f08efe01461021e57806323b872dd14610249575b600080fd5b34801561015c57600080fd5b5061017760048036038101906101729190613192565b610580565b60405161018491906131da565b60405180910390f35b34801561019957600080fd5b506101a26105e1565b6040516101af9190613285565b60405180910390f35b3480156101c457600080fd5b506101df60048036038101906101da91906132dd565b610673565b6040516101ec919061334b565b60405180910390f35b34801561020157600080fd5b5061021c60048036038101906102179190613392565b6106b9565b005b34801561022a57600080fd5b506102336107d0565b604051610240919061354e565b60405180910390f35b34801561025557600080fd5b50610270600480360381019061026b9190613570565b610a98565b005b34801561027e57600080fd5b50610287610af8565b005b6102a3600480360381019061029e91906135c3565b610cdb565b005b3480156102b157600080fd5b506102cc60048036038101906102c79190613570565b610f57565b005b3480156102da57600080fd5b506102e3610f77565b6040516102f0919061354e565b60405180910390f35b34801561030557600080fd5b50610320600480360381019061031b91906132dd565b6112c3565b60405161032d919061334b565b60405180910390f35b610350600480360381019061034b9190613616565b611349565b005b34801561035e57600080fd5b5061037960048036038101906103749190613656565b6114fa565b6040516103869190613692565b60405180910390f35b34801561039b57600080fd5b506103b660048036038101906103b191906136ad565b6115b1565b005b3480156103c457600080fd5b506103cd6116b2565b6040516103da9190613285565b60405180910390f35b3480156103ef57600080fd5b5061040a60048036038101906104059190613719565b611744565b005b34801561041857600080fd5b50610433600480360381019061042e91906132dd565b61175a565b604051610441929190613768565b60405180910390f35b610464600480360381019061045f91906132dd565b6118ce565b005b34801561047257600080fd5b5061048d600480360381019061048891906138c6565b611968565b005b6104a960048036038101906104a491906132dd565b6119ca565b005b6104c560048036038101906104c091906139ea565b611bac565b6040516104d29190613692565b60405180910390f35b3480156104e757600080fd5b506104f0611bf0565b6040516104fd919061354e565b60405180910390f35b34801561051257600080fd5b5061052d600480360381019061052891906132dd565b611f3c565b60405161053a9190613285565b60405180910390f35b34801561054f57600080fd5b5061056a60048036038101906105659190613a59565b61204e565b60405161057791906131da565b60405180910390f35b6000634906490660e01b7bffffffffffffffffffffffffffffffffffffffffffffffffffffffff1916827bffffffffffffffffffffffffffffffffffffffffffffffffffffffff191614806105da57506105d9826120e2565b5b9050919050565b6060600080546105f090613ac8565b80601f016020809104026020016040519081016040528092919081815260200182805461061c90613ac8565b80156106695780601f1061063e57610100808354040283529160200191610669565b820191906000526020600020905b81548152906001019060200180831161064c57829003601f168201915b5050505050905090565b600061067e826121c4565b6004600083815260200190815260200160002060009054906101000a900473ffffffffffffffffffffffffffffffffffffffff169050919050565b60006106c4826112c3565b90508073ffffffffffffffffffffffffffffffffffffffff168373ffffffffffffffffffffffffffffffffffffffff1603610734576040517f08c379a000000000000000000000000000000000000000000000000000000000815260040161072b90613b6b565b60405180910390fd5b8073ffffffffffffffffffffffffffffffffffffffff1661075361220f565b73ffffffffffffffffffffffffffffffffffffffff16148061078257506107818161077c61220f565b61204e565b5b6107c1576040517f08c379a00000000000000000000000000000000000000000000000000000000081526004016107b890613bfd565b60405180910390fd5b6107cb8383612217565b505050565b606060006107de60086122d0565b905060006107ec60096122d0565b6107f660086122d0565b6108009190613c4c565b90506000808267ffffffffffffffff81111561081f5761081e61379b565b5b60405190808252806020026020018201604052801561085857816020015b6108456130a5565b81526020019060019003908161083d5790505b50905060005b84811015610a8d573073ffffffffffffffffffffffffffffffffffffffff16600c600060018461088e9190613c80565b815260200190815260200160002060030160009054906101000a900473ffffffffffffffffffffffffffffffffffffffff1673ffffffffffffffffffffffffffffffffffffffff1603610a7a5760006001826108ea9190613c80565b90506000600c60008381526020019081526020016000209050806040518060e0016040529081600082015481526020016001820160009054906101000a900473ffffffffffffffffffffffffffffffffffffffff1673ffffffffffffffffffffffffffffffffffffffff1673ffffffffffffffffffffffffffffffffffffffff1681526020016002820160009054906101000a900473ffffffffffffffffffffffffffffffffffffffff1673ffffffffffffffffffffffffffffffffffffffff1673ffffffffffffffffffffffffffffffffffffffff1681526020016003820160009054906101000a900473ffffffffffffffffffffffffffffffffffffffff1673ffffffffffffffffffffffffffffffffffffffff1673ffffffffffffffffffffffffffffffffffffffff16815260200160048201548152602001600582015481526020016006820160009054906101000a900460ff161515151581525050848681518110610a5d57610a5c613cb4565b5b6020026020010181905250600185610a759190613c80565b945050505b8080610a8590613ce3565b91505061085e565b508094505050505090565b610aa9610aa361220f565b826122de565b610ae8576040517f08c379a0000000000000000000000000000000000000000000000000000000008152600401610adf90613d9d565b60405180910390fd5b610af3838383612373565b505050565b600b60009054906101000a900473ffffffffffffffffffffffffffffffffffffffff1673ffffffffffffffffffffffffffffffffffffffff163373ffffffffffffffffffffffffffffffffffffffff1614610b88576040517f08c379a0000000000000000000000000000000000000000000000000000000008152600401610b7f90613e2f565b60405180910390fd5b600047905060008111610bd0576040517f08c379a0000000000000000000000000000000000000000000000000000000008152600401610bc790613e9b565b60405180910390fd5b6000600b60009054906101000a900473ffffffffffffffffffffffffffffffffffffffff1673ffffffffffffffffffffffffffffffffffffffff1682604051610c1890613eec565b60006040518083038185875af1925050503d8060008114610c55576040519150601f19603f3d011682016040523d82523d6000602084013e610c5a565b606091505b5050905080610c9e576040517f08c379a0000000000000000000000000000000000000000000000000000000008152600401610c9590613f4d565b60405180910390fd5b7f6141b54b56b8a52a8c6f5cd2a857f6117b18ffbf4d46bd3106f300a839cbf5ea8233604051610ccf929190613f6d565b60405180910390a15050565b60008111610d1e576040517f08c379a0000000000000000000000000000000000000000000000000000000008152600401610d1590613fe2565b60405180910390fd5b600a543414610d62576040517f08c379a0000000000000000000000000000000000000000000000000000000008152600401610d599061404e565b60405180910390fd5b6040518060e001604052808481526020013373ffffffffffffffffffffffffffffffffffffffff1681526020013373ffffffffffffffffffffffffffffffffffffffff1681526020013073ffffffffffffffffffffffffffffffffffffffff16815260200183815260200182815260200160001515815250600c60008581526020019081526020016000206000820151816000015560208201518160010160006101000a81548173ffffffffffffffffffffffffffffffffffffffff021916908373ffffffffffffffffffffffffffffffffffffffff16021790555060408201518160020160006101000a81548173ffffffffffffffffffffffffffffffffffffffff021916908373ffffffffffffffffffffffffffffffffffffffff16021790555060608201518160030160006101000a81548173ffffffffffffffffffffffffffffffffffffffff021916908373ffffffffffffffffffffffffffffffffffffffff1602179055506080820151816004015560a0820151816005015560c08201518160060160006101000a81548160ff021916908315150217905550905050610f0e333085612373565b827fa5d9d913ac4de93e8f5dc9a8834f347d521cd0daf35756b44fe413e9f34019793333600086866000604051610f4a9695949392919061406e565b60405180910390a2505050565b610f7283838360405180602001604052806000815250611968565b505050565b60606000610f8560086122d0565b905060008060005b8381101561102d573373ffffffffffffffffffffffffffffffffffffffff16600c6000600184610fbd9190613c80565b815260200190815260200160002060020160009054906101000a900473ffffffffffffffffffffffffffffffffffffffff1673ffffffffffffffffffffffffffffffffffffffff160361101a576001836110179190613c80565b92505b808061102590613ce3565b915050610f8d565b5060008267ffffffffffffffff81111561104a5761104961379b565b5b60405190808252806020026020018201604052801561108357816020015b6110706130a5565b8152602001906001900390816110685790505b50905060005b848110156112b8573373ffffffffffffffffffffffffffffffffffffffff16600c60006001846110b99190613c80565b815260200190815260200160002060020160009054906101000a900473ffffffffffffffffffffffffffffffffffffffff1673ffffffffffffffffffffffffffffffffffffffff16036112a55760006001826111159190613c80565b90506000600c60008381526020019081526020016000209050806040518060e0016040529081600082015481526020016001820160009054906101000a900473ffffffffffffffffffffffffffffffffffffffff1673ffffffffffffffffffffffffffffffffffffffff1673ffffffffffffffffffffffffffffffffffffffff1681526020016002820160009054906101000a900473ffffffffffffffffffffffffffffffffffffffff1673ffffffffffffffffffffffffffffffffffffffff1673ffffffffffffffffffffffffffffffffffffffff1681526020016003820160009054906101000a900473ffffffffffffffffffffffffffffffffffffffff1673ffffffffffffffffffffffffffffffffffffffff1673ffffffffffffffffffffffffffffffffffffffff16815260200160048201548152602001600582015481526020016006820160009054906101000a900460ff16151515158152505084868151811061128857611287613cb4565b5b60200260200101819052506001856112a09190613c80565b945050505b80806112b090613ce3565b915050611089565b508094505050505090565b6000806112cf8361266c565b9050600073ffffffffffffffffffffffffffffffffffffffff168173ffffffffffffffffffffffffffffffffffffffff1603611340576040517f08c379a00000000000000000000000000000000000000000000000000000000081526004016113379061411b565b60405180910390fd5b80915050919050565b3373ffffffffffffffffffffffffffffffffffffffff16600c600084815260200190815260200160002060030160009054906101000a900473ffffffffffffffffffffffffffffffffffffffff1673ffffffffffffffffffffffffffffffffffffffff16146113ed576040517f08c379a00000000000000000000000000000000000000000000000000000000081526004016113e4906141ad565b60405180910390fd5b6000600c600084815260200190815260200160002060060160006101000a81548160ff02191690831515021790555080600c60008481526020019081526020016000206005018190555033600c600084815260200190815260200160002060020160006101000a81548173ffffffffffffffffffffffffffffffffffffffff021916908373ffffffffffffffffffffffffffffffffffffffff16021790555030600c600084815260200190815260200160002060030160006101000a81548173ffffffffffffffffffffffffffffffffffffffff021916908373ffffffffffffffffffffffffffffffffffffffff1602179055506114eb60096126a9565b6114f6333084612373565b5050565b60008073ffffffffffffffffffffffffffffffffffffffff168273ffffffffffffffffffffffffffffffffffffffff160361156a576040517f08c379a00000000000000000000000000000000000000000000000000000000081526004016115619061423f565b60405180910390fd5b600360008373ffffffffffffffffffffffffffffffffffffffff1673ffffffffffffffffffffffffffffffffffffffff168152602001908152602001600020549050919050565b3073ffffffffffffffffffffffffffffffffffffffff166342842e0e3083856040518463ffffffff1660e01b81526004016115ee9392919061425f565b600060405180830381600087803b15801561160857600080fd5b505af115801561161c573d6000803e3d6000fd5b5050505080600c600084815260200190815260200160002060030160006101000a81548173ffffffffffffffffffffffffffffffffffffffff021916908373ffffffffffffffffffffffffffffffffffffffff1602179055507f20665ee57a5e13af162123968d777ccebe86531a21e53d08afc78138a950192d82826040516116a6929190613f6d565b60405180910390a15050565b6060600180546116c190613ac8565b80601f01602080910402602001604051908101604052809291908181526020018280546116ed90613ac8565b801561173a5780601f1061170f5761010080835404028352916020019161173a565b820191906000526020600020905b81548152906001019060200180831161171d57829003601f168201915b5050505050905090565b61175661174f61220f565b8383612705565b5050565b6000806000600c60008581526020019081526020016000206040518060e0016040529081600082015481526020016001820160009054906101000a900473ffffffffffffffffffffffffffffffffffffffff1673ffffffffffffffffffffffffffffffffffffffff1673ffffffffffffffffffffffffffffffffffffffff1681526020016002820160009054906101000a900473ffffffffffffffffffffffffffffffffffffffff1673ffffffffffffffffffffffffffffffffffffffff1673ffffffffffffffffffffffffffffffffffffffff1681526020016003820160009054906101000a900473ffffffffffffffffffffffffffffffffffffffff1673ffffffffffffffffffffffffffffffffffffffff1673ffffffffffffffffffffffffffffffffffffffff16815260200160048201548152602001600582015481526020016006820160009054906101000a900460ff1615151515815250509050806080015181602001519250925050915091565b600b60009054906101000a900473ffffffffffffffffffffffffffffffffffffffff1673ffffffffffffffffffffffffffffffffffffffff163373ffffffffffffffffffffffffffffffffffffffff161461195e576040517f08c379a000000000000000000000000000000000000000000000000000000000815260040161195590613e2f565b60405180910390fd5b80600a8190555050565b61197961197361220f565b836122de565b6119b8576040517f08c379a00000000000000000000000000000000000000000000000000000000081526004016119af90613d9d565b60405180910390fd5b6119c484848484612871565b50505050565b6000600c6000838152602001908152602001600020600501549050803414611a27576040517f08c379a0000000000000000000000000000000000000000000000000000000008152600401611a1e90614308565b60405180910390fd5b33600c600084815260200190815260200160002060030160006101000a81548173ffffffffffffffffffffffffffffffffffffffff021916908373ffffffffffffffffffffffffffffffffffffffff1602179055506001600c600084815260200190815260200160002060060160006101000a81548160ff021916908315150217905550611ab560096128cd565b611ac0303384612373565b600b60009054906101000a900473ffffffffffffffffffffffffffffffffffffffff1673ffffffffffffffffffffffffffffffffffffffff166108fc600a549081150290604051600060405180830381858888f19350505050158015611b2a573d6000803e3d6000fd5b50600c600083815260200190815260200160002060020160009054906101000a900473ffffffffffffffffffffffffffffffffffffffff1673ffffffffffffffffffffffffffffffffffffffff166108fc349081150290604051600060405180830381858888f19350505050158015611ba7573d6000803e3d6000fd5b505050565b6000611bb860086128cd565b6000611bc460086122d0565b9050611bd033826128e3565b611bda8186612b00565b611be5818585610cdb565b809150509392505050565b60606000611bfe60086122d0565b905060008060005b83811015611ca6573373ffffffffffffffffffffffffffffffffffffffff16600c6000600184611c369190613c80565b815260200190815260200160002060030160009054906101000a900473ffffffffffffffffffffffffffffffffffffffff1673ffffffffffffffffffffffffffffffffffffffff1603611c9357600183611c909190613c80565b92505b8080611c9e90613ce3565b915050611c06565b5060008267ffffffffffffffff811115611cc357611cc261379b565b5b604051908082528060200260200182016040528015611cfc57816020015b611ce96130a5565b815260200190600190039081611ce15790505b50905060005b84811015611f31573373ffffffffffffffffffffffffffffffffffffffff16600c6000600184611d329190613c80565b815260200190815260200160002060030160009054906101000a900473ffffffffffffffffffffffffffffffffffffffff1673ffffffffffffffffffffffffffffffffffffffff1603611f1e576000600182611d8e9190613c80565b90506000600c60008381526020019081526020016000209050806040518060e0016040529081600082015481526020016001820160009054906101000a900473ffffffffffffffffffffffffffffffffffffffff1673ffffffffffffffffffffffffffffffffffffffff1673ffffffffffffffffffffffffffffffffffffffff1681526020016002820160009054906101000a900473ffffffffffffffffffffffffffffffffffffffff1673ffffffffffffffffffffffffffffffffffffffff1673ffffffffffffffffffffffffffffffffffffffff1681526020016003820160009054906101000a900473ffffffffffffffffffffffffffffffffffffffff1673ffffffffffffffffffffffffffffffffffffffff1673ffffffffffffffffffffffffffffffffffffffff16815260200160048201548152602001600582015481526020016006820160009054906101000a900460ff161515151581525050848681518110611f0157611f00613cb4565b5b6020026020010181905250600185611f199190613c80565b945050505b8080611f2990613ce3565b915050611d02565b508094505050505090565b6060611f47826121c4565b6000600660008481526020019081526020016000208054611f6790613ac8565b80601f0160208091040260200160405190810160405280929190818152602001828054611f9390613ac8565b8015611fe05780601f10611fb557610100808354040283529160200191611fe0565b820191906000526020600020905b815481529060010190602001808311611fc357829003601f168201915b505050505090506000611ff1612ba4565b90506000815103612006578192505050612049565b60008251111561203b578082604051602001612023929190614364565b60405160208183030381529060405292505050612049565b61204484612bbb565b925050505b919050565b6000600560008473ffffffffffffffffffffffffffffffffffffffff1673ffffffffffffffffffffffffffffffffffffffff16815260200190815260200160002060008373ffffffffffffffffffffffffffffffffffffffff1673ffffffffffffffffffffffffffffffffffffffff16815260200190815260200160002060009054906101000a900460ff16905092915050565b60007f80ac58cd000000000000000000000000000000000000000000000000000000007bffffffffffffffffffffffffffffffffffffffffffffffffffffffff1916827bffffffffffffffffffffffffffffffffffffffffffffffffffffffff191614806121ad57507f5b5e139f000000000000000000000000000000000000000000000000000000007bffffffffffffffffffffffffffffffffffffffffffffffffffffffff1916827bffffffffffffffffffffffffffffffffffffffffffffffffffffffff1916145b806121bd57506121bc82612c23565b5b9050919050565b6121cd81612c8d565b61220c576040517f08c379a00000000000000000000000000000000000000000000000000000000081526004016122039061411b565b60405180910390fd5b50565b600033905090565b816004600083815260200190815260200160002060006101000a81548173ffffffffffffffffffffffffffffffffffffffff021916908373ffffffffffffffffffffffffffffffffffffffff160217905550808273ffffffffffffffffffffffffffffffffffffffff1661228a836112c3565b73ffffffffffffffffffffffffffffffffffffffff167f8c5be1e5ebec7d5bd14f71427d1e84f3dd0314c0f7b2291e5b200ac8c7c3b92560405160405180910390a45050565b600081600001549050919050565b6000806122ea836112c3565b90508073ffffffffffffffffffffffffffffffffffffffff168473ffffffffffffffffffffffffffffffffffffffff16148061232c575061232b818561204e565b5b8061236a57508373ffffffffffffffffffffffffffffffffffffffff1661235284610673565b73ffffffffffffffffffffffffffffffffffffffff16145b91505092915050565b8273ffffffffffffffffffffffffffffffffffffffff16612393826112c3565b73ffffffffffffffffffffffffffffffffffffffff16146123e9576040517f08c379a00000000000000000000000000000000000000000000000000000000081526004016123e0906143fa565b60405180910390fd5b600073ffffffffffffffffffffffffffffffffffffffff168273ffffffffffffffffffffffffffffffffffffffff1603612458576040517f08c379a000000000000000000000000000000000000000000000000000000000815260040161244f9061448c565b60405180910390fd5b6124658383836001612cce565b8273ffffffffffffffffffffffffffffffffffffffff16612485826112c3565b73ffffffffffffffffffffffffffffffffffffffff16146124db576040517f08c379a00000000000000000000000000000000000000000000000000000000081526004016124d2906143fa565b60405180910390fd5b6004600082815260200190815260200160002060006101000a81549073ffffffffffffffffffffffffffffffffffffffff02191690556001600360008573ffffffffffffffffffffffffffffffffffffffff1673ffffffffffffffffffffffffffffffffffffffff168152602001908152602001600020600082825403925050819055506001600360008473ffffffffffffffffffffffffffffffffffffffff1673ffffffffffffffffffffffffffffffffffffffff16815260200190815260200160002060008282540192505081905550816002600083815260200190815260200160002060006101000a81548173ffffffffffffffffffffffffffffffffffffffff021916908373ffffffffffffffffffffffffffffffffffffffff160217905550808273ffffffffffffffffffffffffffffffffffffffff168473ffffffffffffffffffffffffffffffffffffffff167fddf252ad1be2c89b69c2b068fc378daa952ba7f163c4a11628f55a4df523b3ef60405160405180910390a46126678383836001612cd4565b505050565b60006002600083815260200190815260200160002060009054906101000a900473ffffffffffffffffffffffffffffffffffffffff169050919050565b600081600001549050600081116126f5576040517f08c379a00000000000000000000000000000000000000000000000000000000081526004016126ec906144f8565b60405180910390fd5b6001810382600001819055505050565b8173ffffffffffffffffffffffffffffffffffffffff168373ffffffffffffffffffffffffffffffffffffffff1603612773576040517f08c379a000000000000000000000000000000000000000000000000000000000815260040161276a90614564565b60405180910390fd5b80600560008573ffffffffffffffffffffffffffffffffffffffff1673ffffffffffffffffffffffffffffffffffffffff16815260200190815260200160002060008473ffffffffffffffffffffffffffffffffffffffff1673ffffffffffffffffffffffffffffffffffffffff16815260200190815260200160002060006101000a81548160ff0219169083151502179055508173ffffffffffffffffffffffffffffffffffffffff168373ffffffffffffffffffffffffffffffffffffffff167f17307eab39ab6107e8899845ad3d59bd9653f200f220920489ca2b5937696c318360405161286491906131da565b60405180910390a3505050565b61287c848484612373565b61288884848484612cda565b6128c7576040517f08c379a00000000000000000000000000000000000000000000000000000000081526004016128be906145f6565b60405180910390fd5b50505050565b6001816000016000828254019250508190555050565b600073ffffffffffffffffffffffffffffffffffffffff168273ffffffffffffffffffffffffffffffffffffffff1603612952576040517f08c379a000000000000000000000000000000000000000000000000000000000815260040161294990614662565b60405180910390fd5b61295b81612c8d565b1561299b576040517f08c379a0000000000000000000000000000000000000000000000000000000008152600401612992906146ce565b60405180910390fd5b6129a9600083836001612cce565b6129b281612c8d565b156129f2576040517f08c379a00000000000000000000000000000000000000000000000000000000081526004016129e9906146ce565b60405180910390fd5b6001600360008473ffffffffffffffffffffffffffffffffffffffff1673ffffffffffffffffffffffffffffffffffffffff16815260200190815260200160002060008282540192505081905550816002600083815260200190815260200160002060006101000a81548173ffffffffffffffffffffffffffffffffffffffff021916908373ffffffffffffffffffffffffffffffffffffffff160217905550808273ffffffffffffffffffffffffffffffffffffffff16600073ffffffffffffffffffffffffffffffffffffffff167fddf252ad1be2c89b69c2b068fc378daa952ba7f163c4a11628f55a4df523b3ef60405160405180910390a4612afc600083836001612cd4565b5050565b612b0982612c8d565b612b48576040517f08c379a0000000000000000000000000000000000000000000000000000000008152600401612b3f90614760565b60405180910390fd5b80600660008481526020019081526020016000209081612b68919061492c565b507ff8e1a15aba9398e019f0b49df1a4fde98ee17ae345cb5f6b5e2c27f5033e8ce782604051612b989190613692565b60405180910390a15050565b606060405180602001604052806000815250905090565b6060612bc6826121c4565b6000612bd0612ba4565b90506000815111612bf05760405180602001604052806000815250612c1b565b80612bfa84612e61565b604051602001612c0b929190614364565b6040516020818303038152906040525b915050919050565b60007f01ffc9a7000000000000000000000000000000000000000000000000000000007bffffffffffffffffffffffffffffffffffffffffffffffffffffffff1916827bffffffffffffffffffffffffffffffffffffffffffffffffffffffff1916149050919050565b60008073ffffffffffffffffffffffffffffffffffffffff16612caf8361266c565b73ffffffffffffffffffffffffffffffffffffffff1614159050919050565b50505050565b50505050565b6000612cfb8473ffffffffffffffffffffffffffffffffffffffff16612f2f565b15612e54578373ffffffffffffffffffffffffffffffffffffffff1663150b7a02612d2461220f565b8786866040518563ffffffff1660e01b8152600401612d469493929190614a53565b6020604051808303816000875af1925050508015612d8257506040513d601f19601f82011682018060405250810190612d7f9190614ab4565b60015b612e04573d8060008114612db2576040519150601f19603f3d011682016040523d82523d6000602084013e612db7565b606091505b506000815103612dfc576040517f08c379a0000000000000000000000000000000000000000000000000000000008152600401612df3906145f6565b60405180910390fd5b805181602001fd5b63150b7a0260e01b7bffffffffffffffffffffffffffffffffffffffffffffffffffffffff1916817bffffffffffffffffffffffffffffffffffffffffffffffffffffffff191614915050612e59565b600190505b949350505050565b606060006001612e7084612f52565b01905060008167ffffffffffffffff811115612e8f57612e8e61379b565b5b6040519080825280601f01601f191660200182016040528015612ec15781602001600182028036833780820191505090505b509050600082602001820190505b600115612f24578080600190039150507f3031323334353637383961626364656600000000000000000000000000000000600a86061a8153600a8581612f1857612f17614ae1565b5b04945060008503612ecf575b819350505050919050565b6000808273ffffffffffffffffffffffffffffffffffffffff163b119050919050565b600080600090507a184f03e93ff9f4daa797ed6e38ed64bf6a1f0100000000000000008310612fb0577a184f03e93ff9f4daa797ed6e38ed64bf6a1f0100000000000000008381612fa657612fa5614ae1565b5b0492506040810190505b6d04ee2d6d415b85acef81000000008310612fed576d04ee2d6d415b85acef81000000008381612fe357612fe2614ae1565b5b0492506020810190505b662386f26fc10000831061301c57662386f26fc10000838161301257613011614ae1565b5b0492506010810190505b6305f5e1008310613045576305f5e100838161303b5761303a614ae1565b5b0492506008810190505b612710831061306a5761271083816130605761305f614ae1565b5b0492506004810190505b6064831061308d576064838161308357613082614ae1565b5b0492506002810190505b600a831061309c576001810190505b80915050919050565b6040518060e0016040528060008152602001600073ffffffffffffffffffffffffffffffffffffffff168152602001600073ffffffffffffffffffffffffffffffffffffffff168152602001600073ffffffffffffffffffffffffffffffffffffffff16815260200160008152602001600081526020016000151581525090565b6000604051905090565b600080fd5b600080fd5b60007fffffffff0000000000000000000000000000000000000000000000000000000082169050919050565b61316f8161313a565b811461317a57600080fd5b50565b60008135905061318c81613166565b92915050565b6000602082840312156131a8576131a7613130565b5b60006131b68482850161317d565b91505092915050565b60008115159050919050565b6131d4816131bf565b82525050565b60006020820190506131ef60008301846131cb565b92915050565b600081519050919050565b600082825260208201905092915050565b60005b8381101561322f578082015181840152602081019050613214565b60008484015250505050565b6000601f19601f8301169050919050565b6000613257826131f5565b6132618185613200565b9350613271818560208601613211565b61327a8161323b565b840191505092915050565b6000602082019050818103600083015261329f818461324c565b905092915050565b6000819050919050565b6132ba816132a7565b81146132c557600080fd5b50565b6000813590506132d7816132b1565b92915050565b6000602082840312156132f3576132f2613130565b5b6000613301848285016132c8565b91505092915050565b600073ffffffffffffffffffffffffffffffffffffffff82169050919050565b60006133358261330a565b9050919050565b6133458161332a565b82525050565b6000602082019050613360600083018461333c565b92915050565b61336f8161332a565b811461337a57600080fd5b50565b60008135905061338c81613366565b92915050565b600080604083850312156133a9576133a8613130565b5b60006133b78582860161337d565b92505060206133c8858286016132c8565b9150509250929050565b600081519050919050565b600082825260208201905092915050565b6000819050602082019050919050565b613407816132a7565b82525050565b60006134188261330a565b9050919050565b6134288161340d565b82525050565b613437816131bf565b82525050565b60e08201600082015161345360008501826133fe565b506020820151613466602085018261341f565b506040820151613479604085018261341f565b50606082015161348c606085018261341f565b50608082015161349f60808501826133fe565b5060a08201516134b260a08501826133fe565b5060c08201516134c560c085018261342e565b50505050565b60006134d7838361343d565b60e08301905092915050565b6000602082019050919050565b60006134fb826133d2565b61350581856133dd565b9350613510836133ee565b8060005b8381101561354157815161352888826134cb565b9750613533836134e3565b925050600181019050613514565b5085935050505092915050565b6000602082019050818103600083015261356881846134f0565b905092915050565b60008060006060848603121561358957613588613130565b5b60006135978682870161337d565b93505060206135a88682870161337d565b92505060406135b9868287016132c8565b9150509250925092565b6000806000606084860312156135dc576135db613130565b5b60006135ea868287016132c8565b93505060206135fb868287016132c8565b925050604061360c868287016132c8565b9150509250925092565b6000806040838503121561362d5761362c613130565b5b600061363b858286016132c8565b925050602061364c858286016132c8565b9150509250929050565b60006020828403121561366c5761366b613130565b5b600061367a8482850161337d565b91505092915050565b61368c816132a7565b82525050565b60006020820190506136a76000830184613683565b92915050565b600080604083850312156136c4576136c3613130565b5b60006136d2858286016132c8565b92505060206136e38582860161337d565b9150509250929050565b6136f6816131bf565b811461370157600080fd5b50565b600081359050613713816136ed565b92915050565b600080604083850312156137305761372f613130565b5b600061373e8582860161337d565b925050602061374f85828601613704565b9150509250929050565b6137628161340d565b82525050565b600060408201905061377d6000830185613683565b61378a6020830184613759565b9392505050565b600080fd5b600080fd5b7f4e487b7100000000000000000000000000000000000000000000000000000000600052604160045260246000fd5b6137d38261323b565b810181811067ffffffffffffffff821117156137f2576137f161379b565b5b80604052505050565b6000613805613126565b905061381182826137ca565b919050565b600067ffffffffffffffff8211156138315761383061379b565b5b61383a8261323b565b9050602081019050919050565b82818337600083830152505050565b600061386961386484613816565b6137fb565b90508281526020810184848401111561388557613884613796565b5b613890848285613847565b509392505050565b600082601f8301126138ad576138ac613791565b5b81356138bd848260208601613856565b91505092915050565b600080600080608085870312156138e0576138df613130565b5b60006138ee8782880161337d565b94505060206138ff8782880161337d565b9350506040613910878288016132c8565b925050606085013567ffffffffffffffff81111561393157613930613135565b5b61393d87828801613898565b91505092959194509250565b600067ffffffffffffffff8211156139645761396361379b565b5b61396d8261323b565b9050602081019050919050565b600061398d61398884613949565b6137fb565b9050828152602081018484840111156139a9576139a8613796565b5b6139b4848285613847565b509392505050565b600082601f8301126139d1576139d0613791565b5b81356139e184826020860161397a565b91505092915050565b600080600060608486031215613a0357613a02613130565b5b600084013567ffffffffffffffff811115613a2157613a20613135565b5b613a2d868287016139bc565b9350506020613a3e868287016132c8565b9250506040613a4f868287016132c8565b9150509250925092565b60008060408385031215613a7057613a6f613130565b5b6000613a7e8582860161337d565b9250506020613a8f8582860161337d565b9150509250929050565b7f4e487b7100000000000000000000000000000000000000000000000000000000600052602260045260246000fd5b60006002820490506001821680613ae057607f821691505b602082108103613af357613af2613a99565b5b50919050565b7f4552433732313a20617070726f76616c20746f2063757272656e74206f776e6560008201527f7200000000000000000000000000000000000000000000000000000000000000602082015250565b6000613b55602183613200565b9150613b6082613af9565b604082019050919050565b60006020820190508181036000830152613b8481613b48565b9050919050565b7f4552433732313a20617070726f76652063616c6c6572206973206e6f7420746f60008201527f6b656e206f776e6572206f7220617070726f76656420666f7220616c6c000000602082015250565b6000613be7603d83613200565b9150613bf282613b8b565b604082019050919050565b60006020820190508181036000830152613c1681613bda565b9050919050565b7f4e487b7100000000000000000000000000000000000000000000000000000000600052601160045260246000fd5b6000613c57826132a7565b9150613c62836132a7565b9250828203905081811115613c7a57613c79613c1d565b5b92915050565b6000613c8b826132a7565b9150613c96836132a7565b9250828201905080821115613cae57613cad613c1d565b5b92915050565b7f4e487b7100000000000000000000000000000000000000000000000000000000600052603260045260246000fd5b6000613cee826132a7565b91507fffffffffffffffffffffffffffffffffffffffffffffffffffffffffffffffff8203613d2057613d1f613c1d565b5b600182019050919050565b7f4552433732313a2063616c6c6572206973206e6f7420746f6b656e206f776e6560008201527f72206f7220617070726f76656400000000000000000000000000000000000000602082015250565b6000613d87602d83613200565b9150613d9282613d2b565b604082019050919050565b60006020820190508181036000830152613db681613d7a565b9050919050565b7f6f6e6c79206f776e6572206f662074686520636f6e74726163742063616e207560008201527f706461746520746865206c697374696e67207072696365000000000000000000602082015250565b6000613e19603783613200565b9150613e2482613dbd565b604082019050919050565b60006020820190508181036000830152613e4881613e0c565b9050919050565b7f4e6f2066756e647320746f207769746864726177000000000000000000000000600082015250565b6000613e85601483613200565b9150613e9082613e4f565b602082019050919050565b60006020820190508181036000830152613eb481613e78565b9050919050565b600081905092915050565b50565b6000613ed6600083613ebb565b9150613ee182613ec6565b600082019050919050565b6000613ef782613ec9565b9150819050919050565b7f4661696c656420746f2077697468647261772066756e64730000000000000000600082015250565b6000613f37601883613200565b9150613f4282613f01565b602082019050919050565b60006020820190508181036000830152613f6681613f2a565b9050919050565b6000604082019050613f826000830185613683565b613f8f602083018461333c565b9392505050565b7f5072696365206d757374206265206174206c6561737420312077656900000000600082015250565b6000613fcc601c83613200565b9150613fd782613f96565b602082019050919050565b60006020820190508181036000830152613ffb81613fbf565b9050919050565b7f5072696365206d757374206265207061696420696e2066756c6c000000000000600082015250565b6000614038601a83613200565b915061404382614002565b602082019050919050565b600060208201905081810360008301526140678161402b565b9050919050565b600060c082019050614083600083018961333c565b614090602083018861333c565b61409d604083018761333c565b6140aa6060830186613683565b6140b76080830185613683565b6140c460a08301846131cb565b979650505050505050565b7f4552433732313a20696e76616c696420746f6b656e2049440000000000000000600082015250565b6000614105601883613200565b9150614110826140cf565b602082019050919050565b60006020820190508181036000830152614134816140f8565b9050919050565b7f746f6b656e2063616e206f6e6c79206265207265736f6c64206279206f776e6560008201527f7200000000000000000000000000000000000000000000000000000000000000602082015250565b6000614197602183613200565b91506141a28261413b565b604082019050919050565b600060208201905081810360008301526141c68161418a565b9050919050565b7f4552433732313a2061646472657373207a65726f206973206e6f74206120766160008201527f6c6964206f776e65720000000000000000000000000000000000000000000000602082015250565b6000614229602983613200565b9150614234826141cd565b604082019050919050565b600060208201905081810360008301526142588161421c565b9050919050565b6000606082019050614274600083018661333c565b614281602083018561333c565b61428e6040830184613683565b949350505050565b7f506c65617365207375626d6974207468652061736b696e67207072696365206960008201527f6e206f7264657220746f20636f6d706c65746520746865207075726368617365602082015250565b60006142f2604083613200565b91506142fd82614296565b604082019050919050565b60006020820190508181036000830152614321816142e5565b9050919050565b600081905092915050565b600061433e826131f5565b6143488185614328565b9350614358818560208601613211565b80840191505092915050565b60006143708285614333565b915061437c8284614333565b91508190509392505050565b7f4552433732313a207472616e736665722066726f6d20696e636f72726563742060008201527f6f776e6572000000000000000000000000000000000000000000000000000000602082015250565b60006143e4602583613200565b91506143ef82614388565b604082019050919050565b60006020820190508181036000830152614413816143d7565b9050919050565b7f4552433732313a207472616e7366657220746f20746865207a65726f2061646460008201527f7265737300000000000000000000000000000000000000000000000000000000602082015250565b6000614476602483613200565b91506144818261441a565b604082019050919050565b600060208201905081810360008301526144a581614469565b9050919050565b7f436f756e7465723a2064656372656d656e74206f766572666c6f770000000000600082015250565b60006144e2601b83613200565b91506144ed826144ac565b602082019050919050565b60006020820190508181036000830152614511816144d5565b9050919050565b7f4552433732313a20617070726f766520746f2063616c6c657200000000000000600082015250565b600061454e601983613200565b915061455982614518565b602082019050919050565b6000602082019050818103600083015261457d81614541565b9050919050565b7f4552433732313a207472616e7366657220746f206e6f6e20455243373231526560008201527f63656976657220696d706c656d656e7465720000000000000000000000000000602082015250565b60006145e0603283613200565b91506145eb82614584565b604082019050919050565b6000602082019050818103600083015261460f816145d3565b9050919050565b7f4552433732313a206d696e7420746f20746865207a65726f2061646472657373600082015250565b600061464c602083613200565b915061465782614616565b602082019050919050565b6000602082019050818103600083015261467b8161463f565b9050919050565b7f4552433732313a20746f6b656e20616c7265616479206d696e74656400000000600082015250565b60006146b8601c83613200565b91506146c382614682565b602082019050919050565b600060208201905081810360008301526146e7816146ab565b9050919050565b7f45524337323155524953746f726167653a2055524920736574206f66206e6f6e60008201527f6578697374656e7420746f6b656e000000000000000000000000000000000000602082015250565b600061474a602e83613200565b9150614755826146ee565b604082019050919050565b600060208201905081810360008301526147798161473d565b9050919050565b60008190508160005260206000209050919050565b60006020601f8301049050919050565b600082821b905092915050565b6000600883026147e27fffffffffffffffffffffffffffffffffffffffffffffffffffffffffffffffff826147a5565b6147ec86836147a5565b95508019841693508086168417925050509392505050565b6000819050919050565b600061482961482461481f846132a7565b614804565b6132a7565b9050919050565b6000819050919050565b6148438361480e565b61485761484f82614830565b8484546147b2565b825550505050565b600090565b61486c61485f565b61487781848461483a565b505050565b5b8181101561489b57614890600082614864565b60018101905061487d565b5050565b601f8211156148e0576148b181614780565b6148ba84614795565b810160208510156148c9578190505b6148dd6148d585614795565b83018261487c565b50505b505050565b600082821c905092915050565b6000614903600019846008026148e5565b1980831691505092915050565b600061491c83836148f2565b9150826002028217905092915050565b614935826131f5565b67ffffffffffffffff81111561494e5761494d61379b565b5b6149588254613ac8565b61496382828561489f565b600060209050601f8311600181146149965760008415614984578287015190505b61498e8582614910565b8655506149f6565b601f1984166149a486614780565b60005b828110156149cc578489015182556001820191506020850194506020810190506149a7565b868310156149e957848901516149e5601f8916826148f2565b8355505b6001600288020188555050505b505050505050565b600081519050919050565b600082825260208201905092915050565b6000614a25826149fe565b614a2f8185614a09565b9350614a3f818560208601613211565b614a488161323b565b840191505092915050565b6000608082019050614a68600083018761333c565b614a75602083018661333c565b614a826040830185613683565b8181036060830152614a948184614a1a565b905095945050505050565b600081519050614aae81613166565b92915050565b600060208284031215614aca57614ac9613130565b5b6000614ad884828501614a9f565b91505092915050565b7f4e487b7100000000000000000000000000000000000000000000000000000000600052601260045260246000fdfea2646970667358221220671d0850c736ac5304a05ca63f67f08b8898ccd5bb56d743eab9e4fdeffe76b164736f6c63430008130033",
  "linkReferences": {},
  "deployedLinkReferences": {}
}