{
  "_format": "hh-sol-artifact-1",
  "contractName": "Marketplace",
  "sourceName": "contracts/Marketplace.sol",
  "abi": [
    {
      "inputs": [],
      "stateMutability": "nonpayable",
      "type": "constructor"
    },
    {
      "anonymous": false,
      "inputs": [
        {
          "indexed": true,
          "internalType": "address",
          "name": "owner",
          "type": "address"
        },
        {
          "indexed": true,
          "internalType": "address",
          "name": "approved",
          "type": "address"
        },
        {
          "indexed": true,
          "internalType": "uint256",
          "name": "tokenId",
          "type": "uint256"
        }
      ],
      "name": "Approval",
      "type": "event"
    },
    {
      "anonymous": false,
      "inputs": [
        {
          "indexed": true,
          "internalType": "address",
          "name": "owner",
          "type": "address"
        },
        {
          "indexed": true,
          "internalType": "address",
          "name": "operator",
          "type": "address"
        },
        {
          "indexed": false,
          "internalType": "bool",
          "name": "approved",
          "type": "bool"
        }
      ],
      "name": "ApprovalForAll",
      "type": "event"
    },
    {
      "anonymous": false,
      "inputs": [
        {
          "indexed": false,
          "internalType": "uint256",
          "name": "_fromTokenId",
          "type": "uint256"
        },
        {
          "indexed": false,
          "internalType": "uint256",
          "name": "_toTokenId",
          "type": "uint256"
        }
      ],
      "name": "BatchMetadataUpdate",
      "type": "event"
    },
    {
      "anonymous": false,
      "inputs": [
        {
          "indexed": false,
          "internalType": "uint256",
          "name": "amount",
          "type": "uint256"
        },
        {
          "indexed": false,
          "internalType": "address",
          "name": "targetWallet",
          "type": "address"
        }
      ],
      "name": "FundsWithdrawn",
      "type": "event"
    },
    {
      "anonymous": false,
      "inputs": [
        {
          "indexed": true,
          "internalType": "uint256",
          "name": "tokenId",
          "type": "uint256"
        },
        {
          "indexed": false,
          "internalType": "address",
          "name": "originalOwner",
          "type": "address"
        },
        {
          "indexed": false,
          "internalType": "address",
          "name": "seller",
          "type": "address"
        },
        {
          "indexed": false,
          "internalType": "address",
          "name": "owner",
          "type": "address"
        },
        {
          "indexed": false,
          "internalType": "uint256",
          "name": "royaltyPercentage",
          "type": "uint256"
        },
        {
          "indexed": false,
          "internalType": "uint256",
          "name": "price",
          "type": "uint256"
        },
        {
          "indexed": false,
          "internalType": "bool",
          "name": "auction",
          "type": "bool"
        },
        {
          "indexed": false,
          "internalType": "bool",
          "name": "sold",
          "type": "bool"
        }
      ],
      "name": "MarketItemCreated",
      "type": "event"
    },
    {
      "anonymous": false,
      "inputs": [
        {
          "indexed": false,
          "internalType": "uint256",
          "name": "_tokenId",
          "type": "uint256"
        }
      ],
      "name": "MetadataUpdate",
      "type": "event"
    },
    {
      "anonymous": false,
      "inputs": [
        {
          "indexed": false,
          "internalType": "uint256",
          "name": "nftId",
          "type": "uint256"
        },
        {
          "indexed": false,
          "internalType": "address",
          "name": "auctionWinner",
          "type": "address"
        }
      ],
      "name": "NFTTransferred",
      "type": "event"
    },
    {
      "anonymous": false,
      "inputs": [
        {
          "indexed": true,
          "internalType": "address",
          "name": "from",
          "type": "address"
        },
        {
          "indexed": true,
          "internalType": "address",
          "name": "to",
          "type": "address"
        },
        {
          "indexed": true,
          "internalType": "uint256",
          "name": "tokenId",
          "type": "uint256"
        }
      ],
      "name": "Transfer",
      "type": "event"
    },
    {
      "inputs": [
        {
          "internalType": "address",
          "name": "to",
          "type": "address"
        },
        {
          "internalType": "uint256",
          "name": "tokenId",
          "type": "uint256"
        }
      ],
      "name": "approve",
      "outputs": [],
      "stateMutability": "nonpayable",
      "type": "function"
    },
    {
      "inputs": [
        {
          "internalType": "address",
          "name": "owner",
          "type": "address"
        }
      ],
      "name": "balanceOf",
      "outputs": [
        {
          "internalType": "uint256",
          "name": "",
          "type": "uint256"
        }
      ],
      "stateMutability": "view",
      "type": "function"
    },
    {
      "inputs": [
        {
          "internalType": "uint256",
          "name": "tokenId",
          "type": "uint256"
        },
        {
          "internalType": "uint256",
          "name": "royaltyPercentage",
          "type": "uint256"
        },
        {
          "internalType": "uint256",
          "name": "price",
          "type": "uint256"
        }
      ],
      "name": "createMarketItem",
      "outputs": [],
      "stateMutability": "payable",
      "type": "function"
    },
    {
      "inputs": [
        {
          "internalType": "uint256",
          "name": "tokenId",
          "type": "uint256"
        }
      ],
      "name": "createMarketSale",
      "outputs": [],
      "stateMutability": "payable",
      "type": "function"
    },
    {
      "inputs": [
        {
          "internalType": "string",
          "name": "tokenURI",
          "type": "string"
        },
        {
          "internalType": "uint256",
          "name": "royaltyPercentage",
          "type": "uint256"
        },
        {
          "internalType": "uint256",
          "name": "price",
          "type": "uint256"
        }
      ],
      "name": "createToken",
      "outputs": [
        {
          "internalType": "uint256",
          "name": "",
          "type": "uint256"
        }
      ],
      "stateMutability": "payable",
      "type": "function"
    },
    {
      "inputs": [],
      "name": "fetchItemsListed",
      "outputs": [
        {
          "components": [
            {
              "internalType": "uint256",
              "name": "tokenId",
              "type": "uint256"
            },
            {
              "internalType": "address payable",
              "name": "originalOwner",
              "type": "address"
            },
            {
              "internalType": "address payable",
              "name": "seller",
              "type": "address"
            },
            {
              "internalType": "address payable",
              "name": "owner",
              "type": "address"
            },
            {
              "internalType": "uint256",
              "name": "royaltyPercentage",
              "type": "uint256"
            },
            {
              "internalType": "uint256",
              "name": "price",
              "type": "uint256"
            },
            {
              "internalType": "bool",
              "name": "auction",
              "type": "bool"
            },
            {
              "internalType": "bool",
              "name": "sold",
              "type": "bool"
            }
          ],
          "internalType": "struct Marketplace.MarketItem[]",
          "name": "",
          "type": "tuple[]"
        }
      ],
      "stateMutability": "view",
      "type": "function"
    },
    {
      "inputs": [],
      "name": "fetchMarketItems",
      "outputs": [
        {
          "components": [
            {
              "internalType": "uint256",
              "name": "tokenId",
              "type": "uint256"
            },
            {
              "internalType": "address payable",
              "name": "originalOwner",
              "type": "address"
            },
            {
              "internalType": "address payable",
              "name": "seller",
              "type": "address"
            },
            {
              "internalType": "address payable",
              "name": "owner",
              "type": "address"
            },
            {
              "internalType": "uint256",
              "name": "royaltyPercentage",
              "type": "uint256"
            },
            {
              "internalType": "uint256",
              "name": "price",
              "type": "uint256"
            },
            {
              "internalType": "bool",
              "name": "auction",
              "type": "bool"
            },
            {
              "internalType": "bool",
              "name": "sold",
              "type": "bool"
            }
          ],
          "internalType": "struct Marketplace.MarketItem[]",
          "name": "",
          "type": "tuple[]"
        }
      ],
      "stateMutability": "view",
      "type": "function"
    },
    {
      "inputs": [],
      "name": "fetchMyNFT",
      "outputs": [
        {
          "components": [
            {
              "internalType": "uint256",
              "name": "tokenId",
              "type": "uint256"
            },
            {
              "internalType": "address payable",
              "name": "originalOwner",
              "type": "address"
            },
            {
              "internalType": "address payable",
              "name": "seller",
              "type": "address"
            },
            {
              "internalType": "address payable",
              "name": "owner",
              "type": "address"
            },
            {
              "internalType": "uint256",
              "name": "royaltyPercentage",
              "type": "uint256"
            },
            {
              "internalType": "uint256",
              "name": "price",
              "type": "uint256"
            },
            {
              "internalType": "bool",
              "name": "auction",
              "type": "bool"
            },
            {
              "internalType": "bool",
              "name": "sold",
              "type": "bool"
            }
          ],
          "internalType": "struct Marketplace.MarketItem[]",
          "name": "",
          "type": "tuple[]"
        }
      ],
      "stateMutability": "view",
      "type": "function"
    },
    {
      "inputs": [
        {
          "internalType": "uint256",
          "name": "tokenId",
          "type": "uint256"
        }
      ],
      "name": "getApproved",
      "outputs": [
        {
          "internalType": "address",
          "name": "",
          "type": "address"
        }
      ],
      "stateMutability": "view",
      "type": "function"
    },
    {
      "inputs": [
        {
          "internalType": "uint256",
          "name": "tokenId",
          "type": "uint256"
        }
      ],
      "name": "getRoyaltyData",
      "outputs": [
        {
          "internalType": "uint256",
          "name": "",
          "type": "uint256"
        },
        {
          "internalType": "address payable",
          "name": "",
          "type": "address"
        }
      ],
      "stateMutability": "view",
      "type": "function"
    },
    {
      "inputs": [
        {
          "internalType": "uint256",
          "name": "tokenId",
          "type": "uint256"
        },
        {
          "internalType": "address",
          "name": "winner",
          "type": "address"
        }
      ],
      "name": "handleAuctionEnd",
      "outputs": [],
      "stateMutability": "nonpayable",
      "type": "function"
    },
    {
      "inputs": [
        {
          "internalType": "address",
          "name": "owner",
          "type": "address"
        },
        {
          "internalType": "address",
          "name": "operator",
          "type": "address"
        }
      ],
      "name": "isApprovedForAll",
      "outputs": [
        {
          "internalType": "bool",
          "name": "",
          "type": "bool"
        }
      ],
      "stateMutability": "view",
      "type": "function"
    },
    {
      "inputs": [],
      "name": "name",
      "outputs": [
        {
          "internalType": "string",
          "name": "",
          "type": "string"
        }
      ],
      "stateMutability": "view",
      "type": "function"
    },
    {
      "inputs": [
        {
          "internalType": "uint256",
          "name": "tokenId",
          "type": "uint256"
        }
      ],
      "name": "ownerOf",
      "outputs": [
        {
          "internalType": "address",
          "name": "",
          "type": "address"
        }
      ],
      "stateMutability": "view",
      "type": "function"
    },
    {
      "inputs": [
        {
          "internalType": "uint256",
          "name": "tokenId",
          "type": "uint256"
        },
        {
          "internalType": "uint256",
          "name": "price",
          "type": "uint256"
        }
      ],
      "name": "resellMarketItem",
      "outputs": [],
      "stateMutability": "payable",
      "type": "function"
    },
    {
      "inputs": [
        {
          "internalType": "address",
          "name": "from",
          "type": "address"
        },
        {
          "internalType": "address",
          "name": "to",
          "type": "address"
        },
        {
          "internalType": "uint256",
          "name": "tokenId",
          "type": "uint256"
        }
      ],
      "name": "safeTransferFrom",
      "outputs": [],
      "stateMutability": "nonpayable",
      "type": "function"
    },
    {
      "inputs": [
        {
          "internalType": "address",
          "name": "from",
          "type": "address"
        },
        {
          "internalType": "address",
          "name": "to",
          "type": "address"
        },
        {
          "internalType": "uint256",
          "name": "tokenId",
          "type": "uint256"
        },
        {
          "internalType": "bytes",
          "name": "data",
          "type": "bytes"
        }
      ],
      "name": "safeTransferFrom",
      "outputs": [],
      "stateMutability": "nonpayable",
      "type": "function"
    },
    {
      "inputs": [
        {
          "internalType": "address",
          "name": "operator",
          "type": "address"
        },
        {
          "internalType": "bool",
          "name": "approved",
          "type": "bool"
        }
      ],
      "name": "setApprovalForAll",
      "outputs": [],
      "stateMutability": "nonpayable",
      "type": "function"
    },
    {
      "inputs": [
        {
          "internalType": "address",
          "name": "auctionFactoryAddress",
          "type": "address"
        }
      ],
      "name": "setAuctionFactoryAddress",
      "outputs": [],
      "stateMutability": "nonpayable",
      "type": "function"
    },
    {
      "inputs": [
        {
          "internalType": "bytes4",
          "name": "interfaceId",
          "type": "bytes4"
        }
      ],
      "name": "supportsInterface",
      "outputs": [
        {
          "internalType": "bool",
          "name": "",
          "type": "bool"
        }
      ],
      "stateMutability": "view",
      "type": "function"
    },
    {
      "inputs": [],
      "name": "symbol",
      "outputs": [
        {
          "internalType": "string",
          "name": "",
          "type": "string"
        }
      ],
      "stateMutability": "view",
      "type": "function"
    },
    {
      "inputs": [
        {
          "internalType": "uint256",
          "name": "tokenId",
          "type": "uint256"
        }
      ],
      "name": "tokenURI",
      "outputs": [
        {
          "internalType": "string",
          "name": "",
          "type": "string"
        }
      ],
      "stateMutability": "view",
      "type": "function"
    },
    {
      "inputs": [
        {
          "internalType": "address",
          "name": "from",
          "type": "address"
        },
        {
          "internalType": "address",
          "name": "to",
          "type": "address"
        },
        {
          "internalType": "uint256",
          "name": "tokenId",
          "type": "uint256"
        }
      ],
      "name": "transferFrom",
      "outputs": [],
      "stateMutability": "nonpayable",
      "type": "function"
    },
    {
      "inputs": [
        {
          "internalType": "uint256",
          "name": "_listingPrice",
          "type": "uint256"
        }
      ],
      "name": "updateListingPrice",
      "outputs": [],
      "stateMutability": "payable",
      "type": "function"
    },
    {
      "inputs": [],
      "name": "withdrawFunds",
      "outputs": [],
      "stateMutability": "nonpayable",
      "type": "function"
    }
  ],
  "bytecode": "0x60806040526608e1bc9bf04000600a553480156200001c57600080fd5b506040518060400160405280601381526020017f4e4654204d657461766572736520546f6b656e000000000000000000000000008152506040518060400160405280600581526020017f4d594e465400000000000000000000000000000000000000000000000000000081525081600090816200009a919062000378565b508060019081620000ac919062000378565b505050600160078190555033600b60006101000a81548173ffffffffffffffffffffffffffffffffffffffff021916908373ffffffffffffffffffffffffffffffffffffffff1602179055506200045f565b600081519050919050565b7f4e487b7100000000000000000000000000000000000000000000000000000000600052604160045260246000fd5b7f4e487b7100000000000000000000000000000000000000000000000000000000600052602260045260246000fd5b600060028204905060018216806200018057607f821691505b60208210810362000196576200019562000138565b5b50919050565b60008190508160005260206000209050919050565b60006020601f8301049050919050565b600082821b905092915050565b600060088302620002007fffffffffffffffffffffffffffffffffffffffffffffffffffffffffffffffff82620001c1565b6200020c8683620001c1565b95508019841693508086168417925050509392505050565b6000819050919050565b6000819050919050565b600062000259620002536200024d8462000224565b6200022e565b62000224565b9050919050565b6000819050919050565b620002758362000238565b6200028d620002848262000260565b848454620001ce565b825550505050565b600090565b620002a462000295565b620002b18184846200026a565b505050565b5b81811015620002d957620002cd6000826200029a565b600181019050620002b7565b5050565b601f8211156200032857620002f2816200019c565b620002fd84620001b1565b810160208510156200030d578190505b620003256200031c85620001b1565b830182620002b6565b50505b505050565b600082821c905092915050565b60006200034d600019846008026200032d565b1980831691505092915050565b60006200036883836200033a565b9150826002028217905092915050565b6200038382620000fe565b67ffffffffffffffff8111156200039f576200039e62000109565b5b620003ab825462000167565b620003b8828285620002dd565b600060209050601f831160018114620003f05760008415620003db578287015190505b620003e785826200035a565b86555062000457565b601f19841662000400866200019c565b60005b828110156200042a5784890151825560018201915060208501945060208101905062000403565b868310156200044a578489015162000446601f8916826200033a565b8355505b6001600288020188555050505b505050505050565b614d61806200046f6000396000f3fe6080604052600436106101665760003560e01c80636b52d832116100d1578063ae677aa31161008a578063bec2a7c511610064578063bec2a7c5146104ef578063c18763f71461051f578063c87b56dd1461054a578063e985e9c51461058757610166565b8063ae677aa31461048e578063b88d4fde146104aa578063be9af536146104d357610166565b80636b52d8321461037a57806370a08231146103965780638f329b31146103d357806395d89b41146103fc578063a22cb46514610427578063a65ff74c1461045057610166565b806323b872dd1161012357806323b872dd1461028d57806324600fc3146102b6578063320343da146102cd57806342842e0e146102e957806345f8fa80146103125780636352211e1461033d57610166565b806301ffc9a71461016b57806306fdde03146101a8578063081812fc146101d3578063095ea7b3146102105780630f08efe0146102395780631cb8813314610264575b600080fd5b34801561017757600080fd5b50610192600480360381019061018d91906133b0565b6105c4565b60405161019f91906133f8565b60405180910390f35b3480156101b457600080fd5b506101bd610625565b6040516101ca91906134a3565b60405180910390f35b3480156101df57600080fd5b506101fa60048036038101906101f591906134fb565b6106b7565b6040516102079190613569565b60405180910390f35b34801561021c57600080fd5b50610237600480360381019061023291906135b0565b6106fd565b005b34801561024557600080fd5b5061024e610814565b60405161025b9190613781565b60405180910390f35b34801561027057600080fd5b5061028b600480360381019061028691906137a3565b610af8565b005b34801561029957600080fd5b506102b460048036038101906102af91906137d0565b610b3c565b005b3480156102c257600080fd5b506102cb610b9c565b005b6102e760048036038101906102e29190613823565b610d7f565b005b3480156102f557600080fd5b50610310600480360381019061030b91906137d0565b611027565b005b34801561031e57600080fd5b50610327611047565b6040516103349190613781565b60405180910390f35b34801561034957600080fd5b50610364600480360381019061035f91906134fb565b6113af565b6040516103719190613569565b60405180910390f35b610394600480360381019061038f9190613876565b611435565b005b3480156103a257600080fd5b506103bd60048036038101906103b891906137a3565b6116d6565b6040516103ca91906138c5565b60405180910390f35b3480156103df57600080fd5b506103fa60048036038101906103f591906138e0565b61178d565b005b34801561040857600080fd5b5061041161188e565b60405161041e91906134a3565b60405180910390f35b34801561043357600080fd5b5061044e6004803603810190610449919061394c565b611920565b005b34801561045c57600080fd5b50610477600480360381019061047291906134fb565b611936565b60405161048592919061399b565b60405180910390f35b6104a860048036038101906104a391906134fb565b611ac6565b005b3480156104b657600080fd5b506104d160048036038101906104cc9190613af9565b611b60565b005b6104ed60048036038101906104e891906134fb565b611bc2565b005b61050960048036038101906105049190613c1d565b611da4565b60405161051691906138c5565b60405180910390f35b34801561052b57600080fd5b50610534611de8565b6040516105419190613781565b60405180910390f35b34801561055657600080fd5b50610571600480360381019061056c91906134fb565b612150565b60405161057e91906134a3565b60405180910390f35b34801561059357600080fd5b506105ae60048036038101906105a99190613c8c565b612262565b6040516105bb91906133f8565b60405180910390f35b6000634906490660e01b7bffffffffffffffffffffffffffffffffffffffffffffffffffffffff1916827bffffffffffffffffffffffffffffffffffffffffffffffffffffffff1916148061061e575061061d826122f6565b5b9050919050565b60606000805461063490613cfb565b80601f016020809104026020016040519081016040528092919081815260200182805461066090613cfb565b80156106ad5780601f10610682576101008083540402835291602001916106ad565b820191906000526020600020905b81548152906001019060200180831161069057829003601f168201915b5050505050905090565b60006106c2826123d8565b6004600083815260200190815260200160002060009054906101000a900473ffffffffffffffffffffffffffffffffffffffff169050919050565b6000610708826113af565b90508073ffffffffffffffffffffffffffffffffffffffff168373ffffffffffffffffffffffffffffffffffffffff1603610778576040517f08c379a000000000000000000000000000000000000000000000000000000000815260040161076f90613d9e565b60405180910390fd5b8073ffffffffffffffffffffffffffffffffffffffff16610797612423565b73ffffffffffffffffffffffffffffffffffffffff1614806107c657506107c5816107c0612423565b612262565b5b610805576040517f08c379a00000000000000000000000000000000000000000000000000000000081526004016107fc90613e30565b60405180910390fd5b61080f838361242b565b505050565b6060600061082260086124e4565b9050600061083060096124e4565b61083a60086124e4565b6108449190613e7f565b90506000808267ffffffffffffffff811115610863576108626139ce565b5b60405190808252806020026020018201604052801561089c57816020015b6108896132b9565b8152602001906001900390816108815790505b50905060005b84811015610aed573073ffffffffffffffffffffffffffffffffffffffff16600d60006001846108d29190613eb3565b815260200190815260200160002060030160009054906101000a900473ffffffffffffffffffffffffffffffffffffffff1673ffffffffffffffffffffffffffffffffffffffff1603610ada57600060018261092e9190613eb3565b90506000600d600083815260200190815260200160002090508060405180610100016040529081600082015481526020016001820160009054906101000a900473ffffffffffffffffffffffffffffffffffffffff1673ffffffffffffffffffffffffffffffffffffffff1673ffffffffffffffffffffffffffffffffffffffff1681526020016002820160009054906101000a900473ffffffffffffffffffffffffffffffffffffffff1673ffffffffffffffffffffffffffffffffffffffff1673ffffffffffffffffffffffffffffffffffffffff1681526020016003820160009054906101000a900473ffffffffffffffffffffffffffffffffffffffff1673ffffffffffffffffffffffffffffffffffffffff1673ffffffffffffffffffffffffffffffffffffffff16815260200160048201548152602001600582015481526020016006820160009054906101000a900460ff161515151581526020016006820160019054906101000a900460ff161515151581525050848681518110610abd57610abc613ee7565b5b6020026020010181905250600185610ad59190613eb3565b945050505b8080610ae590613f16565b9150506108a2565b508094505050505090565b80600c60006101000a81548173ffffffffffffffffffffffffffffffffffffffff021916908373ffffffffffffffffffffffffffffffffffffffff16021790555050565b610b4d610b47612423565b826124f2565b610b8c576040517f08c379a0000000000000000000000000000000000000000000000000000000008152600401610b8390613fd0565b60405180910390fd5b610b97838383612587565b505050565b600b60009054906101000a900473ffffffffffffffffffffffffffffffffffffffff1673ffffffffffffffffffffffffffffffffffffffff163373ffffffffffffffffffffffffffffffffffffffff1614610c2c576040517f08c379a0000000000000000000000000000000000000000000000000000000008152600401610c2390614062565b60405180910390fd5b600047905060008111610c74576040517f08c379a0000000000000000000000000000000000000000000000000000000008152600401610c6b906140ce565b60405180910390fd5b6000600b60009054906101000a900473ffffffffffffffffffffffffffffffffffffffff1673ffffffffffffffffffffffffffffffffffffffff1682604051610cbc9061411f565b60006040518083038185875af1925050503d8060008114610cf9576040519150601f19603f3d011682016040523d82523d6000602084013e610cfe565b606091505b5050905080610d42576040517f08c379a0000000000000000000000000000000000000000000000000000000008152600401610d3990614180565b60405180910390fd5b7f6141b54b56b8a52a8c6f5cd2a857f6117b18ffbf4d46bd3106f300a839cbf5ea8233604051610d739291906141a0565b60405180910390a15050565b60008111610dc2576040517f08c379a0000000000000000000000000000000000000000000000000000000008152600401610db990614215565b60405180910390fd5b600a543414610e06576040517f08c379a0000000000000000000000000000000000000000000000000000000008152600401610dfd90614281565b60405180910390fd5b6040518061010001604052808481526020013373ffffffffffffffffffffffffffffffffffffffff1681526020013373ffffffffffffffffffffffffffffffffffffffff1681526020013073ffffffffffffffffffffffffffffffffffffffff16815260200183815260200182815260200160001515815260200160001515815250600d60008581526020019081526020016000206000820151816000015560208201518160010160006101000a81548173ffffffffffffffffffffffffffffffffffffffff021916908373ffffffffffffffffffffffffffffffffffffffff16021790555060408201518160020160006101000a81548173ffffffffffffffffffffffffffffffffffffffff021916908373ffffffffffffffffffffffffffffffffffffffff16021790555060608201518160030160006101000a81548173ffffffffffffffffffffffffffffffffffffffff021916908373ffffffffffffffffffffffffffffffffffffffff1602179055506080820151816004015560a0820151816005015560c08201518160060160006101000a81548160ff02191690831515021790555060e08201518160060160016101000a81548160ff021916908315150217905550905050610fdc333085612587565b827f6be207084465b1afd1fb9af05976e6d285e34a16bc67aaa8e62ebbbf7c406aac33336000868660008060405161101a97969594939291906142a1565b60405180910390a2505050565b61104283838360405180602001604052806000815250611b60565b505050565b6060600061105560086124e4565b905060008060005b838110156110fd573373ffffffffffffffffffffffffffffffffffffffff16600d600060018461108d9190613eb3565b815260200190815260200160002060020160009054906101000a900473ffffffffffffffffffffffffffffffffffffffff1673ffffffffffffffffffffffffffffffffffffffff16036110ea576001836110e79190613eb3565b92505b80806110f590613f16565b91505061105d565b5060008267ffffffffffffffff81111561111a576111196139ce565b5b60405190808252806020026020018201604052801561115357816020015b6111406132b9565b8152602001906001900390816111385790505b50905060005b848110156113a4573373ffffffffffffffffffffffffffffffffffffffff16600d60006001846111899190613eb3565b815260200190815260200160002060020160009054906101000a900473ffffffffffffffffffffffffffffffffffffffff1673ffffffffffffffffffffffffffffffffffffffff16036113915760006001826111e59190613eb3565b90506000600d600083815260200190815260200160002090508060405180610100016040529081600082015481526020016001820160009054906101000a900473ffffffffffffffffffffffffffffffffffffffff1673ffffffffffffffffffffffffffffffffffffffff1673ffffffffffffffffffffffffffffffffffffffff1681526020016002820160009054906101000a900473ffffffffffffffffffffffffffffffffffffffff1673ffffffffffffffffffffffffffffffffffffffff1673ffffffffffffffffffffffffffffffffffffffff1681526020016003820160009054906101000a900473ffffffffffffffffffffffffffffffffffffffff1673ffffffffffffffffffffffffffffffffffffffff1673ffffffffffffffffffffffffffffffffffffffff16815260200160048201548152602001600582015481526020016006820160009054906101000a900460ff161515151581526020016006820160019054906101000a900460ff16151515158152505084868151811061137457611373613ee7565b5b602002602001018190525060018561138c9190613eb3565b945050505b808061139c90613f16565b915050611159565b508094505050505090565b6000806113bb83612880565b9050600073ffffffffffffffffffffffffffffffffffffffff168173ffffffffffffffffffffffffffffffffffffffff160361142c576040517f08c379a00000000000000000000000000000000000000000000000000000000081526004016114239061435c565b60405180910390fd5b80915050919050565b3373ffffffffffffffffffffffffffffffffffffffff16600d600084815260200190815260200160002060030160009054906101000a900473ffffffffffffffffffffffffffffffffffffffff1673ffffffffffffffffffffffffffffffffffffffff1614806114f25750600c60009054906101000a900473ffffffffffffffffffffffffffffffffffffffff1673ffffffffffffffffffffffffffffffffffffffff163373ffffffffffffffffffffffffffffffffffffffff16145b611531576040517f08c379a0000000000000000000000000000000000000000000000000000000008152600401611528906143c8565b60405180910390fd5b600c60009054906101000a900473ffffffffffffffffffffffffffffffffffffffff1673ffffffffffffffffffffffffffffffffffffffff163373ffffffffffffffffffffffffffffffffffffffff16036115b6576001600d600084815260200190815260200160002060060160006101000a81548160ff0219169083151502179055505b6000600d600084815260200190815260200160002060060160016101000a81548160ff02191690831515021790555080600d60008481526020019081526020016000206005018190555033600d600084815260200190815260200160002060020160006101000a81548173ffffffffffffffffffffffffffffffffffffffff021916908373ffffffffffffffffffffffffffffffffffffffff16021790555030600d600084815260200190815260200160002060030160006101000a81548173ffffffffffffffffffffffffffffffffffffffff021916908373ffffffffffffffffffffffffffffffffffffffff16021790555060006116b660096124e4565b11156116c7576116c660096128bd565b5b6116d2333084612587565b5050565b60008073ffffffffffffffffffffffffffffffffffffffff168273ffffffffffffffffffffffffffffffffffffffff1603611746576040517f08c379a000000000000000000000000000000000000000000000000000000000815260040161173d9061445a565b60405180910390fd5b600360008373ffffffffffffffffffffffffffffffffffffffff1673ffffffffffffffffffffffffffffffffffffffff168152602001908152602001600020549050919050565b3073ffffffffffffffffffffffffffffffffffffffff166342842e0e3083856040518463ffffffff1660e01b81526004016117ca9392919061447a565b600060405180830381600087803b1580156117e457600080fd5b505af11580156117f8573d6000803e3d6000fd5b5050505080600d600084815260200190815260200160002060030160006101000a81548173ffffffffffffffffffffffffffffffffffffffff021916908373ffffffffffffffffffffffffffffffffffffffff1602179055507f20665ee57a5e13af162123968d777ccebe86531a21e53d08afc78138a950192d82826040516118829291906141a0565b60405180910390a15050565b60606001805461189d90613cfb565b80601f01602080910402602001604051908101604052809291908181526020018280546118c990613cfb565b80156119165780601f106118eb57610100808354040283529160200191611916565b820191906000526020600020905b8154815290600101906020018083116118f957829003601f168201915b5050505050905090565b61193261192b612423565b8383612919565b5050565b6000806000600d600085815260200190815260200160002060405180610100016040529081600082015481526020016001820160009054906101000a900473ffffffffffffffffffffffffffffffffffffffff1673ffffffffffffffffffffffffffffffffffffffff1673ffffffffffffffffffffffffffffffffffffffff1681526020016002820160009054906101000a900473ffffffffffffffffffffffffffffffffffffffff1673ffffffffffffffffffffffffffffffffffffffff1673ffffffffffffffffffffffffffffffffffffffff1681526020016003820160009054906101000a900473ffffffffffffffffffffffffffffffffffffffff1673ffffffffffffffffffffffffffffffffffffffff1673ffffffffffffffffffffffffffffffffffffffff16815260200160048201548152602001600582015481526020016006820160009054906101000a900460ff161515151581526020016006820160019054906101000a900460ff1615151515815250509050806080015181602001519250925050915091565b600b60009054906101000a900473ffffffffffffffffffffffffffffffffffffffff1673ffffffffffffffffffffffffffffffffffffffff163373ffffffffffffffffffffffffffffffffffffffff1614611b56576040517f08c379a0000000000000000000000000000000000000000000000000000000008152600401611b4d90614062565b60405180910390fd5b80600a8190555050565b611b71611b6b612423565b836124f2565b611bb0576040517f08c379a0000000000000000000000000000000000000000000000000000000008152600401611ba790613fd0565b60405180910390fd5b611bbc84848484612a85565b50505050565b6000600d6000838152602001908152602001600020600501549050803414611c1f576040517f08c379a0000000000000000000000000000000000000000000000000000000008152600401611c1690614523565b60405180910390fd5b33600d600084815260200190815260200160002060030160006101000a81548173ffffffffffffffffffffffffffffffffffffffff021916908373ffffffffffffffffffffffffffffffffffffffff1602179055506001600d600084815260200190815260200160002060060160016101000a81548160ff021916908315150217905550611cad6009612ae1565b611cb8303384612587565b600b60009054906101000a900473ffffffffffffffffffffffffffffffffffffffff1673ffffffffffffffffffffffffffffffffffffffff166108fc600a549081150290604051600060405180830381858888f19350505050158015611d22573d6000803e3d6000fd5b50600d600083815260200190815260200160002060020160009054906101000a900473ffffffffffffffffffffffffffffffffffffffff1673ffffffffffffffffffffffffffffffffffffffff166108fc349081150290604051600060405180830381858888f19350505050158015611d9f573d6000803e3d6000fd5b505050565b6000611db06008612ae1565b6000611dbc60086124e4565b9050611dc83382612af7565b611dd28186612d14565b611ddd818585610d7f565b809150509392505050565b60606000611df660086124e4565b905060008060005b83811015611e9e573373ffffffffffffffffffffffffffffffffffffffff16600d6000600184611e2e9190613eb3565b815260200190815260200160002060030160009054906101000a900473ffffffffffffffffffffffffffffffffffffffff1673ffffffffffffffffffffffffffffffffffffffff1603611e8b57600183611e889190613eb3565b92505b8080611e9690613f16565b915050611dfe565b5060008267ffffffffffffffff811115611ebb57611eba6139ce565b5b604051908082528060200260200182016040528015611ef457816020015b611ee16132b9565b815260200190600190039081611ed95790505b50905060005b84811015612145573373ffffffffffffffffffffffffffffffffffffffff16600d6000600184611f2a9190613eb3565b815260200190815260200160002060030160009054906101000a900473ffffffffffffffffffffffffffffffffffffffff1673ffffffffffffffffffffffffffffffffffffffff1603612132576000600182611f869190613eb3565b90506000600d600083815260200190815260200160002090508060405180610100016040529081600082015481526020016001820160009054906101000a900473ffffffffffffffffffffffffffffffffffffffff1673ffffffffffffffffffffffffffffffffffffffff1673ffffffffffffffffffffffffffffffffffffffff1681526020016002820160009054906101000a900473ffffffffffffffffffffffffffffffffffffffff1673ffffffffffffffffffffffffffffffffffffffff1673ffffffffffffffffffffffffffffffffffffffff1681526020016003820160009054906101000a900473ffffffffffffffffffffffffffffffffffffffff1673ffffffffffffffffffffffffffffffffffffffff1673ffffffffffffffffffffffffffffffffffffffff16815260200160048201548152602001600582015481526020016006820160009054906101000a900460ff161515151581526020016006820160019054906101000a900460ff16151515158152505084868151811061211557612114613ee7565b5b602002602001018190525060018561212d9190613eb3565b945050505b808061213d90613f16565b915050611efa565b508094505050505090565b606061215b826123d8565b600060066000848152602001908152602001600020805461217b90613cfb565b80601f01602080910402602001604051908101604052809291908181526020018280546121a790613cfb565b80156121f45780601f106121c9576101008083540402835291602001916121f4565b820191906000526020600020905b8154815290600101906020018083116121d757829003601f168201915b505050505090506000612205612db8565b9050600081510361221a57819250505061225d565b60008251111561224f57808260405160200161223792919061457f565b6040516020818303038152906040529250505061225d565b61225884612dcf565b925050505b919050565b6000600560008473ffffffffffffffffffffffffffffffffffffffff1673ffffffffffffffffffffffffffffffffffffffff16815260200190815260200160002060008373ffffffffffffffffffffffffffffffffffffffff1673ffffffffffffffffffffffffffffffffffffffff16815260200190815260200160002060009054906101000a900460ff16905092915050565b60007f80ac58cd000000000000000000000000000000000000000000000000000000007bffffffffffffffffffffffffffffffffffffffffffffffffffffffff1916827bffffffffffffffffffffffffffffffffffffffffffffffffffffffff191614806123c157507f5b5e139f000000000000000000000000000000000000000000000000000000007bffffffffffffffffffffffffffffffffffffffffffffffffffffffff1916827bffffffffffffffffffffffffffffffffffffffffffffffffffffffff1916145b806123d157506123d082612e37565b5b9050919050565b6123e181612ea1565b612420576040517f08c379a00000000000000000000000000000000000000000000000000000000081526004016124179061435c565b60405180910390fd5b50565b600033905090565b816004600083815260200190815260200160002060006101000a81548173ffffffffffffffffffffffffffffffffffffffff021916908373ffffffffffffffffffffffffffffffffffffffff160217905550808273ffffffffffffffffffffffffffffffffffffffff1661249e836113af565b73ffffffffffffffffffffffffffffffffffffffff167f8c5be1e5ebec7d5bd14f71427d1e84f3dd0314c0f7b2291e5b200ac8c7c3b92560405160405180910390a45050565b600081600001549050919050565b6000806124fe836113af565b90508073ffffffffffffffffffffffffffffffffffffffff168473ffffffffffffffffffffffffffffffffffffffff161480612540575061253f8185612262565b5b8061257e57508373ffffffffffffffffffffffffffffffffffffffff16612566846106b7565b73ffffffffffffffffffffffffffffffffffffffff16145b91505092915050565b8273ffffffffffffffffffffffffffffffffffffffff166125a7826113af565b73ffffffffffffffffffffffffffffffffffffffff16146125fd576040517f08c379a00000000000000000000000000000000000000000000000000000000081526004016125f490614615565b60405180910390fd5b600073ffffffffffffffffffffffffffffffffffffffff168273ffffffffffffffffffffffffffffffffffffffff160361266c576040517f08c379a0000000000000000000000000000000000000000000000000000000008152600401612663906146a7565b60405180910390fd5b6126798383836001612ee2565b8273ffffffffffffffffffffffffffffffffffffffff16612699826113af565b73ffffffffffffffffffffffffffffffffffffffff16146126ef576040517f08c379a00000000000000000000000000000000000000000000000000000000081526004016126e690614615565b60405180910390fd5b6004600082815260200190815260200160002060006101000a81549073ffffffffffffffffffffffffffffffffffffffff02191690556001600360008573ffffffffffffffffffffffffffffffffffffffff1673ffffffffffffffffffffffffffffffffffffffff168152602001908152602001600020600082825403925050819055506001600360008473ffffffffffffffffffffffffffffffffffffffff1673ffffffffffffffffffffffffffffffffffffffff16815260200190815260200160002060008282540192505081905550816002600083815260200190815260200160002060006101000a81548173ffffffffffffffffffffffffffffffffffffffff021916908373ffffffffffffffffffffffffffffffffffffffff160217905550808273ffffffffffffffffffffffffffffffffffffffff168473ffffffffffffffffffffffffffffffffffffffff167fddf252ad1be2c89b69c2b068fc378daa952ba7f163c4a11628f55a4df523b3ef60405160405180910390a461287b8383836001612ee8565b505050565b60006002600083815260200190815260200160002060009054906101000a900473ffffffffffffffffffffffffffffffffffffffff169050919050565b60008160000154905060008111612909576040517f08c379a000000000000000000000000000000000000000000000000000000000815260040161290090614713565b60405180910390fd5b6001810382600001819055505050565b8173ffffffffffffffffffffffffffffffffffffffff168373ffffffffffffffffffffffffffffffffffffffff1603612987576040517f08c379a000000000000000000000000000000000000000000000000000000000815260040161297e9061477f565b60405180910390fd5b80600560008573ffffffffffffffffffffffffffffffffffffffff1673ffffffffffffffffffffffffffffffffffffffff16815260200190815260200160002060008473ffffffffffffffffffffffffffffffffffffffff1673ffffffffffffffffffffffffffffffffffffffff16815260200190815260200160002060006101000a81548160ff0219169083151502179055508173ffffffffffffffffffffffffffffffffffffffff168373ffffffffffffffffffffffffffffffffffffffff167f17307eab39ab6107e8899845ad3d59bd9653f200f220920489ca2b5937696c3183604051612a7891906133f8565b60405180910390a3505050565b612a90848484612587565b612a9c84848484612eee565b612adb576040517f08c379a0000000000000000000000000000000000000000000000000000000008152600401612ad290614811565b60405180910390fd5b50505050565b6001816000016000828254019250508190555050565b600073ffffffffffffffffffffffffffffffffffffffff168273ffffffffffffffffffffffffffffffffffffffff1603612b66576040517f08c379a0000000000000000000000000000000000000000000000000000000008152600401612b5d9061487d565b60405180910390fd5b612b6f81612ea1565b15612baf576040517f08c379a0000000000000000000000000000000000000000000000000000000008152600401612ba6906148e9565b60405180910390fd5b612bbd600083836001612ee2565b612bc681612ea1565b15612c06576040517f08c379a0000000000000000000000000000000000000000000000000000000008152600401612bfd906148e9565b60405180910390fd5b6001600360008473ffffffffffffffffffffffffffffffffffffffff1673ffffffffffffffffffffffffffffffffffffffff16815260200190815260200160002060008282540192505081905550816002600083815260200190815260200160002060006101000a81548173ffffffffffffffffffffffffffffffffffffffff021916908373ffffffffffffffffffffffffffffffffffffffff160217905550808273ffffffffffffffffffffffffffffffffffffffff16600073ffffffffffffffffffffffffffffffffffffffff167fddf252ad1be2c89b69c2b068fc378daa952ba7f163c4a11628f55a4df523b3ef60405160405180910390a4612d10600083836001612ee8565b5050565b612d1d82612ea1565b612d5c576040517f08c379a0000000000000000000000000000000000000000000000000000000008152600401612d539061497b565b60405180910390fd5b80600660008481526020019081526020016000209081612d7c9190614b47565b507ff8e1a15aba9398e019f0b49df1a4fde98ee17ae345cb5f6b5e2c27f5033e8ce782604051612dac91906138c5565b60405180910390a15050565b606060405180602001604052806000815250905090565b6060612dda826123d8565b6000612de4612db8565b90506000815111612e045760405180602001604052806000815250612e2f565b80612e0e84613075565b604051602001612e1f92919061457f565b6040516020818303038152906040525b915050919050565b60007f01ffc9a7000000000000000000000000000000000000000000000000000000007bffffffffffffffffffffffffffffffffffffffffffffffffffffffff1916827bffffffffffffffffffffffffffffffffffffffffffffffffffffffff1916149050919050565b60008073ffffffffffffffffffffffffffffffffffffffff16612ec383612880565b73ffffffffffffffffffffffffffffffffffffffff1614159050919050565b50505050565b50505050565b6000612f0f8473ffffffffffffffffffffffffffffffffffffffff16613143565b15613068578373ffffffffffffffffffffffffffffffffffffffff1663150b7a02612f38612423565b8786866040518563ffffffff1660e01b8152600401612f5a9493929190614c6e565b6020604051808303816000875af1925050508015612f9657506040513d601f19601f82011682018060405250810190612f939190614ccf565b60015b613018573d8060008114612fc6576040519150601f19603f3d011682016040523d82523d6000602084013e612fcb565b606091505b506000815103613010576040517f08c379a000000000000000000000000000000000000000000000000000000000815260040161300790614811565b60405180910390fd5b805181602001fd5b63150b7a0260e01b7bffffffffffffffffffffffffffffffffffffffffffffffffffffffff1916817bffffffffffffffffffffffffffffffffffffffffffffffffffffffff19161491505061306d565b600190505b949350505050565b60606000600161308484613166565b01905060008167ffffffffffffffff8111156130a3576130a26139ce565b5b6040519080825280601f01601f1916602001820160405280156130d55781602001600182028036833780820191505090505b509050600082602001820190505b600115613138578080600190039150507f3031323334353637383961626364656600000000000000000000000000000000600a86061a8153600a858161312c5761312b614cfc565b5b049450600085036130e3575b819350505050919050565b6000808273ffffffffffffffffffffffffffffffffffffffff163b119050919050565b600080600090507a184f03e93ff9f4daa797ed6e38ed64bf6a1f01000000000000000083106131c4577a184f03e93ff9f4daa797ed6e38ed64bf6a1f01000000000000000083816131ba576131b9614cfc565b5b0492506040810190505b6d04ee2d6d415b85acef81000000008310613201576d04ee2d6d415b85acef810000000083816131f7576131f6614cfc565b5b0492506020810190505b662386f26fc10000831061323057662386f26fc10000838161322657613225614cfc565b5b0492506010810190505b6305f5e1008310613259576305f5e100838161324f5761324e614cfc565b5b0492506008810190505b612710831061327e57612710838161327457613273614cfc565b5b0492506004810190505b606483106132a1576064838161329757613296614cfc565b5b0492506002810190505b600a83106132b0576001810190505b80915050919050565b60405180610100016040528060008152602001600073ffffffffffffffffffffffffffffffffffffffff168152602001600073ffffffffffffffffffffffffffffffffffffffff168152602001600073ffffffffffffffffffffffffffffffffffffffff16815260200160008152602001600081526020016000151581526020016000151581525090565b6000604051905090565b600080fd5b600080fd5b60007fffffffff0000000000000000000000000000000000000000000000000000000082169050919050565b61338d81613358565b811461339857600080fd5b50565b6000813590506133aa81613384565b92915050565b6000602082840312156133c6576133c561334e565b5b60006133d48482850161339b565b91505092915050565b60008115159050919050565b6133f2816133dd565b82525050565b600060208201905061340d60008301846133e9565b92915050565b600081519050919050565b600082825260208201905092915050565b60005b8381101561344d578082015181840152602081019050613432565b60008484015250505050565b6000601f19601f8301169050919050565b600061347582613413565b61347f818561341e565b935061348f81856020860161342f565b61349881613459565b840191505092915050565b600060208201905081810360008301526134bd818461346a565b905092915050565b6000819050919050565b6134d8816134c5565b81146134e357600080fd5b50565b6000813590506134f5816134cf565b92915050565b6000602082840312156135115761351061334e565b5b600061351f848285016134e6565b91505092915050565b600073ffffffffffffffffffffffffffffffffffffffff82169050919050565b600061355382613528565b9050919050565b61356381613548565b82525050565b600060208201905061357e600083018461355a565b92915050565b61358d81613548565b811461359857600080fd5b50565b6000813590506135aa81613584565b92915050565b600080604083850312156135c7576135c661334e565b5b60006135d58582860161359b565b92505060206135e6858286016134e6565b9150509250929050565b600081519050919050565b600082825260208201905092915050565b6000819050602082019050919050565b613625816134c5565b82525050565b600061363682613528565b9050919050565b6136468161362b565b82525050565b613655816133dd565b82525050565b61010082016000820151613672600085018261361c565b506020820151613685602085018261363d565b506040820151613698604085018261363d565b5060608201516136ab606085018261363d565b5060808201516136be608085018261361c565b5060a08201516136d160a085018261361c565b5060c08201516136e460c085018261364c565b5060e08201516136f760e085018261364c565b50505050565b6000613709838361365b565b6101008301905092915050565b6000602082019050919050565b600061372e826135f0565b61373881856135fb565b93506137438361360c565b8060005b8381101561377457815161375b88826136fd565b975061376683613716565b925050600181019050613747565b5085935050505092915050565b6000602082019050818103600083015261379b8184613723565b905092915050565b6000602082840312156137b9576137b861334e565b5b60006137c78482850161359b565b91505092915050565b6000806000606084860312156137e9576137e861334e565b5b60006137f78682870161359b565b93505060206138088682870161359b565b9250506040613819868287016134e6565b9150509250925092565b60008060006060848603121561383c5761383b61334e565b5b600061384a868287016134e6565b935050602061385b868287016134e6565b925050604061386c868287016134e6565b9150509250925092565b6000806040838503121561388d5761388c61334e565b5b600061389b858286016134e6565b92505060206138ac858286016134e6565b9150509250929050565b6138bf816134c5565b82525050565b60006020820190506138da60008301846138b6565b92915050565b600080604083850312156138f7576138f661334e565b5b6000613905858286016134e6565b92505060206139168582860161359b565b9150509250929050565b613929816133dd565b811461393457600080fd5b50565b60008135905061394681613920565b92915050565b600080604083850312156139635761396261334e565b5b60006139718582860161359b565b925050602061398285828601613937565b9150509250929050565b6139958161362b565b82525050565b60006040820190506139b060008301856138b6565b6139bd602083018461398c565b9392505050565b600080fd5b600080fd5b7f4e487b7100000000000000000000000000000000000000000000000000000000600052604160045260246000fd5b613a0682613459565b810181811067ffffffffffffffff82111715613a2557613a246139ce565b5b80604052505050565b6000613a38613344565b9050613a4482826139fd565b919050565b600067ffffffffffffffff821115613a6457613a636139ce565b5b613a6d82613459565b9050602081019050919050565b82818337600083830152505050565b6000613a9c613a9784613a49565b613a2e565b905082815260208101848484011115613ab857613ab76139c9565b5b613ac3848285613a7a565b509392505050565b600082601f830112613ae057613adf6139c4565b5b8135613af0848260208601613a89565b91505092915050565b60008060008060808587031215613b1357613b1261334e565b5b6000613b218782880161359b565b9450506020613b328782880161359b565b9350506040613b43878288016134e6565b925050606085013567ffffffffffffffff811115613b6457613b63613353565b5b613b7087828801613acb565b91505092959194509250565b600067ffffffffffffffff821115613b9757613b966139ce565b5b613ba082613459565b9050602081019050919050565b6000613bc0613bbb84613b7c565b613a2e565b905082815260208101848484011115613bdc57613bdb6139c9565b5b613be7848285613a7a565b509392505050565b600082601f830112613c0457613c036139c4565b5b8135613c14848260208601613bad565b91505092915050565b600080600060608486031215613c3657613c3561334e565b5b600084013567ffffffffffffffff811115613c5457613c53613353565b5b613c6086828701613bef565b9350506020613c71868287016134e6565b9250506040613c82868287016134e6565b9150509250925092565b60008060408385031215613ca357613ca261334e565b5b6000613cb18582860161359b565b9250506020613cc28582860161359b565b9150509250929050565b7f4e487b7100000000000000000000000000000000000000000000000000000000600052602260045260246000fd5b60006002820490506001821680613d1357607f821691505b602082108103613d2657613d25613ccc565b5b50919050565b7f4552433732313a20617070726f76616c20746f2063757272656e74206f776e6560008201527f7200000000000000000000000000000000000000000000000000000000000000602082015250565b6000613d8860218361341e565b9150613d9382613d2c565b604082019050919050565b60006020820190508181036000830152613db781613d7b565b9050919050565b7f4552433732313a20617070726f76652063616c6c6572206973206e6f7420746f60008201527f6b656e206f776e6572206f7220617070726f76656420666f7220616c6c000000602082015250565b6000613e1a603d8361341e565b9150613e2582613dbe565b604082019050919050565b60006020820190508181036000830152613e4981613e0d565b9050919050565b7f4e487b7100000000000000000000000000000000000000000000000000000000600052601160045260246000fd5b6000613e8a826134c5565b9150613e95836134c5565b9250828203905081811115613ead57613eac613e50565b5b92915050565b6000613ebe826134c5565b9150613ec9836134c5565b9250828201905080821115613ee157613ee0613e50565b5b92915050565b7f4e487b7100000000000000000000000000000000000000000000000000000000600052603260045260246000fd5b6000613f21826134c5565b91507fffffffffffffffffffffffffffffffffffffffffffffffffffffffffffffffff8203613f5357613f52613e50565b5b600182019050919050565b7f4552433732313a2063616c6c6572206973206e6f7420746f6b656e206f776e6560008201527f72206f7220617070726f76656400000000000000000000000000000000000000602082015250565b6000613fba602d8361341e565b9150613fc582613f5e565b604082019050919050565b60006020820190508181036000830152613fe981613fad565b9050919050565b7f6f6e6c79206f776e6572206f662074686520636f6e74726163742063616e207560008201527f706461746520746865206c697374696e67207072696365000000000000000000602082015250565b600061404c60378361341e565b915061405782613ff0565b604082019050919050565b6000602082019050818103600083015261407b8161403f565b9050919050565b7f4e6f2066756e647320746f207769746864726177000000000000000000000000600082015250565b60006140b860148361341e565b91506140c382614082565b602082019050919050565b600060208201905081810360008301526140e7816140ab565b9050919050565b600081905092915050565b50565b60006141096000836140ee565b9150614114826140f9565b600082019050919050565b600061412a826140fc565b9150819050919050565b7f4661696c656420746f2077697468647261772066756e64730000000000000000600082015250565b600061416a60188361341e565b915061417582614134565b602082019050919050565b600060208201905081810360008301526141998161415d565b9050919050565b60006040820190506141b560008301856138b6565b6141c2602083018461355a565b9392505050565b7f5072696365206d757374206265206174206c6561737420312077656900000000600082015250565b60006141ff601c8361341e565b915061420a826141c9565b602082019050919050565b6000602082019050818103600083015261422e816141f2565b9050919050565b7f5072696365206d757374206265207061696420696e2066756c6c000000000000600082015250565b600061426b601a8361341e565b915061427682614235565b602082019050919050565b6000602082019050818103600083015261429a8161425e565b9050919050565b600060e0820190506142b6600083018a61355a565b6142c3602083018961355a565b6142d0604083018861355a565b6142dd60608301876138b6565b6142ea60808301866138b6565b6142f760a08301856133e9565b61430460c08301846133e9565b98975050505050505050565b7f4552433732313a20696e76616c696420746f6b656e2049440000000000000000600082015250565b600061434660188361341e565b915061435182614310565b602082019050919050565b6000602082019050818103600083015261437581614339565b9050919050565b7f4f6e6c79206f776e65722063616e2072656c697374204e465400000000000000600082015250565b60006143b260198361341e565b91506143bd8261437c565b602082019050919050565b600060208201905081810360008301526143e1816143a5565b9050919050565b7f4552433732313a2061646472657373207a65726f206973206e6f74206120766160008201527f6c6964206f776e65720000000000000000000000000000000000000000000000602082015250565b600061444460298361341e565b915061444f826143e8565b604082019050919050565b6000602082019050818103600083015261447381614437565b9050919050565b600060608201905061448f600083018661355a565b61449c602083018561355a565b6144a960408301846138b6565b949350505050565b7f506c65617365207375626d6974207468652061736b696e67207072696365206960008201527f6e206f7264657220746f20636f6d706c65746520746865207075726368617365602082015250565b600061450d60408361341e565b9150614518826144b1565b604082019050919050565b6000602082019050818103600083015261453c81614500565b9050919050565b600081905092915050565b600061455982613413565b6145638185614543565b935061457381856020860161342f565b80840191505092915050565b600061458b828561454e565b9150614597828461454e565b91508190509392505050565b7f4552433732313a207472616e736665722066726f6d20696e636f72726563742060008201527f6f776e6572000000000000000000000000000000000000000000000000000000602082015250565b60006145ff60258361341e565b915061460a826145a3565b604082019050919050565b6000602082019050818103600083015261462e816145f2565b9050919050565b7f4552433732313a207472616e7366657220746f20746865207a65726f2061646460008201527f7265737300000000000000000000000000000000000000000000000000000000602082015250565b600061469160248361341e565b915061469c82614635565b604082019050919050565b600060208201905081810360008301526146c081614684565b9050919050565b7f436f756e7465723a2064656372656d656e74206f766572666c6f770000000000600082015250565b60006146fd601b8361341e565b9150614708826146c7565b602082019050919050565b6000602082019050818103600083015261472c816146f0565b9050919050565b7f4552433732313a20617070726f766520746f2063616c6c657200000000000000600082015250565b600061476960198361341e565b915061477482614733565b602082019050919050565b600060208201905081810360008301526147988161475c565b9050919050565b7f4552433732313a207472616e7366657220746f206e6f6e20455243373231526560008201527f63656976657220696d706c656d656e7465720000000000000000000000000000602082015250565b60006147fb60328361341e565b91506148068261479f565b604082019050919050565b6000602082019050818103600083015261482a816147ee565b9050919050565b7f4552433732313a206d696e7420746f20746865207a65726f2061646472657373600082015250565b600061486760208361341e565b915061487282614831565b602082019050919050565b600060208201905081810360008301526148968161485a565b9050919050565b7f4552433732313a20746f6b656e20616c7265616479206d696e74656400000000600082015250565b60006148d3601c8361341e565b91506148de8261489d565b602082019050919050565b60006020820190508181036000830152614902816148c6565b9050919050565b7f45524337323155524953746f726167653a2055524920736574206f66206e6f6e60008201527f6578697374656e7420746f6b656e000000000000000000000000000000000000602082015250565b6000614965602e8361341e565b915061497082614909565b604082019050919050565b6000602082019050818103600083015261499481614958565b9050919050565b60008190508160005260206000209050919050565b60006020601f8301049050919050565b600082821b905092915050565b6000600883026149fd7fffffffffffffffffffffffffffffffffffffffffffffffffffffffffffffffff826149c0565b614a0786836149c0565b95508019841693508086168417925050509392505050565b6000819050919050565b6000614a44614a3f614a3a846134c5565b614a1f565b6134c5565b9050919050565b6000819050919050565b614a5e83614a29565b614a72614a6a82614a4b565b8484546149cd565b825550505050565b600090565b614a87614a7a565b614a92818484614a55565b505050565b5b81811015614ab657614aab600082614a7f565b600181019050614a98565b5050565b601f821115614afb57614acc8161499b565b614ad5846149b0565b81016020851015614ae4578190505b614af8614af0856149b0565b830182614a97565b50505b505050565b600082821c905092915050565b6000614b1e60001984600802614b00565b1980831691505092915050565b6000614b378383614b0d565b9150826002028217905092915050565b614b5082613413565b67ffffffffffffffff811115614b6957614b686139ce565b5b614b738254613cfb565b614b7e828285614aba565b600060209050601f831160018114614bb15760008415614b9f578287015190505b614ba98582614b2b565b865550614c11565b601f198416614bbf8661499b565b60005b82811015614be757848901518255600182019150602085019450602081019050614bc2565b86831015614c045784890151614c00601f891682614b0d565b8355505b6001600288020188555050505b505050505050565b600081519050919050565b600082825260208201905092915050565b6000614c4082614c19565b614c4a8185614c24565b9350614c5a81856020860161342f565b614c6381613459565b840191505092915050565b6000608082019050614c83600083018761355a565b614c90602083018661355a565b614c9d60408301856138b6565b8181036060830152614caf8184614c35565b905095945050505050565b600081519050614cc981613384565b92915050565b600060208284031215614ce557614ce461334e565b5b6000614cf384828501614cba565b91505092915050565b7f4e487b7100000000000000000000000000000000000000000000000000000000600052601260045260246000fdfea264697066735822122025ac3df672625916cce74d6e4c26e2381c2d1a3e5f64d0e8af17bbcd1852ceec64736f6c63430008130033",
  "linkReferences": {},
  "deployedLinkReferences": {}
}