{
  "_format": "hh-sol-artifact-1",
  "contractName": "Marketplace",
  "sourceName": "contracts/Marketplace.sol",
  "abi": [
    {
      "inputs": [],
      "stateMutability": "nonpayable",
      "type": "constructor"
    },
    {
      "anonymous": false,
      "inputs": [
        {
          "indexed": true,
          "internalType": "address",
          "name": "owner",
          "type": "address"
        },
        {
          "indexed": true,
          "internalType": "address",
          "name": "approved",
          "type": "address"
        },
        {
          "indexed": true,
          "internalType": "uint256",
          "name": "tokenId",
          "type": "uint256"
        }
      ],
      "name": "Approval",
      "type": "event"
    },
    {
      "anonymous": false,
      "inputs": [
        {
          "indexed": true,
          "internalType": "address",
          "name": "owner",
          "type": "address"
        },
        {
          "indexed": true,
          "internalType": "address",
          "name": "operator",
          "type": "address"
        },
        {
          "indexed": false,
          "internalType": "bool",
          "name": "approved",
          "type": "bool"
        }
      ],
      "name": "ApprovalForAll",
      "type": "event"
    },
    {
      "anonymous": false,
      "inputs": [
        {
          "indexed": false,
          "internalType": "uint256",
          "name": "_fromTokenId",
          "type": "uint256"
        },
        {
          "indexed": false,
          "internalType": "uint256",
          "name": "_toTokenId",
          "type": "uint256"
        }
      ],
      "name": "BatchMetadataUpdate",
      "type": "event"
    },
    {
      "anonymous": false,
      "inputs": [
        {
          "indexed": false,
          "internalType": "uint256",
          "name": "amount",
          "type": "uint256"
        },
        {
          "indexed": false,
          "internalType": "address",
          "name": "targetWallet",
          "type": "address"
        }
      ],
      "name": "FundsWithdrawn",
      "type": "event"
    },
    {
      "anonymous": false,
      "inputs": [
        {
          "indexed": true,
          "internalType": "uint256",
          "name": "tokenId",
          "type": "uint256"
        },
        {
          "indexed": false,
          "internalType": "address",
          "name": "originalOwner",
          "type": "address"
        },
        {
          "indexed": false,
          "internalType": "address",
          "name": "seller",
          "type": "address"
        },
        {
          "indexed": false,
          "internalType": "address",
          "name": "owner",
          "type": "address"
        },
        {
          "indexed": false,
          "internalType": "uint256",
          "name": "royaltyPercentage",
          "type": "uint256"
        },
        {
          "indexed": false,
          "internalType": "uint256",
          "name": "price",
          "type": "uint256"
        },
        {
          "indexed": false,
          "internalType": "bool",
          "name": "auction",
          "type": "bool"
        },
        {
          "indexed": false,
          "internalType": "bool",
          "name": "sold",
          "type": "bool"
        }
      ],
      "name": "MarketItemCreated",
      "type": "event"
    },
    {
      "anonymous": false,
      "inputs": [
        {
          "indexed": false,
          "internalType": "uint256",
          "name": "_tokenId",
          "type": "uint256"
        }
      ],
      "name": "MetadataUpdate",
      "type": "event"
    },
    {
      "anonymous": false,
      "inputs": [
        {
          "indexed": false,
          "internalType": "uint256",
          "name": "nftId",
          "type": "uint256"
        },
        {
          "indexed": false,
          "internalType": "address",
          "name": "auctionWinner",
          "type": "address"
        }
      ],
      "name": "NFTTransferred",
      "type": "event"
    },
    {
      "anonymous": false,
      "inputs": [
        {
          "indexed": true,
          "internalType": "address",
          "name": "from",
          "type": "address"
        },
        {
          "indexed": true,
          "internalType": "address",
          "name": "to",
          "type": "address"
        },
        {
          "indexed": true,
          "internalType": "uint256",
          "name": "tokenId",
          "type": "uint256"
        }
      ],
      "name": "Transfer",
      "type": "event"
    },
    {
      "inputs": [
        {
          "internalType": "address",
          "name": "to",
          "type": "address"
        },
        {
          "internalType": "uint256",
          "name": "tokenId",
          "type": "uint256"
        }
      ],
      "name": "approve",
      "outputs": [],
      "stateMutability": "nonpayable",
      "type": "function"
    },
    {
      "inputs": [
        {
          "internalType": "address",
          "name": "owner",
          "type": "address"
        }
      ],
      "name": "balanceOf",
      "outputs": [
        {
          "internalType": "uint256",
          "name": "",
          "type": "uint256"
        }
      ],
      "stateMutability": "view",
      "type": "function"
    },
    {
      "inputs": [
        {
          "internalType": "uint256",
          "name": "tokenId",
          "type": "uint256"
        },
        {
          "internalType": "uint256",
          "name": "royaltyPercentage",
          "type": "uint256"
        },
        {
          "internalType": "uint256",
          "name": "price",
          "type": "uint256"
        }
      ],
      "name": "createMarketItem",
      "outputs": [],
      "stateMutability": "payable",
      "type": "function"
    },
    {
      "inputs": [
        {
          "internalType": "uint256",
          "name": "tokenId",
          "type": "uint256"
        }
      ],
      "name": "createMarketSale",
      "outputs": [],
      "stateMutability": "payable",
      "type": "function"
    },
    {
      "inputs": [
        {
          "internalType": "string",
          "name": "tokenURI",
          "type": "string"
        },
        {
          "internalType": "uint256",
          "name": "royaltyPercentage",
          "type": "uint256"
        },
        {
          "internalType": "uint256",
          "name": "price",
          "type": "uint256"
        }
      ],
      "name": "createToken",
      "outputs": [
        {
          "internalType": "uint256",
          "name": "",
          "type": "uint256"
        }
      ],
      "stateMutability": "payable",
      "type": "function"
    },
    {
      "inputs": [],
      "name": "fetchItemsListed",
      "outputs": [
        {
          "components": [
            {
              "internalType": "uint256",
              "name": "tokenId",
              "type": "uint256"
            },
            {
              "internalType": "address payable",
              "name": "originalOwner",
              "type": "address"
            },
            {
              "internalType": "address payable",
              "name": "seller",
              "type": "address"
            },
            {
              "internalType": "address payable",
              "name": "owner",
              "type": "address"
            },
            {
              "internalType": "uint256",
              "name": "royaltyPercentage",
              "type": "uint256"
            },
            {
              "internalType": "uint256",
              "name": "price",
              "type": "uint256"
            },
            {
              "internalType": "bool",
              "name": "auction",
              "type": "bool"
            },
            {
              "internalType": "bool",
              "name": "sold",
              "type": "bool"
            }
          ],
          "internalType": "struct Marketplace.MarketItem[]",
          "name": "",
          "type": "tuple[]"
        }
      ],
      "stateMutability": "view",
      "type": "function"
    },
    {
      "inputs": [],
      "name": "fetchMarketItems",
      "outputs": [
        {
          "components": [
            {
              "internalType": "uint256",
              "name": "tokenId",
              "type": "uint256"
            },
            {
              "internalType": "address payable",
              "name": "originalOwner",
              "type": "address"
            },
            {
              "internalType": "address payable",
              "name": "seller",
              "type": "address"
            },
            {
              "internalType": "address payable",
              "name": "owner",
              "type": "address"
            },
            {
              "internalType": "uint256",
              "name": "royaltyPercentage",
              "type": "uint256"
            },
            {
              "internalType": "uint256",
              "name": "price",
              "type": "uint256"
            },
            {
              "internalType": "bool",
              "name": "auction",
              "type": "bool"
            },
            {
              "internalType": "bool",
              "name": "sold",
              "type": "bool"
            }
          ],
          "internalType": "struct Marketplace.MarketItem[]",
          "name": "",
          "type": "tuple[]"
        }
      ],
      "stateMutability": "view",
      "type": "function"
    },
    {
      "inputs": [],
      "name": "fetchMyNFT",
      "outputs": [
        {
          "components": [
            {
              "internalType": "uint256",
              "name": "tokenId",
              "type": "uint256"
            },
            {
              "internalType": "address payable",
              "name": "originalOwner",
              "type": "address"
            },
            {
              "internalType": "address payable",
              "name": "seller",
              "type": "address"
            },
            {
              "internalType": "address payable",
              "name": "owner",
              "type": "address"
            },
            {
              "internalType": "uint256",
              "name": "royaltyPercentage",
              "type": "uint256"
            },
            {
              "internalType": "uint256",
              "name": "price",
              "type": "uint256"
            },
            {
              "internalType": "bool",
              "name": "auction",
              "type": "bool"
            },
            {
              "internalType": "bool",
              "name": "sold",
              "type": "bool"
            }
          ],
          "internalType": "struct Marketplace.MarketItem[]",
          "name": "",
          "type": "tuple[]"
        }
      ],
      "stateMutability": "view",
      "type": "function"
    },
    {
      "inputs": [
        {
          "internalType": "uint256",
          "name": "tokenId",
          "type": "uint256"
        }
      ],
      "name": "getApproved",
      "outputs": [
        {
          "internalType": "address",
          "name": "",
          "type": "address"
        }
      ],
      "stateMutability": "view",
      "type": "function"
    },
    {
      "inputs": [
        {
          "internalType": "uint256",
          "name": "tokenId",
          "type": "uint256"
        }
      ],
      "name": "getRoyaltyData",
      "outputs": [
        {
          "internalType": "uint256",
          "name": "",
          "type": "uint256"
        },
        {
          "internalType": "address payable",
          "name": "",
          "type": "address"
        }
      ],
      "stateMutability": "view",
      "type": "function"
    },
    {
      "inputs": [
        {
          "internalType": "uint256",
          "name": "tokenId",
          "type": "uint256"
        },
        {
          "internalType": "address",
          "name": "winner",
          "type": "address"
        }
      ],
      "name": "handleAuctionEnd",
      "outputs": [],
      "stateMutability": "nonpayable",
      "type": "function"
    },
    {
      "inputs": [
        {
          "internalType": "address",
          "name": "owner",
          "type": "address"
        },
        {
          "internalType": "address",
          "name": "operator",
          "type": "address"
        }
      ],
      "name": "isApprovedForAll",
      "outputs": [
        {
          "internalType": "bool",
          "name": "",
          "type": "bool"
        }
      ],
      "stateMutability": "view",
      "type": "function"
    },
    {
      "inputs": [],
      "name": "name",
      "outputs": [
        {
          "internalType": "string",
          "name": "",
          "type": "string"
        }
      ],
      "stateMutability": "view",
      "type": "function"
    },
    {
      "inputs": [
        {
          "internalType": "uint256",
          "name": "tokenId",
          "type": "uint256"
        }
      ],
      "name": "ownerOf",
      "outputs": [
        {
          "internalType": "address",
          "name": "",
          "type": "address"
        }
      ],
      "stateMutability": "view",
      "type": "function"
    },
    {
      "inputs": [
        {
          "internalType": "uint256",
          "name": "tokenId",
          "type": "uint256"
        },
        {
          "internalType": "uint256",
          "name": "price",
          "type": "uint256"
        }
      ],
      "name": "resellMarketItem",
      "outputs": [],
      "stateMutability": "payable",
      "type": "function"
    },
    {
      "inputs": [
        {
          "internalType": "address",
          "name": "from",
          "type": "address"
        },
        {
          "internalType": "address",
          "name": "to",
          "type": "address"
        },
        {
          "internalType": "uint256",
          "name": "tokenId",
          "type": "uint256"
        }
      ],
      "name": "safeTransferFrom",
      "outputs": [],
      "stateMutability": "nonpayable",
      "type": "function"
    },
    {
      "inputs": [
        {
          "internalType": "address",
          "name": "from",
          "type": "address"
        },
        {
          "internalType": "address",
          "name": "to",
          "type": "address"
        },
        {
          "internalType": "uint256",
          "name": "tokenId",
          "type": "uint256"
        },
        {
          "internalType": "bytes",
          "name": "data",
          "type": "bytes"
        }
      ],
      "name": "safeTransferFrom",
      "outputs": [],
      "stateMutability": "nonpayable",
      "type": "function"
    },
    {
      "inputs": [
        {
          "internalType": "address",
          "name": "operator",
          "type": "address"
        },
        {
          "internalType": "bool",
          "name": "approved",
          "type": "bool"
        }
      ],
      "name": "setApprovalForAll",
      "outputs": [],
      "stateMutability": "nonpayable",
      "type": "function"
    },
    {
      "inputs": [
        {
          "internalType": "address",
          "name": "auctionFactoryAddress",
          "type": "address"
        }
      ],
      "name": "setAuctionFactoryAddress",
      "outputs": [],
      "stateMutability": "nonpayable",
      "type": "function"
    },
    {
      "inputs": [
        {
          "internalType": "bytes4",
          "name": "interfaceId",
          "type": "bytes4"
        }
      ],
      "name": "supportsInterface",
      "outputs": [
        {
          "internalType": "bool",
          "name": "",
          "type": "bool"
        }
      ],
      "stateMutability": "view",
      "type": "function"
    },
    {
      "inputs": [],
      "name": "symbol",
      "outputs": [
        {
          "internalType": "string",
          "name": "",
          "type": "string"
        }
      ],
      "stateMutability": "view",
      "type": "function"
    },
    {
      "inputs": [
        {
          "internalType": "uint256",
          "name": "tokenId",
          "type": "uint256"
        }
      ],
      "name": "tokenURI",
      "outputs": [
        {
          "internalType": "string",
          "name": "",
          "type": "string"
        }
      ],
      "stateMutability": "view",
      "type": "function"
    },
    {
      "inputs": [
        {
          "internalType": "address",
          "name": "from",
          "type": "address"
        },
        {
          "internalType": "address",
          "name": "to",
          "type": "address"
        },
        {
          "internalType": "uint256",
          "name": "tokenId",
          "type": "uint256"
        }
      ],
      "name": "transferFrom",
      "outputs": [],
      "stateMutability": "nonpayable",
      "type": "function"
    },
    {
      "inputs": [
        {
          "internalType": "uint256",
          "name": "_listingPrice",
          "type": "uint256"
        }
      ],
      "name": "updateListingPrice",
      "outputs": [],
      "stateMutability": "payable",
      "type": "function"
    },
    {
      "inputs": [
        {
          "internalType": "uint256",
          "name": "tokenId",
          "type": "uint256"
        },
        {
          "internalType": "uint256",
          "name": "price",
          "type": "uint256"
        }
      ],
      "name": "updateNFTPrice",
      "outputs": [],
      "stateMutability": "nonpayable",
      "type": "function"
    },
    {
      "inputs": [],
      "name": "withdrawFunds",
      "outputs": [],
      "stateMutability": "nonpayable",
      "type": "function"
    }
  ],
  "bytecode": "0x60806040526608e1bc9bf04000600a553480156200001c57600080fd5b506040518060400160405280601381526020017f4e4654204d657461766572736520546f6b656e000000000000000000000000008152506040518060400160405280600581526020017f4d594e465400000000000000000000000000000000000000000000000000000081525081600090816200009a919062000378565b508060019081620000ac919062000378565b505050600160078190555033600b60006101000a81548173ffffffffffffffffffffffffffffffffffffffff021916908373ffffffffffffffffffffffffffffffffffffffff1602179055506200045f565b600081519050919050565b7f4e487b7100000000000000000000000000000000000000000000000000000000600052604160045260246000fd5b7f4e487b7100000000000000000000000000000000000000000000000000000000600052602260045260246000fd5b600060028204905060018216806200018057607f821691505b60208210810362000196576200019562000138565b5b50919050565b60008190508160005260206000209050919050565b60006020601f8301049050919050565b600082821b905092915050565b600060088302620002007fffffffffffffffffffffffffffffffffffffffffffffffffffffffffffffffff82620001c1565b6200020c8683620001c1565b95508019841693508086168417925050509392505050565b6000819050919050565b6000819050919050565b600062000259620002536200024d8462000224565b6200022e565b62000224565b9050919050565b6000819050919050565b620002758362000238565b6200028d620002848262000260565b848454620001ce565b825550505050565b600090565b620002a462000295565b620002b18184846200026a565b505050565b5b81811015620002d957620002cd6000826200029a565b600181019050620002b7565b5050565b601f8211156200032857620002f2816200019c565b620002fd84620001b1565b810160208510156200030d578190505b620003256200031c85620001b1565b830182620002b6565b50505b505050565b600082821c905092915050565b60006200034d600019846008026200032d565b1980831691505092915050565b60006200036883836200033a565b9150826002028217905092915050565b6200038382620000fe565b67ffffffffffffffff8111156200039f576200039e62000109565b5b620003ab825462000167565b620003b8828285620002dd565b600060209050601f831160018114620003f05760008415620003db578287015190505b620003e785826200035a565b86555062000457565b601f19841662000400866200019c565b60005b828110156200042a5784890151825560018201915060208501945060208101905062000403565b868310156200044a578489015162000446601f8916826200033a565b8355505b6001600288020188555050505b505050505050565b61536c806200046f6000396000f3fe6080604052600436106101815760003560e01c80636b52d832116100d1578063ae677aa31161008a578063bec2a7c511610064578063bec2a7c514610533578063c18763f714610563578063c87b56dd1461058e578063e985e9c5146105cb57610181565b8063ae677aa3146104d2578063b88d4fde146104ee578063be9af5361461051757610181565b80636b52d832146103be57806370a08231146103da5780638f329b311461041757806395d89b4114610440578063a22cb4651461046b578063a65ff74c1461049457610181565b806323b872dd1161013e57806342842e0e1161011857806342842e0e1461030457806345f8fa801461032d5780634ac0123d146103585780636352211e1461038157610181565b806323b872dd146102a857806324600fc3146102d1578063320343da146102e857610181565b806301ffc9a71461018657806306fdde03146101c3578063081812fc146101ee578063095ea7b31461022b5780630f08efe0146102545780631cb881331461027f575b600080fd5b34801561019257600080fd5b506101ad60048036038101906101a8919061379e565b610608565b6040516101ba91906137e6565b60405180910390f35b3480156101cf57600080fd5b506101d8610669565b6040516101e59190613891565b60405180910390f35b3480156101fa57600080fd5b50610215600480360381019061021091906138e9565b6106fb565b6040516102229190613957565b60405180910390f35b34801561023757600080fd5b50610252600480360381019061024d919061399e565b610741565b005b34801561026057600080fd5b50610269610858565b6040516102769190613b6f565b60405180910390f35b34801561028b57600080fd5b506102a660048036038101906102a19190613b91565b610b3c565b005b3480156102b457600080fd5b506102cf60048036038101906102ca9190613bbe565b610b80565b005b3480156102dd57600080fd5b506102e6610be0565b005b61030260048036038101906102fd9190613c11565b610dc3565b005b34801561031057600080fd5b5061032b60048036038101906103269190613bbe565b61108d565b005b34801561033957600080fd5b506103426110ad565b60405161034f9190613b6f565b60405180910390f35b34801561036457600080fd5b5061037f600480360381019061037a9190613c64565b611415565b005b34801561038d57600080fd5b506103a860048036038101906103a391906138e9565b611615565b6040516103b59190613957565b60405180910390f35b6103d860048036038101906103d39190613c64565b61169b565b005b3480156103e657600080fd5b5061040160048036038101906103fc9190613b91565b61193c565b60405161040e9190613cb3565b60405180910390f35b34801561042357600080fd5b5061043e60048036038101906104399190613cce565b6119f3565b005b34801561044c57600080fd5b50610455611af4565b6040516104629190613891565b60405180910390f35b34801561047757600080fd5b50610492600480360381019061048d9190613d3a565b611b86565b005b3480156104a057600080fd5b506104bb60048036038101906104b691906138e9565b611b9c565b6040516104c9929190613d89565b60405180910390f35b6104ec60048036038101906104e791906138e9565b611d2c565b005b3480156104fa57600080fd5b5061051560048036038101906105109190613ee7565b611dc6565b005b610531600480360381019061052c91906138e9565b611e28565b005b61054d6004803603810190610548919061400b565b61200a565b60405161055a9190613cb3565b60405180910390f35b34801561056f57600080fd5b5061057861204e565b6040516105859190613b6f565b60405180910390f35b34801561059a57600080fd5b506105b560048036038101906105b091906138e9565b6123b6565b6040516105c29190613891565b60405180910390f35b3480156105d757600080fd5b506105f260048036038101906105ed919061407a565b6124c8565b6040516105ff91906137e6565b60405180910390f35b6000634906490660e01b7bffffffffffffffffffffffffffffffffffffffffffffffffffffffff1916827bffffffffffffffffffffffffffffffffffffffffffffffffffffffff1916148061066257506106618261255c565b5b9050919050565b606060008054610678906140e9565b80601f01602080910402602001604051908101604052809291908181526020018280546106a4906140e9565b80156106f15780601f106106c6576101008083540402835291602001916106f1565b820191906000526020600020905b8154815290600101906020018083116106d457829003601f168201915b5050505050905090565b60006107068261263e565b6004600083815260200190815260200160002060009054906101000a900473ffffffffffffffffffffffffffffffffffffffff169050919050565b600061074c82611615565b90508073ffffffffffffffffffffffffffffffffffffffff168373ffffffffffffffffffffffffffffffffffffffff16036107bc576040517f08c379a00000000000000000000000000000000000000000000000000000000081526004016107b39061418c565b60405180910390fd5b8073ffffffffffffffffffffffffffffffffffffffff166107db612689565b73ffffffffffffffffffffffffffffffffffffffff16148061080a575061080981610804612689565b6124c8565b5b610849576040517f08c379a00000000000000000000000000000000000000000000000000000000081526004016108409061421e565b60405180910390fd5b6108538383612691565b505050565b60606000610866600861274a565b90506000610874600961274a565b61087e600861274a565b610888919061426d565b90506000808267ffffffffffffffff8111156108a7576108a6613dbc565b5b6040519080825280602002602001820160405280156108e057816020015b6108cd61369d565b8152602001906001900390816108c55790505b50905060005b84811015610b31573073ffffffffffffffffffffffffffffffffffffffff16600d600060018461091691906142a1565b815260200190815260200160002060030160009054906101000a900473ffffffffffffffffffffffffffffffffffffffff1673ffffffffffffffffffffffffffffffffffffffff1603610b1e57600060018261097291906142a1565b90506000600d600083815260200190815260200160002090508060405180610100016040529081600082015481526020016001820160009054906101000a900473ffffffffffffffffffffffffffffffffffffffff1673ffffffffffffffffffffffffffffffffffffffff1673ffffffffffffffffffffffffffffffffffffffff1681526020016002820160009054906101000a900473ffffffffffffffffffffffffffffffffffffffff1673ffffffffffffffffffffffffffffffffffffffff1673ffffffffffffffffffffffffffffffffffffffff1681526020016003820160009054906101000a900473ffffffffffffffffffffffffffffffffffffffff1673ffffffffffffffffffffffffffffffffffffffff1673ffffffffffffffffffffffffffffffffffffffff16815260200160048201548152602001600582015481526020016006820160009054906101000a900460ff161515151581526020016006820160019054906101000a900460ff161515151581525050848681518110610b0157610b006142d5565b5b6020026020010181905250600185610b1991906142a1565b945050505b8080610b2990614304565b9150506108e6565b508094505050505090565b80600c60006101000a81548173ffffffffffffffffffffffffffffffffffffffff021916908373ffffffffffffffffffffffffffffffffffffffff16021790555050565b610b91610b8b612689565b82612758565b610bd0576040517f08c379a0000000000000000000000000000000000000000000000000000000008152600401610bc7906143be565b60405180910390fd5b610bdb8383836127ed565b505050565b600b60009054906101000a900473ffffffffffffffffffffffffffffffffffffffff1673ffffffffffffffffffffffffffffffffffffffff163373ffffffffffffffffffffffffffffffffffffffff1614610c70576040517f08c379a0000000000000000000000000000000000000000000000000000000008152600401610c6790614450565b60405180910390fd5b600047905060008111610cb8576040517f08c379a0000000000000000000000000000000000000000000000000000000008152600401610caf906144bc565b60405180910390fd5b6000600b60009054906101000a900473ffffffffffffffffffffffffffffffffffffffff1673ffffffffffffffffffffffffffffffffffffffff1682604051610d009061450d565b60006040518083038185875af1925050503d8060008114610d3d576040519150601f19603f3d011682016040523d82523d6000602084013e610d42565b606091505b5050905080610d86576040517f08c379a0000000000000000000000000000000000000000000000000000000008152600401610d7d9061456e565b60405180910390fd5b7f6141b54b56b8a52a8c6f5cd2a857f6117b18ffbf4d46bd3106f300a839cbf5ea8233604051610db792919061458e565b60405180910390a15050565b610de56040518060600160405280602481526020016153136024913933612ae6565b60008111610e28576040517f08c379a0000000000000000000000000000000000000000000000000000000008152600401610e1f90614603565b60405180910390fd5b600a543414610e6c576040517f08c379a0000000000000000000000000000000000000000000000000000000008152600401610e639061466f565b60405180910390fd5b6040518061010001604052808481526020013373ffffffffffffffffffffffffffffffffffffffff1681526020013373ffffffffffffffffffffffffffffffffffffffff1681526020013073ffffffffffffffffffffffffffffffffffffffff16815260200183815260200182815260200160001515815260200160001515815250600d60008581526020019081526020016000206000820151816000015560208201518160010160006101000a81548173ffffffffffffffffffffffffffffffffffffffff021916908373ffffffffffffffffffffffffffffffffffffffff16021790555060408201518160020160006101000a81548173ffffffffffffffffffffffffffffffffffffffff021916908373ffffffffffffffffffffffffffffffffffffffff16021790555060608201518160030160006101000a81548173ffffffffffffffffffffffffffffffffffffffff021916908373ffffffffffffffffffffffffffffffffffffffff1602179055506080820151816004015560a0820151816005015560c08201518160060160006101000a81548160ff02191690831515021790555060e08201518160060160016101000a81548160ff0219169083151502179055509050506110423330856127ed565b827f6be207084465b1afd1fb9af05976e6d285e34a16bc67aaa8e62ebbbf7c406aac333360008686600080604051611080979695949392919061468f565b60405180910390a2505050565b6110a883838360405180602001604052806000815250611dc6565b505050565b606060006110bb600861274a565b905060008060005b83811015611163573373ffffffffffffffffffffffffffffffffffffffff16600d60006001846110f391906142a1565b815260200190815260200160002060020160009054906101000a900473ffffffffffffffffffffffffffffffffffffffff1673ffffffffffffffffffffffffffffffffffffffff16036111505760018361114d91906142a1565b92505b808061115b90614304565b9150506110c3565b5060008267ffffffffffffffff8111156111805761117f613dbc565b5b6040519080825280602002602001820160405280156111b957816020015b6111a661369d565b81526020019060019003908161119e5790505b50905060005b8481101561140a573373ffffffffffffffffffffffffffffffffffffffff16600d60006001846111ef91906142a1565b815260200190815260200160002060020160009054906101000a900473ffffffffffffffffffffffffffffffffffffffff1673ffffffffffffffffffffffffffffffffffffffff16036113f757600060018261124b91906142a1565b90506000600d600083815260200190815260200160002090508060405180610100016040529081600082015481526020016001820160009054906101000a900473ffffffffffffffffffffffffffffffffffffffff1673ffffffffffffffffffffffffffffffffffffffff1673ffffffffffffffffffffffffffffffffffffffff1681526020016002820160009054906101000a900473ffffffffffffffffffffffffffffffffffffffff1673ffffffffffffffffffffffffffffffffffffffff1673ffffffffffffffffffffffffffffffffffffffff1681526020016003820160009054906101000a900473ffffffffffffffffffffffffffffffffffffffff1673ffffffffffffffffffffffffffffffffffffffff1673ffffffffffffffffffffffffffffffffffffffff16815260200160048201548152602001600582015481526020016006820160009054906101000a900460ff161515151581526020016006820160019054906101000a900460ff1615151515815250508486815181106113da576113d96142d5565b5b60200260200101819052506001856113f291906142a1565b945050505b808061140290614304565b9150506111bf565b508094505050505090565b600073ffffffffffffffffffffffffffffffffffffffff16600d600084815260200190815260200160002060030160009054906101000a900473ffffffffffffffffffffffffffffffffffffffff1673ffffffffffffffffffffffffffffffffffffffff16036114ba576040517f08c379a00000000000000000000000000000000000000000000000000000000081526004016114b190614770565b60405180910390fd5b3373ffffffffffffffffffffffffffffffffffffffff16600d600084815260200190815260200160002060020160009054906101000a900473ffffffffffffffffffffffffffffffffffffffff1673ffffffffffffffffffffffffffffffffffffffff161461155e576040517f08c379a0000000000000000000000000000000000000000000000000000000008152600401611555906147dc565b60405180910390fd5b600081116115a1576040517f08c379a000000000000000000000000000000000000000000000000000000000815260040161159890614848565b60405180910390fd5b80600d6000848152602001908152602001600020600501819055506116116040518060400160405280601581526020017f55706461746564206d61726b6574206974656d3a200000000000000000000000815250600d600085815260200190815260200160002060050154612b82565b5050565b60008061162183612c1e565b9050600073ffffffffffffffffffffffffffffffffffffffff168173ffffffffffffffffffffffffffffffffffffffff1603611692576040517f08c379a0000000000000000000000000000000000000000000000000000000008152600401611689906148b4565b60405180910390fd5b80915050919050565b3373ffffffffffffffffffffffffffffffffffffffff16600d600084815260200190815260200160002060030160009054906101000a900473ffffffffffffffffffffffffffffffffffffffff1673ffffffffffffffffffffffffffffffffffffffff1614806117585750600c60009054906101000a900473ffffffffffffffffffffffffffffffffffffffff1673ffffffffffffffffffffffffffffffffffffffff163373ffffffffffffffffffffffffffffffffffffffff16145b611797576040517f08c379a000000000000000000000000000000000000000000000000000000000815260040161178e90614920565b60405180910390fd5b600c60009054906101000a900473ffffffffffffffffffffffffffffffffffffffff1673ffffffffffffffffffffffffffffffffffffffff163373ffffffffffffffffffffffffffffffffffffffff160361181c576001600d600084815260200190815260200160002060060160006101000a81548160ff0219169083151502179055505b6000600d600084815260200190815260200160002060060160016101000a81548160ff02191690831515021790555080600d60008481526020019081526020016000206005018190555033600d600084815260200190815260200160002060020160006101000a81548173ffffffffffffffffffffffffffffffffffffffff021916908373ffffffffffffffffffffffffffffffffffffffff16021790555030600d600084815260200190815260200160002060030160006101000a81548173ffffffffffffffffffffffffffffffffffffffff021916908373ffffffffffffffffffffffffffffffffffffffff160217905550600061191c600961274a565b111561192d5761192c6009612c5b565b5b6119383330846127ed565b5050565b60008073ffffffffffffffffffffffffffffffffffffffff168273ffffffffffffffffffffffffffffffffffffffff16036119ac576040517f08c379a00000000000000000000000000000000000000000000000000000000081526004016119a3906149b2565b60405180910390fd5b600360008373ffffffffffffffffffffffffffffffffffffffff1673ffffffffffffffffffffffffffffffffffffffff168152602001908152602001600020549050919050565b3073ffffffffffffffffffffffffffffffffffffffff166342842e0e3083856040518463ffffffff1660e01b8152600401611a30939291906149d2565b600060405180830381600087803b158015611a4a57600080fd5b505af1158015611a5e573d6000803e3d6000fd5b5050505080600d600084815260200190815260200160002060030160006101000a81548173ffffffffffffffffffffffffffffffffffffffff021916908373ffffffffffffffffffffffffffffffffffffffff1602179055507f20665ee57a5e13af162123968d777ccebe86531a21e53d08afc78138a950192d8282604051611ae892919061458e565b60405180910390a15050565b606060018054611b03906140e9565b80601f0160208091040260200160405190810160405280929190818152602001828054611b2f906140e9565b8015611b7c5780601f10611b5157610100808354040283529160200191611b7c565b820191906000526020600020905b815481529060010190602001808311611b5f57829003601f168201915b5050505050905090565b611b98611b91612689565b8383612cb7565b5050565b6000806000600d600085815260200190815260200160002060405180610100016040529081600082015481526020016001820160009054906101000a900473ffffffffffffffffffffffffffffffffffffffff1673ffffffffffffffffffffffffffffffffffffffff1673ffffffffffffffffffffffffffffffffffffffff1681526020016002820160009054906101000a900473ffffffffffffffffffffffffffffffffffffffff1673ffffffffffffffffffffffffffffffffffffffff1673ffffffffffffffffffffffffffffffffffffffff1681526020016003820160009054906101000a900473ffffffffffffffffffffffffffffffffffffffff1673ffffffffffffffffffffffffffffffffffffffff1673ffffffffffffffffffffffffffffffffffffffff16815260200160048201548152602001600582015481526020016006820160009054906101000a900460ff161515151581526020016006820160019054906101000a900460ff1615151515815250509050806080015181602001519250925050915091565b600b60009054906101000a900473ffffffffffffffffffffffffffffffffffffffff1673ffffffffffffffffffffffffffffffffffffffff163373ffffffffffffffffffffffffffffffffffffffff1614611dbc576040517f08c379a0000000000000000000000000000000000000000000000000000000008152600401611db390614450565b60405180910390fd5b80600a8190555050565b611dd7611dd1612689565b83612758565b611e16576040517f08c379a0000000000000000000000000000000000000000000000000000000008152600401611e0d906143be565b60405180910390fd5b611e2284848484612e23565b50505050565b6000600d6000838152602001908152602001600020600501549050803414611e85576040517f08c379a0000000000000000000000000000000000000000000000000000000008152600401611e7c90614a7b565b60405180910390fd5b33600d600084815260200190815260200160002060030160006101000a81548173ffffffffffffffffffffffffffffffffffffffff021916908373ffffffffffffffffffffffffffffffffffffffff1602179055506001600d600084815260200190815260200160002060060160016101000a81548160ff021916908315150217905550611f136009612e7f565b611f1e3033846127ed565b600b60009054906101000a900473ffffffffffffffffffffffffffffffffffffffff1673ffffffffffffffffffffffffffffffffffffffff166108fc600a549081150290604051600060405180830381858888f19350505050158015611f88573d6000803e3d6000fd5b50600d600083815260200190815260200160002060020160009054906101000a900473ffffffffffffffffffffffffffffffffffffffff1673ffffffffffffffffffffffffffffffffffffffff166108fc349081150290604051600060405180830381858888f19350505050158015612005573d6000803e3d6000fd5b505050565b60006120166008612e7f565b6000612022600861274a565b905061202e3382612e95565b61203881866130b2565b612043818585610dc3565b809150509392505050565b6060600061205c600861274a565b905060008060005b83811015612104573373ffffffffffffffffffffffffffffffffffffffff16600d600060018461209491906142a1565b815260200190815260200160002060030160009054906101000a900473ffffffffffffffffffffffffffffffffffffffff1673ffffffffffffffffffffffffffffffffffffffff16036120f1576001836120ee91906142a1565b92505b80806120fc90614304565b915050612064565b5060008267ffffffffffffffff81111561212157612120613dbc565b5b60405190808252806020026020018201604052801561215a57816020015b61214761369d565b81526020019060019003908161213f5790505b50905060005b848110156123ab573373ffffffffffffffffffffffffffffffffffffffff16600d600060018461219091906142a1565b815260200190815260200160002060030160009054906101000a900473ffffffffffffffffffffffffffffffffffffffff1673ffffffffffffffffffffffffffffffffffffffff16036123985760006001826121ec91906142a1565b90506000600d600083815260200190815260200160002090508060405180610100016040529081600082015481526020016001820160009054906101000a900473ffffffffffffffffffffffffffffffffffffffff1673ffffffffffffffffffffffffffffffffffffffff1673ffffffffffffffffffffffffffffffffffffffff1681526020016002820160009054906101000a900473ffffffffffffffffffffffffffffffffffffffff1673ffffffffffffffffffffffffffffffffffffffff1673ffffffffffffffffffffffffffffffffffffffff1681526020016003820160009054906101000a900473ffffffffffffffffffffffffffffffffffffffff1673ffffffffffffffffffffffffffffffffffffffff1673ffffffffffffffffffffffffffffffffffffffff16815260200160048201548152602001600582015481526020016006820160009054906101000a900460ff161515151581526020016006820160019054906101000a900460ff16151515158152505084868151811061237b5761237a6142d5565b5b602002602001018190525060018561239391906142a1565b945050505b80806123a390614304565b915050612160565b508094505050505090565b60606123c18261263e565b60006006600084815260200190815260200160002080546123e1906140e9565b80601f016020809104026020016040519081016040528092919081815260200182805461240d906140e9565b801561245a5780601f1061242f5761010080835404028352916020019161245a565b820191906000526020600020905b81548152906001019060200180831161243d57829003601f168201915b50505050509050600061246b613156565b905060008151036124805781925050506124c3565b6000825111156124b557808260405160200161249d929190614ad7565b604051602081830303815290604052925050506124c3565b6124be8461316d565b925050505b919050565b6000600560008473ffffffffffffffffffffffffffffffffffffffff1673ffffffffffffffffffffffffffffffffffffffff16815260200190815260200160002060008373ffffffffffffffffffffffffffffffffffffffff1673ffffffffffffffffffffffffffffffffffffffff16815260200190815260200160002060009054906101000a900460ff16905092915050565b60007f80ac58cd000000000000000000000000000000000000000000000000000000007bffffffffffffffffffffffffffffffffffffffffffffffffffffffff1916827bffffffffffffffffffffffffffffffffffffffffffffffffffffffff1916148061262757507f5b5e139f000000000000000000000000000000000000000000000000000000007bffffffffffffffffffffffffffffffffffffffffffffffffffffffff1916827bffffffffffffffffffffffffffffffffffffffffffffffffffffffff1916145b806126375750612636826131d5565b5b9050919050565b6126478161323f565b612686576040517f08c379a000000000000000000000000000000000000000000000000000000000815260040161267d906148b4565b60405180910390fd5b50565b600033905090565b816004600083815260200190815260200160002060006101000a81548173ffffffffffffffffffffffffffffffffffffffff021916908373ffffffffffffffffffffffffffffffffffffffff160217905550808273ffffffffffffffffffffffffffffffffffffffff1661270483611615565b73ffffffffffffffffffffffffffffffffffffffff167f8c5be1e5ebec7d5bd14f71427d1e84f3dd0314c0f7b2291e5b200ac8c7c3b92560405160405180910390a45050565b600081600001549050919050565b60008061276483611615565b90508073ffffffffffffffffffffffffffffffffffffffff168473ffffffffffffffffffffffffffffffffffffffff1614806127a657506127a581856124c8565b5b806127e457508373ffffffffffffffffffffffffffffffffffffffff166127cc846106fb565b73ffffffffffffffffffffffffffffffffffffffff16145b91505092915050565b8273ffffffffffffffffffffffffffffffffffffffff1661280d82611615565b73ffffffffffffffffffffffffffffffffffffffff1614612863576040517f08c379a000000000000000000000000000000000000000000000000000000000815260040161285a90614b6d565b60405180910390fd5b600073ffffffffffffffffffffffffffffffffffffffff168273ffffffffffffffffffffffffffffffffffffffff16036128d2576040517f08c379a00000000000000000000000000000000000000000000000000000000081526004016128c990614bff565b60405180910390fd5b6128df8383836001613280565b8273ffffffffffffffffffffffffffffffffffffffff166128ff82611615565b73ffffffffffffffffffffffffffffffffffffffff1614612955576040517f08c379a000000000000000000000000000000000000000000000000000000000815260040161294c90614b6d565b60405180910390fd5b6004600082815260200190815260200160002060006101000a81549073ffffffffffffffffffffffffffffffffffffffff02191690556001600360008573ffffffffffffffffffffffffffffffffffffffff1673ffffffffffffffffffffffffffffffffffffffff168152602001908152602001600020600082825403925050819055506001600360008473ffffffffffffffffffffffffffffffffffffffff1673ffffffffffffffffffffffffffffffffffffffff16815260200190815260200160002060008282540192505081905550816002600083815260200190815260200160002060006101000a81548173ffffffffffffffffffffffffffffffffffffffff021916908373ffffffffffffffffffffffffffffffffffffffff160217905550808273ffffffffffffffffffffffffffffffffffffffff168473ffffffffffffffffffffffffffffffffffffffff167fddf252ad1be2c89b69c2b068fc378daa952ba7f163c4a11628f55a4df523b3ef60405160405180910390a4612ae18383836001613286565b505050565b612b7e8282604051602401612afc929190614c1f565b6040516020818303038152906040527f319af333000000000000000000000000000000000000000000000000000000007bffffffffffffffffffffffffffffffffffffffffffffffffffffffff19166020820180517bffffffffffffffffffffffffffffffffffffffffffffffffffffffff838183161783525050505061328c565b5050565b612c1a8282604051602401612b98929190614c4f565b6040516020818303038152906040527fb60e72cc000000000000000000000000000000000000000000000000000000007bffffffffffffffffffffffffffffffffffffffffffffffffffffffff19166020820180517bffffffffffffffffffffffffffffffffffffffffffffffffffffffff838183161783525050505061328c565b5050565b60006002600083815260200190815260200160002060009054906101000a900473ffffffffffffffffffffffffffffffffffffffff169050919050565b60008160000154905060008111612ca7576040517f08c379a0000000000000000000000000000000000000000000000000000000008152600401612c9e90614ccb565b60405180910390fd5b6001810382600001819055505050565b8173ffffffffffffffffffffffffffffffffffffffff168373ffffffffffffffffffffffffffffffffffffffff1603612d25576040517f08c379a0000000000000000000000000000000000000000000000000000000008152600401612d1c90614d37565b60405180910390fd5b80600560008573ffffffffffffffffffffffffffffffffffffffff1673ffffffffffffffffffffffffffffffffffffffff16815260200190815260200160002060008473ffffffffffffffffffffffffffffffffffffffff1673ffffffffffffffffffffffffffffffffffffffff16815260200190815260200160002060006101000a81548160ff0219169083151502179055508173ffffffffffffffffffffffffffffffffffffffff168373ffffffffffffffffffffffffffffffffffffffff167f17307eab39ab6107e8899845ad3d59bd9653f200f220920489ca2b5937696c3183604051612e1691906137e6565b60405180910390a3505050565b612e2e8484846127ed565b612e3a848484846132a6565b612e79576040517f08c379a0000000000000000000000000000000000000000000000000000000008152600401612e7090614dc9565b60405180910390fd5b50505050565b6001816000016000828254019250508190555050565b600073ffffffffffffffffffffffffffffffffffffffff168273ffffffffffffffffffffffffffffffffffffffff1603612f04576040517f08c379a0000000000000000000000000000000000000000000000000000000008152600401612efb90614e35565b60405180910390fd5b612f0d8161323f565b15612f4d576040517f08c379a0000000000000000000000000000000000000000000000000000000008152600401612f4490614ea1565b60405180910390fd5b612f5b600083836001613280565b612f648161323f565b15612fa4576040517f08c379a0000000000000000000000000000000000000000000000000000000008152600401612f9b90614ea1565b60405180910390fd5b6001600360008473ffffffffffffffffffffffffffffffffffffffff1673ffffffffffffffffffffffffffffffffffffffff16815260200190815260200160002060008282540192505081905550816002600083815260200190815260200160002060006101000a81548173ffffffffffffffffffffffffffffffffffffffff021916908373ffffffffffffffffffffffffffffffffffffffff160217905550808273ffffffffffffffffffffffffffffffffffffffff16600073ffffffffffffffffffffffffffffffffffffffff167fddf252ad1be2c89b69c2b068fc378daa952ba7f163c4a11628f55a4df523b3ef60405160405180910390a46130ae600083836001613286565b5050565b6130bb8261323f565b6130fa576040517f08c379a00000000000000000000000000000000000000000000000000000000081526004016130f190614f33565b60405180910390fd5b8060066000848152602001908152602001600020908161311a91906150ff565b507ff8e1a15aba9398e019f0b49df1a4fde98ee17ae345cb5f6b5e2c27f5033e8ce78260405161314a9190613cb3565b60405180910390a15050565b606060405180602001604052806000815250905090565b60606131788261263e565b6000613182613156565b905060008151116131a257604051806020016040528060008152506131cd565b806131ac8461342d565b6040516020016131bd929190614ad7565b6040516020818303038152906040525b915050919050565b60007f01ffc9a7000000000000000000000000000000000000000000000000000000007bffffffffffffffffffffffffffffffffffffffffffffffffffffffff1916827bffffffffffffffffffffffffffffffffffffffffffffffffffffffff1916149050919050565b60008073ffffffffffffffffffffffffffffffffffffffff1661326183612c1e565b73ffffffffffffffffffffffffffffffffffffffff1614159050919050565b50505050565b50505050565b6132a38161329b6134fb61351c565b63ffffffff16565b50565b60006132c78473ffffffffffffffffffffffffffffffffffffffff16613527565b15613420578373ffffffffffffffffffffffffffffffffffffffff1663150b7a026132f0612689565b8786866040518563ffffffff1660e01b81526004016133129493929190615226565b6020604051808303816000875af192505050801561334e57506040513d601f19601f8201168201806040525081019061334b9190615287565b60015b6133d0573d806000811461337e576040519150601f19603f3d011682016040523d82523d6000602084013e613383565b606091505b5060008151036133c8576040517f08c379a00000000000000000000000000000000000000000000000000000000081526004016133bf90614dc9565b60405180910390fd5b805181602001fd5b63150b7a0260e01b7bffffffffffffffffffffffffffffffffffffffffffffffffffffffff1916817bffffffffffffffffffffffffffffffffffffffffffffffffffffffff191614915050613425565b600190505b949350505050565b60606000600161343c8461354a565b01905060008167ffffffffffffffff81111561345b5761345a613dbc565b5b6040519080825280601f01601f19166020018201604052801561348d5781602001600182028036833780820191505090505b509050600082602001820190505b6001156134f0578080600190039150507f3031323334353637383961626364656600000000000000000000000000000000600a86061a8153600a85816134e4576134e36152b4565b5b0494506000850361349b575b819350505050919050565b60006a636f6e736f6c652e6c6f679050600080835160208501845afa505050565b613728819050919050565b6000808273ffffffffffffffffffffffffffffffffffffffff163b119050919050565b600080600090507a184f03e93ff9f4daa797ed6e38ed64bf6a1f01000000000000000083106135a8577a184f03e93ff9f4daa797ed6e38ed64bf6a1f010000000000000000838161359e5761359d6152b4565b5b0492506040810190505b6d04ee2d6d415b85acef810000000083106135e5576d04ee2d6d415b85acef810000000083816135db576135da6152b4565b5b0492506020810190505b662386f26fc10000831061361457662386f26fc10000838161360a576136096152b4565b5b0492506010810190505b6305f5e100831061363d576305f5e1008381613633576136326152b4565b5b0492506008810190505b6127108310613662576127108381613658576136576152b4565b5b0492506004810190505b60648310613685576064838161367b5761367a6152b4565b5b0492506002810190505b600a8310613694576001810190505b80915050919050565b60405180610100016040528060008152602001600073ffffffffffffffffffffffffffffffffffffffff168152602001600073ffffffffffffffffffffffffffffffffffffffff168152602001600073ffffffffffffffffffffffffffffffffffffffff16815260200160008152602001600081526020016000151581526020016000151581525090565b6137306152e3565b565b6000604051905090565b600080fd5b600080fd5b60007fffffffff0000000000000000000000000000000000000000000000000000000082169050919050565b61377b81613746565b811461378657600080fd5b50565b60008135905061379881613772565b92915050565b6000602082840312156137b4576137b361373c565b5b60006137c284828501613789565b91505092915050565b60008115159050919050565b6137e0816137cb565b82525050565b60006020820190506137fb60008301846137d7565b92915050565b600081519050919050565b600082825260208201905092915050565b60005b8381101561383b578082015181840152602081019050613820565b60008484015250505050565b6000601f19601f8301169050919050565b600061386382613801565b61386d818561380c565b935061387d81856020860161381d565b61388681613847565b840191505092915050565b600060208201905081810360008301526138ab8184613858565b905092915050565b6000819050919050565b6138c6816138b3565b81146138d157600080fd5b50565b6000813590506138e3816138bd565b92915050565b6000602082840312156138ff576138fe61373c565b5b600061390d848285016138d4565b91505092915050565b600073ffffffffffffffffffffffffffffffffffffffff82169050919050565b600061394182613916565b9050919050565b61395181613936565b82525050565b600060208201905061396c6000830184613948565b92915050565b61397b81613936565b811461398657600080fd5b50565b60008135905061399881613972565b92915050565b600080604083850312156139b5576139b461373c565b5b60006139c385828601613989565b92505060206139d4858286016138d4565b9150509250929050565b600081519050919050565b600082825260208201905092915050565b6000819050602082019050919050565b613a13816138b3565b82525050565b6000613a2482613916565b9050919050565b613a3481613a19565b82525050565b613a43816137cb565b82525050565b61010082016000820151613a606000850182613a0a565b506020820151613a736020850182613a2b565b506040820151613a866040850182613a2b565b506060820151613a996060850182613a2b565b506080820151613aac6080850182613a0a565b5060a0820151613abf60a0850182613a0a565b5060c0820151613ad260c0850182613a3a565b5060e0820151613ae560e0850182613a3a565b50505050565b6000613af78383613a49565b6101008301905092915050565b6000602082019050919050565b6000613b1c826139de565b613b2681856139e9565b9350613b31836139fa565b8060005b83811015613b62578151613b498882613aeb565b9750613b5483613b04565b925050600181019050613b35565b5085935050505092915050565b60006020820190508181036000830152613b898184613b11565b905092915050565b600060208284031215613ba757613ba661373c565b5b6000613bb584828501613989565b91505092915050565b600080600060608486031215613bd757613bd661373c565b5b6000613be586828701613989565b9350506020613bf686828701613989565b9250506040613c07868287016138d4565b9150509250925092565b600080600060608486031215613c2a57613c2961373c565b5b6000613c38868287016138d4565b9350506020613c49868287016138d4565b9250506040613c5a868287016138d4565b9150509250925092565b60008060408385031215613c7b57613c7a61373c565b5b6000613c89858286016138d4565b9250506020613c9a858286016138d4565b9150509250929050565b613cad816138b3565b82525050565b6000602082019050613cc86000830184613ca4565b92915050565b60008060408385031215613ce557613ce461373c565b5b6000613cf3858286016138d4565b9250506020613d0485828601613989565b9150509250929050565b613d17816137cb565b8114613d2257600080fd5b50565b600081359050613d3481613d0e565b92915050565b60008060408385031215613d5157613d5061373c565b5b6000613d5f85828601613989565b9250506020613d7085828601613d25565b9150509250929050565b613d8381613a19565b82525050565b6000604082019050613d9e6000830185613ca4565b613dab6020830184613d7a565b9392505050565b600080fd5b600080fd5b7f4e487b7100000000000000000000000000000000000000000000000000000000600052604160045260246000fd5b613df482613847565b810181811067ffffffffffffffff82111715613e1357613e12613dbc565b5b80604052505050565b6000613e26613732565b9050613e328282613deb565b919050565b600067ffffffffffffffff821115613e5257613e51613dbc565b5b613e5b82613847565b9050602081019050919050565b82818337600083830152505050565b6000613e8a613e8584613e37565b613e1c565b905082815260208101848484011115613ea657613ea5613db7565b5b613eb1848285613e68565b509392505050565b600082601f830112613ece57613ecd613db2565b5b8135613ede848260208601613e77565b91505092915050565b60008060008060808587031215613f0157613f0061373c565b5b6000613f0f87828801613989565b9450506020613f2087828801613989565b9350506040613f31878288016138d4565b925050606085013567ffffffffffffffff811115613f5257613f51613741565b5b613f5e87828801613eb9565b91505092959194509250565b600067ffffffffffffffff821115613f8557613f84613dbc565b5b613f8e82613847565b9050602081019050919050565b6000613fae613fa984613f6a565b613e1c565b905082815260208101848484011115613fca57613fc9613db7565b5b613fd5848285613e68565b509392505050565b600082601f830112613ff257613ff1613db2565b5b8135614002848260208601613f9b565b91505092915050565b6000806000606084860312156140245761402361373c565b5b600084013567ffffffffffffffff81111561404257614041613741565b5b61404e86828701613fdd565b935050602061405f868287016138d4565b9250506040614070868287016138d4565b9150509250925092565b600080604083850312156140915761409061373c565b5b600061409f85828601613989565b92505060206140b085828601613989565b9150509250929050565b7f4e487b7100000000000000000000000000000000000000000000000000000000600052602260045260246000fd5b6000600282049050600182168061410157607f821691505b602082108103614114576141136140ba565b5b50919050565b7f4552433732313a20617070726f76616c20746f2063757272656e74206f776e6560008201527f7200000000000000000000000000000000000000000000000000000000000000602082015250565b600061417660218361380c565b91506141818261411a565b604082019050919050565b600060208201905081810360008301526141a581614169565b9050919050565b7f4552433732313a20617070726f76652063616c6c6572206973206e6f7420746f60008201527f6b656e206f776e6572206f7220617070726f76656420666f7220616c6c000000602082015250565b6000614208603d8361380c565b9150614213826141ac565b604082019050919050565b60006020820190508181036000830152614237816141fb565b9050919050565b7f4e487b7100000000000000000000000000000000000000000000000000000000600052601160045260246000fd5b6000614278826138b3565b9150614283836138b3565b925082820390508181111561429b5761429a61423e565b5b92915050565b60006142ac826138b3565b91506142b7836138b3565b92508282019050808211156142cf576142ce61423e565b5b92915050565b7f4e487b7100000000000000000000000000000000000000000000000000000000600052603260045260246000fd5b600061430f826138b3565b91507fffffffffffffffffffffffffffffffffffffffffffffffffffffffffffffffff82036143415761434061423e565b5b600182019050919050565b7f4552433732313a2063616c6c6572206973206e6f7420746f6b656e206f776e6560008201527f72206f7220617070726f76656400000000000000000000000000000000000000602082015250565b60006143a8602d8361380c565b91506143b38261434c565b604082019050919050565b600060208201905081810360008301526143d78161439b565b9050919050565b7f6f6e6c79206f776e6572206f662074686520636f6e74726163742063616e207560008201527f706461746520746865206c697374696e67207072696365000000000000000000602082015250565b600061443a60378361380c565b9150614445826143de565b604082019050919050565b600060208201905081810360008301526144698161442d565b9050919050565b7f4e6f2066756e647320746f207769746864726177000000000000000000000000600082015250565b60006144a660148361380c565b91506144b182614470565b602082019050919050565b600060208201905081810360008301526144d581614499565b9050919050565b600081905092915050565b50565b60006144f76000836144dc565b9150614502826144e7565b600082019050919050565b6000614518826144ea565b9150819050919050565b7f4661696c656420746f2077697468647261772066756e64730000000000000000600082015250565b600061455860188361380c565b915061456382614522565b602082019050919050565b600060208201905081810360008301526145878161454b565b9050919050565b60006040820190506145a36000830185613ca4565b6145b06020830184613948565b9392505050565b7f5072696365206d757374206265206174206c6561737420312077656900000000600082015250565b60006145ed601c8361380c565b91506145f8826145b7565b602082019050919050565b6000602082019050818103600083015261461c816145e0565b9050919050565b7f5072696365206d757374206265207061696420696e2066756c6c000000000000600082015250565b6000614659601a8361380c565b915061466482614623565b602082019050919050565b600060208201905081810360008301526146888161464c565b9050919050565b600060e0820190506146a4600083018a613948565b6146b16020830189613948565b6146be6040830188613948565b6146cb6060830187613ca4565b6146d86080830186613ca4565b6146e560a08301856137d7565b6146f260c08301846137d7565b98975050505050505050565b7f4e465420646f6573206e6f7420657869737420696e206d61726b6574706c616360008201527f6500000000000000000000000000000000000000000000000000000000000000602082015250565b600061475a60218361380c565b9150614765826146fe565b604082019050919050565b600060208201905081810360008301526147898161474d565b9050919050565b7f43616c6c6572206973206e6f7420746865206f776e6572000000000000000000600082015250565b60006147c660178361380c565b91506147d182614790565b602082019050919050565b600060208201905081810360008301526147f5816147b9565b9050919050565b7f5072696365206d7573742062652067726561746572207468616e207a65726f00600082015250565b6000614832601f8361380c565b915061483d826147fc565b602082019050919050565b6000602082019050818103600083015261486181614825565b9050919050565b7f4552433732313a20696e76616c696420746f6b656e2049440000000000000000600082015250565b600061489e60188361380c565b91506148a982614868565b602082019050919050565b600060208201905081810360008301526148cd81614891565b9050919050565b7f4f6e6c79206f776e65722063616e2072656c697374204e465400000000000000600082015250565b600061490a60198361380c565b9150614915826148d4565b602082019050919050565b60006020820190508181036000830152614939816148fd565b9050919050565b7f4552433732313a2061646472657373207a65726f206973206e6f74206120766160008201527f6c6964206f776e65720000000000000000000000000000000000000000000000602082015250565b600061499c60298361380c565b91506149a782614940565b604082019050919050565b600060208201905081810360008301526149cb8161498f565b9050919050565b60006060820190506149e76000830186613948565b6149f46020830185613948565b614a016040830184613ca4565b949350505050565b7f506c65617365207375626d6974207468652061736b696e67207072696365206960008201527f6e206f7264657220746f20636f6d706c65746520746865207075726368617365602082015250565b6000614a6560408361380c565b9150614a7082614a09565b604082019050919050565b60006020820190508181036000830152614a9481614a58565b9050919050565b600081905092915050565b6000614ab182613801565b614abb8185614a9b565b9350614acb81856020860161381d565b80840191505092915050565b6000614ae38285614aa6565b9150614aef8284614aa6565b91508190509392505050565b7f4552433732313a207472616e736665722066726f6d20696e636f72726563742060008201527f6f776e6572000000000000000000000000000000000000000000000000000000602082015250565b6000614b5760258361380c565b9150614b6282614afb565b604082019050919050565b60006020820190508181036000830152614b8681614b4a565b9050919050565b7f4552433732313a207472616e7366657220746f20746865207a65726f2061646460008201527f7265737300000000000000000000000000000000000000000000000000000000602082015250565b6000614be960248361380c565b9150614bf482614b8d565b604082019050919050565b60006020820190508181036000830152614c1881614bdc565b9050919050565b60006040820190508181036000830152614c398185613858565b9050614c486020830184613948565b9392505050565b60006040820190508181036000830152614c698185613858565b9050614c786020830184613ca4565b9392505050565b7f436f756e7465723a2064656372656d656e74206f766572666c6f770000000000600082015250565b6000614cb5601b8361380c565b9150614cc082614c7f565b602082019050919050565b60006020820190508181036000830152614ce481614ca8565b9050919050565b7f4552433732313a20617070726f766520746f2063616c6c657200000000000000600082015250565b6000614d2160198361380c565b9150614d2c82614ceb565b602082019050919050565b60006020820190508181036000830152614d5081614d14565b9050919050565b7f4552433732313a207472616e7366657220746f206e6f6e20455243373231526560008201527f63656976657220696d706c656d656e7465720000000000000000000000000000602082015250565b6000614db360328361380c565b9150614dbe82614d57565b604082019050919050565b60006020820190508181036000830152614de281614da6565b9050919050565b7f4552433732313a206d696e7420746f20746865207a65726f2061646472657373600082015250565b6000614e1f60208361380c565b9150614e2a82614de9565b602082019050919050565b60006020820190508181036000830152614e4e81614e12565b9050919050565b7f4552433732313a20746f6b656e20616c7265616479206d696e74656400000000600082015250565b6000614e8b601c8361380c565b9150614e9682614e55565b602082019050919050565b60006020820190508181036000830152614eba81614e7e565b9050919050565b7f45524337323155524953746f726167653a2055524920736574206f66206e6f6e60008201527f6578697374656e7420746f6b656e000000000000000000000000000000000000602082015250565b6000614f1d602e8361380c565b9150614f2882614ec1565b604082019050919050565b60006020820190508181036000830152614f4c81614f10565b9050919050565b60008190508160005260206000209050919050565b60006020601f8301049050919050565b600082821b905092915050565b600060088302614fb57fffffffffffffffffffffffffffffffffffffffffffffffffffffffffffffffff82614f78565b614fbf8683614f78565b95508019841693508086168417925050509392505050565b6000819050919050565b6000614ffc614ff7614ff2846138b3565b614fd7565b6138b3565b9050919050565b6000819050919050565b61501683614fe1565b61502a61502282615003565b848454614f85565b825550505050565b600090565b61503f615032565b61504a81848461500d565b505050565b5b8181101561506e57615063600082615037565b600181019050615050565b5050565b601f8211156150b35761508481614f53565b61508d84614f68565b8101602085101561509c578190505b6150b06150a885614f68565b83018261504f565b50505b505050565b600082821c905092915050565b60006150d6600019846008026150b8565b1980831691505092915050565b60006150ef83836150c5565b9150826002028217905092915050565b61510882613801565b67ffffffffffffffff81111561512157615120613dbc565b5b61512b82546140e9565b615136828285615072565b600060209050601f8311600181146151695760008415615157578287015190505b61516185826150e3565b8655506151c9565b601f19841661517786614f53565b60005b8281101561519f5784890151825560018201915060208501945060208101905061517a565b868310156151bc57848901516151b8601f8916826150c5565b8355505b6001600288020188555050505b505050505050565b600081519050919050565b600082825260208201905092915050565b60006151f8826151d1565b61520281856151dc565b935061521281856020860161381d565b61521b81613847565b840191505092915050565b600060808201905061523b6000830187613948565b6152486020830186613948565b6152556040830185613ca4565b818103606083015261526781846151ed565b905095945050505050565b60008151905061528181613772565b92915050565b60006020828403121561529d5761529c61373c565b5b60006152ab84828501615272565b91505092915050565b7f4e487b7100000000000000000000000000000000000000000000000000000000600052601260045260246000fd5b7f4e487b7100000000000000000000000000000000000000000000000000000000600052605160045260246000fdfe437265617465204d61726b6574204974656d2046756e6374696f6e2043616c6c65723a20a2646970667358221220028ffab9074b70b6a271821a8ef1920c5439799ef410364ae12d7a96616c229164736f6c63430008130033",
  "linkReferences": {},
  "deployedLinkReferences": {}
}