{
  "_format": "hh-sol-artifact-1",
  "contractName": "Marketplace",
  "sourceName": "contracts/Marketplace.sol",
  "abi": [
    {
      "inputs": [],
      "stateMutability": "nonpayable",
      "type": "constructor"
    },
    {
      "anonymous": false,
      "inputs": [
        {
          "indexed": true,
          "internalType": "address",
          "name": "owner",
          "type": "address"
        },
        {
          "indexed": true,
          "internalType": "address",
          "name": "approved",
          "type": "address"
        },
        {
          "indexed": true,
          "internalType": "uint256",
          "name": "tokenId",
          "type": "uint256"
        }
      ],
      "name": "Approval",
      "type": "event"
    },
    {
      "anonymous": false,
      "inputs": [
        {
          "indexed": true,
          "internalType": "address",
          "name": "owner",
          "type": "address"
        },
        {
          "indexed": true,
          "internalType": "address",
          "name": "operator",
          "type": "address"
        },
        {
          "indexed": false,
          "internalType": "bool",
          "name": "approved",
          "type": "bool"
        }
      ],
      "name": "ApprovalForAll",
      "type": "event"
    },
    {
      "anonymous": false,
      "inputs": [
        {
          "indexed": false,
          "internalType": "uint256",
          "name": "_fromTokenId",
          "type": "uint256"
        },
        {
          "indexed": false,
          "internalType": "uint256",
          "name": "_toTokenId",
          "type": "uint256"
        }
      ],
      "name": "BatchMetadataUpdate",
      "type": "event"
    },
    {
      "anonymous": false,
      "inputs": [
        {
          "indexed": true,
          "internalType": "uint256",
          "name": "tokenId",
          "type": "uint256"
        },
        {
          "indexed": false,
          "internalType": "address",
          "name": "originalOwner",
          "type": "address"
        },
        {
          "indexed": false,
          "internalType": "address",
          "name": "seller",
          "type": "address"
        },
        {
          "indexed": false,
          "internalType": "address",
          "name": "owner",
          "type": "address"
        },
        {
          "indexed": false,
          "internalType": "uint256",
          "name": "royaltyPercentage",
          "type": "uint256"
        },
        {
          "indexed": false,
          "internalType": "uint256",
          "name": "price",
          "type": "uint256"
        },
        {
          "indexed": false,
          "internalType": "bool",
          "name": "sold",
          "type": "bool"
        }
      ],
      "name": "MarketItemCreated",
      "type": "event"
    },
    {
      "anonymous": false,
      "inputs": [
        {
          "indexed": false,
          "internalType": "uint256",
          "name": "_tokenId",
          "type": "uint256"
        }
      ],
      "name": "MetadataUpdate",
      "type": "event"
    },
    {
      "anonymous": false,
      "inputs": [
        {
          "indexed": true,
          "internalType": "address",
          "name": "from",
          "type": "address"
        },
        {
          "indexed": true,
          "internalType": "address",
          "name": "to",
          "type": "address"
        },
        {
          "indexed": true,
          "internalType": "uint256",
          "name": "tokenId",
          "type": "uint256"
        }
      ],
      "name": "Transfer",
      "type": "event"
    },
    {
      "inputs": [
        {
          "internalType": "address",
          "name": "to",
          "type": "address"
        },
        {
          "internalType": "uint256",
          "name": "tokenId",
          "type": "uint256"
        }
      ],
      "name": "approve",
      "outputs": [],
      "stateMutability": "nonpayable",
      "type": "function"
    },
    {
      "inputs": [
        {
          "internalType": "address",
          "name": "owner",
          "type": "address"
        }
      ],
      "name": "balanceOf",
      "outputs": [
        {
          "internalType": "uint256",
          "name": "",
          "type": "uint256"
        }
      ],
      "stateMutability": "view",
      "type": "function"
    },
    {
      "inputs": [
        {
          "internalType": "uint256",
          "name": "tokenId",
          "type": "uint256"
        },
        {
          "internalType": "uint256",
          "name": "royaltyPercentage",
          "type": "uint256"
        },
        {
          "internalType": "uint256",
          "name": "price",
          "type": "uint256"
        }
      ],
      "name": "createMarketItem",
      "outputs": [],
      "stateMutability": "payable",
      "type": "function"
    },
    {
      "inputs": [
        {
          "internalType": "uint256",
          "name": "tokenId",
          "type": "uint256"
        }
      ],
      "name": "createMarketSale",
      "outputs": [],
      "stateMutability": "payable",
      "type": "function"
    },
    {
      "inputs": [
        {
          "internalType": "string",
          "name": "tokenURI",
          "type": "string"
        },
        {
          "internalType": "uint256",
          "name": "royaltyPercentage",
          "type": "uint256"
        },
        {
          "internalType": "uint256",
          "name": "price",
          "type": "uint256"
        }
      ],
      "name": "createToken",
      "outputs": [
        {
          "internalType": "uint256",
          "name": "",
          "type": "uint256"
        }
      ],
      "stateMutability": "payable",
      "type": "function"
    },
    {
      "inputs": [],
      "name": "fetchItemsListed",
      "outputs": [
        {
          "components": [
            {
              "internalType": "uint256",
              "name": "tokenId",
              "type": "uint256"
            },
            {
              "internalType": "address payable",
              "name": "originalOwner",
              "type": "address"
            },
            {
              "internalType": "address payable",
              "name": "seller",
              "type": "address"
            },
            {
              "internalType": "address payable",
              "name": "owner",
              "type": "address"
            },
            {
              "internalType": "uint256",
              "name": "royaltyPercentage",
              "type": "uint256"
            },
            {
              "internalType": "uint256",
              "name": "price",
              "type": "uint256"
            },
            {
              "internalType": "bool",
              "name": "sold",
              "type": "bool"
            }
          ],
          "internalType": "struct Marketplace.MarketItem[]",
          "name": "",
          "type": "tuple[]"
        }
      ],
      "stateMutability": "view",
      "type": "function"
    },
    {
      "inputs": [],
      "name": "fetchMarketItems",
      "outputs": [
        {
          "components": [
            {
              "internalType": "uint256",
              "name": "tokenId",
              "type": "uint256"
            },
            {
              "internalType": "address payable",
              "name": "originalOwner",
              "type": "address"
            },
            {
              "internalType": "address payable",
              "name": "seller",
              "type": "address"
            },
            {
              "internalType": "address payable",
              "name": "owner",
              "type": "address"
            },
            {
              "internalType": "uint256",
              "name": "royaltyPercentage",
              "type": "uint256"
            },
            {
              "internalType": "uint256",
              "name": "price",
              "type": "uint256"
            },
            {
              "internalType": "bool",
              "name": "sold",
              "type": "bool"
            }
          ],
          "internalType": "struct Marketplace.MarketItem[]",
          "name": "",
          "type": "tuple[]"
        }
      ],
      "stateMutability": "view",
      "type": "function"
    },
    {
      "inputs": [],
      "name": "fetchMyNFT",
      "outputs": [
        {
          "components": [
            {
              "internalType": "uint256",
              "name": "tokenId",
              "type": "uint256"
            },
            {
              "internalType": "address payable",
              "name": "originalOwner",
              "type": "address"
            },
            {
              "internalType": "address payable",
              "name": "seller",
              "type": "address"
            },
            {
              "internalType": "address payable",
              "name": "owner",
              "type": "address"
            },
            {
              "internalType": "uint256",
              "name": "royaltyPercentage",
              "type": "uint256"
            },
            {
              "internalType": "uint256",
              "name": "price",
              "type": "uint256"
            },
            {
              "internalType": "bool",
              "name": "sold",
              "type": "bool"
            }
          ],
          "internalType": "struct Marketplace.MarketItem[]",
          "name": "",
          "type": "tuple[]"
        }
      ],
      "stateMutability": "view",
      "type": "function"
    },
    {
      "inputs": [
        {
          "internalType": "uint256",
          "name": "tokenId",
          "type": "uint256"
        }
      ],
      "name": "getApproved",
      "outputs": [
        {
          "internalType": "address",
          "name": "",
          "type": "address"
        }
      ],
      "stateMutability": "view",
      "type": "function"
    },
    {
      "inputs": [],
      "name": "getListingPrice",
      "outputs": [
        {
          "internalType": "uint256",
          "name": "",
          "type": "uint256"
        }
      ],
      "stateMutability": "view",
      "type": "function"
    },
    {
      "inputs": [
        {
          "internalType": "uint256",
          "name": "tokenId",
          "type": "uint256"
        }
      ],
      "name": "getRoyaltyData",
      "outputs": [
        {
          "internalType": "uint256",
          "name": "",
          "type": "uint256"
        },
        {
          "internalType": "address payable",
          "name": "",
          "type": "address"
        }
      ],
      "stateMutability": "view",
      "type": "function"
    },
    {
      "inputs": [
        {
          "internalType": "uint256",
          "name": "tokenId",
          "type": "uint256"
        },
        {
          "internalType": "address",
          "name": "winner",
          "type": "address"
        }
      ],
      "name": "handleAuctionEnd",
      "outputs": [],
      "stateMutability": "nonpayable",
      "type": "function"
    },
    {
      "inputs": [
        {
          "internalType": "address",
          "name": "owner",
          "type": "address"
        },
        {
          "internalType": "address",
          "name": "operator",
          "type": "address"
        }
      ],
      "name": "isApprovedForAll",
      "outputs": [
        {
          "internalType": "bool",
          "name": "",
          "type": "bool"
        }
      ],
      "stateMutability": "view",
      "type": "function"
    },
    {
      "inputs": [],
      "name": "name",
      "outputs": [
        {
          "internalType": "string",
          "name": "",
          "type": "string"
        }
      ],
      "stateMutability": "view",
      "type": "function"
    },
    {
      "inputs": [
        {
          "internalType": "uint256",
          "name": "tokenId",
          "type": "uint256"
        }
      ],
      "name": "ownerOf",
      "outputs": [
        {
          "internalType": "address",
          "name": "",
          "type": "address"
        }
      ],
      "stateMutability": "view",
      "type": "function"
    },
    {
      "inputs": [
        {
          "internalType": "uint256",
          "name": "tokenId",
          "type": "uint256"
        },
        {
          "internalType": "uint256",
          "name": "price",
          "type": "uint256"
        }
      ],
      "name": "resellMarketItem",
      "outputs": [],
      "stateMutability": "payable",
      "type": "function"
    },
    {
      "inputs": [
        {
          "internalType": "address",
          "name": "from",
          "type": "address"
        },
        {
          "internalType": "address",
          "name": "to",
          "type": "address"
        },
        {
          "internalType": "uint256",
          "name": "tokenId",
          "type": "uint256"
        }
      ],
      "name": "safeTransferFrom",
      "outputs": [],
      "stateMutability": "nonpayable",
      "type": "function"
    },
    {
      "inputs": [
        {
          "internalType": "address",
          "name": "from",
          "type": "address"
        },
        {
          "internalType": "address",
          "name": "to",
          "type": "address"
        },
        {
          "internalType": "uint256",
          "name": "tokenId",
          "type": "uint256"
        },
        {
          "internalType": "bytes",
          "name": "data",
          "type": "bytes"
        }
      ],
      "name": "safeTransferFrom",
      "outputs": [],
      "stateMutability": "nonpayable",
      "type": "function"
    },
    {
      "inputs": [
        {
          "internalType": "address",
          "name": "operator",
          "type": "address"
        },
        {
          "internalType": "bool",
          "name": "approved",
          "type": "bool"
        }
      ],
      "name": "setApprovalForAll",
      "outputs": [],
      "stateMutability": "nonpayable",
      "type": "function"
    },
    {
      "inputs": [
        {
          "internalType": "bytes4",
          "name": "interfaceId",
          "type": "bytes4"
        }
      ],
      "name": "supportsInterface",
      "outputs": [
        {
          "internalType": "bool",
          "name": "",
          "type": "bool"
        }
      ],
      "stateMutability": "view",
      "type": "function"
    },
    {
      "inputs": [],
      "name": "symbol",
      "outputs": [
        {
          "internalType": "string",
          "name": "",
          "type": "string"
        }
      ],
      "stateMutability": "view",
      "type": "function"
    },
    {
      "inputs": [
        {
          "internalType": "uint256",
          "name": "tokenId",
          "type": "uint256"
        }
      ],
      "name": "tokenURI",
      "outputs": [
        {
          "internalType": "string",
          "name": "",
          "type": "string"
        }
      ],
      "stateMutability": "view",
      "type": "function"
    },
    {
      "inputs": [
        {
          "internalType": "address",
          "name": "from",
          "type": "address"
        },
        {
          "internalType": "address",
          "name": "to",
          "type": "address"
        },
        {
          "internalType": "uint256",
          "name": "tokenId",
          "type": "uint256"
        }
      ],
      "name": "transferFrom",
      "outputs": [],
      "stateMutability": "nonpayable",
      "type": "function"
    },
    {
      "inputs": [
        {
          "internalType": "uint256",
          "name": "_listingPrice",
          "type": "uint256"
        }
      ],
      "name": "updateListingPrice",
      "outputs": [],
      "stateMutability": "payable",
      "type": "function"
    }
  ],
  "bytecode": "0x60806040526608e1bc9bf04000600a553480156200001c57600080fd5b506040518060400160405280601381526020017f4e4654204d657461766572736520546f6b656e000000000000000000000000008152506040518060400160405280600581526020017f4d594e465400000000000000000000000000000000000000000000000000000081525081600090816200009a919062000378565b508060019081620000ac919062000378565b505050600160078190555033600b60006101000a81548173ffffffffffffffffffffffffffffffffffffffff021916908373ffffffffffffffffffffffffffffffffffffffff1602179055506200045f565b600081519050919050565b7f4e487b7100000000000000000000000000000000000000000000000000000000600052604160045260246000fd5b7f4e487b7100000000000000000000000000000000000000000000000000000000600052602260045260246000fd5b600060028204905060018216806200018057607f821691505b60208210810362000196576200019562000138565b5b50919050565b60008190508160005260206000209050919050565b60006020601f8301049050919050565b600082821b905092915050565b600060088302620002007fffffffffffffffffffffffffffffffffffffffffffffffffffffffffffffffff82620001c1565b6200020c8683620001c1565b95508019841693508086168417925050509392505050565b6000819050919050565b6000819050919050565b600062000259620002536200024d8462000224565b6200022e565b62000224565b9050919050565b6000819050919050565b620002758362000238565b6200028d620002848262000260565b848454620001ce565b825550505050565b600090565b620002a462000295565b620002b18184846200026a565b505050565b5b81811015620002d957620002cd6000826200029a565b600181019050620002b7565b5050565b601f8211156200032857620002f2816200019c565b620002fd84620001b1565b810160208510156200030d578190505b620003256200031c85620001b1565b830182620002b6565b50505b505050565b600082821c905092915050565b60006200034d600019846008026200032d565b1980831691505092915050565b60006200036883836200033a565b9150826002028217905092915050565b6200038382620000fe565b67ffffffffffffffff8111156200039f576200039e62000109565b5b620003ab825462000167565b620003b8828285620002dd565b600060209050601f831160018114620003f05760008415620003db578287015190505b620003e785826200035a565b86555062000457565b601f19841662000400866200019c565b60005b828110156200042a5784890151825560018201915060208501945060208101905062000403565b868310156200044a578489015162000446601f8916826200033a565b8355505b6001600288020188555050505b505050505050565b614882806200046f6000396000f3fe60806040526004361061014b5760003560e01c806370a08231116100b6578063b88d4fde1161006f578063b88d4fde1461047a578063be9af536146104a3578063bec2a7c5146104bf578063c18763f7146104ef578063c87b56dd1461051a578063e985e9c5146105575761014b565b806370a08231146103665780638f329b31146103a357806395d89b41146103cc578063a22cb465146103f7578063a65ff74c14610420578063ae677aa31461045e5761014b565b806323b872dd1161010857806323b872dd14610274578063320343da1461029d57806342842e0e146102b957806345f8fa80146102e25780636352211e1461030d5780636b52d8321461034a5761014b565b806301ffc9a71461015057806306fdde031461018d578063081812fc146101b8578063095ea7b3146101f55780630f08efe01461021e57806312e8558514610249575b600080fd5b34801561015c57600080fd5b5061017760048036038101906101729190612f83565b610594565b6040516101849190612fcb565b60405180910390f35b34801561019957600080fd5b506101a26105f5565b6040516101af9190613076565b60405180910390f35b3480156101c457600080fd5b506101df60048036038101906101da91906130ce565b610687565b6040516101ec919061313c565b60405180910390f35b34801561020157600080fd5b5061021c60048036038101906102179190613183565b6106cd565b005b34801561022a57600080fd5b506102336107e4565b604051610240919061333f565b60405180910390f35b34801561025557600080fd5b5061025e610aac565b60405161026b9190613370565b60405180910390f35b34801561028057600080fd5b5061029b6004803603810190610296919061338b565b610ab6565b005b6102b760048036038101906102b291906133de565b610b16565b005b3480156102c557600080fd5b506102e060048036038101906102db919061338b565b610d92565b005b3480156102ee57600080fd5b506102f7610db2565b604051610304919061333f565b60405180910390f35b34801561031957600080fd5b50610334600480360381019061032f91906130ce565b6110fe565b604051610341919061313c565b60405180910390f35b610364600480360381019061035f9190613431565b611184565b005b34801561037257600080fd5b5061038d60048036038101906103889190613471565b611379565b60405161039a9190613370565b60405180910390f35b3480156103af57600080fd5b506103ca60048036038101906103c5919061349e565b611430565b005b3480156103d857600080fd5b506103e16114a3565b6040516103ee9190613076565b60405180910390f35b34801561040357600080fd5b5061041e6004803603810190610419919061350a565b611535565b005b34801561042c57600080fd5b50610447600480360381019061044291906130ce565b61154b565b604051610455929190613559565b60405180910390f35b610478600480360381019061047391906130ce565b6116bf565b005b34801561048657600080fd5b506104a1600480360381019061049c91906136b7565b611759565b005b6104bd60048036038101906104b891906130ce565b6117bb565b005b6104d960048036038101906104d491906137db565b61199d565b6040516104e69190613370565b60405180910390f35b3480156104fb57600080fd5b506105046119e1565b604051610511919061333f565b60405180910390f35b34801561052657600080fd5b50610541600480360381019061053c91906130ce565b611d2d565b60405161054e9190613076565b60405180910390f35b34801561056357600080fd5b5061057e6004803603810190610579919061384a565b611e3f565b60405161058b9190612fcb565b60405180910390f35b6000634906490660e01b7bffffffffffffffffffffffffffffffffffffffffffffffffffffffff1916827bffffffffffffffffffffffffffffffffffffffffffffffffffffffff191614806105ee57506105ed82611ed3565b5b9050919050565b606060008054610604906138b9565b80601f0160208091040260200160405190810160405280929190818152602001828054610630906138b9565b801561067d5780601f106106525761010080835404028352916020019161067d565b820191906000526020600020905b81548152906001019060200180831161066057829003601f168201915b5050505050905090565b600061069282611fb5565b6004600083815260200190815260200160002060009054906101000a900473ffffffffffffffffffffffffffffffffffffffff169050919050565b60006106d8826110fe565b90508073ffffffffffffffffffffffffffffffffffffffff168373ffffffffffffffffffffffffffffffffffffffff1603610748576040517f08c379a000000000000000000000000000000000000000000000000000000000815260040161073f9061395c565b60405180910390fd5b8073ffffffffffffffffffffffffffffffffffffffff16610767612000565b73ffffffffffffffffffffffffffffffffffffffff161480610796575061079581610790612000565b611e3f565b5b6107d5576040517f08c379a00000000000000000000000000000000000000000000000000000000081526004016107cc906139ee565b60405180910390fd5b6107df8383612008565b505050565b606060006107f260086120c1565b9050600061080060096120c1565b61080a60086120c1565b6108149190613a3d565b90506000808267ffffffffffffffff8111156108335761083261358c565b5b60405190808252806020026020018201604052801561086c57816020015b610859612e96565b8152602001906001900390816108515790505b50905060005b84811015610aa1573073ffffffffffffffffffffffffffffffffffffffff16600c60006001846108a29190613a71565b815260200190815260200160002060030160009054906101000a900473ffffffffffffffffffffffffffffffffffffffff1673ffffffffffffffffffffffffffffffffffffffff1603610a8e5760006001826108fe9190613a71565b90506000600c60008381526020019081526020016000209050806040518060e0016040529081600082015481526020016001820160009054906101000a900473ffffffffffffffffffffffffffffffffffffffff1673ffffffffffffffffffffffffffffffffffffffff1673ffffffffffffffffffffffffffffffffffffffff1681526020016002820160009054906101000a900473ffffffffffffffffffffffffffffffffffffffff1673ffffffffffffffffffffffffffffffffffffffff1673ffffffffffffffffffffffffffffffffffffffff1681526020016003820160009054906101000a900473ffffffffffffffffffffffffffffffffffffffff1673ffffffffffffffffffffffffffffffffffffffff1673ffffffffffffffffffffffffffffffffffffffff16815260200160048201548152602001600582015481526020016006820160009054906101000a900460ff161515151581525050848681518110610a7157610a70613aa5565b5b6020026020010181905250600185610a899190613a71565b945050505b8080610a9990613ad4565b915050610872565b508094505050505090565b6000600a54905090565b610ac7610ac1612000565b826120cf565b610b06576040517f08c379a0000000000000000000000000000000000000000000000000000000008152600401610afd90613b8e565b60405180910390fd5b610b11838383612164565b505050565b60008111610b59576040517f08c379a0000000000000000000000000000000000000000000000000000000008152600401610b5090613bfa565b60405180910390fd5b600a543414610b9d576040517f08c379a0000000000000000000000000000000000000000000000000000000008152600401610b9490613c66565b60405180910390fd5b6040518060e001604052808481526020013373ffffffffffffffffffffffffffffffffffffffff1681526020013373ffffffffffffffffffffffffffffffffffffffff1681526020013073ffffffffffffffffffffffffffffffffffffffff16815260200183815260200182815260200160001515815250600c60008581526020019081526020016000206000820151816000015560208201518160010160006101000a81548173ffffffffffffffffffffffffffffffffffffffff021916908373ffffffffffffffffffffffffffffffffffffffff16021790555060408201518160020160006101000a81548173ffffffffffffffffffffffffffffffffffffffff021916908373ffffffffffffffffffffffffffffffffffffffff16021790555060608201518160030160006101000a81548173ffffffffffffffffffffffffffffffffffffffff021916908373ffffffffffffffffffffffffffffffffffffffff1602179055506080820151816004015560a0820151816005015560c08201518160060160006101000a81548160ff021916908315150217905550905050610d49333085612164565b827fa5d9d913ac4de93e8f5dc9a8834f347d521cd0daf35756b44fe413e9f34019793333600086866000604051610d8596959493929190613c86565b60405180910390a2505050565b610dad83838360405180602001604052806000815250611759565b505050565b60606000610dc060086120c1565b905060008060005b83811015610e68573373ffffffffffffffffffffffffffffffffffffffff16600c6000600184610df89190613a71565b815260200190815260200160002060020160009054906101000a900473ffffffffffffffffffffffffffffffffffffffff1673ffffffffffffffffffffffffffffffffffffffff1603610e5557600183610e529190613a71565b92505b8080610e6090613ad4565b915050610dc8565b5060008267ffffffffffffffff811115610e8557610e8461358c565b5b604051908082528060200260200182016040528015610ebe57816020015b610eab612e96565b815260200190600190039081610ea35790505b50905060005b848110156110f3573373ffffffffffffffffffffffffffffffffffffffff16600c6000600184610ef49190613a71565b815260200190815260200160002060020160009054906101000a900473ffffffffffffffffffffffffffffffffffffffff1673ffffffffffffffffffffffffffffffffffffffff16036110e0576000600182610f509190613a71565b90506000600c60008381526020019081526020016000209050806040518060e0016040529081600082015481526020016001820160009054906101000a900473ffffffffffffffffffffffffffffffffffffffff1673ffffffffffffffffffffffffffffffffffffffff1673ffffffffffffffffffffffffffffffffffffffff1681526020016002820160009054906101000a900473ffffffffffffffffffffffffffffffffffffffff1673ffffffffffffffffffffffffffffffffffffffff1673ffffffffffffffffffffffffffffffffffffffff1681526020016003820160009054906101000a900473ffffffffffffffffffffffffffffffffffffffff1673ffffffffffffffffffffffffffffffffffffffff1673ffffffffffffffffffffffffffffffffffffffff16815260200160048201548152602001600582015481526020016006820160009054906101000a900460ff1615151515815250508486815181106110c3576110c2613aa5565b5b60200260200101819052506001856110db9190613a71565b945050505b80806110eb90613ad4565b915050610ec4565b508094505050505090565b60008061110a8361245d565b9050600073ffffffffffffffffffffffffffffffffffffffff168173ffffffffffffffffffffffffffffffffffffffff160361117b576040517f08c379a000000000000000000000000000000000000000000000000000000000815260040161117290613d33565b60405180910390fd5b80915050919050565b3373ffffffffffffffffffffffffffffffffffffffff16600c600084815260200190815260200160002060030160009054906101000a900473ffffffffffffffffffffffffffffffffffffffff1673ffffffffffffffffffffffffffffffffffffffff1614611228576040517f08c379a000000000000000000000000000000000000000000000000000000000815260040161121f90613dc5565b60405180910390fd5b600a54341461126c576040517f08c379a000000000000000000000000000000000000000000000000000000000815260040161126390613e57565b60405180910390fd5b6000600c600084815260200190815260200160002060060160006101000a81548160ff02191690831515021790555080600c60008481526020019081526020016000206005018190555033600c600084815260200190815260200160002060020160006101000a81548173ffffffffffffffffffffffffffffffffffffffff021916908373ffffffffffffffffffffffffffffffffffffffff16021790555030600c600084815260200190815260200160002060030160006101000a81548173ffffffffffffffffffffffffffffffffffffffff021916908373ffffffffffffffffffffffffffffffffffffffff16021790555061136a600961249a565b611375333084612164565b5050565b60008073ffffffffffffffffffffffffffffffffffffffff168273ffffffffffffffffffffffffffffffffffffffff16036113e9576040517f08c379a00000000000000000000000000000000000000000000000000000000081526004016113e090613ee9565b60405180910390fd5b600360008373ffffffffffffffffffffffffffffffffffffffff1673ffffffffffffffffffffffffffffffffffffffff168152602001908152602001600020549050919050565b3073ffffffffffffffffffffffffffffffffffffffff166342842e0e3083856040518463ffffffff1660e01b815260040161146d93929190613f09565b600060405180830381600087803b15801561148757600080fd5b505af115801561149b573d6000803e3d6000fd5b505050505050565b6060600180546114b2906138b9565b80601f01602080910402602001604051908101604052809291908181526020018280546114de906138b9565b801561152b5780601f106115005761010080835404028352916020019161152b565b820191906000526020600020905b81548152906001019060200180831161150e57829003601f168201915b5050505050905090565b611547611540612000565b83836124f6565b5050565b6000806000600c60008581526020019081526020016000206040518060e0016040529081600082015481526020016001820160009054906101000a900473ffffffffffffffffffffffffffffffffffffffff1673ffffffffffffffffffffffffffffffffffffffff1673ffffffffffffffffffffffffffffffffffffffff1681526020016002820160009054906101000a900473ffffffffffffffffffffffffffffffffffffffff1673ffffffffffffffffffffffffffffffffffffffff1673ffffffffffffffffffffffffffffffffffffffff1681526020016003820160009054906101000a900473ffffffffffffffffffffffffffffffffffffffff1673ffffffffffffffffffffffffffffffffffffffff1673ffffffffffffffffffffffffffffffffffffffff16815260200160048201548152602001600582015481526020016006820160009054906101000a900460ff1615151515815250509050806080015181602001519250925050915091565b600b60009054906101000a900473ffffffffffffffffffffffffffffffffffffffff1673ffffffffffffffffffffffffffffffffffffffff163373ffffffffffffffffffffffffffffffffffffffff161461174f576040517f08c379a000000000000000000000000000000000000000000000000000000000815260040161174690613fb2565b60405180910390fd5b80600a8190555050565b61176a611764612000565b836120cf565b6117a9576040517f08c379a00000000000000000000000000000000000000000000000000000000081526004016117a090613b8e565b60405180910390fd5b6117b584848484612662565b50505050565b6000600c6000838152602001908152602001600020600501549050803414611818576040517f08c379a000000000000000000000000000000000000000000000000000000000815260040161180f90614044565b60405180910390fd5b33600c600084815260200190815260200160002060030160006101000a81548173ffffffffffffffffffffffffffffffffffffffff021916908373ffffffffffffffffffffffffffffffffffffffff1602179055506001600c600084815260200190815260200160002060060160006101000a81548160ff0219169083151502179055506118a660096126be565b6118b1303384612164565b600b60009054906101000a900473ffffffffffffffffffffffffffffffffffffffff1673ffffffffffffffffffffffffffffffffffffffff166108fc600a549081150290604051600060405180830381858888f1935050505015801561191b573d6000803e3d6000fd5b50600c600083815260200190815260200160002060020160009054906101000a900473ffffffffffffffffffffffffffffffffffffffff1673ffffffffffffffffffffffffffffffffffffffff166108fc349081150290604051600060405180830381858888f19350505050158015611998573d6000803e3d6000fd5b505050565b60006119a960086126be565b60006119b560086120c1565b90506119c133826126d4565b6119cb81866128f1565b6119d6818585610b16565b809150509392505050565b606060006119ef60086120c1565b905060008060005b83811015611a97573373ffffffffffffffffffffffffffffffffffffffff16600c6000600184611a279190613a71565b815260200190815260200160002060030160009054906101000a900473ffffffffffffffffffffffffffffffffffffffff1673ffffffffffffffffffffffffffffffffffffffff1603611a8457600183611a819190613a71565b92505b8080611a8f90613ad4565b9150506119f7565b5060008267ffffffffffffffff811115611ab457611ab361358c565b5b604051908082528060200260200182016040528015611aed57816020015b611ada612e96565b815260200190600190039081611ad25790505b50905060005b84811015611d22573373ffffffffffffffffffffffffffffffffffffffff16600c6000600184611b239190613a71565b815260200190815260200160002060030160009054906101000a900473ffffffffffffffffffffffffffffffffffffffff1673ffffffffffffffffffffffffffffffffffffffff1603611d0f576000600182611b7f9190613a71565b90506000600c60008381526020019081526020016000209050806040518060e0016040529081600082015481526020016001820160009054906101000a900473ffffffffffffffffffffffffffffffffffffffff1673ffffffffffffffffffffffffffffffffffffffff1673ffffffffffffffffffffffffffffffffffffffff1681526020016002820160009054906101000a900473ffffffffffffffffffffffffffffffffffffffff1673ffffffffffffffffffffffffffffffffffffffff1673ffffffffffffffffffffffffffffffffffffffff1681526020016003820160009054906101000a900473ffffffffffffffffffffffffffffffffffffffff1673ffffffffffffffffffffffffffffffffffffffff1673ffffffffffffffffffffffffffffffffffffffff16815260200160048201548152602001600582015481526020016006820160009054906101000a900460ff161515151581525050848681518110611cf257611cf1613aa5565b5b6020026020010181905250600185611d0a9190613a71565b945050505b8080611d1a90613ad4565b915050611af3565b508094505050505090565b6060611d3882611fb5565b6000600660008481526020019081526020016000208054611d58906138b9565b80601f0160208091040260200160405190810160405280929190818152602001828054611d84906138b9565b8015611dd15780601f10611da657610100808354040283529160200191611dd1565b820191906000526020600020905b815481529060010190602001808311611db457829003601f168201915b505050505090506000611de2612995565b90506000815103611df7578192505050611e3a565b600082511115611e2c578082604051602001611e149291906140a0565b60405160208183030381529060405292505050611e3a565b611e35846129ac565b925050505b919050565b6000600560008473ffffffffffffffffffffffffffffffffffffffff1673ffffffffffffffffffffffffffffffffffffffff16815260200190815260200160002060008373ffffffffffffffffffffffffffffffffffffffff1673ffffffffffffffffffffffffffffffffffffffff16815260200190815260200160002060009054906101000a900460ff16905092915050565b60007f80ac58cd000000000000000000000000000000000000000000000000000000007bffffffffffffffffffffffffffffffffffffffffffffffffffffffff1916827bffffffffffffffffffffffffffffffffffffffffffffffffffffffff19161480611f9e57507f5b5e139f000000000000000000000000000000000000000000000000000000007bffffffffffffffffffffffffffffffffffffffffffffffffffffffff1916827bffffffffffffffffffffffffffffffffffffffffffffffffffffffff1916145b80611fae5750611fad82612a14565b5b9050919050565b611fbe81612a7e565b611ffd576040517f08c379a0000000000000000000000000000000000000000000000000000000008152600401611ff490613d33565b60405180910390fd5b50565b600033905090565b816004600083815260200190815260200160002060006101000a81548173ffffffffffffffffffffffffffffffffffffffff021916908373ffffffffffffffffffffffffffffffffffffffff160217905550808273ffffffffffffffffffffffffffffffffffffffff1661207b836110fe565b73ffffffffffffffffffffffffffffffffffffffff167f8c5be1e5ebec7d5bd14f71427d1e84f3dd0314c0f7b2291e5b200ac8c7c3b92560405160405180910390a45050565b600081600001549050919050565b6000806120db836110fe565b90508073ffffffffffffffffffffffffffffffffffffffff168473ffffffffffffffffffffffffffffffffffffffff16148061211d575061211c8185611e3f565b5b8061215b57508373ffffffffffffffffffffffffffffffffffffffff1661214384610687565b73ffffffffffffffffffffffffffffffffffffffff16145b91505092915050565b8273ffffffffffffffffffffffffffffffffffffffff16612184826110fe565b73ffffffffffffffffffffffffffffffffffffffff16146121da576040517f08c379a00000000000000000000000000000000000000000000000000000000081526004016121d190614136565b60405180910390fd5b600073ffffffffffffffffffffffffffffffffffffffff168273ffffffffffffffffffffffffffffffffffffffff1603612249576040517f08c379a0000000000000000000000000000000000000000000000000000000008152600401612240906141c8565b60405180910390fd5b6122568383836001612abf565b8273ffffffffffffffffffffffffffffffffffffffff16612276826110fe565b73ffffffffffffffffffffffffffffffffffffffff16146122cc576040517f08c379a00000000000000000000000000000000000000000000000000000000081526004016122c390614136565b60405180910390fd5b6004600082815260200190815260200160002060006101000a81549073ffffffffffffffffffffffffffffffffffffffff02191690556001600360008573ffffffffffffffffffffffffffffffffffffffff1673ffffffffffffffffffffffffffffffffffffffff168152602001908152602001600020600082825403925050819055506001600360008473ffffffffffffffffffffffffffffffffffffffff1673ffffffffffffffffffffffffffffffffffffffff16815260200190815260200160002060008282540192505081905550816002600083815260200190815260200160002060006101000a81548173ffffffffffffffffffffffffffffffffffffffff021916908373ffffffffffffffffffffffffffffffffffffffff160217905550808273ffffffffffffffffffffffffffffffffffffffff168473ffffffffffffffffffffffffffffffffffffffff167fddf252ad1be2c89b69c2b068fc378daa952ba7f163c4a11628f55a4df523b3ef60405160405180910390a46124588383836001612ac5565b505050565b60006002600083815260200190815260200160002060009054906101000a900473ffffffffffffffffffffffffffffffffffffffff169050919050565b600081600001549050600081116124e6576040517f08c379a00000000000000000000000000000000000000000000000000000000081526004016124dd90614234565b60405180910390fd5b6001810382600001819055505050565b8173ffffffffffffffffffffffffffffffffffffffff168373ffffffffffffffffffffffffffffffffffffffff1603612564576040517f08c379a000000000000000000000000000000000000000000000000000000000815260040161255b906142a0565b60405180910390fd5b80600560008573ffffffffffffffffffffffffffffffffffffffff1673ffffffffffffffffffffffffffffffffffffffff16815260200190815260200160002060008473ffffffffffffffffffffffffffffffffffffffff1673ffffffffffffffffffffffffffffffffffffffff16815260200190815260200160002060006101000a81548160ff0219169083151502179055508173ffffffffffffffffffffffffffffffffffffffff168373ffffffffffffffffffffffffffffffffffffffff167f17307eab39ab6107e8899845ad3d59bd9653f200f220920489ca2b5937696c31836040516126559190612fcb565b60405180910390a3505050565b61266d848484612164565b61267984848484612acb565b6126b8576040517f08c379a00000000000000000000000000000000000000000000000000000000081526004016126af90614332565b60405180910390fd5b50505050565b6001816000016000828254019250508190555050565b600073ffffffffffffffffffffffffffffffffffffffff168273ffffffffffffffffffffffffffffffffffffffff1603612743576040517f08c379a000000000000000000000000000000000000000000000000000000000815260040161273a9061439e565b60405180910390fd5b61274c81612a7e565b1561278c576040517f08c379a00000000000000000000000000000000000000000000000000000000081526004016127839061440a565b60405180910390fd5b61279a600083836001612abf565b6127a381612a7e565b156127e3576040517f08c379a00000000000000000000000000000000000000000000000000000000081526004016127da9061440a565b60405180910390fd5b6001600360008473ffffffffffffffffffffffffffffffffffffffff1673ffffffffffffffffffffffffffffffffffffffff16815260200190815260200160002060008282540192505081905550816002600083815260200190815260200160002060006101000a81548173ffffffffffffffffffffffffffffffffffffffff021916908373ffffffffffffffffffffffffffffffffffffffff160217905550808273ffffffffffffffffffffffffffffffffffffffff16600073ffffffffffffffffffffffffffffffffffffffff167fddf252ad1be2c89b69c2b068fc378daa952ba7f163c4a11628f55a4df523b3ef60405160405180910390a46128ed600083836001612ac5565b5050565b6128fa82612a7e565b612939576040517f08c379a00000000000000000000000000000000000000000000000000000000081526004016129309061449c565b60405180910390fd5b806006600084815260200190815260200160002090816129599190614668565b507ff8e1a15aba9398e019f0b49df1a4fde98ee17ae345cb5f6b5e2c27f5033e8ce7826040516129899190613370565b60405180910390a15050565b606060405180602001604052806000815250905090565b60606129b782611fb5565b60006129c1612995565b905060008151116129e15760405180602001604052806000815250612a0c565b806129eb84612c52565b6040516020016129fc9291906140a0565b6040516020818303038152906040525b915050919050565b60007f01ffc9a7000000000000000000000000000000000000000000000000000000007bffffffffffffffffffffffffffffffffffffffffffffffffffffffff1916827bffffffffffffffffffffffffffffffffffffffffffffffffffffffff1916149050919050565b60008073ffffffffffffffffffffffffffffffffffffffff16612aa08361245d565b73ffffffffffffffffffffffffffffffffffffffff1614159050919050565b50505050565b50505050565b6000612aec8473ffffffffffffffffffffffffffffffffffffffff16612d20565b15612c45578373ffffffffffffffffffffffffffffffffffffffff1663150b7a02612b15612000565b8786866040518563ffffffff1660e01b8152600401612b37949392919061478f565b6020604051808303816000875af1925050508015612b7357506040513d601f19601f82011682018060405250810190612b7091906147f0565b60015b612bf5573d8060008114612ba3576040519150601f19603f3d011682016040523d82523d6000602084013e612ba8565b606091505b506000815103612bed576040517f08c379a0000000000000000000000000000000000000000000000000000000008152600401612be490614332565b60405180910390fd5b805181602001fd5b63150b7a0260e01b7bffffffffffffffffffffffffffffffffffffffffffffffffffffffff1916817bffffffffffffffffffffffffffffffffffffffffffffffffffffffff191614915050612c4a565b600190505b949350505050565b606060006001612c6184612d43565b01905060008167ffffffffffffffff811115612c8057612c7f61358c565b5b6040519080825280601f01601f191660200182016040528015612cb25781602001600182028036833780820191505090505b509050600082602001820190505b600115612d15578080600190039150507f3031323334353637383961626364656600000000000000000000000000000000600a86061a8153600a8581612d0957612d0861481d565b5b04945060008503612cc0575b819350505050919050565b6000808273ffffffffffffffffffffffffffffffffffffffff163b119050919050565b600080600090507a184f03e93ff9f4daa797ed6e38ed64bf6a1f0100000000000000008310612da1577a184f03e93ff9f4daa797ed6e38ed64bf6a1f0100000000000000008381612d9757612d9661481d565b5b0492506040810190505b6d04ee2d6d415b85acef81000000008310612dde576d04ee2d6d415b85acef81000000008381612dd457612dd361481d565b5b0492506020810190505b662386f26fc100008310612e0d57662386f26fc100008381612e0357612e0261481d565b5b0492506010810190505b6305f5e1008310612e36576305f5e1008381612e2c57612e2b61481d565b5b0492506008810190505b6127108310612e5b576127108381612e5157612e5061481d565b5b0492506004810190505b60648310612e7e5760648381612e7457612e7361481d565b5b0492506002810190505b600a8310612e8d576001810190505b80915050919050565b6040518060e0016040528060008152602001600073ffffffffffffffffffffffffffffffffffffffff168152602001600073ffffffffffffffffffffffffffffffffffffffff168152602001600073ffffffffffffffffffffffffffffffffffffffff16815260200160008152602001600081526020016000151581525090565b6000604051905090565b600080fd5b600080fd5b60007fffffffff0000000000000000000000000000000000000000000000000000000082169050919050565b612f6081612f2b565b8114612f6b57600080fd5b50565b600081359050612f7d81612f57565b92915050565b600060208284031215612f9957612f98612f21565b5b6000612fa784828501612f6e565b91505092915050565b60008115159050919050565b612fc581612fb0565b82525050565b6000602082019050612fe06000830184612fbc565b92915050565b600081519050919050565b600082825260208201905092915050565b60005b83811015613020578082015181840152602081019050613005565b60008484015250505050565b6000601f19601f8301169050919050565b600061304882612fe6565b6130528185612ff1565b9350613062818560208601613002565b61306b8161302c565b840191505092915050565b60006020820190508181036000830152613090818461303d565b905092915050565b6000819050919050565b6130ab81613098565b81146130b657600080fd5b50565b6000813590506130c8816130a2565b92915050565b6000602082840312156130e4576130e3612f21565b5b60006130f2848285016130b9565b91505092915050565b600073ffffffffffffffffffffffffffffffffffffffff82169050919050565b6000613126826130fb565b9050919050565b6131368161311b565b82525050565b6000602082019050613151600083018461312d565b92915050565b6131608161311b565b811461316b57600080fd5b50565b60008135905061317d81613157565b92915050565b6000806040838503121561319a57613199612f21565b5b60006131a88582860161316e565b92505060206131b9858286016130b9565b9150509250929050565b600081519050919050565b600082825260208201905092915050565b6000819050602082019050919050565b6131f881613098565b82525050565b6000613209826130fb565b9050919050565b613219816131fe565b82525050565b61322881612fb0565b82525050565b60e08201600082015161324460008501826131ef565b5060208201516132576020850182613210565b50604082015161326a6040850182613210565b50606082015161327d6060850182613210565b50608082015161329060808501826131ef565b5060a08201516132a360a08501826131ef565b5060c08201516132b660c085018261321f565b50505050565b60006132c8838361322e565b60e08301905092915050565b6000602082019050919050565b60006132ec826131c3565b6132f681856131ce565b9350613301836131df565b8060005b8381101561333257815161331988826132bc565b9750613324836132d4565b925050600181019050613305565b5085935050505092915050565b6000602082019050818103600083015261335981846132e1565b905092915050565b61336a81613098565b82525050565b60006020820190506133856000830184613361565b92915050565b6000806000606084860312156133a4576133a3612f21565b5b60006133b28682870161316e565b93505060206133c38682870161316e565b92505060406133d4868287016130b9565b9150509250925092565b6000806000606084860312156133f7576133f6612f21565b5b6000613405868287016130b9565b9350506020613416868287016130b9565b9250506040613427868287016130b9565b9150509250925092565b6000806040838503121561344857613447612f21565b5b6000613456858286016130b9565b9250506020613467858286016130b9565b9150509250929050565b60006020828403121561348757613486612f21565b5b60006134958482850161316e565b91505092915050565b600080604083850312156134b5576134b4612f21565b5b60006134c3858286016130b9565b92505060206134d48582860161316e565b9150509250929050565b6134e781612fb0565b81146134f257600080fd5b50565b600081359050613504816134de565b92915050565b6000806040838503121561352157613520612f21565b5b600061352f8582860161316e565b9250506020613540858286016134f5565b9150509250929050565b613553816131fe565b82525050565b600060408201905061356e6000830185613361565b61357b602083018461354a565b9392505050565b600080fd5b600080fd5b7f4e487b7100000000000000000000000000000000000000000000000000000000600052604160045260246000fd5b6135c48261302c565b810181811067ffffffffffffffff821117156135e3576135e261358c565b5b80604052505050565b60006135f6612f17565b905061360282826135bb565b919050565b600067ffffffffffffffff8211156136225761362161358c565b5b61362b8261302c565b9050602081019050919050565b82818337600083830152505050565b600061365a61365584613607565b6135ec565b90508281526020810184848401111561367657613675613587565b5b613681848285613638565b509392505050565b600082601f83011261369e5761369d613582565b5b81356136ae848260208601613647565b91505092915050565b600080600080608085870312156136d1576136d0612f21565b5b60006136df8782880161316e565b94505060206136f08782880161316e565b9350506040613701878288016130b9565b925050606085013567ffffffffffffffff81111561372257613721612f26565b5b61372e87828801613689565b91505092959194509250565b600067ffffffffffffffff8211156137555761375461358c565b5b61375e8261302c565b9050602081019050919050565b600061377e6137798461373a565b6135ec565b90508281526020810184848401111561379a57613799613587565b5b6137a5848285613638565b509392505050565b600082601f8301126137c2576137c1613582565b5b81356137d284826020860161376b565b91505092915050565b6000806000606084860312156137f4576137f3612f21565b5b600084013567ffffffffffffffff81111561381257613811612f26565b5b61381e868287016137ad565b935050602061382f868287016130b9565b9250506040613840868287016130b9565b9150509250925092565b6000806040838503121561386157613860612f21565b5b600061386f8582860161316e565b92505060206138808582860161316e565b9150509250929050565b7f4e487b7100000000000000000000000000000000000000000000000000000000600052602260045260246000fd5b600060028204905060018216806138d157607f821691505b6020821081036138e4576138e361388a565b5b50919050565b7f4552433732313a20617070726f76616c20746f2063757272656e74206f776e6560008201527f7200000000000000000000000000000000000000000000000000000000000000602082015250565b6000613946602183612ff1565b9150613951826138ea565b604082019050919050565b6000602082019050818103600083015261397581613939565b9050919050565b7f4552433732313a20617070726f76652063616c6c6572206973206e6f7420746f60008201527f6b656e206f776e6572206f7220617070726f76656420666f7220616c6c000000602082015250565b60006139d8603d83612ff1565b91506139e38261397c565b604082019050919050565b60006020820190508181036000830152613a07816139cb565b9050919050565b7f4e487b7100000000000000000000000000000000000000000000000000000000600052601160045260246000fd5b6000613a4882613098565b9150613a5383613098565b9250828203905081811115613a6b57613a6a613a0e565b5b92915050565b6000613a7c82613098565b9150613a8783613098565b9250828201905080821115613a9f57613a9e613a0e565b5b92915050565b7f4e487b7100000000000000000000000000000000000000000000000000000000600052603260045260246000fd5b6000613adf82613098565b91507fffffffffffffffffffffffffffffffffffffffffffffffffffffffffffffffff8203613b1157613b10613a0e565b5b600182019050919050565b7f4552433732313a2063616c6c6572206973206e6f7420746f6b656e206f776e6560008201527f72206f7220617070726f76656400000000000000000000000000000000000000602082015250565b6000613b78602d83612ff1565b9150613b8382613b1c565b604082019050919050565b60006020820190508181036000830152613ba781613b6b565b9050919050565b7f5072696365206d757374206265206174206c6561737420312077656900000000600082015250565b6000613be4601c83612ff1565b9150613bef82613bae565b602082019050919050565b60006020820190508181036000830152613c1381613bd7565b9050919050565b7f5072696365206d757374206265207061696420696e2066756c6c000000000000600082015250565b6000613c50601a83612ff1565b9150613c5b82613c1a565b602082019050919050565b60006020820190508181036000830152613c7f81613c43565b9050919050565b600060c082019050613c9b600083018961312d565b613ca8602083018861312d565b613cb5604083018761312d565b613cc26060830186613361565b613ccf6080830185613361565b613cdc60a0830184612fbc565b979650505050505050565b7f4552433732313a20696e76616c696420746f6b656e2049440000000000000000600082015250565b6000613d1d601883612ff1565b9150613d2882613ce7565b602082019050919050565b60006020820190508181036000830152613d4c81613d10565b9050919050565b7f746f6b656e2063616e206f6e6c79206265207265736f6c64206279206f776e6560008201527f7200000000000000000000000000000000000000000000000000000000000000602082015250565b6000613daf602183612ff1565b9150613dba82613d53565b604082019050919050565b60006020820190508181036000830152613dde81613da2565b9050919050565b7f5072696365206d75737420626520657175616c20746f206c697374696e67207060008201527f7269636500000000000000000000000000000000000000000000000000000000602082015250565b6000613e41602483612ff1565b9150613e4c82613de5565b604082019050919050565b60006020820190508181036000830152613e7081613e34565b9050919050565b7f4552433732313a2061646472657373207a65726f206973206e6f74206120766160008201527f6c6964206f776e65720000000000000000000000000000000000000000000000602082015250565b6000613ed3602983612ff1565b9150613ede82613e77565b604082019050919050565b60006020820190508181036000830152613f0281613ec6565b9050919050565b6000606082019050613f1e600083018661312d565b613f2b602083018561312d565b613f386040830184613361565b949350505050565b7f6f6e6c79206f776e6572206f662074686520636f6e74726163742063616e207560008201527f706461746520746865206c697374696e67207072696365000000000000000000602082015250565b6000613f9c603783612ff1565b9150613fa782613f40565b604082019050919050565b60006020820190508181036000830152613fcb81613f8f565b9050919050565b7f506c65617365207375626d6974207468652061736b696e67207072696365206960008201527f6e206f7264657220746f20636f6d706c65746520746865207075726368617365602082015250565b600061402e604083612ff1565b915061403982613fd2565b604082019050919050565b6000602082019050818103600083015261405d81614021565b9050919050565b600081905092915050565b600061407a82612fe6565b6140848185614064565b9350614094818560208601613002565b80840191505092915050565b60006140ac828561406f565b91506140b8828461406f565b91508190509392505050565b7f4552433732313a207472616e736665722066726f6d20696e636f72726563742060008201527f6f776e6572000000000000000000000000000000000000000000000000000000602082015250565b6000614120602583612ff1565b915061412b826140c4565b604082019050919050565b6000602082019050818103600083015261414f81614113565b9050919050565b7f4552433732313a207472616e7366657220746f20746865207a65726f2061646460008201527f7265737300000000000000000000000000000000000000000000000000000000602082015250565b60006141b2602483612ff1565b91506141bd82614156565b604082019050919050565b600060208201905081810360008301526141e1816141a5565b9050919050565b7f436f756e7465723a2064656372656d656e74206f766572666c6f770000000000600082015250565b600061421e601b83612ff1565b9150614229826141e8565b602082019050919050565b6000602082019050818103600083015261424d81614211565b9050919050565b7f4552433732313a20617070726f766520746f2063616c6c657200000000000000600082015250565b600061428a601983612ff1565b915061429582614254565b602082019050919050565b600060208201905081810360008301526142b98161427d565b9050919050565b7f4552433732313a207472616e7366657220746f206e6f6e20455243373231526560008201527f63656976657220696d706c656d656e7465720000000000000000000000000000602082015250565b600061431c603283612ff1565b9150614327826142c0565b604082019050919050565b6000602082019050818103600083015261434b8161430f565b9050919050565b7f4552433732313a206d696e7420746f20746865207a65726f2061646472657373600082015250565b6000614388602083612ff1565b915061439382614352565b602082019050919050565b600060208201905081810360008301526143b78161437b565b9050919050565b7f4552433732313a20746f6b656e20616c7265616479206d696e74656400000000600082015250565b60006143f4601c83612ff1565b91506143ff826143be565b602082019050919050565b60006020820190508181036000830152614423816143e7565b9050919050565b7f45524337323155524953746f726167653a2055524920736574206f66206e6f6e60008201527f6578697374656e7420746f6b656e000000000000000000000000000000000000602082015250565b6000614486602e83612ff1565b91506144918261442a565b604082019050919050565b600060208201905081810360008301526144b581614479565b9050919050565b60008190508160005260206000209050919050565b60006020601f8301049050919050565b600082821b905092915050565b60006008830261451e7fffffffffffffffffffffffffffffffffffffffffffffffffffffffffffffffff826144e1565b61452886836144e1565b95508019841693508086168417925050509392505050565b6000819050919050565b600061456561456061455b84613098565b614540565b613098565b9050919050565b6000819050919050565b61457f8361454a565b61459361458b8261456c565b8484546144ee565b825550505050565b600090565b6145a861459b565b6145b3818484614576565b505050565b5b818110156145d7576145cc6000826145a0565b6001810190506145b9565b5050565b601f82111561461c576145ed816144bc565b6145f6846144d1565b81016020851015614605578190505b614619614611856144d1565b8301826145b8565b50505b505050565b600082821c905092915050565b600061463f60001984600802614621565b1980831691505092915050565b6000614658838361462e565b9150826002028217905092915050565b61467182612fe6565b67ffffffffffffffff81111561468a5761468961358c565b5b61469482546138b9565b61469f8282856145db565b600060209050601f8311600181146146d257600084156146c0578287015190505b6146ca858261464c565b865550614732565b601f1984166146e0866144bc565b60005b82811015614708578489015182556001820191506020850194506020810190506146e3565b868310156147255784890151614721601f89168261462e565b8355505b6001600288020188555050505b505050505050565b600081519050919050565b600082825260208201905092915050565b60006147618261473a565b61476b8185614745565b935061477b818560208601613002565b6147848161302c565b840191505092915050565b60006080820190506147a4600083018761312d565b6147b1602083018661312d565b6147be6040830185613361565b81810360608301526147d08184614756565b905095945050505050565b6000815190506147ea81612f57565b92915050565b60006020828403121561480657614805612f21565b5b6000614814848285016147db565b91505092915050565b7f4e487b7100000000000000000000000000000000000000000000000000000000600052601260045260246000fdfea26469706673582212201fc7b76919053e60f4ccc6b84ff0fb88d2cac10f1c18cc1755d43a5d6db7f85b64736f6c63430008130033",
  "linkReferences": {},
  "deployedLinkReferences": {}
}