{
  "_format": "hh-sol-artifact-1",
  "contractName": "Marketplace",
  "sourceName": "contracts/Marketplace.sol",
  "abi": [
    {
      "inputs": [],
      "stateMutability": "nonpayable",
      "type": "constructor"
    },
    {
      "anonymous": false,
      "inputs": [
        {
          "indexed": true,
          "internalType": "address",
          "name": "owner",
          "type": "address"
        },
        {
          "indexed": true,
          "internalType": "address",
          "name": "approved",
          "type": "address"
        },
        {
          "indexed": true,
          "internalType": "uint256",
          "name": "tokenId",
          "type": "uint256"
        }
      ],
      "name": "Approval",
      "type": "event"
    },
    {
      "anonymous": false,
      "inputs": [
        {
          "indexed": true,
          "internalType": "address",
          "name": "owner",
          "type": "address"
        },
        {
          "indexed": true,
          "internalType": "address",
          "name": "operator",
          "type": "address"
        },
        {
          "indexed": false,
          "internalType": "bool",
          "name": "approved",
          "type": "bool"
        }
      ],
      "name": "ApprovalForAll",
      "type": "event"
    },
    {
      "anonymous": false,
      "inputs": [
        {
          "indexed": false,
          "internalType": "uint256",
          "name": "_fromTokenId",
          "type": "uint256"
        },
        {
          "indexed": false,
          "internalType": "uint256",
          "name": "_toTokenId",
          "type": "uint256"
        }
      ],
      "name": "BatchMetadataUpdate",
      "type": "event"
    },
    {
      "anonymous": false,
      "inputs": [
        {
          "indexed": true,
          "internalType": "uint256",
          "name": "tokenId",
          "type": "uint256"
        },
        {
          "indexed": false,
          "internalType": "address",
          "name": "seller",
          "type": "address"
        },
        {
          "indexed": false,
          "internalType": "address",
          "name": "owner",
          "type": "address"
        },
        {
          "indexed": false,
          "internalType": "uint256",
          "name": "price",
          "type": "uint256"
        },
        {
          "indexed": false,
          "internalType": "bool",
          "name": "sold",
          "type": "bool"
        }
      ],
      "name": "MarketItemCreated",
      "type": "event"
    },
    {
      "anonymous": false,
      "inputs": [
        {
          "indexed": false,
          "internalType": "uint256",
          "name": "_tokenId",
          "type": "uint256"
        }
      ],
      "name": "MetadataUpdate",
      "type": "event"
    },
    {
      "anonymous": false,
      "inputs": [
        {
          "indexed": true,
          "internalType": "address",
          "name": "from",
          "type": "address"
        },
        {
          "indexed": true,
          "internalType": "address",
          "name": "to",
          "type": "address"
        },
        {
          "indexed": true,
          "internalType": "uint256",
          "name": "tokenId",
          "type": "uint256"
        }
      ],
      "name": "Transfer",
      "type": "event"
    },
    {
      "inputs": [
        {
          "internalType": "address",
          "name": "to",
          "type": "address"
        },
        {
          "internalType": "uint256",
          "name": "tokenId",
          "type": "uint256"
        }
      ],
      "name": "approve",
      "outputs": [],
      "stateMutability": "nonpayable",
      "type": "function"
    },
    {
      "inputs": [
        {
          "internalType": "address",
          "name": "owner",
          "type": "address"
        }
      ],
      "name": "balanceOf",
      "outputs": [
        {
          "internalType": "uint256",
          "name": "",
          "type": "uint256"
        }
      ],
      "stateMutability": "view",
      "type": "function"
    },
    {
      "inputs": [
        {
          "internalType": "uint256",
          "name": "tokenId",
          "type": "uint256"
        },
        {
          "internalType": "uint256",
          "name": "price",
          "type": "uint256"
        }
      ],
      "name": "createMarketItem",
      "outputs": [],
      "stateMutability": "payable",
      "type": "function"
    },
    {
      "inputs": [
        {
          "internalType": "uint256",
          "name": "tokenId",
          "type": "uint256"
        }
      ],
      "name": "createMarketSale",
      "outputs": [],
      "stateMutability": "payable",
      "type": "function"
    },
    {
      "inputs": [
        {
          "internalType": "string",
          "name": "tokenURI",
          "type": "string"
        },
        {
          "internalType": "uint256",
          "name": "price",
          "type": "uint256"
        }
      ],
      "name": "createToken",
      "outputs": [
        {
          "internalType": "uint256",
          "name": "",
          "type": "uint256"
        }
      ],
      "stateMutability": "payable",
      "type": "function"
    },
    {
      "inputs": [],
      "name": "fetchItemsListed",
      "outputs": [
        {
          "components": [
            {
              "internalType": "uint256",
              "name": "tokenId",
              "type": "uint256"
            },
            {
              "internalType": "address payable",
              "name": "seller",
              "type": "address"
            },
            {
              "internalType": "address payable",
              "name": "owner",
              "type": "address"
            },
            {
              "internalType": "uint256",
              "name": "price",
              "type": "uint256"
            },
            {
              "internalType": "bool",
              "name": "sold",
              "type": "bool"
            }
          ],
          "internalType": "struct Marketplace.MarketItem[]",
          "name": "",
          "type": "tuple[]"
        }
      ],
      "stateMutability": "view",
      "type": "function"
    },
    {
      "inputs": [],
      "name": "fetchMarketItems",
      "outputs": [
        {
          "components": [
            {
              "internalType": "uint256",
              "name": "tokenId",
              "type": "uint256"
            },
            {
              "internalType": "address payable",
              "name": "seller",
              "type": "address"
            },
            {
              "internalType": "address payable",
              "name": "owner",
              "type": "address"
            },
            {
              "internalType": "uint256",
              "name": "price",
              "type": "uint256"
            },
            {
              "internalType": "bool",
              "name": "sold",
              "type": "bool"
            }
          ],
          "internalType": "struct Marketplace.MarketItem[]",
          "name": "",
          "type": "tuple[]"
        }
      ],
      "stateMutability": "view",
      "type": "function"
    },
    {
      "inputs": [],
      "name": "fetchMyNFT",
      "outputs": [
        {
          "components": [
            {
              "internalType": "uint256",
              "name": "tokenId",
              "type": "uint256"
            },
            {
              "internalType": "address payable",
              "name": "seller",
              "type": "address"
            },
            {
              "internalType": "address payable",
              "name": "owner",
              "type": "address"
            },
            {
              "internalType": "uint256",
              "name": "price",
              "type": "uint256"
            },
            {
              "internalType": "bool",
              "name": "sold",
              "type": "bool"
            }
          ],
          "internalType": "struct Marketplace.MarketItem[]",
          "name": "",
          "type": "tuple[]"
        }
      ],
      "stateMutability": "view",
      "type": "function"
    },
    {
      "inputs": [
        {
          "internalType": "uint256",
          "name": "tokenId",
          "type": "uint256"
        }
      ],
      "name": "getApproved",
      "outputs": [
        {
          "internalType": "address",
          "name": "",
          "type": "address"
        }
      ],
      "stateMutability": "view",
      "type": "function"
    },
    {
      "inputs": [],
      "name": "getListingPrice",
      "outputs": [
        {
          "internalType": "uint256",
          "name": "",
          "type": "uint256"
        }
      ],
      "stateMutability": "view",
      "type": "function"
    },
    {
      "inputs": [
        {
          "internalType": "address",
          "name": "owner",
          "type": "address"
        },
        {
          "internalType": "address",
          "name": "operator",
          "type": "address"
        }
      ],
      "name": "isApprovedForAll",
      "outputs": [
        {
          "internalType": "bool",
          "name": "",
          "type": "bool"
        }
      ],
      "stateMutability": "view",
      "type": "function"
    },
    {
      "inputs": [],
      "name": "name",
      "outputs": [
        {
          "internalType": "string",
          "name": "",
          "type": "string"
        }
      ],
      "stateMutability": "view",
      "type": "function"
    },
    {
      "inputs": [
        {
          "internalType": "uint256",
          "name": "tokenId",
          "type": "uint256"
        }
      ],
      "name": "ownerOf",
      "outputs": [
        {
          "internalType": "address",
          "name": "",
          "type": "address"
        }
      ],
      "stateMutability": "view",
      "type": "function"
    },
    {
      "inputs": [
        {
          "internalType": "uint256",
          "name": "tokenId",
          "type": "uint256"
        },
        {
          "internalType": "uint256",
          "name": "price",
          "type": "uint256"
        }
      ],
      "name": "resellMarketItem",
      "outputs": [],
      "stateMutability": "payable",
      "type": "function"
    },
    {
      "inputs": [
        {
          "internalType": "address",
          "name": "from",
          "type": "address"
        },
        {
          "internalType": "address",
          "name": "to",
          "type": "address"
        },
        {
          "internalType": "uint256",
          "name": "tokenId",
          "type": "uint256"
        }
      ],
      "name": "safeTransferFrom",
      "outputs": [],
      "stateMutability": "nonpayable",
      "type": "function"
    },
    {
      "inputs": [
        {
          "internalType": "address",
          "name": "from",
          "type": "address"
        },
        {
          "internalType": "address",
          "name": "to",
          "type": "address"
        },
        {
          "internalType": "uint256",
          "name": "tokenId",
          "type": "uint256"
        },
        {
          "internalType": "bytes",
          "name": "data",
          "type": "bytes"
        }
      ],
      "name": "safeTransferFrom",
      "outputs": [],
      "stateMutability": "nonpayable",
      "type": "function"
    },
    {
      "inputs": [
        {
          "internalType": "address",
          "name": "operator",
          "type": "address"
        },
        {
          "internalType": "bool",
          "name": "approved",
          "type": "bool"
        }
      ],
      "name": "setApprovalForAll",
      "outputs": [],
      "stateMutability": "nonpayable",
      "type": "function"
    },
    {
      "inputs": [
        {
          "internalType": "bytes4",
          "name": "interfaceId",
          "type": "bytes4"
        }
      ],
      "name": "supportsInterface",
      "outputs": [
        {
          "internalType": "bool",
          "name": "",
          "type": "bool"
        }
      ],
      "stateMutability": "view",
      "type": "function"
    },
    {
      "inputs": [],
      "name": "symbol",
      "outputs": [
        {
          "internalType": "string",
          "name": "",
          "type": "string"
        }
      ],
      "stateMutability": "view",
      "type": "function"
    },
    {
      "inputs": [
        {
          "internalType": "uint256",
          "name": "tokenId",
          "type": "uint256"
        }
      ],
      "name": "tokenURI",
      "outputs": [
        {
          "internalType": "string",
          "name": "",
          "type": "string"
        }
      ],
      "stateMutability": "view",
      "type": "function"
    },
    {
      "inputs": [
        {
          "internalType": "address",
          "name": "from",
          "type": "address"
        },
        {
          "internalType": "address",
          "name": "to",
          "type": "address"
        },
        {
          "internalType": "uint256",
          "name": "tokenId",
          "type": "uint256"
        }
      ],
      "name": "transferFrom",
      "outputs": [],
      "stateMutability": "nonpayable",
      "type": "function"
    },
    {
      "inputs": [
        {
          "internalType": "uint256",
          "name": "_listingPrice",
          "type": "uint256"
        }
      ],
      "name": "updateListingPrice",
      "outputs": [],
      "stateMutability": "payable",
      "type": "function"
    }
  ],
  "bytecode": "0x60806040526608e1bc9bf040006009553480156200001c57600080fd5b506040518060400160405280601381526020017f4e4654204d657461766572736520546f6b656e000000000000000000000000008152506040518060400160405280600581526020017f4d594e465400000000000000000000000000000000000000000000000000000081525081600090816200009a919062000370565b508060019081620000ac919062000370565b50505033600a60006101000a81548173ffffffffffffffffffffffffffffffffffffffff021916908373ffffffffffffffffffffffffffffffffffffffff16021790555062000457565b600081519050919050565b7f4e487b7100000000000000000000000000000000000000000000000000000000600052604160045260246000fd5b7f4e487b7100000000000000000000000000000000000000000000000000000000600052602260045260246000fd5b600060028204905060018216806200017857607f821691505b6020821081036200018e576200018d62000130565b5b50919050565b60008190508160005260206000209050919050565b60006020601f8301049050919050565b600082821b905092915050565b600060088302620001f87fffffffffffffffffffffffffffffffffffffffffffffffffffffffffffffffff82620001b9565b620002048683620001b9565b95508019841693508086168417925050509392505050565b6000819050919050565b6000819050919050565b6000620002516200024b62000245846200021c565b62000226565b6200021c565b9050919050565b6000819050919050565b6200026d8362000230565b620002856200027c8262000258565b848454620001c6565b825550505050565b600090565b6200029c6200028d565b620002a981848462000262565b505050565b5b81811015620002d157620002c560008262000292565b600181019050620002af565b5050565b601f8211156200032057620002ea8162000194565b620002f584620001a9565b8101602085101562000305578190505b6200031d6200031485620001a9565b830182620002ae565b50505b505050565b600082821c905092915050565b6000620003456000198460080262000325565b1980831691505092915050565b600062000360838362000332565b9150826002028217905092915050565b6200037b82620000f6565b67ffffffffffffffff81111562000397576200039662000101565b5b620003a382546200015f565b620003b0828285620002d5565b600060209050601f831160018114620003e85760008415620003d3578287015190505b620003df858262000352565b8655506200044f565b601f198416620003f88662000194565b60005b828110156200042257848901518255600182019150602085019450602081019050620003fb565b868310156200044257848901516200043e601f89168262000332565b8355505b6001600288020188555050505b505050505050565b61430980620004676000396000f3fe6080604052600436106101355760003560e01c80636b52d832116100ab578063ae677aa31161006f578063ae677aa314610411578063b88d4fde1461042d578063be9af53614610456578063c18763f714610472578063c87b56dd1461049d578063e985e9c5146104da57610135565b80636b52d8321461033457806370a082311461035057806372b3b6201461038d57806395d89b41146103bd578063a22cb465146103e857610135565b806312e85585116100fd57806312e855851461023357806323b872dd1461025e578063361c19951461028757806342842e0e146102a357806345f8fa80146102cc5780636352211e146102f757610135565b806301ffc9a71461013a57806306fdde0314610177578063081812fc146101a2578063095ea7b3146101df5780630f08efe014610208575b600080fd5b34801561014657600080fd5b50610161600480360381019061015c9190612b61565b610517565b60405161016e9190612ba9565b60405180910390f35b34801561018357600080fd5b5061018c610578565b6040516101999190612c54565b60405180910390f35b3480156101ae57600080fd5b506101c960048036038101906101c49190612cac565b61060a565b6040516101d69190612d1a565b60405180910390f35b3480156101eb57600080fd5b5061020660048036038101906102019190612d61565b610650565b005b34801561021457600080fd5b5061021d610767565b60405161022a9190612ef7565b60405180910390f35b34801561023f57600080fd5b506102486109cf565b6040516102559190612f28565b60405180910390f35b34801561026a57600080fd5b5061028560048036038101906102809190612f43565b6109d9565b005b6102a1600480360381019061029c9190612f96565b610a39565b005b3480156102af57600080fd5b506102ca60048036038101906102c59190612f43565b610c3d565b005b3480156102d857600080fd5b506102e1610c5d565b6040516102ee9190612ef7565b60405180910390f35b34801561030357600080fd5b5061031e60048036038101906103199190612cac565b610f49565b60405161032b9190612d1a565b60405180910390f35b61034e60048036038101906103499190612f96565b610fcf565b005b34801561035c57600080fd5b5061037760048036038101906103729190612fd6565b6111c4565b6040516103849190612f28565b60405180910390f35b6103a760048036038101906103a29190613138565b61127b565b6040516103b49190612f28565b60405180910390f35b3480156103c957600080fd5b506103d26112bd565b6040516103df9190612c54565b60405180910390f35b3480156103f457600080fd5b5061040f600480360381019061040a91906131c0565b61134f565b005b61042b60048036038101906104269190612cac565b611365565b005b34801561043957600080fd5b50610454600480360381019061044f91906132a1565b6113ff565b005b610470600480360381019061046b9190612cac565b611461565b005b34801561047e57600080fd5b50610487611643565b6040516104949190612ef7565b60405180910390f35b3480156104a957600080fd5b506104c460048036038101906104bf9190612cac565b61192f565b6040516104d19190612c54565b60405180910390f35b3480156104e657600080fd5b5061050160048036038101906104fc9190613324565b611a41565b60405161050e9190612ba9565b60405180910390f35b6000634906490660e01b7bffffffffffffffffffffffffffffffffffffffffffffffffffffffff1916827bffffffffffffffffffffffffffffffffffffffffffffffffffffffff19161480610571575061057082611ad5565b5b9050919050565b60606000805461058790613393565b80601f01602080910402602001604051908101604052809291908181526020018280546105b390613393565b80156106005780601f106105d557610100808354040283529160200191610600565b820191906000526020600020905b8154815290600101906020018083116105e357829003601f168201915b5050505050905090565b600061061582611bb7565b6004600083815260200190815260200160002060009054906101000a900473ffffffffffffffffffffffffffffffffffffffff169050919050565b600061065b82610f49565b90508073ffffffffffffffffffffffffffffffffffffffff168373ffffffffffffffffffffffffffffffffffffffff16036106cb576040517f08c379a00000000000000000000000000000000000000000000000000000000081526004016106c290613436565b60405180910390fd5b8073ffffffffffffffffffffffffffffffffffffffff166106ea611c02565b73ffffffffffffffffffffffffffffffffffffffff161480610719575061071881610713611c02565b611a41565b5b610758576040517f08c379a000000000000000000000000000000000000000000000000000000000815260040161074f906134c8565b60405180910390fd5b6107628383611c0a565b505050565b606060006107756007611cc3565b905060006107836008611cc3565b61078d6007611cc3565b6107979190613517565b90506000808267ffffffffffffffff8111156107b6576107b561300d565b5b6040519080825280602002602001820160405280156107ef57816020015b6107dc612a98565b8152602001906001900390816107d45790505b50905060005b848110156109c4573073ffffffffffffffffffffffffffffffffffffffff16600b6000600184610825919061354b565b815260200190815260200160002060020160009054906101000a900473ffffffffffffffffffffffffffffffffffffffff1673ffffffffffffffffffffffffffffffffffffffff16036109b1576000600182610881919061354b565b90506000600b60008381526020019081526020016000209050806040518060a0016040529081600082015481526020016001820160009054906101000a900473ffffffffffffffffffffffffffffffffffffffff1673ffffffffffffffffffffffffffffffffffffffff1673ffffffffffffffffffffffffffffffffffffffff1681526020016002820160009054906101000a900473ffffffffffffffffffffffffffffffffffffffff1673ffffffffffffffffffffffffffffffffffffffff1673ffffffffffffffffffffffffffffffffffffffff168152602001600382015481526020016004820160009054906101000a900460ff1615151515815250508486815181106109945761099361357f565b5b60200260200101819052506001856109ac919061354b565b945050505b80806109bc906135ae565b9150506107f5565b508094505050505090565b6000600954905090565b6109ea6109e4611c02565b82611cd1565b610a29576040517f08c379a0000000000000000000000000000000000000000000000000000000008152600401610a2090613668565b60405180910390fd5b610a34838383611d66565b505050565b60008111610a7c576040517f08c379a0000000000000000000000000000000000000000000000000000000008152600401610a73906136d4565b60405180910390fd5b6009543414610ac0576040517f08c379a0000000000000000000000000000000000000000000000000000000008152600401610ab790613740565b60405180910390fd5b6040518060a001604052808381526020013373ffffffffffffffffffffffffffffffffffffffff1681526020013073ffffffffffffffffffffffffffffffffffffffff16815260200182815260200160001515815250600b60008481526020019081526020016000206000820151816000015560208201518160010160006101000a81548173ffffffffffffffffffffffffffffffffffffffff021916908373ffffffffffffffffffffffffffffffffffffffff16021790555060408201518160020160006101000a81548173ffffffffffffffffffffffffffffffffffffffff021916908373ffffffffffffffffffffffffffffffffffffffff1602179055506060820151816003015560808201518160040160006101000a81548160ff021916908315150217905550905050610bf9333084611d66565b817fb640004f1d14576d0c209e240cad0410e0d8c0c33a09375861fbadae2588a98d336000846000604051610c319493929190613760565b60405180910390a25050565b610c58838383604051806020016040528060008152506113ff565b505050565b60606000610c6b6007611cc3565b905060008060005b83811015610d13573373ffffffffffffffffffffffffffffffffffffffff16600b6000600184610ca3919061354b565b815260200190815260200160002060010160009054906101000a900473ffffffffffffffffffffffffffffffffffffffff1673ffffffffffffffffffffffffffffffffffffffff1603610d0057600183610cfd919061354b565b92505b8080610d0b906135ae565b915050610c73565b5060008267ffffffffffffffff811115610d3057610d2f61300d565b5b604051908082528060200260200182016040528015610d6957816020015b610d56612a98565b815260200190600190039081610d4e5790505b50905060005b84811015610f3e573373ffffffffffffffffffffffffffffffffffffffff16600b6000600184610d9f919061354b565b815260200190815260200160002060010160009054906101000a900473ffffffffffffffffffffffffffffffffffffffff1673ffffffffffffffffffffffffffffffffffffffff1603610f2b576000600182610dfb919061354b565b90506000600b60008381526020019081526020016000209050806040518060a0016040529081600082015481526020016001820160009054906101000a900473ffffffffffffffffffffffffffffffffffffffff1673ffffffffffffffffffffffffffffffffffffffff1673ffffffffffffffffffffffffffffffffffffffff1681526020016002820160009054906101000a900473ffffffffffffffffffffffffffffffffffffffff1673ffffffffffffffffffffffffffffffffffffffff1673ffffffffffffffffffffffffffffffffffffffff168152602001600382015481526020016004820160009054906101000a900460ff161515151581525050848681518110610f0e57610f0d61357f565b5b6020026020010181905250600185610f26919061354b565b945050505b8080610f36906135ae565b915050610d6f565b508094505050505090565b600080610f558361205f565b9050600073ffffffffffffffffffffffffffffffffffffffff168173ffffffffffffffffffffffffffffffffffffffff1603610fc6576040517f08c379a0000000000000000000000000000000000000000000000000000000008152600401610fbd906137f1565b60405180910390fd5b80915050919050565b3373ffffffffffffffffffffffffffffffffffffffff16600b600084815260200190815260200160002060020160009054906101000a900473ffffffffffffffffffffffffffffffffffffffff1673ffffffffffffffffffffffffffffffffffffffff1614611073576040517f08c379a000000000000000000000000000000000000000000000000000000000815260040161106a90613883565b60405180910390fd5b60095434146110b7576040517f08c379a00000000000000000000000000000000000000000000000000000000081526004016110ae90613915565b60405180910390fd5b6000600b600084815260200190815260200160002060040160006101000a81548160ff02191690831515021790555080600b60008481526020019081526020016000206003018190555033600b600084815260200190815260200160002060010160006101000a81548173ffffffffffffffffffffffffffffffffffffffff021916908373ffffffffffffffffffffffffffffffffffffffff16021790555030600b600084815260200190815260200160002060020160006101000a81548173ffffffffffffffffffffffffffffffffffffffff021916908373ffffffffffffffffffffffffffffffffffffffff1602179055506111b5600861209c565b6111c0333084611d66565b5050565b60008073ffffffffffffffffffffffffffffffffffffffff168273ffffffffffffffffffffffffffffffffffffffff1603611234576040517f08c379a000000000000000000000000000000000000000000000000000000000815260040161122b906139a7565b60405180910390fd5b600360008373ffffffffffffffffffffffffffffffffffffffff1673ffffffffffffffffffffffffffffffffffffffff168152602001908152602001600020549050919050565b600061128760076120f8565b60006112936007611cc3565b905061129f338261210e565b6112a9818561232b565b6112b38184610a39565b8091505092915050565b6060600180546112cc90613393565b80601f01602080910402602001604051908101604052809291908181526020018280546112f890613393565b80156113455780601f1061131a57610100808354040283529160200191611345565b820191906000526020600020905b81548152906001019060200180831161132857829003601f168201915b5050505050905090565b61136161135a611c02565b83836123cf565b5050565b600a60009054906101000a900473ffffffffffffffffffffffffffffffffffffffff1673ffffffffffffffffffffffffffffffffffffffff163373ffffffffffffffffffffffffffffffffffffffff16146113f5576040517f08c379a00000000000000000000000000000000000000000000000000000000081526004016113ec90613a39565b60405180910390fd5b8060098190555050565b61141061140a611c02565b83611cd1565b61144f576040517f08c379a000000000000000000000000000000000000000000000000000000000815260040161144690613668565b60405180910390fd5b61145b8484848461253b565b50505050565b6000600b60008381526020019081526020016000206003015490508034146114be576040517f08c379a00000000000000000000000000000000000000000000000000000000081526004016114b590613acb565b60405180910390fd5b33600b600084815260200190815260200160002060020160006101000a81548173ffffffffffffffffffffffffffffffffffffffff021916908373ffffffffffffffffffffffffffffffffffffffff1602179055506001600b600084815260200190815260200160002060040160006101000a81548160ff02191690831515021790555061154c60086120f8565b611557303384611d66565b600a60009054906101000a900473ffffffffffffffffffffffffffffffffffffffff1673ffffffffffffffffffffffffffffffffffffffff166108fc6009549081150290604051600060405180830381858888f193505050501580156115c1573d6000803e3d6000fd5b50600b600083815260200190815260200160002060010160009054906101000a900473ffffffffffffffffffffffffffffffffffffffff1673ffffffffffffffffffffffffffffffffffffffff166108fc349081150290604051600060405180830381858888f1935050505015801561163e573d6000803e3d6000fd5b505050565b606060006116516007611cc3565b905060008060005b838110156116f9573373ffffffffffffffffffffffffffffffffffffffff16600b6000600184611689919061354b565b815260200190815260200160002060020160009054906101000a900473ffffffffffffffffffffffffffffffffffffffff1673ffffffffffffffffffffffffffffffffffffffff16036116e6576001836116e3919061354b565b92505b80806116f1906135ae565b915050611659565b5060008267ffffffffffffffff8111156117165761171561300d565b5b60405190808252806020026020018201604052801561174f57816020015b61173c612a98565b8152602001906001900390816117345790505b50905060005b84811015611924573373ffffffffffffffffffffffffffffffffffffffff16600b6000600184611785919061354b565b815260200190815260200160002060020160009054906101000a900473ffffffffffffffffffffffffffffffffffffffff1673ffffffffffffffffffffffffffffffffffffffff16036119115760006001826117e1919061354b565b90506000600b60008381526020019081526020016000209050806040518060a0016040529081600082015481526020016001820160009054906101000a900473ffffffffffffffffffffffffffffffffffffffff1673ffffffffffffffffffffffffffffffffffffffff1673ffffffffffffffffffffffffffffffffffffffff1681526020016002820160009054906101000a900473ffffffffffffffffffffffffffffffffffffffff1673ffffffffffffffffffffffffffffffffffffffff1673ffffffffffffffffffffffffffffffffffffffff168152602001600382015481526020016004820160009054906101000a900460ff1615151515815250508486815181106118f4576118f361357f565b5b602002602001018190525060018561190c919061354b565b945050505b808061191c906135ae565b915050611755565b508094505050505090565b606061193a82611bb7565b600060066000848152602001908152602001600020805461195a90613393565b80601f016020809104026020016040519081016040528092919081815260200182805461198690613393565b80156119d35780601f106119a8576101008083540402835291602001916119d3565b820191906000526020600020905b8154815290600101906020018083116119b657829003601f168201915b5050505050905060006119e4612597565b905060008151036119f9578192505050611a3c565b600082511115611a2e578082604051602001611a16929190613b27565b60405160208183030381529060405292505050611a3c565b611a37846125ae565b925050505b919050565b6000600560008473ffffffffffffffffffffffffffffffffffffffff1673ffffffffffffffffffffffffffffffffffffffff16815260200190815260200160002060008373ffffffffffffffffffffffffffffffffffffffff1673ffffffffffffffffffffffffffffffffffffffff16815260200190815260200160002060009054906101000a900460ff16905092915050565b60007f80ac58cd000000000000000000000000000000000000000000000000000000007bffffffffffffffffffffffffffffffffffffffffffffffffffffffff1916827bffffffffffffffffffffffffffffffffffffffffffffffffffffffff19161480611ba057507f5b5e139f000000000000000000000000000000000000000000000000000000007bffffffffffffffffffffffffffffffffffffffffffffffffffffffff1916827bffffffffffffffffffffffffffffffffffffffffffffffffffffffff1916145b80611bb05750611baf82612616565b5b9050919050565b611bc081612680565b611bff576040517f08c379a0000000000000000000000000000000000000000000000000000000008152600401611bf6906137f1565b60405180910390fd5b50565b600033905090565b816004600083815260200190815260200160002060006101000a81548173ffffffffffffffffffffffffffffffffffffffff021916908373ffffffffffffffffffffffffffffffffffffffff160217905550808273ffffffffffffffffffffffffffffffffffffffff16611c7d83610f49565b73ffffffffffffffffffffffffffffffffffffffff167f8c5be1e5ebec7d5bd14f71427d1e84f3dd0314c0f7b2291e5b200ac8c7c3b92560405160405180910390a45050565b600081600001549050919050565b600080611cdd83610f49565b90508073ffffffffffffffffffffffffffffffffffffffff168473ffffffffffffffffffffffffffffffffffffffff161480611d1f5750611d1e8185611a41565b5b80611d5d57508373ffffffffffffffffffffffffffffffffffffffff16611d458461060a565b73ffffffffffffffffffffffffffffffffffffffff16145b91505092915050565b8273ffffffffffffffffffffffffffffffffffffffff16611d8682610f49565b73ffffffffffffffffffffffffffffffffffffffff1614611ddc576040517f08c379a0000000000000000000000000000000000000000000000000000000008152600401611dd390613bbd565b60405180910390fd5b600073ffffffffffffffffffffffffffffffffffffffff168273ffffffffffffffffffffffffffffffffffffffff1603611e4b576040517f08c379a0000000000000000000000000000000000000000000000000000000008152600401611e4290613c4f565b60405180910390fd5b611e5883838360016126c1565b8273ffffffffffffffffffffffffffffffffffffffff16611e7882610f49565b73ffffffffffffffffffffffffffffffffffffffff1614611ece576040517f08c379a0000000000000000000000000000000000000000000000000000000008152600401611ec590613bbd565b60405180910390fd5b6004600082815260200190815260200160002060006101000a81549073ffffffffffffffffffffffffffffffffffffffff02191690556001600360008573ffffffffffffffffffffffffffffffffffffffff1673ffffffffffffffffffffffffffffffffffffffff168152602001908152602001600020600082825403925050819055506001600360008473ffffffffffffffffffffffffffffffffffffffff1673ffffffffffffffffffffffffffffffffffffffff16815260200190815260200160002060008282540192505081905550816002600083815260200190815260200160002060006101000a81548173ffffffffffffffffffffffffffffffffffffffff021916908373ffffffffffffffffffffffffffffffffffffffff160217905550808273ffffffffffffffffffffffffffffffffffffffff168473ffffffffffffffffffffffffffffffffffffffff167fddf252ad1be2c89b69c2b068fc378daa952ba7f163c4a11628f55a4df523b3ef60405160405180910390a461205a83838360016126c7565b505050565b60006002600083815260200190815260200160002060009054906101000a900473ffffffffffffffffffffffffffffffffffffffff169050919050565b600081600001549050600081116120e8576040517f08c379a00000000000000000000000000000000000000000000000000000000081526004016120df90613cbb565b60405180910390fd5b6001810382600001819055505050565b6001816000016000828254019250508190555050565b600073ffffffffffffffffffffffffffffffffffffffff168273ffffffffffffffffffffffffffffffffffffffff160361217d576040517f08c379a000000000000000000000000000000000000000000000000000000000815260040161217490613d27565b60405180910390fd5b61218681612680565b156121c6576040517f08c379a00000000000000000000000000000000000000000000000000000000081526004016121bd90613d93565b60405180910390fd5b6121d46000838360016126c1565b6121dd81612680565b1561221d576040517f08c379a000000000000000000000000000000000000000000000000000000000815260040161221490613d93565b60405180910390fd5b6001600360008473ffffffffffffffffffffffffffffffffffffffff1673ffffffffffffffffffffffffffffffffffffffff16815260200190815260200160002060008282540192505081905550816002600083815260200190815260200160002060006101000a81548173ffffffffffffffffffffffffffffffffffffffff021916908373ffffffffffffffffffffffffffffffffffffffff160217905550808273ffffffffffffffffffffffffffffffffffffffff16600073ffffffffffffffffffffffffffffffffffffffff167fddf252ad1be2c89b69c2b068fc378daa952ba7f163c4a11628f55a4df523b3ef60405160405180910390a46123276000838360016126c7565b5050565b61233482612680565b612373576040517f08c379a000000000000000000000000000000000000000000000000000000000815260040161236a90613e25565b60405180910390fd5b806006600084815260200190815260200160002090816123939190613ff1565b507ff8e1a15aba9398e019f0b49df1a4fde98ee17ae345cb5f6b5e2c27f5033e8ce7826040516123c39190612f28565b60405180910390a15050565b8173ffffffffffffffffffffffffffffffffffffffff168373ffffffffffffffffffffffffffffffffffffffff160361243d576040517f08c379a00000000000000000000000000000000000000000000000000000000081526004016124349061410f565b60405180910390fd5b80600560008573ffffffffffffffffffffffffffffffffffffffff1673ffffffffffffffffffffffffffffffffffffffff16815260200190815260200160002060008473ffffffffffffffffffffffffffffffffffffffff1673ffffffffffffffffffffffffffffffffffffffff16815260200190815260200160002060006101000a81548160ff0219169083151502179055508173ffffffffffffffffffffffffffffffffffffffff168373ffffffffffffffffffffffffffffffffffffffff167f17307eab39ab6107e8899845ad3d59bd9653f200f220920489ca2b5937696c318360405161252e9190612ba9565b60405180910390a3505050565b612546848484611d66565b612552848484846126cd565b612591576040517f08c379a0000000000000000000000000000000000000000000000000000000008152600401612588906141a1565b60405180910390fd5b50505050565b606060405180602001604052806000815250905090565b60606125b982611bb7565b60006125c3612597565b905060008151116125e3576040518060200160405280600081525061260e565b806125ed84612854565b6040516020016125fe929190613b27565b6040516020818303038152906040525b915050919050565b60007f01ffc9a7000000000000000000000000000000000000000000000000000000007bffffffffffffffffffffffffffffffffffffffffffffffffffffffff1916827bffffffffffffffffffffffffffffffffffffffffffffffffffffffff1916149050919050565b60008073ffffffffffffffffffffffffffffffffffffffff166126a28361205f565b73ffffffffffffffffffffffffffffffffffffffff1614159050919050565b50505050565b50505050565b60006126ee8473ffffffffffffffffffffffffffffffffffffffff16612922565b15612847578373ffffffffffffffffffffffffffffffffffffffff1663150b7a02612717611c02565b8786866040518563ffffffff1660e01b81526004016127399493929190614216565b6020604051808303816000875af192505050801561277557506040513d601f19601f820116820180604052508101906127729190614277565b60015b6127f7573d80600081146127a5576040519150601f19603f3d011682016040523d82523d6000602084013e6127aa565b606091505b5060008151036127ef576040517f08c379a00000000000000000000000000000000000000000000000000000000081526004016127e6906141a1565b60405180910390fd5b805181602001fd5b63150b7a0260e01b7bffffffffffffffffffffffffffffffffffffffffffffffffffffffff1916817bffffffffffffffffffffffffffffffffffffffffffffffffffffffff19161491505061284c565b600190505b949350505050565b60606000600161286384612945565b01905060008167ffffffffffffffff8111156128825761288161300d565b5b6040519080825280601f01601f1916602001820160405280156128b45781602001600182028036833780820191505090505b509050600082602001820190505b600115612917578080600190039150507f3031323334353637383961626364656600000000000000000000000000000000600a86061a8153600a858161290b5761290a6142a4565b5b049450600085036128c2575b819350505050919050565b6000808273ffffffffffffffffffffffffffffffffffffffff163b119050919050565b600080600090507a184f03e93ff9f4daa797ed6e38ed64bf6a1f01000000000000000083106129a3577a184f03e93ff9f4daa797ed6e38ed64bf6a1f0100000000000000008381612999576129986142a4565b5b0492506040810190505b6d04ee2d6d415b85acef810000000083106129e0576d04ee2d6d415b85acef810000000083816129d6576129d56142a4565b5b0492506020810190505b662386f26fc100008310612a0f57662386f26fc100008381612a0557612a046142a4565b5b0492506010810190505b6305f5e1008310612a38576305f5e1008381612a2e57612a2d6142a4565b5b0492506008810190505b6127108310612a5d576127108381612a5357612a526142a4565b5b0492506004810190505b60648310612a805760648381612a7657612a756142a4565b5b0492506002810190505b600a8310612a8f576001810190505b80915050919050565b6040518060a0016040528060008152602001600073ffffffffffffffffffffffffffffffffffffffff168152602001600073ffffffffffffffffffffffffffffffffffffffff168152602001600081526020016000151581525090565b6000604051905090565b600080fd5b600080fd5b60007fffffffff0000000000000000000000000000000000000000000000000000000082169050919050565b612b3e81612b09565b8114612b4957600080fd5b50565b600081359050612b5b81612b35565b92915050565b600060208284031215612b7757612b76612aff565b5b6000612b8584828501612b4c565b91505092915050565b60008115159050919050565b612ba381612b8e565b82525050565b6000602082019050612bbe6000830184612b9a565b92915050565b600081519050919050565b600082825260208201905092915050565b60005b83811015612bfe578082015181840152602081019050612be3565b60008484015250505050565b6000601f19601f8301169050919050565b6000612c2682612bc4565b612c308185612bcf565b9350612c40818560208601612be0565b612c4981612c0a565b840191505092915050565b60006020820190508181036000830152612c6e8184612c1b565b905092915050565b6000819050919050565b612c8981612c76565b8114612c9457600080fd5b50565b600081359050612ca681612c80565b92915050565b600060208284031215612cc257612cc1612aff565b5b6000612cd084828501612c97565b91505092915050565b600073ffffffffffffffffffffffffffffffffffffffff82169050919050565b6000612d0482612cd9565b9050919050565b612d1481612cf9565b82525050565b6000602082019050612d2f6000830184612d0b565b92915050565b612d3e81612cf9565b8114612d4957600080fd5b50565b600081359050612d5b81612d35565b92915050565b60008060408385031215612d7857612d77612aff565b5b6000612d8685828601612d4c565b9250506020612d9785828601612c97565b9150509250929050565b600081519050919050565b600082825260208201905092915050565b6000819050602082019050919050565b612dd681612c76565b82525050565b6000612de782612cd9565b9050919050565b612df781612ddc565b82525050565b612e0681612b8e565b82525050565b60a082016000820151612e226000850182612dcd565b506020820151612e356020850182612dee565b506040820151612e486040850182612dee565b506060820151612e5b6060850182612dcd565b506080820151612e6e6080850182612dfd565b50505050565b6000612e808383612e0c565b60a08301905092915050565b6000602082019050919050565b6000612ea482612da1565b612eae8185612dac565b9350612eb983612dbd565b8060005b83811015612eea578151612ed18882612e74565b9750612edc83612e8c565b925050600181019050612ebd565b5085935050505092915050565b60006020820190508181036000830152612f118184612e99565b905092915050565b612f2281612c76565b82525050565b6000602082019050612f3d6000830184612f19565b92915050565b600080600060608486031215612f5c57612f5b612aff565b5b6000612f6a86828701612d4c565b9350506020612f7b86828701612d4c565b9250506040612f8c86828701612c97565b9150509250925092565b60008060408385031215612fad57612fac612aff565b5b6000612fbb85828601612c97565b9250506020612fcc85828601612c97565b9150509250929050565b600060208284031215612fec57612feb612aff565b5b6000612ffa84828501612d4c565b91505092915050565b600080fd5b600080fd5b7f4e487b7100000000000000000000000000000000000000000000000000000000600052604160045260246000fd5b61304582612c0a565b810181811067ffffffffffffffff821117156130645761306361300d565b5b80604052505050565b6000613077612af5565b9050613083828261303c565b919050565b600067ffffffffffffffff8211156130a3576130a261300d565b5b6130ac82612c0a565b9050602081019050919050565b82818337600083830152505050565b60006130db6130d684613088565b61306d565b9050828152602081018484840111156130f7576130f6613008565b5b6131028482856130b9565b509392505050565b600082601f83011261311f5761311e613003565b5b813561312f8482602086016130c8565b91505092915050565b6000806040838503121561314f5761314e612aff565b5b600083013567ffffffffffffffff81111561316d5761316c612b04565b5b6131798582860161310a565b925050602061318a85828601612c97565b9150509250929050565b61319d81612b8e565b81146131a857600080fd5b50565b6000813590506131ba81613194565b92915050565b600080604083850312156131d7576131d6612aff565b5b60006131e585828601612d4c565b92505060206131f6858286016131ab565b9150509250929050565b600067ffffffffffffffff82111561321b5761321a61300d565b5b61322482612c0a565b9050602081019050919050565b600061324461323f84613200565b61306d565b9050828152602081018484840111156132605761325f613008565b5b61326b8482856130b9565b509392505050565b600082601f83011261328857613287613003565b5b8135613298848260208601613231565b91505092915050565b600080600080608085870312156132bb576132ba612aff565b5b60006132c987828801612d4c565b94505060206132da87828801612d4c565b93505060406132eb87828801612c97565b925050606085013567ffffffffffffffff81111561330c5761330b612b04565b5b61331887828801613273565b91505092959194509250565b6000806040838503121561333b5761333a612aff565b5b600061334985828601612d4c565b925050602061335a85828601612d4c565b9150509250929050565b7f4e487b7100000000000000000000000000000000000000000000000000000000600052602260045260246000fd5b600060028204905060018216806133ab57607f821691505b6020821081036133be576133bd613364565b5b50919050565b7f4552433732313a20617070726f76616c20746f2063757272656e74206f776e6560008201527f7200000000000000000000000000000000000000000000000000000000000000602082015250565b6000613420602183612bcf565b915061342b826133c4565b604082019050919050565b6000602082019050818103600083015261344f81613413565b9050919050565b7f4552433732313a20617070726f76652063616c6c6572206973206e6f7420746f60008201527f6b656e206f776e6572206f7220617070726f76656420666f7220616c6c000000602082015250565b60006134b2603d83612bcf565b91506134bd82613456565b604082019050919050565b600060208201905081810360008301526134e1816134a5565b9050919050565b7f4e487b7100000000000000000000000000000000000000000000000000000000600052601160045260246000fd5b600061352282612c76565b915061352d83612c76565b9250828203905081811115613545576135446134e8565b5b92915050565b600061355682612c76565b915061356183612c76565b9250828201905080821115613579576135786134e8565b5b92915050565b7f4e487b7100000000000000000000000000000000000000000000000000000000600052603260045260246000fd5b60006135b982612c76565b91507fffffffffffffffffffffffffffffffffffffffffffffffffffffffffffffffff82036135eb576135ea6134e8565b5b600182019050919050565b7f4552433732313a2063616c6c6572206973206e6f7420746f6b656e206f776e6560008201527f72206f7220617070726f76656400000000000000000000000000000000000000602082015250565b6000613652602d83612bcf565b915061365d826135f6565b604082019050919050565b6000602082019050818103600083015261368181613645565b9050919050565b7f5072696365206d757374206265206174206c6561737420312077656900000000600082015250565b60006136be601c83612bcf565b91506136c982613688565b602082019050919050565b600060208201905081810360008301526136ed816136b1565b9050919050565b7f5072696365206d757374206265207061696420696e2066756c6c000000000000600082015250565b600061372a601a83612bcf565b9150613735826136f4565b602082019050919050565b600060208201905081810360008301526137598161371d565b9050919050565b60006080820190506137756000830187612d0b565b6137826020830186612d0b565b61378f6040830185612f19565b61379c6060830184612b9a565b95945050505050565b7f4552433732313a20696e76616c696420746f6b656e2049440000000000000000600082015250565b60006137db601883612bcf565b91506137e6826137a5565b602082019050919050565b6000602082019050818103600083015261380a816137ce565b9050919050565b7f746f6b656e2063616e206f6e6c79206265207265736f6c64206279206f776e6560008201527f7200000000000000000000000000000000000000000000000000000000000000602082015250565b600061386d602183612bcf565b915061387882613811565b604082019050919050565b6000602082019050818103600083015261389c81613860565b9050919050565b7f5072696365206d75737420626520657175616c20746f206c697374696e67207060008201527f7269636500000000000000000000000000000000000000000000000000000000602082015250565b60006138ff602483612bcf565b915061390a826138a3565b604082019050919050565b6000602082019050818103600083015261392e816138f2565b9050919050565b7f4552433732313a2061646472657373207a65726f206973206e6f74206120766160008201527f6c6964206f776e65720000000000000000000000000000000000000000000000602082015250565b6000613991602983612bcf565b915061399c82613935565b604082019050919050565b600060208201905081810360008301526139c081613984565b9050919050565b7f6f6e6c79206f776e6572206f662074686520636f6e74726163742063616e207560008201527f706461746520746865206c697374696e67207072696365000000000000000000602082015250565b6000613a23603783612bcf565b9150613a2e826139c7565b604082019050919050565b60006020820190508181036000830152613a5281613a16565b9050919050565b7f506c65617365207375626d6974207468652061736b696e67207072696365206960008201527f6e206f7264657220746f20636f6d706c65746520746865207075726368617365602082015250565b6000613ab5604083612bcf565b9150613ac082613a59565b604082019050919050565b60006020820190508181036000830152613ae481613aa8565b9050919050565b600081905092915050565b6000613b0182612bc4565b613b0b8185613aeb565b9350613b1b818560208601612be0565b80840191505092915050565b6000613b338285613af6565b9150613b3f8284613af6565b91508190509392505050565b7f4552433732313a207472616e736665722066726f6d20696e636f72726563742060008201527f6f776e6572000000000000000000000000000000000000000000000000000000602082015250565b6000613ba7602583612bcf565b9150613bb282613b4b565b604082019050919050565b60006020820190508181036000830152613bd681613b9a565b9050919050565b7f4552433732313a207472616e7366657220746f20746865207a65726f2061646460008201527f7265737300000000000000000000000000000000000000000000000000000000602082015250565b6000613c39602483612bcf565b9150613c4482613bdd565b604082019050919050565b60006020820190508181036000830152613c6881613c2c565b9050919050565b7f436f756e7465723a2064656372656d656e74206f766572666c6f770000000000600082015250565b6000613ca5601b83612bcf565b9150613cb082613c6f565b602082019050919050565b60006020820190508181036000830152613cd481613c98565b9050919050565b7f4552433732313a206d696e7420746f20746865207a65726f2061646472657373600082015250565b6000613d11602083612bcf565b9150613d1c82613cdb565b602082019050919050565b60006020820190508181036000830152613d4081613d04565b9050919050565b7f4552433732313a20746f6b656e20616c7265616479206d696e74656400000000600082015250565b6000613d7d601c83612bcf565b9150613d8882613d47565b602082019050919050565b60006020820190508181036000830152613dac81613d70565b9050919050565b7f45524337323155524953746f726167653a2055524920736574206f66206e6f6e60008201527f6578697374656e7420746f6b656e000000000000000000000000000000000000602082015250565b6000613e0f602e83612bcf565b9150613e1a82613db3565b604082019050919050565b60006020820190508181036000830152613e3e81613e02565b9050919050565b60008190508160005260206000209050919050565b60006020601f8301049050919050565b600082821b905092915050565b600060088302613ea77fffffffffffffffffffffffffffffffffffffffffffffffffffffffffffffffff82613e6a565b613eb18683613e6a565b95508019841693508086168417925050509392505050565b6000819050919050565b6000613eee613ee9613ee484612c76565b613ec9565b612c76565b9050919050565b6000819050919050565b613f0883613ed3565b613f1c613f1482613ef5565b848454613e77565b825550505050565b600090565b613f31613f24565b613f3c818484613eff565b505050565b5b81811015613f6057613f55600082613f29565b600181019050613f42565b5050565b601f821115613fa557613f7681613e45565b613f7f84613e5a565b81016020851015613f8e578190505b613fa2613f9a85613e5a565b830182613f41565b50505b505050565b600082821c905092915050565b6000613fc860001984600802613faa565b1980831691505092915050565b6000613fe18383613fb7565b9150826002028217905092915050565b613ffa82612bc4565b67ffffffffffffffff8111156140135761401261300d565b5b61401d8254613393565b614028828285613f64565b600060209050601f83116001811461405b5760008415614049578287015190505b6140538582613fd5565b8655506140bb565b601f19841661406986613e45565b60005b828110156140915784890151825560018201915060208501945060208101905061406c565b868310156140ae57848901516140aa601f891682613fb7565b8355505b6001600288020188555050505b505050505050565b7f4552433732313a20617070726f766520746f2063616c6c657200000000000000600082015250565b60006140f9601983612bcf565b9150614104826140c3565b602082019050919050565b60006020820190508181036000830152614128816140ec565b9050919050565b7f4552433732313a207472616e7366657220746f206e6f6e20455243373231526560008201527f63656976657220696d706c656d656e7465720000000000000000000000000000602082015250565b600061418b603283612bcf565b91506141968261412f565b604082019050919050565b600060208201905081810360008301526141ba8161417e565b9050919050565b600081519050919050565b600082825260208201905092915050565b60006141e8826141c1565b6141f281856141cc565b9350614202818560208601612be0565b61420b81612c0a565b840191505092915050565b600060808201905061422b6000830187612d0b565b6142386020830186612d0b565b6142456040830185612f19565b818103606083015261425781846141dd565b905095945050505050565b60008151905061427181612b35565b92915050565b60006020828403121561428d5761428c612aff565b5b600061429b84828501614262565b91505092915050565b7f4e487b7100000000000000000000000000000000000000000000000000000000600052601260045260246000fdfea2646970667358221220715e4219fb5d790abc0948363b5dbc77bd1f43f4721c594b2d4780b21db0a1ff64736f6c63430008130033",
  "linkReferences": {},
  "deployedLinkReferences": {}
}