{
  "_format": "hh-sol-artifact-1",
  "contractName": "Marketplace",
  "sourceName": "contracts/Marketplace.sol",
  "abi": [
    {
      "inputs": [],
      "stateMutability": "nonpayable",
      "type": "constructor"
    },
    {
      "anonymous": false,
      "inputs": [
        {
          "indexed": true,
          "internalType": "address",
          "name": "owner",
          "type": "address"
        },
        {
          "indexed": true,
          "internalType": "address",
          "name": "approved",
          "type": "address"
        },
        {
          "indexed": true,
          "internalType": "uint256",
          "name": "tokenId",
          "type": "uint256"
        }
      ],
      "name": "Approval",
      "type": "event"
    },
    {
      "anonymous": false,
      "inputs": [
        {
          "indexed": true,
          "internalType": "address",
          "name": "owner",
          "type": "address"
        },
        {
          "indexed": true,
          "internalType": "address",
          "name": "operator",
          "type": "address"
        },
        {
          "indexed": false,
          "internalType": "bool",
          "name": "approved",
          "type": "bool"
        }
      ],
      "name": "ApprovalForAll",
      "type": "event"
    },
    {
      "anonymous": false,
      "inputs": [
        {
          "indexed": false,
          "internalType": "uint256",
          "name": "_fromTokenId",
          "type": "uint256"
        },
        {
          "indexed": false,
          "internalType": "uint256",
          "name": "_toTokenId",
          "type": "uint256"
        }
      ],
      "name": "BatchMetadataUpdate",
      "type": "event"
    },
    {
      "anonymous": false,
      "inputs": [
        {
          "indexed": false,
          "internalType": "uint256",
          "name": "amount",
          "type": "uint256"
        },
        {
          "indexed": false,
          "internalType": "address",
          "name": "targetWallet",
          "type": "address"
        }
      ],
      "name": "FundsWithdrawn",
      "type": "event"
    },
    {
      "anonymous": false,
      "inputs": [
        {
          "indexed": true,
          "internalType": "uint256",
          "name": "tokenId",
          "type": "uint256"
        },
        {
          "indexed": false,
          "internalType": "address",
          "name": "originalOwner",
          "type": "address"
        },
        {
          "indexed": false,
          "internalType": "address",
          "name": "seller",
          "type": "address"
        },
        {
          "indexed": false,
          "internalType": "address",
          "name": "owner",
          "type": "address"
        },
        {
          "indexed": false,
          "internalType": "uint256",
          "name": "royaltyPercentage",
          "type": "uint256"
        },
        {
          "indexed": false,
          "internalType": "uint256",
          "name": "price",
          "type": "uint256"
        },
        {
          "indexed": false,
          "internalType": "bool",
          "name": "sold",
          "type": "bool"
        }
      ],
      "name": "MarketItemCreated",
      "type": "event"
    },
    {
      "anonymous": false,
      "inputs": [
        {
          "indexed": false,
          "internalType": "uint256",
          "name": "_tokenId",
          "type": "uint256"
        }
      ],
      "name": "MetadataUpdate",
      "type": "event"
    },
    {
      "anonymous": false,
      "inputs": [
        {
          "indexed": false,
          "internalType": "uint256",
          "name": "nftId",
          "type": "uint256"
        },
        {
          "indexed": false,
          "internalType": "address",
          "name": "auctionWinner",
          "type": "address"
        }
      ],
      "name": "NFTTransferred",
      "type": "event"
    },
    {
      "anonymous": false,
      "inputs": [
        {
          "indexed": true,
          "internalType": "address",
          "name": "from",
          "type": "address"
        },
        {
          "indexed": true,
          "internalType": "address",
          "name": "to",
          "type": "address"
        },
        {
          "indexed": true,
          "internalType": "uint256",
          "name": "tokenId",
          "type": "uint256"
        }
      ],
      "name": "Transfer",
      "type": "event"
    },
    {
      "stateMutability": "payable",
      "type": "fallback"
    },
    {
      "inputs": [
        {
          "internalType": "address",
          "name": "to",
          "type": "address"
        },
        {
          "internalType": "uint256",
          "name": "tokenId",
          "type": "uint256"
        }
      ],
      "name": "approve",
      "outputs": [],
      "stateMutability": "nonpayable",
      "type": "function"
    },
    {
      "inputs": [
        {
          "internalType": "address",
          "name": "owner",
          "type": "address"
        }
      ],
      "name": "balanceOf",
      "outputs": [
        {
          "internalType": "uint256",
          "name": "",
          "type": "uint256"
        }
      ],
      "stateMutability": "view",
      "type": "function"
    },
    {
      "inputs": [
        {
          "internalType": "uint256",
          "name": "tokenId",
          "type": "uint256"
        },
        {
          "internalType": "uint256",
          "name": "royaltyPercentage",
          "type": "uint256"
        },
        {
          "internalType": "uint256",
          "name": "price",
          "type": "uint256"
        }
      ],
      "name": "createMarketItem",
      "outputs": [],
      "stateMutability": "payable",
      "type": "function"
    },
    {
      "inputs": [
        {
          "internalType": "uint256",
          "name": "tokenId",
          "type": "uint256"
        }
      ],
      "name": "createMarketSale",
      "outputs": [],
      "stateMutability": "payable",
      "type": "function"
    },
    {
      "inputs": [
        {
          "internalType": "string",
          "name": "tokenURI",
          "type": "string"
        },
        {
          "internalType": "uint256",
          "name": "royaltyPercentage",
          "type": "uint256"
        },
        {
          "internalType": "uint256",
          "name": "price",
          "type": "uint256"
        }
      ],
      "name": "createToken",
      "outputs": [
        {
          "internalType": "uint256",
          "name": "",
          "type": "uint256"
        }
      ],
      "stateMutability": "payable",
      "type": "function"
    },
    {
      "inputs": [
        {
          "internalType": "uint256",
          "name": "tokenId",
          "type": "uint256"
        }
      ],
      "name": "delistMarketItem",
      "outputs": [],
      "stateMutability": "nonpayable",
      "type": "function"
    },
    {
      "inputs": [],
      "name": "fetchItemsListed",
      "outputs": [
        {
          "components": [
            {
              "internalType": "uint256",
              "name": "tokenId",
              "type": "uint256"
            },
            {
              "internalType": "address payable",
              "name": "originalOwner",
              "type": "address"
            },
            {
              "internalType": "address payable",
              "name": "seller",
              "type": "address"
            },
            {
              "internalType": "address payable",
              "name": "owner",
              "type": "address"
            },
            {
              "internalType": "uint256",
              "name": "royaltyPercentage",
              "type": "uint256"
            },
            {
              "internalType": "uint256",
              "name": "price",
              "type": "uint256"
            },
            {
              "internalType": "bool",
              "name": "sold",
              "type": "bool"
            }
          ],
          "internalType": "struct Marketplace.MarketItem[]",
          "name": "",
          "type": "tuple[]"
        }
      ],
      "stateMutability": "view",
      "type": "function"
    },
    {
      "inputs": [],
      "name": "fetchMarketItems",
      "outputs": [
        {
          "components": [
            {
              "internalType": "uint256",
              "name": "tokenId",
              "type": "uint256"
            },
            {
              "internalType": "address payable",
              "name": "originalOwner",
              "type": "address"
            },
            {
              "internalType": "address payable",
              "name": "seller",
              "type": "address"
            },
            {
              "internalType": "address payable",
              "name": "owner",
              "type": "address"
            },
            {
              "internalType": "uint256",
              "name": "royaltyPercentage",
              "type": "uint256"
            },
            {
              "internalType": "uint256",
              "name": "price",
              "type": "uint256"
            },
            {
              "internalType": "bool",
              "name": "sold",
              "type": "bool"
            }
          ],
          "internalType": "struct Marketplace.MarketItem[]",
          "name": "",
          "type": "tuple[]"
        }
      ],
      "stateMutability": "view",
      "type": "function"
    },
    {
      "inputs": [],
      "name": "fetchMyNFT",
      "outputs": [
        {
          "components": [
            {
              "internalType": "uint256",
              "name": "tokenId",
              "type": "uint256"
            },
            {
              "internalType": "address payable",
              "name": "originalOwner",
              "type": "address"
            },
            {
              "internalType": "address payable",
              "name": "seller",
              "type": "address"
            },
            {
              "internalType": "address payable",
              "name": "owner",
              "type": "address"
            },
            {
              "internalType": "uint256",
              "name": "royaltyPercentage",
              "type": "uint256"
            },
            {
              "internalType": "uint256",
              "name": "price",
              "type": "uint256"
            },
            {
              "internalType": "bool",
              "name": "sold",
              "type": "bool"
            }
          ],
          "internalType": "struct Marketplace.MarketItem[]",
          "name": "",
          "type": "tuple[]"
        }
      ],
      "stateMutability": "view",
      "type": "function"
    },
    {
      "inputs": [
        {
          "internalType": "uint256",
          "name": "tokenId",
          "type": "uint256"
        }
      ],
      "name": "getApproved",
      "outputs": [
        {
          "internalType": "address",
          "name": "",
          "type": "address"
        }
      ],
      "stateMutability": "view",
      "type": "function"
    },
    {
      "inputs": [
        {
          "internalType": "uint256",
          "name": "tokenId",
          "type": "uint256"
        }
      ],
      "name": "getNFTPrice",
      "outputs": [
        {
          "internalType": "uint256",
          "name": "price",
          "type": "uint256"
        }
      ],
      "stateMutability": "view",
      "type": "function"
    },
    {
      "inputs": [
        {
          "internalType": "uint256",
          "name": "tokenId",
          "type": "uint256"
        }
      ],
      "name": "getRoyaltyData",
      "outputs": [
        {
          "internalType": "uint256",
          "name": "",
          "type": "uint256"
        },
        {
          "internalType": "address payable",
          "name": "",
          "type": "address"
        }
      ],
      "stateMutability": "view",
      "type": "function"
    },
    {
      "inputs": [
        {
          "internalType": "uint256",
          "name": "tokenId",
          "type": "uint256"
        }
      ],
      "name": "getSellerAddress",
      "outputs": [
        {
          "internalType": "address",
          "name": "",
          "type": "address"
        }
      ],
      "stateMutability": "view",
      "type": "function"
    },
    {
      "inputs": [
        {
          "internalType": "uint256",
          "name": "tokenId",
          "type": "uint256"
        },
        {
          "internalType": "address",
          "name": "winner",
          "type": "address"
        }
      ],
      "name": "handleAuctionEnd",
      "outputs": [],
      "stateMutability": "nonpayable",
      "type": "function"
    },
    {
      "inputs": [
        {
          "internalType": "address",
          "name": "owner",
          "type": "address"
        },
        {
          "internalType": "address",
          "name": "operator",
          "type": "address"
        }
      ],
      "name": "isApprovedForAll",
      "outputs": [
        {
          "internalType": "bool",
          "name": "",
          "type": "bool"
        }
      ],
      "stateMutability": "view",
      "type": "function"
    },
    {
      "inputs": [],
      "name": "listingPrice",
      "outputs": [
        {
          "internalType": "uint256",
          "name": "",
          "type": "uint256"
        }
      ],
      "stateMutability": "view",
      "type": "function"
    },
    {
      "inputs": [],
      "name": "name",
      "outputs": [
        {
          "internalType": "string",
          "name": "",
          "type": "string"
        }
      ],
      "stateMutability": "view",
      "type": "function"
    },
    {
      "inputs": [
        {
          "internalType": "uint256",
          "name": "tokenId",
          "type": "uint256"
        }
      ],
      "name": "ownerOf",
      "outputs": [
        {
          "internalType": "address",
          "name": "",
          "type": "address"
        }
      ],
      "stateMutability": "view",
      "type": "function"
    },
    {
      "inputs": [
        {
          "internalType": "uint256",
          "name": "tokenId",
          "type": "uint256"
        },
        {
          "internalType": "uint256",
          "name": "price",
          "type": "uint256"
        },
        {
          "internalType": "address",
          "name": "seller",
          "type": "address"
        }
      ],
      "name": "resellMarketItem",
      "outputs": [],
      "stateMutability": "payable",
      "type": "function"
    },
    {
      "inputs": [
        {
          "internalType": "address",
          "name": "from",
          "type": "address"
        },
        {
          "internalType": "address",
          "name": "to",
          "type": "address"
        },
        {
          "internalType": "uint256",
          "name": "tokenId",
          "type": "uint256"
        }
      ],
      "name": "safeTransferFrom",
      "outputs": [],
      "stateMutability": "nonpayable",
      "type": "function"
    },
    {
      "inputs": [
        {
          "internalType": "address",
          "name": "from",
          "type": "address"
        },
        {
          "internalType": "address",
          "name": "to",
          "type": "address"
        },
        {
          "internalType": "uint256",
          "name": "tokenId",
          "type": "uint256"
        },
        {
          "internalType": "bytes",
          "name": "data",
          "type": "bytes"
        }
      ],
      "name": "safeTransferFrom",
      "outputs": [],
      "stateMutability": "nonpayable",
      "type": "function"
    },
    {
      "inputs": [
        {
          "internalType": "address",
          "name": "operator",
          "type": "address"
        },
        {
          "internalType": "bool",
          "name": "approved",
          "type": "bool"
        }
      ],
      "name": "setApprovalForAll",
      "outputs": [],
      "stateMutability": "nonpayable",
      "type": "function"
    },
    {
      "inputs": [
        {
          "internalType": "address",
          "name": "auctionFactoryAddress",
          "type": "address"
        }
      ],
      "name": "setAuctionFactoryAddress",
      "outputs": [],
      "stateMutability": "nonpayable",
      "type": "function"
    },
    {
      "inputs": [
        {
          "internalType": "bytes4",
          "name": "interfaceId",
          "type": "bytes4"
        }
      ],
      "name": "supportsInterface",
      "outputs": [
        {
          "internalType": "bool",
          "name": "",
          "type": "bool"
        }
      ],
      "stateMutability": "view",
      "type": "function"
    },
    {
      "inputs": [],
      "name": "symbol",
      "outputs": [
        {
          "internalType": "string",
          "name": "",
          "type": "string"
        }
      ],
      "stateMutability": "view",
      "type": "function"
    },
    {
      "inputs": [
        {
          "internalType": "uint256",
          "name": "tokenId",
          "type": "uint256"
        }
      ],
      "name": "tokenURI",
      "outputs": [
        {
          "internalType": "string",
          "name": "",
          "type": "string"
        }
      ],
      "stateMutability": "view",
      "type": "function"
    },
    {
      "inputs": [
        {
          "internalType": "address",
          "name": "from",
          "type": "address"
        },
        {
          "internalType": "address",
          "name": "to",
          "type": "address"
        },
        {
          "internalType": "uint256",
          "name": "tokenId",
          "type": "uint256"
        }
      ],
      "name": "transferFrom",
      "outputs": [],
      "stateMutability": "nonpayable",
      "type": "function"
    },
    {
      "inputs": [
        {
          "internalType": "address",
          "name": "auctionContractAddress",
          "type": "address"
        },
        {
          "internalType": "uint256",
          "name": "tokenId",
          "type": "uint256"
        }
      ],
      "name": "triggerEndAuction",
      "outputs": [],
      "stateMutability": "nonpayable",
      "type": "function"
    },
    {
      "inputs": [
        {
          "internalType": "uint256",
          "name": "_listingPrice",
          "type": "uint256"
        }
      ],
      "name": "updateListingPrice",
      "outputs": [],
      "stateMutability": "payable",
      "type": "function"
    },
    {
      "inputs": [
        {
          "internalType": "uint256",
          "name": "tokenId",
          "type": "uint256"
        },
        {
          "internalType": "uint256",
          "name": "price",
          "type": "uint256"
        }
      ],
      "name": "updateNFTPrice",
      "outputs": [],
      "stateMutability": "nonpayable",
      "type": "function"
    },
    {
      "inputs": [],
      "name": "withdrawFunds",
      "outputs": [],
      "stateMutability": "nonpayable",
      "type": "function"
    },
    {
      "stateMutability": "payable",
      "type": "receive"
    }
  ],
  "bytecode": "0x60806040526608e1bc9bf04000600a553480156200001c57600080fd5b506040518060400160405280601381526020017f4e4654204d657461766572736520546f6b656e000000000000000000000000008152506040518060400160405280600581526020017f4d594e465400000000000000000000000000000000000000000000000000000081525081600090816200009a919062000378565b508060019081620000ac919062000378565b505050600160078190555033600b60006101000a81548173ffffffffffffffffffffffffffffffffffffffff021916908373ffffffffffffffffffffffffffffffffffffffff1602179055506200045f565b600081519050919050565b7f4e487b7100000000000000000000000000000000000000000000000000000000600052604160045260246000fd5b7f4e487b7100000000000000000000000000000000000000000000000000000000600052602260045260246000fd5b600060028204905060018216806200018057607f821691505b60208210810362000196576200019562000138565b5b50919050565b60008190508160005260206000209050919050565b60006020601f8301049050919050565b600082821b905092915050565b600060088302620002007fffffffffffffffffffffffffffffffffffffffffffffffffffffffffffffffff82620001c1565b6200020c8683620001c1565b95508019841693508086168417925050509392505050565b6000819050919050565b6000819050919050565b600062000259620002536200024d8462000224565b6200022e565b62000224565b9050919050565b6000819050919050565b620002758362000238565b6200028d620002848262000260565b848454620001ce565b825550505050565b600090565b620002a462000295565b620002b18184846200026a565b505050565b5b81811015620002d957620002cd6000826200029a565b600181019050620002b7565b5050565b601f8211156200032857620002f2816200019c565b620002fd84620001b1565b810160208510156200030d578190505b620003256200031c85620001b1565b830182620002b6565b50505b505050565b600082821c905092915050565b60006200034d600019846008026200032d565b1980831691505092915050565b60006200036883836200033a565b9150826002028217905092915050565b6200038382620000fe565b67ffffffffffffffff8111156200039f576200039e62000109565b5b620003ab825462000167565b620003b8828285620002dd565b600060209050601f831160018114620003f05760008415620003db578287015190505b620003e785826200035a565b86555062000457565b601f19841662000400866200019c565b60005b828110156200042a5784890151825560018201915060208501945060208101905062000403565b868310156200044a578489015162000446601f8916826200033a565b8355505b6001600288020188555050505b505050505050565b61578d806200046f6000396000f3fe6080604052600436106101dc5760003560e01c80638f329b3111610102578063b88d4fde11610095578063c68a0e1611610064578063c68a0e1614610690578063c78f19f9146106b9578063c87b56dd146106e4578063e985e9c514610721576101e3565b8063b88d4fde146105f0578063be9af53614610619578063bec2a7c514610635578063c18763f714610665576101e3565b8063a22cb465116100d1578063a22cb46514610530578063a65ff74c14610559578063a675364d14610597578063ae677aa3146105d4576101e3565b80638f329b3114610476578063929761791461049f57806395d89b41146104dc57806399f14a8b14610507576101e3565b806324600fc31161017a5780634ac0123d116101495780634ac0123d146103b75780636352211e146103e057806370a082311461041d578063804fa8351461045a576101e3565b806324600fc314610330578063320343da1461034757806342842e0e1461036357806345f8fa801461038c576101e3565b8063095ea7b3116101b6578063095ea7b31461028a5780630f08efe0146102b35780631cb88133146102de57806323b872dd14610307576101e3565b806301ffc9a7146101e557806306fdde0314610222578063081812fc1461024d576101e3565b366101e357005b005b3480156101f157600080fd5b5061020c60048036038101906102079190613b77565b61075e565b6040516102199190613bbf565b60405180910390f35b34801561022e57600080fd5b506102376107bf565b6040516102449190613c6a565b60405180910390f35b34801561025957600080fd5b50610274600480360381019061026f9190613cc2565b610851565b6040516102819190613d30565b60405180910390f35b34801561029657600080fd5b506102b160048036038101906102ac9190613d77565b610897565b005b3480156102bf57600080fd5b506102c86109ae565b6040516102d59190613f33565b60405180910390f35b3480156102ea57600080fd5b5061030560048036038101906103009190613f55565b610c76565b005b34801561031357600080fd5b5061032e60048036038101906103299190613f82565b610cba565b005b34801561033c57600080fd5b50610345610d1a565b005b610361600480360381019061035c9190613fd5565b610efd565b005b34801561036f57600080fd5b5061038a60048036038101906103859190613f82565b611178565b005b34801561039857600080fd5b506103a1611198565b6040516103ae9190613f33565b60405180910390f35b3480156103c357600080fd5b506103de60048036038101906103d99190614028565b6114e4565b005b3480156103ec57600080fd5b5061040760048036038101906104029190613cc2565b6116e4565b6040516104149190613d30565b60405180910390f35b34801561042957600080fd5b50610444600480360381019061043f9190613f55565b61176a565b6040516104519190614077565b60405180910390f35b610474600480360381019061046f9190614092565b611821565b005b34801561048257600080fd5b5061049d600480360381019061049891906140e5565b611a7c565b005b3480156104ab57600080fd5b506104c660048036038101906104c19190613cc2565b611bac565b6040516104d39190614077565b60405180910390f35b3480156104e857600080fd5b506104f1611d17565b6040516104fe9190613c6a565b60405180910390f35b34801561051357600080fd5b5061052e60048036038101906105299190613d77565b611da9565b005b34801561053c57600080fd5b5061055760048036038101906105529190614151565b611e1e565b005b34801561056557600080fd5b50610580600480360381019061057b9190613cc2565b611e34565b60405161058e9291906141a0565b60405180910390f35b3480156105a357600080fd5b506105be60048036038101906105b99190613cc2565b611fa8565b6040516105cb9190613d30565b60405180910390f35b6105ee60048036038101906105e99190613cc2565b611fe8565b005b3480156105fc57600080fd5b50610617600480360381019061061291906142fe565b612082565b005b610633600480360381019061062e9190613cc2565b6120e4565b005b61064f600480360381019061064a9190614422565b6122c6565b60405161065c9190614077565b60405180910390f35b34801561067157600080fd5b5061067a61230a565b6040516106879190613f33565b60405180910390f35b34801561069c57600080fd5b506106b760048036038101906106b29190613cc2565b612656565b005b3480156106c557600080fd5b506106ce612796565b6040516106db9190614077565b60405180910390f35b3480156106f057600080fd5b5061070b60048036038101906107069190613cc2565b61279c565b6040516107189190613c6a565b60405180910390f35b34801561072d57600080fd5b5061074860048036038101906107439190614491565b6128ae565b6040516107559190613bbf565b60405180910390f35b6000634906490660e01b7bffffffffffffffffffffffffffffffffffffffffffffffffffffffff1916827bffffffffffffffffffffffffffffffffffffffffffffffffffffffff191614806107b857506107b782612942565b5b9050919050565b6060600080546107ce90614500565b80601f01602080910402602001604051908101604052809291908181526020018280546107fa90614500565b80156108475780601f1061081c57610100808354040283529160200191610847565b820191906000526020600020905b81548152906001019060200180831161082a57829003601f168201915b5050505050905090565b600061085c82612a24565b6004600083815260200190815260200160002060009054906101000a900473ffffffffffffffffffffffffffffffffffffffff169050919050565b60006108a2826116e4565b90508073ffffffffffffffffffffffffffffffffffffffff168373ffffffffffffffffffffffffffffffffffffffff1603610912576040517f08c379a0000000000000000000000000000000000000000000000000000000008152600401610909906145a3565b60405180910390fd5b8073ffffffffffffffffffffffffffffffffffffffff16610931612a6f565b73ffffffffffffffffffffffffffffffffffffffff161480610960575061095f8161095a612a6f565b6128ae565b5b61099f576040517f08c379a000000000000000000000000000000000000000000000000000000000815260040161099690614635565b60405180910390fd5b6109a98383612a77565b505050565b606060006109bc6008612b30565b905060006109ca6009612b30565b6109d46008612b30565b6109de9190614684565b90506000808267ffffffffffffffff8111156109fd576109fc6141d3565b5b604051908082528060200260200182016040528015610a3657816020015b610a23613a80565b815260200190600190039081610a1b5790505b50905060005b84811015610c6b573073ffffffffffffffffffffffffffffffffffffffff16600d6000600184610a6c91906146b8565b815260200190815260200160002060030160009054906101000a900473ffffffffffffffffffffffffffffffffffffffff1673ffffffffffffffffffffffffffffffffffffffff1603610c58576000600182610ac891906146b8565b90506000600d60008381526020019081526020016000209050806040518060e0016040529081600082015481526020016001820160009054906101000a900473ffffffffffffffffffffffffffffffffffffffff1673ffffffffffffffffffffffffffffffffffffffff1673ffffffffffffffffffffffffffffffffffffffff1681526020016002820160009054906101000a900473ffffffffffffffffffffffffffffffffffffffff1673ffffffffffffffffffffffffffffffffffffffff1673ffffffffffffffffffffffffffffffffffffffff1681526020016003820160009054906101000a900473ffffffffffffffffffffffffffffffffffffffff1673ffffffffffffffffffffffffffffffffffffffff1673ffffffffffffffffffffffffffffffffffffffff16815260200160048201548152602001600582015481526020016006820160009054906101000a900460ff161515151581525050848681518110610c3b57610c3a6146ec565b5b6020026020010181905250600185610c5391906146b8565b945050505b8080610c639061471b565b915050610a3c565b508094505050505090565b80600c60006101000a81548173ffffffffffffffffffffffffffffffffffffffff021916908373ffffffffffffffffffffffffffffffffffffffff16021790555050565b610ccb610cc5612a6f565b82612b3e565b610d0a576040517f08c379a0000000000000000000000000000000000000000000000000000000008152600401610d01906147d5565b60405180910390fd5b610d15838383612bd3565b505050565b600b60009054906101000a900473ffffffffffffffffffffffffffffffffffffffff1673ffffffffffffffffffffffffffffffffffffffff163373ffffffffffffffffffffffffffffffffffffffff1614610daa576040517f08c379a0000000000000000000000000000000000000000000000000000000008152600401610da190614867565b60405180910390fd5b600047905060008111610df2576040517f08c379a0000000000000000000000000000000000000000000000000000000008152600401610de9906148d3565b60405180910390fd5b6000600b60009054906101000a900473ffffffffffffffffffffffffffffffffffffffff1673ffffffffffffffffffffffffffffffffffffffff1682604051610e3a90614924565b60006040518083038185875af1925050503d8060008114610e77576040519150601f19603f3d011682016040523d82523d6000602084013e610e7c565b606091505b5050905080610ec0576040517f08c379a0000000000000000000000000000000000000000000000000000000008152600401610eb790614985565b60405180910390fd5b7f6141b54b56b8a52a8c6f5cd2a857f6117b18ffbf4d46bd3106f300a839cbf5ea8233604051610ef19291906149a5565b60405180910390a15050565b60008111610f40576040517f08c379a0000000000000000000000000000000000000000000000000000000008152600401610f3790614a1a565b60405180910390fd5b600a543414610f84576040517f08c379a0000000000000000000000000000000000000000000000000000000008152600401610f7b90614a86565b60405180910390fd5b6040518060e001604052808481526020013373ffffffffffffffffffffffffffffffffffffffff1681526020013373ffffffffffffffffffffffffffffffffffffffff1681526020013073ffffffffffffffffffffffffffffffffffffffff16815260200183815260200182815260200160001515815250600d60008581526020019081526020016000206000820151816000015560208201518160010160006101000a81548173ffffffffffffffffffffffffffffffffffffffff021916908373ffffffffffffffffffffffffffffffffffffffff16021790555060408201518160020160006101000a81548173ffffffffffffffffffffffffffffffffffffffff021916908373ffffffffffffffffffffffffffffffffffffffff16021790555060608201518160030160006101000a81548173ffffffffffffffffffffffffffffffffffffffff021916908373ffffffffffffffffffffffffffffffffffffffff1602179055506080820151816004015560a0820151816005015560c08201518160060160006101000a81548160ff021916908315150217905550905050611130333085612bd3565b827fa5d9d913ac4de93e8f5dc9a8834f347d521cd0daf35756b44fe413e9f34019793333308686600060405161116b96959493929190614aa6565b60405180910390a2505050565b61119383838360405180602001604052806000815250612082565b505050565b606060006111a66008612b30565b905060008060005b8381101561124e573373ffffffffffffffffffffffffffffffffffffffff16600d60006001846111de91906146b8565b815260200190815260200160002060020160009054906101000a900473ffffffffffffffffffffffffffffffffffffffff1673ffffffffffffffffffffffffffffffffffffffff160361123b5760018361123891906146b8565b92505b80806112469061471b565b9150506111ae565b5060008267ffffffffffffffff81111561126b5761126a6141d3565b5b6040519080825280602002602001820160405280156112a457816020015b611291613a80565b8152602001906001900390816112895790505b50905060005b848110156114d9573373ffffffffffffffffffffffffffffffffffffffff16600d60006001846112da91906146b8565b815260200190815260200160002060020160009054906101000a900473ffffffffffffffffffffffffffffffffffffffff1673ffffffffffffffffffffffffffffffffffffffff16036114c657600060018261133691906146b8565b90506000600d60008381526020019081526020016000209050806040518060e0016040529081600082015481526020016001820160009054906101000a900473ffffffffffffffffffffffffffffffffffffffff1673ffffffffffffffffffffffffffffffffffffffff1673ffffffffffffffffffffffffffffffffffffffff1681526020016002820160009054906101000a900473ffffffffffffffffffffffffffffffffffffffff1673ffffffffffffffffffffffffffffffffffffffff1673ffffffffffffffffffffffffffffffffffffffff1681526020016003820160009054906101000a900473ffffffffffffffffffffffffffffffffffffffff1673ffffffffffffffffffffffffffffffffffffffff1673ffffffffffffffffffffffffffffffffffffffff16815260200160048201548152602001600582015481526020016006820160009054906101000a900460ff1615151515815250508486815181106114a9576114a86146ec565b5b60200260200101819052506001856114c191906146b8565b945050505b80806114d19061471b565b9150506112aa565b508094505050505090565b600073ffffffffffffffffffffffffffffffffffffffff16600d600084815260200190815260200160002060030160009054906101000a900473ffffffffffffffffffffffffffffffffffffffff1673ffffffffffffffffffffffffffffffffffffffff1603611589576040517f08c379a000000000000000000000000000000000000000000000000000000000815260040161158090614b79565b60405180910390fd5b3373ffffffffffffffffffffffffffffffffffffffff16600d600084815260200190815260200160002060020160009054906101000a900473ffffffffffffffffffffffffffffffffffffffff1673ffffffffffffffffffffffffffffffffffffffff161461162d576040517f08c379a000000000000000000000000000000000000000000000000000000000815260040161162490614be5565b60405180910390fd5b60008111611670576040517f08c379a000000000000000000000000000000000000000000000000000000000815260040161166790614c51565b60405180910390fd5b80600d6000848152602001908152602001600020600501819055506116e06040518060400160405280601581526020017f55706461746564206d61726b6574206974656d3a200000000000000000000000815250600d600085815260200190815260200160002060050154612ecc565b5050565b6000806116f083612f68565b9050600073ffffffffffffffffffffffffffffffffffffffff168173ffffffffffffffffffffffffffffffffffffffff1603611761576040517f08c379a000000000000000000000000000000000000000000000000000000000815260040161175890614cbd565b60405180910390fd5b80915050919050565b60008073ffffffffffffffffffffffffffffffffffffffff168273ffffffffffffffffffffffffffffffffffffffff16036117da576040517f08c379a00000000000000000000000000000000000000000000000000000000081526004016117d190614d4f565b60405180910390fd5b600360008373ffffffffffffffffffffffffffffffffffffffff1673ffffffffffffffffffffffffffffffffffffffff168152602001908152602001600020549050919050565b61185f6040518060400160405280601981526020017f526573656c6c206d61726b6574206974656d2063616c6c656400000000000000815250612fa5565b3373ffffffffffffffffffffffffffffffffffffffff16600d600085815260200190815260200160002060030160009054906101000a900473ffffffffffffffffffffffffffffffffffffffff1673ffffffffffffffffffffffffffffffffffffffff16148061191c5750600c60009054906101000a900473ffffffffffffffffffffffffffffffffffffffff1673ffffffffffffffffffffffffffffffffffffffff163373ffffffffffffffffffffffffffffffffffffffff16145b61195b576040517f08c379a000000000000000000000000000000000000000000000000000000000815260040161195290614dbb565b60405180910390fd5b6000600d600085815260200190815260200160002060060160006101000a81548160ff02191690831515021790555081600d60008581526020019081526020016000206005018190555033600d600085815260200190815260200160002060020160006101000a81548173ffffffffffffffffffffffffffffffffffffffff021916908373ffffffffffffffffffffffffffffffffffffffff16021790555030600d600085815260200190815260200160002060030160006101000a81548173ffffffffffffffffffffffffffffffffffffffff021916908373ffffffffffffffffffffffffffffffffffffffff1602179055506000611a5b6009612b30565b1115611a6c57611a6b600961303e565b5b611a77813085612bd3565b505050565b3073ffffffffffffffffffffffffffffffffffffffff166342842e0e3083856040518463ffffffff1660e01b8152600401611ab993929190614ddb565b600060405180830381600087803b158015611ad357600080fd5b505af1158015611ae7573d6000803e3d6000fd5b5050505080600d600084815260200190815260200160002060030160006101000a81548173ffffffffffffffffffffffffffffffffffffffff021916908373ffffffffffffffffffffffffffffffffffffffff1602179055506001600d600084815260200190815260200160002060060160006101000a81548160ff0219169083151502179055507f20665ee57a5e13af162123968d777ccebe86531a21e53d08afc78138a950192d8282604051611ba09291906149a5565b60405180910390a15050565b600080600d60008481526020019081526020016000206040518060e0016040529081600082015481526020016001820160009054906101000a900473ffffffffffffffffffffffffffffffffffffffff1673ffffffffffffffffffffffffffffffffffffffff1673ffffffffffffffffffffffffffffffffffffffff1681526020016002820160009054906101000a900473ffffffffffffffffffffffffffffffffffffffff1673ffffffffffffffffffffffffffffffffffffffff1673ffffffffffffffffffffffffffffffffffffffff1681526020016003820160009054906101000a900473ffffffffffffffffffffffffffffffffffffffff1673ffffffffffffffffffffffffffffffffffffffff1673ffffffffffffffffffffffffffffffffffffffff16815260200160048201548152602001600582015481526020016006820160009054906101000a900460ff16151515158152505090508060a00151915050919050565b606060018054611d2690614500565b80601f0160208091040260200160405190810160405280929190818152602001828054611d5290614500565b8015611d9f5780601f10611d7457610100808354040283529160200191611d9f565b820191906000526020600020905b815481529060010190602001808311611d8257829003601f168201915b5050505050905090565b60008290508073ffffffffffffffffffffffffffffffffffffffff1663b9a2de3a836040518263ffffffff1660e01b8152600401611de79190614077565b600060405180830381600087803b158015611e0157600080fd5b505af1158015611e15573d6000803e3d6000fd5b50505050505050565b611e30611e29612a6f565b838361309a565b5050565b6000806000600d60008581526020019081526020016000206040518060e0016040529081600082015481526020016001820160009054906101000a900473ffffffffffffffffffffffffffffffffffffffff1673ffffffffffffffffffffffffffffffffffffffff1673ffffffffffffffffffffffffffffffffffffffff1681526020016002820160009054906101000a900473ffffffffffffffffffffffffffffffffffffffff1673ffffffffffffffffffffffffffffffffffffffff1673ffffffffffffffffffffffffffffffffffffffff1681526020016003820160009054906101000a900473ffffffffffffffffffffffffffffffffffffffff1673ffffffffffffffffffffffffffffffffffffffff1673ffffffffffffffffffffffffffffffffffffffff16815260200160048201548152602001600582015481526020016006820160009054906101000a900460ff1615151515815250509050806080015181602001519250925050915091565b6000600d600083815260200190815260200160002060020160009054906101000a900473ffffffffffffffffffffffffffffffffffffffff169050919050565b600b60009054906101000a900473ffffffffffffffffffffffffffffffffffffffff1673ffffffffffffffffffffffffffffffffffffffff163373ffffffffffffffffffffffffffffffffffffffff1614612078576040517f08c379a000000000000000000000000000000000000000000000000000000000815260040161206f90614867565b60405180910390fd5b80600a8190555050565b61209361208d612a6f565b83612b3e565b6120d2576040517f08c379a00000000000000000000000000000000000000000000000000000000081526004016120c9906147d5565b60405180910390fd5b6120de84848484613206565b50505050565b6000600d6000838152602001908152602001600020600501549050803414612141576040517f08c379a000000000000000000000000000000000000000000000000000000000815260040161213890614e84565b60405180910390fd5b33600d600084815260200190815260200160002060030160006101000a81548173ffffffffffffffffffffffffffffffffffffffff021916908373ffffffffffffffffffffffffffffffffffffffff1602179055506001600d600084815260200190815260200160002060060160006101000a81548160ff0219169083151502179055506121cf6009613262565b6121da303384612bd3565b600b60009054906101000a900473ffffffffffffffffffffffffffffffffffffffff1673ffffffffffffffffffffffffffffffffffffffff166108fc600a549081150290604051600060405180830381858888f19350505050158015612244573d6000803e3d6000fd5b50600d600083815260200190815260200160002060020160009054906101000a900473ffffffffffffffffffffffffffffffffffffffff1673ffffffffffffffffffffffffffffffffffffffff166108fc349081150290604051600060405180830381858888f193505050501580156122c1573d6000803e3d6000fd5b505050565b60006122d26008613262565b60006122de6008612b30565b90506122ea3382613278565b6122f48186613495565b6122ff818585610efd565b809150509392505050565b606060006123186008612b30565b905060008060005b838110156123c0573373ffffffffffffffffffffffffffffffffffffffff16600d600060018461235091906146b8565b815260200190815260200160002060030160009054906101000a900473ffffffffffffffffffffffffffffffffffffffff1673ffffffffffffffffffffffffffffffffffffffff16036123ad576001836123aa91906146b8565b92505b80806123b89061471b565b915050612320565b5060008267ffffffffffffffff8111156123dd576123dc6141d3565b5b60405190808252806020026020018201604052801561241657816020015b612403613a80565b8152602001906001900390816123fb5790505b50905060005b8481101561264b573373ffffffffffffffffffffffffffffffffffffffff16600d600060018461244c91906146b8565b815260200190815260200160002060030160009054906101000a900473ffffffffffffffffffffffffffffffffffffffff1673ffffffffffffffffffffffffffffffffffffffff16036126385760006001826124a891906146b8565b90506000600d60008381526020019081526020016000209050806040518060e0016040529081600082015481526020016001820160009054906101000a900473ffffffffffffffffffffffffffffffffffffffff1673ffffffffffffffffffffffffffffffffffffffff1673ffffffffffffffffffffffffffffffffffffffff1681526020016002820160009054906101000a900473ffffffffffffffffffffffffffffffffffffffff1673ffffffffffffffffffffffffffffffffffffffff1673ffffffffffffffffffffffffffffffffffffffff1681526020016003820160009054906101000a900473ffffffffffffffffffffffffffffffffffffffff1673ffffffffffffffffffffffffffffffffffffffff1673ffffffffffffffffffffffffffffffffffffffff16815260200160048201548152602001600582015481526020016006820160009054906101000a900460ff16151515158152505084868151811061261b5761261a6146ec565b5b602002602001018190525060018561263391906146b8565b945050505b80806126439061471b565b91505061241c565b508094505050505090565b600d600082815260200190815260200160002060020160009054906101000a900473ffffffffffffffffffffffffffffffffffffffff1673ffffffffffffffffffffffffffffffffffffffff163373ffffffffffffffffffffffffffffffffffffffff16146126fa576040517f08c379a00000000000000000000000000000000000000000000000000000000081526004016126f190614ef0565b60405180910390fd5b612705303383612bd3565b33600d600083815260200190815260200160002060030160006101000a81548173ffffffffffffffffffffffffffffffffffffffff021916908373ffffffffffffffffffffffffffffffffffffffff1602179055506001600d600083815260200190815260200160002060060160006101000a81548160ff0219169083151502179055506127936009613262565b50565b600a5481565b60606127a782612a24565b60006006600084815260200190815260200160002080546127c790614500565b80601f01602080910402602001604051908101604052809291908181526020018280546127f390614500565b80156128405780601f1061281557610100808354040283529160200191612840565b820191906000526020600020905b81548152906001019060200180831161282357829003601f168201915b505050505090506000612851613539565b905060008151036128665781925050506128a9565b60008251111561289b578082604051602001612883929190614f4c565b604051602081830303815290604052925050506128a9565b6128a484613550565b925050505b919050565b6000600560008473ffffffffffffffffffffffffffffffffffffffff1673ffffffffffffffffffffffffffffffffffffffff16815260200190815260200160002060008373ffffffffffffffffffffffffffffffffffffffff1673ffffffffffffffffffffffffffffffffffffffff16815260200190815260200160002060009054906101000a900460ff16905092915050565b60007f80ac58cd000000000000000000000000000000000000000000000000000000007bffffffffffffffffffffffffffffffffffffffffffffffffffffffff1916827bffffffffffffffffffffffffffffffffffffffffffffffffffffffff19161480612a0d57507f5b5e139f000000000000000000000000000000000000000000000000000000007bffffffffffffffffffffffffffffffffffffffffffffffffffffffff1916827bffffffffffffffffffffffffffffffffffffffffffffffffffffffff1916145b80612a1d5750612a1c826135b8565b5b9050919050565b612a2d81613622565b612a6c576040517f08c379a0000000000000000000000000000000000000000000000000000000008152600401612a6390614cbd565b60405180910390fd5b50565b600033905090565b816004600083815260200190815260200160002060006101000a81548173ffffffffffffffffffffffffffffffffffffffff021916908373ffffffffffffffffffffffffffffffffffffffff160217905550808273ffffffffffffffffffffffffffffffffffffffff16612aea836116e4565b73ffffffffffffffffffffffffffffffffffffffff167f8c5be1e5ebec7d5bd14f71427d1e84f3dd0314c0f7b2291e5b200ac8c7c3b92560405160405180910390a45050565b600081600001549050919050565b600080612b4a836116e4565b90508073ffffffffffffffffffffffffffffffffffffffff168473ffffffffffffffffffffffffffffffffffffffff161480612b8c5750612b8b81856128ae565b5b80612bca57508373ffffffffffffffffffffffffffffffffffffffff16612bb284610851565b73ffffffffffffffffffffffffffffffffffffffff16145b91505092915050565b8273ffffffffffffffffffffffffffffffffffffffff16612bf3826116e4565b73ffffffffffffffffffffffffffffffffffffffff1614612c49576040517f08c379a0000000000000000000000000000000000000000000000000000000008152600401612c4090614fe2565b60405180910390fd5b600073ffffffffffffffffffffffffffffffffffffffff168273ffffffffffffffffffffffffffffffffffffffff1603612cb8576040517f08c379a0000000000000000000000000000000000000000000000000000000008152600401612caf90615074565b60405180910390fd5b612cc58383836001613663565b8273ffffffffffffffffffffffffffffffffffffffff16612ce5826116e4565b73ffffffffffffffffffffffffffffffffffffffff1614612d3b576040517f08c379a0000000000000000000000000000000000000000000000000000000008152600401612d3290614fe2565b60405180910390fd5b6004600082815260200190815260200160002060006101000a81549073ffffffffffffffffffffffffffffffffffffffff02191690556001600360008573ffffffffffffffffffffffffffffffffffffffff1673ffffffffffffffffffffffffffffffffffffffff168152602001908152602001600020600082825403925050819055506001600360008473ffffffffffffffffffffffffffffffffffffffff1673ffffffffffffffffffffffffffffffffffffffff16815260200190815260200160002060008282540192505081905550816002600083815260200190815260200160002060006101000a81548173ffffffffffffffffffffffffffffffffffffffff021916908373ffffffffffffffffffffffffffffffffffffffff160217905550808273ffffffffffffffffffffffffffffffffffffffff168473ffffffffffffffffffffffffffffffffffffffff167fddf252ad1be2c89b69c2b068fc378daa952ba7f163c4a11628f55a4df523b3ef60405160405180910390a4612ec78383836001613669565b505050565b612f648282604051602401612ee2929190615094565b6040516020818303038152906040527fb60e72cc000000000000000000000000000000000000000000000000000000007bffffffffffffffffffffffffffffffffffffffffffffffffffffffff19166020820180517bffffffffffffffffffffffffffffffffffffffffffffffffffffffff838183161783525050505061366f565b5050565b60006002600083815260200190815260200160002060009054906101000a900473ffffffffffffffffffffffffffffffffffffffff169050919050565b61303b81604051602401612fb99190613c6a565b6040516020818303038152906040527f41304fac000000000000000000000000000000000000000000000000000000007bffffffffffffffffffffffffffffffffffffffffffffffffffffffff19166020820180517bffffffffffffffffffffffffffffffffffffffffffffffffffffffff838183161783525050505061366f565b50565b6000816000015490506000811161308a576040517f08c379a000000000000000000000000000000000000000000000000000000000815260040161308190615110565b60405180910390fd5b6001810382600001819055505050565b8173ffffffffffffffffffffffffffffffffffffffff168373ffffffffffffffffffffffffffffffffffffffff1603613108576040517f08c379a00000000000000000000000000000000000000000000000000000000081526004016130ff9061517c565b60405180910390fd5b80600560008573ffffffffffffffffffffffffffffffffffffffff1673ffffffffffffffffffffffffffffffffffffffff16815260200190815260200160002060008473ffffffffffffffffffffffffffffffffffffffff1673ffffffffffffffffffffffffffffffffffffffff16815260200190815260200160002060006101000a81548160ff0219169083151502179055508173ffffffffffffffffffffffffffffffffffffffff168373ffffffffffffffffffffffffffffffffffffffff167f17307eab39ab6107e8899845ad3d59bd9653f200f220920489ca2b5937696c31836040516131f99190613bbf565b60405180910390a3505050565b613211848484612bd3565b61321d84848484613689565b61325c576040517f08c379a00000000000000000000000000000000000000000000000000000000081526004016132539061520e565b60405180910390fd5b50505050565b6001816000016000828254019250508190555050565b600073ffffffffffffffffffffffffffffffffffffffff168273ffffffffffffffffffffffffffffffffffffffff16036132e7576040517f08c379a00000000000000000000000000000000000000000000000000000000081526004016132de9061527a565b60405180910390fd5b6132f081613622565b15613330576040517f08c379a0000000000000000000000000000000000000000000000000000000008152600401613327906152e6565b60405180910390fd5b61333e600083836001613663565b61334781613622565b15613387576040517f08c379a000000000000000000000000000000000000000000000000000000000815260040161337e906152e6565b60405180910390fd5b6001600360008473ffffffffffffffffffffffffffffffffffffffff1673ffffffffffffffffffffffffffffffffffffffff16815260200190815260200160002060008282540192505081905550816002600083815260200190815260200160002060006101000a81548173ffffffffffffffffffffffffffffffffffffffff021916908373ffffffffffffffffffffffffffffffffffffffff160217905550808273ffffffffffffffffffffffffffffffffffffffff16600073ffffffffffffffffffffffffffffffffffffffff167fddf252ad1be2c89b69c2b068fc378daa952ba7f163c4a11628f55a4df523b3ef60405160405180910390a4613491600083836001613669565b5050565b61349e82613622565b6134dd576040517f08c379a00000000000000000000000000000000000000000000000000000000081526004016134d490615378565b60405180910390fd5b806006600084815260200190815260200160002090816134fd9190615544565b507ff8e1a15aba9398e019f0b49df1a4fde98ee17ae345cb5f6b5e2c27f5033e8ce78260405161352d9190614077565b60405180910390a15050565b606060405180602001604052806000815250905090565b606061355b82612a24565b6000613565613539565b9050600081511161358557604051806020016040528060008152506135b0565b8061358f84613810565b6040516020016135a0929190614f4c565b6040516020818303038152906040525b915050919050565b60007f01ffc9a7000000000000000000000000000000000000000000000000000000007bffffffffffffffffffffffffffffffffffffffffffffffffffffffff1916827bffffffffffffffffffffffffffffffffffffffffffffffffffffffff1916149050919050565b60008073ffffffffffffffffffffffffffffffffffffffff1661364483612f68565b73ffffffffffffffffffffffffffffffffffffffff1614159050919050565b50505050565b50505050565b6136868161367e6138de6138ff565b63ffffffff16565b50565b60006136aa8473ffffffffffffffffffffffffffffffffffffffff1661390a565b15613803578373ffffffffffffffffffffffffffffffffffffffff1663150b7a026136d3612a6f565b8786866040518563ffffffff1660e01b81526004016136f5949392919061566b565b6020604051808303816000875af192505050801561373157506040513d601f19601f8201168201806040525081019061372e91906156cc565b60015b6137b3573d8060008114613761576040519150601f19603f3d011682016040523d82523d6000602084013e613766565b606091505b5060008151036137ab576040517f08c379a00000000000000000000000000000000000000000000000000000000081526004016137a29061520e565b60405180910390fd5b805181602001fd5b63150b7a0260e01b7bffffffffffffffffffffffffffffffffffffffffffffffffffffffff1916817bffffffffffffffffffffffffffffffffffffffffffffffffffffffff191614915050613808565b600190505b949350505050565b60606000600161381f8461392d565b01905060008167ffffffffffffffff81111561383e5761383d6141d3565b5b6040519080825280601f01601f1916602001820160405280156138705781602001600182028036833780820191505090505b509050600082602001820190505b6001156138d3578080600190039150507f3031323334353637383961626364656600000000000000000000000000000000600a86061a8153600a85816138c7576138c66156f9565b5b0494506000850361387e575b819350505050919050565b60006a636f6e736f6c652e6c6f679050600080835160208501845afa505050565b613b01819050919050565b6000808273ffffffffffffffffffffffffffffffffffffffff163b119050919050565b600080600090507a184f03e93ff9f4daa797ed6e38ed64bf6a1f010000000000000000831061398b577a184f03e93ff9f4daa797ed6e38ed64bf6a1f0100000000000000008381613981576139806156f9565b5b0492506040810190505b6d04ee2d6d415b85acef810000000083106139c8576d04ee2d6d415b85acef810000000083816139be576139bd6156f9565b5b0492506020810190505b662386f26fc1000083106139f757662386f26fc1000083816139ed576139ec6156f9565b5b0492506010810190505b6305f5e1008310613a20576305f5e1008381613a1657613a156156f9565b5b0492506008810190505b6127108310613a45576127108381613a3b57613a3a6156f9565b5b0492506004810190505b60648310613a685760648381613a5e57613a5d6156f9565b5b0492506002810190505b600a8310613a77576001810190505b80915050919050565b6040518060e0016040528060008152602001600073ffffffffffffffffffffffffffffffffffffffff168152602001600073ffffffffffffffffffffffffffffffffffffffff168152602001600073ffffffffffffffffffffffffffffffffffffffff16815260200160008152602001600081526020016000151581525090565b613b09615728565b565b6000604051905090565b600080fd5b600080fd5b60007fffffffff0000000000000000000000000000000000000000000000000000000082169050919050565b613b5481613b1f565b8114613b5f57600080fd5b50565b600081359050613b7181613b4b565b92915050565b600060208284031215613b8d57613b8c613b15565b5b6000613b9b84828501613b62565b91505092915050565b60008115159050919050565b613bb981613ba4565b82525050565b6000602082019050613bd46000830184613bb0565b92915050565b600081519050919050565b600082825260208201905092915050565b60005b83811015613c14578082015181840152602081019050613bf9565b60008484015250505050565b6000601f19601f8301169050919050565b6000613c3c82613bda565b613c468185613be5565b9350613c56818560208601613bf6565b613c5f81613c20565b840191505092915050565b60006020820190508181036000830152613c848184613c31565b905092915050565b6000819050919050565b613c9f81613c8c565b8114613caa57600080fd5b50565b600081359050613cbc81613c96565b92915050565b600060208284031215613cd857613cd7613b15565b5b6000613ce684828501613cad565b91505092915050565b600073ffffffffffffffffffffffffffffffffffffffff82169050919050565b6000613d1a82613cef565b9050919050565b613d2a81613d0f565b82525050565b6000602082019050613d456000830184613d21565b92915050565b613d5481613d0f565b8114613d5f57600080fd5b50565b600081359050613d7181613d4b565b92915050565b60008060408385031215613d8e57613d8d613b15565b5b6000613d9c85828601613d62565b9250506020613dad85828601613cad565b9150509250929050565b600081519050919050565b600082825260208201905092915050565b6000819050602082019050919050565b613dec81613c8c565b82525050565b6000613dfd82613cef565b9050919050565b613e0d81613df2565b82525050565b613e1c81613ba4565b82525050565b60e082016000820151613e386000850182613de3565b506020820151613e4b6020850182613e04565b506040820151613e5e6040850182613e04565b506060820151613e716060850182613e04565b506080820151613e846080850182613de3565b5060a0820151613e9760a0850182613de3565b5060c0820151613eaa60c0850182613e13565b50505050565b6000613ebc8383613e22565b60e08301905092915050565b6000602082019050919050565b6000613ee082613db7565b613eea8185613dc2565b9350613ef583613dd3565b8060005b83811015613f26578151613f0d8882613eb0565b9750613f1883613ec8565b925050600181019050613ef9565b5085935050505092915050565b60006020820190508181036000830152613f4d8184613ed5565b905092915050565b600060208284031215613f6b57613f6a613b15565b5b6000613f7984828501613d62565b91505092915050565b600080600060608486031215613f9b57613f9a613b15565b5b6000613fa986828701613d62565b9350506020613fba86828701613d62565b9250506040613fcb86828701613cad565b9150509250925092565b600080600060608486031215613fee57613fed613b15565b5b6000613ffc86828701613cad565b935050602061400d86828701613cad565b925050604061401e86828701613cad565b9150509250925092565b6000806040838503121561403f5761403e613b15565b5b600061404d85828601613cad565b925050602061405e85828601613cad565b9150509250929050565b61407181613c8c565b82525050565b600060208201905061408c6000830184614068565b92915050565b6000806000606084860312156140ab576140aa613b15565b5b60006140b986828701613cad565b93505060206140ca86828701613cad565b92505060406140db86828701613d62565b9150509250925092565b600080604083850312156140fc576140fb613b15565b5b600061410a85828601613cad565b925050602061411b85828601613d62565b9150509250929050565b61412e81613ba4565b811461413957600080fd5b50565b60008135905061414b81614125565b92915050565b6000806040838503121561416857614167613b15565b5b600061417685828601613d62565b92505060206141878582860161413c565b9150509250929050565b61419a81613df2565b82525050565b60006040820190506141b56000830185614068565b6141c26020830184614191565b9392505050565b600080fd5b600080fd5b7f4e487b7100000000000000000000000000000000000000000000000000000000600052604160045260246000fd5b61420b82613c20565b810181811067ffffffffffffffff8211171561422a576142296141d3565b5b80604052505050565b600061423d613b0b565b90506142498282614202565b919050565b600067ffffffffffffffff821115614269576142686141d3565b5b61427282613c20565b9050602081019050919050565b82818337600083830152505050565b60006142a161429c8461424e565b614233565b9050828152602081018484840111156142bd576142bc6141ce565b5b6142c884828561427f565b509392505050565b600082601f8301126142e5576142e46141c9565b5b81356142f584826020860161428e565b91505092915050565b6000806000806080858703121561431857614317613b15565b5b600061432687828801613d62565b945050602061433787828801613d62565b935050604061434887828801613cad565b925050606085013567ffffffffffffffff81111561436957614368613b1a565b5b614375878288016142d0565b91505092959194509250565b600067ffffffffffffffff82111561439c5761439b6141d3565b5b6143a582613c20565b9050602081019050919050565b60006143c56143c084614381565b614233565b9050828152602081018484840111156143e1576143e06141ce565b5b6143ec84828561427f565b509392505050565b600082601f830112614409576144086141c9565b5b81356144198482602086016143b2565b91505092915050565b60008060006060848603121561443b5761443a613b15565b5b600084013567ffffffffffffffff81111561445957614458613b1a565b5b614465868287016143f4565b935050602061447686828701613cad565b925050604061448786828701613cad565b9150509250925092565b600080604083850312156144a8576144a7613b15565b5b60006144b685828601613d62565b92505060206144c785828601613d62565b9150509250929050565b7f4e487b7100000000000000000000000000000000000000000000000000000000600052602260045260246000fd5b6000600282049050600182168061451857607f821691505b60208210810361452b5761452a6144d1565b5b50919050565b7f4552433732313a20617070726f76616c20746f2063757272656e74206f776e6560008201527f7200000000000000000000000000000000000000000000000000000000000000602082015250565b600061458d602183613be5565b915061459882614531565b604082019050919050565b600060208201905081810360008301526145bc81614580565b9050919050565b7f4552433732313a20617070726f76652063616c6c6572206973206e6f7420746f60008201527f6b656e206f776e6572206f7220617070726f76656420666f7220616c6c000000602082015250565b600061461f603d83613be5565b915061462a826145c3565b604082019050919050565b6000602082019050818103600083015261464e81614612565b9050919050565b7f4e487b7100000000000000000000000000000000000000000000000000000000600052601160045260246000fd5b600061468f82613c8c565b915061469a83613c8c565b92508282039050818111156146b2576146b1614655565b5b92915050565b60006146c382613c8c565b91506146ce83613c8c565b92508282019050808211156146e6576146e5614655565b5b92915050565b7f4e487b7100000000000000000000000000000000000000000000000000000000600052603260045260246000fd5b600061472682613c8c565b91507fffffffffffffffffffffffffffffffffffffffffffffffffffffffffffffffff820361475857614757614655565b5b600182019050919050565b7f4552433732313a2063616c6c6572206973206e6f7420746f6b656e206f776e6560008201527f72206f7220617070726f76656400000000000000000000000000000000000000602082015250565b60006147bf602d83613be5565b91506147ca82614763565b604082019050919050565b600060208201905081810360008301526147ee816147b2565b9050919050565b7f6f6e6c79206f776e6572206f662074686520636f6e74726163742063616e207560008201527f706461746520746865206c697374696e67207072696365000000000000000000602082015250565b6000614851603783613be5565b915061485c826147f5565b604082019050919050565b6000602082019050818103600083015261488081614844565b9050919050565b7f4e6f2066756e647320746f207769746864726177000000000000000000000000600082015250565b60006148bd601483613be5565b91506148c882614887565b602082019050919050565b600060208201905081810360008301526148ec816148b0565b9050919050565b600081905092915050565b50565b600061490e6000836148f3565b9150614919826148fe565b600082019050919050565b600061492f82614901565b9150819050919050565b7f4661696c656420746f2077697468647261772066756e64730000000000000000600082015250565b600061496f601883613be5565b915061497a82614939565b602082019050919050565b6000602082019050818103600083015261499e81614962565b9050919050565b60006040820190506149ba6000830185614068565b6149c76020830184613d21565b9392505050565b7f5072696365206d757374206265206174206c6561737420312077656900000000600082015250565b6000614a04601c83613be5565b9150614a0f826149ce565b602082019050919050565b60006020820190508181036000830152614a33816149f7565b9050919050565b7f5072696365206d757374206265207061696420696e2066756c6c000000000000600082015250565b6000614a70601a83613be5565b9150614a7b82614a3a565b602082019050919050565b60006020820190508181036000830152614a9f81614a63565b9050919050565b600060c082019050614abb6000830189613d21565b614ac86020830188613d21565b614ad56040830187613d21565b614ae26060830186614068565b614aef6080830185614068565b614afc60a0830184613bb0565b979650505050505050565b7f4e465420646f6573206e6f7420657869737420696e206d61726b6574706c616360008201527f6500000000000000000000000000000000000000000000000000000000000000602082015250565b6000614b63602183613be5565b9150614b6e82614b07565b604082019050919050565b60006020820190508181036000830152614b9281614b56565b9050919050565b7f43616c6c6572206973206e6f7420746865206f776e6572000000000000000000600082015250565b6000614bcf601783613be5565b9150614bda82614b99565b602082019050919050565b60006020820190508181036000830152614bfe81614bc2565b9050919050565b7f5072696365206d7573742062652067726561746572207468616e207a65726f00600082015250565b6000614c3b601f83613be5565b9150614c4682614c05565b602082019050919050565b60006020820190508181036000830152614c6a81614c2e565b9050919050565b7f4552433732313a20696e76616c696420746f6b656e2049440000000000000000600082015250565b6000614ca7601883613be5565b9150614cb282614c71565b602082019050919050565b60006020820190508181036000830152614cd681614c9a565b9050919050565b7f4552433732313a2061646472657373207a65726f206973206e6f74206120766160008201527f6c6964206f776e65720000000000000000000000000000000000000000000000602082015250565b6000614d39602983613be5565b9150614d4482614cdd565b604082019050919050565b60006020820190508181036000830152614d6881614d2c565b9050919050565b7f4f6e6c79206f776e65722063616e2072656c697374204e465400000000000000600082015250565b6000614da5601983613be5565b9150614db082614d6f565b602082019050919050565b60006020820190508181036000830152614dd481614d98565b9050919050565b6000606082019050614df06000830186613d21565b614dfd6020830185613d21565b614e0a6040830184614068565b949350505050565b7f506c65617365207375626d6974207468652061736b696e67207072696365206960008201527f6e206f7264657220746f20636f6d706c65746520746865207075726368617365602082015250565b6000614e6e604083613be5565b9150614e7982614e12565b604082019050919050565b60006020820190508181036000830152614e9d81614e61565b9050919050565b7f4f6e6c7920746f6b656e2073656c6c65722063616e2064656c69737400000000600082015250565b6000614eda601c83613be5565b9150614ee582614ea4565b602082019050919050565b60006020820190508181036000830152614f0981614ecd565b9050919050565b600081905092915050565b6000614f2682613bda565b614f308185614f10565b9350614f40818560208601613bf6565b80840191505092915050565b6000614f588285614f1b565b9150614f648284614f1b565b91508190509392505050565b7f4552433732313a207472616e736665722066726f6d20696e636f72726563742060008201527f6f776e6572000000000000000000000000000000000000000000000000000000602082015250565b6000614fcc602583613be5565b9150614fd782614f70565b604082019050919050565b60006020820190508181036000830152614ffb81614fbf565b9050919050565b7f4552433732313a207472616e7366657220746f20746865207a65726f2061646460008201527f7265737300000000000000000000000000000000000000000000000000000000602082015250565b600061505e602483613be5565b915061506982615002565b604082019050919050565b6000602082019050818103600083015261508d81615051565b9050919050565b600060408201905081810360008301526150ae8185613c31565b90506150bd6020830184614068565b9392505050565b7f436f756e7465723a2064656372656d656e74206f766572666c6f770000000000600082015250565b60006150fa601b83613be5565b9150615105826150c4565b602082019050919050565b60006020820190508181036000830152615129816150ed565b9050919050565b7f4552433732313a20617070726f766520746f2063616c6c657200000000000000600082015250565b6000615166601983613be5565b915061517182615130565b602082019050919050565b6000602082019050818103600083015261519581615159565b9050919050565b7f4552433732313a207472616e7366657220746f206e6f6e20455243373231526560008201527f63656976657220696d706c656d656e7465720000000000000000000000000000602082015250565b60006151f8603283613be5565b91506152038261519c565b604082019050919050565b60006020820190508181036000830152615227816151eb565b9050919050565b7f4552433732313a206d696e7420746f20746865207a65726f2061646472657373600082015250565b6000615264602083613be5565b915061526f8261522e565b602082019050919050565b6000602082019050818103600083015261529381615257565b9050919050565b7f4552433732313a20746f6b656e20616c7265616479206d696e74656400000000600082015250565b60006152d0601c83613be5565b91506152db8261529a565b602082019050919050565b600060208201905081810360008301526152ff816152c3565b9050919050565b7f45524337323155524953746f726167653a2055524920736574206f66206e6f6e60008201527f6578697374656e7420746f6b656e000000000000000000000000000000000000602082015250565b6000615362602e83613be5565b915061536d82615306565b604082019050919050565b6000602082019050818103600083015261539181615355565b9050919050565b60008190508160005260206000209050919050565b60006020601f8301049050919050565b600082821b905092915050565b6000600883026153fa7fffffffffffffffffffffffffffffffffffffffffffffffffffffffffffffffff826153bd565b61540486836153bd565b95508019841693508086168417925050509392505050565b6000819050919050565b600061544161543c61543784613c8c565b61541c565b613c8c565b9050919050565b6000819050919050565b61545b83615426565b61546f61546782615448565b8484546153ca565b825550505050565b600090565b615484615477565b61548f818484615452565b505050565b5b818110156154b3576154a860008261547c565b600181019050615495565b5050565b601f8211156154f8576154c981615398565b6154d2846153ad565b810160208510156154e1578190505b6154f56154ed856153ad565b830182615494565b50505b505050565b600082821c905092915050565b600061551b600019846008026154fd565b1980831691505092915050565b6000615534838361550a565b9150826002028217905092915050565b61554d82613bda565b67ffffffffffffffff811115615566576155656141d3565b5b6155708254614500565b61557b8282856154b7565b600060209050601f8311600181146155ae576000841561559c578287015190505b6155a68582615528565b86555061560e565b601f1984166155bc86615398565b60005b828110156155e4578489015182556001820191506020850194506020810190506155bf565b8683101561560157848901516155fd601f89168261550a565b8355505b6001600288020188555050505b505050505050565b600081519050919050565b600082825260208201905092915050565b600061563d82615616565b6156478185615621565b9350615657818560208601613bf6565b61566081613c20565b840191505092915050565b60006080820190506156806000830187613d21565b61568d6020830186613d21565b61569a6040830185614068565b81810360608301526156ac8184615632565b905095945050505050565b6000815190506156c681613b4b565b92915050565b6000602082840312156156e2576156e1613b15565b5b60006156f0848285016156b7565b91505092915050565b7f4e487b7100000000000000000000000000000000000000000000000000000000600052601260045260246000fd5b7f4e487b7100000000000000000000000000000000000000000000000000000000600052605160045260246000fdfea2646970667358221220c945d91bea95e4e4be4c3ae6326aff7eff9ded25b994041bbbdec20532b5bca864736f6c63430008130033",
  "linkReferences": {},
  "deployedLinkReferences": {}
}