{
  "_format": "hh-sol-artifact-1",
  "contractName": "Marketplace",
  "sourceName": "contracts/Marketplace.sol",
  "abi": [
    {
      "inputs": [],
      "stateMutability": "nonpayable",
      "type": "constructor"
    },
    {
      "anonymous": false,
      "inputs": [
        {
          "indexed": true,
          "internalType": "address",
          "name": "owner",
          "type": "address"
        },
        {
          "indexed": true,
          "internalType": "address",
          "name": "approved",
          "type": "address"
        },
        {
          "indexed": true,
          "internalType": "uint256",
          "name": "tokenId",
          "type": "uint256"
        }
      ],
      "name": "Approval",
      "type": "event"
    },
    {
      "anonymous": false,
      "inputs": [
        {
          "indexed": true,
          "internalType": "address",
          "name": "owner",
          "type": "address"
        },
        {
          "indexed": true,
          "internalType": "address",
          "name": "operator",
          "type": "address"
        },
        {
          "indexed": false,
          "internalType": "bool",
          "name": "approved",
          "type": "bool"
        }
      ],
      "name": "ApprovalForAll",
      "type": "event"
    },
    {
      "anonymous": false,
      "inputs": [
        {
          "indexed": false,
          "internalType": "uint256",
          "name": "_fromTokenId",
          "type": "uint256"
        },
        {
          "indexed": false,
          "internalType": "uint256",
          "name": "_toTokenId",
          "type": "uint256"
        }
      ],
      "name": "BatchMetadataUpdate",
      "type": "event"
    },
    {
      "anonymous": false,
      "inputs": [
        {
          "indexed": false,
          "internalType": "uint256",
          "name": "amount",
          "type": "uint256"
        },
        {
          "indexed": false,
          "internalType": "address",
          "name": "targetWallet",
          "type": "address"
        }
      ],
      "name": "FundsWithdrawn",
      "type": "event"
    },
    {
      "anonymous": false,
      "inputs": [
        {
          "indexed": true,
          "internalType": "uint256",
          "name": "tokenId",
          "type": "uint256"
        },
        {
          "indexed": false,
          "internalType": "address",
          "name": "originalOwner",
          "type": "address"
        },
        {
          "indexed": false,
          "internalType": "address",
          "name": "seller",
          "type": "address"
        },
        {
          "indexed": false,
          "internalType": "address",
          "name": "owner",
          "type": "address"
        },
        {
          "indexed": false,
          "internalType": "uint256",
          "name": "royaltyPercentage",
          "type": "uint256"
        },
        {
          "indexed": false,
          "internalType": "uint256",
          "name": "price",
          "type": "uint256"
        },
        {
          "indexed": false,
          "internalType": "bool",
          "name": "auction",
          "type": "bool"
        },
        {
          "indexed": false,
          "internalType": "bool",
          "name": "sold",
          "type": "bool"
        }
      ],
      "name": "MarketItemCreated",
      "type": "event"
    },
    {
      "anonymous": false,
      "inputs": [
        {
          "indexed": false,
          "internalType": "uint256",
          "name": "_tokenId",
          "type": "uint256"
        }
      ],
      "name": "MetadataUpdate",
      "type": "event"
    },
    {
      "anonymous": false,
      "inputs": [
        {
          "indexed": false,
          "internalType": "uint256",
          "name": "nftId",
          "type": "uint256"
        },
        {
          "indexed": false,
          "internalType": "address",
          "name": "auctionWinner",
          "type": "address"
        }
      ],
      "name": "NFTTransferred",
      "type": "event"
    },
    {
      "anonymous": false,
      "inputs": [
        {
          "indexed": true,
          "internalType": "address",
          "name": "from",
          "type": "address"
        },
        {
          "indexed": true,
          "internalType": "address",
          "name": "to",
          "type": "address"
        },
        {
          "indexed": true,
          "internalType": "uint256",
          "name": "tokenId",
          "type": "uint256"
        }
      ],
      "name": "Transfer",
      "type": "event"
    },
    {
      "stateMutability": "payable",
      "type": "fallback"
    },
    {
      "inputs": [
        {
          "internalType": "address",
          "name": "to",
          "type": "address"
        },
        {
          "internalType": "uint256",
          "name": "tokenId",
          "type": "uint256"
        }
      ],
      "name": "approve",
      "outputs": [],
      "stateMutability": "nonpayable",
      "type": "function"
    },
    {
      "inputs": [
        {
          "internalType": "address",
          "name": "owner",
          "type": "address"
        }
      ],
      "name": "balanceOf",
      "outputs": [
        {
          "internalType": "uint256",
          "name": "",
          "type": "uint256"
        }
      ],
      "stateMutability": "view",
      "type": "function"
    },
    {
      "inputs": [
        {
          "internalType": "uint256",
          "name": "tokenId",
          "type": "uint256"
        },
        {
          "internalType": "uint256",
          "name": "royaltyPercentage",
          "type": "uint256"
        },
        {
          "internalType": "uint256",
          "name": "price",
          "type": "uint256"
        }
      ],
      "name": "createMarketItem",
      "outputs": [],
      "stateMutability": "payable",
      "type": "function"
    },
    {
      "inputs": [
        {
          "internalType": "uint256",
          "name": "tokenId",
          "type": "uint256"
        }
      ],
      "name": "createMarketSale",
      "outputs": [],
      "stateMutability": "payable",
      "type": "function"
    },
    {
      "inputs": [
        {
          "internalType": "string",
          "name": "tokenURI",
          "type": "string"
        },
        {
          "internalType": "uint256",
          "name": "royaltyPercentage",
          "type": "uint256"
        },
        {
          "internalType": "uint256",
          "name": "price",
          "type": "uint256"
        }
      ],
      "name": "createToken",
      "outputs": [
        {
          "internalType": "uint256",
          "name": "",
          "type": "uint256"
        }
      ],
      "stateMutability": "payable",
      "type": "function"
    },
    {
      "inputs": [],
      "name": "fetchItemsListed",
      "outputs": [
        {
          "components": [
            {
              "internalType": "uint256",
              "name": "tokenId",
              "type": "uint256"
            },
            {
              "internalType": "address payable",
              "name": "originalOwner",
              "type": "address"
            },
            {
              "internalType": "address payable",
              "name": "seller",
              "type": "address"
            },
            {
              "internalType": "address payable",
              "name": "owner",
              "type": "address"
            },
            {
              "internalType": "uint256",
              "name": "royaltyPercentage",
              "type": "uint256"
            },
            {
              "internalType": "uint256",
              "name": "price",
              "type": "uint256"
            },
            {
              "internalType": "bool",
              "name": "auction",
              "type": "bool"
            },
            {
              "internalType": "bool",
              "name": "sold",
              "type": "bool"
            }
          ],
          "internalType": "struct Marketplace.MarketItem[]",
          "name": "",
          "type": "tuple[]"
        }
      ],
      "stateMutability": "view",
      "type": "function"
    },
    {
      "inputs": [],
      "name": "fetchMarketItems",
      "outputs": [
        {
          "components": [
            {
              "internalType": "uint256",
              "name": "tokenId",
              "type": "uint256"
            },
            {
              "internalType": "address payable",
              "name": "originalOwner",
              "type": "address"
            },
            {
              "internalType": "address payable",
              "name": "seller",
              "type": "address"
            },
            {
              "internalType": "address payable",
              "name": "owner",
              "type": "address"
            },
            {
              "internalType": "uint256",
              "name": "royaltyPercentage",
              "type": "uint256"
            },
            {
              "internalType": "uint256",
              "name": "price",
              "type": "uint256"
            },
            {
              "internalType": "bool",
              "name": "auction",
              "type": "bool"
            },
            {
              "internalType": "bool",
              "name": "sold",
              "type": "bool"
            }
          ],
          "internalType": "struct Marketplace.MarketItem[]",
          "name": "",
          "type": "tuple[]"
        }
      ],
      "stateMutability": "view",
      "type": "function"
    },
    {
      "inputs": [],
      "name": "fetchMyNFT",
      "outputs": [
        {
          "components": [
            {
              "internalType": "uint256",
              "name": "tokenId",
              "type": "uint256"
            },
            {
              "internalType": "address payable",
              "name": "originalOwner",
              "type": "address"
            },
            {
              "internalType": "address payable",
              "name": "seller",
              "type": "address"
            },
            {
              "internalType": "address payable",
              "name": "owner",
              "type": "address"
            },
            {
              "internalType": "uint256",
              "name": "royaltyPercentage",
              "type": "uint256"
            },
            {
              "internalType": "uint256",
              "name": "price",
              "type": "uint256"
            },
            {
              "internalType": "bool",
              "name": "auction",
              "type": "bool"
            },
            {
              "internalType": "bool",
              "name": "sold",
              "type": "bool"
            }
          ],
          "internalType": "struct Marketplace.MarketItem[]",
          "name": "",
          "type": "tuple[]"
        }
      ],
      "stateMutability": "view",
      "type": "function"
    },
    {
      "inputs": [
        {
          "internalType": "uint256",
          "name": "tokenId",
          "type": "uint256"
        }
      ],
      "name": "getApproved",
      "outputs": [
        {
          "internalType": "address",
          "name": "",
          "type": "address"
        }
      ],
      "stateMutability": "view",
      "type": "function"
    },
    {
      "inputs": [
        {
          "internalType": "uint256",
          "name": "tokenId",
          "type": "uint256"
        }
      ],
      "name": "getNFTPrice",
      "outputs": [
        {
          "internalType": "uint256",
          "name": "price",
          "type": "uint256"
        }
      ],
      "stateMutability": "view",
      "type": "function"
    },
    {
      "inputs": [
        {
          "internalType": "uint256",
          "name": "tokenId",
          "type": "uint256"
        }
      ],
      "name": "getRoyaltyData",
      "outputs": [
        {
          "internalType": "uint256",
          "name": "",
          "type": "uint256"
        },
        {
          "internalType": "address payable",
          "name": "",
          "type": "address"
        }
      ],
      "stateMutability": "view",
      "type": "function"
    },
    {
      "inputs": [
        {
          "internalType": "uint256",
          "name": "tokenId",
          "type": "uint256"
        }
      ],
      "name": "getSellerAddress",
      "outputs": [
        {
          "internalType": "address",
          "name": "",
          "type": "address"
        }
      ],
      "stateMutability": "view",
      "type": "function"
    },
    {
      "inputs": [
        {
          "internalType": "uint256",
          "name": "tokenId",
          "type": "uint256"
        },
        {
          "internalType": "address",
          "name": "winner",
          "type": "address"
        }
      ],
      "name": "handleAuctionEnd",
      "outputs": [],
      "stateMutability": "nonpayable",
      "type": "function"
    },
    {
      "inputs": [
        {
          "internalType": "address",
          "name": "owner",
          "type": "address"
        },
        {
          "internalType": "address",
          "name": "operator",
          "type": "address"
        }
      ],
      "name": "isApprovedForAll",
      "outputs": [
        {
          "internalType": "bool",
          "name": "",
          "type": "bool"
        }
      ],
      "stateMutability": "view",
      "type": "function"
    },
    {
      "inputs": [],
      "name": "name",
      "outputs": [
        {
          "internalType": "string",
          "name": "",
          "type": "string"
        }
      ],
      "stateMutability": "view",
      "type": "function"
    },
    {
      "inputs": [
        {
          "internalType": "uint256",
          "name": "tokenId",
          "type": "uint256"
        }
      ],
      "name": "ownerOf",
      "outputs": [
        {
          "internalType": "address",
          "name": "",
          "type": "address"
        }
      ],
      "stateMutability": "view",
      "type": "function"
    },
    {
      "inputs": [
        {
          "internalType": "uint256",
          "name": "tokenId",
          "type": "uint256"
        },
        {
          "internalType": "uint256",
          "name": "price",
          "type": "uint256"
        },
        {
          "internalType": "address",
          "name": "seller",
          "type": "address"
        }
      ],
      "name": "resellMarketItem",
      "outputs": [],
      "stateMutability": "payable",
      "type": "function"
    },
    {
      "inputs": [
        {
          "internalType": "address",
          "name": "from",
          "type": "address"
        },
        {
          "internalType": "address",
          "name": "to",
          "type": "address"
        },
        {
          "internalType": "uint256",
          "name": "tokenId",
          "type": "uint256"
        }
      ],
      "name": "safeTransferFrom",
      "outputs": [],
      "stateMutability": "nonpayable",
      "type": "function"
    },
    {
      "inputs": [
        {
          "internalType": "address",
          "name": "from",
          "type": "address"
        },
        {
          "internalType": "address",
          "name": "to",
          "type": "address"
        },
        {
          "internalType": "uint256",
          "name": "tokenId",
          "type": "uint256"
        },
        {
          "internalType": "bytes",
          "name": "data",
          "type": "bytes"
        }
      ],
      "name": "safeTransferFrom",
      "outputs": [],
      "stateMutability": "nonpayable",
      "type": "function"
    },
    {
      "inputs": [
        {
          "internalType": "address",
          "name": "operator",
          "type": "address"
        },
        {
          "internalType": "bool",
          "name": "approved",
          "type": "bool"
        }
      ],
      "name": "setApprovalForAll",
      "outputs": [],
      "stateMutability": "nonpayable",
      "type": "function"
    },
    {
      "inputs": [
        {
          "internalType": "address",
          "name": "auctionFactoryAddress",
          "type": "address"
        }
      ],
      "name": "setAuctionFactoryAddress",
      "outputs": [],
      "stateMutability": "nonpayable",
      "type": "function"
    },
    {
      "inputs": [
        {
          "internalType": "bytes4",
          "name": "interfaceId",
          "type": "bytes4"
        }
      ],
      "name": "supportsInterface",
      "outputs": [
        {
          "internalType": "bool",
          "name": "",
          "type": "bool"
        }
      ],
      "stateMutability": "view",
      "type": "function"
    },
    {
      "inputs": [],
      "name": "symbol",
      "outputs": [
        {
          "internalType": "string",
          "name": "",
          "type": "string"
        }
      ],
      "stateMutability": "view",
      "type": "function"
    },
    {
      "inputs": [
        {
          "internalType": "uint256",
          "name": "tokenId",
          "type": "uint256"
        }
      ],
      "name": "tokenURI",
      "outputs": [
        {
          "internalType": "string",
          "name": "",
          "type": "string"
        }
      ],
      "stateMutability": "view",
      "type": "function"
    },
    {
      "inputs": [
        {
          "internalType": "address",
          "name": "from",
          "type": "address"
        },
        {
          "internalType": "address",
          "name": "to",
          "type": "address"
        },
        {
          "internalType": "uint256",
          "name": "tokenId",
          "type": "uint256"
        }
      ],
      "name": "transferFrom",
      "outputs": [],
      "stateMutability": "nonpayable",
      "type": "function"
    },
    {
      "inputs": [
        {
          "internalType": "address",
          "name": "auctionContractAddress",
          "type": "address"
        },
        {
          "internalType": "uint256",
          "name": "tokenId",
          "type": "uint256"
        }
      ],
      "name": "triggerEndAuction",
      "outputs": [],
      "stateMutability": "nonpayable",
      "type": "function"
    },
    {
      "inputs": [
        {
          "internalType": "uint256",
          "name": "_listingPrice",
          "type": "uint256"
        }
      ],
      "name": "updateListingPrice",
      "outputs": [],
      "stateMutability": "payable",
      "type": "function"
    },
    {
      "inputs": [
        {
          "internalType": "uint256",
          "name": "tokenId",
          "type": "uint256"
        },
        {
          "internalType": "uint256",
          "name": "price",
          "type": "uint256"
        }
      ],
      "name": "updateNFTPrice",
      "outputs": [],
      "stateMutability": "nonpayable",
      "type": "function"
    },
    {
      "inputs": [],
      "name": "withdrawFunds",
      "outputs": [],
      "stateMutability": "nonpayable",
      "type": "function"
    },
    {
      "stateMutability": "payable",
      "type": "receive"
    }
  ],
  "bytecode": "0x60806040526608e1bc9bf04000600a553480156200001c57600080fd5b506040518060400160405280601381526020017f4e4654204d657461766572736520546f6b656e000000000000000000000000008152506040518060400160405280600581526020017f4d594e465400000000000000000000000000000000000000000000000000000081525081600090816200009a919062000378565b508060019081620000ac919062000378565b505050600160078190555033600b60006101000a81548173ffffffffffffffffffffffffffffffffffffffff021916908373ffffffffffffffffffffffffffffffffffffffff1602179055506200045f565b600081519050919050565b7f4e487b7100000000000000000000000000000000000000000000000000000000600052604160045260246000fd5b7f4e487b7100000000000000000000000000000000000000000000000000000000600052602260045260246000fd5b600060028204905060018216806200018057607f821691505b60208210810362000196576200019562000138565b5b50919050565b60008190508160005260206000209050919050565b60006020601f8301049050919050565b600082821b905092915050565b600060088302620002007fffffffffffffffffffffffffffffffffffffffffffffffffffffffffffffffff82620001c1565b6200020c8683620001c1565b95508019841693508086168417925050509392505050565b6000819050919050565b6000819050919050565b600062000259620002536200024d8462000224565b6200022e565b62000224565b9050919050565b6000819050919050565b620002758362000238565b6200028d620002848262000260565b848454620001ce565b825550505050565b600090565b620002a462000295565b620002b18184846200026a565b505050565b5b81811015620002d957620002cd6000826200029a565b600181019050620002b7565b5050565b601f8211156200032857620002f2816200019c565b620002fd84620001b1565b810160208510156200030d578190505b620003256200031c85620001b1565b830182620002b6565b50505b505050565b600082821c905092915050565b60006200034d600019846008026200032d565b1980831691505092915050565b60006200036883836200033a565b9150826002028217905092915050565b6200038382620000fe565b67ffffffffffffffff8111156200039f576200039e62000109565b5b620003ab825462000167565b620003b8828285620002dd565b600060209050601f831160018114620003f05760008415620003db578287015190505b620003e785826200035a565b86555062000457565b601f19841662000400866200019c565b60005b828110156200042a5784890151825560018201915060208501945060208101905062000403565b868310156200044a578489015162000446601f8916826200033a565b8355505b6001600288020188555050505b505050505050565b61582c806200046f6000396000f3fe6080604052600436106101c65760003560e01c8063804fa835116100f7578063a675364d11610095578063bec2a7c511610064578063bec2a7c51461061f578063c18763f71461064f578063c87b56dd1461067a578063e985e9c5146106b7576101cd565b8063a675364d14610581578063ae677aa3146105be578063b88d4fde146105da578063be9af53614610603576101cd565b806395d89b41116100d157806395d89b41146104c657806399f14a8b146104f1578063a22cb4651461051a578063a65ff74c14610543576101cd565b8063804fa835146104445780638f329b31146104605780639297617914610489576101cd565b806324600fc31161016457806345f8fa801161013e57806345f8fa80146103765780634ac0123d146103a15780636352211e146103ca57806370a0823114610407576101cd565b806324600fc31461031a578063320343da1461033157806342842e0e1461034d576101cd565b8063095ea7b3116101a0578063095ea7b3146102745780630f08efe01461029d5780631cb88133146102c857806323b872dd146102f1576101cd565b806301ffc9a7146101cf57806306fdde031461020c578063081812fc14610237576101cd565b366101cd57005b005b3480156101db57600080fd5b506101f660048036038101906101f19190613c0b565b6106f4565b6040516102039190613c53565b60405180910390f35b34801561021857600080fd5b50610221610755565b60405161022e9190613cfe565b60405180910390f35b34801561024357600080fd5b5061025e60048036038101906102599190613d56565b6107e7565b60405161026b9190613dc4565b60405180910390f35b34801561028057600080fd5b5061029b60048036038101906102969190613e0b565b61082d565b005b3480156102a957600080fd5b506102b2610944565b6040516102bf9190613fdc565b60405180910390f35b3480156102d457600080fd5b506102ef60048036038101906102ea9190613ffe565b610c28565b005b3480156102fd57600080fd5b506103186004803603810190610313919061402b565b610c6c565b005b34801561032657600080fd5b5061032f610ccc565b005b61034b6004803603810190610346919061407e565b610eaf565b005b34801561035957600080fd5b50610374600480360381019061036f919061402b565b611179565b005b34801561038257600080fd5b5061038b611199565b6040516103989190613fdc565b60405180910390f35b3480156103ad57600080fd5b506103c860048036038101906103c391906140d1565b611501565b005b3480156103d657600080fd5b506103f160048036038101906103ec9190613d56565b611701565b6040516103fe9190613dc4565b60405180910390f35b34801561041357600080fd5b5061042e60048036038101906104299190613ffe565b611787565b60405161043b9190614120565b60405180910390f35b61045e6004803603810190610459919061413b565b61183e565b005b34801561046c57600080fd5b506104876004803603810190610482919061418e565b611b5c565b005b34801561049557600080fd5b506104b060048036038101906104ab9190613d56565b611c8c565b6040516104bd9190614120565b60405180910390f35b3480156104d257600080fd5b506104db611e13565b6040516104e89190613cfe565b60405180910390f35b3480156104fd57600080fd5b5061051860048036038101906105139190613e0b565b611ea5565b005b34801561052657600080fd5b50610541600480360381019061053c91906141fa565b611f1a565b005b34801561054f57600080fd5b5061056a60048036038101906105659190613d56565b611f30565b604051610578929190614249565b60405180910390f35b34801561058d57600080fd5b506105a860048036038101906105a39190613d56565b6120c0565b6040516105b59190613dc4565b60405180910390f35b6105d860048036038101906105d39190613d56565b612100565b005b3480156105e657600080fd5b5061060160048036038101906105fc91906143a7565b61219a565b005b61061d60048036038101906106189190613d56565b6121fc565b005b610639600480360381019061063491906144cb565b6123de565b6040516106469190614120565b60405180910390f35b34801561065b57600080fd5b50610664612422565b6040516106719190613fdc565b60405180910390f35b34801561068657600080fd5b506106a1600480360381019061069c9190613d56565b61278a565b6040516106ae9190613cfe565b60405180910390f35b3480156106c357600080fd5b506106de60048036038101906106d9919061453a565b61289c565b6040516106eb9190613c53565b60405180910390f35b6000634906490660e01b7bffffffffffffffffffffffffffffffffffffffffffffffffffffffff1916827bffffffffffffffffffffffffffffffffffffffffffffffffffffffff1916148061074e575061074d82612930565b5b9050919050565b606060008054610764906145a9565b80601f0160208091040260200160405190810160405280929190818152602001828054610790906145a9565b80156107dd5780601f106107b2576101008083540402835291602001916107dd565b820191906000526020600020905b8154815290600101906020018083116107c057829003601f168201915b5050505050905090565b60006107f282612a12565b6004600083815260200190815260200160002060009054906101000a900473ffffffffffffffffffffffffffffffffffffffff169050919050565b600061083882611701565b90508073ffffffffffffffffffffffffffffffffffffffff168373ffffffffffffffffffffffffffffffffffffffff16036108a8576040517f08c379a000000000000000000000000000000000000000000000000000000000815260040161089f9061464c565b60405180910390fd5b8073ffffffffffffffffffffffffffffffffffffffff166108c7612a5d565b73ffffffffffffffffffffffffffffffffffffffff1614806108f657506108f5816108f0612a5d565b61289c565b5b610935576040517f08c379a000000000000000000000000000000000000000000000000000000000815260040161092c906146de565b60405180910390fd5b61093f8383612a65565b505050565b606060006109526008612b1e565b905060006109606009612b1e565b61096a6008612b1e565b610974919061472d565b90506000808267ffffffffffffffff8111156109935761099261427c565b5b6040519080825280602002602001820160405280156109cc57816020015b6109b9613b0a565b8152602001906001900390816109b15790505b50905060005b84811015610c1d573073ffffffffffffffffffffffffffffffffffffffff16600d6000600184610a029190614761565b815260200190815260200160002060030160009054906101000a900473ffffffffffffffffffffffffffffffffffffffff1673ffffffffffffffffffffffffffffffffffffffff1603610c0a576000600182610a5e9190614761565b90506000600d600083815260200190815260200160002090508060405180610100016040529081600082015481526020016001820160009054906101000a900473ffffffffffffffffffffffffffffffffffffffff1673ffffffffffffffffffffffffffffffffffffffff1673ffffffffffffffffffffffffffffffffffffffff1681526020016002820160009054906101000a900473ffffffffffffffffffffffffffffffffffffffff1673ffffffffffffffffffffffffffffffffffffffff1673ffffffffffffffffffffffffffffffffffffffff1681526020016003820160009054906101000a900473ffffffffffffffffffffffffffffffffffffffff1673ffffffffffffffffffffffffffffffffffffffff1673ffffffffffffffffffffffffffffffffffffffff16815260200160048201548152602001600582015481526020016006820160009054906101000a900460ff161515151581526020016006820160019054906101000a900460ff161515151581525050848681518110610bed57610bec614795565b5b6020026020010181905250600185610c059190614761565b945050505b8080610c15906147c4565b9150506109d2565b508094505050505090565b80600c60006101000a81548173ffffffffffffffffffffffffffffffffffffffff021916908373ffffffffffffffffffffffffffffffffffffffff16021790555050565b610c7d610c77612a5d565b82612b2c565b610cbc576040517f08c379a0000000000000000000000000000000000000000000000000000000008152600401610cb39061487e565b60405180910390fd5b610cc7838383612bc1565b505050565b600b60009054906101000a900473ffffffffffffffffffffffffffffffffffffffff1673ffffffffffffffffffffffffffffffffffffffff163373ffffffffffffffffffffffffffffffffffffffff1614610d5c576040517f08c379a0000000000000000000000000000000000000000000000000000000008152600401610d5390614910565b60405180910390fd5b600047905060008111610da4576040517f08c379a0000000000000000000000000000000000000000000000000000000008152600401610d9b9061497c565b60405180910390fd5b6000600b60009054906101000a900473ffffffffffffffffffffffffffffffffffffffff1673ffffffffffffffffffffffffffffffffffffffff1682604051610dec906149cd565b60006040518083038185875af1925050503d8060008114610e29576040519150601f19603f3d011682016040523d82523d6000602084013e610e2e565b606091505b5050905080610e72576040517f08c379a0000000000000000000000000000000000000000000000000000000008152600401610e6990614a2e565b60405180910390fd5b7f6141b54b56b8a52a8c6f5cd2a857f6117b18ffbf4d46bd3106f300a839cbf5ea8233604051610ea3929190614a4e565b60405180910390a15050565b610ed16040518060600160405280602481526020016157d36024913933612eba565b60008111610f14576040517f08c379a0000000000000000000000000000000000000000000000000000000008152600401610f0b90614ac3565b60405180910390fd5b600a543414610f58576040517f08c379a0000000000000000000000000000000000000000000000000000000008152600401610f4f90614b2f565b60405180910390fd5b6040518061010001604052808481526020013373ffffffffffffffffffffffffffffffffffffffff1681526020013373ffffffffffffffffffffffffffffffffffffffff1681526020013073ffffffffffffffffffffffffffffffffffffffff16815260200183815260200182815260200160001515815260200160001515815250600d60008581526020019081526020016000206000820151816000015560208201518160010160006101000a81548173ffffffffffffffffffffffffffffffffffffffff021916908373ffffffffffffffffffffffffffffffffffffffff16021790555060408201518160020160006101000a81548173ffffffffffffffffffffffffffffffffffffffff021916908373ffffffffffffffffffffffffffffffffffffffff16021790555060608201518160030160006101000a81548173ffffffffffffffffffffffffffffffffffffffff021916908373ffffffffffffffffffffffffffffffffffffffff1602179055506080820151816004015560a0820151816005015560c08201518160060160006101000a81548160ff02191690831515021790555060e08201518160060160016101000a81548160ff02191690831515021790555090505061112e333085612bc1565b827f6be207084465b1afd1fb9af05976e6d285e34a16bc67aaa8e62ebbbf7c406aac33336000868660008060405161116c9796959493929190614b4f565b60405180910390a2505050565b6111948383836040518060200160405280600081525061219a565b505050565b606060006111a76008612b1e565b905060008060005b8381101561124f573373ffffffffffffffffffffffffffffffffffffffff16600d60006001846111df9190614761565b815260200190815260200160002060020160009054906101000a900473ffffffffffffffffffffffffffffffffffffffff1673ffffffffffffffffffffffffffffffffffffffff160361123c576001836112399190614761565b92505b8080611247906147c4565b9150506111af565b5060008267ffffffffffffffff81111561126c5761126b61427c565b5b6040519080825280602002602001820160405280156112a557816020015b611292613b0a565b81526020019060019003908161128a5790505b50905060005b848110156114f6573373ffffffffffffffffffffffffffffffffffffffff16600d60006001846112db9190614761565b815260200190815260200160002060020160009054906101000a900473ffffffffffffffffffffffffffffffffffffffff1673ffffffffffffffffffffffffffffffffffffffff16036114e35760006001826113379190614761565b90506000600d600083815260200190815260200160002090508060405180610100016040529081600082015481526020016001820160009054906101000a900473ffffffffffffffffffffffffffffffffffffffff1673ffffffffffffffffffffffffffffffffffffffff1673ffffffffffffffffffffffffffffffffffffffff1681526020016002820160009054906101000a900473ffffffffffffffffffffffffffffffffffffffff1673ffffffffffffffffffffffffffffffffffffffff1673ffffffffffffffffffffffffffffffffffffffff1681526020016003820160009054906101000a900473ffffffffffffffffffffffffffffffffffffffff1673ffffffffffffffffffffffffffffffffffffffff1673ffffffffffffffffffffffffffffffffffffffff16815260200160048201548152602001600582015481526020016006820160009054906101000a900460ff161515151581526020016006820160019054906101000a900460ff1615151515815250508486815181106114c6576114c5614795565b5b60200260200101819052506001856114de9190614761565b945050505b80806114ee906147c4565b9150506112ab565b508094505050505090565b600073ffffffffffffffffffffffffffffffffffffffff16600d600084815260200190815260200160002060030160009054906101000a900473ffffffffffffffffffffffffffffffffffffffff1673ffffffffffffffffffffffffffffffffffffffff16036115a6576040517f08c379a000000000000000000000000000000000000000000000000000000000815260040161159d90614c30565b60405180910390fd5b3373ffffffffffffffffffffffffffffffffffffffff16600d600084815260200190815260200160002060020160009054906101000a900473ffffffffffffffffffffffffffffffffffffffff1673ffffffffffffffffffffffffffffffffffffffff161461164a576040517f08c379a000000000000000000000000000000000000000000000000000000000815260040161164190614c9c565b60405180910390fd5b6000811161168d576040517f08c379a000000000000000000000000000000000000000000000000000000000815260040161168490614d08565b60405180910390fd5b80600d6000848152602001908152602001600020600501819055506116fd6040518060400160405280601581526020017f55706461746564206d61726b6574206974656d3a200000000000000000000000815250600d600085815260200190815260200160002060050154612f56565b5050565b60008061170d83612ff2565b9050600073ffffffffffffffffffffffffffffffffffffffff168173ffffffffffffffffffffffffffffffffffffffff160361177e576040517f08c379a000000000000000000000000000000000000000000000000000000000815260040161177590614d74565b60405180910390fd5b80915050919050565b60008073ffffffffffffffffffffffffffffffffffffffff168273ffffffffffffffffffffffffffffffffffffffff16036117f7576040517f08c379a00000000000000000000000000000000000000000000000000000000081526004016117ee90614e06565b60405180910390fd5b600360008373ffffffffffffffffffffffffffffffffffffffff1673ffffffffffffffffffffffffffffffffffffffff168152602001908152602001600020549050919050565b61187c6040518060400160405280601981526020017f526573656c6c206d61726b6574206974656d2063616c6c65640000000000000081525061302f565b3373ffffffffffffffffffffffffffffffffffffffff16600d600085815260200190815260200160002060030160009054906101000a900473ffffffffffffffffffffffffffffffffffffffff1673ffffffffffffffffffffffffffffffffffffffff1614806119395750600c60009054906101000a900473ffffffffffffffffffffffffffffffffffffffff1673ffffffffffffffffffffffffffffffffffffffff163373ffffffffffffffffffffffffffffffffffffffff16145b611978576040517f08c379a000000000000000000000000000000000000000000000000000000000815260040161196f90614e72565b60405180910390fd5b600c60009054906101000a900473ffffffffffffffffffffffffffffffffffffffff1673ffffffffffffffffffffffffffffffffffffffff163373ffffffffffffffffffffffffffffffffffffffff16036119fd576001600d600085815260200190815260200160002060060160006101000a81548160ff0219169083151502179055505b6000600d600085815260200190815260200160002060060160016101000a81548160ff02191690831515021790555081600d60008581526020019081526020016000206005018190555033600d600085815260200190815260200160002060020160006101000a81548173ffffffffffffffffffffffffffffffffffffffff021916908373ffffffffffffffffffffffffffffffffffffffff16021790555030600d600085815260200190815260200160002060030160006101000a81548173ffffffffffffffffffffffffffffffffffffffff021916908373ffffffffffffffffffffffffffffffffffffffff1602179055506000611afd6009612b1e565b1115611b0e57611b0d60096130c8565b5b611b19813085612bc1565b611b576040518060400160405280601981526020017f526573656c6c207472616e73666572207375636365656465640000000000000081525061302f565b505050565b3073ffffffffffffffffffffffffffffffffffffffff166342842e0e3083856040518463ffffffff1660e01b8152600401611b9993929190614e92565b600060405180830381600087803b158015611bb357600080fd5b505af1158015611bc7573d6000803e3d6000fd5b5050505080600d600084815260200190815260200160002060030160006101000a81548173ffffffffffffffffffffffffffffffffffffffff021916908373ffffffffffffffffffffffffffffffffffffffff1602179055506001600d600084815260200190815260200160002060060160016101000a81548160ff0219169083151502179055507f20665ee57a5e13af162123968d777ccebe86531a21e53d08afc78138a950192d8282604051611c80929190614a4e565b60405180910390a15050565b600080600d600084815260200190815260200160002060405180610100016040529081600082015481526020016001820160009054906101000a900473ffffffffffffffffffffffffffffffffffffffff1673ffffffffffffffffffffffffffffffffffffffff1673ffffffffffffffffffffffffffffffffffffffff1681526020016002820160009054906101000a900473ffffffffffffffffffffffffffffffffffffffff1673ffffffffffffffffffffffffffffffffffffffff1673ffffffffffffffffffffffffffffffffffffffff1681526020016003820160009054906101000a900473ffffffffffffffffffffffffffffffffffffffff1673ffffffffffffffffffffffffffffffffffffffff1673ffffffffffffffffffffffffffffffffffffffff16815260200160048201548152602001600582015481526020016006820160009054906101000a900460ff161515151581526020016006820160019054906101000a900460ff16151515158152505090508060a00151915050919050565b606060018054611e22906145a9565b80601f0160208091040260200160405190810160405280929190818152602001828054611e4e906145a9565b8015611e9b5780601f10611e7057610100808354040283529160200191611e9b565b820191906000526020600020905b815481529060010190602001808311611e7e57829003601f168201915b5050505050905090565b60008290508073ffffffffffffffffffffffffffffffffffffffff1663b9a2de3a836040518263ffffffff1660e01b8152600401611ee39190614120565b600060405180830381600087803b158015611efd57600080fd5b505af1158015611f11573d6000803e3d6000fd5b50505050505050565b611f2c611f25612a5d565b8383613124565b5050565b6000806000600d600085815260200190815260200160002060405180610100016040529081600082015481526020016001820160009054906101000a900473ffffffffffffffffffffffffffffffffffffffff1673ffffffffffffffffffffffffffffffffffffffff1673ffffffffffffffffffffffffffffffffffffffff1681526020016002820160009054906101000a900473ffffffffffffffffffffffffffffffffffffffff1673ffffffffffffffffffffffffffffffffffffffff1673ffffffffffffffffffffffffffffffffffffffff1681526020016003820160009054906101000a900473ffffffffffffffffffffffffffffffffffffffff1673ffffffffffffffffffffffffffffffffffffffff1673ffffffffffffffffffffffffffffffffffffffff16815260200160048201548152602001600582015481526020016006820160009054906101000a900460ff161515151581526020016006820160019054906101000a900460ff1615151515815250509050806080015181602001519250925050915091565b6000600d600083815260200190815260200160002060020160009054906101000a900473ffffffffffffffffffffffffffffffffffffffff169050919050565b600b60009054906101000a900473ffffffffffffffffffffffffffffffffffffffff1673ffffffffffffffffffffffffffffffffffffffff163373ffffffffffffffffffffffffffffffffffffffff1614612190576040517f08c379a000000000000000000000000000000000000000000000000000000000815260040161218790614910565b60405180910390fd5b80600a8190555050565b6121ab6121a5612a5d565b83612b2c565b6121ea576040517f08c379a00000000000000000000000000000000000000000000000000000000081526004016121e19061487e565b60405180910390fd5b6121f684848484613290565b50505050565b6000600d6000838152602001908152602001600020600501549050803414612259576040517f08c379a000000000000000000000000000000000000000000000000000000000815260040161225090614f3b565b60405180910390fd5b33600d600084815260200190815260200160002060030160006101000a81548173ffffffffffffffffffffffffffffffffffffffff021916908373ffffffffffffffffffffffffffffffffffffffff1602179055506001600d600084815260200190815260200160002060060160016101000a81548160ff0219169083151502179055506122e760096132ec565b6122f2303384612bc1565b600b60009054906101000a900473ffffffffffffffffffffffffffffffffffffffff1673ffffffffffffffffffffffffffffffffffffffff166108fc600a549081150290604051600060405180830381858888f1935050505015801561235c573d6000803e3d6000fd5b50600d600083815260200190815260200160002060020160009054906101000a900473ffffffffffffffffffffffffffffffffffffffff1673ffffffffffffffffffffffffffffffffffffffff166108fc349081150290604051600060405180830381858888f193505050501580156123d9573d6000803e3d6000fd5b505050565b60006123ea60086132ec565b60006123f66008612b1e565b90506124023382613302565b61240c818661351f565b612417818585610eaf565b809150509392505050565b606060006124306008612b1e565b905060008060005b838110156124d8573373ffffffffffffffffffffffffffffffffffffffff16600d60006001846124689190614761565b815260200190815260200160002060030160009054906101000a900473ffffffffffffffffffffffffffffffffffffffff1673ffffffffffffffffffffffffffffffffffffffff16036124c5576001836124c29190614761565b92505b80806124d0906147c4565b915050612438565b5060008267ffffffffffffffff8111156124f5576124f461427c565b5b60405190808252806020026020018201604052801561252e57816020015b61251b613b0a565b8152602001906001900390816125135790505b50905060005b8481101561277f573373ffffffffffffffffffffffffffffffffffffffff16600d60006001846125649190614761565b815260200190815260200160002060030160009054906101000a900473ffffffffffffffffffffffffffffffffffffffff1673ffffffffffffffffffffffffffffffffffffffff160361276c5760006001826125c09190614761565b90506000600d600083815260200190815260200160002090508060405180610100016040529081600082015481526020016001820160009054906101000a900473ffffffffffffffffffffffffffffffffffffffff1673ffffffffffffffffffffffffffffffffffffffff1673ffffffffffffffffffffffffffffffffffffffff1681526020016002820160009054906101000a900473ffffffffffffffffffffffffffffffffffffffff1673ffffffffffffffffffffffffffffffffffffffff1673ffffffffffffffffffffffffffffffffffffffff1681526020016003820160009054906101000a900473ffffffffffffffffffffffffffffffffffffffff1673ffffffffffffffffffffffffffffffffffffffff1673ffffffffffffffffffffffffffffffffffffffff16815260200160048201548152602001600582015481526020016006820160009054906101000a900460ff161515151581526020016006820160019054906101000a900460ff16151515158152505084868151811061274f5761274e614795565b5b60200260200101819052506001856127679190614761565b945050505b8080612777906147c4565b915050612534565b508094505050505090565b606061279582612a12565b60006006600084815260200190815260200160002080546127b5906145a9565b80601f01602080910402602001604051908101604052809291908181526020018280546127e1906145a9565b801561282e5780601f106128035761010080835404028352916020019161282e565b820191906000526020600020905b81548152906001019060200180831161281157829003601f168201915b50505050509050600061283f6135c3565b90506000815103612854578192505050612897565b600082511115612889578082604051602001612871929190614f97565b60405160208183030381529060405292505050612897565b612892846135da565b925050505b919050565b6000600560008473ffffffffffffffffffffffffffffffffffffffff1673ffffffffffffffffffffffffffffffffffffffff16815260200190815260200160002060008373ffffffffffffffffffffffffffffffffffffffff1673ffffffffffffffffffffffffffffffffffffffff16815260200190815260200160002060009054906101000a900460ff16905092915050565b60007f80ac58cd000000000000000000000000000000000000000000000000000000007bffffffffffffffffffffffffffffffffffffffffffffffffffffffff1916827bffffffffffffffffffffffffffffffffffffffffffffffffffffffff191614806129fb57507f5b5e139f000000000000000000000000000000000000000000000000000000007bffffffffffffffffffffffffffffffffffffffffffffffffffffffff1916827bffffffffffffffffffffffffffffffffffffffffffffffffffffffff1916145b80612a0b5750612a0a82613642565b5b9050919050565b612a1b816136ac565b612a5a576040517f08c379a0000000000000000000000000000000000000000000000000000000008152600401612a5190614d74565b60405180910390fd5b50565b600033905090565b816004600083815260200190815260200160002060006101000a81548173ffffffffffffffffffffffffffffffffffffffff021916908373ffffffffffffffffffffffffffffffffffffffff160217905550808273ffffffffffffffffffffffffffffffffffffffff16612ad883611701565b73ffffffffffffffffffffffffffffffffffffffff167f8c5be1e5ebec7d5bd14f71427d1e84f3dd0314c0f7b2291e5b200ac8c7c3b92560405160405180910390a45050565b600081600001549050919050565b600080612b3883611701565b90508073ffffffffffffffffffffffffffffffffffffffff168473ffffffffffffffffffffffffffffffffffffffff161480612b7a5750612b79818561289c565b5b80612bb857508373ffffffffffffffffffffffffffffffffffffffff16612ba0846107e7565b73ffffffffffffffffffffffffffffffffffffffff16145b91505092915050565b8273ffffffffffffffffffffffffffffffffffffffff16612be182611701565b73ffffffffffffffffffffffffffffffffffffffff1614612c37576040517f08c379a0000000000000000000000000000000000000000000000000000000008152600401612c2e9061502d565b60405180910390fd5b600073ffffffffffffffffffffffffffffffffffffffff168273ffffffffffffffffffffffffffffffffffffffff1603612ca6576040517f08c379a0000000000000000000000000000000000000000000000000000000008152600401612c9d906150bf565b60405180910390fd5b612cb383838360016136ed565b8273ffffffffffffffffffffffffffffffffffffffff16612cd382611701565b73ffffffffffffffffffffffffffffffffffffffff1614612d29576040517f08c379a0000000000000000000000000000000000000000000000000000000008152600401612d209061502d565b60405180910390fd5b6004600082815260200190815260200160002060006101000a81549073ffffffffffffffffffffffffffffffffffffffff02191690556001600360008573ffffffffffffffffffffffffffffffffffffffff1673ffffffffffffffffffffffffffffffffffffffff168152602001908152602001600020600082825403925050819055506001600360008473ffffffffffffffffffffffffffffffffffffffff1673ffffffffffffffffffffffffffffffffffffffff16815260200190815260200160002060008282540192505081905550816002600083815260200190815260200160002060006101000a81548173ffffffffffffffffffffffffffffffffffffffff021916908373ffffffffffffffffffffffffffffffffffffffff160217905550808273ffffffffffffffffffffffffffffffffffffffff168473ffffffffffffffffffffffffffffffffffffffff167fddf252ad1be2c89b69c2b068fc378daa952ba7f163c4a11628f55a4df523b3ef60405160405180910390a4612eb583838360016136f3565b505050565b612f528282604051602401612ed09291906150df565b6040516020818303038152906040527f319af333000000000000000000000000000000000000000000000000000000007bffffffffffffffffffffffffffffffffffffffffffffffffffffffff19166020820180517bffffffffffffffffffffffffffffffffffffffffffffffffffffffff83818316178352505050506136f9565b5050565b612fee8282604051602401612f6c92919061510f565b6040516020818303038152906040527fb60e72cc000000000000000000000000000000000000000000000000000000007bffffffffffffffffffffffffffffffffffffffffffffffffffffffff19166020820180517bffffffffffffffffffffffffffffffffffffffffffffffffffffffff83818316178352505050506136f9565b5050565b60006002600083815260200190815260200160002060009054906101000a900473ffffffffffffffffffffffffffffffffffffffff169050919050565b6130c5816040516024016130439190613cfe565b6040516020818303038152906040527f41304fac000000000000000000000000000000000000000000000000000000007bffffffffffffffffffffffffffffffffffffffffffffffffffffffff19166020820180517bffffffffffffffffffffffffffffffffffffffffffffffffffffffff83818316178352505050506136f9565b50565b60008160000154905060008111613114576040517f08c379a000000000000000000000000000000000000000000000000000000000815260040161310b9061518b565b60405180910390fd5b6001810382600001819055505050565b8173ffffffffffffffffffffffffffffffffffffffff168373ffffffffffffffffffffffffffffffffffffffff1603613192576040517f08c379a0000000000000000000000000000000000000000000000000000000008152600401613189906151f7565b60405180910390fd5b80600560008573ffffffffffffffffffffffffffffffffffffffff1673ffffffffffffffffffffffffffffffffffffffff16815260200190815260200160002060008473ffffffffffffffffffffffffffffffffffffffff1673ffffffffffffffffffffffffffffffffffffffff16815260200190815260200160002060006101000a81548160ff0219169083151502179055508173ffffffffffffffffffffffffffffffffffffffff168373ffffffffffffffffffffffffffffffffffffffff167f17307eab39ab6107e8899845ad3d59bd9653f200f220920489ca2b5937696c31836040516132839190613c53565b60405180910390a3505050565b61329b848484612bc1565b6132a784848484613713565b6132e6576040517f08c379a00000000000000000000000000000000000000000000000000000000081526004016132dd90615289565b60405180910390fd5b50505050565b6001816000016000828254019250508190555050565b600073ffffffffffffffffffffffffffffffffffffffff168273ffffffffffffffffffffffffffffffffffffffff1603613371576040517f08c379a0000000000000000000000000000000000000000000000000000000008152600401613368906152f5565b60405180910390fd5b61337a816136ac565b156133ba576040517f08c379a00000000000000000000000000000000000000000000000000000000081526004016133b190615361565b60405180910390fd5b6133c86000838360016136ed565b6133d1816136ac565b15613411576040517f08c379a000000000000000000000000000000000000000000000000000000000815260040161340890615361565b60405180910390fd5b6001600360008473ffffffffffffffffffffffffffffffffffffffff1673ffffffffffffffffffffffffffffffffffffffff16815260200190815260200160002060008282540192505081905550816002600083815260200190815260200160002060006101000a81548173ffffffffffffffffffffffffffffffffffffffff021916908373ffffffffffffffffffffffffffffffffffffffff160217905550808273ffffffffffffffffffffffffffffffffffffffff16600073ffffffffffffffffffffffffffffffffffffffff167fddf252ad1be2c89b69c2b068fc378daa952ba7f163c4a11628f55a4df523b3ef60405160405180910390a461351b6000838360016136f3565b5050565b613528826136ac565b613567576040517f08c379a000000000000000000000000000000000000000000000000000000000815260040161355e906153f3565b60405180910390fd5b8060066000848152602001908152602001600020908161358791906155bf565b507ff8e1a15aba9398e019f0b49df1a4fde98ee17ae345cb5f6b5e2c27f5033e8ce7826040516135b79190614120565b60405180910390a15050565b606060405180602001604052806000815250905090565b60606135e582612a12565b60006135ef6135c3565b9050600081511161360f576040518060200160405280600081525061363a565b806136198461389a565b60405160200161362a929190614f97565b6040516020818303038152906040525b915050919050565b60007f01ffc9a7000000000000000000000000000000000000000000000000000000007bffffffffffffffffffffffffffffffffffffffffffffffffffffffff1916827bffffffffffffffffffffffffffffffffffffffffffffffffffffffff1916149050919050565b60008073ffffffffffffffffffffffffffffffffffffffff166136ce83612ff2565b73ffffffffffffffffffffffffffffffffffffffff1614159050919050565b50505050565b50505050565b61371081613708613968613989565b63ffffffff16565b50565b60006137348473ffffffffffffffffffffffffffffffffffffffff16613994565b1561388d578373ffffffffffffffffffffffffffffffffffffffff1663150b7a0261375d612a5d565b8786866040518563ffffffff1660e01b815260040161377f94939291906156e6565b6020604051808303816000875af19250505080156137bb57506040513d601f19601f820116820180604052508101906137b89190615747565b60015b61383d573d80600081146137eb576040519150601f19603f3d011682016040523d82523d6000602084013e6137f0565b606091505b506000815103613835576040517f08c379a000000000000000000000000000000000000000000000000000000000815260040161382c90615289565b60405180910390fd5b805181602001fd5b63150b7a0260e01b7bffffffffffffffffffffffffffffffffffffffffffffffffffffffff1916817bffffffffffffffffffffffffffffffffffffffffffffffffffffffff191614915050613892565b600190505b949350505050565b6060600060016138a9846139b7565b01905060008167ffffffffffffffff8111156138c8576138c761427c565b5b6040519080825280601f01601f1916602001820160405280156138fa5781602001600182028036833780820191505090505b509050600082602001820190505b60011561395d578080600190039150507f3031323334353637383961626364656600000000000000000000000000000000600a86061a8153600a858161395157613950615774565b5b04945060008503613908575b819350505050919050565b60006a636f6e736f6c652e6c6f679050600080835160208501845afa505050565b613b95819050919050565b6000808273ffffffffffffffffffffffffffffffffffffffff163b119050919050565b600080600090507a184f03e93ff9f4daa797ed6e38ed64bf6a1f0100000000000000008310613a15577a184f03e93ff9f4daa797ed6e38ed64bf6a1f0100000000000000008381613a0b57613a0a615774565b5b0492506040810190505b6d04ee2d6d415b85acef81000000008310613a52576d04ee2d6d415b85acef81000000008381613a4857613a47615774565b5b0492506020810190505b662386f26fc100008310613a8157662386f26fc100008381613a7757613a76615774565b5b0492506010810190505b6305f5e1008310613aaa576305f5e1008381613aa057613a9f615774565b5b0492506008810190505b6127108310613acf576127108381613ac557613ac4615774565b5b0492506004810190505b60648310613af25760648381613ae857613ae7615774565b5b0492506002810190505b600a8310613b01576001810190505b80915050919050565b60405180610100016040528060008152602001600073ffffffffffffffffffffffffffffffffffffffff168152602001600073ffffffffffffffffffffffffffffffffffffffff168152602001600073ffffffffffffffffffffffffffffffffffffffff16815260200160008152602001600081526020016000151581526020016000151581525090565b613b9d6157a3565b565b6000604051905090565b600080fd5b600080fd5b60007fffffffff0000000000000000000000000000000000000000000000000000000082169050919050565b613be881613bb3565b8114613bf357600080fd5b50565b600081359050613c0581613bdf565b92915050565b600060208284031215613c2157613c20613ba9565b5b6000613c2f84828501613bf6565b91505092915050565b60008115159050919050565b613c4d81613c38565b82525050565b6000602082019050613c686000830184613c44565b92915050565b600081519050919050565b600082825260208201905092915050565b60005b83811015613ca8578082015181840152602081019050613c8d565b60008484015250505050565b6000601f19601f8301169050919050565b6000613cd082613c6e565b613cda8185613c79565b9350613cea818560208601613c8a565b613cf381613cb4565b840191505092915050565b60006020820190508181036000830152613d188184613cc5565b905092915050565b6000819050919050565b613d3381613d20565b8114613d3e57600080fd5b50565b600081359050613d5081613d2a565b92915050565b600060208284031215613d6c57613d6b613ba9565b5b6000613d7a84828501613d41565b91505092915050565b600073ffffffffffffffffffffffffffffffffffffffff82169050919050565b6000613dae82613d83565b9050919050565b613dbe81613da3565b82525050565b6000602082019050613dd96000830184613db5565b92915050565b613de881613da3565b8114613df357600080fd5b50565b600081359050613e0581613ddf565b92915050565b60008060408385031215613e2257613e21613ba9565b5b6000613e3085828601613df6565b9250506020613e4185828601613d41565b9150509250929050565b600081519050919050565b600082825260208201905092915050565b6000819050602082019050919050565b613e8081613d20565b82525050565b6000613e9182613d83565b9050919050565b613ea181613e86565b82525050565b613eb081613c38565b82525050565b61010082016000820151613ecd6000850182613e77565b506020820151613ee06020850182613e98565b506040820151613ef36040850182613e98565b506060820151613f066060850182613e98565b506080820151613f196080850182613e77565b5060a0820151613f2c60a0850182613e77565b5060c0820151613f3f60c0850182613ea7565b5060e0820151613f5260e0850182613ea7565b50505050565b6000613f648383613eb6565b6101008301905092915050565b6000602082019050919050565b6000613f8982613e4b565b613f938185613e56565b9350613f9e83613e67565b8060005b83811015613fcf578151613fb68882613f58565b9750613fc183613f71565b925050600181019050613fa2565b5085935050505092915050565b60006020820190508181036000830152613ff68184613f7e565b905092915050565b60006020828403121561401457614013613ba9565b5b600061402284828501613df6565b91505092915050565b60008060006060848603121561404457614043613ba9565b5b600061405286828701613df6565b935050602061406386828701613df6565b925050604061407486828701613d41565b9150509250925092565b60008060006060848603121561409757614096613ba9565b5b60006140a586828701613d41565b93505060206140b686828701613d41565b92505060406140c786828701613d41565b9150509250925092565b600080604083850312156140e8576140e7613ba9565b5b60006140f685828601613d41565b925050602061410785828601613d41565b9150509250929050565b61411a81613d20565b82525050565b60006020820190506141356000830184614111565b92915050565b60008060006060848603121561415457614153613ba9565b5b600061416286828701613d41565b935050602061417386828701613d41565b925050604061418486828701613df6565b9150509250925092565b600080604083850312156141a5576141a4613ba9565b5b60006141b385828601613d41565b92505060206141c485828601613df6565b9150509250929050565b6141d781613c38565b81146141e257600080fd5b50565b6000813590506141f4816141ce565b92915050565b6000806040838503121561421157614210613ba9565b5b600061421f85828601613df6565b9250506020614230858286016141e5565b9150509250929050565b61424381613e86565b82525050565b600060408201905061425e6000830185614111565b61426b602083018461423a565b9392505050565b600080fd5b600080fd5b7f4e487b7100000000000000000000000000000000000000000000000000000000600052604160045260246000fd5b6142b482613cb4565b810181811067ffffffffffffffff821117156142d3576142d261427c565b5b80604052505050565b60006142e6613b9f565b90506142f282826142ab565b919050565b600067ffffffffffffffff8211156143125761431161427c565b5b61431b82613cb4565b9050602081019050919050565b82818337600083830152505050565b600061434a614345846142f7565b6142dc565b90508281526020810184848401111561436657614365614277565b5b614371848285614328565b509392505050565b600082601f83011261438e5761438d614272565b5b813561439e848260208601614337565b91505092915050565b600080600080608085870312156143c1576143c0613ba9565b5b60006143cf87828801613df6565b94505060206143e087828801613df6565b93505060406143f187828801613d41565b925050606085013567ffffffffffffffff81111561441257614411613bae565b5b61441e87828801614379565b91505092959194509250565b600067ffffffffffffffff8211156144455761444461427c565b5b61444e82613cb4565b9050602081019050919050565b600061446e6144698461442a565b6142dc565b90508281526020810184848401111561448a57614489614277565b5b614495848285614328565b509392505050565b600082601f8301126144b2576144b1614272565b5b81356144c284826020860161445b565b91505092915050565b6000806000606084860312156144e4576144e3613ba9565b5b600084013567ffffffffffffffff81111561450257614501613bae565b5b61450e8682870161449d565b935050602061451f86828701613d41565b925050604061453086828701613d41565b9150509250925092565b6000806040838503121561455157614550613ba9565b5b600061455f85828601613df6565b925050602061457085828601613df6565b9150509250929050565b7f4e487b7100000000000000000000000000000000000000000000000000000000600052602260045260246000fd5b600060028204905060018216806145c157607f821691505b6020821081036145d4576145d361457a565b5b50919050565b7f4552433732313a20617070726f76616c20746f2063757272656e74206f776e6560008201527f7200000000000000000000000000000000000000000000000000000000000000602082015250565b6000614636602183613c79565b9150614641826145da565b604082019050919050565b6000602082019050818103600083015261466581614629565b9050919050565b7f4552433732313a20617070726f76652063616c6c6572206973206e6f7420746f60008201527f6b656e206f776e6572206f7220617070726f76656420666f7220616c6c000000602082015250565b60006146c8603d83613c79565b91506146d38261466c565b604082019050919050565b600060208201905081810360008301526146f7816146bb565b9050919050565b7f4e487b7100000000000000000000000000000000000000000000000000000000600052601160045260246000fd5b600061473882613d20565b915061474383613d20565b925082820390508181111561475b5761475a6146fe565b5b92915050565b600061476c82613d20565b915061477783613d20565b925082820190508082111561478f5761478e6146fe565b5b92915050565b7f4e487b7100000000000000000000000000000000000000000000000000000000600052603260045260246000fd5b60006147cf82613d20565b91507fffffffffffffffffffffffffffffffffffffffffffffffffffffffffffffffff8203614801576148006146fe565b5b600182019050919050565b7f4552433732313a2063616c6c6572206973206e6f7420746f6b656e206f776e6560008201527f72206f7220617070726f76656400000000000000000000000000000000000000602082015250565b6000614868602d83613c79565b91506148738261480c565b604082019050919050565b600060208201905081810360008301526148978161485b565b9050919050565b7f6f6e6c79206f776e6572206f662074686520636f6e74726163742063616e207560008201527f706461746520746865206c697374696e67207072696365000000000000000000602082015250565b60006148fa603783613c79565b91506149058261489e565b604082019050919050565b60006020820190508181036000830152614929816148ed565b9050919050565b7f4e6f2066756e647320746f207769746864726177000000000000000000000000600082015250565b6000614966601483613c79565b915061497182614930565b602082019050919050565b6000602082019050818103600083015261499581614959565b9050919050565b600081905092915050565b50565b60006149b760008361499c565b91506149c2826149a7565b600082019050919050565b60006149d8826149aa565b9150819050919050565b7f4661696c656420746f2077697468647261772066756e64730000000000000000600082015250565b6000614a18601883613c79565b9150614a23826149e2565b602082019050919050565b60006020820190508181036000830152614a4781614a0b565b9050919050565b6000604082019050614a636000830185614111565b614a706020830184613db5565b9392505050565b7f5072696365206d757374206265206174206c6561737420312077656900000000600082015250565b6000614aad601c83613c79565b9150614ab882614a77565b602082019050919050565b60006020820190508181036000830152614adc81614aa0565b9050919050565b7f5072696365206d757374206265207061696420696e2066756c6c000000000000600082015250565b6000614b19601a83613c79565b9150614b2482614ae3565b602082019050919050565b60006020820190508181036000830152614b4881614b0c565b9050919050565b600060e082019050614b64600083018a613db5565b614b716020830189613db5565b614b7e6040830188613db5565b614b8b6060830187614111565b614b986080830186614111565b614ba560a0830185613c44565b614bb260c0830184613c44565b98975050505050505050565b7f4e465420646f6573206e6f7420657869737420696e206d61726b6574706c616360008201527f6500000000000000000000000000000000000000000000000000000000000000602082015250565b6000614c1a602183613c79565b9150614c2582614bbe565b604082019050919050565b60006020820190508181036000830152614c4981614c0d565b9050919050565b7f43616c6c6572206973206e6f7420746865206f776e6572000000000000000000600082015250565b6000614c86601783613c79565b9150614c9182614c50565b602082019050919050565b60006020820190508181036000830152614cb581614c79565b9050919050565b7f5072696365206d7573742062652067726561746572207468616e207a65726f00600082015250565b6000614cf2601f83613c79565b9150614cfd82614cbc565b602082019050919050565b60006020820190508181036000830152614d2181614ce5565b9050919050565b7f4552433732313a20696e76616c696420746f6b656e2049440000000000000000600082015250565b6000614d5e601883613c79565b9150614d6982614d28565b602082019050919050565b60006020820190508181036000830152614d8d81614d51565b9050919050565b7f4552433732313a2061646472657373207a65726f206973206e6f74206120766160008201527f6c6964206f776e65720000000000000000000000000000000000000000000000602082015250565b6000614df0602983613c79565b9150614dfb82614d94565b604082019050919050565b60006020820190508181036000830152614e1f81614de3565b9050919050565b7f4f6e6c79206f776e65722063616e2072656c697374204e465400000000000000600082015250565b6000614e5c601983613c79565b9150614e6782614e26565b602082019050919050565b60006020820190508181036000830152614e8b81614e4f565b9050919050565b6000606082019050614ea76000830186613db5565b614eb46020830185613db5565b614ec16040830184614111565b949350505050565b7f506c65617365207375626d6974207468652061736b696e67207072696365206960008201527f6e206f7264657220746f20636f6d706c65746520746865207075726368617365602082015250565b6000614f25604083613c79565b9150614f3082614ec9565b604082019050919050565b60006020820190508181036000830152614f5481614f18565b9050919050565b600081905092915050565b6000614f7182613c6e565b614f7b8185614f5b565b9350614f8b818560208601613c8a565b80840191505092915050565b6000614fa38285614f66565b9150614faf8284614f66565b91508190509392505050565b7f4552433732313a207472616e736665722066726f6d20696e636f72726563742060008201527f6f776e6572000000000000000000000000000000000000000000000000000000602082015250565b6000615017602583613c79565b915061502282614fbb565b604082019050919050565b600060208201905081810360008301526150468161500a565b9050919050565b7f4552433732313a207472616e7366657220746f20746865207a65726f2061646460008201527f7265737300000000000000000000000000000000000000000000000000000000602082015250565b60006150a9602483613c79565b91506150b48261504d565b604082019050919050565b600060208201905081810360008301526150d88161509c565b9050919050565b600060408201905081810360008301526150f98185613cc5565b90506151086020830184613db5565b9392505050565b600060408201905081810360008301526151298185613cc5565b90506151386020830184614111565b9392505050565b7f436f756e7465723a2064656372656d656e74206f766572666c6f770000000000600082015250565b6000615175601b83613c79565b91506151808261513f565b602082019050919050565b600060208201905081810360008301526151a481615168565b9050919050565b7f4552433732313a20617070726f766520746f2063616c6c657200000000000000600082015250565b60006151e1601983613c79565b91506151ec826151ab565b602082019050919050565b60006020820190508181036000830152615210816151d4565b9050919050565b7f4552433732313a207472616e7366657220746f206e6f6e20455243373231526560008201527f63656976657220696d706c656d656e7465720000000000000000000000000000602082015250565b6000615273603283613c79565b915061527e82615217565b604082019050919050565b600060208201905081810360008301526152a281615266565b9050919050565b7f4552433732313a206d696e7420746f20746865207a65726f2061646472657373600082015250565b60006152df602083613c79565b91506152ea826152a9565b602082019050919050565b6000602082019050818103600083015261530e816152d2565b9050919050565b7f4552433732313a20746f6b656e20616c7265616479206d696e74656400000000600082015250565b600061534b601c83613c79565b915061535682615315565b602082019050919050565b6000602082019050818103600083015261537a8161533e565b9050919050565b7f45524337323155524953746f726167653a2055524920736574206f66206e6f6e60008201527f6578697374656e7420746f6b656e000000000000000000000000000000000000602082015250565b60006153dd602e83613c79565b91506153e882615381565b604082019050919050565b6000602082019050818103600083015261540c816153d0565b9050919050565b60008190508160005260206000209050919050565b60006020601f8301049050919050565b600082821b905092915050565b6000600883026154757fffffffffffffffffffffffffffffffffffffffffffffffffffffffffffffffff82615438565b61547f8683615438565b95508019841693508086168417925050509392505050565b6000819050919050565b60006154bc6154b76154b284613d20565b615497565b613d20565b9050919050565b6000819050919050565b6154d6836154a1565b6154ea6154e2826154c3565b848454615445565b825550505050565b600090565b6154ff6154f2565b61550a8184846154cd565b505050565b5b8181101561552e576155236000826154f7565b600181019050615510565b5050565b601f8211156155735761554481615413565b61554d84615428565b8101602085101561555c578190505b61557061556885615428565b83018261550f565b50505b505050565b600082821c905092915050565b600061559660001984600802615578565b1980831691505092915050565b60006155af8383615585565b9150826002028217905092915050565b6155c882613c6e565b67ffffffffffffffff8111156155e1576155e061427c565b5b6155eb82546145a9565b6155f6828285615532565b600060209050601f8311600181146156295760008415615617578287015190505b61562185826155a3565b865550615689565b601f19841661563786615413565b60005b8281101561565f5784890151825560018201915060208501945060208101905061563a565b8683101561567c5784890151615678601f891682615585565b8355505b6001600288020188555050505b505050505050565b600081519050919050565b600082825260208201905092915050565b60006156b882615691565b6156c2818561569c565b93506156d2818560208601613c8a565b6156db81613cb4565b840191505092915050565b60006080820190506156fb6000830187613db5565b6157086020830186613db5565b6157156040830185614111565b818103606083015261572781846156ad565b905095945050505050565b60008151905061574181613bdf565b92915050565b60006020828403121561575d5761575c613ba9565b5b600061576b84828501615732565b91505092915050565b7f4e487b7100000000000000000000000000000000000000000000000000000000600052601260045260246000fd5b7f4e487b7100000000000000000000000000000000000000000000000000000000600052605160045260246000fdfe437265617465204d61726b6574204974656d2046756e6374696f6e2043616c6c65723a20a2646970667358221220754e77a35105a617970373da8f0635ecc6f7c1a829ae7c816f0b9d385bd05caf64736f6c63430008130033",
  "linkReferences": {},
  "deployedLinkReferences": {}
}