{
  "_format": "hh-sol-artifact-1",
  "contractName": "Marketplace",
  "sourceName": "contracts/Marketplace.sol",
  "abi": [
    {
      "inputs": [],
      "stateMutability": "nonpayable",
      "type": "constructor"
    },
    {
      "anonymous": false,
      "inputs": [
        {
          "indexed": true,
          "internalType": "address",
          "name": "owner",
          "type": "address"
        },
        {
          "indexed": true,
          "internalType": "address",
          "name": "approved",
          "type": "address"
        },
        {
          "indexed": true,
          "internalType": "uint256",
          "name": "tokenId",
          "type": "uint256"
        }
      ],
      "name": "Approval",
      "type": "event"
    },
    {
      "anonymous": false,
      "inputs": [
        {
          "indexed": true,
          "internalType": "address",
          "name": "owner",
          "type": "address"
        },
        {
          "indexed": true,
          "internalType": "address",
          "name": "operator",
          "type": "address"
        },
        {
          "indexed": false,
          "internalType": "bool",
          "name": "approved",
          "type": "bool"
        }
      ],
      "name": "ApprovalForAll",
      "type": "event"
    },
    {
      "anonymous": false,
      "inputs": [
        {
          "indexed": false,
          "internalType": "uint256",
          "name": "_fromTokenId",
          "type": "uint256"
        },
        {
          "indexed": false,
          "internalType": "uint256",
          "name": "_toTokenId",
          "type": "uint256"
        }
      ],
      "name": "BatchMetadataUpdate",
      "type": "event"
    },
    {
      "anonymous": false,
      "inputs": [
        {
          "indexed": true,
          "internalType": "uint256",
          "name": "tokenId",
          "type": "uint256"
        },
        {
          "indexed": false,
          "internalType": "address",
          "name": "originalOwner",
          "type": "address"
        },
        {
          "indexed": false,
          "internalType": "address",
          "name": "seller",
          "type": "address"
        },
        {
          "indexed": false,
          "internalType": "address",
          "name": "owner",
          "type": "address"
        },
        {
          "indexed": false,
          "internalType": "uint256",
          "name": "royaltyPercentage",
          "type": "uint256"
        },
        {
          "indexed": false,
          "internalType": "uint256",
          "name": "price",
          "type": "uint256"
        },
        {
          "indexed": false,
          "internalType": "bool",
          "name": "sold",
          "type": "bool"
        }
      ],
      "name": "MarketItemCreated",
      "type": "event"
    },
    {
      "anonymous": false,
      "inputs": [
        {
          "indexed": false,
          "internalType": "uint256",
          "name": "_tokenId",
          "type": "uint256"
        }
      ],
      "name": "MetadataUpdate",
      "type": "event"
    },
    {
      "anonymous": false,
      "inputs": [
        {
          "indexed": false,
          "internalType": "uint256",
          "name": "nftId",
          "type": "uint256"
        },
        {
          "indexed": false,
          "internalType": "address",
          "name": "auctionWinner",
          "type": "address"
        }
      ],
      "name": "NFTTransferred",
      "type": "event"
    },
    {
      "anonymous": false,
      "inputs": [
        {
          "indexed": true,
          "internalType": "address",
          "name": "from",
          "type": "address"
        },
        {
          "indexed": true,
          "internalType": "address",
          "name": "to",
          "type": "address"
        },
        {
          "indexed": true,
          "internalType": "uint256",
          "name": "tokenId",
          "type": "uint256"
        }
      ],
      "name": "Transfer",
      "type": "event"
    },
    {
      "stateMutability": "payable",
      "type": "fallback"
    },
    {
      "inputs": [
        {
          "internalType": "address",
          "name": "to",
          "type": "address"
        },
        {
          "internalType": "uint256",
          "name": "tokenId",
          "type": "uint256"
        }
      ],
      "name": "approve",
      "outputs": [],
      "stateMutability": "nonpayable",
      "type": "function"
    },
    {
      "inputs": [
        {
          "internalType": "address",
          "name": "owner",
          "type": "address"
        }
      ],
      "name": "balanceOf",
      "outputs": [
        {
          "internalType": "uint256",
          "name": "",
          "type": "uint256"
        }
      ],
      "stateMutability": "view",
      "type": "function"
    },
    {
      "inputs": [
        {
          "internalType": "uint256",
          "name": "tokenId",
          "type": "uint256"
        },
        {
          "internalType": "uint256",
          "name": "royaltyPercentage",
          "type": "uint256"
        },
        {
          "internalType": "uint256",
          "name": "price",
          "type": "uint256"
        }
      ],
      "name": "createMarketItem",
      "outputs": [],
      "stateMutability": "payable",
      "type": "function"
    },
    {
      "inputs": [
        {
          "internalType": "uint256",
          "name": "tokenId",
          "type": "uint256"
        }
      ],
      "name": "createMarketSale",
      "outputs": [],
      "stateMutability": "payable",
      "type": "function"
    },
    {
      "inputs": [
        {
          "internalType": "string",
          "name": "tokenURI",
          "type": "string"
        },
        {
          "internalType": "uint256",
          "name": "royaltyPercentage",
          "type": "uint256"
        },
        {
          "internalType": "uint256",
          "name": "price",
          "type": "uint256"
        }
      ],
      "name": "createToken",
      "outputs": [
        {
          "internalType": "uint256",
          "name": "",
          "type": "uint256"
        }
      ],
      "stateMutability": "payable",
      "type": "function"
    },
    {
      "inputs": [
        {
          "internalType": "uint256",
          "name": "tokenId",
          "type": "uint256"
        }
      ],
      "name": "delistMarketItem",
      "outputs": [],
      "stateMutability": "nonpayable",
      "type": "function"
    },
    {
      "inputs": [],
      "name": "fetchItemsListed",
      "outputs": [
        {
          "components": [
            {
              "internalType": "uint256",
              "name": "tokenId",
              "type": "uint256"
            },
            {
              "internalType": "address payable",
              "name": "originalOwner",
              "type": "address"
            },
            {
              "internalType": "address payable",
              "name": "seller",
              "type": "address"
            },
            {
              "internalType": "address payable",
              "name": "owner",
              "type": "address"
            },
            {
              "internalType": "uint256",
              "name": "royaltyPercentage",
              "type": "uint256"
            },
            {
              "internalType": "uint256",
              "name": "price",
              "type": "uint256"
            },
            {
              "internalType": "bool",
              "name": "sold",
              "type": "bool"
            }
          ],
          "internalType": "struct Marketplace.MarketItem[]",
          "name": "",
          "type": "tuple[]"
        }
      ],
      "stateMutability": "view",
      "type": "function"
    },
    {
      "inputs": [],
      "name": "fetchMarketItems",
      "outputs": [
        {
          "components": [
            {
              "internalType": "uint256",
              "name": "tokenId",
              "type": "uint256"
            },
            {
              "internalType": "address payable",
              "name": "originalOwner",
              "type": "address"
            },
            {
              "internalType": "address payable",
              "name": "seller",
              "type": "address"
            },
            {
              "internalType": "address payable",
              "name": "owner",
              "type": "address"
            },
            {
              "internalType": "uint256",
              "name": "royaltyPercentage",
              "type": "uint256"
            },
            {
              "internalType": "uint256",
              "name": "price",
              "type": "uint256"
            },
            {
              "internalType": "bool",
              "name": "sold",
              "type": "bool"
            }
          ],
          "internalType": "struct Marketplace.MarketItem[]",
          "name": "",
          "type": "tuple[]"
        }
      ],
      "stateMutability": "view",
      "type": "function"
    },
    {
      "inputs": [],
      "name": "fetchMyNFT",
      "outputs": [
        {
          "components": [
            {
              "internalType": "uint256",
              "name": "tokenId",
              "type": "uint256"
            },
            {
              "internalType": "address payable",
              "name": "originalOwner",
              "type": "address"
            },
            {
              "internalType": "address payable",
              "name": "seller",
              "type": "address"
            },
            {
              "internalType": "address payable",
              "name": "owner",
              "type": "address"
            },
            {
              "internalType": "uint256",
              "name": "royaltyPercentage",
              "type": "uint256"
            },
            {
              "internalType": "uint256",
              "name": "price",
              "type": "uint256"
            },
            {
              "internalType": "bool",
              "name": "sold",
              "type": "bool"
            }
          ],
          "internalType": "struct Marketplace.MarketItem[]",
          "name": "",
          "type": "tuple[]"
        }
      ],
      "stateMutability": "view",
      "type": "function"
    },
    {
      "inputs": [
        {
          "internalType": "uint256",
          "name": "tokenId",
          "type": "uint256"
        }
      ],
      "name": "getApproved",
      "outputs": [
        {
          "internalType": "address",
          "name": "",
          "type": "address"
        }
      ],
      "stateMutability": "view",
      "type": "function"
    },
    {
      "inputs": [
        {
          "internalType": "uint256",
          "name": "tokenId",
          "type": "uint256"
        }
      ],
      "name": "getNFTPrice",
      "outputs": [
        {
          "internalType": "uint256",
          "name": "price",
          "type": "uint256"
        }
      ],
      "stateMutability": "view",
      "type": "function"
    },
    {
      "inputs": [
        {
          "internalType": "uint256",
          "name": "tokenId",
          "type": "uint256"
        }
      ],
      "name": "getRoyaltyData",
      "outputs": [
        {
          "internalType": "uint256",
          "name": "",
          "type": "uint256"
        },
        {
          "internalType": "address payable",
          "name": "",
          "type": "address"
        }
      ],
      "stateMutability": "view",
      "type": "function"
    },
    {
      "inputs": [
        {
          "internalType": "uint256",
          "name": "tokenId",
          "type": "uint256"
        }
      ],
      "name": "getSellerAddress",
      "outputs": [
        {
          "internalType": "address",
          "name": "",
          "type": "address"
        }
      ],
      "stateMutability": "view",
      "type": "function"
    },
    {
      "inputs": [
        {
          "internalType": "uint256",
          "name": "tokenId",
          "type": "uint256"
        },
        {
          "internalType": "address",
          "name": "winner",
          "type": "address"
        }
      ],
      "name": "handleAuctionEnd",
      "outputs": [],
      "stateMutability": "nonpayable",
      "type": "function"
    },
    {
      "inputs": [
        {
          "internalType": "address",
          "name": "owner",
          "type": "address"
        },
        {
          "internalType": "address",
          "name": "operator",
          "type": "address"
        }
      ],
      "name": "isApprovedForAll",
      "outputs": [
        {
          "internalType": "bool",
          "name": "",
          "type": "bool"
        }
      ],
      "stateMutability": "view",
      "type": "function"
    },
    {
      "inputs": [],
      "name": "listingPrice",
      "outputs": [
        {
          "internalType": "uint256",
          "name": "",
          "type": "uint256"
        }
      ],
      "stateMutability": "view",
      "type": "function"
    },
    {
      "inputs": [],
      "name": "name",
      "outputs": [
        {
          "internalType": "string",
          "name": "",
          "type": "string"
        }
      ],
      "stateMutability": "view",
      "type": "function"
    },
    {
      "inputs": [
        {
          "internalType": "uint256",
          "name": "tokenId",
          "type": "uint256"
        }
      ],
      "name": "ownerOf",
      "outputs": [
        {
          "internalType": "address",
          "name": "",
          "type": "address"
        }
      ],
      "stateMutability": "view",
      "type": "function"
    },
    {
      "inputs": [
        {
          "internalType": "uint256",
          "name": "tokenId",
          "type": "uint256"
        },
        {
          "internalType": "uint256",
          "name": "price",
          "type": "uint256"
        },
        {
          "internalType": "address",
          "name": "seller",
          "type": "address"
        }
      ],
      "name": "resellMarketItem",
      "outputs": [],
      "stateMutability": "payable",
      "type": "function"
    },
    {
      "inputs": [
        {
          "internalType": "address",
          "name": "from",
          "type": "address"
        },
        {
          "internalType": "address",
          "name": "to",
          "type": "address"
        },
        {
          "internalType": "uint256",
          "name": "tokenId",
          "type": "uint256"
        }
      ],
      "name": "safeTransferFrom",
      "outputs": [],
      "stateMutability": "nonpayable",
      "type": "function"
    },
    {
      "inputs": [
        {
          "internalType": "address",
          "name": "from",
          "type": "address"
        },
        {
          "internalType": "address",
          "name": "to",
          "type": "address"
        },
        {
          "internalType": "uint256",
          "name": "tokenId",
          "type": "uint256"
        },
        {
          "internalType": "bytes",
          "name": "data",
          "type": "bytes"
        }
      ],
      "name": "safeTransferFrom",
      "outputs": [],
      "stateMutability": "nonpayable",
      "type": "function"
    },
    {
      "inputs": [
        {
          "internalType": "address",
          "name": "operator",
          "type": "address"
        },
        {
          "internalType": "bool",
          "name": "approved",
          "type": "bool"
        }
      ],
      "name": "setApprovalForAll",
      "outputs": [],
      "stateMutability": "nonpayable",
      "type": "function"
    },
    {
      "inputs": [
        {
          "internalType": "address",
          "name": "auctionFactoryAddress",
          "type": "address"
        }
      ],
      "name": "setAuctionFactoryAddress",
      "outputs": [],
      "stateMutability": "nonpayable",
      "type": "function"
    },
    {
      "inputs": [
        {
          "internalType": "bytes4",
          "name": "interfaceId",
          "type": "bytes4"
        }
      ],
      "name": "supportsInterface",
      "outputs": [
        {
          "internalType": "bool",
          "name": "",
          "type": "bool"
        }
      ],
      "stateMutability": "view",
      "type": "function"
    },
    {
      "inputs": [],
      "name": "symbol",
      "outputs": [
        {
          "internalType": "string",
          "name": "",
          "type": "string"
        }
      ],
      "stateMutability": "view",
      "type": "function"
    },
    {
      "inputs": [
        {
          "internalType": "uint256",
          "name": "tokenId",
          "type": "uint256"
        }
      ],
      "name": "tokenURI",
      "outputs": [
        {
          "internalType": "string",
          "name": "",
          "type": "string"
        }
      ],
      "stateMutability": "view",
      "type": "function"
    },
    {
      "inputs": [
        {
          "internalType": "address",
          "name": "from",
          "type": "address"
        },
        {
          "internalType": "address",
          "name": "to",
          "type": "address"
        },
        {
          "internalType": "uint256",
          "name": "tokenId",
          "type": "uint256"
        }
      ],
      "name": "transferFrom",
      "outputs": [],
      "stateMutability": "nonpayable",
      "type": "function"
    },
    {
      "inputs": [
        {
          "internalType": "address",
          "name": "auctionContractAddress",
          "type": "address"
        },
        {
          "internalType": "uint256",
          "name": "tokenId",
          "type": "uint256"
        }
      ],
      "name": "triggerEndAuction",
      "outputs": [],
      "stateMutability": "nonpayable",
      "type": "function"
    },
    {
      "inputs": [
        {
          "internalType": "uint256",
          "name": "_listingPrice",
          "type": "uint256"
        }
      ],
      "name": "updateListingPrice",
      "outputs": [],
      "stateMutability": "payable",
      "type": "function"
    },
    {
      "inputs": [
        {
          "internalType": "uint256",
          "name": "tokenId",
          "type": "uint256"
        },
        {
          "internalType": "uint256",
          "name": "price",
          "type": "uint256"
        }
      ],
      "name": "updateNFTPrice",
      "outputs": [],
      "stateMutability": "nonpayable",
      "type": "function"
    },
    {
      "stateMutability": "payable",
      "type": "receive"
    }
  ],
  "bytecode": "0x60806040526608e1bc9bf04000600a553480156200001c57600080fd5b506040518060400160405280601381526020017f4e4654204d657461766572736520546f6b656e000000000000000000000000008152506040518060400160405280600581526020017f4d594e465400000000000000000000000000000000000000000000000000000081525081600090816200009a919062000378565b508060019081620000ac919062000378565b505050600160078190555033600b60006101000a81548173ffffffffffffffffffffffffffffffffffffffff021916908373ffffffffffffffffffffffffffffffffffffffff1602179055506200045f565b600081519050919050565b7f4e487b7100000000000000000000000000000000000000000000000000000000600052604160045260246000fd5b7f4e487b7100000000000000000000000000000000000000000000000000000000600052602260045260246000fd5b600060028204905060018216806200018057607f821691505b60208210810362000196576200019562000138565b5b50919050565b60008190508160005260206000209050919050565b60006020601f8301049050919050565b600082821b905092915050565b600060088302620002007fffffffffffffffffffffffffffffffffffffffffffffffffffffffffffffffff82620001c1565b6200020c8683620001c1565b95508019841693508086168417925050509392505050565b6000819050919050565b6000819050919050565b600062000259620002536200024d8462000224565b6200022e565b62000224565b9050919050565b6000819050919050565b620002758362000238565b6200028d620002848262000260565b848454620001ce565b825550505050565b600090565b620002a462000295565b620002b18184846200026a565b505050565b5b81811015620002d957620002cd6000826200029a565b600181019050620002b7565b5050565b601f8211156200032857620002f2816200019c565b620002fd84620001b1565b810160208510156200030d578190505b620003256200031c85620001b1565b830182620002b6565b50505b505050565b600082821c905092915050565b60006200034d600019846008026200032d565b1980831691505092915050565b60006200036883836200033a565b9150826002028217905092915050565b6200038382620000fe565b67ffffffffffffffff8111156200039f576200039e62000109565b5b620003ab825462000167565b620003b8828285620002dd565b600060209050601f831160018114620003f05760008415620003db578287015190505b620003e785826200035a565b86555062000457565b601f19841662000400866200019c565b60005b828110156200042a5784890151825560018201915060208501945060208101905062000403565b868310156200044a578489015162000446601f8916826200033a565b8355505b6001600288020188555050505b505050505050565b615329806200046f6000396000f3fe6080604052600436106101d15760003560e01c806392976179116100f7578063b88d4fde11610095578063c68a0e1611610064578063c68a0e161461066e578063c78f19f914610697578063c87b56dd146106c2578063e985e9c5146106ff576101d8565b8063b88d4fde146105ce578063be9af536146105f7578063bec2a7c514610613578063c18763f714610643576101d8565b8063a22cb465116100d1578063a22cb4651461050e578063a65ff74c14610537578063a675364d14610575578063ae677aa3146105b2576101d8565b8063929761791461047d57806395d89b41146104ba57806399f14a8b146104e5576101d8565b8063320343da1161016f5780636352211e1161013e5780636352211e146103be57806370a08231146103fb578063804fa835146104385780638f329b3114610454576101d8565b8063320343da1461032557806342842e0e1461034157806345f8fa801461036a5780634ac0123d14610395576101d8565b8063095ea7b3116101ab578063095ea7b31461027f5780630f08efe0146102a85780631cb88133146102d357806323b872dd146102fc576101d8565b806301ffc9a7146101da57806306fdde0314610217578063081812fc14610242576101d8565b366101d857005b005b3480156101e657600080fd5b5061020160048036038101906101fc91906137fe565b61073c565b60405161020e9190613846565b60405180910390f35b34801561022357600080fd5b5061022c61079d565b60405161023991906138f1565b60405180910390f35b34801561024e57600080fd5b5061026960048036038101906102649190613949565b61082f565b60405161027691906139b7565b60405180910390f35b34801561028b57600080fd5b506102a660048036038101906102a191906139fe565b610875565b005b3480156102b457600080fd5b506102bd61098c565b6040516102ca9190613bba565b60405180910390f35b3480156102df57600080fd5b506102fa60048036038101906102f59190613bdc565b610c54565b005b34801561030857600080fd5b50610323600480360381019061031e9190613c09565b610c98565b005b61033f600480360381019061033a9190613c5c565b610cf8565b005b34801561034d57600080fd5b5061036860048036038101906103639190613c09565b610f73565b005b34801561037657600080fd5b5061037f610f93565b60405161038c9190613bba565b60405180910390f35b3480156103a157600080fd5b506103bc60048036038101906103b79190613caf565b6112df565b005b3480156103ca57600080fd5b506103e560048036038101906103e09190613949565b61148a565b6040516103f291906139b7565b60405180910390f35b34801561040757600080fd5b50610422600480360381019061041d9190613bdc565b611510565b60405161042f9190613cfe565b60405180910390f35b610452600480360381019061044d9190613d19565b6115c7565b005b34801561046057600080fd5b5061047b60048036038101906104769190613d6c565b6117e4565b005b34801561048957600080fd5b506104a4600480360381019061049f9190613949565b611914565b6040516104b19190613cfe565b60405180910390f35b3480156104c657600080fd5b506104cf611a7f565b6040516104dc91906138f1565b60405180910390f35b3480156104f157600080fd5b5061050c600480360381019061050791906139fe565b611b11565b005b34801561051a57600080fd5b5061053560048036038101906105309190613dd8565b611b86565b005b34801561054357600080fd5b5061055e60048036038101906105599190613949565b611b9c565b60405161056c929190613e27565b60405180910390f35b34801561058157600080fd5b5061059c60048036038101906105979190613949565b611d10565b6040516105a991906139b7565b60405180910390f35b6105cc60048036038101906105c79190613949565b611d50565b005b3480156105da57600080fd5b506105f560048036038101906105f09190613f85565b611dea565b005b610611600480360381019061060c9190613949565b611e4c565b005b61062d600480360381019061062891906140a9565b6120d2565b60405161063a9190613cfe565b60405180910390f35b34801561064f57600080fd5b50610658612116565b6040516106659190613bba565b60405180910390f35b34801561067a57600080fd5b5061069560048036038101906106909190613949565b612462565b005b3480156106a357600080fd5b506106ac6125a2565b6040516106b99190613cfe565b60405180910390f35b3480156106ce57600080fd5b506106e960048036038101906106e49190613949565b6125a8565b6040516106f691906138f1565b60405180910390f35b34801561070b57600080fd5b5061072660048036038101906107219190614118565b6126ba565b6040516107339190613846565b60405180910390f35b6000634906490660e01b7bffffffffffffffffffffffffffffffffffffffffffffffffffffffff1916827bffffffffffffffffffffffffffffffffffffffffffffffffffffffff1916148061079657506107958261274e565b5b9050919050565b6060600080546107ac90614187565b80601f01602080910402602001604051908101604052809291908181526020018280546107d890614187565b80156108255780601f106107fa57610100808354040283529160200191610825565b820191906000526020600020905b81548152906001019060200180831161080857829003601f168201915b5050505050905090565b600061083a82612830565b6004600083815260200190815260200160002060009054906101000a900473ffffffffffffffffffffffffffffffffffffffff169050919050565b60006108808261148a565b90508073ffffffffffffffffffffffffffffffffffffffff168373ffffffffffffffffffffffffffffffffffffffff16036108f0576040517f08c379a00000000000000000000000000000000000000000000000000000000081526004016108e79061422a565b60405180910390fd5b8073ffffffffffffffffffffffffffffffffffffffff1661090f61287b565b73ffffffffffffffffffffffffffffffffffffffff16148061093e575061093d8161093861287b565b6126ba565b5b61097d576040517f08c379a0000000000000000000000000000000000000000000000000000000008152600401610974906142bc565b60405180910390fd5b6109878383612883565b505050565b6060600061099a600861293c565b905060006109a8600961293c565b6109b2600861293c565b6109bc919061430b565b90506000808267ffffffffffffffff8111156109db576109da613e5a565b5b604051908082528060200260200182016040528015610a1457816020015b610a01613711565b8152602001906001900390816109f95790505b50905060005b84811015610c49573073ffffffffffffffffffffffffffffffffffffffff16600d6000600184610a4a919061433f565b815260200190815260200160002060030160009054906101000a900473ffffffffffffffffffffffffffffffffffffffff1673ffffffffffffffffffffffffffffffffffffffff1603610c36576000600182610aa6919061433f565b90506000600d60008381526020019081526020016000209050806040518060e0016040529081600082015481526020016001820160009054906101000a900473ffffffffffffffffffffffffffffffffffffffff1673ffffffffffffffffffffffffffffffffffffffff1673ffffffffffffffffffffffffffffffffffffffff1681526020016002820160009054906101000a900473ffffffffffffffffffffffffffffffffffffffff1673ffffffffffffffffffffffffffffffffffffffff1673ffffffffffffffffffffffffffffffffffffffff1681526020016003820160009054906101000a900473ffffffffffffffffffffffffffffffffffffffff1673ffffffffffffffffffffffffffffffffffffffff1673ffffffffffffffffffffffffffffffffffffffff16815260200160048201548152602001600582015481526020016006820160009054906101000a900460ff161515151581525050848681518110610c1957610c18614373565b5b6020026020010181905250600185610c31919061433f565b945050505b8080610c41906143a2565b915050610a1a565b508094505050505090565b80600c60006101000a81548173ffffffffffffffffffffffffffffffffffffffff021916908373ffffffffffffffffffffffffffffffffffffffff16021790555050565b610ca9610ca361287b565b8261294a565b610ce8576040517f08c379a0000000000000000000000000000000000000000000000000000000008152600401610cdf9061445c565b60405180910390fd5b610cf38383836129df565b505050565b60008111610d3b576040517f08c379a0000000000000000000000000000000000000000000000000000000008152600401610d32906144c8565b60405180910390fd5b600a543414610d7f576040517f08c379a0000000000000000000000000000000000000000000000000000000008152600401610d7690614534565b60405180910390fd5b6040518060e001604052808481526020013373ffffffffffffffffffffffffffffffffffffffff1681526020013373ffffffffffffffffffffffffffffffffffffffff1681526020013073ffffffffffffffffffffffffffffffffffffffff16815260200183815260200182815260200160001515815250600d60008581526020019081526020016000206000820151816000015560208201518160010160006101000a81548173ffffffffffffffffffffffffffffffffffffffff021916908373ffffffffffffffffffffffffffffffffffffffff16021790555060408201518160020160006101000a81548173ffffffffffffffffffffffffffffffffffffffff021916908373ffffffffffffffffffffffffffffffffffffffff16021790555060608201518160030160006101000a81548173ffffffffffffffffffffffffffffffffffffffff021916908373ffffffffffffffffffffffffffffffffffffffff1602179055506080820151816004015560a0820151816005015560c08201518160060160006101000a81548160ff021916908315150217905550905050610f2b3330856129df565b827fa5d9d913ac4de93e8f5dc9a8834f347d521cd0daf35756b44fe413e9f340197933333086866000604051610f6696959493929190614554565b60405180910390a2505050565b610f8e83838360405180602001604052806000815250611dea565b505050565b60606000610fa1600861293c565b905060008060005b83811015611049573373ffffffffffffffffffffffffffffffffffffffff16600d6000600184610fd9919061433f565b815260200190815260200160002060020160009054906101000a900473ffffffffffffffffffffffffffffffffffffffff1673ffffffffffffffffffffffffffffffffffffffff160361103657600183611033919061433f565b92505b8080611041906143a2565b915050610fa9565b5060008267ffffffffffffffff81111561106657611065613e5a565b5b60405190808252806020026020018201604052801561109f57816020015b61108c613711565b8152602001906001900390816110845790505b50905060005b848110156112d4573373ffffffffffffffffffffffffffffffffffffffff16600d60006001846110d5919061433f565b815260200190815260200160002060020160009054906101000a900473ffffffffffffffffffffffffffffffffffffffff1673ffffffffffffffffffffffffffffffffffffffff16036112c1576000600182611131919061433f565b90506000600d60008381526020019081526020016000209050806040518060e0016040529081600082015481526020016001820160009054906101000a900473ffffffffffffffffffffffffffffffffffffffff1673ffffffffffffffffffffffffffffffffffffffff1673ffffffffffffffffffffffffffffffffffffffff1681526020016002820160009054906101000a900473ffffffffffffffffffffffffffffffffffffffff1673ffffffffffffffffffffffffffffffffffffffff1673ffffffffffffffffffffffffffffffffffffffff1681526020016003820160009054906101000a900473ffffffffffffffffffffffffffffffffffffffff1673ffffffffffffffffffffffffffffffffffffffff1673ffffffffffffffffffffffffffffffffffffffff16815260200160048201548152602001600582015481526020016006820160009054906101000a900460ff1615151515815250508486815181106112a4576112a3614373565b5b60200260200101819052506001856112bc919061433f565b945050505b80806112cc906143a2565b9150506110a5565b508094505050505090565b600073ffffffffffffffffffffffffffffffffffffffff16600d600084815260200190815260200160002060030160009054906101000a900473ffffffffffffffffffffffffffffffffffffffff1673ffffffffffffffffffffffffffffffffffffffff1603611384576040517f08c379a000000000000000000000000000000000000000000000000000000000815260040161137b90614627565b60405180910390fd5b3373ffffffffffffffffffffffffffffffffffffffff16600d600084815260200190815260200160002060020160009054906101000a900473ffffffffffffffffffffffffffffffffffffffff1673ffffffffffffffffffffffffffffffffffffffff1614611428576040517f08c379a000000000000000000000000000000000000000000000000000000000815260040161141f90614693565b60405180910390fd5b6000811161146b576040517f08c379a0000000000000000000000000000000000000000000000000000000008152600401611462906146ff565b60405180910390fd5b80600d6000848152602001908152602001600020600501819055505050565b60008061149683612cd8565b9050600073ffffffffffffffffffffffffffffffffffffffff168173ffffffffffffffffffffffffffffffffffffffff1603611507576040517f08c379a00000000000000000000000000000000000000000000000000000000081526004016114fe9061476b565b60405180910390fd5b80915050919050565b60008073ffffffffffffffffffffffffffffffffffffffff168273ffffffffffffffffffffffffffffffffffffffff1603611580576040517f08c379a0000000000000000000000000000000000000000000000000000000008152600401611577906147fd565b60405180910390fd5b600360008373ffffffffffffffffffffffffffffffffffffffff1673ffffffffffffffffffffffffffffffffffffffff168152602001908152602001600020549050919050565b3373ffffffffffffffffffffffffffffffffffffffff16600d600085815260200190815260200160002060030160009054906101000a900473ffffffffffffffffffffffffffffffffffffffff1673ffffffffffffffffffffffffffffffffffffffff1614806116845750600c60009054906101000a900473ffffffffffffffffffffffffffffffffffffffff1673ffffffffffffffffffffffffffffffffffffffff163373ffffffffffffffffffffffffffffffffffffffff16145b6116c3576040517f08c379a00000000000000000000000000000000000000000000000000000000081526004016116ba90614869565b60405180910390fd5b6000600d600085815260200190815260200160002060060160006101000a81548160ff02191690831515021790555081600d60008581526020019081526020016000206005018190555033600d600085815260200190815260200160002060020160006101000a81548173ffffffffffffffffffffffffffffffffffffffff021916908373ffffffffffffffffffffffffffffffffffffffff16021790555030600d600085815260200190815260200160002060030160006101000a81548173ffffffffffffffffffffffffffffffffffffffff021916908373ffffffffffffffffffffffffffffffffffffffff16021790555060006117c3600961293c565b11156117d4576117d36009612d15565b5b6117df8130856129df565b505050565b3073ffffffffffffffffffffffffffffffffffffffff166342842e0e3083856040518463ffffffff1660e01b815260040161182193929190614889565b600060405180830381600087803b15801561183b57600080fd5b505af115801561184f573d6000803e3d6000fd5b5050505080600d600084815260200190815260200160002060030160006101000a81548173ffffffffffffffffffffffffffffffffffffffff021916908373ffffffffffffffffffffffffffffffffffffffff1602179055506001600d600084815260200190815260200160002060060160006101000a81548160ff0219169083151502179055507f20665ee57a5e13af162123968d777ccebe86531a21e53d08afc78138a950192d82826040516119089291906148c0565b60405180910390a15050565b600080600d60008481526020019081526020016000206040518060e0016040529081600082015481526020016001820160009054906101000a900473ffffffffffffffffffffffffffffffffffffffff1673ffffffffffffffffffffffffffffffffffffffff1673ffffffffffffffffffffffffffffffffffffffff1681526020016002820160009054906101000a900473ffffffffffffffffffffffffffffffffffffffff1673ffffffffffffffffffffffffffffffffffffffff1673ffffffffffffffffffffffffffffffffffffffff1681526020016003820160009054906101000a900473ffffffffffffffffffffffffffffffffffffffff1673ffffffffffffffffffffffffffffffffffffffff1673ffffffffffffffffffffffffffffffffffffffff16815260200160048201548152602001600582015481526020016006820160009054906101000a900460ff16151515158152505090508060a00151915050919050565b606060018054611a8e90614187565b80601f0160208091040260200160405190810160405280929190818152602001828054611aba90614187565b8015611b075780601f10611adc57610100808354040283529160200191611b07565b820191906000526020600020905b815481529060010190602001808311611aea57829003601f168201915b5050505050905090565b60008290508073ffffffffffffffffffffffffffffffffffffffff1663b9a2de3a836040518263ffffffff1660e01b8152600401611b4f9190613cfe565b600060405180830381600087803b158015611b6957600080fd5b505af1158015611b7d573d6000803e3d6000fd5b50505050505050565b611b98611b9161287b565b8383612d71565b5050565b6000806000600d60008581526020019081526020016000206040518060e0016040529081600082015481526020016001820160009054906101000a900473ffffffffffffffffffffffffffffffffffffffff1673ffffffffffffffffffffffffffffffffffffffff1673ffffffffffffffffffffffffffffffffffffffff1681526020016002820160009054906101000a900473ffffffffffffffffffffffffffffffffffffffff1673ffffffffffffffffffffffffffffffffffffffff1673ffffffffffffffffffffffffffffffffffffffff1681526020016003820160009054906101000a900473ffffffffffffffffffffffffffffffffffffffff1673ffffffffffffffffffffffffffffffffffffffff1673ffffffffffffffffffffffffffffffffffffffff16815260200160048201548152602001600582015481526020016006820160009054906101000a900460ff1615151515815250509050806080015181602001519250925050915091565b6000600d600083815260200190815260200160002060020160009054906101000a900473ffffffffffffffffffffffffffffffffffffffff169050919050565b600b60009054906101000a900473ffffffffffffffffffffffffffffffffffffffff1673ffffffffffffffffffffffffffffffffffffffff163373ffffffffffffffffffffffffffffffffffffffff1614611de0576040517f08c379a0000000000000000000000000000000000000000000000000000000008152600401611dd79061495b565b60405180910390fd5b80600a8190555050565b611dfb611df561287b565b8361294a565b611e3a576040517f08c379a0000000000000000000000000000000000000000000000000000000008152600401611e319061445c565b60405180910390fd5b611e4684848484612edd565b50505050565b6000600d6000838152602001908152602001600020600501549050803414611ea9576040517f08c379a0000000000000000000000000000000000000000000000000000000008152600401611ea0906149ed565b60405180910390fd5b600d600083815260200190815260200160002060020160009054906101000a900473ffffffffffffffffffffffffffffffffffffffff1673ffffffffffffffffffffffffffffffffffffffff163373ffffffffffffffffffffffffffffffffffffffff1603611f4d576040517f08c379a0000000000000000000000000000000000000000000000000000000008152600401611f4490614a7f565b60405180910390fd5b33600d600084815260200190815260200160002060030160006101000a81548173ffffffffffffffffffffffffffffffffffffffff021916908373ffffffffffffffffffffffffffffffffffffffff1602179055506001600d600084815260200190815260200160002060060160006101000a81548160ff021916908315150217905550611fdb6009612f39565b611fe63033846129df565b600b60009054906101000a900473ffffffffffffffffffffffffffffffffffffffff1673ffffffffffffffffffffffffffffffffffffffff166108fc600a549081150290604051600060405180830381858888f19350505050158015612050573d6000803e3d6000fd5b50600d600083815260200190815260200160002060020160009054906101000a900473ffffffffffffffffffffffffffffffffffffffff1673ffffffffffffffffffffffffffffffffffffffff166108fc349081150290604051600060405180830381858888f193505050501580156120cd573d6000803e3d6000fd5b505050565b60006120de6008612f39565b60006120ea600861293c565b90506120f63382612f4f565b612100818661316c565b61210b818585610cf8565b809150509392505050565b60606000612124600861293c565b905060008060005b838110156121cc573373ffffffffffffffffffffffffffffffffffffffff16600d600060018461215c919061433f565b815260200190815260200160002060030160009054906101000a900473ffffffffffffffffffffffffffffffffffffffff1673ffffffffffffffffffffffffffffffffffffffff16036121b9576001836121b6919061433f565b92505b80806121c4906143a2565b91505061212c565b5060008267ffffffffffffffff8111156121e9576121e8613e5a565b5b60405190808252806020026020018201604052801561222257816020015b61220f613711565b8152602001906001900390816122075790505b50905060005b84811015612457573373ffffffffffffffffffffffffffffffffffffffff16600d6000600184612258919061433f565b815260200190815260200160002060030160009054906101000a900473ffffffffffffffffffffffffffffffffffffffff1673ffffffffffffffffffffffffffffffffffffffff16036124445760006001826122b4919061433f565b90506000600d60008381526020019081526020016000209050806040518060e0016040529081600082015481526020016001820160009054906101000a900473ffffffffffffffffffffffffffffffffffffffff1673ffffffffffffffffffffffffffffffffffffffff1673ffffffffffffffffffffffffffffffffffffffff1681526020016002820160009054906101000a900473ffffffffffffffffffffffffffffffffffffffff1673ffffffffffffffffffffffffffffffffffffffff1673ffffffffffffffffffffffffffffffffffffffff1681526020016003820160009054906101000a900473ffffffffffffffffffffffffffffffffffffffff1673ffffffffffffffffffffffffffffffffffffffff1673ffffffffffffffffffffffffffffffffffffffff16815260200160048201548152602001600582015481526020016006820160009054906101000a900460ff16151515158152505084868151811061242757612426614373565b5b602002602001018190525060018561243f919061433f565b945050505b808061244f906143a2565b915050612228565b508094505050505090565b600d600082815260200190815260200160002060020160009054906101000a900473ffffffffffffffffffffffffffffffffffffffff1673ffffffffffffffffffffffffffffffffffffffff163373ffffffffffffffffffffffffffffffffffffffff1614612506576040517f08c379a00000000000000000000000000000000000000000000000000000000081526004016124fd90614aeb565b60405180910390fd5b6125113033836129df565b33600d600083815260200190815260200160002060030160006101000a81548173ffffffffffffffffffffffffffffffffffffffff021916908373ffffffffffffffffffffffffffffffffffffffff1602179055506001600d600083815260200190815260200160002060060160006101000a81548160ff02191690831515021790555061259f6009612f39565b50565b600a5481565b60606125b382612830565b60006006600084815260200190815260200160002080546125d390614187565b80601f01602080910402602001604051908101604052809291908181526020018280546125ff90614187565b801561264c5780601f106126215761010080835404028352916020019161264c565b820191906000526020600020905b81548152906001019060200180831161262f57829003601f168201915b50505050509050600061265d613210565b905060008151036126725781925050506126b5565b6000825111156126a757808260405160200161268f929190614b47565b604051602081830303815290604052925050506126b5565b6126b084613227565b925050505b919050565b6000600560008473ffffffffffffffffffffffffffffffffffffffff1673ffffffffffffffffffffffffffffffffffffffff16815260200190815260200160002060008373ffffffffffffffffffffffffffffffffffffffff1673ffffffffffffffffffffffffffffffffffffffff16815260200190815260200160002060009054906101000a900460ff16905092915050565b60007f80ac58cd000000000000000000000000000000000000000000000000000000007bffffffffffffffffffffffffffffffffffffffffffffffffffffffff1916827bffffffffffffffffffffffffffffffffffffffffffffffffffffffff1916148061281957507f5b5e139f000000000000000000000000000000000000000000000000000000007bffffffffffffffffffffffffffffffffffffffffffffffffffffffff1916827bffffffffffffffffffffffffffffffffffffffffffffffffffffffff1916145b8061282957506128288261328f565b5b9050919050565b612839816132f9565b612878576040517f08c379a000000000000000000000000000000000000000000000000000000000815260040161286f9061476b565b60405180910390fd5b50565b600033905090565b816004600083815260200190815260200160002060006101000a81548173ffffffffffffffffffffffffffffffffffffffff021916908373ffffffffffffffffffffffffffffffffffffffff160217905550808273ffffffffffffffffffffffffffffffffffffffff166128f68361148a565b73ffffffffffffffffffffffffffffffffffffffff167f8c5be1e5ebec7d5bd14f71427d1e84f3dd0314c0f7b2291e5b200ac8c7c3b92560405160405180910390a45050565b600081600001549050919050565b6000806129568361148a565b90508073ffffffffffffffffffffffffffffffffffffffff168473ffffffffffffffffffffffffffffffffffffffff161480612998575061299781856126ba565b5b806129d657508373ffffffffffffffffffffffffffffffffffffffff166129be8461082f565b73ffffffffffffffffffffffffffffffffffffffff16145b91505092915050565b8273ffffffffffffffffffffffffffffffffffffffff166129ff8261148a565b73ffffffffffffffffffffffffffffffffffffffff1614612a55576040517f08c379a0000000000000000000000000000000000000000000000000000000008152600401612a4c90614bdd565b60405180910390fd5b600073ffffffffffffffffffffffffffffffffffffffff168273ffffffffffffffffffffffffffffffffffffffff1603612ac4576040517f08c379a0000000000000000000000000000000000000000000000000000000008152600401612abb90614c6f565b60405180910390fd5b612ad1838383600161333a565b8273ffffffffffffffffffffffffffffffffffffffff16612af18261148a565b73ffffffffffffffffffffffffffffffffffffffff1614612b47576040517f08c379a0000000000000000000000000000000000000000000000000000000008152600401612b3e90614bdd565b60405180910390fd5b6004600082815260200190815260200160002060006101000a81549073ffffffffffffffffffffffffffffffffffffffff02191690556001600360008573ffffffffffffffffffffffffffffffffffffffff1673ffffffffffffffffffffffffffffffffffffffff168152602001908152602001600020600082825403925050819055506001600360008473ffffffffffffffffffffffffffffffffffffffff1673ffffffffffffffffffffffffffffffffffffffff16815260200190815260200160002060008282540192505081905550816002600083815260200190815260200160002060006101000a81548173ffffffffffffffffffffffffffffffffffffffff021916908373ffffffffffffffffffffffffffffffffffffffff160217905550808273ffffffffffffffffffffffffffffffffffffffff168473ffffffffffffffffffffffffffffffffffffffff167fddf252ad1be2c89b69c2b068fc378daa952ba7f163c4a11628f55a4df523b3ef60405160405180910390a4612cd38383836001613340565b505050565b60006002600083815260200190815260200160002060009054906101000a900473ffffffffffffffffffffffffffffffffffffffff169050919050565b60008160000154905060008111612d61576040517f08c379a0000000000000000000000000000000000000000000000000000000008152600401612d5890614cdb565b60405180910390fd5b6001810382600001819055505050565b8173ffffffffffffffffffffffffffffffffffffffff168373ffffffffffffffffffffffffffffffffffffffff1603612ddf576040517f08c379a0000000000000000000000000000000000000000000000000000000008152600401612dd690614d47565b60405180910390fd5b80600560008573ffffffffffffffffffffffffffffffffffffffff1673ffffffffffffffffffffffffffffffffffffffff16815260200190815260200160002060008473ffffffffffffffffffffffffffffffffffffffff1673ffffffffffffffffffffffffffffffffffffffff16815260200190815260200160002060006101000a81548160ff0219169083151502179055508173ffffffffffffffffffffffffffffffffffffffff168373ffffffffffffffffffffffffffffffffffffffff167f17307eab39ab6107e8899845ad3d59bd9653f200f220920489ca2b5937696c3183604051612ed09190613846565b60405180910390a3505050565b612ee88484846129df565b612ef484848484613346565b612f33576040517f08c379a0000000000000000000000000000000000000000000000000000000008152600401612f2a90614dd9565b60405180910390fd5b50505050565b6001816000016000828254019250508190555050565b600073ffffffffffffffffffffffffffffffffffffffff168273ffffffffffffffffffffffffffffffffffffffff1603612fbe576040517f08c379a0000000000000000000000000000000000000000000000000000000008152600401612fb590614e45565b60405180910390fd5b612fc7816132f9565b15613007576040517f08c379a0000000000000000000000000000000000000000000000000000000008152600401612ffe90614eb1565b60405180910390fd5b61301560008383600161333a565b61301e816132f9565b1561305e576040517f08c379a000000000000000000000000000000000000000000000000000000000815260040161305590614eb1565b60405180910390fd5b6001600360008473ffffffffffffffffffffffffffffffffffffffff1673ffffffffffffffffffffffffffffffffffffffff16815260200190815260200160002060008282540192505081905550816002600083815260200190815260200160002060006101000a81548173ffffffffffffffffffffffffffffffffffffffff021916908373ffffffffffffffffffffffffffffffffffffffff160217905550808273ffffffffffffffffffffffffffffffffffffffff16600073ffffffffffffffffffffffffffffffffffffffff167fddf252ad1be2c89b69c2b068fc378daa952ba7f163c4a11628f55a4df523b3ef60405160405180910390a4613168600083836001613340565b5050565b613175826132f9565b6131b4576040517f08c379a00000000000000000000000000000000000000000000000000000000081526004016131ab90614f43565b60405180910390fd5b806006600084815260200190815260200160002090816131d4919061510f565b507ff8e1a15aba9398e019f0b49df1a4fde98ee17ae345cb5f6b5e2c27f5033e8ce7826040516132049190613cfe565b60405180910390a15050565b606060405180602001604052806000815250905090565b606061323282612830565b600061323c613210565b9050600081511161325c5760405180602001604052806000815250613287565b80613266846134cd565b604051602001613277929190614b47565b6040516020818303038152906040525b915050919050565b60007f01ffc9a7000000000000000000000000000000000000000000000000000000007bffffffffffffffffffffffffffffffffffffffffffffffffffffffff1916827bffffffffffffffffffffffffffffffffffffffffffffffffffffffff1916149050919050565b60008073ffffffffffffffffffffffffffffffffffffffff1661331b83612cd8565b73ffffffffffffffffffffffffffffffffffffffff1614159050919050565b50505050565b50505050565b60006133678473ffffffffffffffffffffffffffffffffffffffff1661359b565b156134c0578373ffffffffffffffffffffffffffffffffffffffff1663150b7a0261339061287b565b8786866040518563ffffffff1660e01b81526004016133b29493929190615236565b6020604051808303816000875af19250505080156133ee57506040513d601f19601f820116820180604052508101906133eb9190615297565b60015b613470573d806000811461341e576040519150601f19603f3d011682016040523d82523d6000602084013e613423565b606091505b506000815103613468576040517f08c379a000000000000000000000000000000000000000000000000000000000815260040161345f90614dd9565b60405180910390fd5b805181602001fd5b63150b7a0260e01b7bffffffffffffffffffffffffffffffffffffffffffffffffffffffff1916817bffffffffffffffffffffffffffffffffffffffffffffffffffffffff1916149150506134c5565b600190505b949350505050565b6060600060016134dc846135be565b01905060008167ffffffffffffffff8111156134fb576134fa613e5a565b5b6040519080825280601f01601f19166020018201604052801561352d5781602001600182028036833780820191505090505b509050600082602001820190505b600115613590578080600190039150507f3031323334353637383961626364656600000000000000000000000000000000600a86061a8153600a8581613584576135836152c4565b5b0494506000850361353b575b819350505050919050565b6000808273ffffffffffffffffffffffffffffffffffffffff163b119050919050565b600080600090507a184f03e93ff9f4daa797ed6e38ed64bf6a1f010000000000000000831061361c577a184f03e93ff9f4daa797ed6e38ed64bf6a1f0100000000000000008381613612576136116152c4565b5b0492506040810190505b6d04ee2d6d415b85acef81000000008310613659576d04ee2d6d415b85acef8100000000838161364f5761364e6152c4565b5b0492506020810190505b662386f26fc10000831061368857662386f26fc10000838161367e5761367d6152c4565b5b0492506010810190505b6305f5e10083106136b1576305f5e10083816136a7576136a66152c4565b5b0492506008810190505b61271083106136d65761271083816136cc576136cb6152c4565b5b0492506004810190505b606483106136f957606483816136ef576136ee6152c4565b5b0492506002810190505b600a8310613708576001810190505b80915050919050565b6040518060e0016040528060008152602001600073ffffffffffffffffffffffffffffffffffffffff168152602001600073ffffffffffffffffffffffffffffffffffffffff168152602001600073ffffffffffffffffffffffffffffffffffffffff16815260200160008152602001600081526020016000151581525090565b6000604051905090565b600080fd5b600080fd5b60007fffffffff0000000000000000000000000000000000000000000000000000000082169050919050565b6137db816137a6565b81146137e657600080fd5b50565b6000813590506137f8816137d2565b92915050565b6000602082840312156138145761381361379c565b5b6000613822848285016137e9565b91505092915050565b60008115159050919050565b6138408161382b565b82525050565b600060208201905061385b6000830184613837565b92915050565b600081519050919050565b600082825260208201905092915050565b60005b8381101561389b578082015181840152602081019050613880565b60008484015250505050565b6000601f19601f8301169050919050565b60006138c382613861565b6138cd818561386c565b93506138dd81856020860161387d565b6138e6816138a7565b840191505092915050565b6000602082019050818103600083015261390b81846138b8565b905092915050565b6000819050919050565b61392681613913565b811461393157600080fd5b50565b6000813590506139438161391d565b92915050565b60006020828403121561395f5761395e61379c565b5b600061396d84828501613934565b91505092915050565b600073ffffffffffffffffffffffffffffffffffffffff82169050919050565b60006139a182613976565b9050919050565b6139b181613996565b82525050565b60006020820190506139cc60008301846139a8565b92915050565b6139db81613996565b81146139e657600080fd5b50565b6000813590506139f8816139d2565b92915050565b60008060408385031215613a1557613a1461379c565b5b6000613a23858286016139e9565b9250506020613a3485828601613934565b9150509250929050565b600081519050919050565b600082825260208201905092915050565b6000819050602082019050919050565b613a7381613913565b82525050565b6000613a8482613976565b9050919050565b613a9481613a79565b82525050565b613aa38161382b565b82525050565b60e082016000820151613abf6000850182613a6a565b506020820151613ad26020850182613a8b565b506040820151613ae56040850182613a8b565b506060820151613af86060850182613a8b565b506080820151613b0b6080850182613a6a565b5060a0820151613b1e60a0850182613a6a565b5060c0820151613b3160c0850182613a9a565b50505050565b6000613b438383613aa9565b60e08301905092915050565b6000602082019050919050565b6000613b6782613a3e565b613b718185613a49565b9350613b7c83613a5a565b8060005b83811015613bad578151613b948882613b37565b9750613b9f83613b4f565b925050600181019050613b80565b5085935050505092915050565b60006020820190508181036000830152613bd48184613b5c565b905092915050565b600060208284031215613bf257613bf161379c565b5b6000613c00848285016139e9565b91505092915050565b600080600060608486031215613c2257613c2161379c565b5b6000613c30868287016139e9565b9350506020613c41868287016139e9565b9250506040613c5286828701613934565b9150509250925092565b600080600060608486031215613c7557613c7461379c565b5b6000613c8386828701613934565b9350506020613c9486828701613934565b9250506040613ca586828701613934565b9150509250925092565b60008060408385031215613cc657613cc561379c565b5b6000613cd485828601613934565b9250506020613ce585828601613934565b9150509250929050565b613cf881613913565b82525050565b6000602082019050613d136000830184613cef565b92915050565b600080600060608486031215613d3257613d3161379c565b5b6000613d4086828701613934565b9350506020613d5186828701613934565b9250506040613d62868287016139e9565b9150509250925092565b60008060408385031215613d8357613d8261379c565b5b6000613d9185828601613934565b9250506020613da2858286016139e9565b9150509250929050565b613db58161382b565b8114613dc057600080fd5b50565b600081359050613dd281613dac565b92915050565b60008060408385031215613def57613dee61379c565b5b6000613dfd858286016139e9565b9250506020613e0e85828601613dc3565b9150509250929050565b613e2181613a79565b82525050565b6000604082019050613e3c6000830185613cef565b613e496020830184613e18565b9392505050565b600080fd5b600080fd5b7f4e487b7100000000000000000000000000000000000000000000000000000000600052604160045260246000fd5b613e92826138a7565b810181811067ffffffffffffffff82111715613eb157613eb0613e5a565b5b80604052505050565b6000613ec4613792565b9050613ed08282613e89565b919050565b600067ffffffffffffffff821115613ef057613eef613e5a565b5b613ef9826138a7565b9050602081019050919050565b82818337600083830152505050565b6000613f28613f2384613ed5565b613eba565b905082815260208101848484011115613f4457613f43613e55565b5b613f4f848285613f06565b509392505050565b600082601f830112613f6c57613f6b613e50565b5b8135613f7c848260208601613f15565b91505092915050565b60008060008060808587031215613f9f57613f9e61379c565b5b6000613fad878288016139e9565b9450506020613fbe878288016139e9565b9350506040613fcf87828801613934565b925050606085013567ffffffffffffffff811115613ff057613fef6137a1565b5b613ffc87828801613f57565b91505092959194509250565b600067ffffffffffffffff82111561402357614022613e5a565b5b61402c826138a7565b9050602081019050919050565b600061404c61404784614008565b613eba565b90508281526020810184848401111561406857614067613e55565b5b614073848285613f06565b509392505050565b600082601f8301126140905761408f613e50565b5b81356140a0848260208601614039565b91505092915050565b6000806000606084860312156140c2576140c161379c565b5b600084013567ffffffffffffffff8111156140e0576140df6137a1565b5b6140ec8682870161407b565b93505060206140fd86828701613934565b925050604061410e86828701613934565b9150509250925092565b6000806040838503121561412f5761412e61379c565b5b600061413d858286016139e9565b925050602061414e858286016139e9565b9150509250929050565b7f4e487b7100000000000000000000000000000000000000000000000000000000600052602260045260246000fd5b6000600282049050600182168061419f57607f821691505b6020821081036141b2576141b1614158565b5b50919050565b7f4552433732313a20617070726f76616c20746f2063757272656e74206f776e6560008201527f7200000000000000000000000000000000000000000000000000000000000000602082015250565b600061421460218361386c565b915061421f826141b8565b604082019050919050565b6000602082019050818103600083015261424381614207565b9050919050565b7f4552433732313a20617070726f76652063616c6c6572206973206e6f7420746f60008201527f6b656e206f776e6572206f7220617070726f76656420666f7220616c6c000000602082015250565b60006142a6603d8361386c565b91506142b18261424a565b604082019050919050565b600060208201905081810360008301526142d581614299565b9050919050565b7f4e487b7100000000000000000000000000000000000000000000000000000000600052601160045260246000fd5b600061431682613913565b915061432183613913565b9250828203905081811115614339576143386142dc565b5b92915050565b600061434a82613913565b915061435583613913565b925082820190508082111561436d5761436c6142dc565b5b92915050565b7f4e487b7100000000000000000000000000000000000000000000000000000000600052603260045260246000fd5b60006143ad82613913565b91507fffffffffffffffffffffffffffffffffffffffffffffffffffffffffffffffff82036143df576143de6142dc565b5b600182019050919050565b7f4552433732313a2063616c6c6572206973206e6f7420746f6b656e206f776e6560008201527f72206f7220617070726f76656400000000000000000000000000000000000000602082015250565b6000614446602d8361386c565b9150614451826143ea565b604082019050919050565b6000602082019050818103600083015261447581614439565b9050919050565b7f5072696365206d757374206265206174206c6561737420312077656900000000600082015250565b60006144b2601c8361386c565b91506144bd8261447c565b602082019050919050565b600060208201905081810360008301526144e1816144a5565b9050919050565b7f5072696365206d757374206265207061696420696e2066756c6c000000000000600082015250565b600061451e601a8361386c565b9150614529826144e8565b602082019050919050565b6000602082019050818103600083015261454d81614511565b9050919050565b600060c08201905061456960008301896139a8565b61457660208301886139a8565b61458360408301876139a8565b6145906060830186613cef565b61459d6080830185613cef565b6145aa60a0830184613837565b979650505050505050565b7f4e465420646f6573206e6f7420657869737420696e206d61726b6574706c616360008201527f6500000000000000000000000000000000000000000000000000000000000000602082015250565b600061461160218361386c565b915061461c826145b5565b604082019050919050565b6000602082019050818103600083015261464081614604565b9050919050565b7f43616c6c6572206973206e6f7420746865206f776e6572000000000000000000600082015250565b600061467d60178361386c565b915061468882614647565b602082019050919050565b600060208201905081810360008301526146ac81614670565b9050919050565b7f5072696365206d7573742062652067726561746572207468616e207a65726f00600082015250565b60006146e9601f8361386c565b91506146f4826146b3565b602082019050919050565b60006020820190508181036000830152614718816146dc565b9050919050565b7f4552433732313a20696e76616c696420746f6b656e2049440000000000000000600082015250565b600061475560188361386c565b91506147608261471f565b602082019050919050565b6000602082019050818103600083015261478481614748565b9050919050565b7f4552433732313a2061646472657373207a65726f206973206e6f74206120766160008201527f6c6964206f776e65720000000000000000000000000000000000000000000000602082015250565b60006147e760298361386c565b91506147f28261478b565b604082019050919050565b60006020820190508181036000830152614816816147da565b9050919050565b7f4f6e6c79206f776e65722063616e2072656c697374204e465400000000000000600082015250565b600061485360198361386c565b915061485e8261481d565b602082019050919050565b6000602082019050818103600083015261488281614846565b9050919050565b600060608201905061489e60008301866139a8565b6148ab60208301856139a8565b6148b86040830184613cef565b949350505050565b60006040820190506148d56000830185613cef565b6148e260208301846139a8565b9392505050565b7f6f6e6c79206f776e6572206f662074686520636f6e74726163742063616e207560008201527f706461746520746865206c697374696e67207072696365000000000000000000602082015250565b600061494560378361386c565b9150614950826148e9565b604082019050919050565b6000602082019050818103600083015261497481614938565b9050919050565b7f506c65617365207375626d6974207468652061736b696e67207072696365206960008201527f6e206f7264657220746f20636f6d706c65746520746865207075726368617365602082015250565b60006149d760408361386c565b91506149e28261497b565b604082019050919050565b60006020820190508181036000830152614a06816149ca565b9050919050565b7f557365722063616e6e6f74207075726368617365207468656972206f776e204e60008201527f4654000000000000000000000000000000000000000000000000000000000000602082015250565b6000614a6960228361386c565b9150614a7482614a0d565b604082019050919050565b60006020820190508181036000830152614a9881614a5c565b9050919050565b7f4f6e6c7920746f6b656e2073656c6c65722063616e2064656c69737400000000600082015250565b6000614ad5601c8361386c565b9150614ae082614a9f565b602082019050919050565b60006020820190508181036000830152614b0481614ac8565b9050919050565b600081905092915050565b6000614b2182613861565b614b2b8185614b0b565b9350614b3b81856020860161387d565b80840191505092915050565b6000614b538285614b16565b9150614b5f8284614b16565b91508190509392505050565b7f4552433732313a207472616e736665722066726f6d20696e636f72726563742060008201527f6f776e6572000000000000000000000000000000000000000000000000000000602082015250565b6000614bc760258361386c565b9150614bd282614b6b565b604082019050919050565b60006020820190508181036000830152614bf681614bba565b9050919050565b7f4552433732313a207472616e7366657220746f20746865207a65726f2061646460008201527f7265737300000000000000000000000000000000000000000000000000000000602082015250565b6000614c5960248361386c565b9150614c6482614bfd565b604082019050919050565b60006020820190508181036000830152614c8881614c4c565b9050919050565b7f436f756e7465723a2064656372656d656e74206f766572666c6f770000000000600082015250565b6000614cc5601b8361386c565b9150614cd082614c8f565b602082019050919050565b60006020820190508181036000830152614cf481614cb8565b9050919050565b7f4552433732313a20617070726f766520746f2063616c6c657200000000000000600082015250565b6000614d3160198361386c565b9150614d3c82614cfb565b602082019050919050565b60006020820190508181036000830152614d6081614d24565b9050919050565b7f4552433732313a207472616e7366657220746f206e6f6e20455243373231526560008201527f63656976657220696d706c656d656e7465720000000000000000000000000000602082015250565b6000614dc360328361386c565b9150614dce82614d67565b604082019050919050565b60006020820190508181036000830152614df281614db6565b9050919050565b7f4552433732313a206d696e7420746f20746865207a65726f2061646472657373600082015250565b6000614e2f60208361386c565b9150614e3a82614df9565b602082019050919050565b60006020820190508181036000830152614e5e81614e22565b9050919050565b7f4552433732313a20746f6b656e20616c7265616479206d696e74656400000000600082015250565b6000614e9b601c8361386c565b9150614ea682614e65565b602082019050919050565b60006020820190508181036000830152614eca81614e8e565b9050919050565b7f45524337323155524953746f726167653a2055524920736574206f66206e6f6e60008201527f6578697374656e7420746f6b656e000000000000000000000000000000000000602082015250565b6000614f2d602e8361386c565b9150614f3882614ed1565b604082019050919050565b60006020820190508181036000830152614f5c81614f20565b9050919050565b60008190508160005260206000209050919050565b60006020601f8301049050919050565b600082821b905092915050565b600060088302614fc57fffffffffffffffffffffffffffffffffffffffffffffffffffffffffffffffff82614f88565b614fcf8683614f88565b95508019841693508086168417925050509392505050565b6000819050919050565b600061500c61500761500284613913565b614fe7565b613913565b9050919050565b6000819050919050565b61502683614ff1565b61503a61503282615013565b848454614f95565b825550505050565b600090565b61504f615042565b61505a81848461501d565b505050565b5b8181101561507e57615073600082615047565b600181019050615060565b5050565b601f8211156150c35761509481614f63565b61509d84614f78565b810160208510156150ac578190505b6150c06150b885614f78565b83018261505f565b50505b505050565b600082821c905092915050565b60006150e6600019846008026150c8565b1980831691505092915050565b60006150ff83836150d5565b9150826002028217905092915050565b61511882613861565b67ffffffffffffffff81111561513157615130613e5a565b5b61513b8254614187565b615146828285615082565b600060209050601f8311600181146151795760008415615167578287015190505b61517185826150f3565b8655506151d9565b601f19841661518786614f63565b60005b828110156151af5784890151825560018201915060208501945060208101905061518a565b868310156151cc57848901516151c8601f8916826150d5565b8355505b6001600288020188555050505b505050505050565b600081519050919050565b600082825260208201905092915050565b6000615208826151e1565b61521281856151ec565b935061522281856020860161387d565b61522b816138a7565b840191505092915050565b600060808201905061524b60008301876139a8565b61525860208301866139a8565b6152656040830185613cef565b818103606083015261527781846151fd565b905095945050505050565b600081519050615291816137d2565b92915050565b6000602082840312156152ad576152ac61379c565b5b60006152bb84828501615282565b91505092915050565b7f4e487b7100000000000000000000000000000000000000000000000000000000600052601260045260246000fdfea26469706673582212208706351525b2249acb53ac0efe163b513332ffc854e6356efb24b3008270a8ce64736f6c63430008130033",
  "linkReferences": {},
  "deployedLinkReferences": {}
}