{
  "_format": "hh-sol-artifact-1",
  "contractName": "Marketplace",
  "sourceName": "contracts/Marketplace.sol",
  "abi": [
    {
      "inputs": [],
      "stateMutability": "nonpayable",
      "type": "constructor"
    },
    {
      "anonymous": false,
      "inputs": [
        {
          "indexed": true,
          "internalType": "address",
          "name": "owner",
          "type": "address"
        },
        {
          "indexed": true,
          "internalType": "address",
          "name": "approved",
          "type": "address"
        },
        {
          "indexed": true,
          "internalType": "uint256",
          "name": "tokenId",
          "type": "uint256"
        }
      ],
      "name": "Approval",
      "type": "event"
    },
    {
      "anonymous": false,
      "inputs": [
        {
          "indexed": true,
          "internalType": "address",
          "name": "owner",
          "type": "address"
        },
        {
          "indexed": true,
          "internalType": "address",
          "name": "operator",
          "type": "address"
        },
        {
          "indexed": false,
          "internalType": "bool",
          "name": "approved",
          "type": "bool"
        }
      ],
      "name": "ApprovalForAll",
      "type": "event"
    },
    {
      "anonymous": false,
      "inputs": [
        {
          "indexed": false,
          "internalType": "uint256",
          "name": "_fromTokenId",
          "type": "uint256"
        },
        {
          "indexed": false,
          "internalType": "uint256",
          "name": "_toTokenId",
          "type": "uint256"
        }
      ],
      "name": "BatchMetadataUpdate",
      "type": "event"
    },
    {
      "anonymous": false,
      "inputs": [
        {
          "indexed": false,
          "internalType": "uint256",
          "name": "amount",
          "type": "uint256"
        },
        {
          "indexed": false,
          "internalType": "address",
          "name": "targetWallet",
          "type": "address"
        }
      ],
      "name": "FundsWithdrawn",
      "type": "event"
    },
    {
      "anonymous": false,
      "inputs": [
        {
          "indexed": true,
          "internalType": "uint256",
          "name": "tokenId",
          "type": "uint256"
        },
        {
          "indexed": false,
          "internalType": "address",
          "name": "originalOwner",
          "type": "address"
        },
        {
          "indexed": false,
          "internalType": "address",
          "name": "seller",
          "type": "address"
        },
        {
          "indexed": false,
          "internalType": "address",
          "name": "owner",
          "type": "address"
        },
        {
          "indexed": false,
          "internalType": "uint256",
          "name": "royaltyPercentage",
          "type": "uint256"
        },
        {
          "indexed": false,
          "internalType": "uint256",
          "name": "price",
          "type": "uint256"
        },
        {
          "indexed": false,
          "internalType": "bool",
          "name": "auction",
          "type": "bool"
        },
        {
          "indexed": false,
          "internalType": "bool",
          "name": "sold",
          "type": "bool"
        }
      ],
      "name": "MarketItemCreated",
      "type": "event"
    },
    {
      "anonymous": false,
      "inputs": [
        {
          "indexed": false,
          "internalType": "uint256",
          "name": "_tokenId",
          "type": "uint256"
        }
      ],
      "name": "MetadataUpdate",
      "type": "event"
    },
    {
      "anonymous": false,
      "inputs": [
        {
          "indexed": false,
          "internalType": "uint256",
          "name": "nftId",
          "type": "uint256"
        },
        {
          "indexed": false,
          "internalType": "address",
          "name": "auctionWinner",
          "type": "address"
        }
      ],
      "name": "NFTTransferred",
      "type": "event"
    },
    {
      "anonymous": false,
      "inputs": [
        {
          "indexed": true,
          "internalType": "address",
          "name": "from",
          "type": "address"
        },
        {
          "indexed": true,
          "internalType": "address",
          "name": "to",
          "type": "address"
        },
        {
          "indexed": true,
          "internalType": "uint256",
          "name": "tokenId",
          "type": "uint256"
        }
      ],
      "name": "Transfer",
      "type": "event"
    },
    {
      "inputs": [
        {
          "internalType": "address",
          "name": "to",
          "type": "address"
        },
        {
          "internalType": "uint256",
          "name": "tokenId",
          "type": "uint256"
        }
      ],
      "name": "approve",
      "outputs": [],
      "stateMutability": "nonpayable",
      "type": "function"
    },
    {
      "inputs": [
        {
          "internalType": "address",
          "name": "owner",
          "type": "address"
        }
      ],
      "name": "balanceOf",
      "outputs": [
        {
          "internalType": "uint256",
          "name": "",
          "type": "uint256"
        }
      ],
      "stateMutability": "view",
      "type": "function"
    },
    {
      "inputs": [
        {
          "internalType": "uint256",
          "name": "tokenId",
          "type": "uint256"
        },
        {
          "internalType": "uint256",
          "name": "royaltyPercentage",
          "type": "uint256"
        },
        {
          "internalType": "uint256",
          "name": "price",
          "type": "uint256"
        }
      ],
      "name": "createMarketItem",
      "outputs": [],
      "stateMutability": "payable",
      "type": "function"
    },
    {
      "inputs": [
        {
          "internalType": "uint256",
          "name": "tokenId",
          "type": "uint256"
        }
      ],
      "name": "createMarketSale",
      "outputs": [],
      "stateMutability": "payable",
      "type": "function"
    },
    {
      "inputs": [
        {
          "internalType": "string",
          "name": "tokenURI",
          "type": "string"
        },
        {
          "internalType": "uint256",
          "name": "royaltyPercentage",
          "type": "uint256"
        },
        {
          "internalType": "uint256",
          "name": "price",
          "type": "uint256"
        }
      ],
      "name": "createToken",
      "outputs": [
        {
          "internalType": "uint256",
          "name": "",
          "type": "uint256"
        }
      ],
      "stateMutability": "payable",
      "type": "function"
    },
    {
      "inputs": [],
      "name": "fetchItemsListed",
      "outputs": [
        {
          "components": [
            {
              "internalType": "uint256",
              "name": "tokenId",
              "type": "uint256"
            },
            {
              "internalType": "address payable",
              "name": "originalOwner",
              "type": "address"
            },
            {
              "internalType": "address payable",
              "name": "seller",
              "type": "address"
            },
            {
              "internalType": "address payable",
              "name": "owner",
              "type": "address"
            },
            {
              "internalType": "uint256",
              "name": "royaltyPercentage",
              "type": "uint256"
            },
            {
              "internalType": "uint256",
              "name": "price",
              "type": "uint256"
            },
            {
              "internalType": "bool",
              "name": "auction",
              "type": "bool"
            },
            {
              "internalType": "bool",
              "name": "sold",
              "type": "bool"
            }
          ],
          "internalType": "struct Marketplace.MarketItem[]",
          "name": "",
          "type": "tuple[]"
        }
      ],
      "stateMutability": "view",
      "type": "function"
    },
    {
      "inputs": [],
      "name": "fetchMarketItems",
      "outputs": [
        {
          "components": [
            {
              "internalType": "uint256",
              "name": "tokenId",
              "type": "uint256"
            },
            {
              "internalType": "address payable",
              "name": "originalOwner",
              "type": "address"
            },
            {
              "internalType": "address payable",
              "name": "seller",
              "type": "address"
            },
            {
              "internalType": "address payable",
              "name": "owner",
              "type": "address"
            },
            {
              "internalType": "uint256",
              "name": "royaltyPercentage",
              "type": "uint256"
            },
            {
              "internalType": "uint256",
              "name": "price",
              "type": "uint256"
            },
            {
              "internalType": "bool",
              "name": "auction",
              "type": "bool"
            },
            {
              "internalType": "bool",
              "name": "sold",
              "type": "bool"
            }
          ],
          "internalType": "struct Marketplace.MarketItem[]",
          "name": "",
          "type": "tuple[]"
        }
      ],
      "stateMutability": "view",
      "type": "function"
    },
    {
      "inputs": [],
      "name": "fetchMyNFT",
      "outputs": [
        {
          "components": [
            {
              "internalType": "uint256",
              "name": "tokenId",
              "type": "uint256"
            },
            {
              "internalType": "address payable",
              "name": "originalOwner",
              "type": "address"
            },
            {
              "internalType": "address payable",
              "name": "seller",
              "type": "address"
            },
            {
              "internalType": "address payable",
              "name": "owner",
              "type": "address"
            },
            {
              "internalType": "uint256",
              "name": "royaltyPercentage",
              "type": "uint256"
            },
            {
              "internalType": "uint256",
              "name": "price",
              "type": "uint256"
            },
            {
              "internalType": "bool",
              "name": "auction",
              "type": "bool"
            },
            {
              "internalType": "bool",
              "name": "sold",
              "type": "bool"
            }
          ],
          "internalType": "struct Marketplace.MarketItem[]",
          "name": "",
          "type": "tuple[]"
        }
      ],
      "stateMutability": "view",
      "type": "function"
    },
    {
      "inputs": [
        {
          "internalType": "uint256",
          "name": "tokenId",
          "type": "uint256"
        }
      ],
      "name": "getApproved",
      "outputs": [
        {
          "internalType": "address",
          "name": "",
          "type": "address"
        }
      ],
      "stateMutability": "view",
      "type": "function"
    },
    {
      "inputs": [
        {
          "internalType": "uint256",
          "name": "tokenId",
          "type": "uint256"
        }
      ],
      "name": "getNFTPrice",
      "outputs": [
        {
          "internalType": "uint256",
          "name": "price",
          "type": "uint256"
        }
      ],
      "stateMutability": "view",
      "type": "function"
    },
    {
      "inputs": [
        {
          "internalType": "uint256",
          "name": "tokenId",
          "type": "uint256"
        }
      ],
      "name": "getRoyaltyData",
      "outputs": [
        {
          "internalType": "uint256",
          "name": "",
          "type": "uint256"
        },
        {
          "internalType": "address payable",
          "name": "",
          "type": "address"
        }
      ],
      "stateMutability": "view",
      "type": "function"
    },
    {
      "inputs": [
        {
          "internalType": "uint256",
          "name": "tokenId",
          "type": "uint256"
        }
      ],
      "name": "getSellerAddress",
      "outputs": [
        {
          "internalType": "address",
          "name": "",
          "type": "address"
        }
      ],
      "stateMutability": "view",
      "type": "function"
    },
    {
      "inputs": [
        {
          "internalType": "uint256",
          "name": "tokenId",
          "type": "uint256"
        },
        {
          "internalType": "address",
          "name": "winner",
          "type": "address"
        }
      ],
      "name": "handleAuctionEnd",
      "outputs": [],
      "stateMutability": "nonpayable",
      "type": "function"
    },
    {
      "inputs": [
        {
          "internalType": "address",
          "name": "owner",
          "type": "address"
        },
        {
          "internalType": "address",
          "name": "operator",
          "type": "address"
        }
      ],
      "name": "isApprovedForAll",
      "outputs": [
        {
          "internalType": "bool",
          "name": "",
          "type": "bool"
        }
      ],
      "stateMutability": "view",
      "type": "function"
    },
    {
      "inputs": [],
      "name": "name",
      "outputs": [
        {
          "internalType": "string",
          "name": "",
          "type": "string"
        }
      ],
      "stateMutability": "view",
      "type": "function"
    },
    {
      "inputs": [
        {
          "internalType": "uint256",
          "name": "tokenId",
          "type": "uint256"
        }
      ],
      "name": "ownerOf",
      "outputs": [
        {
          "internalType": "address",
          "name": "",
          "type": "address"
        }
      ],
      "stateMutability": "view",
      "type": "function"
    },
    {
      "inputs": [
        {
          "internalType": "uint256",
          "name": "tokenId",
          "type": "uint256"
        },
        {
          "internalType": "uint256",
          "name": "price",
          "type": "uint256"
        },
        {
          "internalType": "address",
          "name": "seller",
          "type": "address"
        }
      ],
      "name": "resellMarketItem",
      "outputs": [],
      "stateMutability": "payable",
      "type": "function"
    },
    {
      "inputs": [
        {
          "internalType": "address",
          "name": "from",
          "type": "address"
        },
        {
          "internalType": "address",
          "name": "to",
          "type": "address"
        },
        {
          "internalType": "uint256",
          "name": "tokenId",
          "type": "uint256"
        }
      ],
      "name": "safeTransferFrom",
      "outputs": [],
      "stateMutability": "nonpayable",
      "type": "function"
    },
    {
      "inputs": [
        {
          "internalType": "address",
          "name": "from",
          "type": "address"
        },
        {
          "internalType": "address",
          "name": "to",
          "type": "address"
        },
        {
          "internalType": "uint256",
          "name": "tokenId",
          "type": "uint256"
        },
        {
          "internalType": "bytes",
          "name": "data",
          "type": "bytes"
        }
      ],
      "name": "safeTransferFrom",
      "outputs": [],
      "stateMutability": "nonpayable",
      "type": "function"
    },
    {
      "inputs": [
        {
          "internalType": "address",
          "name": "operator",
          "type": "address"
        },
        {
          "internalType": "bool",
          "name": "approved",
          "type": "bool"
        }
      ],
      "name": "setApprovalForAll",
      "outputs": [],
      "stateMutability": "nonpayable",
      "type": "function"
    },
    {
      "inputs": [
        {
          "internalType": "address",
          "name": "auctionFactoryAddress",
          "type": "address"
        }
      ],
      "name": "setAuctionFactoryAddress",
      "outputs": [],
      "stateMutability": "nonpayable",
      "type": "function"
    },
    {
      "inputs": [
        {
          "internalType": "bytes4",
          "name": "interfaceId",
          "type": "bytes4"
        }
      ],
      "name": "supportsInterface",
      "outputs": [
        {
          "internalType": "bool",
          "name": "",
          "type": "bool"
        }
      ],
      "stateMutability": "view",
      "type": "function"
    },
    {
      "inputs": [],
      "name": "symbol",
      "outputs": [
        {
          "internalType": "string",
          "name": "",
          "type": "string"
        }
      ],
      "stateMutability": "view",
      "type": "function"
    },
    {
      "inputs": [
        {
          "internalType": "uint256",
          "name": "tokenId",
          "type": "uint256"
        }
      ],
      "name": "tokenURI",
      "outputs": [
        {
          "internalType": "string",
          "name": "",
          "type": "string"
        }
      ],
      "stateMutability": "view",
      "type": "function"
    },
    {
      "inputs": [
        {
          "internalType": "address",
          "name": "from",
          "type": "address"
        },
        {
          "internalType": "address",
          "name": "to",
          "type": "address"
        },
        {
          "internalType": "uint256",
          "name": "tokenId",
          "type": "uint256"
        }
      ],
      "name": "transferFrom",
      "outputs": [],
      "stateMutability": "nonpayable",
      "type": "function"
    },
    {
      "inputs": [
        {
          "internalType": "uint256",
          "name": "_listingPrice",
          "type": "uint256"
        }
      ],
      "name": "updateListingPrice",
      "outputs": [],
      "stateMutability": "payable",
      "type": "function"
    },
    {
      "inputs": [
        {
          "internalType": "uint256",
          "name": "tokenId",
          "type": "uint256"
        },
        {
          "internalType": "uint256",
          "name": "price",
          "type": "uint256"
        }
      ],
      "name": "updateNFTPrice",
      "outputs": [],
      "stateMutability": "nonpayable",
      "type": "function"
    },
    {
      "inputs": [],
      "name": "withdrawFunds",
      "outputs": [],
      "stateMutability": "nonpayable",
      "type": "function"
    }
  ],
  "bytecode": "0x60806040526608e1bc9bf04000600a553480156200001c57600080fd5b506040518060400160405280601381526020017f4e4654204d657461766572736520546f6b656e000000000000000000000000008152506040518060400160405280600581526020017f4d594e465400000000000000000000000000000000000000000000000000000081525081600090816200009a919062000378565b508060019081620000ac919062000378565b505050600160078190555033600b60006101000a81548173ffffffffffffffffffffffffffffffffffffffff021916908373ffffffffffffffffffffffffffffffffffffffff1602179055506200045f565b600081519050919050565b7f4e487b7100000000000000000000000000000000000000000000000000000000600052604160045260246000fd5b7f4e487b7100000000000000000000000000000000000000000000000000000000600052602260045260246000fd5b600060028204905060018216806200018057607f821691505b60208210810362000196576200019562000138565b5b50919050565b60008190508160005260206000209050919050565b60006020601f8301049050919050565b600082821b905092915050565b600060088302620002007fffffffffffffffffffffffffffffffffffffffffffffffffffffffffffffffff82620001c1565b6200020c8683620001c1565b95508019841693508086168417925050509392505050565b6000819050919050565b6000819050919050565b600062000259620002536200024d8462000224565b6200022e565b62000224565b9050919050565b6000819050919050565b620002758362000238565b6200028d620002848262000260565b848454620001ce565b825550505050565b600090565b620002a462000295565b620002b18184846200026a565b505050565b5b81811015620002d957620002cd6000826200029a565b600181019050620002b7565b5050565b601f8211156200032857620002f2816200019c565b620002fd84620001b1565b810160208510156200030d578190505b620003256200031c85620001b1565b830182620002b6565b50505b505050565b600082821c905092915050565b60006200034d600019846008026200032d565b1980831691505092915050565b60006200036883836200033a565b9150826002028217905092915050565b6200038382620000fe565b67ffffffffffffffff8111156200039f576200039e62000109565b5b620003ab825462000167565b620003b8828285620002dd565b600060209050601f831160018114620003f05760008415620003db578287015190505b620003e785826200035a565b86555062000457565b601f19841662000400866200019c565b60005b828110156200042a5784890151825560018201915060208501945060208101905062000403565b868310156200044a578489015162000446601f8916826200033a565b8355505b6001600288020188555050505b505050505050565b61577b806200046f6000396000f3fe6080604052600436106101b75760003560e01c8063804fa835116100ec578063ae677aa31161008a578063bec2a7c511610064578063bec2a7c5146105e3578063c18763f714610613578063c87b56dd1461063e578063e985e9c51461067b576101b7565b8063ae677aa314610582578063b88d4fde1461059e578063be9af536146105c7576101b7565b806395d89b41116100c657806395d89b41146104b3578063a22cb465146104de578063a65ff74c14610507578063a675364d14610545576101b7565b8063804fa835146104315780638f329b311461044d5780639297617914610476576101b7565b806324600fc31161015957806345f8fa801161013357806345f8fa80146103635780634ac0123d1461038e5780636352211e146103b757806370a08231146103f4576101b7565b806324600fc314610307578063320343da1461031e57806342842e0e1461033a576101b7565b8063095ea7b311610195578063095ea7b3146102615780630f08efe01461028a5780631cb88133146102b557806323b872dd146102de576101b7565b806301ffc9a7146101bc57806306fdde03146101f9578063081812fc14610224575b600080fd5b3480156101c857600080fd5b506101e360048036038101906101de9190613b5a565b6106b8565b6040516101f09190613ba2565b60405180910390f35b34801561020557600080fd5b5061020e610719565b60405161021b9190613c4d565b60405180910390f35b34801561023057600080fd5b5061024b60048036038101906102469190613ca5565b6107ab565b6040516102589190613d13565b60405180910390f35b34801561026d57600080fd5b5061028860048036038101906102839190613d5a565b6107f1565b005b34801561029657600080fd5b5061029f610908565b6040516102ac9190613f2b565b60405180910390f35b3480156102c157600080fd5b506102dc60048036038101906102d79190613f4d565b610bec565b005b3480156102ea57600080fd5b5061030560048036038101906103009190613f7a565b610c30565b005b34801561031357600080fd5b5061031c610c90565b005b61033860048036038101906103339190613fcd565b610e73565b005b34801561034657600080fd5b50610361600480360381019061035c9190613f7a565b61113d565b005b34801561036f57600080fd5b5061037861115d565b6040516103859190613f2b565b60405180910390f35b34801561039a57600080fd5b506103b560048036038101906103b09190614020565b6114c5565b005b3480156103c357600080fd5b506103de60048036038101906103d99190613ca5565b6116c5565b6040516103eb9190613d13565b60405180910390f35b34801561040057600080fd5b5061041b60048036038101906104169190613f4d565b61174b565b604051610428919061406f565b60405180910390f35b61044b6004803603810190610446919061408a565b611802565b005b34801561045957600080fd5b50610474600480360381019061046f91906140dd565b611b20565b005b34801561048257600080fd5b5061049d60048036038101906104989190613ca5565b611c50565b6040516104aa919061406f565b60405180910390f35b3480156104bf57600080fd5b506104c8611dd7565b6040516104d59190613c4d565b60405180910390f35b3480156104ea57600080fd5b5061050560048036038101906105009190614149565b611e69565b005b34801561051357600080fd5b5061052e60048036038101906105299190613ca5565b611e7f565b60405161053c929190614198565b60405180910390f35b34801561055157600080fd5b5061056c60048036038101906105679190613ca5565b61200f565b6040516105799190613d13565b60405180910390f35b61059c60048036038101906105979190613ca5565b61204f565b005b3480156105aa57600080fd5b506105c560048036038101906105c091906142f6565b6120e9565b005b6105e160048036038101906105dc9190613ca5565b61214b565b005b6105fd60048036038101906105f8919061441a565b61232d565b60405161060a919061406f565b60405180910390f35b34801561061f57600080fd5b50610628612371565b6040516106359190613f2b565b60405180910390f35b34801561064a57600080fd5b5061066560048036038101906106609190613ca5565b6126d9565b6040516106729190613c4d565b60405180910390f35b34801561068757600080fd5b506106a2600480360381019061069d9190614489565b6127eb565b6040516106af9190613ba2565b60405180910390f35b6000634906490660e01b7bffffffffffffffffffffffffffffffffffffffffffffffffffffffff1916827bffffffffffffffffffffffffffffffffffffffffffffffffffffffff1916148061071257506107118261287f565b5b9050919050565b606060008054610728906144f8565b80601f0160208091040260200160405190810160405280929190818152602001828054610754906144f8565b80156107a15780601f10610776576101008083540402835291602001916107a1565b820191906000526020600020905b81548152906001019060200180831161078457829003601f168201915b5050505050905090565b60006107b682612961565b6004600083815260200190815260200160002060009054906101000a900473ffffffffffffffffffffffffffffffffffffffff169050919050565b60006107fc826116c5565b90508073ffffffffffffffffffffffffffffffffffffffff168373ffffffffffffffffffffffffffffffffffffffff160361086c576040517f08c379a00000000000000000000000000000000000000000000000000000000081526004016108639061459b565b60405180910390fd5b8073ffffffffffffffffffffffffffffffffffffffff1661088b6129ac565b73ffffffffffffffffffffffffffffffffffffffff1614806108ba57506108b9816108b46129ac565b6127eb565b5b6108f9576040517f08c379a00000000000000000000000000000000000000000000000000000000081526004016108f09061462d565b60405180910390fd5b61090383836129b4565b505050565b606060006109166008612a6d565b905060006109246009612a6d565b61092e6008612a6d565b610938919061467c565b90506000808267ffffffffffffffff811115610957576109566141cb565b5b60405190808252806020026020018201604052801561099057816020015b61097d613a59565b8152602001906001900390816109755790505b50905060005b84811015610be1573073ffffffffffffffffffffffffffffffffffffffff16600d60006001846109c691906146b0565b815260200190815260200160002060030160009054906101000a900473ffffffffffffffffffffffffffffffffffffffff1673ffffffffffffffffffffffffffffffffffffffff1603610bce576000600182610a2291906146b0565b90506000600d600083815260200190815260200160002090508060405180610100016040529081600082015481526020016001820160009054906101000a900473ffffffffffffffffffffffffffffffffffffffff1673ffffffffffffffffffffffffffffffffffffffff1673ffffffffffffffffffffffffffffffffffffffff1681526020016002820160009054906101000a900473ffffffffffffffffffffffffffffffffffffffff1673ffffffffffffffffffffffffffffffffffffffff1673ffffffffffffffffffffffffffffffffffffffff1681526020016003820160009054906101000a900473ffffffffffffffffffffffffffffffffffffffff1673ffffffffffffffffffffffffffffffffffffffff1673ffffffffffffffffffffffffffffffffffffffff16815260200160048201548152602001600582015481526020016006820160009054906101000a900460ff161515151581526020016006820160019054906101000a900460ff161515151581525050848681518110610bb157610bb06146e4565b5b6020026020010181905250600185610bc991906146b0565b945050505b8080610bd990614713565b915050610996565b508094505050505090565b80600c60006101000a81548173ffffffffffffffffffffffffffffffffffffffff021916908373ffffffffffffffffffffffffffffffffffffffff16021790555050565b610c41610c3b6129ac565b82612a7b565b610c80576040517f08c379a0000000000000000000000000000000000000000000000000000000008152600401610c77906147cd565b60405180910390fd5b610c8b838383612b10565b505050565b600b60009054906101000a900473ffffffffffffffffffffffffffffffffffffffff1673ffffffffffffffffffffffffffffffffffffffff163373ffffffffffffffffffffffffffffffffffffffff1614610d20576040517f08c379a0000000000000000000000000000000000000000000000000000000008152600401610d179061485f565b60405180910390fd5b600047905060008111610d68576040517f08c379a0000000000000000000000000000000000000000000000000000000008152600401610d5f906148cb565b60405180910390fd5b6000600b60009054906101000a900473ffffffffffffffffffffffffffffffffffffffff1673ffffffffffffffffffffffffffffffffffffffff1682604051610db09061491c565b60006040518083038185875af1925050503d8060008114610ded576040519150601f19603f3d011682016040523d82523d6000602084013e610df2565b606091505b5050905080610e36576040517f08c379a0000000000000000000000000000000000000000000000000000000008152600401610e2d9061497d565b60405180910390fd5b7f6141b54b56b8a52a8c6f5cd2a857f6117b18ffbf4d46bd3106f300a839cbf5ea8233604051610e6792919061499d565b60405180910390a15050565b610e956040518060600160405280602481526020016157226024913933612e09565b60008111610ed8576040517f08c379a0000000000000000000000000000000000000000000000000000000008152600401610ecf90614a12565b60405180910390fd5b600a543414610f1c576040517f08c379a0000000000000000000000000000000000000000000000000000000008152600401610f1390614a7e565b60405180910390fd5b6040518061010001604052808481526020013373ffffffffffffffffffffffffffffffffffffffff1681526020013373ffffffffffffffffffffffffffffffffffffffff1681526020013073ffffffffffffffffffffffffffffffffffffffff16815260200183815260200182815260200160001515815260200160001515815250600d60008581526020019081526020016000206000820151816000015560208201518160010160006101000a81548173ffffffffffffffffffffffffffffffffffffffff021916908373ffffffffffffffffffffffffffffffffffffffff16021790555060408201518160020160006101000a81548173ffffffffffffffffffffffffffffffffffffffff021916908373ffffffffffffffffffffffffffffffffffffffff16021790555060608201518160030160006101000a81548173ffffffffffffffffffffffffffffffffffffffff021916908373ffffffffffffffffffffffffffffffffffffffff1602179055506080820151816004015560a0820151816005015560c08201518160060160006101000a81548160ff02191690831515021790555060e08201518160060160016101000a81548160ff0219169083151502179055509050506110f2333085612b10565b827f6be207084465b1afd1fb9af05976e6d285e34a16bc67aaa8e62ebbbf7c406aac3333600086866000806040516111309796959493929190614a9e565b60405180910390a2505050565b611158838383604051806020016040528060008152506120e9565b505050565b6060600061116b6008612a6d565b905060008060005b83811015611213573373ffffffffffffffffffffffffffffffffffffffff16600d60006001846111a391906146b0565b815260200190815260200160002060020160009054906101000a900473ffffffffffffffffffffffffffffffffffffffff1673ffffffffffffffffffffffffffffffffffffffff1603611200576001836111fd91906146b0565b92505b808061120b90614713565b915050611173565b5060008267ffffffffffffffff8111156112305761122f6141cb565b5b60405190808252806020026020018201604052801561126957816020015b611256613a59565b81526020019060019003908161124e5790505b50905060005b848110156114ba573373ffffffffffffffffffffffffffffffffffffffff16600d600060018461129f91906146b0565b815260200190815260200160002060020160009054906101000a900473ffffffffffffffffffffffffffffffffffffffff1673ffffffffffffffffffffffffffffffffffffffff16036114a75760006001826112fb91906146b0565b90506000600d600083815260200190815260200160002090508060405180610100016040529081600082015481526020016001820160009054906101000a900473ffffffffffffffffffffffffffffffffffffffff1673ffffffffffffffffffffffffffffffffffffffff1673ffffffffffffffffffffffffffffffffffffffff1681526020016002820160009054906101000a900473ffffffffffffffffffffffffffffffffffffffff1673ffffffffffffffffffffffffffffffffffffffff1673ffffffffffffffffffffffffffffffffffffffff1681526020016003820160009054906101000a900473ffffffffffffffffffffffffffffffffffffffff1673ffffffffffffffffffffffffffffffffffffffff1673ffffffffffffffffffffffffffffffffffffffff16815260200160048201548152602001600582015481526020016006820160009054906101000a900460ff161515151581526020016006820160019054906101000a900460ff16151515158152505084868151811061148a576114896146e4565b5b60200260200101819052506001856114a291906146b0565b945050505b80806114b290614713565b91505061126f565b508094505050505090565b600073ffffffffffffffffffffffffffffffffffffffff16600d600084815260200190815260200160002060030160009054906101000a900473ffffffffffffffffffffffffffffffffffffffff1673ffffffffffffffffffffffffffffffffffffffff160361156a576040517f08c379a000000000000000000000000000000000000000000000000000000000815260040161156190614b7f565b60405180910390fd5b3373ffffffffffffffffffffffffffffffffffffffff16600d600084815260200190815260200160002060020160009054906101000a900473ffffffffffffffffffffffffffffffffffffffff1673ffffffffffffffffffffffffffffffffffffffff161461160e576040517f08c379a000000000000000000000000000000000000000000000000000000000815260040161160590614beb565b60405180910390fd5b60008111611651576040517f08c379a000000000000000000000000000000000000000000000000000000000815260040161164890614c57565b60405180910390fd5b80600d6000848152602001908152602001600020600501819055506116c16040518060400160405280601581526020017f55706461746564206d61726b6574206974656d3a200000000000000000000000815250600d600085815260200190815260200160002060050154612ea5565b5050565b6000806116d183612f41565b9050600073ffffffffffffffffffffffffffffffffffffffff168173ffffffffffffffffffffffffffffffffffffffff1603611742576040517f08c379a000000000000000000000000000000000000000000000000000000000815260040161173990614cc3565b60405180910390fd5b80915050919050565b60008073ffffffffffffffffffffffffffffffffffffffff168273ffffffffffffffffffffffffffffffffffffffff16036117bb576040517f08c379a00000000000000000000000000000000000000000000000000000000081526004016117b290614d55565b60405180910390fd5b600360008373ffffffffffffffffffffffffffffffffffffffff1673ffffffffffffffffffffffffffffffffffffffff168152602001908152602001600020549050919050565b6118406040518060400160405280601981526020017f526573656c6c206d61726b6574206974656d2063616c6c656400000000000000815250612f7e565b3373ffffffffffffffffffffffffffffffffffffffff16600d600085815260200190815260200160002060030160009054906101000a900473ffffffffffffffffffffffffffffffffffffffff1673ffffffffffffffffffffffffffffffffffffffff1614806118fd5750600c60009054906101000a900473ffffffffffffffffffffffffffffffffffffffff1673ffffffffffffffffffffffffffffffffffffffff163373ffffffffffffffffffffffffffffffffffffffff16145b61193c576040517f08c379a000000000000000000000000000000000000000000000000000000000815260040161193390614dc1565b60405180910390fd5b600c60009054906101000a900473ffffffffffffffffffffffffffffffffffffffff1673ffffffffffffffffffffffffffffffffffffffff163373ffffffffffffffffffffffffffffffffffffffff16036119c1576001600d600085815260200190815260200160002060060160006101000a81548160ff0219169083151502179055505b6000600d600085815260200190815260200160002060060160016101000a81548160ff02191690831515021790555081600d60008581526020019081526020016000206005018190555033600d600085815260200190815260200160002060020160006101000a81548173ffffffffffffffffffffffffffffffffffffffff021916908373ffffffffffffffffffffffffffffffffffffffff16021790555030600d600085815260200190815260200160002060030160006101000a81548173ffffffffffffffffffffffffffffffffffffffff021916908373ffffffffffffffffffffffffffffffffffffffff1602179055506000611ac16009612a6d565b1115611ad257611ad16009613017565b5b611add813085612b10565b611b1b6040518060400160405280601981526020017f526573656c6c207472616e736665722073756363656564656400000000000000815250612f7e565b505050565b3073ffffffffffffffffffffffffffffffffffffffff166342842e0e3083856040518463ffffffff1660e01b8152600401611b5d93929190614de1565b600060405180830381600087803b158015611b7757600080fd5b505af1158015611b8b573d6000803e3d6000fd5b5050505080600d600084815260200190815260200160002060030160006101000a81548173ffffffffffffffffffffffffffffffffffffffff021916908373ffffffffffffffffffffffffffffffffffffffff1602179055506001600d600084815260200190815260200160002060060160016101000a81548160ff0219169083151502179055507f20665ee57a5e13af162123968d777ccebe86531a21e53d08afc78138a950192d8282604051611c4492919061499d565b60405180910390a15050565b600080600d600084815260200190815260200160002060405180610100016040529081600082015481526020016001820160009054906101000a900473ffffffffffffffffffffffffffffffffffffffff1673ffffffffffffffffffffffffffffffffffffffff1673ffffffffffffffffffffffffffffffffffffffff1681526020016002820160009054906101000a900473ffffffffffffffffffffffffffffffffffffffff1673ffffffffffffffffffffffffffffffffffffffff1673ffffffffffffffffffffffffffffffffffffffff1681526020016003820160009054906101000a900473ffffffffffffffffffffffffffffffffffffffff1673ffffffffffffffffffffffffffffffffffffffff1673ffffffffffffffffffffffffffffffffffffffff16815260200160048201548152602001600582015481526020016006820160009054906101000a900460ff161515151581526020016006820160019054906101000a900460ff16151515158152505090508060a00151915050919050565b606060018054611de6906144f8565b80601f0160208091040260200160405190810160405280929190818152602001828054611e12906144f8565b8015611e5f5780601f10611e3457610100808354040283529160200191611e5f565b820191906000526020600020905b815481529060010190602001808311611e4257829003601f168201915b5050505050905090565b611e7b611e746129ac565b8383613073565b5050565b6000806000600d600085815260200190815260200160002060405180610100016040529081600082015481526020016001820160009054906101000a900473ffffffffffffffffffffffffffffffffffffffff1673ffffffffffffffffffffffffffffffffffffffff1673ffffffffffffffffffffffffffffffffffffffff1681526020016002820160009054906101000a900473ffffffffffffffffffffffffffffffffffffffff1673ffffffffffffffffffffffffffffffffffffffff1673ffffffffffffffffffffffffffffffffffffffff1681526020016003820160009054906101000a900473ffffffffffffffffffffffffffffffffffffffff1673ffffffffffffffffffffffffffffffffffffffff1673ffffffffffffffffffffffffffffffffffffffff16815260200160048201548152602001600582015481526020016006820160009054906101000a900460ff161515151581526020016006820160019054906101000a900460ff1615151515815250509050806080015181602001519250925050915091565b6000600d600083815260200190815260200160002060020160009054906101000a900473ffffffffffffffffffffffffffffffffffffffff169050919050565b600b60009054906101000a900473ffffffffffffffffffffffffffffffffffffffff1673ffffffffffffffffffffffffffffffffffffffff163373ffffffffffffffffffffffffffffffffffffffff16146120df576040517f08c379a00000000000000000000000000000000000000000000000000000000081526004016120d69061485f565b60405180910390fd5b80600a8190555050565b6120fa6120f46129ac565b83612a7b565b612139576040517f08c379a0000000000000000000000000000000000000000000000000000000008152600401612130906147cd565b60405180910390fd5b612145848484846131df565b50505050565b6000600d60008381526020019081526020016000206005015490508034146121a8576040517f08c379a000000000000000000000000000000000000000000000000000000000815260040161219f90614e8a565b60405180910390fd5b33600d600084815260200190815260200160002060030160006101000a81548173ffffffffffffffffffffffffffffffffffffffff021916908373ffffffffffffffffffffffffffffffffffffffff1602179055506001600d600084815260200190815260200160002060060160016101000a81548160ff021916908315150217905550612236600961323b565b612241303384612b10565b600b60009054906101000a900473ffffffffffffffffffffffffffffffffffffffff1673ffffffffffffffffffffffffffffffffffffffff166108fc600a549081150290604051600060405180830381858888f193505050501580156122ab573d6000803e3d6000fd5b50600d600083815260200190815260200160002060020160009054906101000a900473ffffffffffffffffffffffffffffffffffffffff1673ffffffffffffffffffffffffffffffffffffffff166108fc349081150290604051600060405180830381858888f19350505050158015612328573d6000803e3d6000fd5b505050565b6000612339600861323b565b60006123456008612a6d565b90506123513382613251565b61235b818661346e565b612366818585610e73565b809150509392505050565b6060600061237f6008612a6d565b905060008060005b83811015612427573373ffffffffffffffffffffffffffffffffffffffff16600d60006001846123b791906146b0565b815260200190815260200160002060030160009054906101000a900473ffffffffffffffffffffffffffffffffffffffff1673ffffffffffffffffffffffffffffffffffffffff16036124145760018361241191906146b0565b92505b808061241f90614713565b915050612387565b5060008267ffffffffffffffff811115612444576124436141cb565b5b60405190808252806020026020018201604052801561247d57816020015b61246a613a59565b8152602001906001900390816124625790505b50905060005b848110156126ce573373ffffffffffffffffffffffffffffffffffffffff16600d60006001846124b391906146b0565b815260200190815260200160002060030160009054906101000a900473ffffffffffffffffffffffffffffffffffffffff1673ffffffffffffffffffffffffffffffffffffffff16036126bb57600060018261250f91906146b0565b90506000600d600083815260200190815260200160002090508060405180610100016040529081600082015481526020016001820160009054906101000a900473ffffffffffffffffffffffffffffffffffffffff1673ffffffffffffffffffffffffffffffffffffffff1673ffffffffffffffffffffffffffffffffffffffff1681526020016002820160009054906101000a900473ffffffffffffffffffffffffffffffffffffffff1673ffffffffffffffffffffffffffffffffffffffff1673ffffffffffffffffffffffffffffffffffffffff1681526020016003820160009054906101000a900473ffffffffffffffffffffffffffffffffffffffff1673ffffffffffffffffffffffffffffffffffffffff1673ffffffffffffffffffffffffffffffffffffffff16815260200160048201548152602001600582015481526020016006820160009054906101000a900460ff161515151581526020016006820160019054906101000a900460ff16151515158152505084868151811061269e5761269d6146e4565b5b60200260200101819052506001856126b691906146b0565b945050505b80806126c690614713565b915050612483565b508094505050505090565b60606126e482612961565b6000600660008481526020019081526020016000208054612704906144f8565b80601f0160208091040260200160405190810160405280929190818152602001828054612730906144f8565b801561277d5780601f106127525761010080835404028352916020019161277d565b820191906000526020600020905b81548152906001019060200180831161276057829003601f168201915b50505050509050600061278e613512565b905060008151036127a35781925050506127e6565b6000825111156127d85780826040516020016127c0929190614ee6565b604051602081830303815290604052925050506127e6565b6127e184613529565b925050505b919050565b6000600560008473ffffffffffffffffffffffffffffffffffffffff1673ffffffffffffffffffffffffffffffffffffffff16815260200190815260200160002060008373ffffffffffffffffffffffffffffffffffffffff1673ffffffffffffffffffffffffffffffffffffffff16815260200190815260200160002060009054906101000a900460ff16905092915050565b60007f80ac58cd000000000000000000000000000000000000000000000000000000007bffffffffffffffffffffffffffffffffffffffffffffffffffffffff1916827bffffffffffffffffffffffffffffffffffffffffffffffffffffffff1916148061294a57507f5b5e139f000000000000000000000000000000000000000000000000000000007bffffffffffffffffffffffffffffffffffffffffffffffffffffffff1916827bffffffffffffffffffffffffffffffffffffffffffffffffffffffff1916145b8061295a575061295982613591565b5b9050919050565b61296a816135fb565b6129a9576040517f08c379a00000000000000000000000000000000000000000000000000000000081526004016129a090614cc3565b60405180910390fd5b50565b600033905090565b816004600083815260200190815260200160002060006101000a81548173ffffffffffffffffffffffffffffffffffffffff021916908373ffffffffffffffffffffffffffffffffffffffff160217905550808273ffffffffffffffffffffffffffffffffffffffff16612a27836116c5565b73ffffffffffffffffffffffffffffffffffffffff167f8c5be1e5ebec7d5bd14f71427d1e84f3dd0314c0f7b2291e5b200ac8c7c3b92560405160405180910390a45050565b600081600001549050919050565b600080612a87836116c5565b90508073ffffffffffffffffffffffffffffffffffffffff168473ffffffffffffffffffffffffffffffffffffffff161480612ac95750612ac881856127eb565b5b80612b0757508373ffffffffffffffffffffffffffffffffffffffff16612aef846107ab565b73ffffffffffffffffffffffffffffffffffffffff16145b91505092915050565b8273ffffffffffffffffffffffffffffffffffffffff16612b30826116c5565b73ffffffffffffffffffffffffffffffffffffffff1614612b86576040517f08c379a0000000000000000000000000000000000000000000000000000000008152600401612b7d90614f7c565b60405180910390fd5b600073ffffffffffffffffffffffffffffffffffffffff168273ffffffffffffffffffffffffffffffffffffffff1603612bf5576040517f08c379a0000000000000000000000000000000000000000000000000000000008152600401612bec9061500e565b60405180910390fd5b612c02838383600161363c565b8273ffffffffffffffffffffffffffffffffffffffff16612c22826116c5565b73ffffffffffffffffffffffffffffffffffffffff1614612c78576040517f08c379a0000000000000000000000000000000000000000000000000000000008152600401612c6f90614f7c565b60405180910390fd5b6004600082815260200190815260200160002060006101000a81549073ffffffffffffffffffffffffffffffffffffffff02191690556001600360008573ffffffffffffffffffffffffffffffffffffffff1673ffffffffffffffffffffffffffffffffffffffff168152602001908152602001600020600082825403925050819055506001600360008473ffffffffffffffffffffffffffffffffffffffff1673ffffffffffffffffffffffffffffffffffffffff16815260200190815260200160002060008282540192505081905550816002600083815260200190815260200160002060006101000a81548173ffffffffffffffffffffffffffffffffffffffff021916908373ffffffffffffffffffffffffffffffffffffffff160217905550808273ffffffffffffffffffffffffffffffffffffffff168473ffffffffffffffffffffffffffffffffffffffff167fddf252ad1be2c89b69c2b068fc378daa952ba7f163c4a11628f55a4df523b3ef60405160405180910390a4612e048383836001613642565b505050565b612ea18282604051602401612e1f92919061502e565b6040516020818303038152906040527f319af333000000000000000000000000000000000000000000000000000000007bffffffffffffffffffffffffffffffffffffffffffffffffffffffff19166020820180517bffffffffffffffffffffffffffffffffffffffffffffffffffffffff8381831617835250505050613648565b5050565b612f3d8282604051602401612ebb92919061505e565b6040516020818303038152906040527fb60e72cc000000000000000000000000000000000000000000000000000000007bffffffffffffffffffffffffffffffffffffffffffffffffffffffff19166020820180517bffffffffffffffffffffffffffffffffffffffffffffffffffffffff8381831617835250505050613648565b5050565b60006002600083815260200190815260200160002060009054906101000a900473ffffffffffffffffffffffffffffffffffffffff169050919050565b61301481604051602401612f929190613c4d565b6040516020818303038152906040527f41304fac000000000000000000000000000000000000000000000000000000007bffffffffffffffffffffffffffffffffffffffffffffffffffffffff19166020820180517bffffffffffffffffffffffffffffffffffffffffffffffffffffffff8381831617835250505050613648565b50565b60008160000154905060008111613063576040517f08c379a000000000000000000000000000000000000000000000000000000000815260040161305a906150da565b60405180910390fd5b6001810382600001819055505050565b8173ffffffffffffffffffffffffffffffffffffffff168373ffffffffffffffffffffffffffffffffffffffff16036130e1576040517f08c379a00000000000000000000000000000000000000000000000000000000081526004016130d890615146565b60405180910390fd5b80600560008573ffffffffffffffffffffffffffffffffffffffff1673ffffffffffffffffffffffffffffffffffffffff16815260200190815260200160002060008473ffffffffffffffffffffffffffffffffffffffff1673ffffffffffffffffffffffffffffffffffffffff16815260200190815260200160002060006101000a81548160ff0219169083151502179055508173ffffffffffffffffffffffffffffffffffffffff168373ffffffffffffffffffffffffffffffffffffffff167f17307eab39ab6107e8899845ad3d59bd9653f200f220920489ca2b5937696c31836040516131d29190613ba2565b60405180910390a3505050565b6131ea848484612b10565b6131f684848484613662565b613235576040517f08c379a000000000000000000000000000000000000000000000000000000000815260040161322c906151d8565b60405180910390fd5b50505050565b6001816000016000828254019250508190555050565b600073ffffffffffffffffffffffffffffffffffffffff168273ffffffffffffffffffffffffffffffffffffffff16036132c0576040517f08c379a00000000000000000000000000000000000000000000000000000000081526004016132b790615244565b60405180910390fd5b6132c9816135fb565b15613309576040517f08c379a0000000000000000000000000000000000000000000000000000000008152600401613300906152b0565b60405180910390fd5b61331760008383600161363c565b613320816135fb565b15613360576040517f08c379a0000000000000000000000000000000000000000000000000000000008152600401613357906152b0565b60405180910390fd5b6001600360008473ffffffffffffffffffffffffffffffffffffffff1673ffffffffffffffffffffffffffffffffffffffff16815260200190815260200160002060008282540192505081905550816002600083815260200190815260200160002060006101000a81548173ffffffffffffffffffffffffffffffffffffffff021916908373ffffffffffffffffffffffffffffffffffffffff160217905550808273ffffffffffffffffffffffffffffffffffffffff16600073ffffffffffffffffffffffffffffffffffffffff167fddf252ad1be2c89b69c2b068fc378daa952ba7f163c4a11628f55a4df523b3ef60405160405180910390a461346a600083836001613642565b5050565b613477826135fb565b6134b6576040517f08c379a00000000000000000000000000000000000000000000000000000000081526004016134ad90615342565b60405180910390fd5b806006600084815260200190815260200160002090816134d6919061550e565b507ff8e1a15aba9398e019f0b49df1a4fde98ee17ae345cb5f6b5e2c27f5033e8ce782604051613506919061406f565b60405180910390a15050565b606060405180602001604052806000815250905090565b606061353482612961565b600061353e613512565b9050600081511161355e5760405180602001604052806000815250613589565b80613568846137e9565b604051602001613579929190614ee6565b6040516020818303038152906040525b915050919050565b60007f01ffc9a7000000000000000000000000000000000000000000000000000000007bffffffffffffffffffffffffffffffffffffffffffffffffffffffff1916827bffffffffffffffffffffffffffffffffffffffffffffffffffffffff1916149050919050565b60008073ffffffffffffffffffffffffffffffffffffffff1661361d83612f41565b73ffffffffffffffffffffffffffffffffffffffff1614159050919050565b50505050565b50505050565b61365f816136576138b76138d8565b63ffffffff16565b50565b60006136838473ffffffffffffffffffffffffffffffffffffffff166138e3565b156137dc578373ffffffffffffffffffffffffffffffffffffffff1663150b7a026136ac6129ac565b8786866040518563ffffffff1660e01b81526004016136ce9493929190615635565b6020604051808303816000875af192505050801561370a57506040513d601f19601f820116820180604052508101906137079190615696565b60015b61378c573d806000811461373a576040519150601f19603f3d011682016040523d82523d6000602084013e61373f565b606091505b506000815103613784576040517f08c379a000000000000000000000000000000000000000000000000000000000815260040161377b906151d8565b60405180910390fd5b805181602001fd5b63150b7a0260e01b7bffffffffffffffffffffffffffffffffffffffffffffffffffffffff1916817bffffffffffffffffffffffffffffffffffffffffffffffffffffffff1916149150506137e1565b600190505b949350505050565b6060600060016137f884613906565b01905060008167ffffffffffffffff811115613817576138166141cb565b5b6040519080825280601f01601f1916602001820160405280156138495781602001600182028036833780820191505090505b509050600082602001820190505b6001156138ac578080600190039150507f3031323334353637383961626364656600000000000000000000000000000000600a86061a8153600a85816138a05761389f6156c3565b5b04945060008503613857575b819350505050919050565b60006a636f6e736f6c652e6c6f679050600080835160208501845afa505050565b613ae4819050919050565b6000808273ffffffffffffffffffffffffffffffffffffffff163b119050919050565b600080600090507a184f03e93ff9f4daa797ed6e38ed64bf6a1f0100000000000000008310613964577a184f03e93ff9f4daa797ed6e38ed64bf6a1f010000000000000000838161395a576139596156c3565b5b0492506040810190505b6d04ee2d6d415b85acef810000000083106139a1576d04ee2d6d415b85acef81000000008381613997576139966156c3565b5b0492506020810190505b662386f26fc1000083106139d057662386f26fc1000083816139c6576139c56156c3565b5b0492506010810190505b6305f5e10083106139f9576305f5e10083816139ef576139ee6156c3565b5b0492506008810190505b6127108310613a1e576127108381613a1457613a136156c3565b5b0492506004810190505b60648310613a415760648381613a3757613a366156c3565b5b0492506002810190505b600a8310613a50576001810190505b80915050919050565b60405180610100016040528060008152602001600073ffffffffffffffffffffffffffffffffffffffff168152602001600073ffffffffffffffffffffffffffffffffffffffff168152602001600073ffffffffffffffffffffffffffffffffffffffff16815260200160008152602001600081526020016000151581526020016000151581525090565b613aec6156f2565b565b6000604051905090565b600080fd5b600080fd5b60007fffffffff0000000000000000000000000000000000000000000000000000000082169050919050565b613b3781613b02565b8114613b4257600080fd5b50565b600081359050613b5481613b2e565b92915050565b600060208284031215613b7057613b6f613af8565b5b6000613b7e84828501613b45565b91505092915050565b60008115159050919050565b613b9c81613b87565b82525050565b6000602082019050613bb76000830184613b93565b92915050565b600081519050919050565b600082825260208201905092915050565b60005b83811015613bf7578082015181840152602081019050613bdc565b60008484015250505050565b6000601f19601f8301169050919050565b6000613c1f82613bbd565b613c298185613bc8565b9350613c39818560208601613bd9565b613c4281613c03565b840191505092915050565b60006020820190508181036000830152613c678184613c14565b905092915050565b6000819050919050565b613c8281613c6f565b8114613c8d57600080fd5b50565b600081359050613c9f81613c79565b92915050565b600060208284031215613cbb57613cba613af8565b5b6000613cc984828501613c90565b91505092915050565b600073ffffffffffffffffffffffffffffffffffffffff82169050919050565b6000613cfd82613cd2565b9050919050565b613d0d81613cf2565b82525050565b6000602082019050613d286000830184613d04565b92915050565b613d3781613cf2565b8114613d4257600080fd5b50565b600081359050613d5481613d2e565b92915050565b60008060408385031215613d7157613d70613af8565b5b6000613d7f85828601613d45565b9250506020613d9085828601613c90565b9150509250929050565b600081519050919050565b600082825260208201905092915050565b6000819050602082019050919050565b613dcf81613c6f565b82525050565b6000613de082613cd2565b9050919050565b613df081613dd5565b82525050565b613dff81613b87565b82525050565b61010082016000820151613e1c6000850182613dc6565b506020820151613e2f6020850182613de7565b506040820151613e426040850182613de7565b506060820151613e556060850182613de7565b506080820151613e686080850182613dc6565b5060a0820151613e7b60a0850182613dc6565b5060c0820151613e8e60c0850182613df6565b5060e0820151613ea160e0850182613df6565b50505050565b6000613eb38383613e05565b6101008301905092915050565b6000602082019050919050565b6000613ed882613d9a565b613ee28185613da5565b9350613eed83613db6565b8060005b83811015613f1e578151613f058882613ea7565b9750613f1083613ec0565b925050600181019050613ef1565b5085935050505092915050565b60006020820190508181036000830152613f458184613ecd565b905092915050565b600060208284031215613f6357613f62613af8565b5b6000613f7184828501613d45565b91505092915050565b600080600060608486031215613f9357613f92613af8565b5b6000613fa186828701613d45565b9350506020613fb286828701613d45565b9250506040613fc386828701613c90565b9150509250925092565b600080600060608486031215613fe657613fe5613af8565b5b6000613ff486828701613c90565b935050602061400586828701613c90565b925050604061401686828701613c90565b9150509250925092565b6000806040838503121561403757614036613af8565b5b600061404585828601613c90565b925050602061405685828601613c90565b9150509250929050565b61406981613c6f565b82525050565b60006020820190506140846000830184614060565b92915050565b6000806000606084860312156140a3576140a2613af8565b5b60006140b186828701613c90565b93505060206140c286828701613c90565b92505060406140d386828701613d45565b9150509250925092565b600080604083850312156140f4576140f3613af8565b5b600061410285828601613c90565b925050602061411385828601613d45565b9150509250929050565b61412681613b87565b811461413157600080fd5b50565b6000813590506141438161411d565b92915050565b600080604083850312156141605761415f613af8565b5b600061416e85828601613d45565b925050602061417f85828601614134565b9150509250929050565b61419281613dd5565b82525050565b60006040820190506141ad6000830185614060565b6141ba6020830184614189565b9392505050565b600080fd5b600080fd5b7f4e487b7100000000000000000000000000000000000000000000000000000000600052604160045260246000fd5b61420382613c03565b810181811067ffffffffffffffff82111715614222576142216141cb565b5b80604052505050565b6000614235613aee565b905061424182826141fa565b919050565b600067ffffffffffffffff821115614261576142606141cb565b5b61426a82613c03565b9050602081019050919050565b82818337600083830152505050565b600061429961429484614246565b61422b565b9050828152602081018484840111156142b5576142b46141c6565b5b6142c0848285614277565b509392505050565b600082601f8301126142dd576142dc6141c1565b5b81356142ed848260208601614286565b91505092915050565b600080600080608085870312156143105761430f613af8565b5b600061431e87828801613d45565b945050602061432f87828801613d45565b935050604061434087828801613c90565b925050606085013567ffffffffffffffff81111561436157614360613afd565b5b61436d878288016142c8565b91505092959194509250565b600067ffffffffffffffff821115614394576143936141cb565b5b61439d82613c03565b9050602081019050919050565b60006143bd6143b884614379565b61422b565b9050828152602081018484840111156143d9576143d86141c6565b5b6143e4848285614277565b509392505050565b600082601f830112614401576144006141c1565b5b81356144118482602086016143aa565b91505092915050565b60008060006060848603121561443357614432613af8565b5b600084013567ffffffffffffffff81111561445157614450613afd565b5b61445d868287016143ec565b935050602061446e86828701613c90565b925050604061447f86828701613c90565b9150509250925092565b600080604083850312156144a05761449f613af8565b5b60006144ae85828601613d45565b92505060206144bf85828601613d45565b9150509250929050565b7f4e487b7100000000000000000000000000000000000000000000000000000000600052602260045260246000fd5b6000600282049050600182168061451057607f821691505b602082108103614523576145226144c9565b5b50919050565b7f4552433732313a20617070726f76616c20746f2063757272656e74206f776e6560008201527f7200000000000000000000000000000000000000000000000000000000000000602082015250565b6000614585602183613bc8565b915061459082614529565b604082019050919050565b600060208201905081810360008301526145b481614578565b9050919050565b7f4552433732313a20617070726f76652063616c6c6572206973206e6f7420746f60008201527f6b656e206f776e6572206f7220617070726f76656420666f7220616c6c000000602082015250565b6000614617603d83613bc8565b9150614622826145bb565b604082019050919050565b600060208201905081810360008301526146468161460a565b9050919050565b7f4e487b7100000000000000000000000000000000000000000000000000000000600052601160045260246000fd5b600061468782613c6f565b915061469283613c6f565b92508282039050818111156146aa576146a961464d565b5b92915050565b60006146bb82613c6f565b91506146c683613c6f565b92508282019050808211156146de576146dd61464d565b5b92915050565b7f4e487b7100000000000000000000000000000000000000000000000000000000600052603260045260246000fd5b600061471e82613c6f565b91507fffffffffffffffffffffffffffffffffffffffffffffffffffffffffffffffff82036147505761474f61464d565b5b600182019050919050565b7f4552433732313a2063616c6c6572206973206e6f7420746f6b656e206f776e6560008201527f72206f7220617070726f76656400000000000000000000000000000000000000602082015250565b60006147b7602d83613bc8565b91506147c28261475b565b604082019050919050565b600060208201905081810360008301526147e6816147aa565b9050919050565b7f6f6e6c79206f776e6572206f662074686520636f6e74726163742063616e207560008201527f706461746520746865206c697374696e67207072696365000000000000000000602082015250565b6000614849603783613bc8565b9150614854826147ed565b604082019050919050565b600060208201905081810360008301526148788161483c565b9050919050565b7f4e6f2066756e647320746f207769746864726177000000000000000000000000600082015250565b60006148b5601483613bc8565b91506148c08261487f565b602082019050919050565b600060208201905081810360008301526148e4816148a8565b9050919050565b600081905092915050565b50565b60006149066000836148eb565b9150614911826148f6565b600082019050919050565b6000614927826148f9565b9150819050919050565b7f4661696c656420746f2077697468647261772066756e64730000000000000000600082015250565b6000614967601883613bc8565b915061497282614931565b602082019050919050565b600060208201905081810360008301526149968161495a565b9050919050565b60006040820190506149b26000830185614060565b6149bf6020830184613d04565b9392505050565b7f5072696365206d757374206265206174206c6561737420312077656900000000600082015250565b60006149fc601c83613bc8565b9150614a07826149c6565b602082019050919050565b60006020820190508181036000830152614a2b816149ef565b9050919050565b7f5072696365206d757374206265207061696420696e2066756c6c000000000000600082015250565b6000614a68601a83613bc8565b9150614a7382614a32565b602082019050919050565b60006020820190508181036000830152614a9781614a5b565b9050919050565b600060e082019050614ab3600083018a613d04565b614ac06020830189613d04565b614acd6040830188613d04565b614ada6060830187614060565b614ae76080830186614060565b614af460a0830185613b93565b614b0160c0830184613b93565b98975050505050505050565b7f4e465420646f6573206e6f7420657869737420696e206d61726b6574706c616360008201527f6500000000000000000000000000000000000000000000000000000000000000602082015250565b6000614b69602183613bc8565b9150614b7482614b0d565b604082019050919050565b60006020820190508181036000830152614b9881614b5c565b9050919050565b7f43616c6c6572206973206e6f7420746865206f776e6572000000000000000000600082015250565b6000614bd5601783613bc8565b9150614be082614b9f565b602082019050919050565b60006020820190508181036000830152614c0481614bc8565b9050919050565b7f5072696365206d7573742062652067726561746572207468616e207a65726f00600082015250565b6000614c41601f83613bc8565b9150614c4c82614c0b565b602082019050919050565b60006020820190508181036000830152614c7081614c34565b9050919050565b7f4552433732313a20696e76616c696420746f6b656e2049440000000000000000600082015250565b6000614cad601883613bc8565b9150614cb882614c77565b602082019050919050565b60006020820190508181036000830152614cdc81614ca0565b9050919050565b7f4552433732313a2061646472657373207a65726f206973206e6f74206120766160008201527f6c6964206f776e65720000000000000000000000000000000000000000000000602082015250565b6000614d3f602983613bc8565b9150614d4a82614ce3565b604082019050919050565b60006020820190508181036000830152614d6e81614d32565b9050919050565b7f4f6e6c79206f776e65722063616e2072656c697374204e465400000000000000600082015250565b6000614dab601983613bc8565b9150614db682614d75565b602082019050919050565b60006020820190508181036000830152614dda81614d9e565b9050919050565b6000606082019050614df66000830186613d04565b614e036020830185613d04565b614e106040830184614060565b949350505050565b7f506c65617365207375626d6974207468652061736b696e67207072696365206960008201527f6e206f7264657220746f20636f6d706c65746520746865207075726368617365602082015250565b6000614e74604083613bc8565b9150614e7f82614e18565b604082019050919050565b60006020820190508181036000830152614ea381614e67565b9050919050565b600081905092915050565b6000614ec082613bbd565b614eca8185614eaa565b9350614eda818560208601613bd9565b80840191505092915050565b6000614ef28285614eb5565b9150614efe8284614eb5565b91508190509392505050565b7f4552433732313a207472616e736665722066726f6d20696e636f72726563742060008201527f6f776e6572000000000000000000000000000000000000000000000000000000602082015250565b6000614f66602583613bc8565b9150614f7182614f0a565b604082019050919050565b60006020820190508181036000830152614f9581614f59565b9050919050565b7f4552433732313a207472616e7366657220746f20746865207a65726f2061646460008201527f7265737300000000000000000000000000000000000000000000000000000000602082015250565b6000614ff8602483613bc8565b915061500382614f9c565b604082019050919050565b6000602082019050818103600083015261502781614feb565b9050919050565b600060408201905081810360008301526150488185613c14565b90506150576020830184613d04565b9392505050565b600060408201905081810360008301526150788185613c14565b90506150876020830184614060565b9392505050565b7f436f756e7465723a2064656372656d656e74206f766572666c6f770000000000600082015250565b60006150c4601b83613bc8565b91506150cf8261508e565b602082019050919050565b600060208201905081810360008301526150f3816150b7565b9050919050565b7f4552433732313a20617070726f766520746f2063616c6c657200000000000000600082015250565b6000615130601983613bc8565b915061513b826150fa565b602082019050919050565b6000602082019050818103600083015261515f81615123565b9050919050565b7f4552433732313a207472616e7366657220746f206e6f6e20455243373231526560008201527f63656976657220696d706c656d656e7465720000000000000000000000000000602082015250565b60006151c2603283613bc8565b91506151cd82615166565b604082019050919050565b600060208201905081810360008301526151f1816151b5565b9050919050565b7f4552433732313a206d696e7420746f20746865207a65726f2061646472657373600082015250565b600061522e602083613bc8565b9150615239826151f8565b602082019050919050565b6000602082019050818103600083015261525d81615221565b9050919050565b7f4552433732313a20746f6b656e20616c7265616479206d696e74656400000000600082015250565b600061529a601c83613bc8565b91506152a582615264565b602082019050919050565b600060208201905081810360008301526152c98161528d565b9050919050565b7f45524337323155524953746f726167653a2055524920736574206f66206e6f6e60008201527f6578697374656e7420746f6b656e000000000000000000000000000000000000602082015250565b600061532c602e83613bc8565b9150615337826152d0565b604082019050919050565b6000602082019050818103600083015261535b8161531f565b9050919050565b60008190508160005260206000209050919050565b60006020601f8301049050919050565b600082821b905092915050565b6000600883026153c47fffffffffffffffffffffffffffffffffffffffffffffffffffffffffffffffff82615387565b6153ce8683615387565b95508019841693508086168417925050509392505050565b6000819050919050565b600061540b61540661540184613c6f565b6153e6565b613c6f565b9050919050565b6000819050919050565b615425836153f0565b61543961543182615412565b848454615394565b825550505050565b600090565b61544e615441565b61545981848461541c565b505050565b5b8181101561547d57615472600082615446565b60018101905061545f565b5050565b601f8211156154c25761549381615362565b61549c84615377565b810160208510156154ab578190505b6154bf6154b785615377565b83018261545e565b50505b505050565b600082821c905092915050565b60006154e5600019846008026154c7565b1980831691505092915050565b60006154fe83836154d4565b9150826002028217905092915050565b61551782613bbd565b67ffffffffffffffff8111156155305761552f6141cb565b5b61553a82546144f8565b615545828285615481565b600060209050601f8311600181146155785760008415615566578287015190505b61557085826154f2565b8655506155d8565b601f19841661558686615362565b60005b828110156155ae57848901518255600182019150602085019450602081019050615589565b868310156155cb57848901516155c7601f8916826154d4565b8355505b6001600288020188555050505b505050505050565b600081519050919050565b600082825260208201905092915050565b6000615607826155e0565b61561181856155eb565b9350615621818560208601613bd9565b61562a81613c03565b840191505092915050565b600060808201905061564a6000830187613d04565b6156576020830186613d04565b6156646040830185614060565b818103606083015261567681846155fc565b905095945050505050565b60008151905061569081613b2e565b92915050565b6000602082840312156156ac576156ab613af8565b5b60006156ba84828501615681565b91505092915050565b7f4e487b7100000000000000000000000000000000000000000000000000000000600052601260045260246000fd5b7f4e487b7100000000000000000000000000000000000000000000000000000000600052605160045260246000fdfe437265617465204d61726b6574204974656d2046756e6374696f6e2043616c6c65723a20a26469706673582212208f433410b027c64a6c61118581fcd035698a15fad982f3e63a4f33b03f180a1e64736f6c63430008130033",
  "linkReferences": {},
  "deployedLinkReferences": {}
}