{
  "_format": "hh-sol-artifact-1",
  "contractName": "Marketplace",
  "sourceName": "contracts/Marketplace.sol",
  "abi": [
    {
      "inputs": [],
      "stateMutability": "nonpayable",
      "type": "constructor"
    },
    {
      "anonymous": false,
      "inputs": [
        {
          "indexed": true,
          "internalType": "address",
          "name": "owner",
          "type": "address"
        },
        {
          "indexed": true,
          "internalType": "address",
          "name": "approved",
          "type": "address"
        },
        {
          "indexed": true,
          "internalType": "uint256",
          "name": "tokenId",
          "type": "uint256"
        }
      ],
      "name": "Approval",
      "type": "event"
    },
    {
      "anonymous": false,
      "inputs": [
        {
          "indexed": true,
          "internalType": "address",
          "name": "owner",
          "type": "address"
        },
        {
          "indexed": true,
          "internalType": "address",
          "name": "operator",
          "type": "address"
        },
        {
          "indexed": false,
          "internalType": "bool",
          "name": "approved",
          "type": "bool"
        }
      ],
      "name": "ApprovalForAll",
      "type": "event"
    },
    {
      "anonymous": false,
      "inputs": [
        {
          "indexed": false,
          "internalType": "uint256",
          "name": "_fromTokenId",
          "type": "uint256"
        },
        {
          "indexed": false,
          "internalType": "uint256",
          "name": "_toTokenId",
          "type": "uint256"
        }
      ],
      "name": "BatchMetadataUpdate",
      "type": "event"
    },
    {
      "anonymous": false,
      "inputs": [
        {
          "indexed": false,
          "internalType": "uint256",
          "name": "amount",
          "type": "uint256"
        },
        {
          "indexed": false,
          "internalType": "address",
          "name": "targetWallet",
          "type": "address"
        }
      ],
      "name": "FundsWithdrawn",
      "type": "event"
    },
    {
      "anonymous": false,
      "inputs": [
        {
          "indexed": true,
          "internalType": "uint256",
          "name": "tokenId",
          "type": "uint256"
        },
        {
          "indexed": false,
          "internalType": "address",
          "name": "originalOwner",
          "type": "address"
        },
        {
          "indexed": false,
          "internalType": "address",
          "name": "seller",
          "type": "address"
        },
        {
          "indexed": false,
          "internalType": "address",
          "name": "owner",
          "type": "address"
        },
        {
          "indexed": false,
          "internalType": "uint256",
          "name": "royaltyPercentage",
          "type": "uint256"
        },
        {
          "indexed": false,
          "internalType": "uint256",
          "name": "price",
          "type": "uint256"
        },
        {
          "indexed": false,
          "internalType": "bool",
          "name": "auction",
          "type": "bool"
        },
        {
          "indexed": false,
          "internalType": "bool",
          "name": "sold",
          "type": "bool"
        }
      ],
      "name": "MarketItemCreated",
      "type": "event"
    },
    {
      "anonymous": false,
      "inputs": [
        {
          "indexed": false,
          "internalType": "uint256",
          "name": "_tokenId",
          "type": "uint256"
        }
      ],
      "name": "MetadataUpdate",
      "type": "event"
    },
    {
      "anonymous": false,
      "inputs": [
        {
          "indexed": false,
          "internalType": "uint256",
          "name": "nftId",
          "type": "uint256"
        },
        {
          "indexed": false,
          "internalType": "address",
          "name": "auctionWinner",
          "type": "address"
        }
      ],
      "name": "NFTTransferred",
      "type": "event"
    },
    {
      "anonymous": false,
      "inputs": [
        {
          "indexed": true,
          "internalType": "address",
          "name": "from",
          "type": "address"
        },
        {
          "indexed": true,
          "internalType": "address",
          "name": "to",
          "type": "address"
        },
        {
          "indexed": true,
          "internalType": "uint256",
          "name": "tokenId",
          "type": "uint256"
        }
      ],
      "name": "Transfer",
      "type": "event"
    },
    {
      "inputs": [
        {
          "internalType": "address",
          "name": "to",
          "type": "address"
        },
        {
          "internalType": "uint256",
          "name": "tokenId",
          "type": "uint256"
        }
      ],
      "name": "approve",
      "outputs": [],
      "stateMutability": "nonpayable",
      "type": "function"
    },
    {
      "inputs": [
        {
          "internalType": "address",
          "name": "owner",
          "type": "address"
        }
      ],
      "name": "balanceOf",
      "outputs": [
        {
          "internalType": "uint256",
          "name": "",
          "type": "uint256"
        }
      ],
      "stateMutability": "view",
      "type": "function"
    },
    {
      "inputs": [
        {
          "internalType": "uint256",
          "name": "tokenId",
          "type": "uint256"
        },
        {
          "internalType": "uint256",
          "name": "royaltyPercentage",
          "type": "uint256"
        },
        {
          "internalType": "uint256",
          "name": "price",
          "type": "uint256"
        }
      ],
      "name": "createMarketItem",
      "outputs": [],
      "stateMutability": "payable",
      "type": "function"
    },
    {
      "inputs": [
        {
          "internalType": "uint256",
          "name": "tokenId",
          "type": "uint256"
        }
      ],
      "name": "createMarketSale",
      "outputs": [],
      "stateMutability": "payable",
      "type": "function"
    },
    {
      "inputs": [
        {
          "internalType": "string",
          "name": "tokenURI",
          "type": "string"
        },
        {
          "internalType": "uint256",
          "name": "royaltyPercentage",
          "type": "uint256"
        },
        {
          "internalType": "uint256",
          "name": "price",
          "type": "uint256"
        }
      ],
      "name": "createToken",
      "outputs": [
        {
          "internalType": "uint256",
          "name": "",
          "type": "uint256"
        }
      ],
      "stateMutability": "payable",
      "type": "function"
    },
    {
      "inputs": [],
      "name": "fetchItemsListed",
      "outputs": [
        {
          "components": [
            {
              "internalType": "uint256",
              "name": "tokenId",
              "type": "uint256"
            },
            {
              "internalType": "address payable",
              "name": "originalOwner",
              "type": "address"
            },
            {
              "internalType": "address payable",
              "name": "seller",
              "type": "address"
            },
            {
              "internalType": "address payable",
              "name": "owner",
              "type": "address"
            },
            {
              "internalType": "uint256",
              "name": "royaltyPercentage",
              "type": "uint256"
            },
            {
              "internalType": "uint256",
              "name": "price",
              "type": "uint256"
            },
            {
              "internalType": "bool",
              "name": "auction",
              "type": "bool"
            },
            {
              "internalType": "bool",
              "name": "sold",
              "type": "bool"
            }
          ],
          "internalType": "struct Marketplace.MarketItem[]",
          "name": "",
          "type": "tuple[]"
        }
      ],
      "stateMutability": "view",
      "type": "function"
    },
    {
      "inputs": [],
      "name": "fetchMarketItems",
      "outputs": [
        {
          "components": [
            {
              "internalType": "uint256",
              "name": "tokenId",
              "type": "uint256"
            },
            {
              "internalType": "address payable",
              "name": "originalOwner",
              "type": "address"
            },
            {
              "internalType": "address payable",
              "name": "seller",
              "type": "address"
            },
            {
              "internalType": "address payable",
              "name": "owner",
              "type": "address"
            },
            {
              "internalType": "uint256",
              "name": "royaltyPercentage",
              "type": "uint256"
            },
            {
              "internalType": "uint256",
              "name": "price",
              "type": "uint256"
            },
            {
              "internalType": "bool",
              "name": "auction",
              "type": "bool"
            },
            {
              "internalType": "bool",
              "name": "sold",
              "type": "bool"
            }
          ],
          "internalType": "struct Marketplace.MarketItem[]",
          "name": "",
          "type": "tuple[]"
        }
      ],
      "stateMutability": "view",
      "type": "function"
    },
    {
      "inputs": [],
      "name": "fetchMyNFT",
      "outputs": [
        {
          "components": [
            {
              "internalType": "uint256",
              "name": "tokenId",
              "type": "uint256"
            },
            {
              "internalType": "address payable",
              "name": "originalOwner",
              "type": "address"
            },
            {
              "internalType": "address payable",
              "name": "seller",
              "type": "address"
            },
            {
              "internalType": "address payable",
              "name": "owner",
              "type": "address"
            },
            {
              "internalType": "uint256",
              "name": "royaltyPercentage",
              "type": "uint256"
            },
            {
              "internalType": "uint256",
              "name": "price",
              "type": "uint256"
            },
            {
              "internalType": "bool",
              "name": "auction",
              "type": "bool"
            },
            {
              "internalType": "bool",
              "name": "sold",
              "type": "bool"
            }
          ],
          "internalType": "struct Marketplace.MarketItem[]",
          "name": "",
          "type": "tuple[]"
        }
      ],
      "stateMutability": "view",
      "type": "function"
    },
    {
      "inputs": [
        {
          "internalType": "uint256",
          "name": "tokenId",
          "type": "uint256"
        }
      ],
      "name": "getApproved",
      "outputs": [
        {
          "internalType": "address",
          "name": "",
          "type": "address"
        }
      ],
      "stateMutability": "view",
      "type": "function"
    },
    {
      "inputs": [
        {
          "internalType": "uint256",
          "name": "tokenId",
          "type": "uint256"
        }
      ],
      "name": "getRoyaltyData",
      "outputs": [
        {
          "internalType": "uint256",
          "name": "",
          "type": "uint256"
        },
        {
          "internalType": "address payable",
          "name": "",
          "type": "address"
        }
      ],
      "stateMutability": "view",
      "type": "function"
    },
    {
      "inputs": [
        {
          "internalType": "uint256",
          "name": "tokenId",
          "type": "uint256"
        },
        {
          "internalType": "address",
          "name": "winner",
          "type": "address"
        }
      ],
      "name": "handleAuctionEnd",
      "outputs": [],
      "stateMutability": "nonpayable",
      "type": "function"
    },
    {
      "inputs": [
        {
          "internalType": "address",
          "name": "owner",
          "type": "address"
        },
        {
          "internalType": "address",
          "name": "operator",
          "type": "address"
        }
      ],
      "name": "isApprovedForAll",
      "outputs": [
        {
          "internalType": "bool",
          "name": "",
          "type": "bool"
        }
      ],
      "stateMutability": "view",
      "type": "function"
    },
    {
      "inputs": [],
      "name": "name",
      "outputs": [
        {
          "internalType": "string",
          "name": "",
          "type": "string"
        }
      ],
      "stateMutability": "view",
      "type": "function"
    },
    {
      "inputs": [
        {
          "internalType": "uint256",
          "name": "tokenId",
          "type": "uint256"
        }
      ],
      "name": "ownerOf",
      "outputs": [
        {
          "internalType": "address",
          "name": "",
          "type": "address"
        }
      ],
      "stateMutability": "view",
      "type": "function"
    },
    {
      "inputs": [
        {
          "internalType": "uint256",
          "name": "tokenId",
          "type": "uint256"
        },
        {
          "internalType": "uint256",
          "name": "price",
          "type": "uint256"
        }
      ],
      "name": "resellMarketItem",
      "outputs": [],
      "stateMutability": "payable",
      "type": "function"
    },
    {
      "inputs": [
        {
          "internalType": "address",
          "name": "from",
          "type": "address"
        },
        {
          "internalType": "address",
          "name": "to",
          "type": "address"
        },
        {
          "internalType": "uint256",
          "name": "tokenId",
          "type": "uint256"
        }
      ],
      "name": "safeTransferFrom",
      "outputs": [],
      "stateMutability": "nonpayable",
      "type": "function"
    },
    {
      "inputs": [
        {
          "internalType": "address",
          "name": "from",
          "type": "address"
        },
        {
          "internalType": "address",
          "name": "to",
          "type": "address"
        },
        {
          "internalType": "uint256",
          "name": "tokenId",
          "type": "uint256"
        },
        {
          "internalType": "bytes",
          "name": "data",
          "type": "bytes"
        }
      ],
      "name": "safeTransferFrom",
      "outputs": [],
      "stateMutability": "nonpayable",
      "type": "function"
    },
    {
      "inputs": [
        {
          "internalType": "address",
          "name": "operator",
          "type": "address"
        },
        {
          "internalType": "bool",
          "name": "approved",
          "type": "bool"
        }
      ],
      "name": "setApprovalForAll",
      "outputs": [],
      "stateMutability": "nonpayable",
      "type": "function"
    },
    {
      "inputs": [
        {
          "internalType": "address",
          "name": "auctionFactoryAddress",
          "type": "address"
        }
      ],
      "name": "setAuctionFactoryAddress",
      "outputs": [],
      "stateMutability": "nonpayable",
      "type": "function"
    },
    {
      "inputs": [
        {
          "internalType": "bytes4",
          "name": "interfaceId",
          "type": "bytes4"
        }
      ],
      "name": "supportsInterface",
      "outputs": [
        {
          "internalType": "bool",
          "name": "",
          "type": "bool"
        }
      ],
      "stateMutability": "view",
      "type": "function"
    },
    {
      "inputs": [],
      "name": "symbol",
      "outputs": [
        {
          "internalType": "string",
          "name": "",
          "type": "string"
        }
      ],
      "stateMutability": "view",
      "type": "function"
    },
    {
      "inputs": [
        {
          "internalType": "uint256",
          "name": "tokenId",
          "type": "uint256"
        }
      ],
      "name": "tokenURI",
      "outputs": [
        {
          "internalType": "string",
          "name": "",
          "type": "string"
        }
      ],
      "stateMutability": "view",
      "type": "function"
    },
    {
      "inputs": [
        {
          "internalType": "address",
          "name": "from",
          "type": "address"
        },
        {
          "internalType": "address",
          "name": "to",
          "type": "address"
        },
        {
          "internalType": "uint256",
          "name": "tokenId",
          "type": "uint256"
        }
      ],
      "name": "transferFrom",
      "outputs": [],
      "stateMutability": "nonpayable",
      "type": "function"
    },
    {
      "inputs": [
        {
          "internalType": "uint256",
          "name": "_listingPrice",
          "type": "uint256"
        }
      ],
      "name": "updateListingPrice",
      "outputs": [],
      "stateMutability": "payable",
      "type": "function"
    },
    {
      "inputs": [],
      "name": "withdrawFunds",
      "outputs": [],
      "stateMutability": "nonpayable",
      "type": "function"
    }
  ],
  "bytecode": "0x60806040526608e1bc9bf04000600a553480156200001c57600080fd5b506040518060400160405280601381526020017f4e4654204d657461766572736520546f6b656e000000000000000000000000008152506040518060400160405280600581526020017f4d594e465400000000000000000000000000000000000000000000000000000081525081600090816200009a919062000378565b508060019081620000ac919062000378565b505050600160078190555033600b60006101000a81548173ffffffffffffffffffffffffffffffffffffffff021916908373ffffffffffffffffffffffffffffffffffffffff1602179055506200045f565b600081519050919050565b7f4e487b7100000000000000000000000000000000000000000000000000000000600052604160045260246000fd5b7f4e487b7100000000000000000000000000000000000000000000000000000000600052602260045260246000fd5b600060028204905060018216806200018057607f821691505b60208210810362000196576200019562000138565b5b50919050565b60008190508160005260206000209050919050565b60006020601f8301049050919050565b600082821b905092915050565b600060088302620002007fffffffffffffffffffffffffffffffffffffffffffffffffffffffffffffffff82620001c1565b6200020c8683620001c1565b95508019841693508086168417925050509392505050565b6000819050919050565b6000819050919050565b600062000259620002536200024d8462000224565b6200022e565b62000224565b9050919050565b6000819050919050565b620002758362000238565b6200028d620002848262000260565b848454620001ce565b825550505050565b600090565b620002a462000295565b620002b18184846200026a565b505050565b5b81811015620002d957620002cd6000826200029a565b600181019050620002b7565b5050565b601f8211156200032857620002f2816200019c565b620002fd84620001b1565b810160208510156200030d578190505b620003256200031c85620001b1565b830182620002b6565b50505b505050565b600082821c905092915050565b60006200034d600019846008026200032d565b1980831691505092915050565b60006200036883836200033a565b9150826002028217905092915050565b6200038382620000fe565b67ffffffffffffffff8111156200039f576200039e62000109565b5b620003ab825462000167565b620003b8828285620002dd565b600060209050601f831160018114620003f05760008415620003db578287015190505b620003e785826200035a565b86555062000457565b601f19841662000400866200019c565b60005b828110156200042a5784890151825560018201915060208501945060208101905062000403565b868310156200044a578489015162000446601f8916826200033a565b8355505b6001600288020188555050505b505050505050565b614e3f806200046f6000396000f3fe6080604052600436106101665760003560e01c80636b52d832116100d1578063ae677aa31161008a578063bec2a7c511610064578063bec2a7c5146104ef578063c18763f71461051f578063c87b56dd1461054a578063e985e9c51461058757610166565b8063ae677aa31461048e578063b88d4fde146104aa578063be9af536146104d357610166565b80636b52d8321461037a57806370a08231146103965780638f329b31146103d357806395d89b41146103fc578063a22cb46514610427578063a65ff74c1461045057610166565b806323b872dd1161012357806323b872dd1461028d57806324600fc3146102b6578063320343da146102cd57806342842e0e146102e957806345f8fa80146103125780636352211e1461033d57610166565b806301ffc9a71461016b57806306fdde03146101a8578063081812fc146101d3578063095ea7b3146102105780630f08efe0146102395780631cb8813314610264575b600080fd5b34801561017757600080fd5b50610192600480360381019061018d919061340d565b6105c4565b60405161019f9190613455565b60405180910390f35b3480156101b457600080fd5b506101bd610625565b6040516101ca9190613500565b60405180910390f35b3480156101df57600080fd5b506101fa60048036038101906101f59190613558565b6106b7565b60405161020791906135c6565b60405180910390f35b34801561021c57600080fd5b506102376004803603810190610232919061360d565b6106fd565b005b34801561024557600080fd5b5061024e610814565b60405161025b91906137de565b60405180910390f35b34801561027057600080fd5b5061028b60048036038101906102869190613800565b610af8565b005b34801561029957600080fd5b506102b460048036038101906102af919061382d565b610b3c565b005b3480156102c257600080fd5b506102cb610b9c565b005b6102e760048036038101906102e29190613880565b610d7f565b005b3480156102f557600080fd5b50610310600480360381019061030b919061382d565b611049565b005b34801561031e57600080fd5b50610327611069565b60405161033491906137de565b60405180910390f35b34801561034957600080fd5b50610364600480360381019061035f9190613558565b6113d1565b60405161037191906135c6565b60405180910390f35b610394600480360381019061038f91906138d3565b611457565b005b3480156103a257600080fd5b506103bd60048036038101906103b89190613800565b611608565b6040516103ca9190613922565b60405180910390f35b3480156103df57600080fd5b506103fa60048036038101906103f5919061393d565b6116bf565b005b34801561040857600080fd5b506104116117c0565b60405161041e9190613500565b60405180910390f35b34801561043357600080fd5b5061044e600480360381019061044991906139a9565b611852565b005b34801561045c57600080fd5b5061047760048036038101906104729190613558565b611868565b6040516104859291906139f8565b60405180910390f35b6104a860048036038101906104a39190613558565b6119f8565b005b3480156104b657600080fd5b506104d160048036038101906104cc9190613b56565b611a92565b005b6104ed60048036038101906104e89190613558565b611af4565b005b61050960048036038101906105049190613c7a565b611cd6565b6040516105169190613922565b60405180910390f35b34801561052b57600080fd5b50610534611d59565b60405161054191906137de565b60405180910390f35b34801561055657600080fd5b50610571600480360381019061056c9190613558565b6120c1565b60405161057e9190613500565b60405180910390f35b34801561059357600080fd5b506105ae60048036038101906105a99190613ce9565b6121d3565b6040516105bb9190613455565b60405180910390f35b6000634906490660e01b7bffffffffffffffffffffffffffffffffffffffffffffffffffffffff1916827bffffffffffffffffffffffffffffffffffffffffffffffffffffffff1916148061061e575061061d82612267565b5b9050919050565b60606000805461063490613d58565b80601f016020809104026020016040519081016040528092919081815260200182805461066090613d58565b80156106ad5780601f10610682576101008083540402835291602001916106ad565b820191906000526020600020905b81548152906001019060200180831161069057829003601f168201915b5050505050905090565b60006106c282612349565b6004600083815260200190815260200160002060009054906101000a900473ffffffffffffffffffffffffffffffffffffffff169050919050565b6000610708826113d1565b90508073ffffffffffffffffffffffffffffffffffffffff168373ffffffffffffffffffffffffffffffffffffffff1603610778576040517f08c379a000000000000000000000000000000000000000000000000000000000815260040161076f90613dfb565b60405180910390fd5b8073ffffffffffffffffffffffffffffffffffffffff16610797612394565b73ffffffffffffffffffffffffffffffffffffffff1614806107c657506107c5816107c0612394565b6121d3565b5b610805576040517f08c379a00000000000000000000000000000000000000000000000000000000081526004016107fc90613e8d565b60405180910390fd5b61080f838361239c565b505050565b606060006108226008612455565b905060006108306009612455565b61083a6008612455565b6108449190613edc565b90506000808267ffffffffffffffff81111561086357610862613a2b565b5b60405190808252806020026020018201604052801561089c57816020015b61088961330c565b8152602001906001900390816108815790505b50905060005b84811015610aed573073ffffffffffffffffffffffffffffffffffffffff16600d60006001846108d29190613f10565b815260200190815260200160002060030160009054906101000a900473ffffffffffffffffffffffffffffffffffffffff1673ffffffffffffffffffffffffffffffffffffffff1603610ada57600060018261092e9190613f10565b90506000600d600083815260200190815260200160002090508060405180610100016040529081600082015481526020016001820160009054906101000a900473ffffffffffffffffffffffffffffffffffffffff1673ffffffffffffffffffffffffffffffffffffffff1673ffffffffffffffffffffffffffffffffffffffff1681526020016002820160009054906101000a900473ffffffffffffffffffffffffffffffffffffffff1673ffffffffffffffffffffffffffffffffffffffff1673ffffffffffffffffffffffffffffffffffffffff1681526020016003820160009054906101000a900473ffffffffffffffffffffffffffffffffffffffff1673ffffffffffffffffffffffffffffffffffffffff1673ffffffffffffffffffffffffffffffffffffffff16815260200160048201548152602001600582015481526020016006820160009054906101000a900460ff161515151581526020016006820160019054906101000a900460ff161515151581525050848681518110610abd57610abc613f44565b5b6020026020010181905250600185610ad59190613f10565b945050505b8080610ae590613f73565b9150506108a2565b508094505050505090565b80600c60006101000a81548173ffffffffffffffffffffffffffffffffffffffff021916908373ffffffffffffffffffffffffffffffffffffffff16021790555050565b610b4d610b47612394565b82612463565b610b8c576040517f08c379a0000000000000000000000000000000000000000000000000000000008152600401610b839061402d565b60405180910390fd5b610b978383836124f8565b505050565b600b60009054906101000a900473ffffffffffffffffffffffffffffffffffffffff1673ffffffffffffffffffffffffffffffffffffffff163373ffffffffffffffffffffffffffffffffffffffff1614610c2c576040517f08c379a0000000000000000000000000000000000000000000000000000000008152600401610c23906140bf565b60405180910390fd5b600047905060008111610c74576040517f08c379a0000000000000000000000000000000000000000000000000000000008152600401610c6b9061412b565b60405180910390fd5b6000600b60009054906101000a900473ffffffffffffffffffffffffffffffffffffffff1673ffffffffffffffffffffffffffffffffffffffff1682604051610cbc9061417c565b60006040518083038185875af1925050503d8060008114610cf9576040519150601f19603f3d011682016040523d82523d6000602084013e610cfe565b606091505b5050905080610d42576040517f08c379a0000000000000000000000000000000000000000000000000000000008152600401610d39906141dd565b60405180910390fd5b7f6141b54b56b8a52a8c6f5cd2a857f6117b18ffbf4d46bd3106f300a839cbf5ea8233604051610d739291906141fd565b60405180910390a15050565b610da1604051806060016040528060228152602001614de860229139336127f1565b60008111610de4576040517f08c379a0000000000000000000000000000000000000000000000000000000008152600401610ddb90614272565b60405180910390fd5b600a543414610e28576040517f08c379a0000000000000000000000000000000000000000000000000000000008152600401610e1f906142de565b60405180910390fd5b6040518061010001604052808481526020013373ffffffffffffffffffffffffffffffffffffffff1681526020013373ffffffffffffffffffffffffffffffffffffffff1681526020013073ffffffffffffffffffffffffffffffffffffffff16815260200183815260200182815260200160001515815260200160001515815250600d60008581526020019081526020016000206000820151816000015560208201518160010160006101000a81548173ffffffffffffffffffffffffffffffffffffffff021916908373ffffffffffffffffffffffffffffffffffffffff16021790555060408201518160020160006101000a81548173ffffffffffffffffffffffffffffffffffffffff021916908373ffffffffffffffffffffffffffffffffffffffff16021790555060608201518160030160006101000a81548173ffffffffffffffffffffffffffffffffffffffff021916908373ffffffffffffffffffffffffffffffffffffffff1602179055506080820151816004015560a0820151816005015560c08201518160060160006101000a81548160ff02191690831515021790555060e08201518160060160016101000a81548160ff021916908315150217905550905050610ffe3330856124f8565b827f6be207084465b1afd1fb9af05976e6d285e34a16bc67aaa8e62ebbbf7c406aac33336000868660008060405161103c97969594939291906142fe565b60405180910390a2505050565b61106483838360405180602001604052806000815250611a92565b505050565b606060006110776008612455565b905060008060005b8381101561111f573373ffffffffffffffffffffffffffffffffffffffff16600d60006001846110af9190613f10565b815260200190815260200160002060020160009054906101000a900473ffffffffffffffffffffffffffffffffffffffff1673ffffffffffffffffffffffffffffffffffffffff160361110c576001836111099190613f10565b92505b808061111790613f73565b91505061107f565b5060008267ffffffffffffffff81111561113c5761113b613a2b565b5b60405190808252806020026020018201604052801561117557816020015b61116261330c565b81526020019060019003908161115a5790505b50905060005b848110156113c6573373ffffffffffffffffffffffffffffffffffffffff16600d60006001846111ab9190613f10565b815260200190815260200160002060020160009054906101000a900473ffffffffffffffffffffffffffffffffffffffff1673ffffffffffffffffffffffffffffffffffffffff16036113b35760006001826112079190613f10565b90506000600d600083815260200190815260200160002090508060405180610100016040529081600082015481526020016001820160009054906101000a900473ffffffffffffffffffffffffffffffffffffffff1673ffffffffffffffffffffffffffffffffffffffff1673ffffffffffffffffffffffffffffffffffffffff1681526020016002820160009054906101000a900473ffffffffffffffffffffffffffffffffffffffff1673ffffffffffffffffffffffffffffffffffffffff1673ffffffffffffffffffffffffffffffffffffffff1681526020016003820160009054906101000a900473ffffffffffffffffffffffffffffffffffffffff1673ffffffffffffffffffffffffffffffffffffffff1673ffffffffffffffffffffffffffffffffffffffff16815260200160048201548152602001600582015481526020016006820160009054906101000a900460ff161515151581526020016006820160019054906101000a900460ff16151515158152505084868151811061139657611395613f44565b5b60200260200101819052506001856113ae9190613f10565b945050505b80806113be90613f73565b91505061117b565b508094505050505090565b6000806113dd8361288d565b9050600073ffffffffffffffffffffffffffffffffffffffff168173ffffffffffffffffffffffffffffffffffffffff160361144e576040517f08c379a0000000000000000000000000000000000000000000000000000000008152600401611445906143b9565b60405180910390fd5b80915050919050565b3373ffffffffffffffffffffffffffffffffffffffff16600d600084815260200190815260200160002060030160009054906101000a900473ffffffffffffffffffffffffffffffffffffffff1673ffffffffffffffffffffffffffffffffffffffff16146114fb576040517f08c379a00000000000000000000000000000000000000000000000000000000081526004016114f290614425565b60405180910390fd5b6000600d600084815260200190815260200160002060060160016101000a81548160ff02191690831515021790555080600d60008481526020019081526020016000206005018190555033600d600084815260200190815260200160002060020160006101000a81548173ffffffffffffffffffffffffffffffffffffffff021916908373ffffffffffffffffffffffffffffffffffffffff16021790555030600d600084815260200190815260200160002060030160006101000a81548173ffffffffffffffffffffffffffffffffffffffff021916908373ffffffffffffffffffffffffffffffffffffffff1602179055506115f960096128ca565b6116043330846124f8565b5050565b60008073ffffffffffffffffffffffffffffffffffffffff168273ffffffffffffffffffffffffffffffffffffffff1603611678576040517f08c379a000000000000000000000000000000000000000000000000000000000815260040161166f906144b7565b60405180910390fd5b600360008373ffffffffffffffffffffffffffffffffffffffff1673ffffffffffffffffffffffffffffffffffffffff168152602001908152602001600020549050919050565b3073ffffffffffffffffffffffffffffffffffffffff166342842e0e3083856040518463ffffffff1660e01b81526004016116fc939291906144d7565b600060405180830381600087803b15801561171657600080fd5b505af115801561172a573d6000803e3d6000fd5b5050505080600d600084815260200190815260200160002060030160006101000a81548173ffffffffffffffffffffffffffffffffffffffff021916908373ffffffffffffffffffffffffffffffffffffffff1602179055507f20665ee57a5e13af162123968d777ccebe86531a21e53d08afc78138a950192d82826040516117b49291906141fd565b60405180910390a15050565b6060600180546117cf90613d58565b80601f01602080910402602001604051908101604052809291908181526020018280546117fb90613d58565b80156118485780601f1061181d57610100808354040283529160200191611848565b820191906000526020600020905b81548152906001019060200180831161182b57829003601f168201915b5050505050905090565b61186461185d612394565b8383612926565b5050565b6000806000600d600085815260200190815260200160002060405180610100016040529081600082015481526020016001820160009054906101000a900473ffffffffffffffffffffffffffffffffffffffff1673ffffffffffffffffffffffffffffffffffffffff1673ffffffffffffffffffffffffffffffffffffffff1681526020016002820160009054906101000a900473ffffffffffffffffffffffffffffffffffffffff1673ffffffffffffffffffffffffffffffffffffffff1673ffffffffffffffffffffffffffffffffffffffff1681526020016003820160009054906101000a900473ffffffffffffffffffffffffffffffffffffffff1673ffffffffffffffffffffffffffffffffffffffff1673ffffffffffffffffffffffffffffffffffffffff16815260200160048201548152602001600582015481526020016006820160009054906101000a900460ff161515151581526020016006820160019054906101000a900460ff1615151515815250509050806080015181602001519250925050915091565b600b60009054906101000a900473ffffffffffffffffffffffffffffffffffffffff1673ffffffffffffffffffffffffffffffffffffffff163373ffffffffffffffffffffffffffffffffffffffff1614611a88576040517f08c379a0000000000000000000000000000000000000000000000000000000008152600401611a7f906140bf565b60405180910390fd5b80600a8190555050565b611aa3611a9d612394565b83612463565b611ae2576040517f08c379a0000000000000000000000000000000000000000000000000000000008152600401611ad99061402d565b60405180910390fd5b611aee84848484612a92565b50505050565b6000600d6000838152602001908152602001600020600501549050803414611b51576040517f08c379a0000000000000000000000000000000000000000000000000000000008152600401611b4890614580565b60405180910390fd5b33600d600084815260200190815260200160002060030160006101000a81548173ffffffffffffffffffffffffffffffffffffffff021916908373ffffffffffffffffffffffffffffffffffffffff1602179055506001600d600084815260200190815260200160002060060160016101000a81548160ff021916908315150217905550611bdf6009612aee565b611bea3033846124f8565b600b60009054906101000a900473ffffffffffffffffffffffffffffffffffffffff1673ffffffffffffffffffffffffffffffffffffffff166108fc600a549081150290604051600060405180830381858888f19350505050158015611c54573d6000803e3d6000fd5b50600d600083815260200190815260200160002060020160009054906101000a900473ffffffffffffffffffffffffffffffffffffffff1673ffffffffffffffffffffffffffffffffffffffff166108fc349081150290604051600060405180830381858888f19350505050158015611cd1573d6000803e3d6000fd5b505050565b6000611d176040518060400160405280601d81526020017f637265617465546f6b656e2066756e6374696f6e2063616c6c65723a20000000815250336127f1565b611d216008612aee565b6000611d2d6008612455565b9050611d393382612b04565b611d438186612d21565b611d4e818585610d7f565b809150509392505050565b60606000611d676008612455565b905060008060005b83811015611e0f573373ffffffffffffffffffffffffffffffffffffffff16600d6000600184611d9f9190613f10565b815260200190815260200160002060030160009054906101000a900473ffffffffffffffffffffffffffffffffffffffff1673ffffffffffffffffffffffffffffffffffffffff1603611dfc57600183611df99190613f10565b92505b8080611e0790613f73565b915050611d6f565b5060008267ffffffffffffffff811115611e2c57611e2b613a2b565b5b604051908082528060200260200182016040528015611e6557816020015b611e5261330c565b815260200190600190039081611e4a5790505b50905060005b848110156120b6573373ffffffffffffffffffffffffffffffffffffffff16600d6000600184611e9b9190613f10565b815260200190815260200160002060030160009054906101000a900473ffffffffffffffffffffffffffffffffffffffff1673ffffffffffffffffffffffffffffffffffffffff16036120a3576000600182611ef79190613f10565b90506000600d600083815260200190815260200160002090508060405180610100016040529081600082015481526020016001820160009054906101000a900473ffffffffffffffffffffffffffffffffffffffff1673ffffffffffffffffffffffffffffffffffffffff1673ffffffffffffffffffffffffffffffffffffffff1681526020016002820160009054906101000a900473ffffffffffffffffffffffffffffffffffffffff1673ffffffffffffffffffffffffffffffffffffffff1673ffffffffffffffffffffffffffffffffffffffff1681526020016003820160009054906101000a900473ffffffffffffffffffffffffffffffffffffffff1673ffffffffffffffffffffffffffffffffffffffff1673ffffffffffffffffffffffffffffffffffffffff16815260200160048201548152602001600582015481526020016006820160009054906101000a900460ff161515151581526020016006820160019054906101000a900460ff16151515158152505084868151811061208657612085613f44565b5b602002602001018190525060018561209e9190613f10565b945050505b80806120ae90613f73565b915050611e6b565b508094505050505090565b60606120cc82612349565b60006006600084815260200190815260200160002080546120ec90613d58565b80601f016020809104026020016040519081016040528092919081815260200182805461211890613d58565b80156121655780601f1061213a57610100808354040283529160200191612165565b820191906000526020600020905b81548152906001019060200180831161214857829003601f168201915b505050505090506000612176612dc5565b9050600081510361218b5781925050506121ce565b6000825111156121c05780826040516020016121a89291906145dc565b604051602081830303815290604052925050506121ce565b6121c984612ddc565b925050505b919050565b6000600560008473ffffffffffffffffffffffffffffffffffffffff1673ffffffffffffffffffffffffffffffffffffffff16815260200190815260200160002060008373ffffffffffffffffffffffffffffffffffffffff1673ffffffffffffffffffffffffffffffffffffffff16815260200190815260200160002060009054906101000a900460ff16905092915050565b60007f80ac58cd000000000000000000000000000000000000000000000000000000007bffffffffffffffffffffffffffffffffffffffffffffffffffffffff1916827bffffffffffffffffffffffffffffffffffffffffffffffffffffffff1916148061233257507f5b5e139f000000000000000000000000000000000000000000000000000000007bffffffffffffffffffffffffffffffffffffffffffffffffffffffff1916827bffffffffffffffffffffffffffffffffffffffffffffffffffffffff1916145b80612342575061234182612e44565b5b9050919050565b61235281612eae565b612391576040517f08c379a0000000000000000000000000000000000000000000000000000000008152600401612388906143b9565b60405180910390fd5b50565b600033905090565b816004600083815260200190815260200160002060006101000a81548173ffffffffffffffffffffffffffffffffffffffff021916908373ffffffffffffffffffffffffffffffffffffffff160217905550808273ffffffffffffffffffffffffffffffffffffffff1661240f836113d1565b73ffffffffffffffffffffffffffffffffffffffff167f8c5be1e5ebec7d5bd14f71427d1e84f3dd0314c0f7b2291e5b200ac8c7c3b92560405160405180910390a45050565b600081600001549050919050565b60008061246f836113d1565b90508073ffffffffffffffffffffffffffffffffffffffff168473ffffffffffffffffffffffffffffffffffffffff1614806124b157506124b081856121d3565b5b806124ef57508373ffffffffffffffffffffffffffffffffffffffff166124d7846106b7565b73ffffffffffffffffffffffffffffffffffffffff16145b91505092915050565b8273ffffffffffffffffffffffffffffffffffffffff16612518826113d1565b73ffffffffffffffffffffffffffffffffffffffff161461256e576040517f08c379a000000000000000000000000000000000000000000000000000000000815260040161256590614672565b60405180910390fd5b600073ffffffffffffffffffffffffffffffffffffffff168273ffffffffffffffffffffffffffffffffffffffff16036125dd576040517f08c379a00000000000000000000000000000000000000000000000000000000081526004016125d490614704565b60405180910390fd5b6125ea8383836001612eef565b8273ffffffffffffffffffffffffffffffffffffffff1661260a826113d1565b73ffffffffffffffffffffffffffffffffffffffff1614612660576040517f08c379a000000000000000000000000000000000000000000000000000000000815260040161265790614672565b60405180910390fd5b6004600082815260200190815260200160002060006101000a81549073ffffffffffffffffffffffffffffffffffffffff02191690556001600360008573ffffffffffffffffffffffffffffffffffffffff1673ffffffffffffffffffffffffffffffffffffffff168152602001908152602001600020600082825403925050819055506001600360008473ffffffffffffffffffffffffffffffffffffffff1673ffffffffffffffffffffffffffffffffffffffff16815260200190815260200160002060008282540192505081905550816002600083815260200190815260200160002060006101000a81548173ffffffffffffffffffffffffffffffffffffffff021916908373ffffffffffffffffffffffffffffffffffffffff160217905550808273ffffffffffffffffffffffffffffffffffffffff168473ffffffffffffffffffffffffffffffffffffffff167fddf252ad1be2c89b69c2b068fc378daa952ba7f163c4a11628f55a4df523b3ef60405160405180910390a46127ec8383836001612ef5565b505050565b6128898282604051602401612807929190614724565b6040516020818303038152906040527f319af333000000000000000000000000000000000000000000000000000000007bffffffffffffffffffffffffffffffffffffffffffffffffffffffff19166020820180517bffffffffffffffffffffffffffffffffffffffffffffffffffffffff8381831617835250505050612efb565b5050565b60006002600083815260200190815260200160002060009054906101000a900473ffffffffffffffffffffffffffffffffffffffff169050919050565b60008160000154905060008111612916576040517f08c379a000000000000000000000000000000000000000000000000000000000815260040161290d906147a0565b60405180910390fd5b6001810382600001819055505050565b8173ffffffffffffffffffffffffffffffffffffffff168373ffffffffffffffffffffffffffffffffffffffff1603612994576040517f08c379a000000000000000000000000000000000000000000000000000000000815260040161298b9061480c565b60405180910390fd5b80600560008573ffffffffffffffffffffffffffffffffffffffff1673ffffffffffffffffffffffffffffffffffffffff16815260200190815260200160002060008473ffffffffffffffffffffffffffffffffffffffff1673ffffffffffffffffffffffffffffffffffffffff16815260200190815260200160002060006101000a81548160ff0219169083151502179055508173ffffffffffffffffffffffffffffffffffffffff168373ffffffffffffffffffffffffffffffffffffffff167f17307eab39ab6107e8899845ad3d59bd9653f200f220920489ca2b5937696c3183604051612a859190613455565b60405180910390a3505050565b612a9d8484846124f8565b612aa984848484612f15565b612ae8576040517f08c379a0000000000000000000000000000000000000000000000000000000008152600401612adf9061489e565b60405180910390fd5b50505050565b6001816000016000828254019250508190555050565b600073ffffffffffffffffffffffffffffffffffffffff168273ffffffffffffffffffffffffffffffffffffffff1603612b73576040517f08c379a0000000000000000000000000000000000000000000000000000000008152600401612b6a9061490a565b60405180910390fd5b612b7c81612eae565b15612bbc576040517f08c379a0000000000000000000000000000000000000000000000000000000008152600401612bb390614976565b60405180910390fd5b612bca600083836001612eef565b612bd381612eae565b15612c13576040517f08c379a0000000000000000000000000000000000000000000000000000000008152600401612c0a90614976565b60405180910390fd5b6001600360008473ffffffffffffffffffffffffffffffffffffffff1673ffffffffffffffffffffffffffffffffffffffff16815260200190815260200160002060008282540192505081905550816002600083815260200190815260200160002060006101000a81548173ffffffffffffffffffffffffffffffffffffffff021916908373ffffffffffffffffffffffffffffffffffffffff160217905550808273ffffffffffffffffffffffffffffffffffffffff16600073ffffffffffffffffffffffffffffffffffffffff167fddf252ad1be2c89b69c2b068fc378daa952ba7f163c4a11628f55a4df523b3ef60405160405180910390a4612d1d600083836001612ef5565b5050565b612d2a82612eae565b612d69576040517f08c379a0000000000000000000000000000000000000000000000000000000008152600401612d6090614a08565b60405180910390fd5b80600660008481526020019081526020016000209081612d899190614bd4565b507ff8e1a15aba9398e019f0b49df1a4fde98ee17ae345cb5f6b5e2c27f5033e8ce782604051612db99190613922565b60405180910390a15050565b606060405180602001604052806000815250905090565b6060612de782612349565b6000612df1612dc5565b90506000815111612e115760405180602001604052806000815250612e3c565b80612e1b8461309c565b604051602001612e2c9291906145dc565b6040516020818303038152906040525b915050919050565b60007f01ffc9a7000000000000000000000000000000000000000000000000000000007bffffffffffffffffffffffffffffffffffffffffffffffffffffffff1916827bffffffffffffffffffffffffffffffffffffffffffffffffffffffff1916149050919050565b60008073ffffffffffffffffffffffffffffffffffffffff16612ed08361288d565b73ffffffffffffffffffffffffffffffffffffffff1614159050919050565b50505050565b50505050565b612f1281612f0a61316a61318b565b63ffffffff16565b50565b6000612f368473ffffffffffffffffffffffffffffffffffffffff16613196565b1561308f578373ffffffffffffffffffffffffffffffffffffffff1663150b7a02612f5f612394565b8786866040518563ffffffff1660e01b8152600401612f819493929190614cfb565b6020604051808303816000875af1925050508015612fbd57506040513d601f19601f82011682018060405250810190612fba9190614d5c565b60015b61303f573d8060008114612fed576040519150601f19603f3d011682016040523d82523d6000602084013e612ff2565b606091505b506000815103613037576040517f08c379a000000000000000000000000000000000000000000000000000000000815260040161302e9061489e565b60405180910390fd5b805181602001fd5b63150b7a0260e01b7bffffffffffffffffffffffffffffffffffffffffffffffffffffffff1916817bffffffffffffffffffffffffffffffffffffffffffffffffffffffff191614915050613094565b600190505b949350505050565b6060600060016130ab846131b9565b01905060008167ffffffffffffffff8111156130ca576130c9613a2b565b5b6040519080825280601f01601f1916602001820160405280156130fc5781602001600182028036833780820191505090505b509050600082602001820190505b60011561315f578080600190039150507f3031323334353637383961626364656600000000000000000000000000000000600a86061a8153600a858161315357613152614d89565b5b0494506000850361310a575b819350505050919050565b60006a636f6e736f6c652e6c6f679050600080835160208501845afa505050565b613397819050919050565b6000808273ffffffffffffffffffffffffffffffffffffffff163b119050919050565b600080600090507a184f03e93ff9f4daa797ed6e38ed64bf6a1f0100000000000000008310613217577a184f03e93ff9f4daa797ed6e38ed64bf6a1f010000000000000000838161320d5761320c614d89565b5b0492506040810190505b6d04ee2d6d415b85acef81000000008310613254576d04ee2d6d415b85acef8100000000838161324a57613249614d89565b5b0492506020810190505b662386f26fc10000831061328357662386f26fc10000838161327957613278614d89565b5b0492506010810190505b6305f5e10083106132ac576305f5e10083816132a2576132a1614d89565b5b0492506008810190505b61271083106132d15761271083816132c7576132c6614d89565b5b0492506004810190505b606483106132f457606483816132ea576132e9614d89565b5b0492506002810190505b600a8310613303576001810190505b80915050919050565b60405180610100016040528060008152602001600073ffffffffffffffffffffffffffffffffffffffff168152602001600073ffffffffffffffffffffffffffffffffffffffff168152602001600073ffffffffffffffffffffffffffffffffffffffff16815260200160008152602001600081526020016000151581526020016000151581525090565b61339f614db8565b565b6000604051905090565b600080fd5b600080fd5b60007fffffffff0000000000000000000000000000000000000000000000000000000082169050919050565b6133ea816133b5565b81146133f557600080fd5b50565b600081359050613407816133e1565b92915050565b600060208284031215613423576134226133ab565b5b6000613431848285016133f8565b91505092915050565b60008115159050919050565b61344f8161343a565b82525050565b600060208201905061346a6000830184613446565b92915050565b600081519050919050565b600082825260208201905092915050565b60005b838110156134aa57808201518184015260208101905061348f565b60008484015250505050565b6000601f19601f8301169050919050565b60006134d282613470565b6134dc818561347b565b93506134ec81856020860161348c565b6134f5816134b6565b840191505092915050565b6000602082019050818103600083015261351a81846134c7565b905092915050565b6000819050919050565b61353581613522565b811461354057600080fd5b50565b6000813590506135528161352c565b92915050565b60006020828403121561356e5761356d6133ab565b5b600061357c84828501613543565b91505092915050565b600073ffffffffffffffffffffffffffffffffffffffff82169050919050565b60006135b082613585565b9050919050565b6135c0816135a5565b82525050565b60006020820190506135db60008301846135b7565b92915050565b6135ea816135a5565b81146135f557600080fd5b50565b600081359050613607816135e1565b92915050565b60008060408385031215613624576136236133ab565b5b6000613632858286016135f8565b925050602061364385828601613543565b9150509250929050565b600081519050919050565b600082825260208201905092915050565b6000819050602082019050919050565b61368281613522565b82525050565b600061369382613585565b9050919050565b6136a381613688565b82525050565b6136b28161343a565b82525050565b610100820160008201516136cf6000850182613679565b5060208201516136e2602085018261369a565b5060408201516136f5604085018261369a565b506060820151613708606085018261369a565b50608082015161371b6080850182613679565b5060a082015161372e60a0850182613679565b5060c082015161374160c08501826136a9565b5060e082015161375460e08501826136a9565b50505050565b600061376683836136b8565b6101008301905092915050565b6000602082019050919050565b600061378b8261364d565b6137958185613658565b93506137a083613669565b8060005b838110156137d15781516137b8888261375a565b97506137c383613773565b9250506001810190506137a4565b5085935050505092915050565b600060208201905081810360008301526137f88184613780565b905092915050565b600060208284031215613816576138156133ab565b5b6000613824848285016135f8565b91505092915050565b600080600060608486031215613846576138456133ab565b5b6000613854868287016135f8565b9350506020613865868287016135f8565b925050604061387686828701613543565b9150509250925092565b600080600060608486031215613899576138986133ab565b5b60006138a786828701613543565b93505060206138b886828701613543565b92505060406138c986828701613543565b9150509250925092565b600080604083850312156138ea576138e96133ab565b5b60006138f885828601613543565b925050602061390985828601613543565b9150509250929050565b61391c81613522565b82525050565b60006020820190506139376000830184613913565b92915050565b60008060408385031215613954576139536133ab565b5b600061396285828601613543565b9250506020613973858286016135f8565b9150509250929050565b6139868161343a565b811461399157600080fd5b50565b6000813590506139a38161397d565b92915050565b600080604083850312156139c0576139bf6133ab565b5b60006139ce858286016135f8565b92505060206139df85828601613994565b9150509250929050565b6139f281613688565b82525050565b6000604082019050613a0d6000830185613913565b613a1a60208301846139e9565b9392505050565b600080fd5b600080fd5b7f4e487b7100000000000000000000000000000000000000000000000000000000600052604160045260246000fd5b613a63826134b6565b810181811067ffffffffffffffff82111715613a8257613a81613a2b565b5b80604052505050565b6000613a956133a1565b9050613aa18282613a5a565b919050565b600067ffffffffffffffff821115613ac157613ac0613a2b565b5b613aca826134b6565b9050602081019050919050565b82818337600083830152505050565b6000613af9613af484613aa6565b613a8b565b905082815260208101848484011115613b1557613b14613a26565b5b613b20848285613ad7565b509392505050565b600082601f830112613b3d57613b3c613a21565b5b8135613b4d848260208601613ae6565b91505092915050565b60008060008060808587031215613b7057613b6f6133ab565b5b6000613b7e878288016135f8565b9450506020613b8f878288016135f8565b9350506040613ba087828801613543565b925050606085013567ffffffffffffffff811115613bc157613bc06133b0565b5b613bcd87828801613b28565b91505092959194509250565b600067ffffffffffffffff821115613bf457613bf3613a2b565b5b613bfd826134b6565b9050602081019050919050565b6000613c1d613c1884613bd9565b613a8b565b905082815260208101848484011115613c3957613c38613a26565b5b613c44848285613ad7565b509392505050565b600082601f830112613c6157613c60613a21565b5b8135613c71848260208601613c0a565b91505092915050565b600080600060608486031215613c9357613c926133ab565b5b600084013567ffffffffffffffff811115613cb157613cb06133b0565b5b613cbd86828701613c4c565b9350506020613cce86828701613543565b9250506040613cdf86828701613543565b9150509250925092565b60008060408385031215613d0057613cff6133ab565b5b6000613d0e858286016135f8565b9250506020613d1f858286016135f8565b9150509250929050565b7f4e487b7100000000000000000000000000000000000000000000000000000000600052602260045260246000fd5b60006002820490506001821680613d7057607f821691505b602082108103613d8357613d82613d29565b5b50919050565b7f4552433732313a20617070726f76616c20746f2063757272656e74206f776e6560008201527f7200000000000000000000000000000000000000000000000000000000000000602082015250565b6000613de560218361347b565b9150613df082613d89565b604082019050919050565b60006020820190508181036000830152613e1481613dd8565b9050919050565b7f4552433732313a20617070726f76652063616c6c6572206973206e6f7420746f60008201527f6b656e206f776e6572206f7220617070726f76656420666f7220616c6c000000602082015250565b6000613e77603d8361347b565b9150613e8282613e1b565b604082019050919050565b60006020820190508181036000830152613ea681613e6a565b9050919050565b7f4e487b7100000000000000000000000000000000000000000000000000000000600052601160045260246000fd5b6000613ee782613522565b9150613ef283613522565b9250828203905081811115613f0a57613f09613ead565b5b92915050565b6000613f1b82613522565b9150613f2683613522565b9250828201905080821115613f3e57613f3d613ead565b5b92915050565b7f4e487b7100000000000000000000000000000000000000000000000000000000600052603260045260246000fd5b6000613f7e82613522565b91507fffffffffffffffffffffffffffffffffffffffffffffffffffffffffffffffff8203613fb057613faf613ead565b5b600182019050919050565b7f4552433732313a2063616c6c6572206973206e6f7420746f6b656e206f776e6560008201527f72206f7220617070726f76656400000000000000000000000000000000000000602082015250565b6000614017602d8361347b565b915061402282613fbb565b604082019050919050565b600060208201905081810360008301526140468161400a565b9050919050565b7f6f6e6c79206f776e6572206f662074686520636f6e74726163742063616e207560008201527f706461746520746865206c697374696e67207072696365000000000000000000602082015250565b60006140a960378361347b565b91506140b48261404d565b604082019050919050565b600060208201905081810360008301526140d88161409c565b9050919050565b7f4e6f2066756e647320746f207769746864726177000000000000000000000000600082015250565b600061411560148361347b565b9150614120826140df565b602082019050919050565b6000602082019050818103600083015261414481614108565b9050919050565b600081905092915050565b50565b600061416660008361414b565b915061417182614156565b600082019050919050565b600061418782614159565b9150819050919050565b7f4661696c656420746f2077697468647261772066756e64730000000000000000600082015250565b60006141c760188361347b565b91506141d282614191565b602082019050919050565b600060208201905081810360008301526141f6816141ba565b9050919050565b60006040820190506142126000830185613913565b61421f60208301846135b7565b9392505050565b7f5072696365206d757374206265206174206c6561737420312077656900000000600082015250565b600061425c601c8361347b565b915061426782614226565b602082019050919050565b6000602082019050818103600083015261428b8161424f565b9050919050565b7f5072696365206d757374206265207061696420696e2066756c6c000000000000600082015250565b60006142c8601a8361347b565b91506142d382614292565b602082019050919050565b600060208201905081810360008301526142f7816142bb565b9050919050565b600060e082019050614313600083018a6135b7565b61432060208301896135b7565b61432d60408301886135b7565b61433a6060830187613913565b6143476080830186613913565b61435460a0830185613446565b61436160c0830184613446565b98975050505050505050565b7f4552433732313a20696e76616c696420746f6b656e2049440000000000000000600082015250565b60006143a360188361347b565b91506143ae8261436d565b602082019050919050565b600060208201905081810360008301526143d281614396565b9050919050565b7f4f6e6c79206f776e65722063616e2072656c697374204e465400000000000000600082015250565b600061440f60198361347b565b915061441a826143d9565b602082019050919050565b6000602082019050818103600083015261443e81614402565b9050919050565b7f4552433732313a2061646472657373207a65726f206973206e6f74206120766160008201527f6c6964206f776e65720000000000000000000000000000000000000000000000602082015250565b60006144a160298361347b565b91506144ac82614445565b604082019050919050565b600060208201905081810360008301526144d081614494565b9050919050565b60006060820190506144ec60008301866135b7565b6144f960208301856135b7565b6145066040830184613913565b949350505050565b7f506c65617365207375626d6974207468652061736b696e67207072696365206960008201527f6e206f7264657220746f20636f6d706c65746520746865207075726368617365602082015250565b600061456a60408361347b565b91506145758261450e565b604082019050919050565b600060208201905081810360008301526145998161455d565b9050919050565b600081905092915050565b60006145b682613470565b6145c081856145a0565b93506145d081856020860161348c565b80840191505092915050565b60006145e882856145ab565b91506145f482846145ab565b91508190509392505050565b7f4552433732313a207472616e736665722066726f6d20696e636f72726563742060008201527f6f776e6572000000000000000000000000000000000000000000000000000000602082015250565b600061465c60258361347b565b915061466782614600565b604082019050919050565b6000602082019050818103600083015261468b8161464f565b9050919050565b7f4552433732313a207472616e7366657220746f20746865207a65726f2061646460008201527f7265737300000000000000000000000000000000000000000000000000000000602082015250565b60006146ee60248361347b565b91506146f982614692565b604082019050919050565b6000602082019050818103600083015261471d816146e1565b9050919050565b6000604082019050818103600083015261473e81856134c7565b905061474d60208301846135b7565b9392505050565b7f436f756e7465723a2064656372656d656e74206f766572666c6f770000000000600082015250565b600061478a601b8361347b565b915061479582614754565b602082019050919050565b600060208201905081810360008301526147b98161477d565b9050919050565b7f4552433732313a20617070726f766520746f2063616c6c657200000000000000600082015250565b60006147f660198361347b565b9150614801826147c0565b602082019050919050565b60006020820190508181036000830152614825816147e9565b9050919050565b7f4552433732313a207472616e7366657220746f206e6f6e20455243373231526560008201527f63656976657220696d706c656d656e7465720000000000000000000000000000602082015250565b600061488860328361347b565b91506148938261482c565b604082019050919050565b600060208201905081810360008301526148b78161487b565b9050919050565b7f4552433732313a206d696e7420746f20746865207a65726f2061646472657373600082015250565b60006148f460208361347b565b91506148ff826148be565b602082019050919050565b60006020820190508181036000830152614923816148e7565b9050919050565b7f4552433732313a20746f6b656e20616c7265616479206d696e74656400000000600082015250565b6000614960601c8361347b565b915061496b8261492a565b602082019050919050565b6000602082019050818103600083015261498f81614953565b9050919050565b7f45524337323155524953746f726167653a2055524920736574206f66206e6f6e60008201527f6578697374656e7420746f6b656e000000000000000000000000000000000000602082015250565b60006149f2602e8361347b565b91506149fd82614996565b604082019050919050565b60006020820190508181036000830152614a21816149e5565b9050919050565b60008190508160005260206000209050919050565b60006020601f8301049050919050565b600082821b905092915050565b600060088302614a8a7fffffffffffffffffffffffffffffffffffffffffffffffffffffffffffffffff82614a4d565b614a948683614a4d565b95508019841693508086168417925050509392505050565b6000819050919050565b6000614ad1614acc614ac784613522565b614aac565b613522565b9050919050565b6000819050919050565b614aeb83614ab6565b614aff614af782614ad8565b848454614a5a565b825550505050565b600090565b614b14614b07565b614b1f818484614ae2565b505050565b5b81811015614b4357614b38600082614b0c565b600181019050614b25565b5050565b601f821115614b8857614b5981614a28565b614b6284614a3d565b81016020851015614b71578190505b614b85614b7d85614a3d565b830182614b24565b50505b505050565b600082821c905092915050565b6000614bab60001984600802614b8d565b1980831691505092915050565b6000614bc48383614b9a565b9150826002028217905092915050565b614bdd82613470565b67ffffffffffffffff811115614bf657614bf5613a2b565b5b614c008254613d58565b614c0b828285614b47565b600060209050601f831160018114614c3e5760008415614c2c578287015190505b614c368582614bb8565b865550614c9e565b601f198416614c4c86614a28565b60005b82811015614c7457848901518255600182019150602085019450602081019050614c4f565b86831015614c915784890151614c8d601f891682614b9a565b8355505b6001600288020188555050505b505050505050565b600081519050919050565b600082825260208201905092915050565b6000614ccd82614ca6565b614cd78185614cb1565b9350614ce781856020860161348c565b614cf0816134b6565b840191505092915050565b6000608082019050614d1060008301876135b7565b614d1d60208301866135b7565b614d2a6040830185613913565b8181036060830152614d3c8184614cc2565b905095945050505050565b600081519050614d56816133e1565b92915050565b600060208284031215614d7257614d716133ab565b5b6000614d8084828501614d47565b91505092915050565b7f4e487b7100000000000000000000000000000000000000000000000000000000600052601260045260246000fd5b7f4e487b7100000000000000000000000000000000000000000000000000000000600052605160045260246000fdfe6372656174654d61726b65744974656d2066756e6374696f6e2063616c6c65723a20a26469706673582212205c9dd04d17dccab5f26983f32d7b683346af7f444e380fc4315b36c2ea6d7cf864736f6c63430008130033",
  "linkReferences": {},
  "deployedLinkReferences": {}
}