{
  "_format": "hh-sol-artifact-1",
  "contractName": "Marketplace",
  "sourceName": "contracts/Marketplace.sol",
  "abi": [
    {
      "inputs": [],
      "stateMutability": "nonpayable",
      "type": "constructor"
    },
    {
      "anonymous": false,
      "inputs": [
        {
          "indexed": true,
          "internalType": "address",
          "name": "owner",
          "type": "address"
        },
        {
          "indexed": true,
          "internalType": "address",
          "name": "approved",
          "type": "address"
        },
        {
          "indexed": true,
          "internalType": "uint256",
          "name": "tokenId",
          "type": "uint256"
        }
      ],
      "name": "Approval",
      "type": "event"
    },
    {
      "anonymous": false,
      "inputs": [
        {
          "indexed": true,
          "internalType": "address",
          "name": "owner",
          "type": "address"
        },
        {
          "indexed": true,
          "internalType": "address",
          "name": "operator",
          "type": "address"
        },
        {
          "indexed": false,
          "internalType": "bool",
          "name": "approved",
          "type": "bool"
        }
      ],
      "name": "ApprovalForAll",
      "type": "event"
    },
    {
      "anonymous": false,
      "inputs": [
        {
          "indexed": false,
          "internalType": "uint256",
          "name": "_fromTokenId",
          "type": "uint256"
        },
        {
          "indexed": false,
          "internalType": "uint256",
          "name": "_toTokenId",
          "type": "uint256"
        }
      ],
      "name": "BatchMetadataUpdate",
      "type": "event"
    },
    {
      "anonymous": false,
      "inputs": [
        {
          "indexed": false,
          "internalType": "uint256",
          "name": "amount",
          "type": "uint256"
        },
        {
          "indexed": false,
          "internalType": "address",
          "name": "targetWallet",
          "type": "address"
        }
      ],
      "name": "FundsWithdrawn",
      "type": "event"
    },
    {
      "anonymous": false,
      "inputs": [
        {
          "indexed": true,
          "internalType": "uint256",
          "name": "tokenId",
          "type": "uint256"
        },
        {
          "indexed": false,
          "internalType": "address",
          "name": "originalOwner",
          "type": "address"
        },
        {
          "indexed": false,
          "internalType": "address",
          "name": "seller",
          "type": "address"
        },
        {
          "indexed": false,
          "internalType": "address",
          "name": "owner",
          "type": "address"
        },
        {
          "indexed": false,
          "internalType": "uint256",
          "name": "royaltyPercentage",
          "type": "uint256"
        },
        {
          "indexed": false,
          "internalType": "uint256",
          "name": "price",
          "type": "uint256"
        },
        {
          "indexed": false,
          "internalType": "bool",
          "name": "sold",
          "type": "bool"
        }
      ],
      "name": "MarketItemCreated",
      "type": "event"
    },
    {
      "anonymous": false,
      "inputs": [
        {
          "indexed": false,
          "internalType": "uint256",
          "name": "_tokenId",
          "type": "uint256"
        }
      ],
      "name": "MetadataUpdate",
      "type": "event"
    },
    {
      "anonymous": false,
      "inputs": [
        {
          "indexed": false,
          "internalType": "uint256",
          "name": "nftId",
          "type": "uint256"
        },
        {
          "indexed": false,
          "internalType": "address",
          "name": "auctionWinner",
          "type": "address"
        }
      ],
      "name": "NFTTransferred",
      "type": "event"
    },
    {
      "anonymous": false,
      "inputs": [
        {
          "indexed": true,
          "internalType": "address",
          "name": "from",
          "type": "address"
        },
        {
          "indexed": true,
          "internalType": "address",
          "name": "to",
          "type": "address"
        },
        {
          "indexed": true,
          "internalType": "uint256",
          "name": "tokenId",
          "type": "uint256"
        }
      ],
      "name": "Transfer",
      "type": "event"
    },
    {
      "inputs": [
        {
          "internalType": "address",
          "name": "to",
          "type": "address"
        },
        {
          "internalType": "uint256",
          "name": "tokenId",
          "type": "uint256"
        }
      ],
      "name": "approve",
      "outputs": [],
      "stateMutability": "nonpayable",
      "type": "function"
    },
    {
      "inputs": [
        {
          "internalType": "address",
          "name": "owner",
          "type": "address"
        }
      ],
      "name": "balanceOf",
      "outputs": [
        {
          "internalType": "uint256",
          "name": "",
          "type": "uint256"
        }
      ],
      "stateMutability": "view",
      "type": "function"
    },
    {
      "inputs": [
        {
          "internalType": "uint256",
          "name": "tokenId",
          "type": "uint256"
        },
        {
          "internalType": "uint256",
          "name": "royaltyPercentage",
          "type": "uint256"
        },
        {
          "internalType": "uint256",
          "name": "price",
          "type": "uint256"
        }
      ],
      "name": "createMarketItem",
      "outputs": [],
      "stateMutability": "payable",
      "type": "function"
    },
    {
      "inputs": [
        {
          "internalType": "uint256",
          "name": "tokenId",
          "type": "uint256"
        }
      ],
      "name": "createMarketSale",
      "outputs": [],
      "stateMutability": "payable",
      "type": "function"
    },
    {
      "inputs": [
        {
          "internalType": "string",
          "name": "tokenURI",
          "type": "string"
        },
        {
          "internalType": "uint256",
          "name": "royaltyPercentage",
          "type": "uint256"
        },
        {
          "internalType": "uint256",
          "name": "price",
          "type": "uint256"
        }
      ],
      "name": "createToken",
      "outputs": [
        {
          "internalType": "uint256",
          "name": "",
          "type": "uint256"
        }
      ],
      "stateMutability": "payable",
      "type": "function"
    },
    {
      "inputs": [],
      "name": "fetchItemsListed",
      "outputs": [
        {
          "components": [
            {
              "internalType": "uint256",
              "name": "tokenId",
              "type": "uint256"
            },
            {
              "internalType": "address payable",
              "name": "originalOwner",
              "type": "address"
            },
            {
              "internalType": "address payable",
              "name": "seller",
              "type": "address"
            },
            {
              "internalType": "address payable",
              "name": "owner",
              "type": "address"
            },
            {
              "internalType": "uint256",
              "name": "royaltyPercentage",
              "type": "uint256"
            },
            {
              "internalType": "uint256",
              "name": "price",
              "type": "uint256"
            },
            {
              "internalType": "bool",
              "name": "sold",
              "type": "bool"
            }
          ],
          "internalType": "struct Marketplace.MarketItem[]",
          "name": "",
          "type": "tuple[]"
        }
      ],
      "stateMutability": "view",
      "type": "function"
    },
    {
      "inputs": [],
      "name": "fetchMarketItems",
      "outputs": [
        {
          "components": [
            {
              "internalType": "uint256",
              "name": "tokenId",
              "type": "uint256"
            },
            {
              "internalType": "address payable",
              "name": "originalOwner",
              "type": "address"
            },
            {
              "internalType": "address payable",
              "name": "seller",
              "type": "address"
            },
            {
              "internalType": "address payable",
              "name": "owner",
              "type": "address"
            },
            {
              "internalType": "uint256",
              "name": "royaltyPercentage",
              "type": "uint256"
            },
            {
              "internalType": "uint256",
              "name": "price",
              "type": "uint256"
            },
            {
              "internalType": "bool",
              "name": "sold",
              "type": "bool"
            }
          ],
          "internalType": "struct Marketplace.MarketItem[]",
          "name": "",
          "type": "tuple[]"
        }
      ],
      "stateMutability": "view",
      "type": "function"
    },
    {
      "inputs": [],
      "name": "fetchMyNFT",
      "outputs": [
        {
          "components": [
            {
              "internalType": "uint256",
              "name": "tokenId",
              "type": "uint256"
            },
            {
              "internalType": "address payable",
              "name": "originalOwner",
              "type": "address"
            },
            {
              "internalType": "address payable",
              "name": "seller",
              "type": "address"
            },
            {
              "internalType": "address payable",
              "name": "owner",
              "type": "address"
            },
            {
              "internalType": "uint256",
              "name": "royaltyPercentage",
              "type": "uint256"
            },
            {
              "internalType": "uint256",
              "name": "price",
              "type": "uint256"
            },
            {
              "internalType": "bool",
              "name": "sold",
              "type": "bool"
            }
          ],
          "internalType": "struct Marketplace.MarketItem[]",
          "name": "",
          "type": "tuple[]"
        }
      ],
      "stateMutability": "view",
      "type": "function"
    },
    {
      "inputs": [
        {
          "internalType": "uint256",
          "name": "tokenId",
          "type": "uint256"
        }
      ],
      "name": "getApproved",
      "outputs": [
        {
          "internalType": "address",
          "name": "",
          "type": "address"
        }
      ],
      "stateMutability": "view",
      "type": "function"
    },
    {
      "inputs": [
        {
          "internalType": "uint256",
          "name": "tokenId",
          "type": "uint256"
        }
      ],
      "name": "getRoyaltyData",
      "outputs": [
        {
          "internalType": "uint256",
          "name": "",
          "type": "uint256"
        },
        {
          "internalType": "address payable",
          "name": "",
          "type": "address"
        }
      ],
      "stateMutability": "view",
      "type": "function"
    },
    {
      "inputs": [
        {
          "internalType": "uint256",
          "name": "tokenId",
          "type": "uint256"
        },
        {
          "internalType": "address",
          "name": "winner",
          "type": "address"
        }
      ],
      "name": "handleAuctionEnd",
      "outputs": [],
      "stateMutability": "nonpayable",
      "type": "function"
    },
    {
      "inputs": [
        {
          "internalType": "address",
          "name": "owner",
          "type": "address"
        },
        {
          "internalType": "address",
          "name": "operator",
          "type": "address"
        }
      ],
      "name": "isApprovedForAll",
      "outputs": [
        {
          "internalType": "bool",
          "name": "",
          "type": "bool"
        }
      ],
      "stateMutability": "view",
      "type": "function"
    },
    {
      "inputs": [],
      "name": "name",
      "outputs": [
        {
          "internalType": "string",
          "name": "",
          "type": "string"
        }
      ],
      "stateMutability": "view",
      "type": "function"
    },
    {
      "inputs": [
        {
          "internalType": "uint256",
          "name": "tokenId",
          "type": "uint256"
        }
      ],
      "name": "ownerOf",
      "outputs": [
        {
          "internalType": "address",
          "name": "",
          "type": "address"
        }
      ],
      "stateMutability": "view",
      "type": "function"
    },
    {
      "inputs": [
        {
          "internalType": "uint256",
          "name": "tokenId",
          "type": "uint256"
        },
        {
          "internalType": "uint256",
          "name": "price",
          "type": "uint256"
        }
      ],
      "name": "resellMarketItem",
      "outputs": [],
      "stateMutability": "payable",
      "type": "function"
    },
    {
      "inputs": [
        {
          "internalType": "address",
          "name": "from",
          "type": "address"
        },
        {
          "internalType": "address",
          "name": "to",
          "type": "address"
        },
        {
          "internalType": "uint256",
          "name": "tokenId",
          "type": "uint256"
        }
      ],
      "name": "safeTransferFrom",
      "outputs": [],
      "stateMutability": "nonpayable",
      "type": "function"
    },
    {
      "inputs": [
        {
          "internalType": "address",
          "name": "from",
          "type": "address"
        },
        {
          "internalType": "address",
          "name": "to",
          "type": "address"
        },
        {
          "internalType": "uint256",
          "name": "tokenId",
          "type": "uint256"
        },
        {
          "internalType": "bytes",
          "name": "data",
          "type": "bytes"
        }
      ],
      "name": "safeTransferFrom",
      "outputs": [],
      "stateMutability": "nonpayable",
      "type": "function"
    },
    {
      "inputs": [
        {
          "internalType": "address",
          "name": "operator",
          "type": "address"
        },
        {
          "internalType": "bool",
          "name": "approved",
          "type": "bool"
        }
      ],
      "name": "setApprovalForAll",
      "outputs": [],
      "stateMutability": "nonpayable",
      "type": "function"
    },
    {
      "inputs": [
        {
          "internalType": "bytes4",
          "name": "interfaceId",
          "type": "bytes4"
        }
      ],
      "name": "supportsInterface",
      "outputs": [
        {
          "internalType": "bool",
          "name": "",
          "type": "bool"
        }
      ],
      "stateMutability": "view",
      "type": "function"
    },
    {
      "inputs": [],
      "name": "symbol",
      "outputs": [
        {
          "internalType": "string",
          "name": "",
          "type": "string"
        }
      ],
      "stateMutability": "view",
      "type": "function"
    },
    {
      "inputs": [
        {
          "internalType": "uint256",
          "name": "tokenId",
          "type": "uint256"
        }
      ],
      "name": "tokenURI",
      "outputs": [
        {
          "internalType": "string",
          "name": "",
          "type": "string"
        }
      ],
      "stateMutability": "view",
      "type": "function"
    },
    {
      "inputs": [
        {
          "internalType": "address",
          "name": "from",
          "type": "address"
        },
        {
          "internalType": "address",
          "name": "to",
          "type": "address"
        },
        {
          "internalType": "uint256",
          "name": "tokenId",
          "type": "uint256"
        }
      ],
      "name": "transferFrom",
      "outputs": [],
      "stateMutability": "nonpayable",
      "type": "function"
    },
    {
      "inputs": [
        {
          "internalType": "uint256",
          "name": "_listingPrice",
          "type": "uint256"
        }
      ],
      "name": "updateListingPrice",
      "outputs": [],
      "stateMutability": "payable",
      "type": "function"
    },
    {
      "inputs": [],
      "name": "withdrawFunds",
      "outputs": [],
      "stateMutability": "nonpayable",
      "type": "function"
    }
  ],
  "bytecode": "0x60806040526608e1bc9bf04000600a553480156200001c57600080fd5b506040518060400160405280601381526020017f4e4654204d657461766572736520546f6b656e000000000000000000000000008152506040518060400160405280600581526020017f4d594e465400000000000000000000000000000000000000000000000000000081525081600090816200009a919062000378565b508060019081620000ac919062000378565b505050600160078190555033600b60006101000a81548173ffffffffffffffffffffffffffffffffffffffff021916908373ffffffffffffffffffffffffffffffffffffffff1602179055506200045f565b600081519050919050565b7f4e487b7100000000000000000000000000000000000000000000000000000000600052604160045260246000fd5b7f4e487b7100000000000000000000000000000000000000000000000000000000600052602260045260246000fd5b600060028204905060018216806200018057607f821691505b60208210810362000196576200019562000138565b5b50919050565b60008190508160005260206000209050919050565b60006020601f8301049050919050565b600082821b905092915050565b600060088302620002007fffffffffffffffffffffffffffffffffffffffffffffffffffffffffffffffff82620001c1565b6200020c8683620001c1565b95508019841693508086168417925050509392505050565b6000819050919050565b6000819050919050565b600062000259620002536200024d8462000224565b6200022e565b62000224565b9050919050565b6000819050919050565b620002758362000238565b6200028d620002848262000260565b848454620001ce565b825550505050565b600090565b620002a462000295565b620002b18184846200026a565b505050565b5b81811015620002d957620002cd6000826200029a565b600181019050620002b7565b5050565b601f8211156200032857620002f2816200019c565b620002fd84620001b1565b810160208510156200030d578190505b620003256200031c85620001b1565b830182620002b6565b50505b505050565b600082821c905092915050565b60006200034d600019846008026200032d565b1980831691505092915050565b60006200036883836200033a565b9150826002028217905092915050565b6200038382620000fe565b67ffffffffffffffff8111156200039f576200039e62000109565b5b620003ab825462000167565b620003b8828285620002dd565b600060209050601f831160018114620003f05760008415620003db578287015190505b620003e785826200035a565b86555062000457565b601f19841662000400866200019c565b60005b828110156200042a5784890151825560018201915060208501945060208101905062000403565b868310156200044a578489015162000446601f8916826200033a565b8355505b6001600288020188555050505b505050505050565b614bde806200046f6000396000f3fe60806040526004361061014b5760003560e01c806370a08231116100b6578063b88d4fde1161006f578063b88d4fde14610466578063be9af5361461048f578063bec2a7c5146104ab578063c18763f7146104db578063c87b56dd14610506578063e985e9c5146105435761014b565b806370a08231146103525780638f329b311461038f57806395d89b41146103b8578063a22cb465146103e3578063a65ff74c1461040c578063ae677aa31461044a5761014b565b806324600fc31161010857806324600fc314610272578063320343da1461028957806342842e0e146102a557806345f8fa80146102ce5780636352211e146102f95780636b52d832146103365761014b565b806301ffc9a71461015057806306fdde031461018d578063081812fc146101b8578063095ea7b3146101f55780630f08efe01461021e57806323b872dd14610249575b600080fd5b34801561015c57600080fd5b506101776004803603810190610172919061323b565b610580565b6040516101849190613283565b60405180910390f35b34801561019957600080fd5b506101a26105e1565b6040516101af919061332e565b60405180910390f35b3480156101c457600080fd5b506101df60048036038101906101da9190613386565b610673565b6040516101ec91906133f4565b60405180910390f35b34801561020157600080fd5b5061021c6004803603810190610217919061343b565b6106b9565b005b34801561022a57600080fd5b506102336107d0565b60405161024091906135f7565b60405180910390f35b34801561025557600080fd5b50610270600480360381019061026b9190613619565b610a98565b005b34801561027e57600080fd5b50610287610af8565b005b6102a3600480360381019061029e919061366c565b610cdb565b005b3480156102b157600080fd5b506102cc60048036038101906102c79190613619565b610f79565b005b3480156102da57600080fd5b506102e3610f99565b6040516102f091906135f7565b60405180910390f35b34801561030557600080fd5b50610320600480360381019061031b9190613386565b6112e5565b60405161032d91906133f4565b60405180910390f35b610350600480360381019061034b91906136bf565b61136b565b005b34801561035e57600080fd5b50610379600480360381019061037491906136ff565b611478565b604051610386919061373b565b60405180910390f35b34801561039b57600080fd5b506103b660048036038101906103b19190613756565b61152f565b005b3480156103c457600080fd5b506103cd611630565b6040516103da919061332e565b60405180910390f35b3480156103ef57600080fd5b5061040a600480360381019061040591906137c2565b6116c2565b005b34801561041857600080fd5b50610433600480360381019061042e9190613386565b6116d8565b604051610441929190613811565b60405180910390f35b610464600480360381019061045f9190613386565b61184c565b005b34801561047257600080fd5b5061048d6004803603810190610488919061396f565b6118e6565b005b6104a960048036038101906104a49190613386565b611948565b005b6104c560048036038101906104c09190613a93565b611b2a565b6040516104d2919061373b565b60405180910390f35b3480156104e757600080fd5b506104f0611bad565b6040516104fd91906135f7565b60405180910390f35b34801561051257600080fd5b5061052d60048036038101906105289190613386565b611ef9565b60405161053a919061332e565b60405180910390f35b34801561054f57600080fd5b5061056a60048036038101906105659190613b02565b61200b565b6040516105779190613283565b60405180910390f35b6000634906490660e01b7bffffffffffffffffffffffffffffffffffffffffffffffffffffffff1916827bffffffffffffffffffffffffffffffffffffffffffffffffffffffff191614806105da57506105d98261209f565b5b9050919050565b6060600080546105f090613b71565b80601f016020809104026020016040519081016040528092919081815260200182805461061c90613b71565b80156106695780601f1061063e57610100808354040283529160200191610669565b820191906000526020600020905b81548152906001019060200180831161064c57829003601f168201915b5050505050905090565b600061067e82612181565b6004600083815260200190815260200160002060009054906101000a900473ffffffffffffffffffffffffffffffffffffffff169050919050565b60006106c4826112e5565b90508073ffffffffffffffffffffffffffffffffffffffff168373ffffffffffffffffffffffffffffffffffffffff1603610734576040517f08c379a000000000000000000000000000000000000000000000000000000000815260040161072b90613c14565b60405180910390fd5b8073ffffffffffffffffffffffffffffffffffffffff166107536121cc565b73ffffffffffffffffffffffffffffffffffffffff16148061078257506107818161077c6121cc565b61200b565b5b6107c1576040517f08c379a00000000000000000000000000000000000000000000000000000000081526004016107b890613ca6565b60405180910390fd5b6107cb83836121d4565b505050565b606060006107de600861228d565b905060006107ec600961228d565b6107f6600861228d565b6108009190613cf5565b90506000808267ffffffffffffffff81111561081f5761081e613844565b5b60405190808252806020026020018201604052801561085857816020015b610845613144565b81526020019060019003908161083d5790505b50905060005b84811015610a8d573073ffffffffffffffffffffffffffffffffffffffff16600c600060018461088e9190613d29565b815260200190815260200160002060030160009054906101000a900473ffffffffffffffffffffffffffffffffffffffff1673ffffffffffffffffffffffffffffffffffffffff1603610a7a5760006001826108ea9190613d29565b90506000600c60008381526020019081526020016000209050806040518060e0016040529081600082015481526020016001820160009054906101000a900473ffffffffffffffffffffffffffffffffffffffff1673ffffffffffffffffffffffffffffffffffffffff1673ffffffffffffffffffffffffffffffffffffffff1681526020016002820160009054906101000a900473ffffffffffffffffffffffffffffffffffffffff1673ffffffffffffffffffffffffffffffffffffffff1673ffffffffffffffffffffffffffffffffffffffff1681526020016003820160009054906101000a900473ffffffffffffffffffffffffffffffffffffffff1673ffffffffffffffffffffffffffffffffffffffff1673ffffffffffffffffffffffffffffffffffffffff16815260200160048201548152602001600582015481526020016006820160009054906101000a900460ff161515151581525050848681518110610a5d57610a5c613d5d565b5b6020026020010181905250600185610a759190613d29565b945050505b8080610a8590613d8c565b91505061085e565b508094505050505090565b610aa9610aa36121cc565b8261229b565b610ae8576040517f08c379a0000000000000000000000000000000000000000000000000000000008152600401610adf90613e46565b60405180910390fd5b610af3838383612330565b505050565b600b60009054906101000a900473ffffffffffffffffffffffffffffffffffffffff1673ffffffffffffffffffffffffffffffffffffffff163373ffffffffffffffffffffffffffffffffffffffff1614610b88576040517f08c379a0000000000000000000000000000000000000000000000000000000008152600401610b7f90613ed8565b60405180910390fd5b600047905060008111610bd0576040517f08c379a0000000000000000000000000000000000000000000000000000000008152600401610bc790613f44565b60405180910390fd5b6000600b60009054906101000a900473ffffffffffffffffffffffffffffffffffffffff1673ffffffffffffffffffffffffffffffffffffffff1682604051610c1890613f95565b60006040518083038185875af1925050503d8060008114610c55576040519150601f19603f3d011682016040523d82523d6000602084013e610c5a565b606091505b5050905080610c9e576040517f08c379a0000000000000000000000000000000000000000000000000000000008152600401610c9590613ff6565b60405180910390fd5b7f6141b54b56b8a52a8c6f5cd2a857f6117b18ffbf4d46bd3106f300a839cbf5ea8233604051610ccf929190614016565b60405180910390a15050565b610cfd604051806060016040528060228152602001614b876022913933612629565b60008111610d40576040517f08c379a0000000000000000000000000000000000000000000000000000000008152600401610d379061408b565b60405180910390fd5b600a543414610d84576040517f08c379a0000000000000000000000000000000000000000000000000000000008152600401610d7b906140f7565b60405180910390fd5b6040518060e001604052808481526020013373ffffffffffffffffffffffffffffffffffffffff1681526020013373ffffffffffffffffffffffffffffffffffffffff1681526020013073ffffffffffffffffffffffffffffffffffffffff16815260200183815260200182815260200160001515815250600c60008581526020019081526020016000206000820151816000015560208201518160010160006101000a81548173ffffffffffffffffffffffffffffffffffffffff021916908373ffffffffffffffffffffffffffffffffffffffff16021790555060408201518160020160006101000a81548173ffffffffffffffffffffffffffffffffffffffff021916908373ffffffffffffffffffffffffffffffffffffffff16021790555060608201518160030160006101000a81548173ffffffffffffffffffffffffffffffffffffffff021916908373ffffffffffffffffffffffffffffffffffffffff1602179055506080820151816004015560a0820151816005015560c08201518160060160006101000a81548160ff021916908315150217905550905050610f30333085612330565b827fa5d9d913ac4de93e8f5dc9a8834f347d521cd0daf35756b44fe413e9f34019793333600086866000604051610f6c96959493929190614117565b60405180910390a2505050565b610f94838383604051806020016040528060008152506118e6565b505050565b60606000610fa7600861228d565b905060008060005b8381101561104f573373ffffffffffffffffffffffffffffffffffffffff16600c6000600184610fdf9190613d29565b815260200190815260200160002060020160009054906101000a900473ffffffffffffffffffffffffffffffffffffffff1673ffffffffffffffffffffffffffffffffffffffff160361103c576001836110399190613d29565b92505b808061104790613d8c565b915050610faf565b5060008267ffffffffffffffff81111561106c5761106b613844565b5b6040519080825280602002602001820160405280156110a557816020015b611092613144565b81526020019060019003908161108a5790505b50905060005b848110156112da573373ffffffffffffffffffffffffffffffffffffffff16600c60006001846110db9190613d29565b815260200190815260200160002060020160009054906101000a900473ffffffffffffffffffffffffffffffffffffffff1673ffffffffffffffffffffffffffffffffffffffff16036112c75760006001826111379190613d29565b90506000600c60008381526020019081526020016000209050806040518060e0016040529081600082015481526020016001820160009054906101000a900473ffffffffffffffffffffffffffffffffffffffff1673ffffffffffffffffffffffffffffffffffffffff1673ffffffffffffffffffffffffffffffffffffffff1681526020016002820160009054906101000a900473ffffffffffffffffffffffffffffffffffffffff1673ffffffffffffffffffffffffffffffffffffffff1673ffffffffffffffffffffffffffffffffffffffff1681526020016003820160009054906101000a900473ffffffffffffffffffffffffffffffffffffffff1673ffffffffffffffffffffffffffffffffffffffff1673ffffffffffffffffffffffffffffffffffffffff16815260200160048201548152602001600582015481526020016006820160009054906101000a900460ff1615151515815250508486815181106112aa576112a9613d5d565b5b60200260200101819052506001856112c29190613d29565b945050505b80806112d290613d8c565b9150506110ab565b508094505050505090565b6000806112f1836126c5565b9050600073ffffffffffffffffffffffffffffffffffffffff168173ffffffffffffffffffffffffffffffffffffffff1603611362576040517f08c379a0000000000000000000000000000000000000000000000000000000008152600401611359906141c4565b60405180910390fd5b80915050919050565b6000600c600084815260200190815260200160002060060160006101000a81548160ff02191690831515021790555080600c60008481526020019081526020016000206005018190555033600c600084815260200190815260200160002060020160006101000a81548173ffffffffffffffffffffffffffffffffffffffff021916908373ffffffffffffffffffffffffffffffffffffffff16021790555030600c600084815260200190815260200160002060030160006101000a81548173ffffffffffffffffffffffffffffffffffffffff021916908373ffffffffffffffffffffffffffffffffffffffff1602179055506114696009612702565b611474333084612330565b5050565b60008073ffffffffffffffffffffffffffffffffffffffff168273ffffffffffffffffffffffffffffffffffffffff16036114e8576040517f08c379a00000000000000000000000000000000000000000000000000000000081526004016114df90614256565b60405180910390fd5b600360008373ffffffffffffffffffffffffffffffffffffffff1673ffffffffffffffffffffffffffffffffffffffff168152602001908152602001600020549050919050565b3073ffffffffffffffffffffffffffffffffffffffff166342842e0e3083856040518463ffffffff1660e01b815260040161156c93929190614276565b600060405180830381600087803b15801561158657600080fd5b505af115801561159a573d6000803e3d6000fd5b5050505080600c600084815260200190815260200160002060030160006101000a81548173ffffffffffffffffffffffffffffffffffffffff021916908373ffffffffffffffffffffffffffffffffffffffff1602179055507f20665ee57a5e13af162123968d777ccebe86531a21e53d08afc78138a950192d8282604051611624929190614016565b60405180910390a15050565b60606001805461163f90613b71565b80601f016020809104026020016040519081016040528092919081815260200182805461166b90613b71565b80156116b85780601f1061168d576101008083540402835291602001916116b8565b820191906000526020600020905b81548152906001019060200180831161169b57829003601f168201915b5050505050905090565b6116d46116cd6121cc565b838361275e565b5050565b6000806000600c60008581526020019081526020016000206040518060e0016040529081600082015481526020016001820160009054906101000a900473ffffffffffffffffffffffffffffffffffffffff1673ffffffffffffffffffffffffffffffffffffffff1673ffffffffffffffffffffffffffffffffffffffff1681526020016002820160009054906101000a900473ffffffffffffffffffffffffffffffffffffffff1673ffffffffffffffffffffffffffffffffffffffff1673ffffffffffffffffffffffffffffffffffffffff1681526020016003820160009054906101000a900473ffffffffffffffffffffffffffffffffffffffff1673ffffffffffffffffffffffffffffffffffffffff1673ffffffffffffffffffffffffffffffffffffffff16815260200160048201548152602001600582015481526020016006820160009054906101000a900460ff1615151515815250509050806080015181602001519250925050915091565b600b60009054906101000a900473ffffffffffffffffffffffffffffffffffffffff1673ffffffffffffffffffffffffffffffffffffffff163373ffffffffffffffffffffffffffffffffffffffff16146118dc576040517f08c379a00000000000000000000000000000000000000000000000000000000081526004016118d390613ed8565b60405180910390fd5b80600a8190555050565b6118f76118f16121cc565b8361229b565b611936576040517f08c379a000000000000000000000000000000000000000000000000000000000815260040161192d90613e46565b60405180910390fd5b611942848484846128ca565b50505050565b6000600c60008381526020019081526020016000206005015490508034146119a5576040517f08c379a000000000000000000000000000000000000000000000000000000000815260040161199c9061431f565b60405180910390fd5b33600c600084815260200190815260200160002060030160006101000a81548173ffffffffffffffffffffffffffffffffffffffff021916908373ffffffffffffffffffffffffffffffffffffffff1602179055506001600c600084815260200190815260200160002060060160006101000a81548160ff021916908315150217905550611a336009612926565b611a3e303384612330565b600b60009054906101000a900473ffffffffffffffffffffffffffffffffffffffff1673ffffffffffffffffffffffffffffffffffffffff166108fc600a549081150290604051600060405180830381858888f19350505050158015611aa8573d6000803e3d6000fd5b50600c600083815260200190815260200160002060020160009054906101000a900473ffffffffffffffffffffffffffffffffffffffff1673ffffffffffffffffffffffffffffffffffffffff166108fc349081150290604051600060405180830381858888f19350505050158015611b25573d6000803e3d6000fd5b505050565b6000611b6b6040518060400160405280601d81526020017f637265617465546f6b656e2066756e6374696f6e2063616c6c65723a2000000081525033612629565b611b756008612926565b6000611b81600861228d565b9050611b8d338261293c565b611b978186612b59565b611ba2818585610cdb565b809150509392505050565b60606000611bbb600861228d565b905060008060005b83811015611c63573373ffffffffffffffffffffffffffffffffffffffff16600c6000600184611bf39190613d29565b815260200190815260200160002060030160009054906101000a900473ffffffffffffffffffffffffffffffffffffffff1673ffffffffffffffffffffffffffffffffffffffff1603611c5057600183611c4d9190613d29565b92505b8080611c5b90613d8c565b915050611bc3565b5060008267ffffffffffffffff811115611c8057611c7f613844565b5b604051908082528060200260200182016040528015611cb957816020015b611ca6613144565b815260200190600190039081611c9e5790505b50905060005b84811015611eee573373ffffffffffffffffffffffffffffffffffffffff16600c6000600184611cef9190613d29565b815260200190815260200160002060030160009054906101000a900473ffffffffffffffffffffffffffffffffffffffff1673ffffffffffffffffffffffffffffffffffffffff1603611edb576000600182611d4b9190613d29565b90506000600c60008381526020019081526020016000209050806040518060e0016040529081600082015481526020016001820160009054906101000a900473ffffffffffffffffffffffffffffffffffffffff1673ffffffffffffffffffffffffffffffffffffffff1673ffffffffffffffffffffffffffffffffffffffff1681526020016002820160009054906101000a900473ffffffffffffffffffffffffffffffffffffffff1673ffffffffffffffffffffffffffffffffffffffff1673ffffffffffffffffffffffffffffffffffffffff1681526020016003820160009054906101000a900473ffffffffffffffffffffffffffffffffffffffff1673ffffffffffffffffffffffffffffffffffffffff1673ffffffffffffffffffffffffffffffffffffffff16815260200160048201548152602001600582015481526020016006820160009054906101000a900460ff161515151581525050848681518110611ebe57611ebd613d5d565b5b6020026020010181905250600185611ed69190613d29565b945050505b8080611ee690613d8c565b915050611cbf565b508094505050505090565b6060611f0482612181565b6000600660008481526020019081526020016000208054611f2490613b71565b80601f0160208091040260200160405190810160405280929190818152602001828054611f5090613b71565b8015611f9d5780601f10611f7257610100808354040283529160200191611f9d565b820191906000526020600020905b815481529060010190602001808311611f8057829003601f168201915b505050505090506000611fae612bfd565b90506000815103611fc3578192505050612006565b600082511115611ff8578082604051602001611fe092919061437b565b60405160208183030381529060405292505050612006565b61200184612c14565b925050505b919050565b6000600560008473ffffffffffffffffffffffffffffffffffffffff1673ffffffffffffffffffffffffffffffffffffffff16815260200190815260200160002060008373ffffffffffffffffffffffffffffffffffffffff1673ffffffffffffffffffffffffffffffffffffffff16815260200190815260200160002060009054906101000a900460ff16905092915050565b60007f80ac58cd000000000000000000000000000000000000000000000000000000007bffffffffffffffffffffffffffffffffffffffffffffffffffffffff1916827bffffffffffffffffffffffffffffffffffffffffffffffffffffffff1916148061216a57507f5b5e139f000000000000000000000000000000000000000000000000000000007bffffffffffffffffffffffffffffffffffffffffffffffffffffffff1916827bffffffffffffffffffffffffffffffffffffffffffffffffffffffff1916145b8061217a575061217982612c7c565b5b9050919050565b61218a81612ce6565b6121c9576040517f08c379a00000000000000000000000000000000000000000000000000000000081526004016121c0906141c4565b60405180910390fd5b50565b600033905090565b816004600083815260200190815260200160002060006101000a81548173ffffffffffffffffffffffffffffffffffffffff021916908373ffffffffffffffffffffffffffffffffffffffff160217905550808273ffffffffffffffffffffffffffffffffffffffff16612247836112e5565b73ffffffffffffffffffffffffffffffffffffffff167f8c5be1e5ebec7d5bd14f71427d1e84f3dd0314c0f7b2291e5b200ac8c7c3b92560405160405180910390a45050565b600081600001549050919050565b6000806122a7836112e5565b90508073ffffffffffffffffffffffffffffffffffffffff168473ffffffffffffffffffffffffffffffffffffffff1614806122e957506122e8818561200b565b5b8061232757508373ffffffffffffffffffffffffffffffffffffffff1661230f84610673565b73ffffffffffffffffffffffffffffffffffffffff16145b91505092915050565b8273ffffffffffffffffffffffffffffffffffffffff16612350826112e5565b73ffffffffffffffffffffffffffffffffffffffff16146123a6576040517f08c379a000000000000000000000000000000000000000000000000000000000815260040161239d90614411565b60405180910390fd5b600073ffffffffffffffffffffffffffffffffffffffff168273ffffffffffffffffffffffffffffffffffffffff1603612415576040517f08c379a000000000000000000000000000000000000000000000000000000000815260040161240c906144a3565b60405180910390fd5b6124228383836001612d27565b8273ffffffffffffffffffffffffffffffffffffffff16612442826112e5565b73ffffffffffffffffffffffffffffffffffffffff1614612498576040517f08c379a000000000000000000000000000000000000000000000000000000000815260040161248f90614411565b60405180910390fd5b6004600082815260200190815260200160002060006101000a81549073ffffffffffffffffffffffffffffffffffffffff02191690556001600360008573ffffffffffffffffffffffffffffffffffffffff1673ffffffffffffffffffffffffffffffffffffffff168152602001908152602001600020600082825403925050819055506001600360008473ffffffffffffffffffffffffffffffffffffffff1673ffffffffffffffffffffffffffffffffffffffff16815260200190815260200160002060008282540192505081905550816002600083815260200190815260200160002060006101000a81548173ffffffffffffffffffffffffffffffffffffffff021916908373ffffffffffffffffffffffffffffffffffffffff160217905550808273ffffffffffffffffffffffffffffffffffffffff168473ffffffffffffffffffffffffffffffffffffffff167fddf252ad1be2c89b69c2b068fc378daa952ba7f163c4a11628f55a4df523b3ef60405160405180910390a46126248383836001612d2d565b505050565b6126c1828260405160240161263f9291906144c3565b6040516020818303038152906040527f319af333000000000000000000000000000000000000000000000000000000007bffffffffffffffffffffffffffffffffffffffffffffffffffffffff19166020820180517bffffffffffffffffffffffffffffffffffffffffffffffffffffffff8381831617835250505050612d33565b5050565b60006002600083815260200190815260200160002060009054906101000a900473ffffffffffffffffffffffffffffffffffffffff169050919050565b6000816000015490506000811161274e576040517f08c379a00000000000000000000000000000000000000000000000000000000081526004016127459061453f565b60405180910390fd5b6001810382600001819055505050565b8173ffffffffffffffffffffffffffffffffffffffff168373ffffffffffffffffffffffffffffffffffffffff16036127cc576040517f08c379a00000000000000000000000000000000000000000000000000000000081526004016127c3906145ab565b60405180910390fd5b80600560008573ffffffffffffffffffffffffffffffffffffffff1673ffffffffffffffffffffffffffffffffffffffff16815260200190815260200160002060008473ffffffffffffffffffffffffffffffffffffffff1673ffffffffffffffffffffffffffffffffffffffff16815260200190815260200160002060006101000a81548160ff0219169083151502179055508173ffffffffffffffffffffffffffffffffffffffff168373ffffffffffffffffffffffffffffffffffffffff167f17307eab39ab6107e8899845ad3d59bd9653f200f220920489ca2b5937696c31836040516128bd9190613283565b60405180910390a3505050565b6128d5848484612330565b6128e184848484612d4d565b612920576040517f08c379a00000000000000000000000000000000000000000000000000000000081526004016129179061463d565b60405180910390fd5b50505050565b6001816000016000828254019250508190555050565b600073ffffffffffffffffffffffffffffffffffffffff168273ffffffffffffffffffffffffffffffffffffffff16036129ab576040517f08c379a00000000000000000000000000000000000000000000000000000000081526004016129a2906146a9565b60405180910390fd5b6129b481612ce6565b156129f4576040517f08c379a00000000000000000000000000000000000000000000000000000000081526004016129eb90614715565b60405180910390fd5b612a02600083836001612d27565b612a0b81612ce6565b15612a4b576040517f08c379a0000000000000000000000000000000000000000000000000000000008152600401612a4290614715565b60405180910390fd5b6001600360008473ffffffffffffffffffffffffffffffffffffffff1673ffffffffffffffffffffffffffffffffffffffff16815260200190815260200160002060008282540192505081905550816002600083815260200190815260200160002060006101000a81548173ffffffffffffffffffffffffffffffffffffffff021916908373ffffffffffffffffffffffffffffffffffffffff160217905550808273ffffffffffffffffffffffffffffffffffffffff16600073ffffffffffffffffffffffffffffffffffffffff167fddf252ad1be2c89b69c2b068fc378daa952ba7f163c4a11628f55a4df523b3ef60405160405180910390a4612b55600083836001612d2d565b5050565b612b6282612ce6565b612ba1576040517f08c379a0000000000000000000000000000000000000000000000000000000008152600401612b98906147a7565b60405180910390fd5b80600660008481526020019081526020016000209081612bc19190614973565b507ff8e1a15aba9398e019f0b49df1a4fde98ee17ae345cb5f6b5e2c27f5033e8ce782604051612bf1919061373b565b60405180910390a15050565b606060405180602001604052806000815250905090565b6060612c1f82612181565b6000612c29612bfd565b90506000815111612c495760405180602001604052806000815250612c74565b80612c5384612ed4565b604051602001612c6492919061437b565b6040516020818303038152906040525b915050919050565b60007f01ffc9a7000000000000000000000000000000000000000000000000000000007bffffffffffffffffffffffffffffffffffffffffffffffffffffffff1916827bffffffffffffffffffffffffffffffffffffffffffffffffffffffff1916149050919050565b60008073ffffffffffffffffffffffffffffffffffffffff16612d08836126c5565b73ffffffffffffffffffffffffffffffffffffffff1614159050919050565b50505050565b50505050565b612d4a81612d42612fa2612fc3565b63ffffffff16565b50565b6000612d6e8473ffffffffffffffffffffffffffffffffffffffff16612fce565b15612ec7578373ffffffffffffffffffffffffffffffffffffffff1663150b7a02612d976121cc565b8786866040518563ffffffff1660e01b8152600401612db99493929190614a9a565b6020604051808303816000875af1925050508015612df557506040513d601f19601f82011682018060405250810190612df29190614afb565b60015b612e77573d8060008114612e25576040519150601f19603f3d011682016040523d82523d6000602084013e612e2a565b606091505b506000815103612e6f576040517f08c379a0000000000000000000000000000000000000000000000000000000008152600401612e669061463d565b60405180910390fd5b805181602001fd5b63150b7a0260e01b7bffffffffffffffffffffffffffffffffffffffffffffffffffffffff1916817bffffffffffffffffffffffffffffffffffffffffffffffffffffffff191614915050612ecc565b600190505b949350505050565b606060006001612ee384612ff1565b01905060008167ffffffffffffffff811115612f0257612f01613844565b5b6040519080825280601f01601f191660200182016040528015612f345781602001600182028036833780820191505090505b509050600082602001820190505b600115612f97578080600190039150507f3031323334353637383961626364656600000000000000000000000000000000600a86061a8153600a8581612f8b57612f8a614b28565b5b04945060008503612f42575b819350505050919050565b60006a636f6e736f6c652e6c6f679050600080835160208501845afa505050565b6131c5819050919050565b6000808273ffffffffffffffffffffffffffffffffffffffff163b119050919050565b600080600090507a184f03e93ff9f4daa797ed6e38ed64bf6a1f010000000000000000831061304f577a184f03e93ff9f4daa797ed6e38ed64bf6a1f010000000000000000838161304557613044614b28565b5b0492506040810190505b6d04ee2d6d415b85acef8100000000831061308c576d04ee2d6d415b85acef8100000000838161308257613081614b28565b5b0492506020810190505b662386f26fc1000083106130bb57662386f26fc1000083816130b1576130b0614b28565b5b0492506010810190505b6305f5e10083106130e4576305f5e10083816130da576130d9614b28565b5b0492506008810190505b61271083106131095761271083816130ff576130fe614b28565b5b0492506004810190505b6064831061312c576064838161312257613121614b28565b5b0492506002810190505b600a831061313b576001810190505b80915050919050565b6040518060e0016040528060008152602001600073ffffffffffffffffffffffffffffffffffffffff168152602001600073ffffffffffffffffffffffffffffffffffffffff168152602001600073ffffffffffffffffffffffffffffffffffffffff16815260200160008152602001600081526020016000151581525090565b6131cd614b57565b565b6000604051905090565b600080fd5b600080fd5b60007fffffffff0000000000000000000000000000000000000000000000000000000082169050919050565b613218816131e3565b811461322357600080fd5b50565b6000813590506132358161320f565b92915050565b600060208284031215613251576132506131d9565b5b600061325f84828501613226565b91505092915050565b60008115159050919050565b61327d81613268565b82525050565b60006020820190506132986000830184613274565b92915050565b600081519050919050565b600082825260208201905092915050565b60005b838110156132d85780820151818401526020810190506132bd565b60008484015250505050565b6000601f19601f8301169050919050565b60006133008261329e565b61330a81856132a9565b935061331a8185602086016132ba565b613323816132e4565b840191505092915050565b6000602082019050818103600083015261334881846132f5565b905092915050565b6000819050919050565b61336381613350565b811461336e57600080fd5b50565b6000813590506133808161335a565b92915050565b60006020828403121561339c5761339b6131d9565b5b60006133aa84828501613371565b91505092915050565b600073ffffffffffffffffffffffffffffffffffffffff82169050919050565b60006133de826133b3565b9050919050565b6133ee816133d3565b82525050565b600060208201905061340960008301846133e5565b92915050565b613418816133d3565b811461342357600080fd5b50565b6000813590506134358161340f565b92915050565b60008060408385031215613452576134516131d9565b5b600061346085828601613426565b925050602061347185828601613371565b9150509250929050565b600081519050919050565b600082825260208201905092915050565b6000819050602082019050919050565b6134b081613350565b82525050565b60006134c1826133b3565b9050919050565b6134d1816134b6565b82525050565b6134e081613268565b82525050565b60e0820160008201516134fc60008501826134a7565b50602082015161350f60208501826134c8565b50604082015161352260408501826134c8565b50606082015161353560608501826134c8565b50608082015161354860808501826134a7565b5060a082015161355b60a08501826134a7565b5060c082015161356e60c08501826134d7565b50505050565b600061358083836134e6565b60e08301905092915050565b6000602082019050919050565b60006135a48261347b565b6135ae8185613486565b93506135b983613497565b8060005b838110156135ea5781516135d18882613574565b97506135dc8361358c565b9250506001810190506135bd565b5085935050505092915050565b600060208201905081810360008301526136118184613599565b905092915050565b600080600060608486031215613632576136316131d9565b5b600061364086828701613426565b935050602061365186828701613426565b925050604061366286828701613371565b9150509250925092565b600080600060608486031215613685576136846131d9565b5b600061369386828701613371565b93505060206136a486828701613371565b92505060406136b586828701613371565b9150509250925092565b600080604083850312156136d6576136d56131d9565b5b60006136e485828601613371565b92505060206136f585828601613371565b9150509250929050565b600060208284031215613715576137146131d9565b5b600061372384828501613426565b91505092915050565b61373581613350565b82525050565b6000602082019050613750600083018461372c565b92915050565b6000806040838503121561376d5761376c6131d9565b5b600061377b85828601613371565b925050602061378c85828601613426565b9150509250929050565b61379f81613268565b81146137aa57600080fd5b50565b6000813590506137bc81613796565b92915050565b600080604083850312156137d9576137d86131d9565b5b60006137e785828601613426565b92505060206137f8858286016137ad565b9150509250929050565b61380b816134b6565b82525050565b6000604082019050613826600083018561372c565b6138336020830184613802565b9392505050565b600080fd5b600080fd5b7f4e487b7100000000000000000000000000000000000000000000000000000000600052604160045260246000fd5b61387c826132e4565b810181811067ffffffffffffffff8211171561389b5761389a613844565b5b80604052505050565b60006138ae6131cf565b90506138ba8282613873565b919050565b600067ffffffffffffffff8211156138da576138d9613844565b5b6138e3826132e4565b9050602081019050919050565b82818337600083830152505050565b600061391261390d846138bf565b6138a4565b90508281526020810184848401111561392e5761392d61383f565b5b6139398482856138f0565b509392505050565b600082601f8301126139565761395561383a565b5b81356139668482602086016138ff565b91505092915050565b60008060008060808587031215613989576139886131d9565b5b600061399787828801613426565b94505060206139a887828801613426565b93505060406139b987828801613371565b925050606085013567ffffffffffffffff8111156139da576139d96131de565b5b6139e687828801613941565b91505092959194509250565b600067ffffffffffffffff821115613a0d57613a0c613844565b5b613a16826132e4565b9050602081019050919050565b6000613a36613a31846139f2565b6138a4565b905082815260208101848484011115613a5257613a5161383f565b5b613a5d8482856138f0565b509392505050565b600082601f830112613a7a57613a7961383a565b5b8135613a8a848260208601613a23565b91505092915050565b600080600060608486031215613aac57613aab6131d9565b5b600084013567ffffffffffffffff811115613aca57613ac96131de565b5b613ad686828701613a65565b9350506020613ae786828701613371565b9250506040613af886828701613371565b9150509250925092565b60008060408385031215613b1957613b186131d9565b5b6000613b2785828601613426565b9250506020613b3885828601613426565b9150509250929050565b7f4e487b7100000000000000000000000000000000000000000000000000000000600052602260045260246000fd5b60006002820490506001821680613b8957607f821691505b602082108103613b9c57613b9b613b42565b5b50919050565b7f4552433732313a20617070726f76616c20746f2063757272656e74206f776e6560008201527f7200000000000000000000000000000000000000000000000000000000000000602082015250565b6000613bfe6021836132a9565b9150613c0982613ba2565b604082019050919050565b60006020820190508181036000830152613c2d81613bf1565b9050919050565b7f4552433732313a20617070726f76652063616c6c6572206973206e6f7420746f60008201527f6b656e206f776e6572206f7220617070726f76656420666f7220616c6c000000602082015250565b6000613c90603d836132a9565b9150613c9b82613c34565b604082019050919050565b60006020820190508181036000830152613cbf81613c83565b9050919050565b7f4e487b7100000000000000000000000000000000000000000000000000000000600052601160045260246000fd5b6000613d0082613350565b9150613d0b83613350565b9250828203905081811115613d2357613d22613cc6565b5b92915050565b6000613d3482613350565b9150613d3f83613350565b9250828201905080821115613d5757613d56613cc6565b5b92915050565b7f4e487b7100000000000000000000000000000000000000000000000000000000600052603260045260246000fd5b6000613d9782613350565b91507fffffffffffffffffffffffffffffffffffffffffffffffffffffffffffffffff8203613dc957613dc8613cc6565b5b600182019050919050565b7f4552433732313a2063616c6c6572206973206e6f7420746f6b656e206f776e6560008201527f72206f7220617070726f76656400000000000000000000000000000000000000602082015250565b6000613e30602d836132a9565b9150613e3b82613dd4565b604082019050919050565b60006020820190508181036000830152613e5f81613e23565b9050919050565b7f6f6e6c79206f776e6572206f662074686520636f6e74726163742063616e207560008201527f706461746520746865206c697374696e67207072696365000000000000000000602082015250565b6000613ec26037836132a9565b9150613ecd82613e66565b604082019050919050565b60006020820190508181036000830152613ef181613eb5565b9050919050565b7f4e6f2066756e647320746f207769746864726177000000000000000000000000600082015250565b6000613f2e6014836132a9565b9150613f3982613ef8565b602082019050919050565b60006020820190508181036000830152613f5d81613f21565b9050919050565b600081905092915050565b50565b6000613f7f600083613f64565b9150613f8a82613f6f565b600082019050919050565b6000613fa082613f72565b9150819050919050565b7f4661696c656420746f2077697468647261772066756e64730000000000000000600082015250565b6000613fe06018836132a9565b9150613feb82613faa565b602082019050919050565b6000602082019050818103600083015261400f81613fd3565b9050919050565b600060408201905061402b600083018561372c565b61403860208301846133e5565b9392505050565b7f5072696365206d757374206265206174206c6561737420312077656900000000600082015250565b6000614075601c836132a9565b91506140808261403f565b602082019050919050565b600060208201905081810360008301526140a481614068565b9050919050565b7f5072696365206d757374206265207061696420696e2066756c6c000000000000600082015250565b60006140e1601a836132a9565b91506140ec826140ab565b602082019050919050565b60006020820190508181036000830152614110816140d4565b9050919050565b600060c08201905061412c60008301896133e5565b61413960208301886133e5565b61414660408301876133e5565b614153606083018661372c565b614160608083018561372c565b61416d60a0830184613274565b979650505050505050565b7f4552433732313a20696e76616c696420746f6b656e2049440000000000000000600082015250565b60006141ae6018836132a9565b91506141b982614178565b602082019050919050565b600060208201905081810360008301526141dd816141a1565b9050919050565b7f4552433732313a2061646472657373207a65726f206973206e6f74206120766160008201527f6c6964206f776e65720000000000000000000000000000000000000000000000602082015250565b60006142406029836132a9565b915061424b826141e4565b604082019050919050565b6000602082019050818103600083015261426f81614233565b9050919050565b600060608201905061428b60008301866133e5565b61429860208301856133e5565b6142a5604083018461372c565b949350505050565b7f506c65617365207375626d6974207468652061736b696e67207072696365206960008201527f6e206f7264657220746f20636f6d706c65746520746865207075726368617365602082015250565b60006143096040836132a9565b9150614314826142ad565b604082019050919050565b60006020820190508181036000830152614338816142fc565b9050919050565b600081905092915050565b60006143558261329e565b61435f818561433f565b935061436f8185602086016132ba565b80840191505092915050565b6000614387828561434a565b9150614393828461434a565b91508190509392505050565b7f4552433732313a207472616e736665722066726f6d20696e636f72726563742060008201527f6f776e6572000000000000000000000000000000000000000000000000000000602082015250565b60006143fb6025836132a9565b91506144068261439f565b604082019050919050565b6000602082019050818103600083015261442a816143ee565b9050919050565b7f4552433732313a207472616e7366657220746f20746865207a65726f2061646460008201527f7265737300000000000000000000000000000000000000000000000000000000602082015250565b600061448d6024836132a9565b915061449882614431565b604082019050919050565b600060208201905081810360008301526144bc81614480565b9050919050565b600060408201905081810360008301526144dd81856132f5565b90506144ec60208301846133e5565b9392505050565b7f436f756e7465723a2064656372656d656e74206f766572666c6f770000000000600082015250565b6000614529601b836132a9565b9150614534826144f3565b602082019050919050565b600060208201905081810360008301526145588161451c565b9050919050565b7f4552433732313a20617070726f766520746f2063616c6c657200000000000000600082015250565b60006145956019836132a9565b91506145a08261455f565b602082019050919050565b600060208201905081810360008301526145c481614588565b9050919050565b7f4552433732313a207472616e7366657220746f206e6f6e20455243373231526560008201527f63656976657220696d706c656d656e7465720000000000000000000000000000602082015250565b60006146276032836132a9565b9150614632826145cb565b604082019050919050565b600060208201905081810360008301526146568161461a565b9050919050565b7f4552433732313a206d696e7420746f20746865207a65726f2061646472657373600082015250565b60006146936020836132a9565b915061469e8261465d565b602082019050919050565b600060208201905081810360008301526146c281614686565b9050919050565b7f4552433732313a20746f6b656e20616c7265616479206d696e74656400000000600082015250565b60006146ff601c836132a9565b915061470a826146c9565b602082019050919050565b6000602082019050818103600083015261472e816146f2565b9050919050565b7f45524337323155524953746f726167653a2055524920736574206f66206e6f6e60008201527f6578697374656e7420746f6b656e000000000000000000000000000000000000602082015250565b6000614791602e836132a9565b915061479c82614735565b604082019050919050565b600060208201905081810360008301526147c081614784565b9050919050565b60008190508160005260206000209050919050565b60006020601f8301049050919050565b600082821b905092915050565b6000600883026148297fffffffffffffffffffffffffffffffffffffffffffffffffffffffffffffffff826147ec565b61483386836147ec565b95508019841693508086168417925050509392505050565b6000819050919050565b600061487061486b61486684613350565b61484b565b613350565b9050919050565b6000819050919050565b61488a83614855565b61489e61489682614877565b8484546147f9565b825550505050565b600090565b6148b36148a6565b6148be818484614881565b505050565b5b818110156148e2576148d76000826148ab565b6001810190506148c4565b5050565b601f821115614927576148f8816147c7565b614901846147dc565b81016020851015614910578190505b61492461491c856147dc565b8301826148c3565b50505b505050565b600082821c905092915050565b600061494a6000198460080261492c565b1980831691505092915050565b60006149638383614939565b9150826002028217905092915050565b61497c8261329e565b67ffffffffffffffff81111561499557614994613844565b5b61499f8254613b71565b6149aa8282856148e6565b600060209050601f8311600181146149dd57600084156149cb578287015190505b6149d58582614957565b865550614a3d565b601f1984166149eb866147c7565b60005b82811015614a13578489015182556001820191506020850194506020810190506149ee565b86831015614a305784890151614a2c601f891682614939565b8355505b6001600288020188555050505b505050505050565b600081519050919050565b600082825260208201905092915050565b6000614a6c82614a45565b614a768185614a50565b9350614a868185602086016132ba565b614a8f816132e4565b840191505092915050565b6000608082019050614aaf60008301876133e5565b614abc60208301866133e5565b614ac9604083018561372c565b8181036060830152614adb8184614a61565b905095945050505050565b600081519050614af58161320f565b92915050565b600060208284031215614b1157614b106131d9565b5b6000614b1f84828501614ae6565b91505092915050565b7f4e487b7100000000000000000000000000000000000000000000000000000000600052601260045260246000fd5b7f4e487b7100000000000000000000000000000000000000000000000000000000600052605160045260246000fdfe6372656174654d61726b65744974656d2066756e6374696f6e2063616c6c65723a20a264697066735822122072878644b860e978ff253895f6e6a4440cfd5fddf405dae0a99a3ce9940f2b2264736f6c63430008130033",
  "linkReferences": {},
  "deployedLinkReferences": {}
}