{
  "_format": "hh-sol-artifact-1",
  "contractName": "Marketplace",
  "sourceName": "contracts/Marketplace.sol",
  "abi": [
    {
      "inputs": [],
      "stateMutability": "nonpayable",
      "type": "constructor"
    },
    {
      "anonymous": false,
      "inputs": [
        {
          "indexed": true,
          "internalType": "address",
          "name": "owner",
          "type": "address"
        },
        {
          "indexed": true,
          "internalType": "address",
          "name": "approved",
          "type": "address"
        },
        {
          "indexed": true,
          "internalType": "uint256",
          "name": "tokenId",
          "type": "uint256"
        }
      ],
      "name": "Approval",
      "type": "event"
    },
    {
      "anonymous": false,
      "inputs": [
        {
          "indexed": true,
          "internalType": "address",
          "name": "owner",
          "type": "address"
        },
        {
          "indexed": true,
          "internalType": "address",
          "name": "operator",
          "type": "address"
        },
        {
          "indexed": false,
          "internalType": "bool",
          "name": "approved",
          "type": "bool"
        }
      ],
      "name": "ApprovalForAll",
      "type": "event"
    },
    {
      "anonymous": false,
      "inputs": [
        {
          "indexed": false,
          "internalType": "uint256",
          "name": "_fromTokenId",
          "type": "uint256"
        },
        {
          "indexed": false,
          "internalType": "uint256",
          "name": "_toTokenId",
          "type": "uint256"
        }
      ],
      "name": "BatchMetadataUpdate",
      "type": "event"
    },
    {
      "anonymous": false,
      "inputs": [
        {
          "indexed": false,
          "internalType": "uint256",
          "name": "amount",
          "type": "uint256"
        },
        {
          "indexed": false,
          "internalType": "address",
          "name": "targetWallet",
          "type": "address"
        }
      ],
      "name": "FundsWithdrawn",
      "type": "event"
    },
    {
      "anonymous": false,
      "inputs": [
        {
          "indexed": true,
          "internalType": "uint256",
          "name": "tokenId",
          "type": "uint256"
        },
        {
          "indexed": false,
          "internalType": "address",
          "name": "originalOwner",
          "type": "address"
        },
        {
          "indexed": false,
          "internalType": "address",
          "name": "seller",
          "type": "address"
        },
        {
          "indexed": false,
          "internalType": "address",
          "name": "owner",
          "type": "address"
        },
        {
          "indexed": false,
          "internalType": "uint256",
          "name": "royaltyPercentage",
          "type": "uint256"
        },
        {
          "indexed": false,
          "internalType": "uint256",
          "name": "price",
          "type": "uint256"
        },
        {
          "indexed": false,
          "internalType": "bool",
          "name": "sold",
          "type": "bool"
        }
      ],
      "name": "MarketItemCreated",
      "type": "event"
    },
    {
      "anonymous": false,
      "inputs": [
        {
          "indexed": false,
          "internalType": "uint256",
          "name": "_tokenId",
          "type": "uint256"
        }
      ],
      "name": "MetadataUpdate",
      "type": "event"
    },
    {
      "anonymous": false,
      "inputs": [
        {
          "indexed": false,
          "internalType": "uint256",
          "name": "nftId",
          "type": "uint256"
        },
        {
          "indexed": false,
          "internalType": "address",
          "name": "auctionWinner",
          "type": "address"
        }
      ],
      "name": "NFTTransferred",
      "type": "event"
    },
    {
      "anonymous": false,
      "inputs": [
        {
          "indexed": true,
          "internalType": "address",
          "name": "from",
          "type": "address"
        },
        {
          "indexed": true,
          "internalType": "address",
          "name": "to",
          "type": "address"
        },
        {
          "indexed": true,
          "internalType": "uint256",
          "name": "tokenId",
          "type": "uint256"
        }
      ],
      "name": "Transfer",
      "type": "event"
    },
    {
      "stateMutability": "payable",
      "type": "fallback"
    },
    {
      "inputs": [
        {
          "internalType": "address",
          "name": "to",
          "type": "address"
        },
        {
          "internalType": "uint256",
          "name": "tokenId",
          "type": "uint256"
        }
      ],
      "name": "approve",
      "outputs": [],
      "stateMutability": "nonpayable",
      "type": "function"
    },
    {
      "inputs": [
        {
          "internalType": "address",
          "name": "owner",
          "type": "address"
        }
      ],
      "name": "balanceOf",
      "outputs": [
        {
          "internalType": "uint256",
          "name": "",
          "type": "uint256"
        }
      ],
      "stateMutability": "view",
      "type": "function"
    },
    {
      "inputs": [
        {
          "internalType": "uint256",
          "name": "tokenId",
          "type": "uint256"
        },
        {
          "internalType": "uint256",
          "name": "royaltyPercentage",
          "type": "uint256"
        },
        {
          "internalType": "uint256",
          "name": "price",
          "type": "uint256"
        }
      ],
      "name": "createMarketItem",
      "outputs": [],
      "stateMutability": "payable",
      "type": "function"
    },
    {
      "inputs": [
        {
          "internalType": "uint256",
          "name": "tokenId",
          "type": "uint256"
        }
      ],
      "name": "createMarketSale",
      "outputs": [],
      "stateMutability": "payable",
      "type": "function"
    },
    {
      "inputs": [
        {
          "internalType": "string",
          "name": "tokenURI",
          "type": "string"
        },
        {
          "internalType": "uint256",
          "name": "royaltyPercentage",
          "type": "uint256"
        },
        {
          "internalType": "uint256",
          "name": "price",
          "type": "uint256"
        }
      ],
      "name": "createToken",
      "outputs": [
        {
          "internalType": "uint256",
          "name": "",
          "type": "uint256"
        }
      ],
      "stateMutability": "payable",
      "type": "function"
    },
    {
      "inputs": [
        {
          "internalType": "uint256",
          "name": "tokenId",
          "type": "uint256"
        }
      ],
      "name": "delistMarketItem",
      "outputs": [],
      "stateMutability": "nonpayable",
      "type": "function"
    },
    {
      "inputs": [],
      "name": "fetchItemsListed",
      "outputs": [
        {
          "components": [
            {
              "internalType": "uint256",
              "name": "tokenId",
              "type": "uint256"
            },
            {
              "internalType": "address payable",
              "name": "originalOwner",
              "type": "address"
            },
            {
              "internalType": "address payable",
              "name": "seller",
              "type": "address"
            },
            {
              "internalType": "address payable",
              "name": "owner",
              "type": "address"
            },
            {
              "internalType": "uint256",
              "name": "royaltyPercentage",
              "type": "uint256"
            },
            {
              "internalType": "uint256",
              "name": "price",
              "type": "uint256"
            },
            {
              "internalType": "bool",
              "name": "sold",
              "type": "bool"
            }
          ],
          "internalType": "struct Marketplace.MarketItem[]",
          "name": "",
          "type": "tuple[]"
        }
      ],
      "stateMutability": "view",
      "type": "function"
    },
    {
      "inputs": [],
      "name": "fetchMarketItems",
      "outputs": [
        {
          "components": [
            {
              "internalType": "uint256",
              "name": "tokenId",
              "type": "uint256"
            },
            {
              "internalType": "address payable",
              "name": "originalOwner",
              "type": "address"
            },
            {
              "internalType": "address payable",
              "name": "seller",
              "type": "address"
            },
            {
              "internalType": "address payable",
              "name": "owner",
              "type": "address"
            },
            {
              "internalType": "uint256",
              "name": "royaltyPercentage",
              "type": "uint256"
            },
            {
              "internalType": "uint256",
              "name": "price",
              "type": "uint256"
            },
            {
              "internalType": "bool",
              "name": "sold",
              "type": "bool"
            }
          ],
          "internalType": "struct Marketplace.MarketItem[]",
          "name": "",
          "type": "tuple[]"
        }
      ],
      "stateMutability": "view",
      "type": "function"
    },
    {
      "inputs": [],
      "name": "fetchMyNFT",
      "outputs": [
        {
          "components": [
            {
              "internalType": "uint256",
              "name": "tokenId",
              "type": "uint256"
            },
            {
              "internalType": "address payable",
              "name": "originalOwner",
              "type": "address"
            },
            {
              "internalType": "address payable",
              "name": "seller",
              "type": "address"
            },
            {
              "internalType": "address payable",
              "name": "owner",
              "type": "address"
            },
            {
              "internalType": "uint256",
              "name": "royaltyPercentage",
              "type": "uint256"
            },
            {
              "internalType": "uint256",
              "name": "price",
              "type": "uint256"
            },
            {
              "internalType": "bool",
              "name": "sold",
              "type": "bool"
            }
          ],
          "internalType": "struct Marketplace.MarketItem[]",
          "name": "",
          "type": "tuple[]"
        }
      ],
      "stateMutability": "view",
      "type": "function"
    },
    {
      "inputs": [
        {
          "internalType": "uint256",
          "name": "tokenId",
          "type": "uint256"
        }
      ],
      "name": "getApproved",
      "outputs": [
        {
          "internalType": "address",
          "name": "",
          "type": "address"
        }
      ],
      "stateMutability": "view",
      "type": "function"
    },
    {
      "inputs": [
        {
          "internalType": "uint256",
          "name": "tokenId",
          "type": "uint256"
        }
      ],
      "name": "getNFTPrice",
      "outputs": [
        {
          "internalType": "uint256",
          "name": "price",
          "type": "uint256"
        }
      ],
      "stateMutability": "view",
      "type": "function"
    },
    {
      "inputs": [
        {
          "internalType": "uint256",
          "name": "tokenId",
          "type": "uint256"
        }
      ],
      "name": "getRoyaltyData",
      "outputs": [
        {
          "internalType": "uint256",
          "name": "",
          "type": "uint256"
        },
        {
          "internalType": "address payable",
          "name": "",
          "type": "address"
        }
      ],
      "stateMutability": "view",
      "type": "function"
    },
    {
      "inputs": [
        {
          "internalType": "uint256",
          "name": "tokenId",
          "type": "uint256"
        }
      ],
      "name": "getSellerAddress",
      "outputs": [
        {
          "internalType": "address",
          "name": "",
          "type": "address"
        }
      ],
      "stateMutability": "view",
      "type": "function"
    },
    {
      "inputs": [
        {
          "internalType": "uint256",
          "name": "tokenId",
          "type": "uint256"
        },
        {
          "internalType": "address",
          "name": "winner",
          "type": "address"
        }
      ],
      "name": "handleAuctionEnd",
      "outputs": [],
      "stateMutability": "nonpayable",
      "type": "function"
    },
    {
      "inputs": [
        {
          "internalType": "address",
          "name": "owner",
          "type": "address"
        },
        {
          "internalType": "address",
          "name": "operator",
          "type": "address"
        }
      ],
      "name": "isApprovedForAll",
      "outputs": [
        {
          "internalType": "bool",
          "name": "",
          "type": "bool"
        }
      ],
      "stateMutability": "view",
      "type": "function"
    },
    {
      "inputs": [],
      "name": "listingPrice",
      "outputs": [
        {
          "internalType": "uint256",
          "name": "",
          "type": "uint256"
        }
      ],
      "stateMutability": "view",
      "type": "function"
    },
    {
      "inputs": [],
      "name": "name",
      "outputs": [
        {
          "internalType": "string",
          "name": "",
          "type": "string"
        }
      ],
      "stateMutability": "view",
      "type": "function"
    },
    {
      "inputs": [
        {
          "internalType": "uint256",
          "name": "tokenId",
          "type": "uint256"
        }
      ],
      "name": "ownerOf",
      "outputs": [
        {
          "internalType": "address",
          "name": "",
          "type": "address"
        }
      ],
      "stateMutability": "view",
      "type": "function"
    },
    {
      "inputs": [
        {
          "internalType": "uint256",
          "name": "tokenId",
          "type": "uint256"
        },
        {
          "internalType": "uint256",
          "name": "price",
          "type": "uint256"
        },
        {
          "internalType": "address",
          "name": "seller",
          "type": "address"
        }
      ],
      "name": "resellMarketItem",
      "outputs": [],
      "stateMutability": "payable",
      "type": "function"
    },
    {
      "inputs": [
        {
          "internalType": "address",
          "name": "from",
          "type": "address"
        },
        {
          "internalType": "address",
          "name": "to",
          "type": "address"
        },
        {
          "internalType": "uint256",
          "name": "tokenId",
          "type": "uint256"
        }
      ],
      "name": "safeTransferFrom",
      "outputs": [],
      "stateMutability": "nonpayable",
      "type": "function"
    },
    {
      "inputs": [
        {
          "internalType": "address",
          "name": "from",
          "type": "address"
        },
        {
          "internalType": "address",
          "name": "to",
          "type": "address"
        },
        {
          "internalType": "uint256",
          "name": "tokenId",
          "type": "uint256"
        },
        {
          "internalType": "bytes",
          "name": "data",
          "type": "bytes"
        }
      ],
      "name": "safeTransferFrom",
      "outputs": [],
      "stateMutability": "nonpayable",
      "type": "function"
    },
    {
      "inputs": [
        {
          "internalType": "address",
          "name": "operator",
          "type": "address"
        },
        {
          "internalType": "bool",
          "name": "approved",
          "type": "bool"
        }
      ],
      "name": "setApprovalForAll",
      "outputs": [],
      "stateMutability": "nonpayable",
      "type": "function"
    },
    {
      "inputs": [
        {
          "internalType": "address",
          "name": "auctionFactoryAddress",
          "type": "address"
        }
      ],
      "name": "setAuctionFactoryAddress",
      "outputs": [],
      "stateMutability": "nonpayable",
      "type": "function"
    },
    {
      "inputs": [
        {
          "internalType": "bytes4",
          "name": "interfaceId",
          "type": "bytes4"
        }
      ],
      "name": "supportsInterface",
      "outputs": [
        {
          "internalType": "bool",
          "name": "",
          "type": "bool"
        }
      ],
      "stateMutability": "view",
      "type": "function"
    },
    {
      "inputs": [],
      "name": "symbol",
      "outputs": [
        {
          "internalType": "string",
          "name": "",
          "type": "string"
        }
      ],
      "stateMutability": "view",
      "type": "function"
    },
    {
      "inputs": [
        {
          "internalType": "uint256",
          "name": "tokenId",
          "type": "uint256"
        }
      ],
      "name": "tokenURI",
      "outputs": [
        {
          "internalType": "string",
          "name": "",
          "type": "string"
        }
      ],
      "stateMutability": "view",
      "type": "function"
    },
    {
      "inputs": [
        {
          "internalType": "address",
          "name": "from",
          "type": "address"
        },
        {
          "internalType": "address",
          "name": "to",
          "type": "address"
        },
        {
          "internalType": "uint256",
          "name": "tokenId",
          "type": "uint256"
        }
      ],
      "name": "transferFrom",
      "outputs": [],
      "stateMutability": "nonpayable",
      "type": "function"
    },
    {
      "inputs": [
        {
          "internalType": "address",
          "name": "auctionContractAddress",
          "type": "address"
        },
        {
          "internalType": "uint256",
          "name": "tokenId",
          "type": "uint256"
        }
      ],
      "name": "triggerEndAuction",
      "outputs": [],
      "stateMutability": "nonpayable",
      "type": "function"
    },
    {
      "inputs": [
        {
          "internalType": "uint256",
          "name": "_listingPrice",
          "type": "uint256"
        }
      ],
      "name": "updateListingPrice",
      "outputs": [],
      "stateMutability": "payable",
      "type": "function"
    },
    {
      "inputs": [
        {
          "internalType": "uint256",
          "name": "tokenId",
          "type": "uint256"
        },
        {
          "internalType": "uint256",
          "name": "price",
          "type": "uint256"
        }
      ],
      "name": "updateNFTPrice",
      "outputs": [],
      "stateMutability": "nonpayable",
      "type": "function"
    },
    {
      "inputs": [],
      "name": "withdrawFunds",
      "outputs": [],
      "stateMutability": "nonpayable",
      "type": "function"
    },
    {
      "stateMutability": "payable",
      "type": "receive"
    }
  ],
  "bytecode": "0x60806040526608e1bc9bf04000600a553480156200001c57600080fd5b506040518060400160405280601381526020017f4e4654204d657461766572736520546f6b656e000000000000000000000000008152506040518060400160405280600581526020017f4d594e465400000000000000000000000000000000000000000000000000000081525081600090816200009a919062000378565b508060019081620000ac919062000378565b505050600160078190555033600b60006101000a81548173ffffffffffffffffffffffffffffffffffffffff021916908373ffffffffffffffffffffffffffffffffffffffff1602179055506200045f565b600081519050919050565b7f4e487b7100000000000000000000000000000000000000000000000000000000600052604160045260246000fd5b7f4e487b7100000000000000000000000000000000000000000000000000000000600052602260045260246000fd5b600060028204905060018216806200018057607f821691505b60208210810362000196576200019562000138565b5b50919050565b60008190508160005260206000209050919050565b60006020601f8301049050919050565b600082821b905092915050565b600060088302620002007fffffffffffffffffffffffffffffffffffffffffffffffffffffffffffffffff82620001c1565b6200020c8683620001c1565b95508019841693508086168417925050509392505050565b6000819050919050565b6000819050919050565b600062000259620002536200024d8462000224565b6200022e565b62000224565b9050919050565b6000819050919050565b620002758362000238565b6200028d620002848262000260565b848454620001ce565b825550505050565b600090565b620002a462000295565b620002b18184846200026a565b505050565b5b81811015620002d957620002cd6000826200029a565b600181019050620002b7565b5050565b601f8211156200032857620002f2816200019c565b620002fd84620001b1565b810160208510156200030d578190505b620003256200031c85620001b1565b830182620002b6565b50505b505050565b600082821c905092915050565b60006200034d600019846008026200032d565b1980831691505092915050565b60006200036883836200033a565b9150826002028217905092915050565b6200038382620000fe565b67ffffffffffffffff8111156200039f576200039e62000109565b5b620003ab825462000167565b620003b8828285620002dd565b600060209050601f831160018114620003f05760008415620003db578287015190505b620003e785826200035a565b86555062000457565b601f19841662000400866200019c565b60005b828110156200042a5784890151825560018201915060208501945060208101905062000403565b868310156200044a578489015162000446601f8916826200033a565b8355505b6001600288020188555050505b505050505050565b61566c806200046f6000396000f3fe6080604052600436106101dc5760003560e01c80638f329b3111610102578063b88d4fde11610095578063c68a0e1611610064578063c68a0e1614610690578063c78f19f9146106b9578063c87b56dd146106e4578063e985e9c514610721576101e3565b8063b88d4fde146105f0578063be9af53614610619578063bec2a7c514610635578063c18763f714610665576101e3565b8063a22cb465116100d1578063a22cb46514610530578063a65ff74c14610559578063a675364d14610597578063ae677aa3146105d4576101e3565b80638f329b3114610476578063929761791461049f57806395d89b41146104dc57806399f14a8b14610507576101e3565b806324600fc31161017a5780634ac0123d116101495780634ac0123d146103b75780636352211e146103e057806370a082311461041d578063804fa8351461045a576101e3565b806324600fc314610330578063320343da1461034757806342842e0e1461036357806345f8fa801461038c576101e3565b8063095ea7b3116101b6578063095ea7b31461028a5780630f08efe0146102b35780631cb88133146102de57806323b872dd14610307576101e3565b806301ffc9a7146101e557806306fdde0314610222578063081812fc1461024d576101e3565b366101e357005b005b3480156101f157600080fd5b5061020c60048036038101906102079190613a86565b61075e565b6040516102199190613ace565b60405180910390f35b34801561022e57600080fd5b506102376107bf565b6040516102449190613b79565b60405180910390f35b34801561025957600080fd5b50610274600480360381019061026f9190613bd1565b610851565b6040516102819190613c3f565b60405180910390f35b34801561029657600080fd5b506102b160048036038101906102ac9190613c86565b610897565b005b3480156102bf57600080fd5b506102c86109ae565b6040516102d59190613e42565b60405180910390f35b3480156102ea57600080fd5b5061030560048036038101906103009190613e64565b610c76565b005b34801561031357600080fd5b5061032e60048036038101906103299190613e91565b610cba565b005b34801561033c57600080fd5b50610345610d1a565b005b610361600480360381019061035c9190613ee4565b610efd565b005b34801561036f57600080fd5b5061038a60048036038101906103859190613e91565b611178565b005b34801561039857600080fd5b506103a1611198565b6040516103ae9190613e42565b60405180910390f35b3480156103c357600080fd5b506103de60048036038101906103d99190613f37565b6114e4565b005b3480156103ec57600080fd5b5061040760048036038101906104029190613bd1565b61168f565b6040516104149190613c3f565b60405180910390f35b34801561042957600080fd5b50610444600480360381019061043f9190613e64565b611715565b6040516104519190613f86565b60405180910390f35b610474600480360381019061046f9190613fa1565b6117cc565b005b34801561048257600080fd5b5061049d60048036038101906104989190613ff4565b611a27565b005b3480156104ab57600080fd5b506104c660048036038101906104c19190613bd1565b611b57565b6040516104d39190613f86565b60405180910390f35b3480156104e857600080fd5b506104f1611cc2565b6040516104fe9190613b79565b60405180910390f35b34801561051357600080fd5b5061052e60048036038101906105299190613c86565b611d54565b005b34801561053c57600080fd5b5061055760048036038101906105529190614060565b611dc9565b005b34801561056557600080fd5b50610580600480360381019061057b9190613bd1565b611ddf565b60405161058e9291906140af565b60405180910390f35b3480156105a357600080fd5b506105be60048036038101906105b99190613bd1565b611f53565b6040516105cb9190613c3f565b60405180910390f35b6105ee60048036038101906105e99190613bd1565b611f93565b005b3480156105fc57600080fd5b506106176004803603810190610612919061420d565b61202d565b005b610633600480360381019061062e9190613bd1565b61208f565b005b61064f600480360381019061064a9190614331565b612271565b60405161065c9190613f86565b60405180910390f35b34801561067157600080fd5b5061067a6122b5565b6040516106879190613e42565b60405180910390f35b34801561069c57600080fd5b506106b760048036038101906106b29190613bd1565b612601565b005b3480156106c557600080fd5b506106ce612741565b6040516106db9190613f86565b60405180910390f35b3480156106f057600080fd5b5061070b60048036038101906107069190613bd1565b612747565b6040516107189190613b79565b60405180910390f35b34801561072d57600080fd5b50610748600480360381019061074391906143a0565b612859565b6040516107559190613ace565b60405180910390f35b6000634906490660e01b7bffffffffffffffffffffffffffffffffffffffffffffffffffffffff1916827bffffffffffffffffffffffffffffffffffffffffffffffffffffffff191614806107b857506107b7826128ed565b5b9050919050565b6060600080546107ce9061440f565b80601f01602080910402602001604051908101604052809291908181526020018280546107fa9061440f565b80156108475780601f1061081c57610100808354040283529160200191610847565b820191906000526020600020905b81548152906001019060200180831161082a57829003601f168201915b5050505050905090565b600061085c826129cf565b6004600083815260200190815260200160002060009054906101000a900473ffffffffffffffffffffffffffffffffffffffff169050919050565b60006108a28261168f565b90508073ffffffffffffffffffffffffffffffffffffffff168373ffffffffffffffffffffffffffffffffffffffff1603610912576040517f08c379a0000000000000000000000000000000000000000000000000000000008152600401610909906144b2565b60405180910390fd5b8073ffffffffffffffffffffffffffffffffffffffff16610931612a1a565b73ffffffffffffffffffffffffffffffffffffffff161480610960575061095f8161095a612a1a565b612859565b5b61099f576040517f08c379a000000000000000000000000000000000000000000000000000000000815260040161099690614544565b60405180910390fd5b6109a98383612a22565b505050565b606060006109bc6008612adb565b905060006109ca6009612adb565b6109d46008612adb565b6109de9190614593565b90506000808267ffffffffffffffff8111156109fd576109fc6140e2565b5b604051908082528060200260200182016040528015610a3657816020015b610a2361398f565b815260200190600190039081610a1b5790505b50905060005b84811015610c6b573073ffffffffffffffffffffffffffffffffffffffff16600d6000600184610a6c91906145c7565b815260200190815260200160002060030160009054906101000a900473ffffffffffffffffffffffffffffffffffffffff1673ffffffffffffffffffffffffffffffffffffffff1603610c58576000600182610ac891906145c7565b90506000600d60008381526020019081526020016000209050806040518060e0016040529081600082015481526020016001820160009054906101000a900473ffffffffffffffffffffffffffffffffffffffff1673ffffffffffffffffffffffffffffffffffffffff1673ffffffffffffffffffffffffffffffffffffffff1681526020016002820160009054906101000a900473ffffffffffffffffffffffffffffffffffffffff1673ffffffffffffffffffffffffffffffffffffffff1673ffffffffffffffffffffffffffffffffffffffff1681526020016003820160009054906101000a900473ffffffffffffffffffffffffffffffffffffffff1673ffffffffffffffffffffffffffffffffffffffff1673ffffffffffffffffffffffffffffffffffffffff16815260200160048201548152602001600582015481526020016006820160009054906101000a900460ff161515151581525050848681518110610c3b57610c3a6145fb565b5b6020026020010181905250600185610c5391906145c7565b945050505b8080610c639061462a565b915050610a3c565b508094505050505090565b80600c60006101000a81548173ffffffffffffffffffffffffffffffffffffffff021916908373ffffffffffffffffffffffffffffffffffffffff16021790555050565b610ccb610cc5612a1a565b82612ae9565b610d0a576040517f08c379a0000000000000000000000000000000000000000000000000000000008152600401610d01906146e4565b60405180910390fd5b610d15838383612b7e565b505050565b600b60009054906101000a900473ffffffffffffffffffffffffffffffffffffffff1673ffffffffffffffffffffffffffffffffffffffff163373ffffffffffffffffffffffffffffffffffffffff1614610daa576040517f08c379a0000000000000000000000000000000000000000000000000000000008152600401610da190614776565b60405180910390fd5b600047905060008111610df2576040517f08c379a0000000000000000000000000000000000000000000000000000000008152600401610de9906147e2565b60405180910390fd5b6000600b60009054906101000a900473ffffffffffffffffffffffffffffffffffffffff1673ffffffffffffffffffffffffffffffffffffffff1682604051610e3a90614833565b60006040518083038185875af1925050503d8060008114610e77576040519150601f19603f3d011682016040523d82523d6000602084013e610e7c565b606091505b5050905080610ec0576040517f08c379a0000000000000000000000000000000000000000000000000000000008152600401610eb790614894565b60405180910390fd5b7f6141b54b56b8a52a8c6f5cd2a857f6117b18ffbf4d46bd3106f300a839cbf5ea8233604051610ef19291906148b4565b60405180910390a15050565b60008111610f40576040517f08c379a0000000000000000000000000000000000000000000000000000000008152600401610f3790614929565b60405180910390fd5b600a543414610f84576040517f08c379a0000000000000000000000000000000000000000000000000000000008152600401610f7b90614995565b60405180910390fd5b6040518060e001604052808481526020013373ffffffffffffffffffffffffffffffffffffffff1681526020013373ffffffffffffffffffffffffffffffffffffffff1681526020013073ffffffffffffffffffffffffffffffffffffffff16815260200183815260200182815260200160001515815250600d60008581526020019081526020016000206000820151816000015560208201518160010160006101000a81548173ffffffffffffffffffffffffffffffffffffffff021916908373ffffffffffffffffffffffffffffffffffffffff16021790555060408201518160020160006101000a81548173ffffffffffffffffffffffffffffffffffffffff021916908373ffffffffffffffffffffffffffffffffffffffff16021790555060608201518160030160006101000a81548173ffffffffffffffffffffffffffffffffffffffff021916908373ffffffffffffffffffffffffffffffffffffffff1602179055506080820151816004015560a0820151816005015560c08201518160060160006101000a81548160ff021916908315150217905550905050611130333085612b7e565b827fa5d9d913ac4de93e8f5dc9a8834f347d521cd0daf35756b44fe413e9f34019793333308686600060405161116b969594939291906149b5565b60405180910390a2505050565b6111938383836040518060200160405280600081525061202d565b505050565b606060006111a66008612adb565b905060008060005b8381101561124e573373ffffffffffffffffffffffffffffffffffffffff16600d60006001846111de91906145c7565b815260200190815260200160002060020160009054906101000a900473ffffffffffffffffffffffffffffffffffffffff1673ffffffffffffffffffffffffffffffffffffffff160361123b5760018361123891906145c7565b92505b80806112469061462a565b9150506111ae565b5060008267ffffffffffffffff81111561126b5761126a6140e2565b5b6040519080825280602002602001820160405280156112a457816020015b61129161398f565b8152602001906001900390816112895790505b50905060005b848110156114d9573373ffffffffffffffffffffffffffffffffffffffff16600d60006001846112da91906145c7565b815260200190815260200160002060020160009054906101000a900473ffffffffffffffffffffffffffffffffffffffff1673ffffffffffffffffffffffffffffffffffffffff16036114c657600060018261133691906145c7565b90506000600d60008381526020019081526020016000209050806040518060e0016040529081600082015481526020016001820160009054906101000a900473ffffffffffffffffffffffffffffffffffffffff1673ffffffffffffffffffffffffffffffffffffffff1673ffffffffffffffffffffffffffffffffffffffff1681526020016002820160009054906101000a900473ffffffffffffffffffffffffffffffffffffffff1673ffffffffffffffffffffffffffffffffffffffff1673ffffffffffffffffffffffffffffffffffffffff1681526020016003820160009054906101000a900473ffffffffffffffffffffffffffffffffffffffff1673ffffffffffffffffffffffffffffffffffffffff1673ffffffffffffffffffffffffffffffffffffffff16815260200160048201548152602001600582015481526020016006820160009054906101000a900460ff1615151515815250508486815181106114a9576114a86145fb565b5b60200260200101819052506001856114c191906145c7565b945050505b80806114d19061462a565b9150506112aa565b508094505050505090565b600073ffffffffffffffffffffffffffffffffffffffff16600d600084815260200190815260200160002060030160009054906101000a900473ffffffffffffffffffffffffffffffffffffffff1673ffffffffffffffffffffffffffffffffffffffff1603611589576040517f08c379a000000000000000000000000000000000000000000000000000000000815260040161158090614a88565b60405180910390fd5b3373ffffffffffffffffffffffffffffffffffffffff16600d600084815260200190815260200160002060020160009054906101000a900473ffffffffffffffffffffffffffffffffffffffff1673ffffffffffffffffffffffffffffffffffffffff161461162d576040517f08c379a000000000000000000000000000000000000000000000000000000000815260040161162490614af4565b60405180910390fd5b60008111611670576040517f08c379a000000000000000000000000000000000000000000000000000000000815260040161166790614b60565b60405180910390fd5b80600d6000848152602001908152602001600020600501819055505050565b60008061169b83612e77565b9050600073ffffffffffffffffffffffffffffffffffffffff168173ffffffffffffffffffffffffffffffffffffffff160361170c576040517f08c379a000000000000000000000000000000000000000000000000000000000815260040161170390614bcc565b60405180910390fd5b80915050919050565b60008073ffffffffffffffffffffffffffffffffffffffff168273ffffffffffffffffffffffffffffffffffffffff1603611785576040517f08c379a000000000000000000000000000000000000000000000000000000000815260040161177c90614c5e565b60405180910390fd5b600360008373ffffffffffffffffffffffffffffffffffffffff1673ffffffffffffffffffffffffffffffffffffffff168152602001908152602001600020549050919050565b61180a6040518060400160405280601981526020017f526573656c6c206d61726b6574206974656d2063616c6c656400000000000000815250612eb4565b3373ffffffffffffffffffffffffffffffffffffffff16600d600085815260200190815260200160002060030160009054906101000a900473ffffffffffffffffffffffffffffffffffffffff1673ffffffffffffffffffffffffffffffffffffffff1614806118c75750600c60009054906101000a900473ffffffffffffffffffffffffffffffffffffffff1673ffffffffffffffffffffffffffffffffffffffff163373ffffffffffffffffffffffffffffffffffffffff16145b611906576040517f08c379a00000000000000000000000000000000000000000000000000000000081526004016118fd90614cca565b60405180910390fd5b6000600d600085815260200190815260200160002060060160006101000a81548160ff02191690831515021790555081600d60008581526020019081526020016000206005018190555033600d600085815260200190815260200160002060020160006101000a81548173ffffffffffffffffffffffffffffffffffffffff021916908373ffffffffffffffffffffffffffffffffffffffff16021790555030600d600085815260200190815260200160002060030160006101000a81548173ffffffffffffffffffffffffffffffffffffffff021916908373ffffffffffffffffffffffffffffffffffffffff1602179055506000611a066009612adb565b1115611a1757611a166009612f4d565b5b611a22813085612b7e565b505050565b3073ffffffffffffffffffffffffffffffffffffffff166342842e0e3083856040518463ffffffff1660e01b8152600401611a6493929190614cea565b600060405180830381600087803b158015611a7e57600080fd5b505af1158015611a92573d6000803e3d6000fd5b5050505080600d600084815260200190815260200160002060030160006101000a81548173ffffffffffffffffffffffffffffffffffffffff021916908373ffffffffffffffffffffffffffffffffffffffff1602179055506001600d600084815260200190815260200160002060060160006101000a81548160ff0219169083151502179055507f20665ee57a5e13af162123968d777ccebe86531a21e53d08afc78138a950192d8282604051611b4b9291906148b4565b60405180910390a15050565b600080600d60008481526020019081526020016000206040518060e0016040529081600082015481526020016001820160009054906101000a900473ffffffffffffffffffffffffffffffffffffffff1673ffffffffffffffffffffffffffffffffffffffff1673ffffffffffffffffffffffffffffffffffffffff1681526020016002820160009054906101000a900473ffffffffffffffffffffffffffffffffffffffff1673ffffffffffffffffffffffffffffffffffffffff1673ffffffffffffffffffffffffffffffffffffffff1681526020016003820160009054906101000a900473ffffffffffffffffffffffffffffffffffffffff1673ffffffffffffffffffffffffffffffffffffffff1673ffffffffffffffffffffffffffffffffffffffff16815260200160048201548152602001600582015481526020016006820160009054906101000a900460ff16151515158152505090508060a00151915050919050565b606060018054611cd19061440f565b80601f0160208091040260200160405190810160405280929190818152602001828054611cfd9061440f565b8015611d4a5780601f10611d1f57610100808354040283529160200191611d4a565b820191906000526020600020905b815481529060010190602001808311611d2d57829003601f168201915b5050505050905090565b60008290508073ffffffffffffffffffffffffffffffffffffffff1663b9a2de3a836040518263ffffffff1660e01b8152600401611d929190613f86565b600060405180830381600087803b158015611dac57600080fd5b505af1158015611dc0573d6000803e3d6000fd5b50505050505050565b611ddb611dd4612a1a565b8383612fa9565b5050565b6000806000600d60008581526020019081526020016000206040518060e0016040529081600082015481526020016001820160009054906101000a900473ffffffffffffffffffffffffffffffffffffffff1673ffffffffffffffffffffffffffffffffffffffff1673ffffffffffffffffffffffffffffffffffffffff1681526020016002820160009054906101000a900473ffffffffffffffffffffffffffffffffffffffff1673ffffffffffffffffffffffffffffffffffffffff1673ffffffffffffffffffffffffffffffffffffffff1681526020016003820160009054906101000a900473ffffffffffffffffffffffffffffffffffffffff1673ffffffffffffffffffffffffffffffffffffffff1673ffffffffffffffffffffffffffffffffffffffff16815260200160048201548152602001600582015481526020016006820160009054906101000a900460ff1615151515815250509050806080015181602001519250925050915091565b6000600d600083815260200190815260200160002060020160009054906101000a900473ffffffffffffffffffffffffffffffffffffffff169050919050565b600b60009054906101000a900473ffffffffffffffffffffffffffffffffffffffff1673ffffffffffffffffffffffffffffffffffffffff163373ffffffffffffffffffffffffffffffffffffffff1614612023576040517f08c379a000000000000000000000000000000000000000000000000000000000815260040161201a90614776565b60405180910390fd5b80600a8190555050565b61203e612038612a1a565b83612ae9565b61207d576040517f08c379a0000000000000000000000000000000000000000000000000000000008152600401612074906146e4565b60405180910390fd5b61208984848484613115565b50505050565b6000600d60008381526020019081526020016000206005015490508034146120ec576040517f08c379a00000000000000000000000000000000000000000000000000000000081526004016120e390614d93565b60405180910390fd5b33600d600084815260200190815260200160002060030160006101000a81548173ffffffffffffffffffffffffffffffffffffffff021916908373ffffffffffffffffffffffffffffffffffffffff1602179055506001600d600084815260200190815260200160002060060160006101000a81548160ff02191690831515021790555061217a6009613171565b612185303384612b7e565b600b60009054906101000a900473ffffffffffffffffffffffffffffffffffffffff1673ffffffffffffffffffffffffffffffffffffffff166108fc600a549081150290604051600060405180830381858888f193505050501580156121ef573d6000803e3d6000fd5b50600d600083815260200190815260200160002060020160009054906101000a900473ffffffffffffffffffffffffffffffffffffffff1673ffffffffffffffffffffffffffffffffffffffff166108fc349081150290604051600060405180830381858888f1935050505015801561226c573d6000803e3d6000fd5b505050565b600061227d6008613171565b60006122896008612adb565b90506122953382613187565b61229f81866133a4565b6122aa818585610efd565b809150509392505050565b606060006122c36008612adb565b905060008060005b8381101561236b573373ffffffffffffffffffffffffffffffffffffffff16600d60006001846122fb91906145c7565b815260200190815260200160002060030160009054906101000a900473ffffffffffffffffffffffffffffffffffffffff1673ffffffffffffffffffffffffffffffffffffffff16036123585760018361235591906145c7565b92505b80806123639061462a565b9150506122cb565b5060008267ffffffffffffffff811115612388576123876140e2565b5b6040519080825280602002602001820160405280156123c157816020015b6123ae61398f565b8152602001906001900390816123a65790505b50905060005b848110156125f6573373ffffffffffffffffffffffffffffffffffffffff16600d60006001846123f791906145c7565b815260200190815260200160002060030160009054906101000a900473ffffffffffffffffffffffffffffffffffffffff1673ffffffffffffffffffffffffffffffffffffffff16036125e357600060018261245391906145c7565b90506000600d60008381526020019081526020016000209050806040518060e0016040529081600082015481526020016001820160009054906101000a900473ffffffffffffffffffffffffffffffffffffffff1673ffffffffffffffffffffffffffffffffffffffff1673ffffffffffffffffffffffffffffffffffffffff1681526020016002820160009054906101000a900473ffffffffffffffffffffffffffffffffffffffff1673ffffffffffffffffffffffffffffffffffffffff1673ffffffffffffffffffffffffffffffffffffffff1681526020016003820160009054906101000a900473ffffffffffffffffffffffffffffffffffffffff1673ffffffffffffffffffffffffffffffffffffffff1673ffffffffffffffffffffffffffffffffffffffff16815260200160048201548152602001600582015481526020016006820160009054906101000a900460ff1615151515815250508486815181106125c6576125c56145fb565b5b60200260200101819052506001856125de91906145c7565b945050505b80806125ee9061462a565b9150506123c7565b508094505050505090565b600d600082815260200190815260200160002060020160009054906101000a900473ffffffffffffffffffffffffffffffffffffffff1673ffffffffffffffffffffffffffffffffffffffff163373ffffffffffffffffffffffffffffffffffffffff16146126a5576040517f08c379a000000000000000000000000000000000000000000000000000000000815260040161269c90614dff565b60405180910390fd5b6126b0303383612b7e565b33600d600083815260200190815260200160002060030160006101000a81548173ffffffffffffffffffffffffffffffffffffffff021916908373ffffffffffffffffffffffffffffffffffffffff1602179055506001600d600083815260200190815260200160002060060160006101000a81548160ff02191690831515021790555061273e6009613171565b50565b600a5481565b6060612752826129cf565b60006006600084815260200190815260200160002080546127729061440f565b80601f016020809104026020016040519081016040528092919081815260200182805461279e9061440f565b80156127eb5780601f106127c0576101008083540402835291602001916127eb565b820191906000526020600020905b8154815290600101906020018083116127ce57829003601f168201915b5050505050905060006127fc613448565b90506000815103612811578192505050612854565b60008251111561284657808260405160200161282e929190614e5b565b60405160208183030381529060405292505050612854565b61284f8461345f565b925050505b919050565b6000600560008473ffffffffffffffffffffffffffffffffffffffff1673ffffffffffffffffffffffffffffffffffffffff16815260200190815260200160002060008373ffffffffffffffffffffffffffffffffffffffff1673ffffffffffffffffffffffffffffffffffffffff16815260200190815260200160002060009054906101000a900460ff16905092915050565b60007f80ac58cd000000000000000000000000000000000000000000000000000000007bffffffffffffffffffffffffffffffffffffffffffffffffffffffff1916827bffffffffffffffffffffffffffffffffffffffffffffffffffffffff191614806129b857507f5b5e139f000000000000000000000000000000000000000000000000000000007bffffffffffffffffffffffffffffffffffffffffffffffffffffffff1916827bffffffffffffffffffffffffffffffffffffffffffffffffffffffff1916145b806129c857506129c7826134c7565b5b9050919050565b6129d881613531565b612a17576040517f08c379a0000000000000000000000000000000000000000000000000000000008152600401612a0e90614bcc565b60405180910390fd5b50565b600033905090565b816004600083815260200190815260200160002060006101000a81548173ffffffffffffffffffffffffffffffffffffffff021916908373ffffffffffffffffffffffffffffffffffffffff160217905550808273ffffffffffffffffffffffffffffffffffffffff16612a958361168f565b73ffffffffffffffffffffffffffffffffffffffff167f8c5be1e5ebec7d5bd14f71427d1e84f3dd0314c0f7b2291e5b200ac8c7c3b92560405160405180910390a45050565b600081600001549050919050565b600080612af58361168f565b90508073ffffffffffffffffffffffffffffffffffffffff168473ffffffffffffffffffffffffffffffffffffffff161480612b375750612b368185612859565b5b80612b7557508373ffffffffffffffffffffffffffffffffffffffff16612b5d84610851565b73ffffffffffffffffffffffffffffffffffffffff16145b91505092915050565b8273ffffffffffffffffffffffffffffffffffffffff16612b9e8261168f565b73ffffffffffffffffffffffffffffffffffffffff1614612bf4576040517f08c379a0000000000000000000000000000000000000000000000000000000008152600401612beb90614ef1565b60405180910390fd5b600073ffffffffffffffffffffffffffffffffffffffff168273ffffffffffffffffffffffffffffffffffffffff1603612c63576040517f08c379a0000000000000000000000000000000000000000000000000000000008152600401612c5a90614f83565b60405180910390fd5b612c708383836001613572565b8273ffffffffffffffffffffffffffffffffffffffff16612c908261168f565b73ffffffffffffffffffffffffffffffffffffffff1614612ce6576040517f08c379a0000000000000000000000000000000000000000000000000000000008152600401612cdd90614ef1565b60405180910390fd5b6004600082815260200190815260200160002060006101000a81549073ffffffffffffffffffffffffffffffffffffffff02191690556001600360008573ffffffffffffffffffffffffffffffffffffffff1673ffffffffffffffffffffffffffffffffffffffff168152602001908152602001600020600082825403925050819055506001600360008473ffffffffffffffffffffffffffffffffffffffff1673ffffffffffffffffffffffffffffffffffffffff16815260200190815260200160002060008282540192505081905550816002600083815260200190815260200160002060006101000a81548173ffffffffffffffffffffffffffffffffffffffff021916908373ffffffffffffffffffffffffffffffffffffffff160217905550808273ffffffffffffffffffffffffffffffffffffffff168473ffffffffffffffffffffffffffffffffffffffff167fddf252ad1be2c89b69c2b068fc378daa952ba7f163c4a11628f55a4df523b3ef60405160405180910390a4612e728383836001613578565b505050565b60006002600083815260200190815260200160002060009054906101000a900473ffffffffffffffffffffffffffffffffffffffff169050919050565b612f4a81604051602401612ec89190613b79565b6040516020818303038152906040527f41304fac000000000000000000000000000000000000000000000000000000007bffffffffffffffffffffffffffffffffffffffffffffffffffffffff19166020820180517bffffffffffffffffffffffffffffffffffffffffffffffffffffffff838183161783525050505061357e565b50565b60008160000154905060008111612f99576040517f08c379a0000000000000000000000000000000000000000000000000000000008152600401612f9090614fef565b60405180910390fd5b6001810382600001819055505050565b8173ffffffffffffffffffffffffffffffffffffffff168373ffffffffffffffffffffffffffffffffffffffff1603613017576040517f08c379a000000000000000000000000000000000000000000000000000000000815260040161300e9061505b565b60405180910390fd5b80600560008573ffffffffffffffffffffffffffffffffffffffff1673ffffffffffffffffffffffffffffffffffffffff16815260200190815260200160002060008473ffffffffffffffffffffffffffffffffffffffff1673ffffffffffffffffffffffffffffffffffffffff16815260200190815260200160002060006101000a81548160ff0219169083151502179055508173ffffffffffffffffffffffffffffffffffffffff168373ffffffffffffffffffffffffffffffffffffffff167f17307eab39ab6107e8899845ad3d59bd9653f200f220920489ca2b5937696c31836040516131089190613ace565b60405180910390a3505050565b613120848484612b7e565b61312c84848484613598565b61316b576040517f08c379a0000000000000000000000000000000000000000000000000000000008152600401613162906150ed565b60405180910390fd5b50505050565b6001816000016000828254019250508190555050565b600073ffffffffffffffffffffffffffffffffffffffff168273ffffffffffffffffffffffffffffffffffffffff16036131f6576040517f08c379a00000000000000000000000000000000000000000000000000000000081526004016131ed90615159565b60405180910390fd5b6131ff81613531565b1561323f576040517f08c379a0000000000000000000000000000000000000000000000000000000008152600401613236906151c5565b60405180910390fd5b61324d600083836001613572565b61325681613531565b15613296576040517f08c379a000000000000000000000000000000000000000000000000000000000815260040161328d906151c5565b60405180910390fd5b6001600360008473ffffffffffffffffffffffffffffffffffffffff1673ffffffffffffffffffffffffffffffffffffffff16815260200190815260200160002060008282540192505081905550816002600083815260200190815260200160002060006101000a81548173ffffffffffffffffffffffffffffffffffffffff021916908373ffffffffffffffffffffffffffffffffffffffff160217905550808273ffffffffffffffffffffffffffffffffffffffff16600073ffffffffffffffffffffffffffffffffffffffff167fddf252ad1be2c89b69c2b068fc378daa952ba7f163c4a11628f55a4df523b3ef60405160405180910390a46133a0600083836001613578565b5050565b6133ad82613531565b6133ec576040517f08c379a00000000000000000000000000000000000000000000000000000000081526004016133e390615257565b60405180910390fd5b8060066000848152602001908152602001600020908161340c9190615423565b507ff8e1a15aba9398e019f0b49df1a4fde98ee17ae345cb5f6b5e2c27f5033e8ce78260405161343c9190613f86565b60405180910390a15050565b606060405180602001604052806000815250905090565b606061346a826129cf565b6000613474613448565b9050600081511161349457604051806020016040528060008152506134bf565b8061349e8461371f565b6040516020016134af929190614e5b565b6040516020818303038152906040525b915050919050565b60007f01ffc9a7000000000000000000000000000000000000000000000000000000007bffffffffffffffffffffffffffffffffffffffffffffffffffffffff1916827bffffffffffffffffffffffffffffffffffffffffffffffffffffffff1916149050919050565b60008073ffffffffffffffffffffffffffffffffffffffff1661355383612e77565b73ffffffffffffffffffffffffffffffffffffffff1614159050919050565b50505050565b50505050565b6135958161358d6137ed61380e565b63ffffffff16565b50565b60006135b98473ffffffffffffffffffffffffffffffffffffffff16613819565b15613712578373ffffffffffffffffffffffffffffffffffffffff1663150b7a026135e2612a1a565b8786866040518563ffffffff1660e01b8152600401613604949392919061554a565b6020604051808303816000875af192505050801561364057506040513d601f19601f8201168201806040525081019061363d91906155ab565b60015b6136c2573d8060008114613670576040519150601f19603f3d011682016040523d82523d6000602084013e613675565b606091505b5060008151036136ba576040517f08c379a00000000000000000000000000000000000000000000000000000000081526004016136b1906150ed565b60405180910390fd5b805181602001fd5b63150b7a0260e01b7bffffffffffffffffffffffffffffffffffffffffffffffffffffffff1916817bffffffffffffffffffffffffffffffffffffffffffffffffffffffff191614915050613717565b600190505b949350505050565b60606000600161372e8461383c565b01905060008167ffffffffffffffff81111561374d5761374c6140e2565b5b6040519080825280601f01601f19166020018201604052801561377f5781602001600182028036833780820191505090505b509050600082602001820190505b6001156137e2578080600190039150507f3031323334353637383961626364656600000000000000000000000000000000600a86061a8153600a85816137d6576137d56155d8565b5b0494506000850361378d575b819350505050919050565b60006a636f6e736f6c652e6c6f679050600080835160208501845afa505050565b613a10819050919050565b6000808273ffffffffffffffffffffffffffffffffffffffff163b119050919050565b600080600090507a184f03e93ff9f4daa797ed6e38ed64bf6a1f010000000000000000831061389a577a184f03e93ff9f4daa797ed6e38ed64bf6a1f01000000000000000083816138905761388f6155d8565b5b0492506040810190505b6d04ee2d6d415b85acef810000000083106138d7576d04ee2d6d415b85acef810000000083816138cd576138cc6155d8565b5b0492506020810190505b662386f26fc10000831061390657662386f26fc1000083816138fc576138fb6155d8565b5b0492506010810190505b6305f5e100831061392f576305f5e1008381613925576139246155d8565b5b0492506008810190505b612710831061395457612710838161394a576139496155d8565b5b0492506004810190505b60648310613977576064838161396d5761396c6155d8565b5b0492506002810190505b600a8310613986576001810190505b80915050919050565b6040518060e0016040528060008152602001600073ffffffffffffffffffffffffffffffffffffffff168152602001600073ffffffffffffffffffffffffffffffffffffffff168152602001600073ffffffffffffffffffffffffffffffffffffffff16815260200160008152602001600081526020016000151581525090565b613a18615607565b565b6000604051905090565b600080fd5b600080fd5b60007fffffffff0000000000000000000000000000000000000000000000000000000082169050919050565b613a6381613a2e565b8114613a6e57600080fd5b50565b600081359050613a8081613a5a565b92915050565b600060208284031215613a9c57613a9b613a24565b5b6000613aaa84828501613a71565b91505092915050565b60008115159050919050565b613ac881613ab3565b82525050565b6000602082019050613ae36000830184613abf565b92915050565b600081519050919050565b600082825260208201905092915050565b60005b83811015613b23578082015181840152602081019050613b08565b60008484015250505050565b6000601f19601f8301169050919050565b6000613b4b82613ae9565b613b558185613af4565b9350613b65818560208601613b05565b613b6e81613b2f565b840191505092915050565b60006020820190508181036000830152613b938184613b40565b905092915050565b6000819050919050565b613bae81613b9b565b8114613bb957600080fd5b50565b600081359050613bcb81613ba5565b92915050565b600060208284031215613be757613be6613a24565b5b6000613bf584828501613bbc565b91505092915050565b600073ffffffffffffffffffffffffffffffffffffffff82169050919050565b6000613c2982613bfe565b9050919050565b613c3981613c1e565b82525050565b6000602082019050613c546000830184613c30565b92915050565b613c6381613c1e565b8114613c6e57600080fd5b50565b600081359050613c8081613c5a565b92915050565b60008060408385031215613c9d57613c9c613a24565b5b6000613cab85828601613c71565b9250506020613cbc85828601613bbc565b9150509250929050565b600081519050919050565b600082825260208201905092915050565b6000819050602082019050919050565b613cfb81613b9b565b82525050565b6000613d0c82613bfe565b9050919050565b613d1c81613d01565b82525050565b613d2b81613ab3565b82525050565b60e082016000820151613d476000850182613cf2565b506020820151613d5a6020850182613d13565b506040820151613d6d6040850182613d13565b506060820151613d806060850182613d13565b506080820151613d936080850182613cf2565b5060a0820151613da660a0850182613cf2565b5060c0820151613db960c0850182613d22565b50505050565b6000613dcb8383613d31565b60e08301905092915050565b6000602082019050919050565b6000613def82613cc6565b613df98185613cd1565b9350613e0483613ce2565b8060005b83811015613e35578151613e1c8882613dbf565b9750613e2783613dd7565b925050600181019050613e08565b5085935050505092915050565b60006020820190508181036000830152613e5c8184613de4565b905092915050565b600060208284031215613e7a57613e79613a24565b5b6000613e8884828501613c71565b91505092915050565b600080600060608486031215613eaa57613ea9613a24565b5b6000613eb886828701613c71565b9350506020613ec986828701613c71565b9250506040613eda86828701613bbc565b9150509250925092565b600080600060608486031215613efd57613efc613a24565b5b6000613f0b86828701613bbc565b9350506020613f1c86828701613bbc565b9250506040613f2d86828701613bbc565b9150509250925092565b60008060408385031215613f4e57613f4d613a24565b5b6000613f5c85828601613bbc565b9250506020613f6d85828601613bbc565b9150509250929050565b613f8081613b9b565b82525050565b6000602082019050613f9b6000830184613f77565b92915050565b600080600060608486031215613fba57613fb9613a24565b5b6000613fc886828701613bbc565b9350506020613fd986828701613bbc565b9250506040613fea86828701613c71565b9150509250925092565b6000806040838503121561400b5761400a613a24565b5b600061401985828601613bbc565b925050602061402a85828601613c71565b9150509250929050565b61403d81613ab3565b811461404857600080fd5b50565b60008135905061405a81614034565b92915050565b6000806040838503121561407757614076613a24565b5b600061408585828601613c71565b92505060206140968582860161404b565b9150509250929050565b6140a981613d01565b82525050565b60006040820190506140c46000830185613f77565b6140d160208301846140a0565b9392505050565b600080fd5b600080fd5b7f4e487b7100000000000000000000000000000000000000000000000000000000600052604160045260246000fd5b61411a82613b2f565b810181811067ffffffffffffffff82111715614139576141386140e2565b5b80604052505050565b600061414c613a1a565b90506141588282614111565b919050565b600067ffffffffffffffff821115614178576141776140e2565b5b61418182613b2f565b9050602081019050919050565b82818337600083830152505050565b60006141b06141ab8461415d565b614142565b9050828152602081018484840111156141cc576141cb6140dd565b5b6141d784828561418e565b509392505050565b600082601f8301126141f4576141f36140d8565b5b813561420484826020860161419d565b91505092915050565b6000806000806080858703121561422757614226613a24565b5b600061423587828801613c71565b945050602061424687828801613c71565b935050604061425787828801613bbc565b925050606085013567ffffffffffffffff81111561427857614277613a29565b5b614284878288016141df565b91505092959194509250565b600067ffffffffffffffff8211156142ab576142aa6140e2565b5b6142b482613b2f565b9050602081019050919050565b60006142d46142cf84614290565b614142565b9050828152602081018484840111156142f0576142ef6140dd565b5b6142fb84828561418e565b509392505050565b600082601f830112614318576143176140d8565b5b81356143288482602086016142c1565b91505092915050565b60008060006060848603121561434a57614349613a24565b5b600084013567ffffffffffffffff81111561436857614367613a29565b5b61437486828701614303565b935050602061438586828701613bbc565b925050604061439686828701613bbc565b9150509250925092565b600080604083850312156143b7576143b6613a24565b5b60006143c585828601613c71565b92505060206143d685828601613c71565b9150509250929050565b7f4e487b7100000000000000000000000000000000000000000000000000000000600052602260045260246000fd5b6000600282049050600182168061442757607f821691505b60208210810361443a576144396143e0565b5b50919050565b7f4552433732313a20617070726f76616c20746f2063757272656e74206f776e6560008201527f7200000000000000000000000000000000000000000000000000000000000000602082015250565b600061449c602183613af4565b91506144a782614440565b604082019050919050565b600060208201905081810360008301526144cb8161448f565b9050919050565b7f4552433732313a20617070726f76652063616c6c6572206973206e6f7420746f60008201527f6b656e206f776e6572206f7220617070726f76656420666f7220616c6c000000602082015250565b600061452e603d83613af4565b9150614539826144d2565b604082019050919050565b6000602082019050818103600083015261455d81614521565b9050919050565b7f4e487b7100000000000000000000000000000000000000000000000000000000600052601160045260246000fd5b600061459e82613b9b565b91506145a983613b9b565b92508282039050818111156145c1576145c0614564565b5b92915050565b60006145d282613b9b565b91506145dd83613b9b565b92508282019050808211156145f5576145f4614564565b5b92915050565b7f4e487b7100000000000000000000000000000000000000000000000000000000600052603260045260246000fd5b600061463582613b9b565b91507fffffffffffffffffffffffffffffffffffffffffffffffffffffffffffffffff820361466757614666614564565b5b600182019050919050565b7f4552433732313a2063616c6c6572206973206e6f7420746f6b656e206f776e6560008201527f72206f7220617070726f76656400000000000000000000000000000000000000602082015250565b60006146ce602d83613af4565b91506146d982614672565b604082019050919050565b600060208201905081810360008301526146fd816146c1565b9050919050565b7f6f6e6c79206f776e6572206f662074686520636f6e74726163742063616e207560008201527f706461746520746865206c697374696e67207072696365000000000000000000602082015250565b6000614760603783613af4565b915061476b82614704565b604082019050919050565b6000602082019050818103600083015261478f81614753565b9050919050565b7f4e6f2066756e647320746f207769746864726177000000000000000000000000600082015250565b60006147cc601483613af4565b91506147d782614796565b602082019050919050565b600060208201905081810360008301526147fb816147bf565b9050919050565b600081905092915050565b50565b600061481d600083614802565b91506148288261480d565b600082019050919050565b600061483e82614810565b9150819050919050565b7f4661696c656420746f2077697468647261772066756e64730000000000000000600082015250565b600061487e601883613af4565b915061488982614848565b602082019050919050565b600060208201905081810360008301526148ad81614871565b9050919050565b60006040820190506148c96000830185613f77565b6148d66020830184613c30565b9392505050565b7f5072696365206d757374206265206174206c6561737420312077656900000000600082015250565b6000614913601c83613af4565b915061491e826148dd565b602082019050919050565b6000602082019050818103600083015261494281614906565b9050919050565b7f5072696365206d757374206265207061696420696e2066756c6c000000000000600082015250565b600061497f601a83613af4565b915061498a82614949565b602082019050919050565b600060208201905081810360008301526149ae81614972565b9050919050565b600060c0820190506149ca6000830189613c30565b6149d76020830188613c30565b6149e46040830187613c30565b6149f16060830186613f77565b6149fe6080830185613f77565b614a0b60a0830184613abf565b979650505050505050565b7f4e465420646f6573206e6f7420657869737420696e206d61726b6574706c616360008201527f6500000000000000000000000000000000000000000000000000000000000000602082015250565b6000614a72602183613af4565b9150614a7d82614a16565b604082019050919050565b60006020820190508181036000830152614aa181614a65565b9050919050565b7f43616c6c6572206973206e6f7420746865206f776e6572000000000000000000600082015250565b6000614ade601783613af4565b9150614ae982614aa8565b602082019050919050565b60006020820190508181036000830152614b0d81614ad1565b9050919050565b7f5072696365206d7573742062652067726561746572207468616e207a65726f00600082015250565b6000614b4a601f83613af4565b9150614b5582614b14565b602082019050919050565b60006020820190508181036000830152614b7981614b3d565b9050919050565b7f4552433732313a20696e76616c696420746f6b656e2049440000000000000000600082015250565b6000614bb6601883613af4565b9150614bc182614b80565b602082019050919050565b60006020820190508181036000830152614be581614ba9565b9050919050565b7f4552433732313a2061646472657373207a65726f206973206e6f74206120766160008201527f6c6964206f776e65720000000000000000000000000000000000000000000000602082015250565b6000614c48602983613af4565b9150614c5382614bec565b604082019050919050565b60006020820190508181036000830152614c7781614c3b565b9050919050565b7f4f6e6c79206f776e65722063616e2072656c697374204e465400000000000000600082015250565b6000614cb4601983613af4565b9150614cbf82614c7e565b602082019050919050565b60006020820190508181036000830152614ce381614ca7565b9050919050565b6000606082019050614cff6000830186613c30565b614d0c6020830185613c30565b614d196040830184613f77565b949350505050565b7f506c65617365207375626d6974207468652061736b696e67207072696365206960008201527f6e206f7264657220746f20636f6d706c65746520746865207075726368617365602082015250565b6000614d7d604083613af4565b9150614d8882614d21565b604082019050919050565b60006020820190508181036000830152614dac81614d70565b9050919050565b7f4f6e6c7920746f6b656e2073656c6c65722063616e2064656c69737400000000600082015250565b6000614de9601c83613af4565b9150614df482614db3565b602082019050919050565b60006020820190508181036000830152614e1881614ddc565b9050919050565b600081905092915050565b6000614e3582613ae9565b614e3f8185614e1f565b9350614e4f818560208601613b05565b80840191505092915050565b6000614e678285614e2a565b9150614e738284614e2a565b91508190509392505050565b7f4552433732313a207472616e736665722066726f6d20696e636f72726563742060008201527f6f776e6572000000000000000000000000000000000000000000000000000000602082015250565b6000614edb602583613af4565b9150614ee682614e7f565b604082019050919050565b60006020820190508181036000830152614f0a81614ece565b9050919050565b7f4552433732313a207472616e7366657220746f20746865207a65726f2061646460008201527f7265737300000000000000000000000000000000000000000000000000000000602082015250565b6000614f6d602483613af4565b9150614f7882614f11565b604082019050919050565b60006020820190508181036000830152614f9c81614f60565b9050919050565b7f436f756e7465723a2064656372656d656e74206f766572666c6f770000000000600082015250565b6000614fd9601b83613af4565b9150614fe482614fa3565b602082019050919050565b6000602082019050818103600083015261500881614fcc565b9050919050565b7f4552433732313a20617070726f766520746f2063616c6c657200000000000000600082015250565b6000615045601983613af4565b91506150508261500f565b602082019050919050565b6000602082019050818103600083015261507481615038565b9050919050565b7f4552433732313a207472616e7366657220746f206e6f6e20455243373231526560008201527f63656976657220696d706c656d656e7465720000000000000000000000000000602082015250565b60006150d7603283613af4565b91506150e28261507b565b604082019050919050565b60006020820190508181036000830152615106816150ca565b9050919050565b7f4552433732313a206d696e7420746f20746865207a65726f2061646472657373600082015250565b6000615143602083613af4565b915061514e8261510d565b602082019050919050565b6000602082019050818103600083015261517281615136565b9050919050565b7f4552433732313a20746f6b656e20616c7265616479206d696e74656400000000600082015250565b60006151af601c83613af4565b91506151ba82615179565b602082019050919050565b600060208201905081810360008301526151de816151a2565b9050919050565b7f45524337323155524953746f726167653a2055524920736574206f66206e6f6e60008201527f6578697374656e7420746f6b656e000000000000000000000000000000000000602082015250565b6000615241602e83613af4565b915061524c826151e5565b604082019050919050565b6000602082019050818103600083015261527081615234565b9050919050565b60008190508160005260206000209050919050565b60006020601f8301049050919050565b600082821b905092915050565b6000600883026152d97fffffffffffffffffffffffffffffffffffffffffffffffffffffffffffffffff8261529c565b6152e3868361529c565b95508019841693508086168417925050509392505050565b6000819050919050565b600061532061531b61531684613b9b565b6152fb565b613b9b565b9050919050565b6000819050919050565b61533a83615305565b61534e61534682615327565b8484546152a9565b825550505050565b600090565b615363615356565b61536e818484615331565b505050565b5b818110156153925761538760008261535b565b600181019050615374565b5050565b601f8211156153d7576153a881615277565b6153b18461528c565b810160208510156153c0578190505b6153d46153cc8561528c565b830182615373565b50505b505050565b600082821c905092915050565b60006153fa600019846008026153dc565b1980831691505092915050565b600061541383836153e9565b9150826002028217905092915050565b61542c82613ae9565b67ffffffffffffffff811115615445576154446140e2565b5b61544f825461440f565b61545a828285615396565b600060209050601f83116001811461548d576000841561547b578287015190505b6154858582615407565b8655506154ed565b601f19841661549b86615277565b60005b828110156154c35784890151825560018201915060208501945060208101905061549e565b868310156154e057848901516154dc601f8916826153e9565b8355505b6001600288020188555050505b505050505050565b600081519050919050565b600082825260208201905092915050565b600061551c826154f5565b6155268185615500565b9350615536818560208601613b05565b61553f81613b2f565b840191505092915050565b600060808201905061555f6000830187613c30565b61556c6020830186613c30565b6155796040830185613f77565b818103606083015261558b8184615511565b905095945050505050565b6000815190506155a581613a5a565b92915050565b6000602082840312156155c1576155c0613a24565b5b60006155cf84828501615596565b91505092915050565b7f4e487b7100000000000000000000000000000000000000000000000000000000600052601260045260246000fd5b7f4e487b7100000000000000000000000000000000000000000000000000000000600052605160045260246000fdfea2646970667358221220462b350deb07b00da7c4cd6d8d4ba44b09523fcb0c1b996e3b8a4aed094abca564736f6c63430008130033",
  "linkReferences": {},
  "deployedLinkReferences": {}
}