{
  "_format": "hh-sol-artifact-1",
  "contractName": "Marketplace",
  "sourceName": "contracts/Marketplace.sol",
  "abi": [
    {
      "inputs": [],
      "stateMutability": "nonpayable",
      "type": "constructor"
    },
    {
      "anonymous": false,
      "inputs": [
        {
          "indexed": true,
          "internalType": "address",
          "name": "owner",
          "type": "address"
        },
        {
          "indexed": true,
          "internalType": "address",
          "name": "approved",
          "type": "address"
        },
        {
          "indexed": true,
          "internalType": "uint256",
          "name": "tokenId",
          "type": "uint256"
        }
      ],
      "name": "Approval",
      "type": "event"
    },
    {
      "anonymous": false,
      "inputs": [
        {
          "indexed": true,
          "internalType": "address",
          "name": "owner",
          "type": "address"
        },
        {
          "indexed": true,
          "internalType": "address",
          "name": "operator",
          "type": "address"
        },
        {
          "indexed": false,
          "internalType": "bool",
          "name": "approved",
          "type": "bool"
        }
      ],
      "name": "ApprovalForAll",
      "type": "event"
    },
    {
      "anonymous": false,
      "inputs": [
        {
          "indexed": false,
          "internalType": "uint256",
          "name": "_fromTokenId",
          "type": "uint256"
        },
        {
          "indexed": false,
          "internalType": "uint256",
          "name": "_toTokenId",
          "type": "uint256"
        }
      ],
      "name": "BatchMetadataUpdate",
      "type": "event"
    },
    {
      "anonymous": false,
      "inputs": [
        {
          "indexed": true,
          "internalType": "uint256",
          "name": "tokenId",
          "type": "uint256"
        },
        {
          "indexed": false,
          "internalType": "address",
          "name": "originalOwner",
          "type": "address"
        },
        {
          "indexed": false,
          "internalType": "address",
          "name": "seller",
          "type": "address"
        },
        {
          "indexed": false,
          "internalType": "address",
          "name": "owner",
          "type": "address"
        },
        {
          "indexed": false,
          "internalType": "uint256",
          "name": "royaltyPercentage",
          "type": "uint256"
        },
        {
          "indexed": false,
          "internalType": "uint256",
          "name": "price",
          "type": "uint256"
        },
        {
          "indexed": false,
          "internalType": "bool",
          "name": "sold",
          "type": "bool"
        }
      ],
      "name": "MarketItemCreated",
      "type": "event"
    },
    {
      "anonymous": false,
      "inputs": [
        {
          "indexed": false,
          "internalType": "uint256",
          "name": "_tokenId",
          "type": "uint256"
        }
      ],
      "name": "MetadataUpdate",
      "type": "event"
    },
    {
      "anonymous": false,
      "inputs": [
        {
          "indexed": false,
          "internalType": "uint256",
          "name": "nftId",
          "type": "uint256"
        },
        {
          "indexed": false,
          "internalType": "address",
          "name": "auctionWinner",
          "type": "address"
        }
      ],
      "name": "NFTTransferred",
      "type": "event"
    },
    {
      "anonymous": false,
      "inputs": [
        {
          "indexed": true,
          "internalType": "address",
          "name": "from",
          "type": "address"
        },
        {
          "indexed": true,
          "internalType": "address",
          "name": "to",
          "type": "address"
        },
        {
          "indexed": true,
          "internalType": "uint256",
          "name": "tokenId",
          "type": "uint256"
        }
      ],
      "name": "Transfer",
      "type": "event"
    },
    {
      "stateMutability": "payable",
      "type": "fallback"
    },
    {
      "inputs": [
        {
          "internalType": "address",
          "name": "to",
          "type": "address"
        },
        {
          "internalType": "uint256",
          "name": "tokenId",
          "type": "uint256"
        }
      ],
      "name": "approve",
      "outputs": [],
      "stateMutability": "nonpayable",
      "type": "function"
    },
    {
      "inputs": [
        {
          "internalType": "address",
          "name": "owner",
          "type": "address"
        }
      ],
      "name": "balanceOf",
      "outputs": [
        {
          "internalType": "uint256",
          "name": "",
          "type": "uint256"
        }
      ],
      "stateMutability": "view",
      "type": "function"
    },
    {
      "inputs": [
        {
          "internalType": "uint256",
          "name": "tokenId",
          "type": "uint256"
        },
        {
          "internalType": "uint256",
          "name": "royaltyPercentage",
          "type": "uint256"
        },
        {
          "internalType": "uint256",
          "name": "price",
          "type": "uint256"
        }
      ],
      "name": "createMarketItem",
      "outputs": [],
      "stateMutability": "payable",
      "type": "function"
    },
    {
      "inputs": [
        {
          "internalType": "uint256",
          "name": "tokenId",
          "type": "uint256"
        }
      ],
      "name": "createMarketSale",
      "outputs": [],
      "stateMutability": "payable",
      "type": "function"
    },
    {
      "inputs": [
        {
          "internalType": "string",
          "name": "tokenURI",
          "type": "string"
        },
        {
          "internalType": "uint256",
          "name": "royaltyPercentage",
          "type": "uint256"
        },
        {
          "internalType": "uint256",
          "name": "price",
          "type": "uint256"
        }
      ],
      "name": "createToken",
      "outputs": [
        {
          "internalType": "uint256",
          "name": "",
          "type": "uint256"
        }
      ],
      "stateMutability": "payable",
      "type": "function"
    },
    {
      "inputs": [
        {
          "internalType": "uint256",
          "name": "tokenId",
          "type": "uint256"
        }
      ],
      "name": "delistMarketItem",
      "outputs": [],
      "stateMutability": "nonpayable",
      "type": "function"
    },
    {
      "inputs": [],
      "name": "fetchItemsListed",
      "outputs": [
        {
          "components": [
            {
              "internalType": "uint256",
              "name": "tokenId",
              "type": "uint256"
            },
            {
              "internalType": "address payable",
              "name": "originalOwner",
              "type": "address"
            },
            {
              "internalType": "address payable",
              "name": "seller",
              "type": "address"
            },
            {
              "internalType": "address payable",
              "name": "owner",
              "type": "address"
            },
            {
              "internalType": "uint256",
              "name": "royaltyPercentage",
              "type": "uint256"
            },
            {
              "internalType": "uint256",
              "name": "price",
              "type": "uint256"
            },
            {
              "internalType": "bool",
              "name": "sold",
              "type": "bool"
            }
          ],
          "internalType": "struct Marketplace.MarketItem[]",
          "name": "",
          "type": "tuple[]"
        }
      ],
      "stateMutability": "view",
      "type": "function"
    },
    {
      "inputs": [],
      "name": "fetchMarketItems",
      "outputs": [
        {
          "components": [
            {
              "internalType": "uint256",
              "name": "tokenId",
              "type": "uint256"
            },
            {
              "internalType": "address payable",
              "name": "originalOwner",
              "type": "address"
            },
            {
              "internalType": "address payable",
              "name": "seller",
              "type": "address"
            },
            {
              "internalType": "address payable",
              "name": "owner",
              "type": "address"
            },
            {
              "internalType": "uint256",
              "name": "royaltyPercentage",
              "type": "uint256"
            },
            {
              "internalType": "uint256",
              "name": "price",
              "type": "uint256"
            },
            {
              "internalType": "bool",
              "name": "sold",
              "type": "bool"
            }
          ],
          "internalType": "struct Marketplace.MarketItem[]",
          "name": "",
          "type": "tuple[]"
        }
      ],
      "stateMutability": "view",
      "type": "function"
    },
    {
      "inputs": [],
      "name": "fetchMyNFT",
      "outputs": [
        {
          "components": [
            {
              "internalType": "uint256",
              "name": "tokenId",
              "type": "uint256"
            },
            {
              "internalType": "address payable",
              "name": "originalOwner",
              "type": "address"
            },
            {
              "internalType": "address payable",
              "name": "seller",
              "type": "address"
            },
            {
              "internalType": "address payable",
              "name": "owner",
              "type": "address"
            },
            {
              "internalType": "uint256",
              "name": "royaltyPercentage",
              "type": "uint256"
            },
            {
              "internalType": "uint256",
              "name": "price",
              "type": "uint256"
            },
            {
              "internalType": "bool",
              "name": "sold",
              "type": "bool"
            }
          ],
          "internalType": "struct Marketplace.MarketItem[]",
          "name": "",
          "type": "tuple[]"
        }
      ],
      "stateMutability": "view",
      "type": "function"
    },
    {
      "inputs": [
        {
          "internalType": "uint256",
          "name": "tokenId",
          "type": "uint256"
        }
      ],
      "name": "getApproved",
      "outputs": [
        {
          "internalType": "address",
          "name": "",
          "type": "address"
        }
      ],
      "stateMutability": "view",
      "type": "function"
    },
    {
      "inputs": [
        {
          "internalType": "uint256",
          "name": "tokenId",
          "type": "uint256"
        }
      ],
      "name": "getNFTPrice",
      "outputs": [
        {
          "internalType": "uint256",
          "name": "price",
          "type": "uint256"
        }
      ],
      "stateMutability": "view",
      "type": "function"
    },
    {
      "inputs": [
        {
          "internalType": "uint256",
          "name": "tokenId",
          "type": "uint256"
        }
      ],
      "name": "getRoyaltyData",
      "outputs": [
        {
          "internalType": "uint256",
          "name": "",
          "type": "uint256"
        },
        {
          "internalType": "address payable",
          "name": "",
          "type": "address"
        }
      ],
      "stateMutability": "view",
      "type": "function"
    },
    {
      "inputs": [
        {
          "internalType": "uint256",
          "name": "tokenId",
          "type": "uint256"
        }
      ],
      "name": "getSellerAddress",
      "outputs": [
        {
          "internalType": "address",
          "name": "",
          "type": "address"
        }
      ],
      "stateMutability": "view",
      "type": "function"
    },
    {
      "inputs": [
        {
          "internalType": "address",
          "name": "approvee",
          "type": "address"
        },
        {
          "internalType": "uint256",
          "name": "tokenId",
          "type": "uint256"
        }
      ],
      "name": "giveApproval",
      "outputs": [],
      "stateMutability": "nonpayable",
      "type": "function"
    },
    {
      "inputs": [
        {
          "internalType": "uint256",
          "name": "tokenId",
          "type": "uint256"
        },
        {
          "internalType": "address",
          "name": "winner",
          "type": "address"
        }
      ],
      "name": "handleAuctionEnd",
      "outputs": [],
      "stateMutability": "nonpayable",
      "type": "function"
    },
    {
      "inputs": [
        {
          "internalType": "address",
          "name": "owner",
          "type": "address"
        },
        {
          "internalType": "address",
          "name": "operator",
          "type": "address"
        }
      ],
      "name": "isApprovedForAll",
      "outputs": [
        {
          "internalType": "bool",
          "name": "",
          "type": "bool"
        }
      ],
      "stateMutability": "view",
      "type": "function"
    },
    {
      "inputs": [],
      "name": "listingPrice",
      "outputs": [
        {
          "internalType": "uint256",
          "name": "",
          "type": "uint256"
        }
      ],
      "stateMutability": "view",
      "type": "function"
    },
    {
      "inputs": [],
      "name": "name",
      "outputs": [
        {
          "internalType": "string",
          "name": "",
          "type": "string"
        }
      ],
      "stateMutability": "view",
      "type": "function"
    },
    {
      "inputs": [
        {
          "internalType": "uint256",
          "name": "tokenId",
          "type": "uint256"
        }
      ],
      "name": "ownerOf",
      "outputs": [
        {
          "internalType": "address",
          "name": "",
          "type": "address"
        }
      ],
      "stateMutability": "view",
      "type": "function"
    },
    {
      "inputs": [
        {
          "internalType": "uint256",
          "name": "tokenId",
          "type": "uint256"
        },
        {
          "internalType": "uint256",
          "name": "price",
          "type": "uint256"
        },
        {
          "internalType": "address",
          "name": "seller",
          "type": "address"
        }
      ],
      "name": "resellMarketItem",
      "outputs": [],
      "stateMutability": "payable",
      "type": "function"
    },
    {
      "inputs": [
        {
          "internalType": "uint256",
          "name": "tokenId",
          "type": "uint256"
        }
      ],
      "name": "revokeApproval",
      "outputs": [],
      "stateMutability": "nonpayable",
      "type": "function"
    },
    {
      "inputs": [
        {
          "internalType": "address",
          "name": "from",
          "type": "address"
        },
        {
          "internalType": "address",
          "name": "to",
          "type": "address"
        },
        {
          "internalType": "uint256",
          "name": "tokenId",
          "type": "uint256"
        }
      ],
      "name": "safeTransferFrom",
      "outputs": [],
      "stateMutability": "nonpayable",
      "type": "function"
    },
    {
      "inputs": [
        {
          "internalType": "address",
          "name": "from",
          "type": "address"
        },
        {
          "internalType": "address",
          "name": "to",
          "type": "address"
        },
        {
          "internalType": "uint256",
          "name": "tokenId",
          "type": "uint256"
        },
        {
          "internalType": "bytes",
          "name": "data",
          "type": "bytes"
        }
      ],
      "name": "safeTransferFrom",
      "outputs": [],
      "stateMutability": "nonpayable",
      "type": "function"
    },
    {
      "inputs": [
        {
          "internalType": "address",
          "name": "operator",
          "type": "address"
        },
        {
          "internalType": "bool",
          "name": "approved",
          "type": "bool"
        }
      ],
      "name": "setApprovalForAll",
      "outputs": [],
      "stateMutability": "nonpayable",
      "type": "function"
    },
    {
      "inputs": [
        {
          "internalType": "address",
          "name": "auctionFactoryAddress",
          "type": "address"
        }
      ],
      "name": "setAuctionFactoryAddress",
      "outputs": [],
      "stateMutability": "nonpayable",
      "type": "function"
    },
    {
      "inputs": [
        {
          "internalType": "bytes4",
          "name": "interfaceId",
          "type": "bytes4"
        }
      ],
      "name": "supportsInterface",
      "outputs": [
        {
          "internalType": "bool",
          "name": "",
          "type": "bool"
        }
      ],
      "stateMutability": "view",
      "type": "function"
    },
    {
      "inputs": [],
      "name": "symbol",
      "outputs": [
        {
          "internalType": "string",
          "name": "",
          "type": "string"
        }
      ],
      "stateMutability": "view",
      "type": "function"
    },
    {
      "inputs": [
        {
          "internalType": "uint256",
          "name": "tokenId",
          "type": "uint256"
        }
      ],
      "name": "tokenURI",
      "outputs": [
        {
          "internalType": "string",
          "name": "",
          "type": "string"
        }
      ],
      "stateMutability": "view",
      "type": "function"
    },
    {
      "inputs": [
        {
          "internalType": "address",
          "name": "from",
          "type": "address"
        },
        {
          "internalType": "address",
          "name": "to",
          "type": "address"
        },
        {
          "internalType": "uint256",
          "name": "tokenId",
          "type": "uint256"
        }
      ],
      "name": "transferFrom",
      "outputs": [],
      "stateMutability": "nonpayable",
      "type": "function"
    },
    {
      "inputs": [
        {
          "internalType": "uint256",
          "name": "_listingPrice",
          "type": "uint256"
        }
      ],
      "name": "updateListingPrice",
      "outputs": [],
      "stateMutability": "payable",
      "type": "function"
    },
    {
      "inputs": [
        {
          "internalType": "uint256",
          "name": "tokenId",
          "type": "uint256"
        },
        {
          "internalType": "uint256",
          "name": "price",
          "type": "uint256"
        }
      ],
      "name": "updateNFTPrice",
      "outputs": [],
      "stateMutability": "nonpayable",
      "type": "function"
    },
    {
      "stateMutability": "payable",
      "type": "receive"
    }
  ],
  "bytecode": "0x60806040526608e1bc9bf04000600a553480156200001c57600080fd5b506040518060400160405280601381526020017f4e4654204d657461766572736520546f6b656e000000000000000000000000008152506040518060400160405280600581526020017f4d594e465400000000000000000000000000000000000000000000000000000081525081600090816200009a919062000378565b508060019081620000ac919062000378565b505050600160078190555033600b60006101000a81548173ffffffffffffffffffffffffffffffffffffffff021916908373ffffffffffffffffffffffffffffffffffffffff1602179055506200045f565b600081519050919050565b7f4e487b7100000000000000000000000000000000000000000000000000000000600052604160045260246000fd5b7f4e487b7100000000000000000000000000000000000000000000000000000000600052602260045260246000fd5b600060028204905060018216806200018057607f821691505b60208210810362000196576200019562000138565b5b50919050565b60008190508160005260206000209050919050565b60006020601f8301049050919050565b600082821b905092915050565b600060088302620002007fffffffffffffffffffffffffffffffffffffffffffffffffffffffffffffffff82620001c1565b6200020c8683620001c1565b95508019841693508086168417925050509392505050565b6000819050919050565b6000819050919050565b600062000259620002536200024d8462000224565b6200022e565b62000224565b9050919050565b6000819050919050565b620002758362000238565b6200028d620002848262000260565b848454620001ce565b825550505050565b600090565b620002a462000295565b620002b18184846200026a565b505050565b5b81811015620002d957620002cd6000826200029a565b600181019050620002b7565b5050565b601f8211156200032857620002f2816200019c565b620002fd84620001b1565b810160208510156200030d578190505b620003256200031c85620001b1565b830182620002b6565b50505b505050565b600082821c905092915050565b60006200034d600019846008026200032d565b1980831691505092915050565b60006200036883836200033a565b9150826002028217905092915050565b6200038382620000fe565b67ffffffffffffffff8111156200039f576200039e62000109565b5b620003ab825462000167565b620003b8828285620002dd565b600060209050601f831160018114620003f05760008415620003db578287015190505b620003e785826200035a565b86555062000457565b601f19841662000400866200019c565b60005b828110156200042a5784890151825560018201915060208501945060208101905062000403565b868310156200044a578489015162000446601f8916826200033a565b8355505b6001600288020188555050505b505050505050565b6154ee806200046f6000396000f3fe6080604052600436106101dc5760003560e01c80638f329b3111610102578063b88d4fde11610095578063c68a0e1611610064578063c68a0e16146106a2578063c78f19f9146106cb578063c87b56dd146106f6578063e985e9c514610733576101e3565b8063b88d4fde14610602578063be9af5361461062b578063bec2a7c514610647578063c18763f714610677576101e3565b8063a65ff74c116100d1578063a65ff74c14610542578063a675364d14610580578063ae677aa3146105bd578063b1e130fc146105d9576101e3565b80638f329b311461048857806392976179146104b157806395d89b41146104ee578063a22cb46514610519576101e3565b806323b872dd1161017a5780634ac0123d116101495780634ac0123d146103c95780636352211e146103f257806370a082311461042f578063804fa8351461046c576101e3565b806323b872dd14610330578063320343da1461035957806342842e0e1461037557806345f8fa801461039e576101e3565b8063095ea7b3116101b6578063095ea7b31461028a5780630bff0bcf146102b35780630f08efe0146102dc5780631cb8813314610307576101e3565b806301ffc9a7146101e557806306fdde0314610222578063081812fc1461024d576101e3565b366101e357005b005b3480156101f157600080fd5b5061020c600480360381019061020791906138c5565b610770565b604051610219919061390d565b60405180910390f35b34801561022e57600080fd5b506102376107d1565b60405161024491906139b8565b60405180910390f35b34801561025957600080fd5b50610274600480360381019061026f9190613a10565b610863565b6040516102819190613a7e565b60405180910390f35b34801561029657600080fd5b506102b160048036038101906102ac9190613ac5565b6108a9565b005b3480156102bf57600080fd5b506102da60048036038101906102d59190613ac5565b6109c0565b005b3480156102e857600080fd5b506102f1610a44565b6040516102fe9190613c81565b60405180910390f35b34801561031357600080fd5b5061032e60048036038101906103299190613ca3565b610d0c565b005b34801561033c57600080fd5b5061035760048036038101906103529190613cd0565b610d50565b005b610373600480360381019061036e9190613d23565b610db0565b005b34801561038157600080fd5b5061039c60048036038101906103979190613cd0565b61102b565b005b3480156103aa57600080fd5b506103b361104b565b6040516103c09190613c81565b60405180910390f35b3480156103d557600080fd5b506103f060048036038101906103eb9190613d76565b611397565b005b3480156103fe57600080fd5b5061041960048036038101906104149190613a10565b611542565b6040516104269190613a7e565b60405180910390f35b34801561043b57600080fd5b5061045660048036038101906104519190613ca3565b6115c8565b6040516104639190613dc5565b60405180910390f35b61048660048036038101906104819190613de0565b61167f565b005b34801561049457600080fd5b506104af60048036038101906104aa9190613e33565b61189c565b005b3480156104bd57600080fd5b506104d860048036038101906104d39190613a10565b6119cc565b6040516104e59190613dc5565b60405180910390f35b3480156104fa57600080fd5b50610503611b37565b60405161051091906139b8565b60405180910390f35b34801561052557600080fd5b50610540600480360381019061053b9190613e9f565b611bc9565b005b34801561054e57600080fd5b5061056960048036038101906105649190613a10565b611bdf565b604051610577929190613eee565b60405180910390f35b34801561058c57600080fd5b506105a760048036038101906105a29190613a10565b611d53565b6040516105b49190613a7e565b60405180910390f35b6105d760048036038101906105d29190613a10565b611d93565b005b3480156105e557600080fd5b5061060060048036038101906105fb9190613a10565b611e2d565b005b34801561060e57600080fd5b506106296004803603810190610624919061404c565b611eb1565b005b61064560048036038101906106409190613a10565b611f13565b005b610661600480360381019061065c9190614170565b612199565b60405161066e9190613dc5565b60405180910390f35b34801561068357600080fd5b5061068c6121dd565b6040516106999190613c81565b60405180910390f35b3480156106ae57600080fd5b506106c960048036038101906106c49190613a10565b612529565b005b3480156106d757600080fd5b506106e0612669565b6040516106ed9190613dc5565b60405180910390f35b34801561070257600080fd5b5061071d60048036038101906107189190613a10565b61266f565b60405161072a91906139b8565b60405180910390f35b34801561073f57600080fd5b5061075a600480360381019061075591906141df565b612781565b604051610767919061390d565b60405180910390f35b6000634906490660e01b7bffffffffffffffffffffffffffffffffffffffffffffffffffffffff1916827bffffffffffffffffffffffffffffffffffffffffffffffffffffffff191614806107ca57506107c982612815565b5b9050919050565b6060600080546107e09061424e565b80601f016020809104026020016040519081016040528092919081815260200182805461080c9061424e565b80156108595780601f1061082e57610100808354040283529160200191610859565b820191906000526020600020905b81548152906001019060200180831161083c57829003601f168201915b5050505050905090565b600061086e826128f7565b6004600083815260200190815260200160002060009054906101000a900473ffffffffffffffffffffffffffffffffffffffff169050919050565b60006108b482611542565b90508073ffffffffffffffffffffffffffffffffffffffff168373ffffffffffffffffffffffffffffffffffffffff1603610924576040517f08c379a000000000000000000000000000000000000000000000000000000000815260040161091b906142f1565b60405180910390fd5b8073ffffffffffffffffffffffffffffffffffffffff16610943612942565b73ffffffffffffffffffffffffffffffffffffffff16148061097257506109718161096c612942565b612781565b5b6109b1576040517f08c379a00000000000000000000000000000000000000000000000000000000081526004016109a890614383565b60405180910390fd5b6109bb838361294a565b505050565b6109c981611542565b73ffffffffffffffffffffffffffffffffffffffff163373ffffffffffffffffffffffffffffffffffffffff1614610a36576040517f08c379a0000000000000000000000000000000000000000000000000000000008152600401610a2d906143ef565b60405180910390fd5b610a4082826108a9565b5050565b60606000610a526008612a03565b90506000610a606009612a03565b610a6a6008612a03565b610a74919061443e565b90506000808267ffffffffffffffff811115610a9357610a92613f21565b5b604051908082528060200260200182016040528015610acc57816020015b610ab96137d8565b815260200190600190039081610ab15790505b50905060005b84811015610d01573073ffffffffffffffffffffffffffffffffffffffff16600d6000600184610b029190614472565b815260200190815260200160002060030160009054906101000a900473ffffffffffffffffffffffffffffffffffffffff1673ffffffffffffffffffffffffffffffffffffffff1603610cee576000600182610b5e9190614472565b90506000600d60008381526020019081526020016000209050806040518060e0016040529081600082015481526020016001820160009054906101000a900473ffffffffffffffffffffffffffffffffffffffff1673ffffffffffffffffffffffffffffffffffffffff1673ffffffffffffffffffffffffffffffffffffffff1681526020016002820160009054906101000a900473ffffffffffffffffffffffffffffffffffffffff1673ffffffffffffffffffffffffffffffffffffffff1673ffffffffffffffffffffffffffffffffffffffff1681526020016003820160009054906101000a900473ffffffffffffffffffffffffffffffffffffffff1673ffffffffffffffffffffffffffffffffffffffff1673ffffffffffffffffffffffffffffffffffffffff16815260200160048201548152602001600582015481526020016006820160009054906101000a900460ff161515151581525050848681518110610cd157610cd06144a6565b5b6020026020010181905250600185610ce99190614472565b945050505b8080610cf9906144d5565b915050610ad2565b508094505050505090565b80600c60006101000a81548173ffffffffffffffffffffffffffffffffffffffff021916908373ffffffffffffffffffffffffffffffffffffffff16021790555050565b610d61610d5b612942565b82612a11565b610da0576040517f08c379a0000000000000000000000000000000000000000000000000000000008152600401610d979061458f565b60405180910390fd5b610dab838383612aa6565b505050565b60008111610df3576040517f08c379a0000000000000000000000000000000000000000000000000000000008152600401610dea906145fb565b60405180910390fd5b600a543414610e37576040517f08c379a0000000000000000000000000000000000000000000000000000000008152600401610e2e90614667565b60405180910390fd5b6040518060e001604052808481526020013373ffffffffffffffffffffffffffffffffffffffff1681526020013373ffffffffffffffffffffffffffffffffffffffff1681526020013073ffffffffffffffffffffffffffffffffffffffff16815260200183815260200182815260200160001515815250600d60008581526020019081526020016000206000820151816000015560208201518160010160006101000a81548173ffffffffffffffffffffffffffffffffffffffff021916908373ffffffffffffffffffffffffffffffffffffffff16021790555060408201518160020160006101000a81548173ffffffffffffffffffffffffffffffffffffffff021916908373ffffffffffffffffffffffffffffffffffffffff16021790555060608201518160030160006101000a81548173ffffffffffffffffffffffffffffffffffffffff021916908373ffffffffffffffffffffffffffffffffffffffff1602179055506080820151816004015560a0820151816005015560c08201518160060160006101000a81548160ff021916908315150217905550905050610fe3333085612aa6565b827fa5d9d913ac4de93e8f5dc9a8834f347d521cd0daf35756b44fe413e9f34019793333308686600060405161101e96959493929190614687565b60405180910390a2505050565b61104683838360405180602001604052806000815250611eb1565b505050565b606060006110596008612a03565b905060008060005b83811015611101573373ffffffffffffffffffffffffffffffffffffffff16600d60006001846110919190614472565b815260200190815260200160002060020160009054906101000a900473ffffffffffffffffffffffffffffffffffffffff1673ffffffffffffffffffffffffffffffffffffffff16036110ee576001836110eb9190614472565b92505b80806110f9906144d5565b915050611061565b5060008267ffffffffffffffff81111561111e5761111d613f21565b5b60405190808252806020026020018201604052801561115757816020015b6111446137d8565b81526020019060019003908161113c5790505b50905060005b8481101561138c573373ffffffffffffffffffffffffffffffffffffffff16600d600060018461118d9190614472565b815260200190815260200160002060020160009054906101000a900473ffffffffffffffffffffffffffffffffffffffff1673ffffffffffffffffffffffffffffffffffffffff16036113795760006001826111e99190614472565b90506000600d60008381526020019081526020016000209050806040518060e0016040529081600082015481526020016001820160009054906101000a900473ffffffffffffffffffffffffffffffffffffffff1673ffffffffffffffffffffffffffffffffffffffff1673ffffffffffffffffffffffffffffffffffffffff1681526020016002820160009054906101000a900473ffffffffffffffffffffffffffffffffffffffff1673ffffffffffffffffffffffffffffffffffffffff1673ffffffffffffffffffffffffffffffffffffffff1681526020016003820160009054906101000a900473ffffffffffffffffffffffffffffffffffffffff1673ffffffffffffffffffffffffffffffffffffffff1673ffffffffffffffffffffffffffffffffffffffff16815260200160048201548152602001600582015481526020016006820160009054906101000a900460ff16151515158152505084868151811061135c5761135b6144a6565b5b60200260200101819052506001856113749190614472565b945050505b8080611384906144d5565b91505061115d565b508094505050505090565b600073ffffffffffffffffffffffffffffffffffffffff16600d600084815260200190815260200160002060030160009054906101000a900473ffffffffffffffffffffffffffffffffffffffff1673ffffffffffffffffffffffffffffffffffffffff160361143c576040517f08c379a00000000000000000000000000000000000000000000000000000000081526004016114339061475a565b60405180910390fd5b3373ffffffffffffffffffffffffffffffffffffffff16600d600084815260200190815260200160002060020160009054906101000a900473ffffffffffffffffffffffffffffffffffffffff1673ffffffffffffffffffffffffffffffffffffffff16146114e0576040517f08c379a00000000000000000000000000000000000000000000000000000000081526004016114d7906147c6565b60405180910390fd5b60008111611523576040517f08c379a000000000000000000000000000000000000000000000000000000000815260040161151a90614832565b60405180910390fd5b80600d6000848152602001908152602001600020600501819055505050565b60008061154e83612d9f565b9050600073ffffffffffffffffffffffffffffffffffffffff168173ffffffffffffffffffffffffffffffffffffffff16036115bf576040517f08c379a00000000000000000000000000000000000000000000000000000000081526004016115b69061489e565b60405180910390fd5b80915050919050565b60008073ffffffffffffffffffffffffffffffffffffffff168273ffffffffffffffffffffffffffffffffffffffff1603611638576040517f08c379a000000000000000000000000000000000000000000000000000000000815260040161162f90614930565b60405180910390fd5b600360008373ffffffffffffffffffffffffffffffffffffffff1673ffffffffffffffffffffffffffffffffffffffff168152602001908152602001600020549050919050565b3373ffffffffffffffffffffffffffffffffffffffff16600d600085815260200190815260200160002060030160009054906101000a900473ffffffffffffffffffffffffffffffffffffffff1673ffffffffffffffffffffffffffffffffffffffff16148061173c5750600c60009054906101000a900473ffffffffffffffffffffffffffffffffffffffff1673ffffffffffffffffffffffffffffffffffffffff163373ffffffffffffffffffffffffffffffffffffffff16145b61177b576040517f08c379a00000000000000000000000000000000000000000000000000000000081526004016117729061499c565b60405180910390fd5b6000600d600085815260200190815260200160002060060160006101000a81548160ff02191690831515021790555081600d60008581526020019081526020016000206005018190555033600d600085815260200190815260200160002060020160006101000a81548173ffffffffffffffffffffffffffffffffffffffff021916908373ffffffffffffffffffffffffffffffffffffffff16021790555030600d600085815260200190815260200160002060030160006101000a81548173ffffffffffffffffffffffffffffffffffffffff021916908373ffffffffffffffffffffffffffffffffffffffff160217905550600061187b6009612a03565b111561188c5761188b6009612ddc565b5b611897813085612aa6565b505050565b3073ffffffffffffffffffffffffffffffffffffffff166342842e0e3083856040518463ffffffff1660e01b81526004016118d9939291906149bc565b600060405180830381600087803b1580156118f357600080fd5b505af1158015611907573d6000803e3d6000fd5b5050505080600d600084815260200190815260200160002060030160006101000a81548173ffffffffffffffffffffffffffffffffffffffff021916908373ffffffffffffffffffffffffffffffffffffffff1602179055506001600d600084815260200190815260200160002060060160006101000a81548160ff0219169083151502179055507f20665ee57a5e13af162123968d777ccebe86531a21e53d08afc78138a950192d82826040516119c09291906149f3565b60405180910390a15050565b600080600d60008481526020019081526020016000206040518060e0016040529081600082015481526020016001820160009054906101000a900473ffffffffffffffffffffffffffffffffffffffff1673ffffffffffffffffffffffffffffffffffffffff1673ffffffffffffffffffffffffffffffffffffffff1681526020016002820160009054906101000a900473ffffffffffffffffffffffffffffffffffffffff1673ffffffffffffffffffffffffffffffffffffffff1673ffffffffffffffffffffffffffffffffffffffff1681526020016003820160009054906101000a900473ffffffffffffffffffffffffffffffffffffffff1673ffffffffffffffffffffffffffffffffffffffff1673ffffffffffffffffffffffffffffffffffffffff16815260200160048201548152602001600582015481526020016006820160009054906101000a900460ff16151515158152505090508060a00151915050919050565b606060018054611b469061424e565b80601f0160208091040260200160405190810160405280929190818152602001828054611b729061424e565b8015611bbf5780601f10611b9457610100808354040283529160200191611bbf565b820191906000526020600020905b815481529060010190602001808311611ba257829003601f168201915b5050505050905090565b611bdb611bd4612942565b8383612e38565b5050565b6000806000600d60008581526020019081526020016000206040518060e0016040529081600082015481526020016001820160009054906101000a900473ffffffffffffffffffffffffffffffffffffffff1673ffffffffffffffffffffffffffffffffffffffff1673ffffffffffffffffffffffffffffffffffffffff1681526020016002820160009054906101000a900473ffffffffffffffffffffffffffffffffffffffff1673ffffffffffffffffffffffffffffffffffffffff1673ffffffffffffffffffffffffffffffffffffffff1681526020016003820160009054906101000a900473ffffffffffffffffffffffffffffffffffffffff1673ffffffffffffffffffffffffffffffffffffffff1673ffffffffffffffffffffffffffffffffffffffff16815260200160048201548152602001600582015481526020016006820160009054906101000a900460ff1615151515815250509050806080015181602001519250925050915091565b6000600d600083815260200190815260200160002060020160009054906101000a900473ffffffffffffffffffffffffffffffffffffffff169050919050565b600b60009054906101000a900473ffffffffffffffffffffffffffffffffffffffff1673ffffffffffffffffffffffffffffffffffffffff163373ffffffffffffffffffffffffffffffffffffffff1614611e23576040517f08c379a0000000000000000000000000000000000000000000000000000000008152600401611e1a90614a8e565b60405180910390fd5b80600a8190555050565b611e3681611542565b73ffffffffffffffffffffffffffffffffffffffff163373ffffffffffffffffffffffffffffffffffffffff1614611ea3576040517f08c379a0000000000000000000000000000000000000000000000000000000008152600401611e9a90614b20565b60405180910390fd5b611eae6000826108a9565b50565b611ec2611ebc612942565b83612a11565b611f01576040517f08c379a0000000000000000000000000000000000000000000000000000000008152600401611ef89061458f565b60405180910390fd5b611f0d84848484612fa4565b50505050565b6000600d6000838152602001908152602001600020600501549050803414611f70576040517f08c379a0000000000000000000000000000000000000000000000000000000008152600401611f6790614bb2565b60405180910390fd5b600d600083815260200190815260200160002060020160009054906101000a900473ffffffffffffffffffffffffffffffffffffffff1673ffffffffffffffffffffffffffffffffffffffff163373ffffffffffffffffffffffffffffffffffffffff1603612014576040517f08c379a000000000000000000000000000000000000000000000000000000000815260040161200b90614c44565b60405180910390fd5b33600d600084815260200190815260200160002060030160006101000a81548173ffffffffffffffffffffffffffffffffffffffff021916908373ffffffffffffffffffffffffffffffffffffffff1602179055506001600d600084815260200190815260200160002060060160006101000a81548160ff0219169083151502179055506120a26009613000565b6120ad303384612aa6565b600b60009054906101000a900473ffffffffffffffffffffffffffffffffffffffff1673ffffffffffffffffffffffffffffffffffffffff166108fc600a549081150290604051600060405180830381858888f19350505050158015612117573d6000803e3d6000fd5b50600d600083815260200190815260200160002060020160009054906101000a900473ffffffffffffffffffffffffffffffffffffffff1673ffffffffffffffffffffffffffffffffffffffff166108fc349081150290604051600060405180830381858888f19350505050158015612194573d6000803e3d6000fd5b505050565b60006121a56008613000565b60006121b16008612a03565b90506121bd3382613016565b6121c78186613233565b6121d2818585610db0565b809150509392505050565b606060006121eb6008612a03565b905060008060005b83811015612293573373ffffffffffffffffffffffffffffffffffffffff16600d60006001846122239190614472565b815260200190815260200160002060030160009054906101000a900473ffffffffffffffffffffffffffffffffffffffff1673ffffffffffffffffffffffffffffffffffffffff16036122805760018361227d9190614472565b92505b808061228b906144d5565b9150506121f3565b5060008267ffffffffffffffff8111156122b0576122af613f21565b5b6040519080825280602002602001820160405280156122e957816020015b6122d66137d8565b8152602001906001900390816122ce5790505b50905060005b8481101561251e573373ffffffffffffffffffffffffffffffffffffffff16600d600060018461231f9190614472565b815260200190815260200160002060030160009054906101000a900473ffffffffffffffffffffffffffffffffffffffff1673ffffffffffffffffffffffffffffffffffffffff160361250b57600060018261237b9190614472565b90506000600d60008381526020019081526020016000209050806040518060e0016040529081600082015481526020016001820160009054906101000a900473ffffffffffffffffffffffffffffffffffffffff1673ffffffffffffffffffffffffffffffffffffffff1673ffffffffffffffffffffffffffffffffffffffff1681526020016002820160009054906101000a900473ffffffffffffffffffffffffffffffffffffffff1673ffffffffffffffffffffffffffffffffffffffff1673ffffffffffffffffffffffffffffffffffffffff1681526020016003820160009054906101000a900473ffffffffffffffffffffffffffffffffffffffff1673ffffffffffffffffffffffffffffffffffffffff1673ffffffffffffffffffffffffffffffffffffffff16815260200160048201548152602001600582015481526020016006820160009054906101000a900460ff1615151515815250508486815181106124ee576124ed6144a6565b5b60200260200101819052506001856125069190614472565b945050505b8080612516906144d5565b9150506122ef565b508094505050505090565b600d600082815260200190815260200160002060020160009054906101000a900473ffffffffffffffffffffffffffffffffffffffff1673ffffffffffffffffffffffffffffffffffffffff163373ffffffffffffffffffffffffffffffffffffffff16146125cd576040517f08c379a00000000000000000000000000000000000000000000000000000000081526004016125c490614cb0565b60405180910390fd5b6125d8303383612aa6565b33600d600083815260200190815260200160002060030160006101000a81548173ffffffffffffffffffffffffffffffffffffffff021916908373ffffffffffffffffffffffffffffffffffffffff1602179055506001600d600083815260200190815260200160002060060160006101000a81548160ff0219169083151502179055506126666009613000565b50565b600a5481565b606061267a826128f7565b600060066000848152602001908152602001600020805461269a9061424e565b80601f01602080910402602001604051908101604052809291908181526020018280546126c69061424e565b80156127135780601f106126e857610100808354040283529160200191612713565b820191906000526020600020905b8154815290600101906020018083116126f657829003601f168201915b5050505050905060006127246132d7565b9050600081510361273957819250505061277c565b60008251111561276e578082604051602001612756929190614d0c565b6040516020818303038152906040529250505061277c565b612777846132ee565b925050505b919050565b6000600560008473ffffffffffffffffffffffffffffffffffffffff1673ffffffffffffffffffffffffffffffffffffffff16815260200190815260200160002060008373ffffffffffffffffffffffffffffffffffffffff1673ffffffffffffffffffffffffffffffffffffffff16815260200190815260200160002060009054906101000a900460ff16905092915050565b60007f80ac58cd000000000000000000000000000000000000000000000000000000007bffffffffffffffffffffffffffffffffffffffffffffffffffffffff1916827bffffffffffffffffffffffffffffffffffffffffffffffffffffffff191614806128e057507f5b5e139f000000000000000000000000000000000000000000000000000000007bffffffffffffffffffffffffffffffffffffffffffffffffffffffff1916827bffffffffffffffffffffffffffffffffffffffffffffffffffffffff1916145b806128f057506128ef82613356565b5b9050919050565b612900816133c0565b61293f576040517f08c379a00000000000000000000000000000000000000000000000000000000081526004016129369061489e565b60405180910390fd5b50565b600033905090565b816004600083815260200190815260200160002060006101000a81548173ffffffffffffffffffffffffffffffffffffffff021916908373ffffffffffffffffffffffffffffffffffffffff160217905550808273ffffffffffffffffffffffffffffffffffffffff166129bd83611542565b73ffffffffffffffffffffffffffffffffffffffff167f8c5be1e5ebec7d5bd14f71427d1e84f3dd0314c0f7b2291e5b200ac8c7c3b92560405160405180910390a45050565b600081600001549050919050565b600080612a1d83611542565b90508073ffffffffffffffffffffffffffffffffffffffff168473ffffffffffffffffffffffffffffffffffffffff161480612a5f5750612a5e8185612781565b5b80612a9d57508373ffffffffffffffffffffffffffffffffffffffff16612a8584610863565b73ffffffffffffffffffffffffffffffffffffffff16145b91505092915050565b8273ffffffffffffffffffffffffffffffffffffffff16612ac682611542565b73ffffffffffffffffffffffffffffffffffffffff1614612b1c576040517f08c379a0000000000000000000000000000000000000000000000000000000008152600401612b1390614da2565b60405180910390fd5b600073ffffffffffffffffffffffffffffffffffffffff168273ffffffffffffffffffffffffffffffffffffffff1603612b8b576040517f08c379a0000000000000000000000000000000000000000000000000000000008152600401612b8290614e34565b60405180910390fd5b612b988383836001613401565b8273ffffffffffffffffffffffffffffffffffffffff16612bb882611542565b73ffffffffffffffffffffffffffffffffffffffff1614612c0e576040517f08c379a0000000000000000000000000000000000000000000000000000000008152600401612c0590614da2565b60405180910390fd5b6004600082815260200190815260200160002060006101000a81549073ffffffffffffffffffffffffffffffffffffffff02191690556001600360008573ffffffffffffffffffffffffffffffffffffffff1673ffffffffffffffffffffffffffffffffffffffff168152602001908152602001600020600082825403925050819055506001600360008473ffffffffffffffffffffffffffffffffffffffff1673ffffffffffffffffffffffffffffffffffffffff16815260200190815260200160002060008282540192505081905550816002600083815260200190815260200160002060006101000a81548173ffffffffffffffffffffffffffffffffffffffff021916908373ffffffffffffffffffffffffffffffffffffffff160217905550808273ffffffffffffffffffffffffffffffffffffffff168473ffffffffffffffffffffffffffffffffffffffff167fddf252ad1be2c89b69c2b068fc378daa952ba7f163c4a11628f55a4df523b3ef60405160405180910390a4612d9a8383836001613407565b505050565b60006002600083815260200190815260200160002060009054906101000a900473ffffffffffffffffffffffffffffffffffffffff169050919050565b60008160000154905060008111612e28576040517f08c379a0000000000000000000000000000000000000000000000000000000008152600401612e1f90614ea0565b60405180910390fd5b6001810382600001819055505050565b8173ffffffffffffffffffffffffffffffffffffffff168373ffffffffffffffffffffffffffffffffffffffff1603612ea6576040517f08c379a0000000000000000000000000000000000000000000000000000000008152600401612e9d90614f0c565b60405180910390fd5b80600560008573ffffffffffffffffffffffffffffffffffffffff1673ffffffffffffffffffffffffffffffffffffffff16815260200190815260200160002060008473ffffffffffffffffffffffffffffffffffffffff1673ffffffffffffffffffffffffffffffffffffffff16815260200190815260200160002060006101000a81548160ff0219169083151502179055508173ffffffffffffffffffffffffffffffffffffffff168373ffffffffffffffffffffffffffffffffffffffff167f17307eab39ab6107e8899845ad3d59bd9653f200f220920489ca2b5937696c3183604051612f97919061390d565b60405180910390a3505050565b612faf848484612aa6565b612fbb8484848461340d565b612ffa576040517f08c379a0000000000000000000000000000000000000000000000000000000008152600401612ff190614f9e565b60405180910390fd5b50505050565b6001816000016000828254019250508190555050565b600073ffffffffffffffffffffffffffffffffffffffff168273ffffffffffffffffffffffffffffffffffffffff1603613085576040517f08c379a000000000000000000000000000000000000000000000000000000000815260040161307c9061500a565b60405180910390fd5b61308e816133c0565b156130ce576040517f08c379a00000000000000000000000000000000000000000000000000000000081526004016130c590615076565b60405180910390fd5b6130dc600083836001613401565b6130e5816133c0565b15613125576040517f08c379a000000000000000000000000000000000000000000000000000000000815260040161311c90615076565b60405180910390fd5b6001600360008473ffffffffffffffffffffffffffffffffffffffff1673ffffffffffffffffffffffffffffffffffffffff16815260200190815260200160002060008282540192505081905550816002600083815260200190815260200160002060006101000a81548173ffffffffffffffffffffffffffffffffffffffff021916908373ffffffffffffffffffffffffffffffffffffffff160217905550808273ffffffffffffffffffffffffffffffffffffffff16600073ffffffffffffffffffffffffffffffffffffffff167fddf252ad1be2c89b69c2b068fc378daa952ba7f163c4a11628f55a4df523b3ef60405160405180910390a461322f600083836001613407565b5050565b61323c826133c0565b61327b576040517f08c379a000000000000000000000000000000000000000000000000000000000815260040161327290615108565b60405180910390fd5b8060066000848152602001908152602001600020908161329b91906152d4565b507ff8e1a15aba9398e019f0b49df1a4fde98ee17ae345cb5f6b5e2c27f5033e8ce7826040516132cb9190613dc5565b60405180910390a15050565b606060405180602001604052806000815250905090565b60606132f9826128f7565b60006133036132d7565b90506000815111613323576040518060200160405280600081525061334e565b8061332d84613594565b60405160200161333e929190614d0c565b6040516020818303038152906040525b915050919050565b60007f01ffc9a7000000000000000000000000000000000000000000000000000000007bffffffffffffffffffffffffffffffffffffffffffffffffffffffff1916827bffffffffffffffffffffffffffffffffffffffffffffffffffffffff1916149050919050565b60008073ffffffffffffffffffffffffffffffffffffffff166133e283612d9f565b73ffffffffffffffffffffffffffffffffffffffff1614159050919050565b50505050565b50505050565b600061342e8473ffffffffffffffffffffffffffffffffffffffff16613662565b15613587578373ffffffffffffffffffffffffffffffffffffffff1663150b7a02613457612942565b8786866040518563ffffffff1660e01b815260040161347994939291906153fb565b6020604051808303816000875af19250505080156134b557506040513d601f19601f820116820180604052508101906134b2919061545c565b60015b613537573d80600081146134e5576040519150601f19603f3d011682016040523d82523d6000602084013e6134ea565b606091505b50600081510361352f576040517f08c379a000000000000000000000000000000000000000000000000000000000815260040161352690614f9e565b60405180910390fd5b805181602001fd5b63150b7a0260e01b7bffffffffffffffffffffffffffffffffffffffffffffffffffffffff1916817bffffffffffffffffffffffffffffffffffffffffffffffffffffffff19161491505061358c565b600190505b949350505050565b6060600060016135a384613685565b01905060008167ffffffffffffffff8111156135c2576135c1613f21565b5b6040519080825280601f01601f1916602001820160405280156135f45781602001600182028036833780820191505090505b509050600082602001820190505b600115613657578080600190039150507f3031323334353637383961626364656600000000000000000000000000000000600a86061a8153600a858161364b5761364a615489565b5b04945060008503613602575b819350505050919050565b6000808273ffffffffffffffffffffffffffffffffffffffff163b119050919050565b600080600090507a184f03e93ff9f4daa797ed6e38ed64bf6a1f01000000000000000083106136e3577a184f03e93ff9f4daa797ed6e38ed64bf6a1f01000000000000000083816136d9576136d8615489565b5b0492506040810190505b6d04ee2d6d415b85acef81000000008310613720576d04ee2d6d415b85acef8100000000838161371657613715615489565b5b0492506020810190505b662386f26fc10000831061374f57662386f26fc10000838161374557613744615489565b5b0492506010810190505b6305f5e1008310613778576305f5e100838161376e5761376d615489565b5b0492506008810190505b612710831061379d57612710838161379357613792615489565b5b0492506004810190505b606483106137c057606483816137b6576137b5615489565b5b0492506002810190505b600a83106137cf576001810190505b80915050919050565b6040518060e0016040528060008152602001600073ffffffffffffffffffffffffffffffffffffffff168152602001600073ffffffffffffffffffffffffffffffffffffffff168152602001600073ffffffffffffffffffffffffffffffffffffffff16815260200160008152602001600081526020016000151581525090565b6000604051905090565b600080fd5b600080fd5b60007fffffffff0000000000000000000000000000000000000000000000000000000082169050919050565b6138a28161386d565b81146138ad57600080fd5b50565b6000813590506138bf81613899565b92915050565b6000602082840312156138db576138da613863565b5b60006138e9848285016138b0565b91505092915050565b60008115159050919050565b613907816138f2565b82525050565b600060208201905061392260008301846138fe565b92915050565b600081519050919050565b600082825260208201905092915050565b60005b83811015613962578082015181840152602081019050613947565b60008484015250505050565b6000601f19601f8301169050919050565b600061398a82613928565b6139948185613933565b93506139a4818560208601613944565b6139ad8161396e565b840191505092915050565b600060208201905081810360008301526139d2818461397f565b905092915050565b6000819050919050565b6139ed816139da565b81146139f857600080fd5b50565b600081359050613a0a816139e4565b92915050565b600060208284031215613a2657613a25613863565b5b6000613a34848285016139fb565b91505092915050565b600073ffffffffffffffffffffffffffffffffffffffff82169050919050565b6000613a6882613a3d565b9050919050565b613a7881613a5d565b82525050565b6000602082019050613a936000830184613a6f565b92915050565b613aa281613a5d565b8114613aad57600080fd5b50565b600081359050613abf81613a99565b92915050565b60008060408385031215613adc57613adb613863565b5b6000613aea85828601613ab0565b9250506020613afb858286016139fb565b9150509250929050565b600081519050919050565b600082825260208201905092915050565b6000819050602082019050919050565b613b3a816139da565b82525050565b6000613b4b82613a3d565b9050919050565b613b5b81613b40565b82525050565b613b6a816138f2565b82525050565b60e082016000820151613b866000850182613b31565b506020820151613b996020850182613b52565b506040820151613bac6040850182613b52565b506060820151613bbf6060850182613b52565b506080820151613bd26080850182613b31565b5060a0820151613be560a0850182613b31565b5060c0820151613bf860c0850182613b61565b50505050565b6000613c0a8383613b70565b60e08301905092915050565b6000602082019050919050565b6000613c2e82613b05565b613c388185613b10565b9350613c4383613b21565b8060005b83811015613c74578151613c5b8882613bfe565b9750613c6683613c16565b925050600181019050613c47565b5085935050505092915050565b60006020820190508181036000830152613c9b8184613c23565b905092915050565b600060208284031215613cb957613cb8613863565b5b6000613cc784828501613ab0565b91505092915050565b600080600060608486031215613ce957613ce8613863565b5b6000613cf786828701613ab0565b9350506020613d0886828701613ab0565b9250506040613d19868287016139fb565b9150509250925092565b600080600060608486031215613d3c57613d3b613863565b5b6000613d4a868287016139fb565b9350506020613d5b868287016139fb565b9250506040613d6c868287016139fb565b9150509250925092565b60008060408385031215613d8d57613d8c613863565b5b6000613d9b858286016139fb565b9250506020613dac858286016139fb565b9150509250929050565b613dbf816139da565b82525050565b6000602082019050613dda6000830184613db6565b92915050565b600080600060608486031215613df957613df8613863565b5b6000613e07868287016139fb565b9350506020613e18868287016139fb565b9250506040613e2986828701613ab0565b9150509250925092565b60008060408385031215613e4a57613e49613863565b5b6000613e58858286016139fb565b9250506020613e6985828601613ab0565b9150509250929050565b613e7c816138f2565b8114613e8757600080fd5b50565b600081359050613e9981613e73565b92915050565b60008060408385031215613eb657613eb5613863565b5b6000613ec485828601613ab0565b9250506020613ed585828601613e8a565b9150509250929050565b613ee881613b40565b82525050565b6000604082019050613f036000830185613db6565b613f106020830184613edf565b9392505050565b600080fd5b600080fd5b7f4e487b7100000000000000000000000000000000000000000000000000000000600052604160045260246000fd5b613f598261396e565b810181811067ffffffffffffffff82111715613f7857613f77613f21565b5b80604052505050565b6000613f8b613859565b9050613f978282613f50565b919050565b600067ffffffffffffffff821115613fb757613fb6613f21565b5b613fc08261396e565b9050602081019050919050565b82818337600083830152505050565b6000613fef613fea84613f9c565b613f81565b90508281526020810184848401111561400b5761400a613f1c565b5b614016848285613fcd565b509392505050565b600082601f83011261403357614032613f17565b5b8135614043848260208601613fdc565b91505092915050565b6000806000806080858703121561406657614065613863565b5b600061407487828801613ab0565b945050602061408587828801613ab0565b9350506040614096878288016139fb565b925050606085013567ffffffffffffffff8111156140b7576140b6613868565b5b6140c38782880161401e565b91505092959194509250565b600067ffffffffffffffff8211156140ea576140e9613f21565b5b6140f38261396e565b9050602081019050919050565b600061411361410e846140cf565b613f81565b90508281526020810184848401111561412f5761412e613f1c565b5b61413a848285613fcd565b509392505050565b600082601f83011261415757614156613f17565b5b8135614167848260208601614100565b91505092915050565b60008060006060848603121561418957614188613863565b5b600084013567ffffffffffffffff8111156141a7576141a6613868565b5b6141b386828701614142565b93505060206141c4868287016139fb565b92505060406141d5868287016139fb565b9150509250925092565b600080604083850312156141f6576141f5613863565b5b600061420485828601613ab0565b925050602061421585828601613ab0565b9150509250929050565b7f4e487b7100000000000000000000000000000000000000000000000000000000600052602260045260246000fd5b6000600282049050600182168061426657607f821691505b6020821081036142795761427861421f565b5b50919050565b7f4552433732313a20617070726f76616c20746f2063757272656e74206f776e6560008201527f7200000000000000000000000000000000000000000000000000000000000000602082015250565b60006142db602183613933565b91506142e68261427f565b604082019050919050565b6000602082019050818103600083015261430a816142ce565b9050919050565b7f4552433732313a20617070726f76652063616c6c6572206973206e6f7420746f60008201527f6b656e206f776e6572206f7220617070726f76656420666f7220616c6c000000602082015250565b600061436d603d83613933565b915061437882614311565b604082019050919050565b6000602082019050818103600083015261439c81614360565b9050919050565b7f4f6e6c7920746865206f776e65722063616e206769766520617070726f76616c600082015250565b60006143d9602083613933565b91506143e4826143a3565b602082019050919050565b60006020820190508181036000830152614408816143cc565b9050919050565b7f4e487b7100000000000000000000000000000000000000000000000000000000600052601160045260246000fd5b6000614449826139da565b9150614454836139da565b925082820390508181111561446c5761446b61440f565b5b92915050565b600061447d826139da565b9150614488836139da565b92508282019050808211156144a05761449f61440f565b5b92915050565b7f4e487b7100000000000000000000000000000000000000000000000000000000600052603260045260246000fd5b60006144e0826139da565b91507fffffffffffffffffffffffffffffffffffffffffffffffffffffffffffffffff82036145125761451161440f565b5b600182019050919050565b7f4552433732313a2063616c6c6572206973206e6f7420746f6b656e206f776e6560008201527f72206f7220617070726f76656400000000000000000000000000000000000000602082015250565b6000614579602d83613933565b91506145848261451d565b604082019050919050565b600060208201905081810360008301526145a88161456c565b9050919050565b7f5072696365206d757374206265206174206c6561737420312077656900000000600082015250565b60006145e5601c83613933565b91506145f0826145af565b602082019050919050565b60006020820190508181036000830152614614816145d8565b9050919050565b7f5072696365206d757374206265207061696420696e2066756c6c000000000000600082015250565b6000614651601a83613933565b915061465c8261461b565b602082019050919050565b6000602082019050818103600083015261468081614644565b9050919050565b600060c08201905061469c6000830189613a6f565b6146a96020830188613a6f565b6146b66040830187613a6f565b6146c36060830186613db6565b6146d06080830185613db6565b6146dd60a08301846138fe565b979650505050505050565b7f4e465420646f6573206e6f7420657869737420696e206d61726b6574706c616360008201527f6500000000000000000000000000000000000000000000000000000000000000602082015250565b6000614744602183613933565b915061474f826146e8565b604082019050919050565b6000602082019050818103600083015261477381614737565b9050919050565b7f43616c6c6572206973206e6f7420746865206f776e6572000000000000000000600082015250565b60006147b0601783613933565b91506147bb8261477a565b602082019050919050565b600060208201905081810360008301526147df816147a3565b9050919050565b7f5072696365206d7573742062652067726561746572207468616e207a65726f00600082015250565b600061481c601f83613933565b9150614827826147e6565b602082019050919050565b6000602082019050818103600083015261484b8161480f565b9050919050565b7f4552433732313a20696e76616c696420746f6b656e2049440000000000000000600082015250565b6000614888601883613933565b915061489382614852565b602082019050919050565b600060208201905081810360008301526148b78161487b565b9050919050565b7f4552433732313a2061646472657373207a65726f206973206e6f74206120766160008201527f6c6964206f776e65720000000000000000000000000000000000000000000000602082015250565b600061491a602983613933565b9150614925826148be565b604082019050919050565b600060208201905081810360008301526149498161490d565b9050919050565b7f4f6e6c79206f776e65722063616e2072656c697374204e465400000000000000600082015250565b6000614986601983613933565b915061499182614950565b602082019050919050565b600060208201905081810360008301526149b581614979565b9050919050565b60006060820190506149d16000830186613a6f565b6149de6020830185613a6f565b6149eb6040830184613db6565b949350505050565b6000604082019050614a086000830185613db6565b614a156020830184613a6f565b9392505050565b7f6f6e6c79206f776e6572206f662074686520636f6e74726163742063616e207560008201527f706461746520746865206c697374696e67207072696365000000000000000000602082015250565b6000614a78603783613933565b9150614a8382614a1c565b604082019050919050565b60006020820190508181036000830152614aa781614a6b565b9050919050565b7f4f6e6c7920746865206f776e65722063616e207265766f6b6520617070726f7660008201527f616c000000000000000000000000000000000000000000000000000000000000602082015250565b6000614b0a602283613933565b9150614b1582614aae565b604082019050919050565b60006020820190508181036000830152614b3981614afd565b9050919050565b7f506c65617365207375626d6974207468652061736b696e67207072696365206960008201527f6e206f7264657220746f20636f6d706c65746520746865207075726368617365602082015250565b6000614b9c604083613933565b9150614ba782614b40565b604082019050919050565b60006020820190508181036000830152614bcb81614b8f565b9050919050565b7f557365722063616e6e6f74207075726368617365207468656972206f776e204e60008201527f4654000000000000000000000000000000000000000000000000000000000000602082015250565b6000614c2e602283613933565b9150614c3982614bd2565b604082019050919050565b60006020820190508181036000830152614c5d81614c21565b9050919050565b7f4f6e6c7920746f6b656e2073656c6c65722063616e2064656c69737400000000600082015250565b6000614c9a601c83613933565b9150614ca582614c64565b602082019050919050565b60006020820190508181036000830152614cc981614c8d565b9050919050565b600081905092915050565b6000614ce682613928565b614cf08185614cd0565b9350614d00818560208601613944565b80840191505092915050565b6000614d188285614cdb565b9150614d248284614cdb565b91508190509392505050565b7f4552433732313a207472616e736665722066726f6d20696e636f72726563742060008201527f6f776e6572000000000000000000000000000000000000000000000000000000602082015250565b6000614d8c602583613933565b9150614d9782614d30565b604082019050919050565b60006020820190508181036000830152614dbb81614d7f565b9050919050565b7f4552433732313a207472616e7366657220746f20746865207a65726f2061646460008201527f7265737300000000000000000000000000000000000000000000000000000000602082015250565b6000614e1e602483613933565b9150614e2982614dc2565b604082019050919050565b60006020820190508181036000830152614e4d81614e11565b9050919050565b7f436f756e7465723a2064656372656d656e74206f766572666c6f770000000000600082015250565b6000614e8a601b83613933565b9150614e9582614e54565b602082019050919050565b60006020820190508181036000830152614eb981614e7d565b9050919050565b7f4552433732313a20617070726f766520746f2063616c6c657200000000000000600082015250565b6000614ef6601983613933565b9150614f0182614ec0565b602082019050919050565b60006020820190508181036000830152614f2581614ee9565b9050919050565b7f4552433732313a207472616e7366657220746f206e6f6e20455243373231526560008201527f63656976657220696d706c656d656e7465720000000000000000000000000000602082015250565b6000614f88603283613933565b9150614f9382614f2c565b604082019050919050565b60006020820190508181036000830152614fb781614f7b565b9050919050565b7f4552433732313a206d696e7420746f20746865207a65726f2061646472657373600082015250565b6000614ff4602083613933565b9150614fff82614fbe565b602082019050919050565b6000602082019050818103600083015261502381614fe7565b9050919050565b7f4552433732313a20746f6b656e20616c7265616479206d696e74656400000000600082015250565b6000615060601c83613933565b915061506b8261502a565b602082019050919050565b6000602082019050818103600083015261508f81615053565b9050919050565b7f45524337323155524953746f726167653a2055524920736574206f66206e6f6e60008201527f6578697374656e7420746f6b656e000000000000000000000000000000000000602082015250565b60006150f2602e83613933565b91506150fd82615096565b604082019050919050565b60006020820190508181036000830152615121816150e5565b9050919050565b60008190508160005260206000209050919050565b60006020601f8301049050919050565b600082821b905092915050565b60006008830261518a7fffffffffffffffffffffffffffffffffffffffffffffffffffffffffffffffff8261514d565b615194868361514d565b95508019841693508086168417925050509392505050565b6000819050919050565b60006151d16151cc6151c7846139da565b6151ac565b6139da565b9050919050565b6000819050919050565b6151eb836151b6565b6151ff6151f7826151d8565b84845461515a565b825550505050565b600090565b615214615207565b61521f8184846151e2565b505050565b5b818110156152435761523860008261520c565b600181019050615225565b5050565b601f8211156152885761525981615128565b6152628461513d565b81016020851015615271578190505b61528561527d8561513d565b830182615224565b50505b505050565b600082821c905092915050565b60006152ab6000198460080261528d565b1980831691505092915050565b60006152c4838361529a565b9150826002028217905092915050565b6152dd82613928565b67ffffffffffffffff8111156152f6576152f5613f21565b5b615300825461424e565b61530b828285615247565b600060209050601f83116001811461533e576000841561532c578287015190505b61533685826152b8565b86555061539e565b601f19841661534c86615128565b60005b828110156153745784890151825560018201915060208501945060208101905061534f565b86831015615391578489015161538d601f89168261529a565b8355505b6001600288020188555050505b505050505050565b600081519050919050565b600082825260208201905092915050565b60006153cd826153a6565b6153d781856153b1565b93506153e7818560208601613944565b6153f08161396e565b840191505092915050565b60006080820190506154106000830187613a6f565b61541d6020830186613a6f565b61542a6040830185613db6565b818103606083015261543c81846153c2565b905095945050505050565b60008151905061545681613899565b92915050565b60006020828403121561547257615471613863565b5b600061548084828501615447565b91505092915050565b7f4e487b7100000000000000000000000000000000000000000000000000000000600052601260045260246000fdfea264697066735822122013033861acc141a26ca5d99f847be3fcdc9e1214daf19bf650aa5c58de638cda64736f6c63430008130033",
  "linkReferences": {},
  "deployedLinkReferences": {}
}