{
  "_format": "hh-sol-artifact-1",
  "contractName": "Auction",
  "sourceName": "contracts/Auction.sol",
  "abi": [
    {
      "inputs": [
        {
          "internalType": "uint256",
          "name": "_nftId",
          "type": "uint256"
        },
        {
          "internalType": "uint256",
          "name": "_startingPrice",
          "type": "uint256"
        },
        {
          "internalType": "uint256",
          "name": "auctionDuration",
          "type": "uint256"
        },
        {
          "internalType": "address",
          "name": "_seller",
          "type": "address"
        },
        {
          "internalType": "address",
          "name": "_marketplaceAddress",
          "type": "address"
        },
        {
          "internalType": "address",
          "name": "_auctionFactoryAddress",
          "type": "address"
        }
      ],
      "stateMutability": "nonpayable",
      "type": "constructor"
    },
    {
      "anonymous": false,
      "inputs": [
        {
          "indexed": false,
          "internalType": "uint256",
          "name": "nftId",
          "type": "uint256"
        },
        {
          "indexed": false,
          "internalType": "address",
          "name": "highestBidder",
          "type": "address"
        },
        {
          "indexed": false,
          "internalType": "address",
          "name": "seller",
          "type": "address"
        },
        {
          "indexed": false,
          "internalType": "address",
          "name": "nullAddress",
          "type": "address"
        },
        {
          "indexed": false,
          "internalType": "uint256",
          "name": "highestBid",
          "type": "uint256"
        }
      ],
      "name": "AuctionEnded",
      "type": "event"
    },
    {
      "anonymous": false,
      "inputs": [
        {
          "indexed": false,
          "internalType": "address",
          "name": "bidder",
          "type": "address"
        },
        {
          "indexed": false,
          "internalType": "uint256",
          "name": "bidAmount",
          "type": "uint256"
        },
        {
          "indexed": false,
          "internalType": "address",
          "name": "auctionAddress",
          "type": "address"
        }
      ],
      "name": "Bid",
      "type": "event"
    },
    {
      "inputs": [],
      "name": "auctionEndTime",
      "outputs": [
        {
          "internalType": "uint256",
          "name": "",
          "type": "uint256"
        }
      ],
      "stateMutability": "view",
      "type": "function"
    },
    {
      "inputs": [],
      "name": "bid",
      "outputs": [],
      "stateMutability": "payable",
      "type": "function"
    },
    {
      "inputs": [],
      "name": "confirmAuctionEnd",
      "outputs": [],
      "stateMutability": "nonpayable",
      "type": "function"
    },
    {
      "inputs": [],
      "name": "durationElapsed",
      "outputs": [
        {
          "internalType": "bool",
          "name": "",
          "type": "bool"
        }
      ],
      "stateMutability": "view",
      "type": "function"
    },
    {
      "inputs": [],
      "name": "endAuction",
      "outputs": [],
      "stateMutability": "nonpayable",
      "type": "function"
    },
    {
      "inputs": [],
      "name": "ended",
      "outputs": [
        {
          "internalType": "bool",
          "name": "",
          "type": "bool"
        }
      ],
      "stateMutability": "view",
      "type": "function"
    },
    {
      "inputs": [],
      "name": "highestBid",
      "outputs": [
        {
          "internalType": "uint256",
          "name": "",
          "type": "uint256"
        }
      ],
      "stateMutability": "view",
      "type": "function"
    },
    {
      "inputs": [],
      "name": "highestBidder",
      "outputs": [
        {
          "internalType": "address payable",
          "name": "",
          "type": "address"
        }
      ],
      "stateMutability": "view",
      "type": "function"
    },
    {
      "inputs": [],
      "name": "marketplaceAddress",
      "outputs": [
        {
          "internalType": "address",
          "name": "",
          "type": "address"
        }
      ],
      "stateMutability": "view",
      "type": "function"
    },
    {
      "inputs": [],
      "name": "nftId",
      "outputs": [
        {
          "internalType": "uint256",
          "name": "",
          "type": "uint256"
        }
      ],
      "stateMutability": "view",
      "type": "function"
    },
    {
      "inputs": [
        {
          "internalType": "address",
          "name": "",
          "type": "address"
        }
      ],
      "name": "pendingReturns",
      "outputs": [
        {
          "internalType": "uint256",
          "name": "",
          "type": "uint256"
        }
      ],
      "stateMutability": "view",
      "type": "function"
    },
    {
      "inputs": [],
      "name": "penultimateBidder",
      "outputs": [
        {
          "internalType": "address payable",
          "name": "",
          "type": "address"
        }
      ],
      "stateMutability": "view",
      "type": "function"
    },
    {
      "inputs": [],
      "name": "seller",
      "outputs": [
        {
          "internalType": "address payable",
          "name": "",
          "type": "address"
        }
      ],
      "stateMutability": "view",
      "type": "function"
    },
    {
      "inputs": [],
      "name": "startingPrice",
      "outputs": [
        {
          "internalType": "uint256",
          "name": "",
          "type": "uint256"
        }
      ],
      "stateMutability": "view",
      "type": "function"
    },
    {
      "inputs": [],
      "name": "withdraw",
      "outputs": [
        {
          "internalType": "bool",
          "name": "",
          "type": "bool"
        }
      ],
      "stateMutability": "nonpayable",
      "type": "function"
    }
  ],
  "bytecode": "0x60806040523480156200001157600080fd5b506040516200262038038062002620833981810160405281019062000037919062000238565b600160008190555081600260006101000a81548173ffffffffffffffffffffffffffffffffffffffff021916908373ffffffffffffffffffffffffffffffffffffffff160217905550600260009054906101000a900473ffffffffffffffffffffffffffffffffffffffff16600360006101000a81548173ffffffffffffffffffffffffffffffffffffffff021916908373ffffffffffffffffffffffffffffffffffffffff16021790555080600460006101000a81548173ffffffffffffffffffffffffffffffffffffffff021916908373ffffffffffffffffffffffffffffffffffffffff1602179055508560018190555082600560006101000a81548173ffffffffffffffffffffffffffffffffffffffff021916908373ffffffffffffffffffffffffffffffffffffffff16021790555084600681905550834262000181919062000303565b600a819055505050505050506200033e565b600080fd5b6000819050919050565b620001ad8162000198565b8114620001b957600080fd5b50565b600081519050620001cd81620001a2565b92915050565b600073ffffffffffffffffffffffffffffffffffffffff82169050919050565b60006200020082620001d3565b9050919050565b6200021281620001f3565b81146200021e57600080fd5b50565b600081519050620002328162000207565b92915050565b60008060008060008060c0878903121562000258576200025762000193565b5b60006200026889828a01620001bc565b96505060206200027b89828a01620001bc565b95505060406200028e89828a01620001bc565b9450506060620002a189828a0162000221565b9350506080620002b489828a0162000221565b92505060a0620002c789828a0162000221565b9150509295509295509295565b7f4e487b7100000000000000000000000000000000000000000000000000000000600052601160045260246000fd5b6000620003108262000198565b91506200031d8362000198565b9250828201905080821115620003385762000337620002d4565b5b92915050565b6122d2806200034e6000396000f3fe6080604052600436106100e85760003560e01c80634b449cba1161008a578063d57bde7911610059578063d57bde79146102a3578063d6fbf202146102ce578063daa17f49146102f9578063fe67a54b14610324576100e8565b80634b449cba1461020b57806391f9015714610236578063c695176214610261578063c6bc518214610278576100e8565b80631998aeef116100c65780631998aeef1461016e5780631e9f77ac1461017857806326b387bb146101a35780633ccfd60b146101e0576100e8565b806308551a53146100ed57806310a4fb5f1461011857806312fa6feb14610143575b600080fd5b3480156100f957600080fd5b5061010261033b565b60405161010f919061164d565b60405180910390f35b34801561012457600080fd5b5061012d610361565b60405161013a919061164d565b60405180910390f35b34801561014f57600080fd5b50610158610387565b6040516101659190611683565b60405180910390f35b61017661039a565b005b34801561018457600080fd5b5061018d6108ac565b60405161019a9190611683565b60405180910390f35b3480156101af57600080fd5b506101ca60048036038101906101c591906116e1565b6108bf565b6040516101d79190611727565b60405180910390f35b3480156101ec57600080fd5b506101f56108d7565b6040516102029190611683565b60405180910390f35b34801561021757600080fd5b50610220610b1c565b60405161022d9190611727565b60405180910390f35b34801561024257600080fd5b5061024b610b22565b604051610258919061164d565b60405180910390f35b34801561026d57600080fd5b50610276610b48565b005b34801561028457600080fd5b5061028d610baa565b60405161029a9190611727565b60405180910390f35b3480156102af57600080fd5b506102b8610bb0565b6040516102c59190611727565b60405180910390f35b3480156102da57600080fd5b506102e3610bb6565b6040516102f09190611727565b60405180910390f35b34801561030557600080fd5b5061030e610bbc565b60405161031b9190611751565b60405180910390f35b34801561033057600080fd5b50610339610be2565b005b600560009054906101000a900473ffffffffffffffffffffffffffffffffffffffff1681565b600860009054906101000a900473ffffffffffffffffffffffffffffffffffffffff1681565b600b60019054906101000a900460ff1681565b6103a26115b3565b60001515600b60019054906101000a900460ff1615151480156103d8575060001515600b60009054906101000a900460ff161515145b610417576040517f08c379a000000000000000000000000000000000000000000000000000000000815260040161040e906117c9565b60405180910390fd5b3373ffffffffffffffffffffffffffffffffffffffff16600560009054906101000a900473ffffffffffffffffffffffffffffffffffffffff1673ffffffffffffffffffffffffffffffffffffffff16036104a7576040517f08c379a000000000000000000000000000000000000000000000000000000000815260040161049e9061185b565b60405180910390fd5b6006543410156104ec576040517f08c379a00000000000000000000000000000000000000000000000000000000081526004016104e3906118ed565b60405180910390fd5b3373ffffffffffffffffffffffffffffffffffffffff16600760009054906101000a900473ffffffffffffffffffffffffffffffffffffffff1673ffffffffffffffffffffffffffffffffffffffff160361057c576040517f08c379a000000000000000000000000000000000000000000000000000000000815260040161057390611959565b60405180910390fd5b600760009054906101000a900473ffffffffffffffffffffffffffffffffffffffff16600860006101000a81548173ffffffffffffffffffffffffffffffffffffffff021916908373ffffffffffffffffffffffffffffffffffffffff1602179055506000600c60003373ffffffffffffffffffffffffffffffffffffffff1673ffffffffffffffffffffffffffffffffffffffff168152602001908152602001600020549050600081111561071f576000600c60003373ffffffffffffffffffffffffffffffffffffffff1673ffffffffffffffffffffffffffffffffffffffff1681526020019081526020016000208190555060003373ffffffffffffffffffffffffffffffffffffffff1682604051610697906119aa565b60006040518083038185875af1925050503d80600081146106d4576040519150601f19603f3d011682016040523d82523d6000602084013e6106d9565b606091505b505090508061071d576040517f08c379a000000000000000000000000000000000000000000000000000000000815260040161071490611a0b565b60405180910390fd5b505b6009543411610763576040517f08c379a000000000000000000000000000000000000000000000000000000000815260040161075a90611a9d565b60405180910390fd5b6000600760009054906101000a900473ffffffffffffffffffffffffffffffffffffffff169050600060095490503460098190555033600760006101000a81548173ffffffffffffffffffffffffffffffffffffffff021916908373ffffffffffffffffffffffffffffffffffffffff160217905550600073ffffffffffffffffffffffffffffffffffffffff168273ffffffffffffffffffffffffffffffffffffffff16146108645780600c60008473ffffffffffffffffffffffffffffffffffffffff1673ffffffffffffffffffffffffffffffffffffffff168152602001908152602001600020600082825461085c9190611aec565b925050819055505b7f13692bed0518bbe01c8a2b50a32f14d0d4abaa43dce4da7af1814182ee64431733343060405161089793929190611b20565b60405180910390a15050506108aa611602565b565b600b60009054906101000a900460ff1681565b600c6020528060005260406000206000915090505481565b600060011515600b60019054906101000a900460ff1615151461092f576040517f08c379a000000000000000000000000000000000000000000000000000000000815260040161092690611bc9565b60405180910390fd5b600760009054906101000a900473ffffffffffffffffffffffffffffffffffffffff1673ffffffffffffffffffffffffffffffffffffffff163373ffffffffffffffffffffffffffffffffffffffff16036109bf576040517f08c379a00000000000000000000000000000000000000000000000000000000081526004016109b690611c5b565b60405180910390fd5b6000600c60003373ffffffffffffffffffffffffffffffffffffffff1673ffffffffffffffffffffffffffffffffffffffff1681526020019081526020016000205490506000811115610b13576000600c60003373ffffffffffffffffffffffffffffffffffffffff1673ffffffffffffffffffffffffffffffffffffffff1681526020019081526020016000208190555060003373ffffffffffffffffffffffffffffffffffffffff1682604051610a77906119aa565b60006040518083038185875af1925050503d8060008114610ab4576040519150601f19603f3d011682016040523d82523d6000602084013e610ab9565b606091505b5050905080610b115781600c60003373ffffffffffffffffffffffffffffffffffffffff1673ffffffffffffffffffffffffffffffffffffffff16815260200190815260200160002081905550600092505050610b19565b505b60019150505b90565b600a5481565b600760009054906101000a900473ffffffffffffffffffffffffffffffffffffffff1681565b600a54421015610b8d576040517f08c379a0000000000000000000000000000000000000000000000000000000008152600401610b8490611cc7565b60405180910390fd5b6001600b60006101000a81548160ff021916908315150217905550565b60015481565b60095481565b60065481565b600260009054906101000a900473ffffffffffffffffffffffffffffffffffffffff1681565b610bea6115b3565b600b60009054906101000a900460ff1680610c525750600560009054906101000a900473ffffffffffffffffffffffffffffffffffffffff1673ffffffffffffffffffffffffffffffffffffffff163373ffffffffffffffffffffffffffffffffffffffff16145b80610caa5750600260009054906101000a900473ffffffffffffffffffffffffffffffffffffffff1673ffffffffffffffffffffffffffffffffffffffff163373ffffffffffffffffffffffffffffffffffffffff16145b610ce9576040517f08c379a0000000000000000000000000000000000000000000000000000000008152600401610ce090611d7f565b60405180910390fd5b600080600360009054906101000a900473ffffffffffffffffffffffffffffffffffffffff1673ffffffffffffffffffffffffffffffffffffffff1663a65ff74c6001546040518263ffffffff1660e01b8152600401610d499190611727565b6040805180830381865afa158015610d65573d6000803e3d6000fd5b505050506040513d601f19601f82011682018060405250810190610d899190611df7565b91509150600073ffffffffffffffffffffffffffffffffffffffff16600760009054906101000a900473ffffffffffffffffffffffffffffffffffffffff1673ffffffffffffffffffffffffffffffffffffffff1614611450576000606483600954610df59190611e37565b610dff9190611ea8565b9050600060646002600954610e149190611e37565b610e1e9190611ea8565b905060008183600954610e319190611ed9565b610e3b9190611ed9565b90506000600560009054906101000a900473ffffffffffffffffffffffffffffffffffffffff1673ffffffffffffffffffffffffffffffffffffffff1682604051610e85906119aa565b60006040518083038185875af1925050503d8060008114610ec2576040519150601f19603f3d011682016040523d82523d6000602084013e610ec7565b606091505b5050905080610f0b576040517f08c379a0000000000000000000000000000000000000000000000000000000008152600401610f0290611f7f565b60405180910390fd5b60008573ffffffffffffffffffffffffffffffffffffffff1685604051610f31906119aa565b60006040518083038185875af1925050503d8060008114610f6e576040519150601f19603f3d011682016040523d82523d6000602084013e610f73565b606091505b5050905080610fb7576040517f08c379a0000000000000000000000000000000000000000000000000000000008152600401610fae90612011565b60405180910390fd5b6000600260009054906101000a900473ffffffffffffffffffffffffffffffffffffffff1673ffffffffffffffffffffffffffffffffffffffff1685604051610fff906119aa565b60006040518083038185875af1925050503d806000811461103c576040519150601f19603f3d011682016040523d82523d6000602084013e611041565b606091505b5050905080611085576040517f08c379a000000000000000000000000000000000000000000000000000000000815260040161107c906120a3565b60405180910390fd5b600073ffffffffffffffffffffffffffffffffffffffff16600860009054906101000a900473ffffffffffffffffffffffffffffffffffffffff1673ffffffffffffffffffffffffffffffffffffffff161415801561114557506000600c6000600860009054906101000a900473ffffffffffffffffffffffffffffffffffffffff1673ffffffffffffffffffffffffffffffffffffffff1673ffffffffffffffffffffffffffffffffffffffff16815260200190815260200160002054115b156112e8576000600c6000600860009054906101000a900473ffffffffffffffffffffffffffffffffffffffff1673ffffffffffffffffffffffffffffffffffffffff1673ffffffffffffffffffffffffffffffffffffffff1681526020019081526020016000205490506000600c6000600860009054906101000a900473ffffffffffffffffffffffffffffffffffffffff1673ffffffffffffffffffffffffffffffffffffffff1673ffffffffffffffffffffffffffffffffffffffff168152602001908152602001600020819055506000600860009054906101000a900473ffffffffffffffffffffffffffffffffffffffff1673ffffffffffffffffffffffffffffffffffffffff168260405161125f906119aa565b60006040518083038185875af1925050503d806000811461129c576040519150601f19603f3d011682016040523d82523d6000602084013e6112a1565b606091505b50509050806112e5576040517f08c379a00000000000000000000000000000000000000000000000000000000081526004016112dc90612135565b60405180910390fd5b50505b600360009054906101000a900473ffffffffffffffffffffffffffffffffffffffff1673ffffffffffffffffffffffffffffffffffffffff16638f329b31600154600760009054906101000a900473ffffffffffffffffffffffffffffffffffffffff166040518363ffffffff1660e01b81526004016113699291906121b4565b600060405180830381600087803b15801561138357600080fd5b505af1158015611397573d6000803e3d6000fd5b50505050600460009054906101000a900473ffffffffffffffffffffffffffffffffffffffff1673ffffffffffffffffffffffffffffffffffffffff1663a75654d96001546040518263ffffffff1660e01b81526004016113f89190611727565b600060405180830381600087803b15801561141257600080fd5b505af1158015611426573d6000803e3d6000fd5b505050506001600b60016101000a81548160ff02191690831515021790555050505050505061151f565b600360009054906101000a900473ffffffffffffffffffffffffffffffffffffffff1673ffffffffffffffffffffffffffffffffffffffff16638f329b31600154600560009054906101000a900473ffffffffffffffffffffffffffffffffffffffff166040518363ffffffff1660e01b81526004016114d19291906121b4565b600060405180830381600087803b1580156114eb57600080fd5b505af11580156114ff573d6000803e3d6000fd5b505050506001600b60016101000a81548160ff0219169083151502179055505b7f19f5e73c484e5274d91de54225d8a1330339f61b5f27dbe05c47ff361b8dd3c1600154600760009054906101000a900473ffffffffffffffffffffffffffffffffffffffff16600560009054906101000a900473ffffffffffffffffffffffffffffffffffffffff16600060095460405161159f9594939291906121dd565b60405180910390a150506115b1611602565b565b6002600054036115f8576040517f08c379a00000000000000000000000000000000000000000000000000000000081526004016115ef9061227c565b60405180910390fd5b6002600081905550565b6001600081905550565b600073ffffffffffffffffffffffffffffffffffffffff82169050919050565b60006116378261160c565b9050919050565b6116478161162c565b82525050565b6000602082019050611662600083018461163e565b92915050565b60008115159050919050565b61167d81611668565b82525050565b60006020820190506116986000830184611674565b92915050565b600080fd5b60006116ae8261160c565b9050919050565b6116be816116a3565b81146116c957600080fd5b50565b6000813590506116db816116b5565b92915050565b6000602082840312156116f7576116f661169e565b5b6000611705848285016116cc565b91505092915050565b6000819050919050565b6117218161170e565b82525050565b600060208201905061173c6000830184611718565b92915050565b61174b816116a3565b82525050565b60006020820190506117666000830184611742565b92915050565b600082825260208201905092915050565b7f41756374696f6e2068617320656e646564000000000000000000000000000000600082015250565b60006117b360118361176c565b91506117be8261177d565b602082019050919050565b600060208201905081810360008301526117e2816117a6565b9050919050565b7f53656c6c65722063616e6e6f7420626964206f6e207468656972206f776e206160008201527f756374696f6e0000000000000000000000000000000000000000000000000000602082015250565b600061184560268361176c565b9150611850826117e9565b604082019050919050565b6000602082019050818103600083015261187481611838565b9050919050565b7f426964206d7573742062652067726561746572207468616e206f72206571756160008201527f6c20746f207374617274696e6720707269636500000000000000000000000000602082015250565b60006118d760338361176c565b91506118e28261187b565b604082019050919050565b60006020820190508181036000830152611906816118ca565b9050919050565b7f42696464657220697320616c7265616479206869676865737420626964646572600082015250565b600061194360208361176c565b915061194e8261190d565b602082019050919050565b6000602082019050818103600083015261197281611936565b9050919050565b600081905092915050565b50565b6000611994600083611979565b915061199f82611984565b600082019050919050565b60006119b582611987565b9150819050919050565b7f4661696c656420746f20726566756e642070726576696f757320626964000000600082015250565b60006119f5601d8361176c565b9150611a00826119bf565b602082019050919050565b60006020820190508181036000830152611a24816119e8565b9050919050565b7f426964206d7573742062652067726561746572207468616e2063757272656e7460008201527f2068696768657374206269640000000000000000000000000000000000000000602082015250565b6000611a87602c8361176c565b9150611a9282611a2b565b604082019050919050565b60006020820190508181036000830152611ab681611a7a565b9050919050565b7f4e487b7100000000000000000000000000000000000000000000000000000000600052601160045260246000fd5b6000611af78261170e565b9150611b028361170e565b9250828201905080821115611b1a57611b19611abd565b5b92915050565b6000606082019050611b356000830186611742565b611b426020830185611718565b611b4f6040830184611742565b949350505050565b7f557365722063616e206f6e6c792077697468647261772066756e64732061667460008201527f65722061756374696f6e2068617320656e646564000000000000000000000000602082015250565b6000611bb360348361176c565b9150611bbe82611b57565b604082019050919050565b60006020820190508181036000830152611be281611ba6565b9050919050565b7f686967686573744269646465722063616e6e6f7420776974686472617720667560008201527f6e64730000000000000000000000000000000000000000000000000000000000602082015250565b6000611c4560238361176c565b9150611c5082611be9565b604082019050919050565b60006020820190508181036000830152611c7481611c38565b9050919050565b7f41756374696f6e20686173206e6f7420656e6465642079657400000000000000600082015250565b6000611cb160198361176c565b9150611cbc82611c7b565b602082019050919050565b60006020820190508181036000830152611ce081611ca4565b9050919050565b7f43616e6e6f7420656e642061756374696f6e206966206e6f742073656c6c657260008201527f206f7220696620656e642074696d6520686173206e6f74206265656e2072656160208201527f6368656400000000000000000000000000000000000000000000000000000000604082015250565b6000611d6960448361176c565b9150611d7482611ce7565b606082019050919050565b60006020820190508181036000830152611d9881611d5c565b9050919050565b611da88161170e565b8114611db357600080fd5b50565b600081519050611dc581611d9f565b92915050565b611dd48161162c565b8114611ddf57600080fd5b50565b600081519050611df181611dcb565b92915050565b60008060408385031215611e0e57611e0d61169e565b5b6000611e1c85828601611db6565b9250506020611e2d85828601611de2565b9150509250929050565b6000611e428261170e565b9150611e4d8361170e565b9250828202611e5b8161170e565b91508282048414831517611e7257611e71611abd565b5b5092915050565b7f4e487b7100000000000000000000000000000000000000000000000000000000600052601260045260246000fd5b6000611eb38261170e565b9150611ebe8361170e565b925082611ece57611ecd611e79565b5b828204905092915050565b6000611ee48261170e565b9150611eef8361170e565b9250828203905081811115611f0757611f06611abd565b5b92915050565b7f4661696c656420746f2073656e6420457468657220746f207468652073656c6c60008201527f6572000000000000000000000000000000000000000000000000000000000000602082015250565b6000611f6960228361176c565b9150611f7482611f0d565b604082019050919050565b60006020820190508181036000830152611f9881611f5c565b9050919050565b7f4661696c656420746f2073656e6420726f79616c7469657320746f206f72696760008201527f696e616c206f776e657200000000000000000000000000000000000000000000602082015250565b6000611ffb602a8361176c565b915061200682611f9f565b604082019050919050565b6000602082019050818103600083015261202a81611fee565b9050919050565b7f4661696c656420746f2073656e64206665657320746f206d61726b6574706c6160008201527f636520636f6e7472616374000000000000000000000000000000000000000000602082015250565b600061208d602b8361176c565b915061209882612031565b604082019050919050565b600060208201905081810360008301526120bc81612080565b9050919050565b7f4661696c656420746f2073656e6420726566756e6420746f207468652070656e60008201527f756c74696d617465206269646465720000000000000000000000000000000000602082015250565b600061211f602f8361176c565b915061212a826120c3565b604082019050919050565b6000602082019050818103600083015261214e81612112565b9050919050565b6000819050919050565b600061217a6121756121708461160c565b612155565b61160c565b9050919050565b600061218c8261215f565b9050919050565b600061219e82612181565b9050919050565b6121ae81612193565b82525050565b60006040820190506121c96000830185611718565b6121d660208301846121a5565b9392505050565b600060a0820190506121f26000830188611718565b6121ff60208301876121a5565b61220c60408301866121a5565b6122196060830185611742565b6122266080830184611718565b9695505050505050565b7f5265656e7472616e637947756172643a207265656e7472616e742063616c6c00600082015250565b6000612266601f8361176c565b915061227182612230565b602082019050919050565b6000602082019050818103600083015261229581612259565b905091905056fea26469706673582212202bd1cfb7bd844d1b754aafcabb04f7b7995623e5d3da5852105f81fd34c57f6964736f6c63430008130033",
  "linkReferences": {},
  "deployedLinkReferences": {}
}