{
  "_format": "hh-sol-artifact-1",
  "contractName": "Auction",
  "sourceName": "contracts/Auction.sol",
  "abi": [
    {
      "inputs": [
        {
          "internalType": "uint256",
          "name": "_nftId",
          "type": "uint256"
        },
        {
          "internalType": "uint256",
          "name": "_startingPrice",
          "type": "uint256"
        },
        {
          "internalType": "address",
          "name": "_seller",
          "type": "address"
        },
        {
          "internalType": "address",
          "name": "_marketplaceAddress",
          "type": "address"
        },
        {
          "internalType": "address",
          "name": "_auctionFactoryAddress",
          "type": "address"
        }
      ],
      "stateMutability": "nonpayable",
      "type": "constructor"
    },
    {
      "anonymous": false,
      "inputs": [
        {
          "indexed": false,
          "internalType": "uint256",
          "name": "nftId",
          "type": "uint256"
        },
        {
          "indexed": false,
          "internalType": "address",
          "name": "highestBidder",
          "type": "address"
        },
        {
          "indexed": false,
          "internalType": "address",
          "name": "seller",
          "type": "address"
        },
        {
          "indexed": false,
          "internalType": "address",
          "name": "nullAddress",
          "type": "address"
        },
        {
          "indexed": false,
          "internalType": "uint256",
          "name": "highestBid",
          "type": "uint256"
        }
      ],
      "name": "AuctionEnded",
      "type": "event"
    },
    {
      "anonymous": false,
      "inputs": [
        {
          "indexed": false,
          "internalType": "address",
          "name": "bidder",
          "type": "address"
        },
        {
          "indexed": false,
          "internalType": "uint256",
          "name": "bidAmount",
          "type": "uint256"
        },
        {
          "indexed": false,
          "internalType": "address",
          "name": "auctionAddress",
          "type": "address"
        }
      ],
      "name": "Bid",
      "type": "event"
    },
    {
      "inputs": [],
      "name": "bid",
      "outputs": [],
      "stateMutability": "payable",
      "type": "function"
    },
    {
      "inputs": [
        {
          "internalType": "uint256",
          "name": "tokenId",
          "type": "uint256"
        }
      ],
      "name": "endAuction",
      "outputs": [],
      "stateMutability": "nonpayable",
      "type": "function"
    },
    {
      "inputs": [],
      "name": "getHighestBidder",
      "outputs": [
        {
          "internalType": "address",
          "name": "",
          "type": "address"
        }
      ],
      "stateMutability": "view",
      "type": "function"
    },
    {
      "inputs": [],
      "name": "highestBid",
      "outputs": [
        {
          "internalType": "uint256",
          "name": "",
          "type": "uint256"
        }
      ],
      "stateMutability": "view",
      "type": "function"
    },
    {
      "inputs": [],
      "name": "highestBidder",
      "outputs": [
        {
          "internalType": "address payable",
          "name": "",
          "type": "address"
        }
      ],
      "stateMutability": "view",
      "type": "function"
    },
    {
      "inputs": [],
      "name": "marketplaceAddress",
      "outputs": [
        {
          "internalType": "address",
          "name": "",
          "type": "address"
        }
      ],
      "stateMutability": "view",
      "type": "function"
    },
    {
      "inputs": [],
      "name": "nftId",
      "outputs": [
        {
          "internalType": "uint256",
          "name": "",
          "type": "uint256"
        }
      ],
      "stateMutability": "view",
      "type": "function"
    },
    {
      "inputs": [
        {
          "internalType": "address",
          "name": "",
          "type": "address"
        }
      ],
      "name": "pendingReturns",
      "outputs": [
        {
          "internalType": "uint256",
          "name": "",
          "type": "uint256"
        }
      ],
      "stateMutability": "view",
      "type": "function"
    },
    {
      "inputs": [],
      "name": "penultimateBidder",
      "outputs": [
        {
          "internalType": "address payable",
          "name": "",
          "type": "address"
        }
      ],
      "stateMutability": "view",
      "type": "function"
    },
    {
      "inputs": [],
      "name": "seller",
      "outputs": [
        {
          "internalType": "address payable",
          "name": "",
          "type": "address"
        }
      ],
      "stateMutability": "view",
      "type": "function"
    },
    {
      "inputs": [],
      "name": "startingPrice",
      "outputs": [
        {
          "internalType": "uint256",
          "name": "",
          "type": "uint256"
        }
      ],
      "stateMutability": "view",
      "type": "function"
    },
    {
      "inputs": [],
      "name": "withdraw",
      "outputs": [
        {
          "internalType": "bool",
          "name": "",
          "type": "bool"
        }
      ],
      "stateMutability": "nonpayable",
      "type": "function"
    }
  ],
  "bytecode": "0x60806040523480156200001157600080fd5b506040516200230738038062002307833981810160405281019062000037919062000223565b600160008190555081600260006101000a81548173ffffffffffffffffffffffffffffffffffffffff021916908373ffffffffffffffffffffffffffffffffffffffff160217905550600260009054906101000a900473ffffffffffffffffffffffffffffffffffffffff16600360006101000a81548173ffffffffffffffffffffffffffffffffffffffff021916908373ffffffffffffffffffffffffffffffffffffffff16021790555080600460006101000a81548173ffffffffffffffffffffffffffffffffffffffff021916908373ffffffffffffffffffffffffffffffffffffffff1602179055508460018190555082600560006101000a81548173ffffffffffffffffffffffffffffffffffffffff021916908373ffffffffffffffffffffffffffffffffffffffff160217905550836006819055505050505050620002ab565b600080fd5b6000819050919050565b620001988162000183565b8114620001a457600080fd5b50565b600081519050620001b8816200018d565b92915050565b600073ffffffffffffffffffffffffffffffffffffffff82169050919050565b6000620001eb82620001be565b9050919050565b620001fd81620001de565b81146200020957600080fd5b50565b6000815190506200021d81620001f2565b92915050565b600080600080600060a086880312156200024257620002416200017e565b5b60006200025288828901620001a7565b95505060206200026588828901620001a7565b945050604062000278888289016200020c565b93505060606200028b888289016200020c565b92505060806200029e888289016200020c565b9150509295509295909350565b61204c80620002bb6000396000f3fe6080604052600436106100a65760003560e01c806391f901571161006457806391f901571461019e578063b9a2de3a146101c9578063c6bc5182146101f2578063d57bde791461021d578063d6fbf20214610248578063daa17f4914610273576100a6565b80623495a4146100ab57806308551a53146100d657806310a4fb5f146101015780631998aeef1461012c57806326b387bb146101365780633ccfd60b14610173575b600080fd5b3480156100b757600080fd5b506100c061029e565b6040516100cd9190611483565b60405180910390f35b3480156100e257600080fd5b506100eb6102c8565b6040516100f891906114bf565b60405180910390f35b34801561010d57600080fd5b506101166102ee565b60405161012391906114bf565b60405180910390f35b610134610314565b005b34801561014257600080fd5b5061015d6004803603810190610158919061150b565b6107b1565b60405161016a9190611551565b60405180910390f35b34801561017f57600080fd5b506101886107c9565b6040516101959190611587565b60405180910390f35b3480156101aa57600080fd5b506101b3610a0e565b6040516101c091906114bf565b60405180910390f35b3480156101d557600080fd5b506101f060048036038101906101eb91906115ce565b610a34565b005b3480156101fe57600080fd5b506102076113b1565b6040516102149190611551565b60405180910390f35b34801561022957600080fd5b506102326113b7565b60405161023f9190611551565b60405180910390f35b34801561025457600080fd5b5061025d6113bd565b60405161026a9190611551565b60405180910390f35b34801561027f57600080fd5b506102886113c3565b6040516102959190611483565b60405180910390f35b6000600760009054906101000a900473ffffffffffffffffffffffffffffffffffffffff16905090565b600560009054906101000a900473ffffffffffffffffffffffffffffffffffffffff1681565b600860009054906101000a900473ffffffffffffffffffffffffffffffffffffffff1681565b61031c6113e9565b3373ffffffffffffffffffffffffffffffffffffffff16600560009054906101000a900473ffffffffffffffffffffffffffffffffffffffff1673ffffffffffffffffffffffffffffffffffffffff16036103ac576040517f08c379a00000000000000000000000000000000000000000000000000000000081526004016103a39061167e565b60405180910390fd5b6006543410156103f1576040517f08c379a00000000000000000000000000000000000000000000000000000000081526004016103e890611710565b60405180910390fd5b3373ffffffffffffffffffffffffffffffffffffffff16600760009054906101000a900473ffffffffffffffffffffffffffffffffffffffff1673ffffffffffffffffffffffffffffffffffffffff1603610481576040517f08c379a00000000000000000000000000000000000000000000000000000000081526004016104789061177c565b60405180910390fd5b600760009054906101000a900473ffffffffffffffffffffffffffffffffffffffff16600860006101000a81548173ffffffffffffffffffffffffffffffffffffffff021916908373ffffffffffffffffffffffffffffffffffffffff1602179055506000600b60003373ffffffffffffffffffffffffffffffffffffffff1673ffffffffffffffffffffffffffffffffffffffff1681526020019081526020016000205490506000811115610624576000600b60003373ffffffffffffffffffffffffffffffffffffffff1673ffffffffffffffffffffffffffffffffffffffff1681526020019081526020016000208190555060003373ffffffffffffffffffffffffffffffffffffffff168260405161059c906117cd565b60006040518083038185875af1925050503d80600081146105d9576040519150601f19603f3d011682016040523d82523d6000602084013e6105de565b606091505b5050905080610622576040517f08c379a00000000000000000000000000000000000000000000000000000000081526004016106199061182e565b60405180910390fd5b505b6009543411610668576040517f08c379a000000000000000000000000000000000000000000000000000000000815260040161065f906118c0565b60405180910390fd5b6000600760009054906101000a900473ffffffffffffffffffffffffffffffffffffffff169050600060095490503460098190555033600760006101000a81548173ffffffffffffffffffffffffffffffffffffffff021916908373ffffffffffffffffffffffffffffffffffffffff160217905550600073ffffffffffffffffffffffffffffffffffffffff168273ffffffffffffffffffffffffffffffffffffffff16146107695780600b60008473ffffffffffffffffffffffffffffffffffffffff1673ffffffffffffffffffffffffffffffffffffffff1681526020019081526020016000206000828254610761919061190f565b925050819055505b7f13692bed0518bbe01c8a2b50a32f14d0d4abaa43dce4da7af1814182ee64431733343060405161079c93929190611943565b60405180910390a15050506107af611438565b565b600b6020528060005260406000206000915090505481565b600060011515600a60009054906101000a900460ff16151514610821576040517f08c379a0000000000000000000000000000000000000000000000000000000008152600401610818906119ec565b60405180910390fd5b600760009054906101000a900473ffffffffffffffffffffffffffffffffffffffff1673ffffffffffffffffffffffffffffffffffffffff163373ffffffffffffffffffffffffffffffffffffffff16036108b1576040517f08c379a00000000000000000000000000000000000000000000000000000000081526004016108a890611a7e565b60405180910390fd5b6000600b60003373ffffffffffffffffffffffffffffffffffffffff1673ffffffffffffffffffffffffffffffffffffffff1681526020019081526020016000205490506000811115610a05576000600b60003373ffffffffffffffffffffffffffffffffffffffff1673ffffffffffffffffffffffffffffffffffffffff1681526020019081526020016000208190555060003373ffffffffffffffffffffffffffffffffffffffff1682604051610969906117cd565b60006040518083038185875af1925050503d80600081146109a6576040519150601f19603f3d011682016040523d82523d6000602084013e6109ab565b606091505b5050905080610a035781600b60003373ffffffffffffffffffffffffffffffffffffffff1673ffffffffffffffffffffffffffffffffffffffff16815260200190815260200160002081905550600092505050610a0b565b505b60019150505b90565b600760009054906101000a900473ffffffffffffffffffffffffffffffffffffffff1681565b610a3c6113e9565b600560009054906101000a900473ffffffffffffffffffffffffffffffffffffffff1673ffffffffffffffffffffffffffffffffffffffff163373ffffffffffffffffffffffffffffffffffffffff161480610ae55750600260009054906101000a900473ffffffffffffffffffffffffffffffffffffffff1673ffffffffffffffffffffffffffffffffffffffff163373ffffffffffffffffffffffffffffffffffffffff16145b610b24576040517f08c379a0000000000000000000000000000000000000000000000000000000008152600401610b1b90611b10565b60405180910390fd5b600080600360009054906101000a900473ffffffffffffffffffffffffffffffffffffffff1673ffffffffffffffffffffffffffffffffffffffff1663a65ff74c846040518263ffffffff1660e01b8152600401610b829190611551565b6040805180830381865afa158015610b9e573d6000803e3d6000fd5b505050506040513d601f19601f82011682018060405250810190610bc29190611b71565b91509150600073ffffffffffffffffffffffffffffffffffffffff16600760009054906101000a900473ffffffffffffffffffffffffffffffffffffffff1673ffffffffffffffffffffffffffffffffffffffff161461126a576000606483600954610c2e9190611bb1565b610c389190611c22565b9050600060646002600954610c4d9190611bb1565b610c579190611c22565b905060008183600954610c6a9190611c53565b610c749190611c53565b90506000600560009054906101000a900473ffffffffffffffffffffffffffffffffffffffff1673ffffffffffffffffffffffffffffffffffffffff1682604051610cbe906117cd565b60006040518083038185875af1925050503d8060008114610cfb576040519150601f19603f3d011682016040523d82523d6000602084013e610d00565b606091505b5050905080610d44576040517f08c379a0000000000000000000000000000000000000000000000000000000008152600401610d3b90611cf9565b60405180910390fd5b60008573ffffffffffffffffffffffffffffffffffffffff1685604051610d6a906117cd565b60006040518083038185875af1925050503d8060008114610da7576040519150601f19603f3d011682016040523d82523d6000602084013e610dac565b606091505b5050905080610df0576040517f08c379a0000000000000000000000000000000000000000000000000000000008152600401610de790611d8b565b60405180910390fd5b6000600260009054906101000a900473ffffffffffffffffffffffffffffffffffffffff1673ffffffffffffffffffffffffffffffffffffffff1685604051610e38906117cd565b60006040518083038185875af1925050503d8060008114610e75576040519150601f19603f3d011682016040523d82523d6000602084013e610e7a565b606091505b5050905080610ebe576040517f08c379a0000000000000000000000000000000000000000000000000000000008152600401610eb590611e1d565b60405180910390fd5b600073ffffffffffffffffffffffffffffffffffffffff16600860009054906101000a900473ffffffffffffffffffffffffffffffffffffffff1673ffffffffffffffffffffffffffffffffffffffff1614158015610f7e57506000600b6000600860009054906101000a900473ffffffffffffffffffffffffffffffffffffffff1673ffffffffffffffffffffffffffffffffffffffff1673ffffffffffffffffffffffffffffffffffffffff16815260200190815260200160002054115b15611121576000600b6000600860009054906101000a900473ffffffffffffffffffffffffffffffffffffffff1673ffffffffffffffffffffffffffffffffffffffff1673ffffffffffffffffffffffffffffffffffffffff1681526020019081526020016000205490506000600b6000600860009054906101000a900473ffffffffffffffffffffffffffffffffffffffff1673ffffffffffffffffffffffffffffffffffffffff1673ffffffffffffffffffffffffffffffffffffffff168152602001908152602001600020819055506000600860009054906101000a900473ffffffffffffffffffffffffffffffffffffffff1673ffffffffffffffffffffffffffffffffffffffff1682604051611098906117cd565b60006040518083038185875af1925050503d80600081146110d5576040519150601f19603f3d011682016040523d82523d6000602084013e6110da565b606091505b505090508061111e576040517f08c379a000000000000000000000000000000000000000000000000000000000815260040161111590611eaf565b60405180910390fd5b50505b600360009054906101000a900473ffffffffffffffffffffffffffffffffffffffff1673ffffffffffffffffffffffffffffffffffffffff16638f329b318a600760009054906101000a900473ffffffffffffffffffffffffffffffffffffffff166040518363ffffffff1660e01b81526004016111a0929190611f2e565b600060405180830381600087803b1580156111ba57600080fd5b505af11580156111ce573d6000803e3d6000fd5b50505050600460009054906101000a900473ffffffffffffffffffffffffffffffffffffffff1673ffffffffffffffffffffffffffffffffffffffff1663a75654d98a6040518263ffffffff1660e01b815260040161122d9190611551565b600060405180830381600087803b15801561124757600080fd5b505af115801561125b573d6000803e3d6000fd5b5050505050505050505061131c565b600360009054906101000a900473ffffffffffffffffffffffffffffffffffffffff1673ffffffffffffffffffffffffffffffffffffffff16638f329b3184600560009054906101000a900473ffffffffffffffffffffffffffffffffffffffff166040518363ffffffff1660e01b81526004016112e9929190611f2e565b600060405180830381600087803b15801561130357600080fd5b505af1158015611317573d6000803e3d6000fd5b505050505b7f19f5e73c484e5274d91de54225d8a1330339f61b5f27dbe05c47ff361b8dd3c1600154600760009054906101000a900473ffffffffffffffffffffffffffffffffffffffff16600560009054906101000a900473ffffffffffffffffffffffffffffffffffffffff16600060095460405161139c959493929190611f57565b60405180910390a150506113ae611438565b50565b60015481565b60095481565b60065481565b600260009054906101000a900473ffffffffffffffffffffffffffffffffffffffff1681565b60026000540361142e576040517f08c379a000000000000000000000000000000000000000000000000000000000815260040161142590611ff6565b60405180910390fd5b6002600081905550565b6001600081905550565b600073ffffffffffffffffffffffffffffffffffffffff82169050919050565b600061146d82611442565b9050919050565b61147d81611462565b82525050565b60006020820190506114986000830184611474565b92915050565b60006114a982611442565b9050919050565b6114b98161149e565b82525050565b60006020820190506114d460008301846114b0565b92915050565b600080fd5b6114e881611462565b81146114f357600080fd5b50565b600081359050611505816114df565b92915050565b600060208284031215611521576115206114da565b5b600061152f848285016114f6565b91505092915050565b6000819050919050565b61154b81611538565b82525050565b60006020820190506115666000830184611542565b92915050565b60008115159050919050565b6115818161156c565b82525050565b600060208201905061159c6000830184611578565b92915050565b6115ab81611538565b81146115b657600080fd5b50565b6000813590506115c8816115a2565b92915050565b6000602082840312156115e4576115e36114da565b5b60006115f2848285016115b9565b91505092915050565b600082825260208201905092915050565b7f53656c6c65722063616e6e6f7420626964206f6e207468656972206f776e206160008201527f756374696f6e0000000000000000000000000000000000000000000000000000602082015250565b60006116686026836115fb565b91506116738261160c565b604082019050919050565b600060208201905081810360008301526116978161165b565b9050919050565b7f426964206d7573742062652067726561746572207468616e206f72206571756160008201527f6c20746f207374617274696e6720707269636500000000000000000000000000602082015250565b60006116fa6033836115fb565b91506117058261169e565b604082019050919050565b60006020820190508181036000830152611729816116ed565b9050919050565b7f42696464657220697320616c7265616479206869676865737420626964646572600082015250565b60006117666020836115fb565b915061177182611730565b602082019050919050565b6000602082019050818103600083015261179581611759565b9050919050565b600081905092915050565b50565b60006117b760008361179c565b91506117c2826117a7565b600082019050919050565b60006117d8826117aa565b9150819050919050565b7f4661696c656420746f20726566756e642070726576696f757320626964000000600082015250565b6000611818601d836115fb565b9150611823826117e2565b602082019050919050565b600060208201905081810360008301526118478161180b565b9050919050565b7f426964206d7573742062652067726561746572207468616e2063757272656e7460008201527f2068696768657374206269640000000000000000000000000000000000000000602082015250565b60006118aa602c836115fb565b91506118b58261184e565b604082019050919050565b600060208201905081810360008301526118d98161189d565b9050919050565b7f4e487b7100000000000000000000000000000000000000000000000000000000600052601160045260246000fd5b600061191a82611538565b915061192583611538565b925082820190508082111561193d5761193c6118e0565b5b92915050565b60006060820190506119586000830186611474565b6119656020830185611542565b6119726040830184611474565b949350505050565b7f557365722063616e206f6e6c792077697468647261772066756e64732061667460008201527f65722061756374696f6e2068617320656e646564000000000000000000000000602082015250565b60006119d66034836115fb565b91506119e18261197a565b604082019050919050565b60006020820190508181036000830152611a05816119c9565b9050919050565b7f686967686573744269646465722063616e6e6f7420776974686472617720667560008201527f6e64730000000000000000000000000000000000000000000000000000000000602082015250565b6000611a686023836115fb565b9150611a7382611a0c565b604082019050919050565b60006020820190508181036000830152611a9781611a5b565b9050919050565b7f4f6e6c79204e4654206f776e6572206f72206d61726b6574706c61636520636160008201527f6e20656e642061756374696f6e00000000000000000000000000000000000000602082015250565b6000611afa602d836115fb565b9150611b0582611a9e565b604082019050919050565b60006020820190508181036000830152611b2981611aed565b9050919050565b600081519050611b3f816115a2565b92915050565b611b4e8161149e565b8114611b5957600080fd5b50565b600081519050611b6b81611b45565b92915050565b60008060408385031215611b8857611b876114da565b5b6000611b9685828601611b30565b9250506020611ba785828601611b5c565b9150509250929050565b6000611bbc82611538565b9150611bc783611538565b9250828202611bd581611538565b91508282048414831517611bec57611beb6118e0565b5b5092915050565b7f4e487b7100000000000000000000000000000000000000000000000000000000600052601260045260246000fd5b6000611c2d82611538565b9150611c3883611538565b925082611c4857611c47611bf3565b5b828204905092915050565b6000611c5e82611538565b9150611c6983611538565b9250828203905081811115611c8157611c806118e0565b5b92915050565b7f4661696c656420746f2073656e6420457468657220746f207468652073656c6c60008201527f6572000000000000000000000000000000000000000000000000000000000000602082015250565b6000611ce36022836115fb565b9150611cee82611c87565b604082019050919050565b60006020820190508181036000830152611d1281611cd6565b9050919050565b7f4661696c656420746f2073656e6420726f79616c7469657320746f206f72696760008201527f696e616c206f776e657200000000000000000000000000000000000000000000602082015250565b6000611d75602a836115fb565b9150611d8082611d19565b604082019050919050565b60006020820190508181036000830152611da481611d68565b9050919050565b7f4661696c656420746f2073656e64206665657320746f206d61726b6574706c6160008201527f636520636f6e7472616374000000000000000000000000000000000000000000602082015250565b6000611e07602b836115fb565b9150611e1282611dab565b604082019050919050565b60006020820190508181036000830152611e3681611dfa565b9050919050565b7f4661696c656420746f2073656e6420726566756e6420746f207468652070656e60008201527f756c74696d617465206269646465720000000000000000000000000000000000602082015250565b6000611e99602f836115fb565b9150611ea482611e3d565b604082019050919050565b60006020820190508181036000830152611ec881611e8c565b9050919050565b6000819050919050565b6000611ef4611eef611eea84611442565b611ecf565b611442565b9050919050565b6000611f0682611ed9565b9050919050565b6000611f1882611efb565b9050919050565b611f2881611f0d565b82525050565b6000604082019050611f436000830185611542565b611f506020830184611f1f565b9392505050565b600060a082019050611f6c6000830188611542565b611f796020830187611f1f565b611f866040830186611f1f565b611f936060830185611474565b611fa06080830184611542565b9695505050505050565b7f5265656e7472616e637947756172643a207265656e7472616e742063616c6c00600082015250565b6000611fe0601f836115fb565b9150611feb82611faa565b602082019050919050565b6000602082019050818103600083015261200f81611fd3565b905091905056fea2646970667358221220cddeba06c06250087a4cc04380469d238767cb075a03dcacdd6e95a75db87c7264736f6c63430008130033",
  "linkReferences": {},
  "deployedLinkReferences": {}
}