{
  "_format": "hh-sol-artifact-1",
  "contractName": "Auction",
  "sourceName": "contracts/Auction.sol",
  "abi": [
    {
      "inputs": [
        {
          "internalType": "uint256",
          "name": "_nftId",
          "type": "uint256"
        },
        {
          "internalType": "uint256",
          "name": "_startingPrice",
          "type": "uint256"
        },
        {
          "internalType": "address",
          "name": "_seller",
          "type": "address"
        },
        {
          "internalType": "address",
          "name": "_marketplaceAddress",
          "type": "address"
        },
        {
          "internalType": "address",
          "name": "_auctionFactoryAddress",
          "type": "address"
        }
      ],
      "stateMutability": "nonpayable",
      "type": "constructor"
    },
    {
      "anonymous": false,
      "inputs": [
        {
          "indexed": false,
          "internalType": "address",
          "name": "auctionAddress",
          "type": "address"
        }
      ],
      "name": "AuctionCreated",
      "type": "event"
    },
    {
      "anonymous": false,
      "inputs": [
        {
          "indexed": false,
          "internalType": "uint256",
          "name": "nftId",
          "type": "uint256"
        },
        {
          "indexed": false,
          "internalType": "address",
          "name": "highestBidder",
          "type": "address"
        },
        {
          "indexed": false,
          "internalType": "address",
          "name": "seller",
          "type": "address"
        },
        {
          "indexed": false,
          "internalType": "address",
          "name": "nullAddress",
          "type": "address"
        },
        {
          "indexed": false,
          "internalType": "uint256",
          "name": "highestBid",
          "type": "uint256"
        }
      ],
      "name": "AuctionEnded",
      "type": "event"
    },
    {
      "anonymous": false,
      "inputs": [
        {
          "indexed": false,
          "internalType": "address",
          "name": "bidder",
          "type": "address"
        },
        {
          "indexed": false,
          "internalType": "uint256",
          "name": "bidAmount",
          "type": "uint256"
        },
        {
          "indexed": false,
          "internalType": "address",
          "name": "auctionAddress",
          "type": "address"
        }
      ],
      "name": "Bid",
      "type": "event"
    },
    {
      "inputs": [],
      "name": "bid",
      "outputs": [],
      "stateMutability": "payable",
      "type": "function"
    },
    {
      "inputs": [
        {
          "internalType": "uint256",
          "name": "tokenId",
          "type": "uint256"
        }
      ],
      "name": "endAuction",
      "outputs": [],
      "stateMutability": "nonpayable",
      "type": "function"
    },
    {
      "inputs": [],
      "name": "getHighestBidder",
      "outputs": [
        {
          "internalType": "address",
          "name": "",
          "type": "address"
        }
      ],
      "stateMutability": "view",
      "type": "function"
    },
    {
      "inputs": [
        {
          "internalType": "address",
          "name": "",
          "type": "address"
        }
      ],
      "name": "pendingReturns",
      "outputs": [
        {
          "internalType": "uint256",
          "name": "",
          "type": "uint256"
        }
      ],
      "stateMutability": "view",
      "type": "function"
    },
    {
      "inputs": [],
      "name": "withdraw",
      "outputs": [
        {
          "internalType": "bool",
          "name": "",
          "type": "bool"
        }
      ],
      "stateMutability": "nonpayable",
      "type": "function"
    }
  ],
  "bytecode": "0x60806040523480156200001157600080fd5b50604051620021103803806200211083398181016040528101906200003791906200025c565b600160008190555081600260006101000a81548173ffffffffffffffffffffffffffffffffffffffff021916908373ffffffffffffffffffffffffffffffffffffffff160217905550600260009054906101000a900473ffffffffffffffffffffffffffffffffffffffff16600360006101000a81548173ffffffffffffffffffffffffffffffffffffffff021916908373ffffffffffffffffffffffffffffffffffffffff16021790555080600460006101000a81548173ffffffffffffffffffffffffffffffffffffffff021916908373ffffffffffffffffffffffffffffffffffffffff1602179055508460018190555082600560006101000a81548173ffffffffffffffffffffffffffffffffffffffff021916908373ffffffffffffffffffffffffffffffffffffffff160217905550836006819055507f8a8cc462d00726e0f8c031dd2d6b9dcdf0794fb27a88579830dadee27d43ea7c30604051620001a49190620002f5565b60405180910390a1505050505062000312565b600080fd5b6000819050919050565b620001d181620001bc565b8114620001dd57600080fd5b50565b600081519050620001f181620001c6565b92915050565b600073ffffffffffffffffffffffffffffffffffffffff82169050919050565b60006200022482620001f7565b9050919050565b620002368162000217565b81146200024257600080fd5b50565b60008151905062000256816200022b565b92915050565b600080600080600060a086880312156200027b576200027a620001b7565b5b60006200028b88828901620001e0565b95505060206200029e88828901620001e0565b9450506040620002b18882890162000245565b9350506060620002c48882890162000245565b9250506080620002d78882890162000245565b9150509295509295909350565b620002ef8162000217565b82525050565b60006020820190506200030c6000830184620002e4565b92915050565b611dee80620003226000396000f3fe6080604052600436106100495760003560e01c80623495a41461004e5780631998aeef1461007957806326b387bb146100835780633ccfd60b146100c0578063b9a2de3a146100eb575b600080fd5b34801561005a57600080fd5b50610063610114565b604051610070919061124f565b60405180910390f35b61008161013e565b005b34801561008f57600080fd5b506100aa60048036038101906100a5919061129b565b6105db565b6040516100b791906112e1565b60405180910390f35b3480156100cc57600080fd5b506100d56105f3565b6040516100e29190611317565b60405180910390f35b3480156100f757600080fd5b50610112600480360381019061010d919061135e565b610838565b005b6000600760009054906101000a900473ffffffffffffffffffffffffffffffffffffffff16905090565b6101466111b5565b3373ffffffffffffffffffffffffffffffffffffffff16600560009054906101000a900473ffffffffffffffffffffffffffffffffffffffff1673ffffffffffffffffffffffffffffffffffffffff16036101d6576040517f08c379a00000000000000000000000000000000000000000000000000000000081526004016101cd9061140e565b60405180910390fd5b60065434101561021b576040517f08c379a0000000000000000000000000000000000000000000000000000000008152600401610212906114a0565b60405180910390fd5b3373ffffffffffffffffffffffffffffffffffffffff16600760009054906101000a900473ffffffffffffffffffffffffffffffffffffffff1673ffffffffffffffffffffffffffffffffffffffff16036102ab576040517f08c379a00000000000000000000000000000000000000000000000000000000081526004016102a29061150c565b60405180910390fd5b600760009054906101000a900473ffffffffffffffffffffffffffffffffffffffff16600860006101000a81548173ffffffffffffffffffffffffffffffffffffffff021916908373ffffffffffffffffffffffffffffffffffffffff1602179055506000600b60003373ffffffffffffffffffffffffffffffffffffffff1673ffffffffffffffffffffffffffffffffffffffff168152602001908152602001600020549050600081111561044e576000600b60003373ffffffffffffffffffffffffffffffffffffffff1673ffffffffffffffffffffffffffffffffffffffff1681526020019081526020016000208190555060003373ffffffffffffffffffffffffffffffffffffffff16826040516103c69061155d565b60006040518083038185875af1925050503d8060008114610403576040519150601f19603f3d011682016040523d82523d6000602084013e610408565b606091505b505090508061044c576040517f08c379a0000000000000000000000000000000000000000000000000000000008152600401610443906115be565b60405180910390fd5b505b6009543411610492576040517f08c379a000000000000000000000000000000000000000000000000000000000815260040161048990611650565b60405180910390fd5b6000600760009054906101000a900473ffffffffffffffffffffffffffffffffffffffff169050600060095490503460098190555033600760006101000a81548173ffffffffffffffffffffffffffffffffffffffff021916908373ffffffffffffffffffffffffffffffffffffffff160217905550600073ffffffffffffffffffffffffffffffffffffffff168273ffffffffffffffffffffffffffffffffffffffff16146105935780600b60008473ffffffffffffffffffffffffffffffffffffffff1673ffffffffffffffffffffffffffffffffffffffff168152602001908152602001600020600082825461058b919061169f565b925050819055505b7f13692bed0518bbe01c8a2b50a32f14d0d4abaa43dce4da7af1814182ee6443173334306040516105c6939291906116d3565b60405180910390a15050506105d9611204565b565b600b6020528060005260406000206000915090505481565b600060011515600a60009054906101000a900460ff1615151461064b576040517f08c379a00000000000000000000000000000000000000000000000000000000081526004016106429061177c565b60405180910390fd5b600760009054906101000a900473ffffffffffffffffffffffffffffffffffffffff1673ffffffffffffffffffffffffffffffffffffffff163373ffffffffffffffffffffffffffffffffffffffff16036106db576040517f08c379a00000000000000000000000000000000000000000000000000000000081526004016106d29061180e565b60405180910390fd5b6000600b60003373ffffffffffffffffffffffffffffffffffffffff1673ffffffffffffffffffffffffffffffffffffffff168152602001908152602001600020549050600081111561082f576000600b60003373ffffffffffffffffffffffffffffffffffffffff1673ffffffffffffffffffffffffffffffffffffffff1681526020019081526020016000208190555060003373ffffffffffffffffffffffffffffffffffffffff16826040516107939061155d565b60006040518083038185875af1925050503d80600081146107d0576040519150601f19603f3d011682016040523d82523d6000602084013e6107d5565b606091505b505090508061082d5781600b60003373ffffffffffffffffffffffffffffffffffffffff1673ffffffffffffffffffffffffffffffffffffffff16815260200190815260200160002081905550600092505050610835565b505b60019150505b90565b6108406111b5565b600560009054906101000a900473ffffffffffffffffffffffffffffffffffffffff1673ffffffffffffffffffffffffffffffffffffffff163373ffffffffffffffffffffffffffffffffffffffff1614806108e95750600260009054906101000a900473ffffffffffffffffffffffffffffffffffffffff1673ffffffffffffffffffffffffffffffffffffffff163373ffffffffffffffffffffffffffffffffffffffff16145b610928576040517f08c379a000000000000000000000000000000000000000000000000000000000815260040161091f906118a0565b60405180910390fd5b600080600360009054906101000a900473ffffffffffffffffffffffffffffffffffffffff1673ffffffffffffffffffffffffffffffffffffffff1663a65ff74c846040518263ffffffff1660e01b815260040161098691906112e1565b6040805180830381865afa1580156109a2573d6000803e3d6000fd5b505050506040513d601f19601f820116820180604052508101906109c69190611913565b91509150600073ffffffffffffffffffffffffffffffffffffffff16600760009054906101000a900473ffffffffffffffffffffffffffffffffffffffff1673ffffffffffffffffffffffffffffffffffffffff161461106e576000606483600954610a329190611953565b610a3c91906119c4565b9050600060646002600954610a519190611953565b610a5b91906119c4565b905060008183600954610a6e91906119f5565b610a7891906119f5565b90506000600560009054906101000a900473ffffffffffffffffffffffffffffffffffffffff1673ffffffffffffffffffffffffffffffffffffffff1682604051610ac29061155d565b60006040518083038185875af1925050503d8060008114610aff576040519150601f19603f3d011682016040523d82523d6000602084013e610b04565b606091505b5050905080610b48576040517f08c379a0000000000000000000000000000000000000000000000000000000008152600401610b3f90611a9b565b60405180910390fd5b60008573ffffffffffffffffffffffffffffffffffffffff1685604051610b6e9061155d565b60006040518083038185875af1925050503d8060008114610bab576040519150601f19603f3d011682016040523d82523d6000602084013e610bb0565b606091505b5050905080610bf4576040517f08c379a0000000000000000000000000000000000000000000000000000000008152600401610beb90611b2d565b60405180910390fd5b6000600260009054906101000a900473ffffffffffffffffffffffffffffffffffffffff1673ffffffffffffffffffffffffffffffffffffffff1685604051610c3c9061155d565b60006040518083038185875af1925050503d8060008114610c79576040519150601f19603f3d011682016040523d82523d6000602084013e610c7e565b606091505b5050905080610cc2576040517f08c379a0000000000000000000000000000000000000000000000000000000008152600401610cb990611bbf565b60405180910390fd5b600073ffffffffffffffffffffffffffffffffffffffff16600860009054906101000a900473ffffffffffffffffffffffffffffffffffffffff1673ffffffffffffffffffffffffffffffffffffffff1614158015610d8257506000600b6000600860009054906101000a900473ffffffffffffffffffffffffffffffffffffffff1673ffffffffffffffffffffffffffffffffffffffff1673ffffffffffffffffffffffffffffffffffffffff16815260200190815260200160002054115b15610f25576000600b6000600860009054906101000a900473ffffffffffffffffffffffffffffffffffffffff1673ffffffffffffffffffffffffffffffffffffffff1673ffffffffffffffffffffffffffffffffffffffff1681526020019081526020016000205490506000600b6000600860009054906101000a900473ffffffffffffffffffffffffffffffffffffffff1673ffffffffffffffffffffffffffffffffffffffff1673ffffffffffffffffffffffffffffffffffffffff168152602001908152602001600020819055506000600860009054906101000a900473ffffffffffffffffffffffffffffffffffffffff1673ffffffffffffffffffffffffffffffffffffffff1682604051610e9c9061155d565b60006040518083038185875af1925050503d8060008114610ed9576040519150601f19603f3d011682016040523d82523d6000602084013e610ede565b606091505b5050905080610f22576040517f08c379a0000000000000000000000000000000000000000000000000000000008152600401610f1990611c51565b60405180910390fd5b50505b600360009054906101000a900473ffffffffffffffffffffffffffffffffffffffff1673ffffffffffffffffffffffffffffffffffffffff16638f329b318a600760009054906101000a900473ffffffffffffffffffffffffffffffffffffffff166040518363ffffffff1660e01b8152600401610fa4929190611cd0565b600060405180830381600087803b158015610fbe57600080fd5b505af1158015610fd2573d6000803e3d6000fd5b50505050600460009054906101000a900473ffffffffffffffffffffffffffffffffffffffff1673ffffffffffffffffffffffffffffffffffffffff1663a75654d98a6040518263ffffffff1660e01b815260040161103191906112e1565b600060405180830381600087803b15801561104b57600080fd5b505af115801561105f573d6000803e3d6000fd5b50505050505050505050611120565b600360009054906101000a900473ffffffffffffffffffffffffffffffffffffffff1673ffffffffffffffffffffffffffffffffffffffff16638f329b3184600560009054906101000a900473ffffffffffffffffffffffffffffffffffffffff166040518363ffffffff1660e01b81526004016110ed929190611cd0565b600060405180830381600087803b15801561110757600080fd5b505af115801561111b573d6000803e3d6000fd5b505050505b7f19f5e73c484e5274d91de54225d8a1330339f61b5f27dbe05c47ff361b8dd3c1600154600760009054906101000a900473ffffffffffffffffffffffffffffffffffffffff16600560009054906101000a900473ffffffffffffffffffffffffffffffffffffffff1660006009546040516111a0959493929190611cf9565b60405180910390a150506111b2611204565b50565b6002600054036111fa576040517f08c379a00000000000000000000000000000000000000000000000000000000081526004016111f190611d98565b60405180910390fd5b6002600081905550565b6001600081905550565b600073ffffffffffffffffffffffffffffffffffffffff82169050919050565b60006112398261120e565b9050919050565b6112498161122e565b82525050565b60006020820190506112646000830184611240565b92915050565b600080fd5b6112788161122e565b811461128357600080fd5b50565b6000813590506112958161126f565b92915050565b6000602082840312156112b1576112b061126a565b5b60006112bf84828501611286565b91505092915050565b6000819050919050565b6112db816112c8565b82525050565b60006020820190506112f660008301846112d2565b92915050565b60008115159050919050565b611311816112fc565b82525050565b600060208201905061132c6000830184611308565b92915050565b61133b816112c8565b811461134657600080fd5b50565b60008135905061135881611332565b92915050565b6000602082840312156113745761137361126a565b5b600061138284828501611349565b91505092915050565b600082825260208201905092915050565b7f53656c6c65722063616e6e6f7420626964206f6e207468656972206f776e206160008201527f756374696f6e0000000000000000000000000000000000000000000000000000602082015250565b60006113f860268361138b565b91506114038261139c565b604082019050919050565b60006020820190508181036000830152611427816113eb565b9050919050565b7f426964206d7573742062652067726561746572207468616e206f72206571756160008201527f6c20746f207374617274696e6720707269636500000000000000000000000000602082015250565b600061148a60338361138b565b91506114958261142e565b604082019050919050565b600060208201905081810360008301526114b98161147d565b9050919050565b7f42696464657220697320616c7265616479206869676865737420626964646572600082015250565b60006114f660208361138b565b9150611501826114c0565b602082019050919050565b60006020820190508181036000830152611525816114e9565b9050919050565b600081905092915050565b50565b600061154760008361152c565b915061155282611537565b600082019050919050565b60006115688261153a565b9150819050919050565b7f4661696c656420746f20726566756e642070726576696f757320626964000000600082015250565b60006115a8601d8361138b565b91506115b382611572565b602082019050919050565b600060208201905081810360008301526115d78161159b565b9050919050565b7f426964206d7573742062652067726561746572207468616e2063757272656e7460008201527f2068696768657374206269640000000000000000000000000000000000000000602082015250565b600061163a602c8361138b565b9150611645826115de565b604082019050919050565b600060208201905081810360008301526116698161162d565b9050919050565b7f4e487b7100000000000000000000000000000000000000000000000000000000600052601160045260246000fd5b60006116aa826112c8565b91506116b5836112c8565b92508282019050808211156116cd576116cc611670565b5b92915050565b60006060820190506116e86000830186611240565b6116f560208301856112d2565b6117026040830184611240565b949350505050565b7f557365722063616e206f6e6c792077697468647261772066756e64732061667460008201527f65722061756374696f6e2068617320656e646564000000000000000000000000602082015250565b600061176660348361138b565b91506117718261170a565b604082019050919050565b6000602082019050818103600083015261179581611759565b9050919050565b7f686967686573744269646465722063616e6e6f7420776974686472617720667560008201527f6e64730000000000000000000000000000000000000000000000000000000000602082015250565b60006117f860238361138b565b91506118038261179c565b604082019050919050565b60006020820190508181036000830152611827816117eb565b9050919050565b7f4f6e6c79204e4654206f776e6572206f72206d61726b6574706c61636520636160008201527f6e20656e642061756374696f6e00000000000000000000000000000000000000602082015250565b600061188a602d8361138b565b91506118958261182e565b604082019050919050565b600060208201905081810360008301526118b98161187d565b9050919050565b6000815190506118cf81611332565b92915050565b60006118e08261120e565b9050919050565b6118f0816118d5565b81146118fb57600080fd5b50565b60008151905061190d816118e7565b92915050565b6000806040838503121561192a5761192961126a565b5b6000611938858286016118c0565b9250506020611949858286016118fe565b9150509250929050565b600061195e826112c8565b9150611969836112c8565b9250828202611977816112c8565b9150828204841483151761198e5761198d611670565b5b5092915050565b7f4e487b7100000000000000000000000000000000000000000000000000000000600052601260045260246000fd5b60006119cf826112c8565b91506119da836112c8565b9250826119ea576119e9611995565b5b828204905092915050565b6000611a00826112c8565b9150611a0b836112c8565b9250828203905081811115611a2357611a22611670565b5b92915050565b7f4661696c656420746f2073656e6420457468657220746f207468652073656c6c60008201527f6572000000000000000000000000000000000000000000000000000000000000602082015250565b6000611a8560228361138b565b9150611a9082611a29565b604082019050919050565b60006020820190508181036000830152611ab481611a78565b9050919050565b7f4661696c656420746f2073656e6420726f79616c7469657320746f206f72696760008201527f696e616c206f776e657200000000000000000000000000000000000000000000602082015250565b6000611b17602a8361138b565b9150611b2282611abb565b604082019050919050565b60006020820190508181036000830152611b4681611b0a565b9050919050565b7f4661696c656420746f2073656e64206665657320746f206d61726b6574706c6160008201527f636520636f6e7472616374000000000000000000000000000000000000000000602082015250565b6000611ba9602b8361138b565b9150611bb482611b4d565b604082019050919050565b60006020820190508181036000830152611bd881611b9c565b9050919050565b7f4661696c656420746f2073656e6420726566756e6420746f207468652070656e60008201527f756c74696d617465206269646465720000000000000000000000000000000000602082015250565b6000611c3b602f8361138b565b9150611c4682611bdf565b604082019050919050565b60006020820190508181036000830152611c6a81611c2e565b9050919050565b6000819050919050565b6000611c96611c91611c8c8461120e565b611c71565b61120e565b9050919050565b6000611ca882611c7b565b9050919050565b6000611cba82611c9d565b9050919050565b611cca81611caf565b82525050565b6000604082019050611ce560008301856112d2565b611cf26020830184611cc1565b9392505050565b600060a082019050611d0e60008301886112d2565b611d1b6020830187611cc1565b611d286040830186611cc1565b611d356060830185611240565b611d4260808301846112d2565b9695505050505050565b7f5265656e7472616e637947756172643a207265656e7472616e742063616c6c00600082015250565b6000611d82601f8361138b565b9150611d8d82611d4c565b602082019050919050565b60006020820190508181036000830152611db181611d75565b905091905056fea2646970667358221220145a82b3578825789007ae9074dd668c6506559594ad569758b9a4a5d45d71f064736f6c63430008130033",
  "linkReferences": {},
  "deployedLinkReferences": {}
}