{
  "_format": "hh-sol-artifact-1",
  "contractName": "Auction",
  "sourceName": "contracts/Auction.sol",
  "abi": [
    {
      "inputs": [
        {
          "internalType": "uint256",
          "name": "_nftId",
          "type": "uint256"
        },
        {
          "internalType": "uint256",
          "name": "_startingPrice",
          "type": "uint256"
        },
        {
          "internalType": "address",
          "name": "_seller",
          "type": "address"
        },
        {
          "internalType": "address",
          "name": "_marketplaceAddress",
          "type": "address"
        },
        {
          "internalType": "address",
          "name": "_auctionFactoryAddress",
          "type": "address"
        }
      ],
      "stateMutability": "nonpayable",
      "type": "constructor"
    },
    {
      "anonymous": false,
      "inputs": [
        {
          "indexed": false,
          "internalType": "address",
          "name": "auctionAddress",
          "type": "address"
        },
        {
          "indexed": false,
          "internalType": "uint256",
          "name": "timestamp",
          "type": "uint256"
        },
        {
          "indexed": false,
          "internalType": "uint256",
          "name": "nftId",
          "type": "uint256"
        },
        {
          "indexed": false,
          "internalType": "address",
          "name": "seller",
          "type": "address"
        },
        {
          "indexed": false,
          "internalType": "uint256",
          "name": "startingPrice",
          "type": "uint256"
        },
        {
          "indexed": false,
          "internalType": "uint256",
          "name": "highestBid",
          "type": "uint256"
        }
      ],
      "name": "AuctionEnded",
      "type": "event"
    },
    {
      "anonymous": false,
      "inputs": [
        {
          "indexed": false,
          "internalType": "address",
          "name": "bidder",
          "type": "address"
        },
        {
          "indexed": false,
          "internalType": "uint256",
          "name": "bidAmount",
          "type": "uint256"
        },
        {
          "indexed": false,
          "internalType": "address",
          "name": "auctionAddress",
          "type": "address"
        }
      ],
      "name": "Bid",
      "type": "event"
    },
    {
      "inputs": [],
      "name": "bid",
      "outputs": [],
      "stateMutability": "payable",
      "type": "function"
    },
    {
      "inputs": [
        {
          "internalType": "uint256",
          "name": "tokenId",
          "type": "uint256"
        }
      ],
      "name": "endAuction",
      "outputs": [],
      "stateMutability": "nonpayable",
      "type": "function"
    },
    {
      "inputs": [
        {
          "internalType": "address",
          "name": "",
          "type": "address"
        }
      ],
      "name": "pendingReturns",
      "outputs": [
        {
          "internalType": "uint256",
          "name": "",
          "type": "uint256"
        }
      ],
      "stateMutability": "view",
      "type": "function"
    },
    {
      "inputs": [],
      "name": "withdraw",
      "outputs": [
        {
          "internalType": "bool",
          "name": "",
          "type": "bool"
        }
      ],
      "stateMutability": "nonpayable",
      "type": "function"
    }
  ],
  "bytecode": "0x60806040523480156200001157600080fd5b506040516200193838038062001938833981810160405281019062000037919062000223565b600160008190555081600260006101000a81548173ffffffffffffffffffffffffffffffffffffffff021916908373ffffffffffffffffffffffffffffffffffffffff160217905550600260009054906101000a900473ffffffffffffffffffffffffffffffffffffffff16600360006101000a81548173ffffffffffffffffffffffffffffffffffffffff021916908373ffffffffffffffffffffffffffffffffffffffff16021790555080600460006101000a81548173ffffffffffffffffffffffffffffffffffffffff021916908373ffffffffffffffffffffffffffffffffffffffff1602179055508460018190555082600560006101000a81548173ffffffffffffffffffffffffffffffffffffffff021916908373ffffffffffffffffffffffffffffffffffffffff160217905550836006819055505050505050620002ab565b600080fd5b6000819050919050565b620001988162000183565b8114620001a457600080fd5b50565b600081519050620001b8816200018d565b92915050565b600073ffffffffffffffffffffffffffffffffffffffff82169050919050565b6000620001eb82620001be565b9050919050565b620001fd81620001de565b81146200020957600080fd5b50565b6000815190506200021d81620001f2565b92915050565b600080600080600060a086880312156200024257620002416200017e565b5b60006200025288828901620001a7565b95505060206200026588828901620001a7565b945050604062000278888289016200020c565b93505060606200028b888289016200020c565b92505060806200029e888289016200020c565b9150509295509295909350565b61167d80620002bb6000396000f3fe60806040526004361061003f5760003560e01c80631998aeef1461004457806326b387bb1461004e5780633ccfd60b1461008b578063b9a2de3a146100b6575b600080fd5b61004c6100df565b005b34801561005a57600080fd5b5061007560048036038101906100709190610cc3565b6103a2565b6040516100829190610d09565b60405180910390f35b34801561009757600080fd5b506100a06103ba565b6040516100ad9190610d3f565b60405180910390f35b3480156100c257600080fd5b506100dd60048036038101906100d89190610d86565b61056f565b005b6100e7610c07565b3373ffffffffffffffffffffffffffffffffffffffff16600560009054906101000a900473ffffffffffffffffffffffffffffffffffffffff1673ffffffffffffffffffffffffffffffffffffffff1603610177576040517f08c379a000000000000000000000000000000000000000000000000000000000815260040161016e90610e36565b60405180910390fd5b6006543410156101bc576040517f08c379a00000000000000000000000000000000000000000000000000000000081526004016101b390610ec8565b60405180910390fd5b6008543411610200576040517f08c379a00000000000000000000000000000000000000000000000000000000081526004016101f790610f5a565b60405180910390fd5b3373ffffffffffffffffffffffffffffffffffffffff16600760009054906101000a900473ffffffffffffffffffffffffffffffffffffffff1673ffffffffffffffffffffffffffffffffffffffff1603610290576040517f08c379a000000000000000000000000000000000000000000000000000000000815260040161028790610fc6565b60405180910390fd5b60006008541461031557600854600a6000600760009054906101000a900473ffffffffffffffffffffffffffffffffffffffff1673ffffffffffffffffffffffffffffffffffffffff1673ffffffffffffffffffffffffffffffffffffffff168152602001908152602001600020600082825461030d9190611015565b925050819055505b3460088190555033600760006101000a81548173ffffffffffffffffffffffffffffffffffffffff021916908373ffffffffffffffffffffffffffffffffffffffff1602179055507f13692bed0518bbe01c8a2b50a32f14d0d4abaa43dce4da7af1814182ee64431733343060405161039093929190611058565b60405180910390a16103a0610c56565b565b600a6020528060005260406000206000915090505481565b600060011515600960009054906101000a900460ff16151514610412576040517f08c379a000000000000000000000000000000000000000000000000000000000815260040161040990611101565b60405180910390fd5b6000600a60003373ffffffffffffffffffffffffffffffffffffffff1673ffffffffffffffffffffffffffffffffffffffff1681526020019081526020016000205490506000811115610566576000600a60003373ffffffffffffffffffffffffffffffffffffffff1673ffffffffffffffffffffffffffffffffffffffff1681526020019081526020016000208190555060003373ffffffffffffffffffffffffffffffffffffffff16826040516104ca90611152565b60006040518083038185875af1925050503d8060008114610507576040519150601f19603f3d011682016040523d82523d6000602084013e61050c565b606091505b50509050806105645781600a60003373ffffffffffffffffffffffffffffffffffffffff1673ffffffffffffffffffffffffffffffffffffffff1681526020019081526020016000208190555060009250505061056c565b505b60019150505b90565b610577610c07565b600560009054906101000a900473ffffffffffffffffffffffffffffffffffffffff1673ffffffffffffffffffffffffffffffffffffffff163373ffffffffffffffffffffffffffffffffffffffff1614610607576040517f08c379a00000000000000000000000000000000000000000000000000000000081526004016105fe906111b3565b60405180910390fd5b600080600360009054906101000a900473ffffffffffffffffffffffffffffffffffffffff1673ffffffffffffffffffffffffffffffffffffffff1663a65ff74c846040518263ffffffff1660e01b81526004016106659190610d09565b6040805180830381865afa158015610681573d6000803e3d6000fd5b505050506040513d601f19601f820116820180604052508101906106a59190611226565b91509150600073ffffffffffffffffffffffffffffffffffffffff16600760009054906101000a900473ffffffffffffffffffffffffffffffffffffffff1673ffffffffffffffffffffffffffffffffffffffff1614610adf5760006064836008546107119190611266565b61071b91906112d7565b905060008160085461072d9190611308565b90506000606460026008546107429190611266565b61074c91906112d7565b90506000600560009054906101000a900473ffffffffffffffffffffffffffffffffffffffff1673ffffffffffffffffffffffffffffffffffffffff168360405161079690611152565b60006040518083038185875af1925050503d80600081146107d3576040519150601f19603f3d011682016040523d82523d6000602084013e6107d8565b606091505b505090508061081c576040517f08c379a0000000000000000000000000000000000000000000000000000000008152600401610813906113ae565b60405180910390fd5b60008573ffffffffffffffffffffffffffffffffffffffff168560405161084290611152565b60006040518083038185875af1925050503d806000811461087f576040519150601f19603f3d011682016040523d82523d6000602084013e610884565b606091505b50509050806108c8576040517f08c379a00000000000000000000000000000000000000000000000000000000081526004016108bf90611440565b60405180910390fd5b6000600260009054906101000a900473ffffffffffffffffffffffffffffffffffffffff1673ffffffffffffffffffffffffffffffffffffffff168460405161091090611152565b60006040518083038185875af1925050503d806000811461094d576040519150601f19603f3d011682016040523d82523d6000602084013e610952565b606091505b5050905080610996576040517f08c379a000000000000000000000000000000000000000000000000000000000815260040161098d906114d2565b60405180910390fd5b600360009054906101000a900473ffffffffffffffffffffffffffffffffffffffff1673ffffffffffffffffffffffffffffffffffffffff16638f329b318a600760009054906101000a900473ffffffffffffffffffffffffffffffffffffffff166040518363ffffffff1660e01b8152600401610a15929190611551565b600060405180830381600087803b158015610a2f57600080fd5b505af1158015610a43573d6000803e3d6000fd5b50505050600460009054906101000a900473ffffffffffffffffffffffffffffffffffffffff1673ffffffffffffffffffffffffffffffffffffffff1663a75654d98a6040518263ffffffff1660e01b8152600401610aa29190610d09565b600060405180830381600087803b158015610abc57600080fd5b505af1158015610ad0573d6000803e3d6000fd5b50505050505050505050610b91565b600360009054906101000a900473ffffffffffffffffffffffffffffffffffffffff1673ffffffffffffffffffffffffffffffffffffffff16638f329b3184600560009054906101000a900473ffffffffffffffffffffffffffffffffffffffff166040518363ffffffff1660e01b8152600401610b5e929190611551565b600060405180830381600087803b158015610b7857600080fd5b505af1158015610b8c573d6000803e3d6000fd5b505050505b7f93de927ed018f9abbaa00feee71bdae41a752a7b21d3390a039807f8a6870e943042600154600560009054906101000a900473ffffffffffffffffffffffffffffffffffffffff16600654600854604051610bf29695949392919061157a565b60405180910390a15050610c04610c56565b50565b600260005403610c4c576040517f08c379a0000000000000000000000000000000000000000000000000000000008152600401610c4390611627565b60405180910390fd5b6002600081905550565b6001600081905550565b600080fd5b600073ffffffffffffffffffffffffffffffffffffffff82169050919050565b6000610c9082610c65565b9050919050565b610ca081610c85565b8114610cab57600080fd5b50565b600081359050610cbd81610c97565b92915050565b600060208284031215610cd957610cd8610c60565b5b6000610ce784828501610cae565b91505092915050565b6000819050919050565b610d0381610cf0565b82525050565b6000602082019050610d1e6000830184610cfa565b92915050565b60008115159050919050565b610d3981610d24565b82525050565b6000602082019050610d546000830184610d30565b92915050565b610d6381610cf0565b8114610d6e57600080fd5b50565b600081359050610d8081610d5a565b92915050565b600060208284031215610d9c57610d9b610c60565b5b6000610daa84828501610d71565b91505092915050565b600082825260208201905092915050565b7f53656c6c65722063616e6e6f7420626964206f6e207468656972206f776e206160008201527f756374696f6e0000000000000000000000000000000000000000000000000000602082015250565b6000610e20602683610db3565b9150610e2b82610dc4565b604082019050919050565b60006020820190508181036000830152610e4f81610e13565b9050919050565b7f426964206d7573742062652067726561746572207468616e206f72206571756160008201527f6c20746f207374617274696e6720707269636500000000000000000000000000602082015250565b6000610eb2603383610db3565b9150610ebd82610e56565b604082019050919050565b60006020820190508181036000830152610ee181610ea5565b9050919050565b7f426964206d7573742062652067726561746572207468616e2063757272656e7460008201527f2068696768657374206269640000000000000000000000000000000000000000602082015250565b6000610f44602c83610db3565b9150610f4f82610ee8565b604082019050919050565b60006020820190508181036000830152610f7381610f37565b9050919050565b7f42696464657220697320616c7265616479206869676865737420626964646572600082015250565b6000610fb0602083610db3565b9150610fbb82610f7a565b602082019050919050565b60006020820190508181036000830152610fdf81610fa3565b9050919050565b7f4e487b7100000000000000000000000000000000000000000000000000000000600052601160045260246000fd5b600061102082610cf0565b915061102b83610cf0565b925082820190508082111561104357611042610fe6565b5b92915050565b61105281610c85565b82525050565b600060608201905061106d6000830186611049565b61107a6020830185610cfa565b6110876040830184611049565b949350505050565b7f557365722063616e206f6e6c792077697468647261772066756e64732061667460008201527f65722061756374696f6e2068617320656e646564000000000000000000000000602082015250565b60006110eb603483610db3565b91506110f68261108f565b604082019050919050565b6000602082019050818103600083015261111a816110de565b9050919050565b600081905092915050565b50565b600061113c600083611121565b91506111478261112c565b600082019050919050565b600061115d8261112f565b9150819050919050565b7f4f6e6c79204e4654206f776e65722063616e20656e642061756374696f6e0000600082015250565b600061119d601e83610db3565b91506111a882611167565b602082019050919050565b600060208201905081810360008301526111cc81611190565b9050919050565b6000815190506111e281610d5a565b92915050565b60006111f382610c65565b9050919050565b611203816111e8565b811461120e57600080fd5b50565b600081519050611220816111fa565b92915050565b6000806040838503121561123d5761123c610c60565b5b600061124b858286016111d3565b925050602061125c85828601611211565b9150509250929050565b600061127182610cf0565b915061127c83610cf0565b925082820261128a81610cf0565b915082820484148315176112a1576112a0610fe6565b5b5092915050565b7f4e487b7100000000000000000000000000000000000000000000000000000000600052601260045260246000fd5b60006112e282610cf0565b91506112ed83610cf0565b9250826112fd576112fc6112a8565b5b828204905092915050565b600061131382610cf0565b915061131e83610cf0565b925082820390508181111561133657611335610fe6565b5b92915050565b7f4661696c656420746f2073656e6420457468657220746f207468652073656c6c60008201527f6572000000000000000000000000000000000000000000000000000000000000602082015250565b6000611398602283610db3565b91506113a38261133c565b604082019050919050565b600060208201905081810360008301526113c78161138b565b9050919050565b7f4661696c656420746f2073656e6420726f79616c7469657320746f206f72696760008201527f696e616c206f776e657200000000000000000000000000000000000000000000602082015250565b600061142a602a83610db3565b9150611435826113ce565b604082019050919050565b600060208201905081810360008301526114598161141d565b9050919050565b7f4661696c656420746f2073656e64206665657320746f206d61726b6574706c6160008201527f636520636f6e7472616374000000000000000000000000000000000000000000602082015250565b60006114bc602b83610db3565b91506114c782611460565b604082019050919050565b600060208201905081810360008301526114eb816114af565b9050919050565b6000819050919050565b600061151761151261150d84610c65565b6114f2565b610c65565b9050919050565b6000611529826114fc565b9050919050565b600061153b8261151e565b9050919050565b61154b81611530565b82525050565b60006040820190506115666000830185610cfa565b6115736020830184611542565b9392505050565b600060c08201905061158f6000830189611049565b61159c6020830188610cfa565b6115a96040830187610cfa565b6115b66060830186611542565b6115c36080830185610cfa565b6115d060a0830184610cfa565b979650505050505050565b7f5265656e7472616e637947756172643a207265656e7472616e742063616c6c00600082015250565b6000611611601f83610db3565b915061161c826115db565b602082019050919050565b6000602082019050818103600083015261164081611604565b905091905056fea264697066735822122020a611fa1dba6ec92db63d1cc417a4d9a0ab24a57df6052459f5d8eed8d3d47c64736f6c63430008130033",
  "linkReferences": {},
  "deployedLinkReferences": {}
}