{
  "_format": "hh-sol-artifact-1",
  "contractName": "Auction",
  "sourceName": "contracts/Auction.sol",
  "abi": [
    {
      "inputs": [
        {
          "internalType": "uint256",
          "name": "_nftId",
          "type": "uint256"
        },
        {
          "internalType": "uint256",
          "name": "_startingPrice",
          "type": "uint256"
        },
        {
          "internalType": "address",
          "name": "_seller",
          "type": "address"
        },
        {
          "internalType": "address",
          "name": "_marketplaceAddress",
          "type": "address"
        },
        {
          "internalType": "address",
          "name": "_auctionFactoryAddress",
          "type": "address"
        }
      ],
      "stateMutability": "nonpayable",
      "type": "constructor"
    },
    {
      "anonymous": false,
      "inputs": [
        {
          "indexed": false,
          "internalType": "uint256",
          "name": "nftId",
          "type": "uint256"
        },
        {
          "indexed": false,
          "internalType": "address",
          "name": "highestBidder",
          "type": "address"
        },
        {
          "indexed": false,
          "internalType": "address",
          "name": "seller",
          "type": "address"
        },
        {
          "indexed": false,
          "internalType": "address",
          "name": "nullAddress",
          "type": "address"
        },
        {
          "indexed": false,
          "internalType": "uint256",
          "name": "highestBid",
          "type": "uint256"
        }
      ],
      "name": "AuctionEnded",
      "type": "event"
    },
    {
      "anonymous": false,
      "inputs": [
        {
          "indexed": false,
          "internalType": "address",
          "name": "bidder",
          "type": "address"
        },
        {
          "indexed": false,
          "internalType": "uint256",
          "name": "bidAmount",
          "type": "uint256"
        },
        {
          "indexed": false,
          "internalType": "address",
          "name": "auctionAddress",
          "type": "address"
        }
      ],
      "name": "Bid",
      "type": "event"
    },
    {
      "inputs": [],
      "name": "bid",
      "outputs": [],
      "stateMutability": "payable",
      "type": "function"
    },
    {
      "inputs": [
        {
          "internalType": "uint256",
          "name": "tokenId",
          "type": "uint256"
        }
      ],
      "name": "endAuction",
      "outputs": [],
      "stateMutability": "nonpayable",
      "type": "function"
    },
    {
      "inputs": [],
      "name": "ended",
      "outputs": [
        {
          "internalType": "bool",
          "name": "",
          "type": "bool"
        }
      ],
      "stateMutability": "view",
      "type": "function"
    },
    {
      "inputs": [],
      "name": "getHighestBidder",
      "outputs": [
        {
          "internalType": "address",
          "name": "",
          "type": "address"
        }
      ],
      "stateMutability": "view",
      "type": "function"
    },
    {
      "inputs": [],
      "name": "highestBid",
      "outputs": [
        {
          "internalType": "uint256",
          "name": "",
          "type": "uint256"
        }
      ],
      "stateMutability": "view",
      "type": "function"
    },
    {
      "inputs": [],
      "name": "highestBidder",
      "outputs": [
        {
          "internalType": "address payable",
          "name": "",
          "type": "address"
        }
      ],
      "stateMutability": "view",
      "type": "function"
    },
    {
      "inputs": [],
      "name": "marketplaceAddress",
      "outputs": [
        {
          "internalType": "address",
          "name": "",
          "type": "address"
        }
      ],
      "stateMutability": "view",
      "type": "function"
    },
    {
      "inputs": [],
      "name": "nftId",
      "outputs": [
        {
          "internalType": "uint256",
          "name": "",
          "type": "uint256"
        }
      ],
      "stateMutability": "view",
      "type": "function"
    },
    {
      "inputs": [
        {
          "internalType": "address",
          "name": "",
          "type": "address"
        }
      ],
      "name": "pendingReturns",
      "outputs": [
        {
          "internalType": "uint256",
          "name": "",
          "type": "uint256"
        }
      ],
      "stateMutability": "view",
      "type": "function"
    },
    {
      "inputs": [],
      "name": "penultimateBidder",
      "outputs": [
        {
          "internalType": "address payable",
          "name": "",
          "type": "address"
        }
      ],
      "stateMutability": "view",
      "type": "function"
    },
    {
      "inputs": [],
      "name": "seller",
      "outputs": [
        {
          "internalType": "address payable",
          "name": "",
          "type": "address"
        }
      ],
      "stateMutability": "view",
      "type": "function"
    },
    {
      "inputs": [],
      "name": "startingPrice",
      "outputs": [
        {
          "internalType": "uint256",
          "name": "",
          "type": "uint256"
        }
      ],
      "stateMutability": "view",
      "type": "function"
    },
    {
      "inputs": [],
      "name": "withdraw",
      "outputs": [
        {
          "internalType": "bool",
          "name": "",
          "type": "bool"
        }
      ],
      "stateMutability": "nonpayable",
      "type": "function"
    }
  ],
  "bytecode": "0x60806040523480156200001157600080fd5b506040516200239638038062002396833981810160405281019062000037919062000223565b600160008190555081600260006101000a81548173ffffffffffffffffffffffffffffffffffffffff021916908373ffffffffffffffffffffffffffffffffffffffff160217905550600260009054906101000a900473ffffffffffffffffffffffffffffffffffffffff16600360006101000a81548173ffffffffffffffffffffffffffffffffffffffff021916908373ffffffffffffffffffffffffffffffffffffffff16021790555080600460006101000a81548173ffffffffffffffffffffffffffffffffffffffff021916908373ffffffffffffffffffffffffffffffffffffffff1602179055508460018190555082600560006101000a81548173ffffffffffffffffffffffffffffffffffffffff021916908373ffffffffffffffffffffffffffffffffffffffff160217905550836006819055505050505050620002ab565b600080fd5b6000819050919050565b620001988162000183565b8114620001a457600080fd5b50565b600081519050620001b8816200018d565b92915050565b600073ffffffffffffffffffffffffffffffffffffffff82169050919050565b6000620001eb82620001be565b9050919050565b620001fd81620001de565b81146200020957600080fd5b50565b6000815190506200021d81620001f2565b92915050565b600080600080600060a086880312156200024257620002416200017e565b5b60006200025288828901620001a7565b95505060206200026588828901620001a7565b945050604062000278888289016200020c565b93505060606200028b888289016200020c565b92505060806200029e888289016200020c565b9150509295509295909350565b6120db80620002bb6000396000f3fe6080604052600436106100c15760003560e01c80633ccfd60b1161007f578063c6bc518211610059578063c6bc518214610238578063d57bde7914610263578063d6fbf2021461028e578063daa17f49146102b9576100c1565b80633ccfd60b146101b957806391f90157146101e4578063b9a2de3a1461020f576100c1565b80623495a4146100c657806308551a53146100f157806310a4fb5f1461011c57806312fa6feb146101475780631998aeef1461017257806326b387bb1461017c575b600080fd5b3480156100d257600080fd5b506100db6102e4565b6040516100e89190611512565b60405180910390f35b3480156100fd57600080fd5b5061010661030e565b604051610113919061154e565b60405180910390f35b34801561012857600080fd5b50610131610334565b60405161013e919061154e565b60405180910390f35b34801561015357600080fd5b5061015c61035a565b6040516101699190611584565b60405180910390f35b61017a61036d565b005b34801561018857600080fd5b506101a3600480360381019061019e91906115d0565b61080a565b6040516101b09190611616565b60405180910390f35b3480156101c557600080fd5b506101ce610822565b6040516101db9190611584565b60405180910390f35b3480156101f057600080fd5b506101f9610a67565b604051610206919061154e565b60405180910390f35b34801561021b57600080fd5b506102366004803603810190610231919061165d565b610a8d565b005b34801561024457600080fd5b5061024d611440565b60405161025a9190611616565b60405180910390f35b34801561026f57600080fd5b50610278611446565b6040516102859190611616565b60405180910390f35b34801561029a57600080fd5b506102a361144c565b6040516102b09190611616565b60405180910390f35b3480156102c557600080fd5b506102ce611452565b6040516102db9190611512565b60405180910390f35b6000600760009054906101000a900473ffffffffffffffffffffffffffffffffffffffff16905090565b600560009054906101000a900473ffffffffffffffffffffffffffffffffffffffff1681565b600860009054906101000a900473ffffffffffffffffffffffffffffffffffffffff1681565b600a60009054906101000a900460ff1681565b610375611478565b3373ffffffffffffffffffffffffffffffffffffffff16600560009054906101000a900473ffffffffffffffffffffffffffffffffffffffff1673ffffffffffffffffffffffffffffffffffffffff1603610405576040517f08c379a00000000000000000000000000000000000000000000000000000000081526004016103fc9061170d565b60405180910390fd5b60065434101561044a576040517f08c379a00000000000000000000000000000000000000000000000000000000081526004016104419061179f565b60405180910390fd5b3373ffffffffffffffffffffffffffffffffffffffff16600760009054906101000a900473ffffffffffffffffffffffffffffffffffffffff1673ffffffffffffffffffffffffffffffffffffffff16036104da576040517f08c379a00000000000000000000000000000000000000000000000000000000081526004016104d19061180b565b60405180910390fd5b600760009054906101000a900473ffffffffffffffffffffffffffffffffffffffff16600860006101000a81548173ffffffffffffffffffffffffffffffffffffffff021916908373ffffffffffffffffffffffffffffffffffffffff1602179055506000600b60003373ffffffffffffffffffffffffffffffffffffffff1673ffffffffffffffffffffffffffffffffffffffff168152602001908152602001600020549050600081111561067d576000600b60003373ffffffffffffffffffffffffffffffffffffffff1673ffffffffffffffffffffffffffffffffffffffff1681526020019081526020016000208190555060003373ffffffffffffffffffffffffffffffffffffffff16826040516105f59061185c565b60006040518083038185875af1925050503d8060008114610632576040519150601f19603f3d011682016040523d82523d6000602084013e610637565b606091505b505090508061067b576040517f08c379a0000000000000000000000000000000000000000000000000000000008152600401610672906118bd565b60405180910390fd5b505b60095434116106c1576040517f08c379a00000000000000000000000000000000000000000000000000000000081526004016106b89061194f565b60405180910390fd5b6000600760009054906101000a900473ffffffffffffffffffffffffffffffffffffffff169050600060095490503460098190555033600760006101000a81548173ffffffffffffffffffffffffffffffffffffffff021916908373ffffffffffffffffffffffffffffffffffffffff160217905550600073ffffffffffffffffffffffffffffffffffffffff168273ffffffffffffffffffffffffffffffffffffffff16146107c25780600b60008473ffffffffffffffffffffffffffffffffffffffff1673ffffffffffffffffffffffffffffffffffffffff16815260200190815260200160002060008282546107ba919061199e565b925050819055505b7f13692bed0518bbe01c8a2b50a32f14d0d4abaa43dce4da7af1814182ee6443173334306040516107f5939291906119d2565b60405180910390a15050506108086114c7565b565b600b6020528060005260406000206000915090505481565b600060011515600a60009054906101000a900460ff1615151461087a576040517f08c379a000000000000000000000000000000000000000000000000000000000815260040161087190611a7b565b60405180910390fd5b600760009054906101000a900473ffffffffffffffffffffffffffffffffffffffff1673ffffffffffffffffffffffffffffffffffffffff163373ffffffffffffffffffffffffffffffffffffffff160361090a576040517f08c379a000000000000000000000000000000000000000000000000000000000815260040161090190611b0d565b60405180910390fd5b6000600b60003373ffffffffffffffffffffffffffffffffffffffff1673ffffffffffffffffffffffffffffffffffffffff1681526020019081526020016000205490506000811115610a5e576000600b60003373ffffffffffffffffffffffffffffffffffffffff1673ffffffffffffffffffffffffffffffffffffffff1681526020019081526020016000208190555060003373ffffffffffffffffffffffffffffffffffffffff16826040516109c29061185c565b60006040518083038185875af1925050503d80600081146109ff576040519150601f19603f3d011682016040523d82523d6000602084013e610a04565b606091505b5050905080610a5c5781600b60003373ffffffffffffffffffffffffffffffffffffffff1673ffffffffffffffffffffffffffffffffffffffff16815260200190815260200160002081905550600092505050610a64565b505b60019150505b90565b600760009054906101000a900473ffffffffffffffffffffffffffffffffffffffff1681565b610a95611478565b600560009054906101000a900473ffffffffffffffffffffffffffffffffffffffff1673ffffffffffffffffffffffffffffffffffffffff163373ffffffffffffffffffffffffffffffffffffffff161480610b3e5750600260009054906101000a900473ffffffffffffffffffffffffffffffffffffffff1673ffffffffffffffffffffffffffffffffffffffff163373ffffffffffffffffffffffffffffffffffffffff16145b610b7d576040517f08c379a0000000000000000000000000000000000000000000000000000000008152600401610b7490611b9f565b60405180910390fd5b600080600360009054906101000a900473ffffffffffffffffffffffffffffffffffffffff1673ffffffffffffffffffffffffffffffffffffffff1663a65ff74c846040518263ffffffff1660e01b8152600401610bdb9190611616565b6040805180830381865afa158015610bf7573d6000803e3d6000fd5b505050506040513d601f19601f82011682018060405250810190610c1b9190611c00565b91509150600073ffffffffffffffffffffffffffffffffffffffff16600760009054906101000a900473ffffffffffffffffffffffffffffffffffffffff1673ffffffffffffffffffffffffffffffffffffffff16146112de576000606483600954610c879190611c40565b610c919190611cb1565b9050600060646002600954610ca69190611c40565b610cb09190611cb1565b905060008183600954610cc39190611ce2565b610ccd9190611ce2565b90506000600560009054906101000a900473ffffffffffffffffffffffffffffffffffffffff1673ffffffffffffffffffffffffffffffffffffffff1682604051610d179061185c565b60006040518083038185875af1925050503d8060008114610d54576040519150601f19603f3d011682016040523d82523d6000602084013e610d59565b606091505b5050905080610d9d576040517f08c379a0000000000000000000000000000000000000000000000000000000008152600401610d9490611d88565b60405180910390fd5b60008573ffffffffffffffffffffffffffffffffffffffff1685604051610dc39061185c565b60006040518083038185875af1925050503d8060008114610e00576040519150601f19603f3d011682016040523d82523d6000602084013e610e05565b606091505b5050905080610e49576040517f08c379a0000000000000000000000000000000000000000000000000000000008152600401610e4090611e1a565b60405180910390fd5b6000600260009054906101000a900473ffffffffffffffffffffffffffffffffffffffff1673ffffffffffffffffffffffffffffffffffffffff1685604051610e919061185c565b60006040518083038185875af1925050503d8060008114610ece576040519150601f19603f3d011682016040523d82523d6000602084013e610ed3565b606091505b5050905080610f17576040517f08c379a0000000000000000000000000000000000000000000000000000000008152600401610f0e90611eac565b60405180910390fd5b600073ffffffffffffffffffffffffffffffffffffffff16600860009054906101000a900473ffffffffffffffffffffffffffffffffffffffff1673ffffffffffffffffffffffffffffffffffffffff1614158015610fd757506000600b6000600860009054906101000a900473ffffffffffffffffffffffffffffffffffffffff1673ffffffffffffffffffffffffffffffffffffffff1673ffffffffffffffffffffffffffffffffffffffff16815260200190815260200160002054115b1561117a576000600b6000600860009054906101000a900473ffffffffffffffffffffffffffffffffffffffff1673ffffffffffffffffffffffffffffffffffffffff1673ffffffffffffffffffffffffffffffffffffffff1681526020019081526020016000205490506000600b6000600860009054906101000a900473ffffffffffffffffffffffffffffffffffffffff1673ffffffffffffffffffffffffffffffffffffffff1673ffffffffffffffffffffffffffffffffffffffff168152602001908152602001600020819055506000600860009054906101000a900473ffffffffffffffffffffffffffffffffffffffff1673ffffffffffffffffffffffffffffffffffffffff16826040516110f19061185c565b60006040518083038185875af1925050503d806000811461112e576040519150601f19603f3d011682016040523d82523d6000602084013e611133565b606091505b5050905080611177576040517f08c379a000000000000000000000000000000000000000000000000000000000815260040161116e90611f3e565b60405180910390fd5b50505b600360009054906101000a900473ffffffffffffffffffffffffffffffffffffffff1673ffffffffffffffffffffffffffffffffffffffff16638f329b318a600760009054906101000a900473ffffffffffffffffffffffffffffffffffffffff166040518363ffffffff1660e01b81526004016111f9929190611fbd565b600060405180830381600087803b15801561121357600080fd5b505af1158015611227573d6000803e3d6000fd5b50505050600460009054906101000a900473ffffffffffffffffffffffffffffffffffffffff1673ffffffffffffffffffffffffffffffffffffffff1663a75654d98a6040518263ffffffff1660e01b81526004016112869190611616565b600060405180830381600087803b1580156112a057600080fd5b505af11580156112b4573d6000803e3d6000fd5b505050506001600a60006101000a81548160ff0219169083151502179055505050505050506113ab565b600360009054906101000a900473ffffffffffffffffffffffffffffffffffffffff1673ffffffffffffffffffffffffffffffffffffffff16638f329b3184600560009054906101000a900473ffffffffffffffffffffffffffffffffffffffff166040518363ffffffff1660e01b815260040161135d929190611fbd565b600060405180830381600087803b15801561137757600080fd5b505af115801561138b573d6000803e3d6000fd5b505050506001600a60006101000a81548160ff0219169083151502179055505b7f19f5e73c484e5274d91de54225d8a1330339f61b5f27dbe05c47ff361b8dd3c1600154600760009054906101000a900473ffffffffffffffffffffffffffffffffffffffff16600560009054906101000a900473ffffffffffffffffffffffffffffffffffffffff16600060095460405161142b959493929190611fe6565b60405180910390a1505061143d6114c7565b50565b60015481565b60095481565b60065481565b600260009054906101000a900473ffffffffffffffffffffffffffffffffffffffff1681565b6002600054036114bd576040517f08c379a00000000000000000000000000000000000000000000000000000000081526004016114b490612085565b60405180910390fd5b6002600081905550565b6001600081905550565b600073ffffffffffffffffffffffffffffffffffffffff82169050919050565b60006114fc826114d1565b9050919050565b61150c816114f1565b82525050565b60006020820190506115276000830184611503565b92915050565b6000611538826114d1565b9050919050565b6115488161152d565b82525050565b6000602082019050611563600083018461153f565b92915050565b60008115159050919050565b61157e81611569565b82525050565b60006020820190506115996000830184611575565b92915050565b600080fd5b6115ad816114f1565b81146115b857600080fd5b50565b6000813590506115ca816115a4565b92915050565b6000602082840312156115e6576115e561159f565b5b60006115f4848285016115bb565b91505092915050565b6000819050919050565b611610816115fd565b82525050565b600060208201905061162b6000830184611607565b92915050565b61163a816115fd565b811461164557600080fd5b50565b60008135905061165781611631565b92915050565b6000602082840312156116735761167261159f565b5b600061168184828501611648565b91505092915050565b600082825260208201905092915050565b7f53656c6c65722063616e6e6f7420626964206f6e207468656972206f776e206160008201527f756374696f6e0000000000000000000000000000000000000000000000000000602082015250565b60006116f760268361168a565b91506117028261169b565b604082019050919050565b60006020820190508181036000830152611726816116ea565b9050919050565b7f426964206d7573742062652067726561746572207468616e206f72206571756160008201527f6c20746f207374617274696e6720707269636500000000000000000000000000602082015250565b600061178960338361168a565b91506117948261172d565b604082019050919050565b600060208201905081810360008301526117b88161177c565b9050919050565b7f42696464657220697320616c7265616479206869676865737420626964646572600082015250565b60006117f560208361168a565b9150611800826117bf565b602082019050919050565b60006020820190508181036000830152611824816117e8565b9050919050565b600081905092915050565b50565b600061184660008361182b565b915061185182611836565b600082019050919050565b600061186782611839565b9150819050919050565b7f4661696c656420746f20726566756e642070726576696f757320626964000000600082015250565b60006118a7601d8361168a565b91506118b282611871565b602082019050919050565b600060208201905081810360008301526118d68161189a565b9050919050565b7f426964206d7573742062652067726561746572207468616e2063757272656e7460008201527f2068696768657374206269640000000000000000000000000000000000000000602082015250565b6000611939602c8361168a565b9150611944826118dd565b604082019050919050565b600060208201905081810360008301526119688161192c565b9050919050565b7f4e487b7100000000000000000000000000000000000000000000000000000000600052601160045260246000fd5b60006119a9826115fd565b91506119b4836115fd565b92508282019050808211156119cc576119cb61196f565b5b92915050565b60006060820190506119e76000830186611503565b6119f46020830185611607565b611a016040830184611503565b949350505050565b7f557365722063616e206f6e6c792077697468647261772066756e64732061667460008201527f65722061756374696f6e2068617320656e646564000000000000000000000000602082015250565b6000611a6560348361168a565b9150611a7082611a09565b604082019050919050565b60006020820190508181036000830152611a9481611a58565b9050919050565b7f686967686573744269646465722063616e6e6f7420776974686472617720667560008201527f6e64730000000000000000000000000000000000000000000000000000000000602082015250565b6000611af760238361168a565b9150611b0282611a9b565b604082019050919050565b60006020820190508181036000830152611b2681611aea565b9050919050565b7f4f6e6c79204e4654206f776e6572206f72206d61726b6574706c61636520636160008201527f6e20656e642061756374696f6e00000000000000000000000000000000000000602082015250565b6000611b89602d8361168a565b9150611b9482611b2d565b604082019050919050565b60006020820190508181036000830152611bb881611b7c565b9050919050565b600081519050611bce81611631565b92915050565b611bdd8161152d565b8114611be857600080fd5b50565b600081519050611bfa81611bd4565b92915050565b60008060408385031215611c1757611c1661159f565b5b6000611c2585828601611bbf565b9250506020611c3685828601611beb565b9150509250929050565b6000611c4b826115fd565b9150611c56836115fd565b9250828202611c64816115fd565b91508282048414831517611c7b57611c7a61196f565b5b5092915050565b7f4e487b7100000000000000000000000000000000000000000000000000000000600052601260045260246000fd5b6000611cbc826115fd565b9150611cc7836115fd565b925082611cd757611cd6611c82565b5b828204905092915050565b6000611ced826115fd565b9150611cf8836115fd565b9250828203905081811115611d1057611d0f61196f565b5b92915050565b7f4661696c656420746f2073656e6420457468657220746f207468652073656c6c60008201527f6572000000000000000000000000000000000000000000000000000000000000602082015250565b6000611d7260228361168a565b9150611d7d82611d16565b604082019050919050565b60006020820190508181036000830152611da181611d65565b9050919050565b7f4661696c656420746f2073656e6420726f79616c7469657320746f206f72696760008201527f696e616c206f776e657200000000000000000000000000000000000000000000602082015250565b6000611e04602a8361168a565b9150611e0f82611da8565b604082019050919050565b60006020820190508181036000830152611e3381611df7565b9050919050565b7f4661696c656420746f2073656e64206665657320746f206d61726b6574706c6160008201527f636520636f6e7472616374000000000000000000000000000000000000000000602082015250565b6000611e96602b8361168a565b9150611ea182611e3a565b604082019050919050565b60006020820190508181036000830152611ec581611e89565b9050919050565b7f4661696c656420746f2073656e6420726566756e6420746f207468652070656e60008201527f756c74696d617465206269646465720000000000000000000000000000000000602082015250565b6000611f28602f8361168a565b9150611f3382611ecc565b604082019050919050565b60006020820190508181036000830152611f5781611f1b565b9050919050565b6000819050919050565b6000611f83611f7e611f79846114d1565b611f5e565b6114d1565b9050919050565b6000611f9582611f68565b9050919050565b6000611fa782611f8a565b9050919050565b611fb781611f9c565b82525050565b6000604082019050611fd26000830185611607565b611fdf6020830184611fae565b9392505050565b600060a082019050611ffb6000830188611607565b6120086020830187611fae565b6120156040830186611fae565b6120226060830185611503565b61202f6080830184611607565b9695505050505050565b7f5265656e7472616e637947756172643a207265656e7472616e742063616c6c00600082015250565b600061206f601f8361168a565b915061207a82612039565b602082019050919050565b6000602082019050818103600083015261209e81612062565b905091905056fea2646970667358221220161bdff1ef889b9d8aaef544f42de0b30e2c4a945c03bd9a6c2b58d8bd1aea3e64736f6c63430008130033",
  "linkReferences": {},
  "deployedLinkReferences": {}
}