{
  "_format": "hh-sol-artifact-1",
  "contractName": "Auction",
  "sourceName": "contracts/Auction.sol",
  "abi": [
    {
      "inputs": [
        {
          "internalType": "uint256",
          "name": "_nftId",
          "type": "uint256"
        },
        {
          "internalType": "uint256",
          "name": "_startingPrice",
          "type": "uint256"
        },
        {
          "internalType": "uint256",
          "name": "auctionDuration",
          "type": "uint256"
        },
        {
          "internalType": "address",
          "name": "_seller",
          "type": "address"
        },
        {
          "internalType": "address",
          "name": "_marketplaceAddress",
          "type": "address"
        },
        {
          "internalType": "address",
          "name": "_auctionFactoryAddress",
          "type": "address"
        }
      ],
      "stateMutability": "nonpayable",
      "type": "constructor"
    },
    {
      "anonymous": false,
      "inputs": [
        {
          "indexed": false,
          "internalType": "uint256",
          "name": "nftId",
          "type": "uint256"
        },
        {
          "indexed": false,
          "internalType": "address",
          "name": "highestBidder",
          "type": "address"
        },
        {
          "indexed": false,
          "internalType": "address",
          "name": "seller",
          "type": "address"
        },
        {
          "indexed": false,
          "internalType": "address",
          "name": "nullAddress",
          "type": "address"
        },
        {
          "indexed": false,
          "internalType": "uint256",
          "name": "highestBid",
          "type": "uint256"
        }
      ],
      "name": "AuctionEnded",
      "type": "event"
    },
    {
      "anonymous": false,
      "inputs": [
        {
          "indexed": false,
          "internalType": "address",
          "name": "bidder",
          "type": "address"
        },
        {
          "indexed": false,
          "internalType": "uint256",
          "name": "bidAmount",
          "type": "uint256"
        },
        {
          "indexed": false,
          "internalType": "address",
          "name": "auctionAddress",
          "type": "address"
        }
      ],
      "name": "Bid",
      "type": "event"
    },
    {
      "inputs": [],
      "name": "auctionEndTime",
      "outputs": [
        {
          "internalType": "uint256",
          "name": "",
          "type": "uint256"
        }
      ],
      "stateMutability": "view",
      "type": "function"
    },
    {
      "inputs": [],
      "name": "bid",
      "outputs": [],
      "stateMutability": "payable",
      "type": "function"
    },
    {
      "inputs": [],
      "name": "confirmAuctionEnd",
      "outputs": [],
      "stateMutability": "nonpayable",
      "type": "function"
    },
    {
      "inputs": [],
      "name": "durationElapsed",
      "outputs": [
        {
          "internalType": "bool",
          "name": "",
          "type": "bool"
        }
      ],
      "stateMutability": "view",
      "type": "function"
    },
    {
      "inputs": [],
      "name": "endAuction",
      "outputs": [],
      "stateMutability": "nonpayable",
      "type": "function"
    },
    {
      "inputs": [],
      "name": "ended",
      "outputs": [
        {
          "internalType": "bool",
          "name": "",
          "type": "bool"
        }
      ],
      "stateMutability": "view",
      "type": "function"
    },
    {
      "inputs": [],
      "name": "getHighestBidder",
      "outputs": [
        {
          "internalType": "address",
          "name": "",
          "type": "address"
        }
      ],
      "stateMutability": "view",
      "type": "function"
    },
    {
      "inputs": [],
      "name": "highestBid",
      "outputs": [
        {
          "internalType": "uint256",
          "name": "",
          "type": "uint256"
        }
      ],
      "stateMutability": "view",
      "type": "function"
    },
    {
      "inputs": [],
      "name": "highestBidder",
      "outputs": [
        {
          "internalType": "address payable",
          "name": "",
          "type": "address"
        }
      ],
      "stateMutability": "view",
      "type": "function"
    },
    {
      "inputs": [],
      "name": "marketplaceAddress",
      "outputs": [
        {
          "internalType": "address",
          "name": "",
          "type": "address"
        }
      ],
      "stateMutability": "view",
      "type": "function"
    },
    {
      "inputs": [],
      "name": "nftId",
      "outputs": [
        {
          "internalType": "uint256",
          "name": "",
          "type": "uint256"
        }
      ],
      "stateMutability": "view",
      "type": "function"
    },
    {
      "inputs": [
        {
          "internalType": "address",
          "name": "",
          "type": "address"
        }
      ],
      "name": "pendingReturns",
      "outputs": [
        {
          "internalType": "uint256",
          "name": "",
          "type": "uint256"
        }
      ],
      "stateMutability": "view",
      "type": "function"
    },
    {
      "inputs": [],
      "name": "penultimateBidder",
      "outputs": [
        {
          "internalType": "address payable",
          "name": "",
          "type": "address"
        }
      ],
      "stateMutability": "view",
      "type": "function"
    },
    {
      "inputs": [],
      "name": "seller",
      "outputs": [
        {
          "internalType": "address payable",
          "name": "",
          "type": "address"
        }
      ],
      "stateMutability": "view",
      "type": "function"
    },
    {
      "inputs": [],
      "name": "startingPrice",
      "outputs": [
        {
          "internalType": "uint256",
          "name": "",
          "type": "uint256"
        }
      ],
      "stateMutability": "view",
      "type": "function"
    },
    {
      "inputs": [],
      "name": "withdraw",
      "outputs": [
        {
          "internalType": "bool",
          "name": "",
          "type": "bool"
        }
      ],
      "stateMutability": "nonpayable",
      "type": "function"
    }
  ],
  "bytecode": "0x60806040523480156200001157600080fd5b506040516200267f3803806200267f833981810160405281019062000037919062000238565b600160008190555081600260006101000a81548173ffffffffffffffffffffffffffffffffffffffff021916908373ffffffffffffffffffffffffffffffffffffffff160217905550600260009054906101000a900473ffffffffffffffffffffffffffffffffffffffff16600360006101000a81548173ffffffffffffffffffffffffffffffffffffffff021916908373ffffffffffffffffffffffffffffffffffffffff16021790555080600460006101000a81548173ffffffffffffffffffffffffffffffffffffffff021916908373ffffffffffffffffffffffffffffffffffffffff1602179055508560018190555082600560006101000a81548173ffffffffffffffffffffffffffffffffffffffff021916908373ffffffffffffffffffffffffffffffffffffffff16021790555084600681905550834262000181919062000303565b600a819055505050505050506200033e565b600080fd5b6000819050919050565b620001ad8162000198565b8114620001b957600080fd5b50565b600081519050620001cd81620001a2565b92915050565b600073ffffffffffffffffffffffffffffffffffffffff82169050919050565b60006200020082620001d3565b9050919050565b6200021281620001f3565b81146200021e57600080fd5b50565b600081519050620002328162000207565b92915050565b60008060008060008060c0878903121562000258576200025762000193565b5b60006200026889828a01620001bc565b96505060206200027b89828a01620001bc565b95505060406200028e89828a01620001bc565b9450506060620002a189828a0162000221565b9350506080620002b489828a0162000221565b92505060a0620002c789828a0162000221565b9150509295509295509295565b7f4e487b7100000000000000000000000000000000000000000000000000000000600052601160045260246000fd5b6000620003108262000198565b91506200031d8362000198565b9250828201905080821115620003385762000337620002d4565b5b92915050565b612331806200034e6000396000f3fe6080604052600436106100f25760003560e01c80634b449cba1161008a578063d57bde7911610059578063d57bde79146102d8578063d6fbf20214610303578063daa17f491461032e578063fe67a54b14610359576100f2565b80634b449cba1461024057806391f901571461026b578063c695176214610296578063c6bc5182146102ad576100f2565b80631998aeef116100c65780631998aeef146101a35780631e9f77ac146101ad57806326b387bb146101d85780633ccfd60b14610215576100f2565b80623495a4146100f757806308551a531461012257806310a4fb5f1461014d57806312fa6feb14610178575b600080fd5b34801561010357600080fd5b5061010c610370565b60405161011991906116ac565b60405180910390f35b34801561012e57600080fd5b5061013761039a565b60405161014491906116e8565b60405180910390f35b34801561015957600080fd5b506101626103c0565b60405161016f91906116e8565b60405180910390f35b34801561018457600080fd5b5061018d6103e6565b60405161019a919061171e565b60405180910390f35b6101ab6103f9565b005b3480156101b957600080fd5b506101c261090b565b6040516101cf919061171e565b60405180910390f35b3480156101e457600080fd5b506101ff60048036038101906101fa919061176a565b61091e565b60405161020c91906117b0565b60405180910390f35b34801561022157600080fd5b5061022a610936565b604051610237919061171e565b60405180910390f35b34801561024c57600080fd5b50610255610b7b565b60405161026291906117b0565b60405180910390f35b34801561027757600080fd5b50610280610b81565b60405161028d91906116e8565b60405180910390f35b3480156102a257600080fd5b506102ab610ba7565b005b3480156102b957600080fd5b506102c2610c09565b6040516102cf91906117b0565b60405180910390f35b3480156102e457600080fd5b506102ed610c0f565b6040516102fa91906117b0565b60405180910390f35b34801561030f57600080fd5b50610318610c15565b60405161032591906117b0565b60405180910390f35b34801561033a57600080fd5b50610343610c1b565b60405161035091906116ac565b60405180910390f35b34801561036557600080fd5b5061036e610c41565b005b6000600760009054906101000a900473ffffffffffffffffffffffffffffffffffffffff16905090565b600560009054906101000a900473ffffffffffffffffffffffffffffffffffffffff1681565b600860009054906101000a900473ffffffffffffffffffffffffffffffffffffffff1681565b600b60019054906101000a900460ff1681565b610401611612565b60001515600b60019054906101000a900460ff161515148015610437575060001515600b60009054906101000a900460ff161515145b610476576040517f08c379a000000000000000000000000000000000000000000000000000000000815260040161046d90611828565b60405180910390fd5b3373ffffffffffffffffffffffffffffffffffffffff16600560009054906101000a900473ffffffffffffffffffffffffffffffffffffffff1673ffffffffffffffffffffffffffffffffffffffff1603610506576040517f08c379a00000000000000000000000000000000000000000000000000000000081526004016104fd906118ba565b60405180910390fd5b60065434101561054b576040517f08c379a00000000000000000000000000000000000000000000000000000000081526004016105429061194c565b60405180910390fd5b3373ffffffffffffffffffffffffffffffffffffffff16600760009054906101000a900473ffffffffffffffffffffffffffffffffffffffff1673ffffffffffffffffffffffffffffffffffffffff16036105db576040517f08c379a00000000000000000000000000000000000000000000000000000000081526004016105d2906119b8565b60405180910390fd5b600760009054906101000a900473ffffffffffffffffffffffffffffffffffffffff16600860006101000a81548173ffffffffffffffffffffffffffffffffffffffff021916908373ffffffffffffffffffffffffffffffffffffffff1602179055506000600c60003373ffffffffffffffffffffffffffffffffffffffff1673ffffffffffffffffffffffffffffffffffffffff168152602001908152602001600020549050600081111561077e576000600c60003373ffffffffffffffffffffffffffffffffffffffff1673ffffffffffffffffffffffffffffffffffffffff1681526020019081526020016000208190555060003373ffffffffffffffffffffffffffffffffffffffff16826040516106f690611a09565b60006040518083038185875af1925050503d8060008114610733576040519150601f19603f3d011682016040523d82523d6000602084013e610738565b606091505b505090508061077c576040517f08c379a000000000000000000000000000000000000000000000000000000000815260040161077390611a6a565b60405180910390fd5b505b60095434116107c2576040517f08c379a00000000000000000000000000000000000000000000000000000000081526004016107b990611afc565b60405180910390fd5b6000600760009054906101000a900473ffffffffffffffffffffffffffffffffffffffff169050600060095490503460098190555033600760006101000a81548173ffffffffffffffffffffffffffffffffffffffff021916908373ffffffffffffffffffffffffffffffffffffffff160217905550600073ffffffffffffffffffffffffffffffffffffffff168273ffffffffffffffffffffffffffffffffffffffff16146108c35780600c60008473ffffffffffffffffffffffffffffffffffffffff1673ffffffffffffffffffffffffffffffffffffffff16815260200190815260200160002060008282546108bb9190611b4b565b925050819055505b7f13692bed0518bbe01c8a2b50a32f14d0d4abaa43dce4da7af1814182ee6443173334306040516108f693929190611b7f565b60405180910390a1505050610909611661565b565b600b60009054906101000a900460ff1681565b600c6020528060005260406000206000915090505481565b600060011515600b60019054906101000a900460ff1615151461098e576040517f08c379a000000000000000000000000000000000000000000000000000000000815260040161098590611c28565b60405180910390fd5b600760009054906101000a900473ffffffffffffffffffffffffffffffffffffffff1673ffffffffffffffffffffffffffffffffffffffff163373ffffffffffffffffffffffffffffffffffffffff1603610a1e576040517f08c379a0000000000000000000000000000000000000000000000000000000008152600401610a1590611cba565b60405180910390fd5b6000600c60003373ffffffffffffffffffffffffffffffffffffffff1673ffffffffffffffffffffffffffffffffffffffff1681526020019081526020016000205490506000811115610b72576000600c60003373ffffffffffffffffffffffffffffffffffffffff1673ffffffffffffffffffffffffffffffffffffffff1681526020019081526020016000208190555060003373ffffffffffffffffffffffffffffffffffffffff1682604051610ad690611a09565b60006040518083038185875af1925050503d8060008114610b13576040519150601f19603f3d011682016040523d82523d6000602084013e610b18565b606091505b5050905080610b705781600c60003373ffffffffffffffffffffffffffffffffffffffff1673ffffffffffffffffffffffffffffffffffffffff16815260200190815260200160002081905550600092505050610b78565b505b60019150505b90565b600a5481565b600760009054906101000a900473ffffffffffffffffffffffffffffffffffffffff1681565b600a54421015610bec576040517f08c379a0000000000000000000000000000000000000000000000000000000008152600401610be390611d26565b60405180910390fd5b6001600b60006101000a81548160ff021916908315150217905550565b60015481565b60095481565b60065481565b600260009054906101000a900473ffffffffffffffffffffffffffffffffffffffff1681565b610c49611612565b600b60009054906101000a900460ff1680610cb15750600560009054906101000a900473ffffffffffffffffffffffffffffffffffffffff1673ffffffffffffffffffffffffffffffffffffffff163373ffffffffffffffffffffffffffffffffffffffff16145b80610d095750600260009054906101000a900473ffffffffffffffffffffffffffffffffffffffff1673ffffffffffffffffffffffffffffffffffffffff163373ffffffffffffffffffffffffffffffffffffffff16145b610d48576040517f08c379a0000000000000000000000000000000000000000000000000000000008152600401610d3f90611dde565b60405180910390fd5b600080600360009054906101000a900473ffffffffffffffffffffffffffffffffffffffff1673ffffffffffffffffffffffffffffffffffffffff1663a65ff74c6001546040518263ffffffff1660e01b8152600401610da891906117b0565b6040805180830381865afa158015610dc4573d6000803e3d6000fd5b505050506040513d601f19601f82011682018060405250810190610de89190611e56565b91509150600073ffffffffffffffffffffffffffffffffffffffff16600760009054906101000a900473ffffffffffffffffffffffffffffffffffffffff1673ffffffffffffffffffffffffffffffffffffffff16146114af576000606483600954610e549190611e96565b610e5e9190611f07565b9050600060646002600954610e739190611e96565b610e7d9190611f07565b905060008183600954610e909190611f38565b610e9a9190611f38565b90506000600560009054906101000a900473ffffffffffffffffffffffffffffffffffffffff1673ffffffffffffffffffffffffffffffffffffffff1682604051610ee490611a09565b60006040518083038185875af1925050503d8060008114610f21576040519150601f19603f3d011682016040523d82523d6000602084013e610f26565b606091505b5050905080610f6a576040517f08c379a0000000000000000000000000000000000000000000000000000000008152600401610f6190611fde565b60405180910390fd5b60008573ffffffffffffffffffffffffffffffffffffffff1685604051610f9090611a09565b60006040518083038185875af1925050503d8060008114610fcd576040519150601f19603f3d011682016040523d82523d6000602084013e610fd2565b606091505b5050905080611016576040517f08c379a000000000000000000000000000000000000000000000000000000000815260040161100d90612070565b60405180910390fd5b6000600260009054906101000a900473ffffffffffffffffffffffffffffffffffffffff1673ffffffffffffffffffffffffffffffffffffffff168560405161105e90611a09565b60006040518083038185875af1925050503d806000811461109b576040519150601f19603f3d011682016040523d82523d6000602084013e6110a0565b606091505b50509050806110e4576040517f08c379a00000000000000000000000000000000000000000000000000000000081526004016110db90612102565b60405180910390fd5b600073ffffffffffffffffffffffffffffffffffffffff16600860009054906101000a900473ffffffffffffffffffffffffffffffffffffffff1673ffffffffffffffffffffffffffffffffffffffff16141580156111a457506000600c6000600860009054906101000a900473ffffffffffffffffffffffffffffffffffffffff1673ffffffffffffffffffffffffffffffffffffffff1673ffffffffffffffffffffffffffffffffffffffff16815260200190815260200160002054115b15611347576000600c6000600860009054906101000a900473ffffffffffffffffffffffffffffffffffffffff1673ffffffffffffffffffffffffffffffffffffffff1673ffffffffffffffffffffffffffffffffffffffff1681526020019081526020016000205490506000600c6000600860009054906101000a900473ffffffffffffffffffffffffffffffffffffffff1673ffffffffffffffffffffffffffffffffffffffff1673ffffffffffffffffffffffffffffffffffffffff168152602001908152602001600020819055506000600860009054906101000a900473ffffffffffffffffffffffffffffffffffffffff1673ffffffffffffffffffffffffffffffffffffffff16826040516112be90611a09565b60006040518083038185875af1925050503d80600081146112fb576040519150601f19603f3d011682016040523d82523d6000602084013e611300565b606091505b5050905080611344576040517f08c379a000000000000000000000000000000000000000000000000000000000815260040161133b90612194565b60405180910390fd5b50505b600360009054906101000a900473ffffffffffffffffffffffffffffffffffffffff1673ffffffffffffffffffffffffffffffffffffffff16638f329b31600154600760009054906101000a900473ffffffffffffffffffffffffffffffffffffffff166040518363ffffffff1660e01b81526004016113c8929190612213565b600060405180830381600087803b1580156113e257600080fd5b505af11580156113f6573d6000803e3d6000fd5b50505050600460009054906101000a900473ffffffffffffffffffffffffffffffffffffffff1673ffffffffffffffffffffffffffffffffffffffff1663a75654d96001546040518263ffffffff1660e01b815260040161145791906117b0565b600060405180830381600087803b15801561147157600080fd5b505af1158015611485573d6000803e3d6000fd5b505050506001600b60016101000a81548160ff02191690831515021790555050505050505061157e565b600360009054906101000a900473ffffffffffffffffffffffffffffffffffffffff1673ffffffffffffffffffffffffffffffffffffffff16638f329b31600154600560009054906101000a900473ffffffffffffffffffffffffffffffffffffffff166040518363ffffffff1660e01b8152600401611530929190612213565b600060405180830381600087803b15801561154a57600080fd5b505af115801561155e573d6000803e3d6000fd5b505050506001600b60016101000a81548160ff0219169083151502179055505b7f19f5e73c484e5274d91de54225d8a1330339f61b5f27dbe05c47ff361b8dd3c1600154600760009054906101000a900473ffffffffffffffffffffffffffffffffffffffff16600560009054906101000a900473ffffffffffffffffffffffffffffffffffffffff1660006009546040516115fe95949392919061223c565b60405180910390a15050611610611661565b565b600260005403611657576040517f08c379a000000000000000000000000000000000000000000000000000000000815260040161164e906122db565b60405180910390fd5b6002600081905550565b6001600081905550565b600073ffffffffffffffffffffffffffffffffffffffff82169050919050565b60006116968261166b565b9050919050565b6116a68161168b565b82525050565b60006020820190506116c1600083018461169d565b92915050565b60006116d28261166b565b9050919050565b6116e2816116c7565b82525050565b60006020820190506116fd60008301846116d9565b92915050565b60008115159050919050565b61171881611703565b82525050565b6000602082019050611733600083018461170f565b92915050565b600080fd5b6117478161168b565b811461175257600080fd5b50565b6000813590506117648161173e565b92915050565b6000602082840312156117805761177f611739565b5b600061178e84828501611755565b91505092915050565b6000819050919050565b6117aa81611797565b82525050565b60006020820190506117c560008301846117a1565b92915050565b600082825260208201905092915050565b7f41756374696f6e2068617320656e646564000000000000000000000000000000600082015250565b60006118126011836117cb565b915061181d826117dc565b602082019050919050565b6000602082019050818103600083015261184181611805565b9050919050565b7f53656c6c65722063616e6e6f7420626964206f6e207468656972206f776e206160008201527f756374696f6e0000000000000000000000000000000000000000000000000000602082015250565b60006118a46026836117cb565b91506118af82611848565b604082019050919050565b600060208201905081810360008301526118d381611897565b9050919050565b7f426964206d7573742062652067726561746572207468616e206f72206571756160008201527f6c20746f207374617274696e6720707269636500000000000000000000000000602082015250565b60006119366033836117cb565b9150611941826118da565b604082019050919050565b6000602082019050818103600083015261196581611929565b9050919050565b7f42696464657220697320616c7265616479206869676865737420626964646572600082015250565b60006119a26020836117cb565b91506119ad8261196c565b602082019050919050565b600060208201905081810360008301526119d181611995565b9050919050565b600081905092915050565b50565b60006119f36000836119d8565b91506119fe826119e3565b600082019050919050565b6000611a14826119e6565b9150819050919050565b7f4661696c656420746f20726566756e642070726576696f757320626964000000600082015250565b6000611a54601d836117cb565b9150611a5f82611a1e565b602082019050919050565b60006020820190508181036000830152611a8381611a47565b9050919050565b7f426964206d7573742062652067726561746572207468616e2063757272656e7460008201527f2068696768657374206269640000000000000000000000000000000000000000602082015250565b6000611ae6602c836117cb565b9150611af182611a8a565b604082019050919050565b60006020820190508181036000830152611b1581611ad9565b9050919050565b7f4e487b7100000000000000000000000000000000000000000000000000000000600052601160045260246000fd5b6000611b5682611797565b9150611b6183611797565b9250828201905080821115611b7957611b78611b1c565b5b92915050565b6000606082019050611b94600083018661169d565b611ba160208301856117a1565b611bae604083018461169d565b949350505050565b7f557365722063616e206f6e6c792077697468647261772066756e64732061667460008201527f65722061756374696f6e2068617320656e646564000000000000000000000000602082015250565b6000611c126034836117cb565b9150611c1d82611bb6565b604082019050919050565b60006020820190508181036000830152611c4181611c05565b9050919050565b7f686967686573744269646465722063616e6e6f7420776974686472617720667560008201527f6e64730000000000000000000000000000000000000000000000000000000000602082015250565b6000611ca46023836117cb565b9150611caf82611c48565b604082019050919050565b60006020820190508181036000830152611cd381611c97565b9050919050565b7f41756374696f6e20686173206e6f7420656e6465642079657400000000000000600082015250565b6000611d106019836117cb565b9150611d1b82611cda565b602082019050919050565b60006020820190508181036000830152611d3f81611d03565b9050919050565b7f43616e6e6f7420656e642061756374696f6e206966206e6f742073656c6c657260008201527f206f7220696620656e642074696d6520686173206e6f74206265656e2072656160208201527f6368656400000000000000000000000000000000000000000000000000000000604082015250565b6000611dc86044836117cb565b9150611dd382611d46565b606082019050919050565b60006020820190508181036000830152611df781611dbb565b9050919050565b611e0781611797565b8114611e1257600080fd5b50565b600081519050611e2481611dfe565b92915050565b611e33816116c7565b8114611e3e57600080fd5b50565b600081519050611e5081611e2a565b92915050565b60008060408385031215611e6d57611e6c611739565b5b6000611e7b85828601611e15565b9250506020611e8c85828601611e41565b9150509250929050565b6000611ea182611797565b9150611eac83611797565b9250828202611eba81611797565b91508282048414831517611ed157611ed0611b1c565b5b5092915050565b7f4e487b7100000000000000000000000000000000000000000000000000000000600052601260045260246000fd5b6000611f1282611797565b9150611f1d83611797565b925082611f2d57611f2c611ed8565b5b828204905092915050565b6000611f4382611797565b9150611f4e83611797565b9250828203905081811115611f6657611f65611b1c565b5b92915050565b7f4661696c656420746f2073656e6420457468657220746f207468652073656c6c60008201527f6572000000000000000000000000000000000000000000000000000000000000602082015250565b6000611fc86022836117cb565b9150611fd382611f6c565b604082019050919050565b60006020820190508181036000830152611ff781611fbb565b9050919050565b7f4661696c656420746f2073656e6420726f79616c7469657320746f206f72696760008201527f696e616c206f776e657200000000000000000000000000000000000000000000602082015250565b600061205a602a836117cb565b915061206582611ffe565b604082019050919050565b600060208201905081810360008301526120898161204d565b9050919050565b7f4661696c656420746f2073656e64206665657320746f206d61726b6574706c6160008201527f636520636f6e7472616374000000000000000000000000000000000000000000602082015250565b60006120ec602b836117cb565b91506120f782612090565b604082019050919050565b6000602082019050818103600083015261211b816120df565b9050919050565b7f4661696c656420746f2073656e6420726566756e6420746f207468652070656e60008201527f756c74696d617465206269646465720000000000000000000000000000000000602082015250565b600061217e602f836117cb565b915061218982612122565b604082019050919050565b600060208201905081810360008301526121ad81612171565b9050919050565b6000819050919050565b60006121d96121d46121cf8461166b565b6121b4565b61166b565b9050919050565b60006121eb826121be565b9050919050565b60006121fd826121e0565b9050919050565b61220d816121f2565b82525050565b600060408201905061222860008301856117a1565b6122356020830184612204565b9392505050565b600060a08201905061225160008301886117a1565b61225e6020830187612204565b61226b6040830186612204565b612278606083018561169d565b61228560808301846117a1565b9695505050505050565b7f5265656e7472616e637947756172643a207265656e7472616e742063616c6c00600082015250565b60006122c5601f836117cb565b91506122d08261228f565b602082019050919050565b600060208201905081810360008301526122f4816122b8565b905091905056fea2646970667358221220852ffe7902e2123a02331e9880a62fb19f40ea22a0fa5755760dcdbd1a09e65464736f6c63430008130033",
  "linkReferences": {},
  "deployedLinkReferences": {}
}