{
  "_format": "hh-sol-artifact-1",
  "contractName": "Auction",
  "sourceName": "contracts/Auction.sol",
  "abi": [
    {
      "inputs": [
        {
          "internalType": "uint256",
          "name": "_nftId",
          "type": "uint256"
        },
        {
          "internalType": "uint256",
          "name": "_startingPrice",
          "type": "uint256"
        },
        {
          "internalType": "address",
          "name": "_seller",
          "type": "address"
        },
        {
          "internalType": "address",
          "name": "_marketplaceAddress",
          "type": "address"
        },
        {
          "internalType": "address",
          "name": "_auctionFactoryAddress",
          "type": "address"
        }
      ],
      "stateMutability": "nonpayable",
      "type": "constructor"
    },
    {
      "anonymous": false,
      "inputs": [
        {
          "indexed": false,
          "internalType": "address",
          "name": "auctionAddress",
          "type": "address"
        },
        {
          "indexed": false,
          "internalType": "uint256",
          "name": "timestamp",
          "type": "uint256"
        },
        {
          "indexed": false,
          "internalType": "uint256",
          "name": "nftId",
          "type": "uint256"
        },
        {
          "indexed": false,
          "internalType": "address",
          "name": "seller",
          "type": "address"
        },
        {
          "indexed": false,
          "internalType": "uint256",
          "name": "startingPrice",
          "type": "uint256"
        },
        {
          "indexed": false,
          "internalType": "uint256",
          "name": "highestBid",
          "type": "uint256"
        }
      ],
      "name": "AuctionEnded",
      "type": "event"
    },
    {
      "anonymous": false,
      "inputs": [
        {
          "indexed": false,
          "internalType": "address",
          "name": "bidder",
          "type": "address"
        },
        {
          "indexed": false,
          "internalType": "uint256",
          "name": "bidAmount",
          "type": "uint256"
        },
        {
          "indexed": false,
          "internalType": "address",
          "name": "auctionAddress",
          "type": "address"
        }
      ],
      "name": "Bid",
      "type": "event"
    },
    {
      "inputs": [],
      "name": "bid",
      "outputs": [],
      "stateMutability": "payable",
      "type": "function"
    },
    {
      "inputs": [
        {
          "internalType": "uint256",
          "name": "tokenId",
          "type": "uint256"
        }
      ],
      "name": "endAuction",
      "outputs": [],
      "stateMutability": "nonpayable",
      "type": "function"
    },
    {
      "inputs": [
        {
          "internalType": "address",
          "name": "",
          "type": "address"
        }
      ],
      "name": "pendingReturns",
      "outputs": [
        {
          "internalType": "uint256",
          "name": "",
          "type": "uint256"
        }
      ],
      "stateMutability": "view",
      "type": "function"
    },
    {
      "inputs": [],
      "name": "withdraw",
      "outputs": [
        {
          "internalType": "bool",
          "name": "",
          "type": "bool"
        }
      ],
      "stateMutability": "nonpayable",
      "type": "function"
    }
  ],
  "bytecode": "0x60806040523480156200001157600080fd5b5060405162001c3038038062001c30833981810160405281019062000037919062000382565b6001600081905550620000886040518060400160405280601e81526020017f41756374696f6e20636f6e747261637420696e697469616c697a65643a200000815250868587620001c760201b60201c565b81600260006101000a81548173ffffffffffffffffffffffffffffffffffffffff021916908373ffffffffffffffffffffffffffffffffffffffff160217905550600260009054906101000a900473ffffffffffffffffffffffffffffffffffffffff16600360006101000a81548173ffffffffffffffffffffffffffffffffffffffff021916908373ffffffffffffffffffffffffffffffffffffffff16021790555080600460006101000a81548173ffffffffffffffffffffffffffffffffffffffff021916908373ffffffffffffffffffffffffffffffffffffffff1602179055508460018190555082600560006101000a81548173ffffffffffffffffffffffffffffffffffffffff021916908373ffffffffffffffffffffffffffffffffffffffff16021790555083600681905550505050505062000549565b6200026d84848484604051602401620001e49493929190620004c6565b6040516020818303038152906040527f4f04fdc6000000000000000000000000000000000000000000000000000000007bffffffffffffffffffffffffffffffffffffffffffffffffffffffff19166020820180517bffffffffffffffffffffffffffffffffffffffffffffffffffffffff83818316178352505050506200027360201b60201c565b50505050565b6200029981620002946200029c60201b62000c0717620002bd60201b60201c565b60201c565b50565b60006a636f6e736f6c652e6c6f679050600080835160208501845afa505050565b620002d160201b62000c8117819050919050565b620002db6200051a565b565b600080fd5b6000819050919050565b620002f781620002e2565b81146200030357600080fd5b50565b6000815190506200031781620002ec565b92915050565b600073ffffffffffffffffffffffffffffffffffffffff82169050919050565b60006200034a826200031d565b9050919050565b6200035c816200033d565b81146200036857600080fd5b50565b6000815190506200037c8162000351565b92915050565b600080600080600060a08688031215620003a157620003a0620002dd565b5b6000620003b18882890162000306565b9550506020620003c48882890162000306565b9450506040620003d7888289016200036b565b9350506060620003ea888289016200036b565b9250506080620003fd888289016200036b565b9150509295509295909350565b600081519050919050565b600082825260208201905092915050565b60005b838110156200044657808201518184015260208101905062000429565b60008484015250505050565b6000601f19601f8301169050919050565b600062000470826200040a565b6200047c818562000415565b93506200048e81856020860162000426565b620004998162000452565b840191505092915050565b620004af81620002e2565b82525050565b620004c0816200033d565b82525050565b60006080820190508181036000830152620004e2818762000463565b9050620004f36020830186620004a4565b620005026040830185620004b5565b620005116060830184620004a4565b95945050505050565b7f4e487b7100000000000000000000000000000000000000000000000000000000600052605160045260246000fd5b6116d780620005596000396000f3fe60806040526004361061003f5760003560e01c80631998aeef1461004457806326b387bb1461004e5780633ccfd60b1461008b578063b9a2de3a146100b6575b600080fd5b61004c6100df565b005b34801561005a57600080fd5b5061007560048036038101906100709190610cee565b6103a2565b6040516100829190610d34565b60405180910390f35b34801561009757600080fd5b506100a06103ba565b6040516100ad9190610d6a565b60405180910390f35b3480156100c257600080fd5b506100dd60048036038101906100d89190610db1565b61056f565b005b6100e7610c28565b3373ffffffffffffffffffffffffffffffffffffffff16600560009054906101000a900473ffffffffffffffffffffffffffffffffffffffff1673ffffffffffffffffffffffffffffffffffffffff1603610177576040517f08c379a000000000000000000000000000000000000000000000000000000000815260040161016e90610e61565b60405180910390fd5b6006543410156101bc576040517f08c379a00000000000000000000000000000000000000000000000000000000081526004016101b390610ef3565b60405180910390fd5b6008543411610200576040517f08c379a00000000000000000000000000000000000000000000000000000000081526004016101f790610f85565b60405180910390fd5b3373ffffffffffffffffffffffffffffffffffffffff16600760009054906101000a900473ffffffffffffffffffffffffffffffffffffffff1673ffffffffffffffffffffffffffffffffffffffff1603610290576040517f08c379a000000000000000000000000000000000000000000000000000000000815260040161028790610ff1565b60405180910390fd5b60006008541461031557600854600a6000600760009054906101000a900473ffffffffffffffffffffffffffffffffffffffff1673ffffffffffffffffffffffffffffffffffffffff1673ffffffffffffffffffffffffffffffffffffffff168152602001908152602001600020600082825461030d9190611040565b925050819055505b3460088190555033600760006101000a81548173ffffffffffffffffffffffffffffffffffffffff021916908373ffffffffffffffffffffffffffffffffffffffff1602179055507f13692bed0518bbe01c8a2b50a32f14d0d4abaa43dce4da7af1814182ee64431733343060405161039093929190611083565b60405180910390a16103a0610c77565b565b600a6020528060005260406000206000915090505481565b600060011515600960009054906101000a900460ff16151514610412576040517f08c379a00000000000000000000000000000000000000000000000000000000081526004016104099061112c565b60405180910390fd5b6000600a60003373ffffffffffffffffffffffffffffffffffffffff1673ffffffffffffffffffffffffffffffffffffffff1681526020019081526020016000205490506000811115610566576000600a60003373ffffffffffffffffffffffffffffffffffffffff1673ffffffffffffffffffffffffffffffffffffffff1681526020019081526020016000208190555060003373ffffffffffffffffffffffffffffffffffffffff16826040516104ca9061117d565b60006040518083038185875af1925050503d8060008114610507576040519150601f19603f3d011682016040523d82523d6000602084013e61050c565b606091505b50509050806105645781600a60003373ffffffffffffffffffffffffffffffffffffffff1673ffffffffffffffffffffffffffffffffffffffff1681526020019081526020016000208190555060009250505061056c565b505b60019150505b90565b610577610c28565b600560009054906101000a900473ffffffffffffffffffffffffffffffffffffffff1673ffffffffffffffffffffffffffffffffffffffff163373ffffffffffffffffffffffffffffffffffffffff1614610607576040517f08c379a00000000000000000000000000000000000000000000000000000000081526004016105fe906111de565b60405180910390fd5b600080600360009054906101000a900473ffffffffffffffffffffffffffffffffffffffff1673ffffffffffffffffffffffffffffffffffffffff1663a65ff74c846040518263ffffffff1660e01b81526004016106659190610d34565b6040805180830381865afa158015610681573d6000803e3d6000fd5b505050506040513d601f19601f820116820180604052508101906106a59190611251565b91509150600073ffffffffffffffffffffffffffffffffffffffff16600760009054906101000a900473ffffffffffffffffffffffffffffffffffffffff1673ffffffffffffffffffffffffffffffffffffffff1614610adf5760006064836008546107119190611291565b61071b9190611302565b905060008160085461072d9190611333565b90506000606460026008546107429190611291565b61074c9190611302565b90506000600560009054906101000a900473ffffffffffffffffffffffffffffffffffffffff1673ffffffffffffffffffffffffffffffffffffffff16836040516107969061117d565b60006040518083038185875af1925050503d80600081146107d3576040519150601f19603f3d011682016040523d82523d6000602084013e6107d8565b606091505b505090508061081c576040517f08c379a0000000000000000000000000000000000000000000000000000000008152600401610813906113d9565b60405180910390fd5b60008573ffffffffffffffffffffffffffffffffffffffff16856040516108429061117d565b60006040518083038185875af1925050503d806000811461087f576040519150601f19603f3d011682016040523d82523d6000602084013e610884565b606091505b50509050806108c8576040517f08c379a00000000000000000000000000000000000000000000000000000000081526004016108bf9061146b565b60405180910390fd5b6000600260009054906101000a900473ffffffffffffffffffffffffffffffffffffffff1673ffffffffffffffffffffffffffffffffffffffff16846040516109109061117d565b60006040518083038185875af1925050503d806000811461094d576040519150601f19603f3d011682016040523d82523d6000602084013e610952565b606091505b5050905080610996576040517f08c379a000000000000000000000000000000000000000000000000000000000815260040161098d906114fd565b60405180910390fd5b600360009054906101000a900473ffffffffffffffffffffffffffffffffffffffff1673ffffffffffffffffffffffffffffffffffffffff16638f329b318a600760009054906101000a900473ffffffffffffffffffffffffffffffffffffffff166040518363ffffffff1660e01b8152600401610a1592919061157c565b600060405180830381600087803b158015610a2f57600080fd5b505af1158015610a43573d6000803e3d6000fd5b50505050600460009054906101000a900473ffffffffffffffffffffffffffffffffffffffff1673ffffffffffffffffffffffffffffffffffffffff1663a75654d98a6040518263ffffffff1660e01b8152600401610aa29190610d34565b600060405180830381600087803b158015610abc57600080fd5b505af1158015610ad0573d6000803e3d6000fd5b50505050505050505050610b91565b600360009054906101000a900473ffffffffffffffffffffffffffffffffffffffff1673ffffffffffffffffffffffffffffffffffffffff16638f329b3184600560009054906101000a900473ffffffffffffffffffffffffffffffffffffffff166040518363ffffffff1660e01b8152600401610b5e92919061157c565b600060405180830381600087803b158015610b7857600080fd5b505af1158015610b8c573d6000803e3d6000fd5b505050505b7f93de927ed018f9abbaa00feee71bdae41a752a7b21d3390a039807f8a6870e943042600154600560009054906101000a900473ffffffffffffffffffffffffffffffffffffffff16600654600854604051610bf2969594939291906115a5565b60405180910390a15050610c04610c77565b50565b60006a636f6e736f6c652e6c6f679050600080835160208501845afa505050565b600260005403610c6d576040517f08c379a0000000000000000000000000000000000000000000000000000000008152600401610c6490611652565b60405180910390fd5b6002600081905550565b6001600081905550565b610c89611672565b565b600080fd5b600073ffffffffffffffffffffffffffffffffffffffff82169050919050565b6000610cbb82610c90565b9050919050565b610ccb81610cb0565b8114610cd657600080fd5b50565b600081359050610ce881610cc2565b92915050565b600060208284031215610d0457610d03610c8b565b5b6000610d1284828501610cd9565b91505092915050565b6000819050919050565b610d2e81610d1b565b82525050565b6000602082019050610d496000830184610d25565b92915050565b60008115159050919050565b610d6481610d4f565b82525050565b6000602082019050610d7f6000830184610d5b565b92915050565b610d8e81610d1b565b8114610d9957600080fd5b50565b600081359050610dab81610d85565b92915050565b600060208284031215610dc757610dc6610c8b565b5b6000610dd584828501610d9c565b91505092915050565b600082825260208201905092915050565b7f53656c6c65722063616e6e6f7420626964206f6e207468656972206f776e206160008201527f756374696f6e0000000000000000000000000000000000000000000000000000602082015250565b6000610e4b602683610dde565b9150610e5682610def565b604082019050919050565b60006020820190508181036000830152610e7a81610e3e565b9050919050565b7f426964206d7573742062652067726561746572207468616e206f72206571756160008201527f6c20746f207374617274696e6720707269636500000000000000000000000000602082015250565b6000610edd603383610dde565b9150610ee882610e81565b604082019050919050565b60006020820190508181036000830152610f0c81610ed0565b9050919050565b7f426964206d7573742062652067726561746572207468616e2063757272656e7460008201527f2068696768657374206269640000000000000000000000000000000000000000602082015250565b6000610f6f602c83610dde565b9150610f7a82610f13565b604082019050919050565b60006020820190508181036000830152610f9e81610f62565b9050919050565b7f42696464657220697320616c7265616479206869676865737420626964646572600082015250565b6000610fdb602083610dde565b9150610fe682610fa5565b602082019050919050565b6000602082019050818103600083015261100a81610fce565b9050919050565b7f4e487b7100000000000000000000000000000000000000000000000000000000600052601160045260246000fd5b600061104b82610d1b565b915061105683610d1b565b925082820190508082111561106e5761106d611011565b5b92915050565b61107d81610cb0565b82525050565b60006060820190506110986000830186611074565b6110a56020830185610d25565b6110b26040830184611074565b949350505050565b7f557365722063616e206f6e6c792077697468647261772066756e64732061667460008201527f65722061756374696f6e2068617320656e646564000000000000000000000000602082015250565b6000611116603483610dde565b9150611121826110ba565b604082019050919050565b6000602082019050818103600083015261114581611109565b9050919050565b600081905092915050565b50565b600061116760008361114c565b915061117282611157565b600082019050919050565b60006111888261115a565b9150819050919050565b7f4f6e6c79204e4654206f776e65722063616e20656e642061756374696f6e0000600082015250565b60006111c8601e83610dde565b91506111d382611192565b602082019050919050565b600060208201905081810360008301526111f7816111bb565b9050919050565b60008151905061120d81610d85565b92915050565b600061121e82610c90565b9050919050565b61122e81611213565b811461123957600080fd5b50565b60008151905061124b81611225565b92915050565b6000806040838503121561126857611267610c8b565b5b6000611276858286016111fe565b92505060206112878582860161123c565b9150509250929050565b600061129c82610d1b565b91506112a783610d1b565b92508282026112b581610d1b565b915082820484148315176112cc576112cb611011565b5b5092915050565b7f4e487b7100000000000000000000000000000000000000000000000000000000600052601260045260246000fd5b600061130d82610d1b565b915061131883610d1b565b925082611328576113276112d3565b5b828204905092915050565b600061133e82610d1b565b915061134983610d1b565b925082820390508181111561136157611360611011565b5b92915050565b7f4661696c656420746f2073656e6420457468657220746f207468652073656c6c60008201527f6572000000000000000000000000000000000000000000000000000000000000602082015250565b60006113c3602283610dde565b91506113ce82611367565b604082019050919050565b600060208201905081810360008301526113f2816113b6565b9050919050565b7f4661696c656420746f2073656e6420726f79616c7469657320746f206f72696760008201527f696e616c206f776e657200000000000000000000000000000000000000000000602082015250565b6000611455602a83610dde565b9150611460826113f9565b604082019050919050565b6000602082019050818103600083015261148481611448565b9050919050565b7f4661696c656420746f2073656e64206665657320746f206d61726b6574706c6160008201527f636520636f6e7472616374000000000000000000000000000000000000000000602082015250565b60006114e7602b83610dde565b91506114f28261148b565b604082019050919050565b60006020820190508181036000830152611516816114da565b9050919050565b6000819050919050565b600061154261153d61153884610c90565b61151d565b610c90565b9050919050565b600061155482611527565b9050919050565b600061156682611549565b9050919050565b6115768161155b565b82525050565b60006040820190506115916000830185610d25565b61159e602083018461156d565b9392505050565b600060c0820190506115ba6000830189611074565b6115c76020830188610d25565b6115d46040830187610d25565b6115e1606083018661156d565b6115ee6080830185610d25565b6115fb60a0830184610d25565b979650505050505050565b7f5265656e7472616e637947756172643a207265656e7472616e742063616c6c00600082015250565b600061163c601f83610dde565b915061164782611606565b602082019050919050565b6000602082019050818103600083015261166b8161162f565b9050919050565b7f4e487b7100000000000000000000000000000000000000000000000000000000600052605160045260246000fdfea2646970667358221220c1ff90599cb97a41d310b496922138d121d90befe5b4ae3065d2ab0d265b0ec264736f6c63430008130033",
  "linkReferences": {},
  "deployedLinkReferences": {}
}