{"contracts/AuctionFactory.sol":{"AuctionFactory":{"abi":[{"inputs":[{"internalType":"address","name":"_marketplaceAddress","type":"address"}],"stateMutability":"nonpayable","type":"constructor"},{"anonymous":false,"inputs":[{"indexed":false,"internalType":"uint256","name":"nftId","type":"uint256"},{"indexed":false,"internalType":"uint256","name":"startingPrice","type":"uint256"},{"indexed":false,"internalType":"uint256","name":"startTime","type":"uint256"},{"indexed":false,"internalType":"uint256","name":"auctionDuration","type":"uint256"},{"indexed":false,"internalType":"address","name":"seller","type":"address"},{"indexed":false,"internalType":"address","name":"auctionAddress","type":"address"}],"name":"AuctionCreated","type":"event"},{"inputs":[{"internalType":"uint256","name":"","type":"uint256"}],"name":"auctions","outputs":[{"internalType":"address","name":"auctionAddress","type":"address"},{"internalType":"uint256","name":"nftId","type":"uint256"},{"internalType":"uint256","name":"startingPrice","type":"uint256"},{"internalType":"uint256","name":"startTime","type":"uint256"},{"internalType":"uint256","name":"auctionDuration","type":"uint256"},{"internalType":"address","name":"seller","type":"address"},{"internalType":"bool","name":"active","type":"bool"}],"stateMutability":"view","type":"function"},{"inputs":[{"internalType":"uint256","name":"nftId","type":"uint256"}],"name":"changeActiveStatus","outputs":[],"stateMutability":"nonpayable","type":"function"},{"inputs":[{"internalType":"uint256","name":"startingPrice","type":"uint256"},{"internalType":"uint256","name":"auctionDuration","type":"uint256"},{"internalType":"uint256","name":"nftId","type":"uint256"},{"internalType":"address","name":"seller","type":"address"}],"name":"createAuction","outputs":[],"stateMutability":"nonpayable","type":"function"},{"inputs":[],"name":"getActiveAuctionIds","outputs":[{"internalType":"uint256[]","name":"","type":"uint256[]"}],"stateMutability":"view","type":"function"}],"evm":{"bytecode":{"linkReferences":{},"object":"608060405234801561001057600080fd5b5060405162002c1038038062002c1083398181016040528101906100349190610160565b33600360006101000a81548173ffffffffffffffffffffffffffffffffffffffff021916908373ffffffffffffffffffffffffffffffffffffffff16021790555080600460006101000a81548173ffffffffffffffffffffffffffffffffffffffff021916908373ffffffffffffffffffffffffffffffffffffffff16021790555080600560006101000a81548173ffffffffffffffffffffffffffffffffffffffff021916908373ffffffffffffffffffffffffffffffffffffffff1602179055505061018d565b600080fd5b600073ffffffffffffffffffffffffffffffffffffffff82169050919050565b600061012d82610102565b9050919050565b61013d81610122565b811461014857600080fd5b50565b60008151905061015a81610134565b92915050565b600060208284031215610176576101756100fd565b5b60006101848482850161014b565b91505092915050565b612a73806200019d6000396000f3fe60806040523480156200001157600080fd5b5060043610620000525760003560e01c8063571a26a01462000057578063819c9e4c1462000093578063a75654d914620000b3578063fdc5f3d114620000d3575b600080fd5b6200007560048036038101906200006f919062000797565b620000f5565b6040516200008a97969594939291906200083c565b60405180910390f35b620000b16004803603810190620000ab9190620008ea565b62000184565b005b620000d16004803603810190620000cb919062000797565b620005b1565b005b620000dd620005fa565b604051620000ec919062000a2a565b60405180910390f35b60066020528060005260406000206000915090508060000160009054906101000a900473ffffffffffffffffffffffffffffffffffffffff16908060010154908060020154908060030154908060040154908060050160009054906101000a900473ffffffffffffffffffffffffffffffffffffffff16908060050160149054906101000a900460ff16905087565b600073ffffffffffffffffffffffffffffffffffffffff168173ffffffffffffffffffffffffffffffffffffffff1603620001f6576040517f08c379a0000000000000000000000000000000000000000000000000000000008152600401620001ed9062000aaf565b60405180910390fd5b600084116200023c576040517f08c379a0000000000000000000000000000000000000000000000000000000008152600401620002339062000b47565b60405180910390fd5b600073ffffffffffffffffffffffffffffffffffffffff166006600084815260200190815260200160002060050160009054906101000a900473ffffffffffffffffffffffffffffffffffffffff1673ffffffffffffffffffffffffffffffffffffffff1614620002e4576040517f08c379a0000000000000000000000000000000000000000000000000000000008152600401620002db9062000bdf565b60405180910390fd5b60004290506000838684600460009054906101000a900473ffffffffffffffffffffffffffffffffffffffff1630604051620003209062000749565b6200033095949392919062000c01565b604051809103906000f0801580156200034d573d6000803e3d6000fd5b5090506040518060e001604052808273ffffffffffffffffffffffffffffffffffffffff1681526020018581526020018781526020014281526020018681526020018473ffffffffffffffffffffffffffffffffffffffff168152602001600115158152506006600086815260200190815260200160002060008201518160000160006101000a81548173ffffffffffffffffffffffffffffffffffffffff021916908373ffffffffffffffffffffffffffffffffffffffff1602179055506020820151816001015560408201518160020155606082015181600301556080820151816004015560a08201518160050160006101000a81548173ffffffffffffffffffffffffffffffffffffffff021916908373ffffffffffffffffffffffffffffffffffffffff16021790555060c08201518160050160146101000a81548160ff021916908315150217905550905050600560009054906101000a900473ffffffffffffffffffffffffffffffffffffffff1673ffffffffffffffffffffffffffffffffffffffff16636b52d83285886040518363ffffffff1660e01b8152600401620004fd92919062000c5e565b600060405180830381600087803b1580156200051857600080fd5b505af11580156200052d573d6000803e3d6000fd5b505050506200053d600062000654565b60028490806001815401808255809150506001900390600052602060002001600090919091909150557fedab571cba7475c1ac2b5fd955153bf28aaf5f5492ef6100a32d4f20f7edc74e848784888786604051620005a19695949392919062000c8b565b60405180910390a1505050505050565b60006006600083815260200190815260200160002060050160146101000a81548160ff021916908315150217905550620005eb816200066a565b620005f7600162000654565b50565b606060028054806020026020016040519081016040528092919081815260200182805480156200064a57602002820191906000526020600020905b81548152602001906001019080831162000635575b5050505050905090565b6001816000016000828254019250508190555050565b60005b6002805490508110156200074557816002828154811062000693576200069262000cf8565b5b9060005260206000200154036200072f5760026001600280549050620006ba919062000d56565b81548110620006ce57620006cd62000cf8565b5b906000526020600020015460028281548110620006f057620006ef62000cf8565b5b9060005260206000200181905550600280548062000713576200071262000d91565b5b6001900381819060005260206000200160009055905562000745565b80806200073c9062000dc0565b9150506200066d565b5050565b611c308062000e0e83390190565b600080fd5b6000819050919050565b62000771816200075c565b81146200077d57600080fd5b50565b600081359050620007918162000766565b92915050565b600060208284031215620007b057620007af62000757565b5b6000620007c08482850162000780565b91505092915050565b600073ffffffffffffffffffffffffffffffffffffffff82169050919050565b6000620007f682620007c9565b9050919050565b6200080881620007e9565b82525050565b62000819816200075c565b82525050565b60008115159050919050565b62000836816200081f565b82525050565b600060e08201905062000853600083018a620007fd565b6200086260208301896200080e565b6200087160408301886200080e565b6200088060608301876200080e565b6200088f60808301866200080e565b6200089e60a0830185620007fd565b620008ad60c08301846200082b565b98975050505050505050565b620008c481620007e9565b8114620008d057600080fd5b50565b600081359050620008e481620008b9565b92915050565b6000806000806080858703121562000907576200090662000757565b5b6000620009178782880162000780565b94505060206200092a8782880162000780565b93505060406200093d8782880162000780565b92505060606200095087828801620008d3565b91505092959194509250565b600081519050919050565b600082825260208201905092915050565b6000819050602082019050919050565b62000993816200075c565b82525050565b6000620009a7838362000988565b60208301905092915050565b6000602082019050919050565b6000620009cd826200095c565b620009d9818562000967565b9350620009e68362000978565b8060005b8381101562000a1d57815162000a01888262000999565b975062000a0e83620009b3565b925050600181019050620009ea565b5085935050505092915050565b6000602082019050818103600083015262000a468184620009c0565b905092915050565b600082825260208201905092915050565b7f496e76616c69642073656c6c6572206164647265737300000000000000000000600082015250565b600062000a9760168362000a4e565b915062000aa48262000a5f565b602082019050919050565b6000602082019050818103600083015262000aca8162000a88565b9050919050565b7f5374617274696e67207072696365206d757374206265206174206c656173742060008201527f3120776569000000000000000000000000000000000000000000000000000000602082015250565b600062000b2f60258362000a4e565b915062000b3c8262000ad1565b604082019050919050565b6000602082019050818103600083015262000b628162000b20565b9050919050565b7f41756374696f6e20666f722074686973206e667420616c72656164792065786960008201527f7374730000000000000000000000000000000000000000000000000000000000602082015250565b600062000bc760238362000a4e565b915062000bd48262000b69565b604082019050919050565b6000602082019050818103600083015262000bfa8162000bb8565b9050919050565b600060a08201905062000c1860008301886200080e565b62000c2760208301876200080e565b62000c366040830186620007fd565b62000c456060830185620007fd565b62000c546080830184620007fd565b9695505050505050565b600060408201905062000c7560008301856200080e565b62000c8460208301846200080e565b9392505050565b600060c08201905062000ca260008301896200080e565b62000cb160208301886200080e565b62000cc060408301876200080e565b62000ccf60608301866200080e565b62000cde6080830185620007fd565b62000ced60a0830184620007fd565b979650505050505050565b7f4e487b7100000000000000000000000000000000000000000000000000000000600052603260045260246000fd5b7f4e487b7100000000000000000000000000000000000000000000000000000000600052601160045260246000fd5b600062000d63826200075c565b915062000d70836200075c565b925082820390508181111562000d8b5762000d8a62000d27565b5b92915050565b7f4e487b7100000000000000000000000000000000000000000000000000000000600052603160045260246000fd5b600062000dcd826200075c565b91507fffffffffffffffffffffffffffffffffffffffffffffffffffffffffffffffff820362000e025762000e0162000d27565b5b60018201905091905056fe60806040523480156200001157600080fd5b5060405162001c3038038062001c30833981810160405281019062000037919062000382565b6001600081905550620000886040518060400160405280601e81526020017f41756374696f6e20636f6e747261637420696e697469616c697a65643a200000815250868587620001c760201b60201c565b81600260006101000a81548173ffffffffffffffffffffffffffffffffffffffff021916908373ffffffffffffffffffffffffffffffffffffffff160217905550600260009054906101000a900473ffffffffffffffffffffffffffffffffffffffff16600360006101000a81548173ffffffffffffffffffffffffffffffffffffffff021916908373ffffffffffffffffffffffffffffffffffffffff16021790555080600460006101000a81548173ffffffffffffffffffffffffffffffffffffffff021916908373ffffffffffffffffffffffffffffffffffffffff1602179055508460018190555082600560006101000a81548173ffffffffffffffffffffffffffffffffffffffff021916908373ffffffffffffffffffffffffffffffffffffffff16021790555083600681905550505050505062000549565b6200026d84848484604051602401620001e49493929190620004c6565b6040516020818303038152906040527f4f04fdc6000000000000000000000000000000000000000000000000000000007bffffffffffffffffffffffffffffffffffffffffffffffffffffffff19166020820180517bffffffffffffffffffffffffffffffffffffffffffffffffffffffff83818316178352505050506200027360201b60201c565b50505050565b6200029981620002946200029c60201b62000c0717620002bd60201b60201c565b60201c565b50565b60006a636f6e736f6c652e6c6f679050600080835160208501845afa505050565b620002d160201b62000c8117819050919050565b620002db6200051a565b565b600080fd5b6000819050919050565b620002f781620002e2565b81146200030357600080fd5b50565b6000815190506200031781620002ec565b92915050565b600073ffffffffffffffffffffffffffffffffffffffff82169050919050565b60006200034a826200031d565b9050919050565b6200035c816200033d565b81146200036857600080fd5b50565b6000815190506200037c8162000351565b92915050565b600080600080600060a08688031215620003a157620003a0620002dd565b5b6000620003b18882890162000306565b9550506020620003c48882890162000306565b9450506040620003d7888289016200036b565b9350506060620003ea888289016200036b565b9250506080620003fd888289016200036b565b9150509295509295909350565b600081519050919050565b600082825260208201905092915050565b60005b838110156200044657808201518184015260208101905062000429565b60008484015250505050565b6000601f19601f8301169050919050565b600062000470826200040a565b6200047c818562000415565b93506200048e81856020860162000426565b620004998162000452565b840191505092915050565b620004af81620002e2565b82525050565b620004c0816200033d565b82525050565b60006080820190508181036000830152620004e2818762000463565b9050620004f36020830186620004a4565b620005026040830185620004b5565b620005116060830184620004a4565b95945050505050565b7f4e487b7100000000000000000000000000000000000000000000000000000000600052605160045260246000fd5b6116d780620005596000396000f3fe60806040526004361061003f5760003560e01c80631998aeef1461004457806326b387bb1461004e5780633ccfd60b1461008b578063b9a2de3a146100b6575b600080fd5b61004c6100df565b005b34801561005a57600080fd5b5061007560048036038101906100709190610cee565b6103a2565b6040516100829190610d34565b60405180910390f35b34801561009757600080fd5b506100a06103ba565b6040516100ad9190610d6a565b60405180910390f35b3480156100c257600080fd5b506100dd60048036038101906100d89190610db1565b61056f565b005b6100e7610c28565b3373ffffffffffffffffffffffffffffffffffffffff16600560009054906101000a900473ffffffffffffffffffffffffffffffffffffffff1673ffffffffffffffffffffffffffffffffffffffff1603610177576040517f08c379a000000000000000000000000000000000000000000000000000000000815260040161016e90610e61565b60405180910390fd5b6006543410156101bc576040517f08c379a00000000000000000000000000000000000000000000000000000000081526004016101b390610ef3565b60405180910390fd5b6008543411610200576040517f08c379a00000000000000000000000000000000000000000000000000000000081526004016101f790610f85565b60405180910390fd5b3373ffffffffffffffffffffffffffffffffffffffff16600760009054906101000a900473ffffffffffffffffffffffffffffffffffffffff1673ffffffffffffffffffffffffffffffffffffffff1603610290576040517f08c379a000000000000000000000000000000000000000000000000000000000815260040161028790610ff1565b60405180910390fd5b60006008541461031557600854600a6000600760009054906101000a900473ffffffffffffffffffffffffffffffffffffffff1673ffffffffffffffffffffffffffffffffffffffff1673ffffffffffffffffffffffffffffffffffffffff168152602001908152602001600020600082825461030d9190611040565b925050819055505b3460088190555033600760006101000a81548173ffffffffffffffffffffffffffffffffffffffff021916908373ffffffffffffffffffffffffffffffffffffffff1602179055507f13692bed0518bbe01c8a2b50a32f14d0d4abaa43dce4da7af1814182ee64431733343060405161039093929190611083565b60405180910390a16103a0610c77565b565b600a6020528060005260406000206000915090505481565b600060011515600960009054906101000a900460ff16151514610412576040517f08c379a00000000000000000000000000000000000000000000000000000000081526004016104099061112c565b60405180910390fd5b6000600a60003373ffffffffffffffffffffffffffffffffffffffff1673ffffffffffffffffffffffffffffffffffffffff1681526020019081526020016000205490506000811115610566576000600a60003373ffffffffffffffffffffffffffffffffffffffff1673ffffffffffffffffffffffffffffffffffffffff1681526020019081526020016000208190555060003373ffffffffffffffffffffffffffffffffffffffff16826040516104ca9061117d565b60006040518083038185875af1925050503d8060008114610507576040519150601f19603f3d011682016040523d82523d6000602084013e61050c565b606091505b50509050806105645781600a60003373ffffffffffffffffffffffffffffffffffffffff1673ffffffffffffffffffffffffffffffffffffffff1681526020019081526020016000208190555060009250505061056c565b505b60019150505b90565b610577610c28565b600560009054906101000a900473ffffffffffffffffffffffffffffffffffffffff1673ffffffffffffffffffffffffffffffffffffffff163373ffffffffffffffffffffffffffffffffffffffff1614610607576040517f08c379a00000000000000000000000000000000000000000000000000000000081526004016105fe906111de565b60405180910390fd5b600080600360009054906101000a900473ffffffffffffffffffffffffffffffffffffffff1673ffffffffffffffffffffffffffffffffffffffff1663a65ff74c846040518263ffffffff1660e01b81526004016106659190610d34565b6040805180830381865afa158015610681573d6000803e3d6000fd5b505050506040513d601f19601f820116820180604052508101906106a59190611251565b91509150600073ffffffffffffffffffffffffffffffffffffffff16600760009054906101000a900473ffffffffffffffffffffffffffffffffffffffff1673ffffffffffffffffffffffffffffffffffffffff1614610adf5760006064836008546107119190611291565b61071b9190611302565b905060008160085461072d9190611333565b90506000606460026008546107429190611291565b61074c9190611302565b90506000600560009054906101000a900473ffffffffffffffffffffffffffffffffffffffff1673ffffffffffffffffffffffffffffffffffffffff16836040516107969061117d565b60006040518083038185875af1925050503d80600081146107d3576040519150601f19603f3d011682016040523d82523d6000602084013e6107d8565b606091505b505090508061081c576040517f08c379a0000000000000000000000000000000000000000000000000000000008152600401610813906113d9565b60405180910390fd5b60008573ffffffffffffffffffffffffffffffffffffffff16856040516108429061117d565b60006040518083038185875af1925050503d806000811461087f576040519150601f19603f3d011682016040523d82523d6000602084013e610884565b606091505b50509050806108c8576040517f08c379a00000000000000000000000000000000000000000000000000000000081526004016108bf9061146b565b60405180910390fd5b6000600260009054906101000a900473ffffffffffffffffffffffffffffffffffffffff1673ffffffffffffffffffffffffffffffffffffffff16846040516109109061117d565b60006040518083038185875af1925050503d806000811461094d576040519150601f19603f3d011682016040523d82523d6000602084013e610952565b606091505b5050905080610996576040517f08c379a000000000000000000000000000000000000000000000000000000000815260040161098d906114fd565b60405180910390fd5b600360009054906101000a900473ffffffffffffffffffffffffffffffffffffffff1673ffffffffffffffffffffffffffffffffffffffff16638f329b318a600760009054906101000a900473ffffffffffffffffffffffffffffffffffffffff166040518363ffffffff1660e01b8152600401610a1592919061157c565b600060405180830381600087803b158015610a2f57600080fd5b505af1158015610a43573d6000803e3d6000fd5b50505050600460009054906101000a900473ffffffffffffffffffffffffffffffffffffffff1673ffffffffffffffffffffffffffffffffffffffff1663a75654d98a6040518263ffffffff1660e01b8152600401610aa29190610d34565b600060405180830381600087803b158015610abc57600080fd5b505af1158015610ad0573d6000803e3d6000fd5b50505050505050505050610b91565b600360009054906101000a900473ffffffffffffffffffffffffffffffffffffffff1673ffffffffffffffffffffffffffffffffffffffff16638f329b3184600560009054906101000a900473ffffffffffffffffffffffffffffffffffffffff166040518363ffffffff1660e01b8152600401610b5e92919061157c565b600060405180830381600087803b158015610b7857600080fd5b505af1158015610b8c573d6000803e3d6000fd5b505050505b7f93de927ed018f9abbaa00feee71bdae41a752a7b21d3390a039807f8a6870e943042600154600560009054906101000a900473ffffffffffffffffffffffffffffffffffffffff16600654600854604051610bf2969594939291906115a5565b60405180910390a15050610c04610c77565b50565b60006a636f6e736f6c652e6c6f679050600080835160208501845afa505050565b600260005403610c6d576040517f08c379a0000000000000000000000000000000000000000000000000000000008152600401610c6490611652565b60405180910390fd5b6002600081905550565b6001600081905550565b610c89611672565b565b600080fd5b600073ffffffffffffffffffffffffffffffffffffffff82169050919050565b6000610cbb82610c90565b9050919050565b610ccb81610cb0565b8114610cd657600080fd5b50565b600081359050610ce881610cc2565b92915050565b600060208284031215610d0457610d03610c8b565b5b6000610d1284828501610cd9565b91505092915050565b6000819050919050565b610d2e81610d1b565b82525050565b6000602082019050610d496000830184610d25565b92915050565b60008115159050919050565b610d6481610d4f565b82525050565b6000602082019050610d7f6000830184610d5b565b92915050565b610d8e81610d1b565b8114610d9957600080fd5b50565b600081359050610dab81610d85565b92915050565b600060208284031215610dc757610dc6610c8b565b5b6000610dd584828501610d9c565b91505092915050565b600082825260208201905092915050565b7f53656c6c65722063616e6e6f7420626964206f6e207468656972206f776e206160008201527f756374696f6e0000000000000000000000000000000000000000000000000000602082015250565b6000610e4b602683610dde565b9150610e5682610def565b604082019050919050565b60006020820190508181036000830152610e7a81610e3e565b9050919050565b7f426964206d7573742062652067726561746572207468616e206f72206571756160008201527f6c20746f207374617274696e6720707269636500000000000000000000000000602082015250565b6000610edd603383610dde565b9150610ee882610e81565b604082019050919050565b60006020820190508181036000830152610f0c81610ed0565b9050919050565b7f426964206d7573742062652067726561746572207468616e2063757272656e7460008201527f2068696768657374206269640000000000000000000000000000000000000000602082015250565b6000610f6f602c83610dde565b9150610f7a82610f13565b604082019050919050565b60006020820190508181036000830152610f9e81610f62565b9050919050565b7f42696464657220697320616c7265616479206869676865737420626964646572600082015250565b6000610fdb602083610dde565b9150610fe682610fa5565b602082019050919050565b6000602082019050818103600083015261100a81610fce565b9050919050565b7f4e487b7100000000000000000000000000000000000000000000000000000000600052601160045260246000fd5b600061104b82610d1b565b915061105683610d1b565b925082820190508082111561106e5761106d611011565b5b92915050565b61107d81610cb0565b82525050565b60006060820190506110986000830186611074565b6110a56020830185610d25565b6110b26040830184611074565b949350505050565b7f557365722063616e206f6e6c792077697468647261772066756e64732061667460008201527f65722061756374696f6e2068617320656e646564000000000000000000000000602082015250565b6000611116603483610dde565b9150611121826110ba565b604082019050919050565b6000602082019050818103600083015261114581611109565b9050919050565b600081905092915050565b50565b600061116760008361114c565b915061117282611157565b600082019050919050565b60006111888261115a565b9150819050919050565b7f4f6e6c79204e4654206f776e65722063616e20656e642061756374696f6e0000600082015250565b60006111c8601e83610dde565b91506111d382611192565b602082019050919050565b600060208201905081810360008301526111f7816111bb565b9050919050565b60008151905061120d81610d85565b92915050565b600061121e82610c90565b9050919050565b61122e81611213565b811461123957600080fd5b50565b60008151905061124b81611225565b92915050565b6000806040838503121561126857611267610c8b565b5b6000611276858286016111fe565b92505060206112878582860161123c565b9150509250929050565b600061129c82610d1b565b91506112a783610d1b565b92508282026112b581610d1b565b915082820484148315176112cc576112cb611011565b5b5092915050565b7f4e487b7100000000000000000000000000000000000000000000000000000000600052601260045260246000fd5b600061130d82610d1b565b915061131883610d1b565b925082611328576113276112d3565b5b828204905092915050565b600061133e82610d1b565b915061134983610d1b565b925082820390508181111561136157611360611011565b5b92915050565b7f4661696c656420746f2073656e6420457468657220746f207468652073656c6c60008201527f6572000000000000000000000000000000000000000000000000000000000000602082015250565b60006113c3602283610dde565b91506113ce82611367565b604082019050919050565b600060208201905081810360008301526113f2816113b6565b9050919050565b7f4661696c656420746f2073656e6420726f79616c7469657320746f206f72696760008201527f696e616c206f776e657200000000000000000000000000000000000000000000602082015250565b6000611455602a83610dde565b9150611460826113f9565b604082019050919050565b6000602082019050818103600083015261148481611448565b9050919050565b7f4661696c656420746f2073656e64206665657320746f206d61726b6574706c6160008201527f636520636f6e7472616374000000000000000000000000000000000000000000602082015250565b60006114e7602b83610dde565b91506114f28261148b565b604082019050919050565b60006020820190508181036000830152611516816114da565b9050919050565b6000819050919050565b600061154261153d61153884610c90565b61151d565b610c90565b9050919050565b600061155482611527565b9050919050565b600061156682611549565b9050919050565b6115768161155b565b82525050565b60006040820190506115916000830185610d25565b61159e602083018461156d565b9392505050565b600060c0820190506115ba6000830189611074565b6115c76020830188610d25565b6115d46040830187610d25565b6115e1606083018661156d565b6115ee6080830185610d25565b6115fb60a0830184610d25565b979650505050505050565b7f5265656e7472616e637947756172643a207265656e7472616e742063616c6c00600082015250565b600061163c601f83610dde565b915061164782611606565b602082019050919050565b6000602082019050818103600083015261166b8161162f565b9050919050565b7f4e487b7100000000000000000000000000000000000000000000000000000000600052605160045260246000fdfea2646970667358221220c1ff90599cb97a41d310b496922138d121d90befe5b4ae3065d2ab0d265b0ec264736f6c63430008130033a2646970667358221220f18529f647ad76aed49639b52e44670fcf8c69067f4323766b963e887a3e7e8064736f6c63430008130033","opcodes":"PUSH1 0x80 PUSH1 0x40 MSTORE CALLVALUE DUP1 ISZERO PUSH2 0x10 JUMPI PUSH1 0x0 DUP1 REVERT JUMPDEST POP PUSH1 0x40 MLOAD PUSH3 0x2C10 CODESIZE SUB DUP1 PUSH3 0x2C10 DUP4 CODECOPY DUP2 DUP2 ADD PUSH1 0x40 MSTORE DUP2 ADD SWAP1 PUSH2 0x34 SWAP2 SWAP1 PUSH2 0x160 JUMP JUMPDEST CALLER PUSH1 0x3 PUSH1 0x0 PUSH2 0x100 EXP DUP2 SLOAD DUP2 PUSH20 0xFFFFFFFFFFFFFFFFFFFFFFFFFFFFFFFFFFFFFFFF MUL NOT AND SWAP1 DUP4 PUSH20 0xFFFFFFFFFFFFFFFFFFFFFFFFFFFFFFFFFFFFFFFF AND MUL OR SWAP1 SSTORE POP DUP1 PUSH1 0x4 PUSH1 0x0 PUSH2 0x100 EXP DUP2 SLOAD DUP2 PUSH20 0xFFFFFFFFFFFFFFFFFFFFFFFFFFFFFFFFFFFFFFFF MUL NOT AND SWAP1 DUP4 PUSH20 0xFFFFFFFFFFFFFFFFFFFFFFFFFFFFFFFFFFFFFFFF AND MUL OR SWAP1 SSTORE POP DUP1 PUSH1 0x5 PUSH1 0x0 PUSH2 0x100 EXP DUP2 SLOAD DUP2 PUSH20 0xFFFFFFFFFFFFFFFFFFFFFFFFFFFFFFFFFFFFFFFF MUL NOT AND SWAP1 DUP4 PUSH20 0xFFFFFFFFFFFFFFFFFFFFFFFFFFFFFFFFFFFFFFFF AND MUL OR SWAP1 SSTORE POP POP PUSH2 0x18D JUMP JUMPDEST PUSH1 0x0 DUP1 REVERT JUMPDEST PUSH1 0x0 PUSH20 0xFFFFFFFFFFFFFFFFFFFFFFFFFFFFFFFFFFFFFFFF DUP3 AND SWAP1 POP SWAP2 SWAP1 POP JUMP JUMPDEST PUSH1 0x0 PUSH2 0x12D DUP3 PUSH2 0x102 JUMP JUMPDEST SWAP1 POP SWAP2 SWAP1 POP JUMP JUMPDEST PUSH2 0x13D DUP2 PUSH2 0x122 JUMP JUMPDEST DUP2 EQ PUSH2 0x148 JUMPI PUSH1 0x0 DUP1 REVERT JUMPDEST POP JUMP JUMPDEST PUSH1 0x0 DUP2 MLOAD SWAP1 POP PUSH2 0x15A DUP2 PUSH2 0x134 JUMP JUMPDEST SWAP3 SWAP2 POP POP JUMP JUMPDEST PUSH1 0x0 PUSH1 0x20 DUP3 DUP5 SUB SLT ISZERO PUSH2 0x176 JUMPI PUSH2 0x175 PUSH2 0xFD JUMP JUMPDEST JUMPDEST PUSH1 0x0 PUSH2 0x184 DUP5 DUP3 DUP6 ADD PUSH2 0x14B JUMP JUMPDEST SWAP2 POP POP SWAP3 SWAP2 POP POP JUMP JUMPDEST PUSH2 0x2A73 DUP1 PUSH3 0x19D PUSH1 0x0 CODECOPY PUSH1 0x0 RETURN INVALID PUSH1 0x80 PUSH1 0x40 MSTORE CALLVALUE DUP1 ISZERO PUSH3 0x11 JUMPI PUSH1 0x0 DUP1 REVERT JUMPDEST POP PUSH1 0x4 CALLDATASIZE LT PUSH3 0x52 JUMPI PUSH1 0x0 CALLDATALOAD PUSH1 0xE0 SHR DUP1 PUSH4 0x571A26A0 EQ PUSH3 0x57 JUMPI DUP1 PUSH4 0x819C9E4C EQ PUSH3 0x93 JUMPI DUP1 PUSH4 0xA75654D9 EQ PUSH3 0xB3 JUMPI DUP1 PUSH4 0xFDC5F3D1 EQ PUSH3 0xD3 JUMPI JUMPDEST PUSH1 0x0 DUP1 REVERT JUMPDEST PUSH3 0x75 PUSH1 0x4 DUP1 CALLDATASIZE SUB DUP2 ADD SWAP1 PUSH3 0x6F SWAP2 SWAP1 PUSH3 0x797 JUMP JUMPDEST PUSH3 0xF5 JUMP JUMPDEST PUSH1 0x40 MLOAD PUSH3 0x8A SWAP8 SWAP7 SWAP6 SWAP5 SWAP4 SWAP3 SWAP2 SWAP1 PUSH3 0x83C JUMP JUMPDEST PUSH1 0x40 MLOAD DUP1 SWAP2 SUB SWAP1 RETURN JUMPDEST PUSH3 0xB1 PUSH1 0x4 DUP1 CALLDATASIZE SUB DUP2 ADD SWAP1 PUSH3 0xAB SWAP2 SWAP1 PUSH3 0x8EA JUMP JUMPDEST PUSH3 0x184 JUMP JUMPDEST STOP JUMPDEST PUSH3 0xD1 PUSH1 0x4 DUP1 CALLDATASIZE SUB DUP2 ADD SWAP1 PUSH3 0xCB SWAP2 SWAP1 PUSH3 0x797 JUMP JUMPDEST PUSH3 0x5B1 JUMP JUMPDEST STOP JUMPDEST PUSH3 0xDD PUSH3 0x5FA JUMP JUMPDEST PUSH1 0x40 MLOAD PUSH3 0xEC SWAP2 SWAP1 PUSH3 0xA2A JUMP JUMPDEST PUSH1 0x40 MLOAD DUP1 SWAP2 SUB SWAP1 RETURN JUMPDEST PUSH1 0x6 PUSH1 0x20 MSTORE DUP1 PUSH1 0x0 MSTORE PUSH1 0x40 PUSH1 0x0 KECCAK256 PUSH1 0x0 SWAP2 POP SWAP1 POP DUP1 PUSH1 0x0 ADD PUSH1 0x0 SWAP1 SLOAD SWAP1 PUSH2 0x100 EXP SWAP1 DIV PUSH20 0xFFFFFFFFFFFFFFFFFFFFFFFFFFFFFFFFFFFFFFFF AND SWAP1 DUP1 PUSH1 0x1 ADD SLOAD SWAP1 DUP1 PUSH1 0x2 ADD SLOAD SWAP1 DUP1 PUSH1 0x3 ADD SLOAD SWAP1 DUP1 PUSH1 0x4 ADD SLOAD SWAP1 DUP1 PUSH1 0x5 ADD PUSH1 0x0 SWAP1 SLOAD SWAP1 PUSH2 0x100 EXP SWAP1 DIV PUSH20 0xFFFFFFFFFFFFFFFFFFFFFFFFFFFFFFFFFFFFFFFF AND SWAP1 DUP1 PUSH1 0x5 ADD PUSH1 0x14 SWAP1 SLOAD SWAP1 PUSH2 0x100 EXP SWAP1 DIV PUSH1 0xFF AND SWAP1 POP DUP8 JUMP JUMPDEST PUSH1 0x0 PUSH20 0xFFFFFFFFFFFFFFFFFFFFFFFFFFFFFFFFFFFFFFFF AND DUP2 PUSH20 0xFFFFFFFFFFFFFFFFFFFFFFFFFFFFFFFFFFFFFFFF AND SUB PUSH3 0x1F6 JUMPI PUSH1 0x40 MLOAD PUSH32 0x8C379A000000000000000000000000000000000000000000000000000000000 DUP2 MSTORE PUSH1 0x4 ADD PUSH3 0x1ED SWAP1 PUSH3 0xAAF JUMP JUMPDEST PUSH1 0x40 MLOAD DUP1 SWAP2 SUB SWAP1 REVERT JUMPDEST PUSH1 0x0 DUP5 GT PUSH3 0x23C JUMPI PUSH1 0x40 MLOAD PUSH32 0x8C379A000000000000000000000000000000000000000000000000000000000 DUP2 MSTORE PUSH1 0x4 ADD PUSH3 0x233 SWAP1 PUSH3 0xB47 JUMP JUMPDEST PUSH1 0x40 MLOAD DUP1 SWAP2 SUB SWAP1 REVERT JUMPDEST PUSH1 0x0 PUSH20 0xFFFFFFFFFFFFFFFFFFFFFFFFFFFFFFFFFFFFFFFF AND PUSH1 0x6 PUSH1 0x0 DUP5 DUP2 MSTORE PUSH1 0x20 ADD SWAP1 DUP2 MSTORE PUSH1 0x20 ADD PUSH1 0x0 KECCAK256 PUSH1 0x5 ADD PUSH1 0x0 SWAP1 SLOAD SWAP1 PUSH2 0x100 EXP SWAP1 DIV PUSH20 0xFFFFFFFFFFFFFFFFFFFFFFFFFFFFFFFFFFFFFFFF AND PUSH20 0xFFFFFFFFFFFFFFFFFFFFFFFFFFFFFFFFFFFFFFFF AND EQ PUSH3 0x2E4 JUMPI PUSH1 0x40 MLOAD PUSH32 0x8C379A000000000000000000000000000000000000000000000000000000000 DUP2 MSTORE PUSH1 0x4 ADD PUSH3 0x2DB SWAP1 PUSH3 0xBDF JUMP JUMPDEST PUSH1 0x40 MLOAD DUP1 SWAP2 SUB SWAP1 REVERT JUMPDEST PUSH1 0x0 TIMESTAMP SWAP1 POP PUSH1 0x0 DUP4 DUP7 DUP5 PUSH1 0x4 PUSH1 0x0 SWAP1 SLOAD SWAP1 PUSH2 0x100 EXP SWAP1 DIV PUSH20 0xFFFFFFFFFFFFFFFFFFFFFFFFFFFFFFFFFFFFFFFF AND ADDRESS PUSH1 0x40 MLOAD PUSH3 0x320 SWAP1 PUSH3 0x749 JUMP JUMPDEST PUSH3 0x330 SWAP6 SWAP5 SWAP4 SWAP3 SWAP2 SWAP1 PUSH3 0xC01 JUMP JUMPDEST PUSH1 0x40 MLOAD DUP1 SWAP2 SUB SWAP1 PUSH1 0x0 CREATE DUP1 ISZERO DUP1 ISZERO PUSH3 0x34D JUMPI RETURNDATASIZE PUSH1 0x0 DUP1 RETURNDATACOPY RETURNDATASIZE PUSH1 0x0 REVERT JUMPDEST POP SWAP1 POP PUSH1 0x40 MLOAD DUP1 PUSH1 0xE0 ADD PUSH1 0x40 MSTORE DUP1 DUP3 PUSH20 0xFFFFFFFFFFFFFFFFFFFFFFFFFFFFFFFFFFFFFFFF AND DUP2 MSTORE PUSH1 0x20 ADD DUP6 DUP2 MSTORE PUSH1 0x20 ADD DUP8 DUP2 MSTORE PUSH1 0x20 ADD TIMESTAMP DUP2 MSTORE PUSH1 0x20 ADD DUP7 DUP2 MSTORE PUSH1 0x20 ADD DUP5 PUSH20 0xFFFFFFFFFFFFFFFFFFFFFFFFFFFFFFFFFFFFFFFF AND DUP2 MSTORE PUSH1 0x20 ADD PUSH1 0x1 ISZERO ISZERO DUP2 MSTORE POP PUSH1 0x6 PUSH1 0x0 DUP7 DUP2 MSTORE PUSH1 0x20 ADD SWAP1 DUP2 MSTORE PUSH1 0x20 ADD PUSH1 0x0 KECCAK256 PUSH1 0x0 DUP3 ADD MLOAD DUP2 PUSH1 0x0 ADD PUSH1 0x0 PUSH2 0x100 EXP DUP2 SLOAD DUP2 PUSH20 0xFFFFFFFFFFFFFFFFFFFFFFFFFFFFFFFFFFFFFFFF MUL NOT AND SWAP1 DUP4 PUSH20 0xFFFFFFFFFFFFFFFFFFFFFFFFFFFFFFFFFFFFFFFF AND MUL OR SWAP1 SSTORE POP PUSH1 0x20 DUP3 ADD MLOAD DUP2 PUSH1 0x1 ADD SSTORE PUSH1 0x40 DUP3 ADD MLOAD DUP2 PUSH1 0x2 ADD SSTORE PUSH1 0x60 DUP3 ADD MLOAD DUP2 PUSH1 0x3 ADD SSTORE PUSH1 0x80 DUP3 ADD MLOAD DUP2 PUSH1 0x4 ADD SSTORE PUSH1 0xA0 DUP3 ADD MLOAD DUP2 PUSH1 0x5 ADD PUSH1 0x0 PUSH2 0x100 EXP DUP2 SLOAD DUP2 PUSH20 0xFFFFFFFFFFFFFFFFFFFFFFFFFFFFFFFFFFFFFFFF MUL NOT AND SWAP1 DUP4 PUSH20 0xFFFFFFFFFFFFFFFFFFFFFFFFFFFFFFFFFFFFFFFF AND MUL OR SWAP1 SSTORE POP PUSH1 0xC0 DUP3 ADD MLOAD DUP2 PUSH1 0x5 ADD PUSH1 0x14 PUSH2 0x100 EXP DUP2 SLOAD DUP2 PUSH1 0xFF MUL NOT AND SWAP1 DUP4 ISZERO ISZERO MUL OR SWAP1 SSTORE POP SWAP1 POP POP PUSH1 0x5 PUSH1 0x0 SWAP1 SLOAD SWAP1 PUSH2 0x100 EXP SWAP1 DIV PUSH20 0xFFFFFFFFFFFFFFFFFFFFFFFFFFFFFFFFFFFFFFFF AND PUSH20 0xFFFFFFFFFFFFFFFFFFFFFFFFFFFFFFFFFFFFFFFF AND PUSH4 0x6B52D832 DUP6 DUP9 PUSH1 0x40 MLOAD DUP4 PUSH4 0xFFFFFFFF AND PUSH1 0xE0 SHL DUP2 MSTORE PUSH1 0x4 ADD PUSH3 0x4FD SWAP3 SWAP2 SWAP1 PUSH3 0xC5E JUMP JUMPDEST PUSH1 0x0 PUSH1 0x40 MLOAD DUP1 DUP4 SUB DUP2 PUSH1 0x0 DUP8 DUP1 EXTCODESIZE ISZERO DUP1 ISZERO PUSH3 0x518 JUMPI PUSH1 0x0 DUP1 REVERT JUMPDEST POP GAS CALL ISZERO DUP1 ISZERO PUSH3 0x52D JUMPI RETURNDATASIZE PUSH1 0x0 DUP1 RETURNDATACOPY RETURNDATASIZE PUSH1 0x0 REVERT JUMPDEST POP POP POP POP PUSH3 0x53D PUSH1 0x0 PUSH3 0x654 JUMP JUMPDEST PUSH1 0x2 DUP5 SWAP1 DUP1 PUSH1 0x1 DUP2 SLOAD ADD DUP1 DUP3 SSTORE DUP1 SWAP2 POP POP PUSH1 0x1 SWAP1 SUB SWAP1 PUSH1 0x0 MSTORE PUSH1 0x20 PUSH1 0x0 KECCAK256 ADD PUSH1 0x0 SWAP1 SWAP2 SWAP1 SWAP2 SWAP1 SWAP2 POP SSTORE PUSH32 0xEDAB571CBA7475C1AC2B5FD955153BF28AAF5F5492EF6100A32D4F20F7EDC74E DUP5 DUP8 DUP5 DUP9 DUP8 DUP7 PUSH1 0x40 MLOAD PUSH3 0x5A1 SWAP7 SWAP6 SWAP5 SWAP4 SWAP3 SWAP2 SWAP1 PUSH3 0xC8B JUMP JUMPDEST PUSH1 0x40 MLOAD DUP1 SWAP2 SUB SWAP1 LOG1 POP POP POP POP POP POP JUMP JUMPDEST PUSH1 0x0 PUSH1 0x6 PUSH1 0x0 DUP4 DUP2 MSTORE PUSH1 0x20 ADD SWAP1 DUP2 MSTORE PUSH1 0x20 ADD PUSH1 0x0 KECCAK256 PUSH1 0x5 ADD PUSH1 0x14 PUSH2 0x100 EXP DUP2 SLOAD DUP2 PUSH1 0xFF MUL NOT AND SWAP1 DUP4 ISZERO ISZERO MUL OR SWAP1 SSTORE POP PUSH3 0x5EB DUP2 PUSH3 0x66A JUMP JUMPDEST PUSH3 0x5F7 PUSH1 0x1 PUSH3 0x654 JUMP JUMPDEST POP JUMP JUMPDEST PUSH1 0x60 PUSH1 0x2 DUP1 SLOAD DUP1 PUSH1 0x20 MUL PUSH1 0x20 ADD PUSH1 0x40 MLOAD SWAP1 DUP2 ADD PUSH1 0x40 MSTORE DUP1 SWAP3 SWAP2 SWAP1 DUP2 DUP2 MSTORE PUSH1 0x20 ADD DUP3 DUP1 SLOAD DUP1 ISZERO PUSH3 0x64A JUMPI PUSH1 0x20 MUL DUP3 ADD SWAP2 SWAP1 PUSH1 0x0 MSTORE PUSH1 0x20 PUSH1 0x0 KECCAK256 SWAP1 JUMPDEST DUP2 SLOAD DUP2 MSTORE PUSH1 0x20 ADD SWAP1 PUSH1 0x1 ADD SWAP1 DUP1 DUP4 GT PUSH3 0x635 JUMPI JUMPDEST POP POP POP POP POP SWAP1 POP SWAP1 JUMP JUMPDEST PUSH1 0x1 DUP2 PUSH1 0x0 ADD PUSH1 0x0 DUP3 DUP3 SLOAD ADD SWAP3 POP POP DUP2 SWAP1 SSTORE POP POP JUMP JUMPDEST PUSH1 0x0 JUMPDEST PUSH1 0x2 DUP1 SLOAD SWAP1 POP DUP2 LT ISZERO PUSH3 0x745 JUMPI DUP2 PUSH1 0x2 DUP3 DUP2 SLOAD DUP2 LT PUSH3 0x693 JUMPI PUSH3 0x692 PUSH3 0xCF8 JUMP JUMPDEST JUMPDEST SWAP1 PUSH1 0x0 MSTORE PUSH1 0x20 PUSH1 0x0 KECCAK256 ADD SLOAD SUB PUSH3 0x72F JUMPI PUSH1 0x2 PUSH1 0x1 PUSH1 0x2 DUP1 SLOAD SWAP1 POP PUSH3 0x6BA SWAP2 SWAP1 PUSH3 0xD56 JUMP JUMPDEST DUP2 SLOAD DUP2 LT PUSH3 0x6CE JUMPI PUSH3 0x6CD PUSH3 0xCF8 JUMP JUMPDEST JUMPDEST SWAP1 PUSH1 0x0 MSTORE PUSH1 0x20 PUSH1 0x0 KECCAK256 ADD SLOAD PUSH1 0x2 DUP3 DUP2 SLOAD DUP2 LT PUSH3 0x6F0 JUMPI PUSH3 0x6EF PUSH3 0xCF8 JUMP JUMPDEST JUMPDEST SWAP1 PUSH1 0x0 MSTORE PUSH1 0x20 PUSH1 0x0 KECCAK256 ADD DUP2 SWAP1 SSTORE POP PUSH1 0x2 DUP1 SLOAD DUP1 PUSH3 0x713 JUMPI PUSH3 0x712 PUSH3 0xD91 JUMP JUMPDEST JUMPDEST PUSH1 0x1 SWAP1 SUB DUP2 DUP2 SWAP1 PUSH1 0x0 MSTORE PUSH1 0x20 PUSH1 0x0 KECCAK256 ADD PUSH1 0x0 SWAP1 SSTORE SWAP1 SSTORE PUSH3 0x745 JUMP JUMPDEST DUP1 DUP1 PUSH3 0x73C SWAP1 PUSH3 0xDC0 JUMP JUMPDEST SWAP2 POP POP PUSH3 0x66D JUMP JUMPDEST POP POP JUMP JUMPDEST PUSH2 0x1C30 DUP1 PUSH3 0xE0E DUP4 CODECOPY ADD SWAP1 JUMP JUMPDEST PUSH1 0x0 DUP1 REVERT JUMPDEST PUSH1 0x0 DUP2 SWAP1 POP SWAP2 SWAP1 POP JUMP JUMPDEST PUSH3 0x771 DUP2 PUSH3 0x75C JUMP JUMPDEST DUP2 EQ PUSH3 0x77D JUMPI PUSH1 0x0 DUP1 REVERT JUMPDEST POP JUMP JUMPDEST PUSH1 0x0 DUP2 CALLDATALOAD SWAP1 POP PUSH3 0x791 DUP2 PUSH3 0x766 JUMP JUMPDEST SWAP3 SWAP2 POP POP JUMP JUMPDEST PUSH1 0x0 PUSH1 0x20 DUP3 DUP5 SUB SLT ISZERO PUSH3 0x7B0 JUMPI PUSH3 0x7AF PUSH3 0x757 JUMP JUMPDEST JUMPDEST PUSH1 0x0 PUSH3 0x7C0 DUP5 DUP3 DUP6 ADD PUSH3 0x780 JUMP JUMPDEST SWAP2 POP POP SWAP3 SWAP2 POP POP JUMP JUMPDEST PUSH1 0x0 PUSH20 0xFFFFFFFFFFFFFFFFFFFFFFFFFFFFFFFFFFFFFFFF DUP3 AND SWAP1 POP SWAP2 SWAP1 POP JUMP JUMPDEST PUSH1 0x0 PUSH3 0x7F6 DUP3 PUSH3 0x7C9 JUMP JUMPDEST SWAP1 POP SWAP2 SWAP1 POP JUMP JUMPDEST PUSH3 0x808 DUP2 PUSH3 0x7E9 JUMP JUMPDEST DUP3 MSTORE POP POP JUMP JUMPDEST PUSH3 0x819 DUP2 PUSH3 0x75C JUMP JUMPDEST DUP3 MSTORE POP POP JUMP JUMPDEST PUSH1 0x0 DUP2 ISZERO ISZERO SWAP1 POP SWAP2 SWAP1 POP JUMP JUMPDEST PUSH3 0x836 DUP2 PUSH3 0x81F JUMP JUMPDEST DUP3 MSTORE POP POP JUMP JUMPDEST PUSH1 0x0 PUSH1 0xE0 DUP3 ADD SWAP1 POP PUSH3 0x853 PUSH1 0x0 DUP4 ADD DUP11 PUSH3 0x7FD JUMP JUMPDEST PUSH3 0x862 PUSH1 0x20 DUP4 ADD DUP10 PUSH3 0x80E JUMP JUMPDEST PUSH3 0x871 PUSH1 0x40 DUP4 ADD DUP9 PUSH3 0x80E JUMP JUMPDEST PUSH3 0x880 PUSH1 0x60 DUP4 ADD DUP8 PUSH3 0x80E JUMP JUMPDEST PUSH3 0x88F PUSH1 0x80 DUP4 ADD DUP7 PUSH3 0x80E JUMP JUMPDEST PUSH3 0x89E PUSH1 0xA0 DUP4 ADD DUP6 PUSH3 0x7FD JUMP JUMPDEST PUSH3 0x8AD PUSH1 0xC0 DUP4 ADD DUP5 PUSH3 0x82B JUMP JUMPDEST SWAP9 SWAP8 POP POP POP POP POP POP POP POP JUMP JUMPDEST PUSH3 0x8C4 DUP2 PUSH3 0x7E9 JUMP JUMPDEST DUP2 EQ PUSH3 0x8D0 JUMPI PUSH1 0x0 DUP1 REVERT JUMPDEST POP JUMP JUMPDEST PUSH1 0x0 DUP2 CALLDATALOAD SWAP1 POP PUSH3 0x8E4 DUP2 PUSH3 0x8B9 JUMP JUMPDEST SWAP3 SWAP2 POP POP JUMP JUMPDEST PUSH1 0x0 DUP1 PUSH1 0x0 DUP1 PUSH1 0x80 DUP6 DUP8 SUB SLT ISZERO PUSH3 0x907 JUMPI PUSH3 0x906 PUSH3 0x757 JUMP JUMPDEST JUMPDEST PUSH1 0x0 PUSH3 0x917 DUP8 DUP3 DUP9 ADD PUSH3 0x780 JUMP JUMPDEST SWAP5 POP POP PUSH1 0x20 PUSH3 0x92A DUP8 DUP3 DUP9 ADD PUSH3 0x780 JUMP JUMPDEST SWAP4 POP POP PUSH1 0x40 PUSH3 0x93D DUP8 DUP3 DUP9 ADD PUSH3 0x780 JUMP JUMPDEST SWAP3 POP POP PUSH1 0x60 PUSH3 0x950 DUP8 DUP3 DUP9 ADD PUSH3 0x8D3 JUMP JUMPDEST SWAP2 POP POP SWAP3 SWAP6 SWAP2 SWAP5 POP SWAP3 POP JUMP JUMPDEST PUSH1 0x0 DUP2 MLOAD SWAP1 POP SWAP2 SWAP1 POP JUMP JUMPDEST PUSH1 0x0 DUP3 DUP3 MSTORE PUSH1 0x20 DUP3 ADD SWAP1 POP SWAP3 SWAP2 POP POP JUMP JUMPDEST PUSH1 0x0 DUP2 SWAP1 POP PUSH1 0x20 DUP3 ADD SWAP1 POP SWAP2 SWAP1 POP JUMP JUMPDEST PUSH3 0x993 DUP2 PUSH3 0x75C JUMP JUMPDEST DUP3 MSTORE POP POP JUMP JUMPDEST PUSH1 0x0 PUSH3 0x9A7 DUP4 DUP4 PUSH3 0x988 JUMP JUMPDEST PUSH1 0x20 DUP4 ADD SWAP1 POP SWAP3 SWAP2 POP POP JUMP JUMPDEST PUSH1 0x0 PUSH1 0x20 DUP3 ADD SWAP1 POP SWAP2 SWAP1 POP JUMP JUMPDEST PUSH1 0x0 PUSH3 0x9CD DUP3 PUSH3 0x95C JUMP JUMPDEST PUSH3 0x9D9 DUP2 DUP6 PUSH3 0x967 JUMP JUMPDEST SWAP4 POP PUSH3 0x9E6 DUP4 PUSH3 0x978 JUMP JUMPDEST DUP1 PUSH1 0x0 JUMPDEST DUP4 DUP2 LT ISZERO PUSH3 0xA1D JUMPI DUP2 MLOAD PUSH3 0xA01 DUP9 DUP3 PUSH3 0x999 JUMP JUMPDEST SWAP8 POP PUSH3 0xA0E DUP4 PUSH3 0x9B3 JUMP JUMPDEST SWAP3 POP POP PUSH1 0x1 DUP2 ADD SWAP1 POP PUSH3 0x9EA JUMP JUMPDEST POP DUP6 SWAP4 POP POP POP POP SWAP3 SWAP2 POP POP JUMP JUMPDEST PUSH1 0x0 PUSH1 0x20 DUP3 ADD SWAP1 POP DUP2 DUP2 SUB PUSH1 0x0 DUP4 ADD MSTORE PUSH3 0xA46 DUP2 DUP5 PUSH3 0x9C0 JUMP JUMPDEST SWAP1 POP SWAP3 SWAP2 POP POP JUMP JUMPDEST PUSH1 0x0 DUP3 DUP3 MSTORE PUSH1 0x20 DUP3 ADD SWAP1 POP SWAP3 SWAP2 POP POP JUMP JUMPDEST PUSH32 0x496E76616C69642073656C6C6572206164647265737300000000000000000000 PUSH1 0x0 DUP3 ADD MSTORE POP JUMP JUMPDEST PUSH1 0x0 PUSH3 0xA97 PUSH1 0x16 DUP4 PUSH3 0xA4E JUMP JUMPDEST SWAP2 POP PUSH3 0xAA4 DUP3 PUSH3 0xA5F JUMP JUMPDEST PUSH1 0x20 DUP3 ADD SWAP1 POP SWAP2 SWAP1 POP JUMP JUMPDEST PUSH1 0x0 PUSH1 0x20 DUP3 ADD SWAP1 POP DUP2 DUP2 SUB PUSH1 0x0 DUP4 ADD MSTORE PUSH3 0xACA DUP2 PUSH3 0xA88 JUMP JUMPDEST SWAP1 POP SWAP2 SWAP1 POP JUMP JUMPDEST PUSH32 0x5374617274696E67207072696365206D757374206265206174206C6561737420 PUSH1 0x0 DUP3 ADD MSTORE PUSH32 0x3120776569000000000000000000000000000000000000000000000000000000 PUSH1 0x20 DUP3 ADD MSTORE POP JUMP JUMPDEST PUSH1 0x0 PUSH3 0xB2F PUSH1 0x25 DUP4 PUSH3 0xA4E JUMP JUMPDEST SWAP2 POP PUSH3 0xB3C DUP3 PUSH3 0xAD1 JUMP JUMPDEST PUSH1 0x40 DUP3 ADD SWAP1 POP SWAP2 SWAP1 POP JUMP JUMPDEST PUSH1 0x0 PUSH1 0x20 DUP3 ADD SWAP1 POP DUP2 DUP2 SUB PUSH1 0x0 DUP4 ADD MSTORE PUSH3 0xB62 DUP2 PUSH3 0xB20 JUMP JUMPDEST SWAP1 POP SWAP2 SWAP1 POP JUMP JUMPDEST PUSH32 0x41756374696F6E20666F722074686973206E667420616C726561647920657869 PUSH1 0x0 DUP3 ADD MSTORE PUSH32 0x7374730000000000000000000000000000000000000000000000000000000000 PUSH1 0x20 DUP3 ADD MSTORE POP JUMP JUMPDEST PUSH1 0x0 PUSH3 0xBC7 PUSH1 0x23 DUP4 PUSH3 0xA4E JUMP JUMPDEST SWAP2 POP PUSH3 0xBD4 DUP3 PUSH3 0xB69 JUMP JUMPDEST PUSH1 0x40 DUP3 ADD SWAP1 POP SWAP2 SWAP1 POP JUMP JUMPDEST PUSH1 0x0 PUSH1 0x20 DUP3 ADD SWAP1 POP DUP2 DUP2 SUB PUSH1 0x0 DUP4 ADD MSTORE PUSH3 0xBFA DUP2 PUSH3 0xBB8 JUMP JUMPDEST SWAP1 POP SWAP2 SWAP1 POP JUMP JUMPDEST PUSH1 0x0 PUSH1 0xA0 DUP3 ADD SWAP1 POP PUSH3 0xC18 PUSH1 0x0 DUP4 ADD DUP9 PUSH3 0x80E JUMP JUMPDEST PUSH3 0xC27 PUSH1 0x20 DUP4 ADD DUP8 PUSH3 0x80E JUMP JUMPDEST PUSH3 0xC36 PUSH1 0x40 DUP4 ADD DUP7 PUSH3 0x7FD JUMP JUMPDEST PUSH3 0xC45 PUSH1 0x60 DUP4 ADD DUP6 PUSH3 0x7FD JUMP JUMPDEST PUSH3 0xC54 PUSH1 0x80 DUP4 ADD DUP5 PUSH3 0x7FD JUMP JUMPDEST SWAP7 SWAP6 POP POP POP POP POP POP JUMP JUMPDEST PUSH1 0x0 PUSH1 0x40 DUP3 ADD SWAP1 POP PUSH3 0xC75 PUSH1 0x0 DUP4 ADD DUP6 PUSH3 0x80E JUMP JUMPDEST PUSH3 0xC84 PUSH1 0x20 DUP4 ADD DUP5 PUSH3 0x80E JUMP JUMPDEST SWAP4 SWAP3 POP POP POP JUMP JUMPDEST PUSH1 0x0 PUSH1 0xC0 DUP3 ADD SWAP1 POP PUSH3 0xCA2 PUSH1 0x0 DUP4 ADD DUP10 PUSH3 0x80E JUMP JUMPDEST PUSH3 0xCB1 PUSH1 0x20 DUP4 ADD DUP9 PUSH3 0x80E JUMP JUMPDEST PUSH3 0xCC0 PUSH1 0x40 DUP4 ADD DUP8 PUSH3 0x80E JUMP JUMPDEST PUSH3 0xCCF PUSH1 0x60 DUP4 ADD DUP7 PUSH3 0x80E JUMP JUMPDEST PUSH3 0xCDE PUSH1 0x80 DUP4 ADD DUP6 PUSH3 0x7FD JUMP JUMPDEST PUSH3 0xCED PUSH1 0xA0 DUP4 ADD DUP5 PUSH3 0x7FD JUMP JUMPDEST SWAP8 SWAP7 POP POP POP POP POP POP POP JUMP JUMPDEST PUSH32 0x4E487B7100000000000000000000000000000000000000000000000000000000 PUSH1 0x0 MSTORE PUSH1 0x32 PUSH1 0x4 MSTORE PUSH1 0x24 PUSH1 0x0 REVERT JUMPDEST PUSH32 0x4E487B7100000000000000000000000000000000000000000000000000000000 PUSH1 0x0 MSTORE PUSH1 0x11 PUSH1 0x4 MSTORE PUSH1 0x24 PUSH1 0x0 REVERT JUMPDEST PUSH1 0x0 PUSH3 0xD63 DUP3 PUSH3 0x75C JUMP JUMPDEST SWAP2 POP PUSH3 0xD70 DUP4 PUSH3 0x75C JUMP JUMPDEST SWAP3 POP DUP3 DUP3 SUB SWAP1 POP DUP2 DUP2 GT ISZERO PUSH3 0xD8B JUMPI PUSH3 0xD8A PUSH3 0xD27 JUMP JUMPDEST JUMPDEST SWAP3 SWAP2 POP POP JUMP JUMPDEST PUSH32 0x4E487B7100000000000000000000000000000000000000000000000000000000 PUSH1 0x0 MSTORE PUSH1 0x31 PUSH1 0x4 MSTORE PUSH1 0x24 PUSH1 0x0 REVERT JUMPDEST PUSH1 0x0 PUSH3 0xDCD DUP3 PUSH3 0x75C JUMP JUMPDEST SWAP2 POP PUSH32 0xFFFFFFFFFFFFFFFFFFFFFFFFFFFFFFFFFFFFFFFFFFFFFFFFFFFFFFFFFFFFFFFF DUP3 SUB PUSH3 0xE02 JUMPI PUSH3 0xE01 PUSH3 0xD27 JUMP JUMPDEST JUMPDEST PUSH1 0x1 DUP3 ADD SWAP1 POP SWAP2 SWAP1 POP JUMP INVALID PUSH1 0x80 PUSH1 0x40 MSTORE CALLVALUE DUP1 ISZERO PUSH3 0x11 JUMPI PUSH1 0x0 DUP1 REVERT JUMPDEST POP PUSH1 0x40 MLOAD PUSH3 0x1C30 CODESIZE SUB DUP1 PUSH3 0x1C30 DUP4 CODECOPY DUP2 DUP2 ADD PUSH1 0x40 MSTORE DUP2 ADD SWAP1 PUSH3 0x37 SWAP2 SWAP1 PUSH3 0x382 JUMP JUMPDEST PUSH1 0x1 PUSH1 0x0 DUP2 SWAP1 SSTORE POP PUSH3 0x88 PUSH1 0x40 MLOAD DUP1 PUSH1 0x40 ADD PUSH1 0x40 MSTORE DUP1 PUSH1 0x1E DUP2 MSTORE PUSH1 0x20 ADD PUSH32 0x41756374696F6E20636F6E747261637420696E697469616C697A65643A200000 DUP2 MSTORE POP DUP7 DUP6 DUP8 PUSH3 0x1C7 PUSH1 0x20 SHL PUSH1 0x20 SHR JUMP JUMPDEST DUP2 PUSH1 0x2 PUSH1 0x0 PUSH2 0x100 EXP DUP2 SLOAD DUP2 PUSH20 0xFFFFFFFFFFFFFFFFFFFFFFFFFFFFFFFFFFFFFFFF MUL NOT AND SWAP1 DUP4 PUSH20 0xFFFFFFFFFFFFFFFFFFFFFFFFFFFFFFFFFFFFFFFF AND MUL OR SWAP1 SSTORE POP PUSH1 0x2 PUSH1 0x0 SWAP1 SLOAD SWAP1 PUSH2 0x100 EXP SWAP1 DIV PUSH20 0xFFFFFFFFFFFFFFFFFFFFFFFFFFFFFFFFFFFFFFFF AND PUSH1 0x3 PUSH1 0x0 PUSH2 0x100 EXP DUP2 SLOAD DUP2 PUSH20 0xFFFFFFFFFFFFFFFFFFFFFFFFFFFFFFFFFFFFFFFF MUL NOT AND SWAP1 DUP4 PUSH20 0xFFFFFFFFFFFFFFFFFFFFFFFFFFFFFFFFFFFFFFFF AND MUL OR SWAP1 SSTORE POP DUP1 PUSH1 0x4 PUSH1 0x0 PUSH2 0x100 EXP DUP2 SLOAD DUP2 PUSH20 0xFFFFFFFFFFFFFFFFFFFFFFFFFFFFFFFFFFFFFFFF MUL NOT AND SWAP1 DUP4 PUSH20 0xFFFFFFFFFFFFFFFFFFFFFFFFFFFFFFFFFFFFFFFF AND MUL OR SWAP1 SSTORE POP DUP5 PUSH1 0x1 DUP2 SWAP1 SSTORE POP DUP3 PUSH1 0x5 PUSH1 0x0 PUSH2 0x100 EXP DUP2 SLOAD DUP2 PUSH20 0xFFFFFFFFFFFFFFFFFFFFFFFFFFFFFFFFFFFFFFFF MUL NOT AND SWAP1 DUP4 PUSH20 0xFFFFFFFFFFFFFFFFFFFFFFFFFFFFFFFFFFFFFFFF AND MUL OR SWAP1 SSTORE POP DUP4 PUSH1 0x6 DUP2 SWAP1 SSTORE POP POP POP POP POP POP PUSH3 0x549 JUMP JUMPDEST PUSH3 0x26D DUP5 DUP5 DUP5 DUP5 PUSH1 0x40 MLOAD PUSH1 0x24 ADD PUSH3 0x1E4 SWAP5 SWAP4 SWAP3 SWAP2 SWAP1 PUSH3 0x4C6 JUMP JUMPDEST PUSH1 0x40 MLOAD PUSH1 0x20 DUP2 DUP4 SUB SUB DUP2 MSTORE SWAP1 PUSH1 0x40 MSTORE PUSH32 0x4F04FDC600000000000000000000000000000000000000000000000000000000 PUSH28 0xFFFFFFFFFFFFFFFFFFFFFFFFFFFFFFFFFFFFFFFFFFFFFFFFFFFFFFFF NOT AND PUSH1 0x20 DUP3 ADD DUP1 MLOAD PUSH28 0xFFFFFFFFFFFFFFFFFFFFFFFFFFFFFFFFFFFFFFFFFFFFFFFFFFFFFFFF DUP4 DUP2 DUP4 AND OR DUP4 MSTORE POP POP POP POP PUSH3 0x273 PUSH1 0x20 SHL PUSH1 0x20 SHR JUMP JUMPDEST POP POP POP POP JUMP JUMPDEST PUSH3 0x299 DUP2 PUSH3 0x294 PUSH3 0x29C PUSH1 0x20 SHL PUSH3 0xC07 OR PUSH3 0x2BD PUSH1 0x20 SHL PUSH1 0x20 SHR JUMP JUMPDEST PUSH1 0x20 SHR JUMP JUMPDEST POP JUMP JUMPDEST PUSH1 0x0 PUSH11 0x636F6E736F6C652E6C6F67 SWAP1 POP PUSH1 0x0 DUP1 DUP4 MLOAD PUSH1 0x20 DUP6 ADD DUP5 GAS STATICCALL POP POP POP JUMP JUMPDEST PUSH3 0x2D1 PUSH1 0x20 SHL PUSH3 0xC81 OR DUP2 SWAP1 POP SWAP2 SWAP1 POP JUMP JUMPDEST PUSH3 0x2DB PUSH3 0x51A JUMP JUMPDEST JUMP JUMPDEST PUSH1 0x0 DUP1 REVERT JUMPDEST PUSH1 0x0 DUP2 SWAP1 POP SWAP2 SWAP1 POP JUMP JUMPDEST PUSH3 0x2F7 DUP2 PUSH3 0x2E2 JUMP JUMPDEST DUP2 EQ PUSH3 0x303 JUMPI PUSH1 0x0 DUP1 REVERT JUMPDEST POP JUMP JUMPDEST PUSH1 0x0 DUP2 MLOAD SWAP1 POP PUSH3 0x317 DUP2 PUSH3 0x2EC JUMP JUMPDEST SWAP3 SWAP2 POP POP JUMP JUMPDEST PUSH1 0x0 PUSH20 0xFFFFFFFFFFFFFFFFFFFFFFFFFFFFFFFFFFFFFFFF DUP3 AND SWAP1 POP SWAP2 SWAP1 POP JUMP JUMPDEST PUSH1 0x0 PUSH3 0x34A DUP3 PUSH3 0x31D JUMP JUMPDEST SWAP1 POP SWAP2 SWAP1 POP JUMP JUMPDEST PUSH3 0x35C DUP2 PUSH3 0x33D JUMP JUMPDEST DUP2 EQ PUSH3 0x368 JUMPI PUSH1 0x0 DUP1 REVERT JUMPDEST POP JUMP JUMPDEST PUSH1 0x0 DUP2 MLOAD SWAP1 POP PUSH3 0x37C DUP2 PUSH3 0x351 JUMP JUMPDEST SWAP3 SWAP2 POP POP JUMP JUMPDEST PUSH1 0x0 DUP1 PUSH1 0x0 DUP1 PUSH1 0x0 PUSH1 0xA0 DUP7 DUP9 SUB SLT ISZERO PUSH3 0x3A1 JUMPI PUSH3 0x3A0 PUSH3 0x2DD JUMP JUMPDEST JUMPDEST PUSH1 0x0 PUSH3 0x3B1 DUP9 DUP3 DUP10 ADD PUSH3 0x306 JUMP JUMPDEST SWAP6 POP POP PUSH1 0x20 PUSH3 0x3C4 DUP9 DUP3 DUP10 ADD PUSH3 0x306 JUMP JUMPDEST SWAP5 POP POP PUSH1 0x40 PUSH3 0x3D7 DUP9 DUP3 DUP10 ADD PUSH3 0x36B JUMP JUMPDEST SWAP4 POP POP PUSH1 0x60 PUSH3 0x3EA DUP9 DUP3 DUP10 ADD PUSH3 0x36B JUMP JUMPDEST SWAP3 POP POP PUSH1 0x80 PUSH3 0x3FD DUP9 DUP3 DUP10 ADD PUSH3 0x36B JUMP JUMPDEST SWAP2 POP POP SWAP3 SWAP6 POP SWAP3 SWAP6 SWAP1 SWAP4 POP JUMP JUMPDEST PUSH1 0x0 DUP2 MLOAD SWAP1 POP SWAP2 SWAP1 POP JUMP JUMPDEST PUSH1 0x0 DUP3 DUP3 MSTORE PUSH1 0x20 DUP3 ADD SWAP1 POP SWAP3 SWAP2 POP POP JUMP JUMPDEST PUSH1 0x0 JUMPDEST DUP4 DUP2 LT ISZERO PUSH3 0x446 JUMPI DUP1 DUP3 ADD MLOAD DUP2 DUP5 ADD MSTORE PUSH1 0x20 DUP2 ADD SWAP1 POP PUSH3 0x429 JUMP JUMPDEST PUSH1 0x0 DUP5 DUP5 ADD MSTORE POP POP POP POP JUMP JUMPDEST PUSH1 0x0 PUSH1 0x1F NOT PUSH1 0x1F DUP4 ADD AND SWAP1 POP SWAP2 SWAP1 POP JUMP JUMPDEST PUSH1 0x0 PUSH3 0x470 DUP3 PUSH3 0x40A JUMP JUMPDEST PUSH3 0x47C DUP2 DUP6 PUSH3 0x415 JUMP JUMPDEST SWAP4 POP PUSH3 0x48E DUP2 DUP6 PUSH1 0x20 DUP7 ADD PUSH3 0x426 JUMP JUMPDEST PUSH3 0x499 DUP2 PUSH3 0x452 JUMP JUMPDEST DUP5 ADD SWAP2 POP POP SWAP3 SWAP2 POP POP JUMP JUMPDEST PUSH3 0x4AF DUP2 PUSH3 0x2E2 JUMP JUMPDEST DUP3 MSTORE POP POP JUMP JUMPDEST PUSH3 0x4C0 DUP2 PUSH3 0x33D JUMP JUMPDEST DUP3 MSTORE POP POP JUMP JUMPDEST PUSH1 0x0 PUSH1 0x80 DUP3 ADD SWAP1 POP DUP2 DUP2 SUB PUSH1 0x0 DUP4 ADD MSTORE PUSH3 0x4E2 DUP2 DUP8 PUSH3 0x463 JUMP JUMPDEST SWAP1 POP PUSH3 0x4F3 PUSH1 0x20 DUP4 ADD DUP7 PUSH3 0x4A4 JUMP JUMPDEST PUSH3 0x502 PUSH1 0x40 DUP4 ADD DUP6 PUSH3 0x4B5 JUMP JUMPDEST PUSH3 0x511 PUSH1 0x60 DUP4 ADD DUP5 PUSH3 0x4A4 JUMP JUMPDEST SWAP6 SWAP5 POP POP POP POP POP JUMP JUMPDEST PUSH32 0x4E487B7100000000000000000000000000000000000000000000000000000000 PUSH1 0x0 MSTORE PUSH1 0x51 PUSH1 0x4 MSTORE PUSH1 0x24 PUSH1 0x0 REVERT JUMPDEST PUSH2 0x16D7 DUP1 PUSH3 0x559 PUSH1 0x0 CODECOPY PUSH1 0x0 RETURN INVALID PUSH1 0x80 PUSH1 0x40 MSTORE PUSH1 0x4 CALLDATASIZE LT PUSH2 0x3F JUMPI PUSH1 0x0 CALLDATALOAD PUSH1 0xE0 SHR DUP1 PUSH4 0x1998AEEF EQ PUSH2 0x44 JUMPI DUP1 PUSH4 0x26B387BB EQ PUSH2 0x4E JUMPI DUP1 PUSH4 0x3CCFD60B EQ PUSH2 0x8B JUMPI DUP1 PUSH4 0xB9A2DE3A EQ PUSH2 0xB6 JUMPI JUMPDEST PUSH1 0x0 DUP1 REVERT JUMPDEST PUSH2 0x4C PUSH2 0xDF JUMP JUMPDEST STOP JUMPDEST CALLVALUE DUP1 ISZERO PUSH2 0x5A JUMPI PUSH1 0x0 DUP1 REVERT JUMPDEST POP PUSH2 0x75 PUSH1 0x4 DUP1 CALLDATASIZE SUB DUP2 ADD SWAP1 PUSH2 0x70 SWAP2 SWAP1 PUSH2 0xCEE JUMP JUMPDEST PUSH2 0x3A2 JUMP JUMPDEST PUSH1 0x40 MLOAD PUSH2 0x82 SWAP2 SWAP1 PUSH2 0xD34 JUMP JUMPDEST PUSH1 0x40 MLOAD DUP1 SWAP2 SUB SWAP1 RETURN JUMPDEST CALLVALUE DUP1 ISZERO PUSH2 0x97 JUMPI PUSH1 0x0 DUP1 REVERT JUMPDEST POP PUSH2 0xA0 PUSH2 0x3BA JUMP JUMPDEST PUSH1 0x40 MLOAD PUSH2 0xAD SWAP2 SWAP1 PUSH2 0xD6A JUMP JUMPDEST PUSH1 0x40 MLOAD DUP1 SWAP2 SUB SWAP1 RETURN JUMPDEST CALLVALUE DUP1 ISZERO PUSH2 0xC2 JUMPI PUSH1 0x0 DUP1 REVERT JUMPDEST POP PUSH2 0xDD PUSH1 0x4 DUP1 CALLDATASIZE SUB DUP2 ADD SWAP1 PUSH2 0xD8 SWAP2 SWAP1 PUSH2 0xDB1 JUMP JUMPDEST PUSH2 0x56F JUMP JUMPDEST STOP JUMPDEST PUSH2 0xE7 PUSH2 0xC28 JUMP JUMPDEST CALLER PUSH20 0xFFFFFFFFFFFFFFFFFFFFFFFFFFFFFFFFFFFFFFFF AND PUSH1 0x5 PUSH1 0x0 SWAP1 SLOAD SWAP1 PUSH2 0x100 EXP SWAP1 DIV PUSH20 0xFFFFFFFFFFFFFFFFFFFFFFFFFFFFFFFFFFFFFFFF AND PUSH20 0xFFFFFFFFFFFFFFFFFFFFFFFFFFFFFFFFFFFFFFFF AND SUB PUSH2 0x177 JUMPI PUSH1 0x40 MLOAD PUSH32 0x8C379A000000000000000000000000000000000000000000000000000000000 DUP2 MSTORE PUSH1 0x4 ADD PUSH2 0x16E SWAP1 PUSH2 0xE61 JUMP JUMPDEST PUSH1 0x40 MLOAD DUP1 SWAP2 SUB SWAP1 REVERT JUMPDEST PUSH1 0x6 SLOAD CALLVALUE LT ISZERO PUSH2 0x1BC JUMPI PUSH1 0x40 MLOAD PUSH32 0x8C379A000000000000000000000000000000000000000000000000000000000 DUP2 MSTORE PUSH1 0x4 ADD PUSH2 0x1B3 SWAP1 PUSH2 0xEF3 JUMP JUMPDEST PUSH1 0x40 MLOAD DUP1 SWAP2 SUB SWAP1 REVERT JUMPDEST PUSH1 0x8 SLOAD CALLVALUE GT PUSH2 0x200 JUMPI PUSH1 0x40 MLOAD PUSH32 0x8C379A000000000000000000000000000000000000000000000000000000000 DUP2 MSTORE PUSH1 0x4 ADD PUSH2 0x1F7 SWAP1 PUSH2 0xF85 JUMP JUMPDEST PUSH1 0x40 MLOAD DUP1 SWAP2 SUB SWAP1 REVERT JUMPDEST CALLER PUSH20 0xFFFFFFFFFFFFFFFFFFFFFFFFFFFFFFFFFFFFFFFF AND PUSH1 0x7 PUSH1 0x0 SWAP1 SLOAD SWAP1 PUSH2 0x100 EXP SWAP1 DIV PUSH20 0xFFFFFFFFFFFFFFFFFFFFFFFFFFFFFFFFFFFFFFFF AND PUSH20 0xFFFFFFFFFFFFFFFFFFFFFFFFFFFFFFFFFFFFFFFF AND SUB PUSH2 0x290 JUMPI PUSH1 0x40 MLOAD PUSH32 0x8C379A000000000000000000000000000000000000000000000000000000000 DUP2 MSTORE PUSH1 0x4 ADD PUSH2 0x287 SWAP1 PUSH2 0xFF1 JUMP JUMPDEST PUSH1 0x40 MLOAD DUP1 SWAP2 SUB SWAP1 REVERT JUMPDEST PUSH1 0x0 PUSH1 0x8 SLOAD EQ PUSH2 0x315 JUMPI PUSH1 0x8 SLOAD PUSH1 0xA PUSH1 0x0 PUSH1 0x7 PUSH1 0x0 SWAP1 SLOAD SWAP1 PUSH2 0x100 EXP SWAP1 DIV PUSH20 0xFFFFFFFFFFFFFFFFFFFFFFFFFFFFFFFFFFFFFFFF AND PUSH20 0xFFFFFFFFFFFFFFFFFFFFFFFFFFFFFFFFFFFFFFFF AND PUSH20 0xFFFFFFFFFFFFFFFFFFFFFFFFFFFFFFFFFFFFFFFF AND DUP2 MSTORE PUSH1 0x20 ADD SWAP1 DUP2 MSTORE PUSH1 0x20 ADD PUSH1 0x0 KECCAK256 PUSH1 0x0 DUP3 DUP3 SLOAD PUSH2 0x30D SWAP2 SWAP1 PUSH2 0x1040 JUMP JUMPDEST SWAP3 POP POP DUP2 SWAP1 SSTORE POP JUMPDEST CALLVALUE PUSH1 0x8 DUP2 SWAP1 SSTORE POP CALLER PUSH1 0x7 PUSH1 0x0 PUSH2 0x100 EXP DUP2 SLOAD DUP2 PUSH20 0xFFFFFFFFFFFFFFFFFFFFFFFFFFFFFFFFFFFFFFFF MUL NOT AND SWAP1 DUP4 PUSH20 0xFFFFFFFFFFFFFFFFFFFFFFFFFFFFFFFFFFFFFFFF AND MUL OR SWAP1 SSTORE POP PUSH32 0x13692BED0518BBE01C8A2B50A32F14D0D4ABAA43DCE4DA7AF1814182EE644317 CALLER CALLVALUE ADDRESS PUSH1 0x40 MLOAD PUSH2 0x390 SWAP4 SWAP3 SWAP2 SWAP1 PUSH2 0x1083 JUMP JUMPDEST PUSH1 0x40 MLOAD DUP1 SWAP2 SUB SWAP1 LOG1 PUSH2 0x3A0 PUSH2 0xC77 JUMP JUMPDEST JUMP JUMPDEST PUSH1 0xA PUSH1 0x20 MSTORE DUP1 PUSH1 0x0 MSTORE PUSH1 0x40 PUSH1 0x0 KECCAK256 PUSH1 0x0 SWAP2 POP SWAP1 POP SLOAD DUP2 JUMP JUMPDEST PUSH1 0x0 PUSH1 0x1 ISZERO ISZERO PUSH1 0x9 PUSH1 0x0 SWAP1 SLOAD SWAP1 PUSH2 0x100 EXP SWAP1 DIV PUSH1 0xFF AND ISZERO ISZERO EQ PUSH2 0x412 JUMPI PUSH1 0x40 MLOAD PUSH32 0x8C379A000000000000000000000000000000000000000000000000000000000 DUP2 MSTORE PUSH1 0x4 ADD PUSH2 0x409 SWAP1 PUSH2 0x112C JUMP JUMPDEST PUSH1 0x40 MLOAD DUP1 SWAP2 SUB SWAP1 REVERT JUMPDEST PUSH1 0x0 PUSH1 0xA PUSH1 0x0 CALLER PUSH20 0xFFFFFFFFFFFFFFFFFFFFFFFFFFFFFFFFFFFFFFFF AND PUSH20 0xFFFFFFFFFFFFFFFFFFFFFFFFFFFFFFFFFFFFFFFF AND DUP2 MSTORE PUSH1 0x20 ADD SWAP1 DUP2 MSTORE PUSH1 0x20 ADD PUSH1 0x0 KECCAK256 SLOAD SWAP1 POP PUSH1 0x0 DUP2 GT ISZERO PUSH2 0x566 JUMPI PUSH1 0x0 PUSH1 0xA PUSH1 0x0 CALLER PUSH20 0xFFFFFFFFFFFFFFFFFFFFFFFFFFFFFFFFFFFFFFFF AND PUSH20 0xFFFFFFFFFFFFFFFFFFFFFFFFFFFFFFFFFFFFFFFF AND DUP2 MSTORE PUSH1 0x20 ADD SWAP1 DUP2 MSTORE PUSH1 0x20 ADD PUSH1 0x0 KECCAK256 DUP2 SWAP1 SSTORE POP PUSH1 0x0 CALLER PUSH20 0xFFFFFFFFFFFFFFFFFFFFFFFFFFFFFFFFFFFFFFFF AND DUP3 PUSH1 0x40 MLOAD PUSH2 0x4CA SWAP1 PUSH2 0x117D JUMP JUMPDEST PUSH1 0x0 PUSH1 0x40 MLOAD DUP1 DUP4 SUB DUP2 DUP6 DUP8 GAS CALL SWAP3 POP POP POP RETURNDATASIZE DUP1 PUSH1 0x0 DUP2 EQ PUSH2 0x507 JUMPI PUSH1 0x40 MLOAD SWAP2 POP PUSH1 0x1F NOT PUSH1 0x3F RETURNDATASIZE ADD AND DUP3 ADD PUSH1 0x40 MSTORE RETURNDATASIZE DUP3 MSTORE RETURNDATASIZE PUSH1 0x0 PUSH1 0x20 DUP5 ADD RETURNDATACOPY PUSH2 0x50C JUMP JUMPDEST PUSH1 0x60 SWAP2 POP JUMPDEST POP POP SWAP1 POP DUP1 PUSH2 0x564 JUMPI DUP2 PUSH1 0xA PUSH1 0x0 CALLER PUSH20 0xFFFFFFFFFFFFFFFFFFFFFFFFFFFFFFFFFFFFFFFF AND PUSH20 0xFFFFFFFFFFFFFFFFFFFFFFFFFFFFFFFFFFFFFFFF AND DUP2 MSTORE PUSH1 0x20 ADD SWAP1 DUP2 MSTORE PUSH1 0x20 ADD PUSH1 0x0 KECCAK256 DUP2 SWAP1 SSTORE POP PUSH1 0x0 SWAP3 POP POP POP PUSH2 0x56C JUMP JUMPDEST POP JUMPDEST PUSH1 0x1 SWAP2 POP POP JUMPDEST SWAP1 JUMP JUMPDEST PUSH2 0x577 PUSH2 0xC28 JUMP JUMPDEST PUSH1 0x5 PUSH1 0x0 SWAP1 SLOAD SWAP1 PUSH2 0x100 EXP SWAP1 DIV PUSH20 0xFFFFFFFFFFFFFFFFFFFFFFFFFFFFFFFFFFFFFFFF AND PUSH20 0xFFFFFFFFFFFFFFFFFFFFFFFFFFFFFFFFFFFFFFFF AND CALLER PUSH20 0xFFFFFFFFFFFFFFFFFFFFFFFFFFFFFFFFFFFFFFFF AND EQ PUSH2 0x607 JUMPI PUSH1 0x40 MLOAD PUSH32 0x8C379A000000000000000000000000000000000000000000000000000000000 DUP2 MSTORE PUSH1 0x4 ADD PUSH2 0x5FE SWAP1 PUSH2 0x11DE JUMP JUMPDEST PUSH1 0x40 MLOAD DUP1 SWAP2 SUB SWAP1 REVERT JUMPDEST PUSH1 0x0 DUP1 PUSH1 0x3 PUSH1 0x0 SWAP1 SLOAD SWAP1 PUSH2 0x100 EXP SWAP1 DIV PUSH20 0xFFFFFFFFFFFFFFFFFFFFFFFFFFFFFFFFFFFFFFFF AND PUSH20 0xFFFFFFFFFFFFFFFFFFFFFFFFFFFFFFFFFFFFFFFF AND PUSH4 0xA65FF74C DUP5 PUSH1 0x40 MLOAD DUP3 PUSH4 0xFFFFFFFF AND PUSH1 0xE0 SHL DUP2 MSTORE PUSH1 0x4 ADD PUSH2 0x665 SWAP2 SWAP1 PUSH2 0xD34 JUMP JUMPDEST PUSH1 0x40 DUP1 MLOAD DUP1 DUP4 SUB DUP2 DUP7 GAS STATICCALL ISZERO DUP1 ISZERO PUSH2 0x681 JUMPI RETURNDATASIZE PUSH1 0x0 DUP1 RETURNDATACOPY RETURNDATASIZE PUSH1 0x0 REVERT JUMPDEST POP POP POP POP PUSH1 0x40 MLOAD RETURNDATASIZE PUSH1 0x1F NOT PUSH1 0x1F DUP3 ADD AND DUP3 ADD DUP1 PUSH1 0x40 MSTORE POP DUP2 ADD SWAP1 PUSH2 0x6A5 SWAP2 SWAP1 PUSH2 0x1251 JUMP JUMPDEST SWAP2 POP SWAP2 POP PUSH1 0x0 PUSH20 0xFFFFFFFFFFFFFFFFFFFFFFFFFFFFFFFFFFFFFFFF AND PUSH1 0x7 PUSH1 0x0 SWAP1 SLOAD SWAP1 PUSH2 0x100 EXP SWAP1 DIV PUSH20 0xFFFFFFFFFFFFFFFFFFFFFFFFFFFFFFFFFFFFFFFF AND PUSH20 0xFFFFFFFFFFFFFFFFFFFFFFFFFFFFFFFFFFFFFFFF AND EQ PUSH2 0xADF JUMPI PUSH1 0x0 PUSH1 0x64 DUP4 PUSH1 0x8 SLOAD PUSH2 0x711 SWAP2 SWAP1 PUSH2 0x1291 JUMP JUMPDEST PUSH2 0x71B SWAP2 SWAP1 PUSH2 0x1302 JUMP JUMPDEST SWAP1 POP PUSH1 0x0 DUP2 PUSH1 0x8 SLOAD PUSH2 0x72D SWAP2 SWAP1 PUSH2 0x1333 JUMP JUMPDEST SWAP1 POP PUSH1 0x0 PUSH1 0x64 PUSH1 0x2 PUSH1 0x8 SLOAD PUSH2 0x742 SWAP2 SWAP1 PUSH2 0x1291 JUMP JUMPDEST PUSH2 0x74C SWAP2 SWAP1 PUSH2 0x1302 JUMP JUMPDEST SWAP1 POP PUSH1 0x0 PUSH1 0x5 PUSH1 0x0 SWAP1 SLOAD SWAP1 PUSH2 0x100 EXP SWAP1 DIV PUSH20 0xFFFFFFFFFFFFFFFFFFFFFFFFFFFFFFFFFFFFFFFF AND PUSH20 0xFFFFFFFFFFFFFFFFFFFFFFFFFFFFFFFFFFFFFFFF AND DUP4 PUSH1 0x40 MLOAD PUSH2 0x796 SWAP1 PUSH2 0x117D JUMP JUMPDEST PUSH1 0x0 PUSH1 0x40 MLOAD DUP1 DUP4 SUB DUP2 DUP6 DUP8 GAS CALL SWAP3 POP POP POP RETURNDATASIZE DUP1 PUSH1 0x0 DUP2 EQ PUSH2 0x7D3 JUMPI PUSH1 0x40 MLOAD SWAP2 POP PUSH1 0x1F NOT PUSH1 0x3F RETURNDATASIZE ADD AND DUP3 ADD PUSH1 0x40 MSTORE RETURNDATASIZE DUP3 MSTORE RETURNDATASIZE PUSH1 0x0 PUSH1 0x20 DUP5 ADD RETURNDATACOPY PUSH2 0x7D8 JUMP JUMPDEST PUSH1 0x60 SWAP2 POP JUMPDEST POP POP SWAP1 POP DUP1 PUSH2 0x81C JUMPI PUSH1 0x40 MLOAD PUSH32 0x8C379A000000000000000000000000000000000000000000000000000000000 DUP2 MSTORE PUSH1 0x4 ADD PUSH2 0x813 SWAP1 PUSH2 0x13D9 JUMP JUMPDEST PUSH1 0x40 MLOAD DUP1 SWAP2 SUB SWAP1 REVERT JUMPDEST PUSH1 0x0 DUP6 PUSH20 0xFFFFFFFFFFFFFFFFFFFFFFFFFFFFFFFFFFFFFFFF AND DUP6 PUSH1 0x40 MLOAD PUSH2 0x842 SWAP1 PUSH2 0x117D JUMP JUMPDEST PUSH1 0x0 PUSH1 0x40 MLOAD DUP1 DUP4 SUB DUP2 DUP6 DUP8 GAS CALL SWAP3 POP POP POP RETURNDATASIZE DUP1 PUSH1 0x0 DUP2 EQ PUSH2 0x87F JUMPI PUSH1 0x40 MLOAD SWAP2 POP PUSH1 0x1F NOT PUSH1 0x3F RETURNDATASIZE ADD AND DUP3 ADD PUSH1 0x40 MSTORE RETURNDATASIZE DUP3 MSTORE RETURNDATASIZE PUSH1 0x0 PUSH1 0x20 DUP5 ADD RETURNDATACOPY PUSH2 0x884 JUMP JUMPDEST PUSH1 0x60 SWAP2 POP JUMPDEST POP POP SWAP1 POP DUP1 PUSH2 0x8C8 JUMPI PUSH1 0x40 MLOAD PUSH32 0x8C379A000000000000000000000000000000000000000000000000000000000 DUP2 MSTORE PUSH1 0x4 ADD PUSH2 0x8BF SWAP1 PUSH2 0x146B JUMP JUMPDEST PUSH1 0x40 MLOAD DUP1 SWAP2 SUB SWAP1 REVERT JUMPDEST PUSH1 0x0 PUSH1 0x2 PUSH1 0x0 SWAP1 SLOAD SWAP1 PUSH2 0x100 EXP SWAP1 DIV PUSH20 0xFFFFFFFFFFFFFFFFFFFFFFFFFFFFFFFFFFFFFFFF AND PUSH20 0xFFFFFFFFFFFFFFFFFFFFFFFFFFFFFFFFFFFFFFFF AND DUP5 PUSH1 0x40 MLOAD PUSH2 0x910 SWAP1 PUSH2 0x117D JUMP JUMPDEST PUSH1 0x0 PUSH1 0x40 MLOAD DUP1 DUP4 SUB DUP2 DUP6 DUP8 GAS CALL SWAP3 POP POP POP RETURNDATASIZE DUP1 PUSH1 0x0 DUP2 EQ PUSH2 0x94D JUMPI PUSH1 0x40 MLOAD SWAP2 POP PUSH1 0x1F NOT PUSH1 0x3F RETURNDATASIZE ADD AND DUP3 ADD PUSH1 0x40 MSTORE RETURNDATASIZE DUP3 MSTORE RETURNDATASIZE PUSH1 0x0 PUSH1 0x20 DUP5 ADD RETURNDATACOPY PUSH2 0x952 JUMP JUMPDEST PUSH1 0x60 SWAP2 POP JUMPDEST POP POP SWAP1 POP DUP1 PUSH2 0x996 JUMPI PUSH1 0x40 MLOAD PUSH32 0x8C379A000000000000000000000000000000000000000000000000000000000 DUP2 MSTORE PUSH1 0x4 ADD PUSH2 0x98D SWAP1 PUSH2 0x14FD JUMP JUMPDEST PUSH1 0x40 MLOAD DUP1 SWAP2 SUB SWAP1 REVERT JUMPDEST PUSH1 0x3 PUSH1 0x0 SWAP1 SLOAD SWAP1 PUSH2 0x100 EXP SWAP1 DIV PUSH20 0xFFFFFFFFFFFFFFFFFFFFFFFFFFFFFFFFFFFFFFFF AND PUSH20 0xFFFFFFFFFFFFFFFFFFFFFFFFFFFFFFFFFFFFFFFF AND PUSH4 0x8F329B31 DUP11 PUSH1 0x7 PUSH1 0x0 SWAP1 SLOAD SWAP1 PUSH2 0x100 EXP SWAP1 DIV PUSH20 0xFFFFFFFFFFFFFFFFFFFFFFFFFFFFFFFFFFFFFFFF AND PUSH1 0x40 MLOAD DUP4 PUSH4 0xFFFFFFFF AND PUSH1 0xE0 SHL DUP2 MSTORE PUSH1 0x4 ADD PUSH2 0xA15 SWAP3 SWAP2 SWAP1 PUSH2 0x157C JUMP JUMPDEST PUSH1 0x0 PUSH1 0x40 MLOAD DUP1 DUP4 SUB DUP2 PUSH1 0x0 DUP8 DUP1 EXTCODESIZE ISZERO DUP1 ISZERO PUSH2 0xA2F JUMPI PUSH1 0x0 DUP1 REVERT JUMPDEST POP GAS CALL ISZERO DUP1 ISZERO PUSH2 0xA43 JUMPI RETURNDATASIZE PUSH1 0x0 DUP1 RETURNDATACOPY RETURNDATASIZE PUSH1 0x0 REVERT JUMPDEST POP POP POP POP PUSH1 0x4 PUSH1 0x0 SWAP1 SLOAD SWAP1 PUSH2 0x100 EXP SWAP1 DIV PUSH20 0xFFFFFFFFFFFFFFFFFFFFFFFFFFFFFFFFFFFFFFFF AND PUSH20 0xFFFFFFFFFFFFFFFFFFFFFFFFFFFFFFFFFFFFFFFF AND PUSH4 0xA75654D9 DUP11 PUSH1 0x40 MLOAD DUP3 PUSH4 0xFFFFFFFF AND PUSH1 0xE0 SHL DUP2 MSTORE PUSH1 0x4 ADD PUSH2 0xAA2 SWAP2 SWAP1 PUSH2 0xD34 JUMP JUMPDEST PUSH1 0x0 PUSH1 0x40 MLOAD DUP1 DUP4 SUB DUP2 PUSH1 0x0 DUP8 DUP1 EXTCODESIZE ISZERO DUP1 ISZERO PUSH2 0xABC JUMPI PUSH1 0x0 DUP1 REVERT JUMPDEST POP GAS CALL ISZERO DUP1 ISZERO PUSH2 0xAD0 JUMPI RETURNDATASIZE PUSH1 0x0 DUP1 RETURNDATACOPY RETURNDATASIZE PUSH1 0x0 REVERT JUMPDEST POP POP POP POP POP POP POP POP POP POP PUSH2 0xB91 JUMP JUMPDEST PUSH1 0x3 PUSH1 0x0 SWAP1 SLOAD SWAP1 PUSH2 0x100 EXP SWAP1 DIV PUSH20 0xFFFFFFFFFFFFFFFFFFFFFFFFFFFFFFFFFFFFFFFF AND PUSH20 0xFFFFFFFFFFFFFFFFFFFFFFFFFFFFFFFFFFFFFFFF AND PUSH4 0x8F329B31 DUP5 PUSH1 0x5 PUSH1 0x0 SWAP1 SLOAD SWAP1 PUSH2 0x100 EXP SWAP1 DIV PUSH20 0xFFFFFFFFFFFFFFFFFFFFFFFFFFFFFFFFFFFFFFFF AND PUSH1 0x40 MLOAD DUP4 PUSH4 0xFFFFFFFF AND PUSH1 0xE0 SHL DUP2 MSTORE PUSH1 0x4 ADD PUSH2 0xB5E SWAP3 SWAP2 SWAP1 PUSH2 0x157C JUMP JUMPDEST PUSH1 0x0 PUSH1 0x40 MLOAD DUP1 DUP4 SUB DUP2 PUSH1 0x0 DUP8 DUP1 EXTCODESIZE ISZERO DUP1 ISZERO PUSH2 0xB78 JUMPI PUSH1 0x0 DUP1 REVERT JUMPDEST POP GAS CALL ISZERO DUP1 ISZERO PUSH2 0xB8C JUMPI RETURNDATASIZE PUSH1 0x0 DUP1 RETURNDATACOPY RETURNDATASIZE PUSH1 0x0 REVERT JUMPDEST POP POP POP POP JUMPDEST PUSH32 0x93DE927ED018F9ABBAA00FEEE71BDAE41A752A7B21D3390A039807F8A6870E94 ADDRESS TIMESTAMP PUSH1 0x1 SLOAD PUSH1 0x5 PUSH1 0x0 SWAP1 SLOAD SWAP1 PUSH2 0x100 EXP SWAP1 DIV PUSH20 0xFFFFFFFFFFFFFFFFFFFFFFFFFFFFFFFFFFFFFFFF AND PUSH1 0x6 SLOAD PUSH1 0x8 SLOAD PUSH1 0x40 MLOAD PUSH2 0xBF2 SWAP7 SWAP6 SWAP5 SWAP4 SWAP3 SWAP2 SWAP1 PUSH2 0x15A5 JUMP JUMPDEST PUSH1 0x40 MLOAD DUP1 SWAP2 SUB SWAP1 LOG1 POP POP PUSH2 0xC04 PUSH2 0xC77 JUMP JUMPDEST POP JUMP JUMPDEST PUSH1 0x0 PUSH11 0x636F6E736F6C652E6C6F67 SWAP1 POP PUSH1 0x0 DUP1 DUP4 MLOAD PUSH1 0x20 DUP6 ADD DUP5 GAS STATICCALL POP POP POP JUMP JUMPDEST PUSH1 0x2 PUSH1 0x0 SLOAD SUB PUSH2 0xC6D JUMPI PUSH1 0x40 MLOAD PUSH32 0x8C379A000000000000000000000000000000000000000000000000000000000 DUP2 MSTORE PUSH1 0x4 ADD PUSH2 0xC64 SWAP1 PUSH2 0x1652 JUMP JUMPDEST PUSH1 0x40 MLOAD DUP1 SWAP2 SUB SWAP1 REVERT JUMPDEST PUSH1 0x2 PUSH1 0x0 DUP2 SWAP1 SSTORE POP JUMP JUMPDEST PUSH1 0x1 PUSH1 0x0 DUP2 SWAP1 SSTORE POP JUMP JUMPDEST PUSH2 0xC89 PUSH2 0x1672 JUMP JUMPDEST JUMP JUMPDEST PUSH1 0x0 DUP1 REVERT JUMPDEST PUSH1 0x0 PUSH20 0xFFFFFFFFFFFFFFFFFFFFFFFFFFFFFFFFFFFFFFFF DUP3 AND SWAP1 POP SWAP2 SWAP1 POP JUMP JUMPDEST PUSH1 0x0 PUSH2 0xCBB DUP3 PUSH2 0xC90 JUMP JUMPDEST SWAP1 POP SWAP2 SWAP1 POP JUMP JUMPDEST PUSH2 0xCCB DUP2 PUSH2 0xCB0 JUMP JUMPDEST DUP2 EQ PUSH2 0xCD6 JUMPI PUSH1 0x0 DUP1 REVERT JUMPDEST POP JUMP JUMPDEST PUSH1 0x0 DUP2 CALLDATALOAD SWAP1 POP PUSH2 0xCE8 DUP2 PUSH2 0xCC2 JUMP JUMPDEST SWAP3 SWAP2 POP POP JUMP JUMPDEST PUSH1 0x0 PUSH1 0x20 DUP3 DUP5 SUB SLT ISZERO PUSH2 0xD04 JUMPI PUSH2 0xD03 PUSH2 0xC8B JUMP JUMPDEST JUMPDEST PUSH1 0x0 PUSH2 0xD12 DUP5 DUP3 DUP6 ADD PUSH2 0xCD9 JUMP JUMPDEST SWAP2 POP POP SWAP3 SWAP2 POP POP JUMP JUMPDEST PUSH1 0x0 DUP2 SWAP1 POP SWAP2 SWAP1 POP JUMP JUMPDEST PUSH2 0xD2E DUP2 PUSH2 0xD1B JUMP JUMPDEST DUP3 MSTORE POP POP JUMP JUMPDEST PUSH1 0x0 PUSH1 0x20 DUP3 ADD SWAP1 POP PUSH2 0xD49 PUSH1 0x0 DUP4 ADD DUP5 PUSH2 0xD25 JUMP JUMPDEST SWAP3 SWAP2 POP POP JUMP JUMPDEST PUSH1 0x0 DUP2 ISZERO ISZERO SWAP1 POP SWAP2 SWAP1 POP JUMP JUMPDEST PUSH2 0xD64 DUP2 PUSH2 0xD4F JUMP JUMPDEST DUP3 MSTORE POP POP JUMP JUMPDEST PUSH1 0x0 PUSH1 0x20 DUP3 ADD SWAP1 POP PUSH2 0xD7F PUSH1 0x0 DUP4 ADD DUP5 PUSH2 0xD5B JUMP JUMPDEST SWAP3 SWAP2 POP POP JUMP JUMPDEST PUSH2 0xD8E DUP2 PUSH2 0xD1B JUMP JUMPDEST DUP2 EQ PUSH2 0xD99 JUMPI PUSH1 0x0 DUP1 REVERT JUMPDEST POP JUMP JUMPDEST PUSH1 0x0 DUP2 CALLDATALOAD SWAP1 POP PUSH2 0xDAB DUP2 PUSH2 0xD85 JUMP JUMPDEST SWAP3 SWAP2 POP POP JUMP JUMPDEST PUSH1 0x0 PUSH1 0x20 DUP3 DUP5 SUB SLT ISZERO PUSH2 0xDC7 JUMPI PUSH2 0xDC6 PUSH2 0xC8B JUMP JUMPDEST JUMPDEST PUSH1 0x0 PUSH2 0xDD5 DUP5 DUP3 DUP6 ADD PUSH2 0xD9C JUMP JUMPDEST SWAP2 POP POP SWAP3 SWAP2 POP POP JUMP JUMPDEST PUSH1 0x0 DUP3 DUP3 MSTORE PUSH1 0x20 DUP3 ADD SWAP1 POP SWAP3 SWAP2 POP POP JUMP JUMPDEST PUSH32 0x53656C6C65722063616E6E6F7420626964206F6E207468656972206F776E2061 PUSH1 0x0 DUP3 ADD MSTORE PUSH32 0x756374696F6E0000000000000000000000000000000000000000000000000000 PUSH1 0x20 DUP3 ADD MSTORE POP JUMP JUMPDEST PUSH1 0x0 PUSH2 0xE4B PUSH1 0x26 DUP4 PUSH2 0xDDE JUMP JUMPDEST SWAP2 POP PUSH2 0xE56 DUP3 PUSH2 0xDEF JUMP JUMPDEST PUSH1 0x40 DUP3 ADD SWAP1 POP SWAP2 SWAP1 POP JUMP JUMPDEST PUSH1 0x0 PUSH1 0x20 DUP3 ADD SWAP1 POP DUP2 DUP2 SUB PUSH1 0x0 DUP4 ADD MSTORE PUSH2 0xE7A DUP2 PUSH2 0xE3E JUMP JUMPDEST SWAP1 POP SWAP2 SWAP1 POP JUMP JUMPDEST PUSH32 0x426964206D7573742062652067726561746572207468616E206F722065717561 PUSH1 0x0 DUP3 ADD MSTORE PUSH32 0x6C20746F207374617274696E6720707269636500000000000000000000000000 PUSH1 0x20 DUP3 ADD MSTORE POP JUMP JUMPDEST PUSH1 0x0 PUSH2 0xEDD PUSH1 0x33 DUP4 PUSH2 0xDDE JUMP JUMPDEST SWAP2 POP PUSH2 0xEE8 DUP3 PUSH2 0xE81 JUMP JUMPDEST PUSH1 0x40 DUP3 ADD SWAP1 POP SWAP2 SWAP1 POP JUMP JUMPDEST PUSH1 0x0 PUSH1 0x20 DUP3 ADD SWAP1 POP DUP2 DUP2 SUB PUSH1 0x0 DUP4 ADD MSTORE PUSH2 0xF0C DUP2 PUSH2 0xED0 JUMP JUMPDEST SWAP1 POP SWAP2 SWAP1 POP JUMP JUMPDEST PUSH32 0x426964206D7573742062652067726561746572207468616E2063757272656E74 PUSH1 0x0 DUP3 ADD MSTORE PUSH32 0x2068696768657374206269640000000000000000000000000000000000000000 PUSH1 0x20 DUP3 ADD MSTORE POP JUMP JUMPDEST PUSH1 0x0 PUSH2 0xF6F PUSH1 0x2C DUP4 PUSH2 0xDDE JUMP JUMPDEST SWAP2 POP PUSH2 0xF7A DUP3 PUSH2 0xF13 JUMP JUMPDEST PUSH1 0x40 DUP3 ADD SWAP1 POP SWAP2 SWAP1 POP JUMP JUMPDEST PUSH1 0x0 PUSH1 0x20 DUP3 ADD SWAP1 POP DUP2 DUP2 SUB PUSH1 0x0 DUP4 ADD MSTORE PUSH2 0xF9E DUP2 PUSH2 0xF62 JUMP JUMPDEST SWAP1 POP SWAP2 SWAP1 POP JUMP JUMPDEST PUSH32 0x42696464657220697320616C7265616479206869676865737420626964646572 PUSH1 0x0 DUP3 ADD MSTORE POP JUMP JUMPDEST PUSH1 0x0 PUSH2 0xFDB PUSH1 0x20 DUP4 PUSH2 0xDDE JUMP JUMPDEST SWAP2 POP PUSH2 0xFE6 DUP3 PUSH2 0xFA5 JUMP JUMPDEST PUSH1 0x20 DUP3 ADD SWAP1 POP SWAP2 SWAP1 POP JUMP JUMPDEST PUSH1 0x0 PUSH1 0x20 DUP3 ADD SWAP1 POP DUP2 DUP2 SUB PUSH1 0x0 DUP4 ADD MSTORE PUSH2 0x100A DUP2 PUSH2 0xFCE JUMP JUMPDEST SWAP1 POP SWAP2 SWAP1 POP JUMP JUMPDEST PUSH32 0x4E487B7100000000000000000000000000000000000000000000000000000000 PUSH1 0x0 MSTORE PUSH1 0x11 PUSH1 0x4 MSTORE PUSH1 0x24 PUSH1 0x0 REVERT JUMPDEST PUSH1 0x0 PUSH2 0x104B DUP3 PUSH2 0xD1B JUMP JUMPDEST SWAP2 POP PUSH2 0x1056 DUP4 PUSH2 0xD1B JUMP JUMPDEST SWAP3 POP DUP3 DUP3 ADD SWAP1 POP DUP1 DUP3 GT ISZERO PUSH2 0x106E JUMPI PUSH2 0x106D PUSH2 0x1011 JUMP JUMPDEST JUMPDEST SWAP3 SWAP2 POP POP JUMP JUMPDEST PUSH2 0x107D DUP2 PUSH2 0xCB0 JUMP JUMPDEST DUP3 MSTORE POP POP JUMP JUMPDEST PUSH1 0x0 PUSH1 0x60 DUP3 ADD SWAP1 POP PUSH2 0x1098 PUSH1 0x0 DUP4 ADD DUP7 PUSH2 0x1074 JUMP JUMPDEST PUSH2 0x10A5 PUSH1 0x20 DUP4 ADD DUP6 PUSH2 0xD25 JUMP JUMPDEST PUSH2 0x10B2 PUSH1 0x40 DUP4 ADD DUP5 PUSH2 0x1074 JUMP JUMPDEST SWAP5 SWAP4 POP POP POP POP JUMP JUMPDEST PUSH32 0x557365722063616E206F6E6C792077697468647261772066756E647320616674 PUSH1 0x0 DUP3 ADD MSTORE PUSH32 0x65722061756374696F6E2068617320656E646564000000000000000000000000 PUSH1 0x20 DUP3 ADD MSTORE POP JUMP JUMPDEST PUSH1 0x0 PUSH2 0x1116 PUSH1 0x34 DUP4 PUSH2 0xDDE JUMP JUMPDEST SWAP2 POP PUSH2 0x1121 DUP3 PUSH2 0x10BA JUMP JUMPDEST PUSH1 0x40 DUP3 ADD SWAP1 POP SWAP2 SWAP1 POP JUMP JUMPDEST PUSH1 0x0 PUSH1 0x20 DUP3 ADD SWAP1 POP DUP2 DUP2 SUB PUSH1 0x0 DUP4 ADD MSTORE PUSH2 0x1145 DUP2 PUSH2 0x1109 JUMP JUMPDEST SWAP1 POP SWAP2 SWAP1 POP JUMP JUMPDEST PUSH1 0x0 DUP2 SWAP1 POP SWAP3 SWAP2 POP POP JUMP JUMPDEST POP JUMP JUMPDEST PUSH1 0x0 PUSH2 0x1167 PUSH1 0x0 DUP4 PUSH2 0x114C JUMP JUMPDEST SWAP2 POP PUSH2 0x1172 DUP3 PUSH2 0x1157 JUMP JUMPDEST PUSH1 0x0 DUP3 ADD SWAP1 POP SWAP2 SWAP1 POP JUMP JUMPDEST PUSH1 0x0 PUSH2 0x1188 DUP3 PUSH2 0x115A JUMP JUMPDEST SWAP2 POP DUP2 SWAP1 POP SWAP2 SWAP1 POP JUMP JUMPDEST PUSH32 0x4F6E6C79204E4654206F776E65722063616E20656E642061756374696F6E0000 PUSH1 0x0 DUP3 ADD MSTORE POP JUMP JUMPDEST PUSH1 0x0 PUSH2 0x11C8 PUSH1 0x1E DUP4 PUSH2 0xDDE JUMP JUMPDEST SWAP2 POP PUSH2 0x11D3 DUP3 PUSH2 0x1192 JUMP JUMPDEST PUSH1 0x20 DUP3 ADD SWAP1 POP SWAP2 SWAP1 POP JUMP JUMPDEST PUSH1 0x0 PUSH1 0x20 DUP3 ADD SWAP1 POP DUP2 DUP2 SUB PUSH1 0x0 DUP4 ADD MSTORE PUSH2 0x11F7 DUP2 PUSH2 0x11BB JUMP JUMPDEST SWAP1 POP SWAP2 SWAP1 POP JUMP JUMPDEST PUSH1 0x0 DUP2 MLOAD SWAP1 POP PUSH2 0x120D DUP2 PUSH2 0xD85 JUMP JUMPDEST SWAP3 SWAP2 POP POP JUMP JUMPDEST PUSH1 0x0 PUSH2 0x121E DUP3 PUSH2 0xC90 JUMP JUMPDEST SWAP1 POP SWAP2 SWAP1 POP JUMP JUMPDEST PUSH2 0x122E DUP2 PUSH2 0x1213 JUMP JUMPDEST DUP2 EQ PUSH2 0x1239 JUMPI PUSH1 0x0 DUP1 REVERT JUMPDEST POP JUMP JUMPDEST PUSH1 0x0 DUP2 MLOAD SWAP1 POP PUSH2 0x124B DUP2 PUSH2 0x1225 JUMP JUMPDEST SWAP3 SWAP2 POP POP JUMP JUMPDEST PUSH1 0x0 DUP1 PUSH1 0x40 DUP4 DUP6 SUB SLT ISZERO PUSH2 0x1268 JUMPI PUSH2 0x1267 PUSH2 0xC8B JUMP JUMPDEST JUMPDEST PUSH1 0x0 PUSH2 0x1276 DUP6 DUP3 DUP7 ADD PUSH2 0x11FE JUMP JUMPDEST SWAP3 POP POP PUSH1 0x20 PUSH2 0x1287 DUP6 DUP3 DUP7 ADD PUSH2 0x123C JUMP JUMPDEST SWAP2 POP POP SWAP3 POP SWAP3 SWAP1 POP JUMP JUMPDEST PUSH1 0x0 PUSH2 0x129C DUP3 PUSH2 0xD1B JUMP JUMPDEST SWAP2 POP PUSH2 0x12A7 DUP4 PUSH2 0xD1B JUMP JUMPDEST SWAP3 POP DUP3 DUP3 MUL PUSH2 0x12B5 DUP2 PUSH2 0xD1B JUMP JUMPDEST SWAP2 POP DUP3 DUP3 DIV DUP5 EQ DUP4 ISZERO OR PUSH2 0x12CC JUMPI PUSH2 0x12CB PUSH2 0x1011 JUMP JUMPDEST JUMPDEST POP SWAP3 SWAP2 POP POP JUMP JUMPDEST PUSH32 0x4E487B7100000000000000000000000000000000000000000000000000000000 PUSH1 0x0 MSTORE PUSH1 0x12 PUSH1 0x4 MSTORE PUSH1 0x24 PUSH1 0x0 REVERT JUMPDEST PUSH1 0x0 PUSH2 0x130D DUP3 PUSH2 0xD1B JUMP JUMPDEST SWAP2 POP PUSH2 0x1318 DUP4 PUSH2 0xD1B JUMP JUMPDEST SWAP3 POP DUP3 PUSH2 0x1328 JUMPI PUSH2 0x1327 PUSH2 0x12D3 JUMP JUMPDEST JUMPDEST DUP3 DUP3 DIV SWAP1 POP SWAP3 SWAP2 POP POP JUMP JUMPDEST PUSH1 0x0 PUSH2 0x133E DUP3 PUSH2 0xD1B JUMP JUMPDEST SWAP2 POP PUSH2 0x1349 DUP4 PUSH2 0xD1B JUMP JUMPDEST SWAP3 POP DUP3 DUP3 SUB SWAP1 POP DUP2 DUP2 GT ISZERO PUSH2 0x1361 JUMPI PUSH2 0x1360 PUSH2 0x1011 JUMP JUMPDEST JUMPDEST SWAP3 SWAP2 POP POP JUMP JUMPDEST PUSH32 0x4661696C656420746F2073656E6420457468657220746F207468652073656C6C PUSH1 0x0 DUP3 ADD MSTORE PUSH32 0x6572000000000000000000000000000000000000000000000000000000000000 PUSH1 0x20 DUP3 ADD MSTORE POP JUMP JUMPDEST PUSH1 0x0 PUSH2 0x13C3 PUSH1 0x22 DUP4 PUSH2 0xDDE JUMP JUMPDEST SWAP2 POP PUSH2 0x13CE DUP3 PUSH2 0x1367 JUMP JUMPDEST PUSH1 0x40 DUP3 ADD SWAP1 POP SWAP2 SWAP1 POP JUMP JUMPDEST PUSH1 0x0 PUSH1 0x20 DUP3 ADD SWAP1 POP DUP2 DUP2 SUB PUSH1 0x0 DUP4 ADD MSTORE PUSH2 0x13F2 DUP2 PUSH2 0x13B6 JUMP JUMPDEST SWAP1 POP SWAP2 SWAP1 POP JUMP JUMPDEST PUSH32 0x4661696C656420746F2073656E6420726F79616C7469657320746F206F726967 PUSH1 0x0 DUP3 ADD MSTORE PUSH32 0x696E616C206F776E657200000000000000000000000000000000000000000000 PUSH1 0x20 DUP3 ADD MSTORE POP JUMP JUMPDEST PUSH1 0x0 PUSH2 0x1455 PUSH1 0x2A DUP4 PUSH2 0xDDE JUMP JUMPDEST SWAP2 POP PUSH2 0x1460 DUP3 PUSH2 0x13F9 JUMP JUMPDEST PUSH1 0x40 DUP3 ADD SWAP1 POP SWAP2 SWAP1 POP JUMP JUMPDEST PUSH1 0x0 PUSH1 0x20 DUP3 ADD SWAP1 POP DUP2 DUP2 SUB PUSH1 0x0 DUP4 ADD MSTORE PUSH2 0x1484 DUP2 PUSH2 0x1448 JUMP JUMPDEST SWAP1 POP SWAP2 SWAP1 POP JUMP JUMPDEST PUSH32 0x4661696C656420746F2073656E64206665657320746F206D61726B6574706C61 PUSH1 0x0 DUP3 ADD MSTORE PUSH32 0x636520636F6E7472616374000000000000000000000000000000000000000000 PUSH1 0x20 DUP3 ADD MSTORE POP JUMP JUMPDEST PUSH1 0x0 PUSH2 0x14E7 PUSH1 0x2B DUP4 PUSH2 0xDDE JUMP JUMPDEST SWAP2 POP PUSH2 0x14F2 DUP3 PUSH2 0x148B JUMP JUMPDEST PUSH1 0x40 DUP3 ADD SWAP1 POP SWAP2 SWAP1 POP JUMP JUMPDEST PUSH1 0x0 PUSH1 0x20 DUP3 ADD SWAP1 POP DUP2 DUP2 SUB PUSH1 0x0 DUP4 ADD MSTORE PUSH2 0x1516 DUP2 PUSH2 0x14DA JUMP JUMPDEST SWAP1 POP SWAP2 SWAP1 POP JUMP JUMPDEST PUSH1 0x0 DUP2 SWAP1 POP SWAP2 SWAP1 POP JUMP JUMPDEST PUSH1 0x0 PUSH2 0x1542 PUSH2 0x153D PUSH2 0x1538 DUP5 PUSH2 0xC90 JUMP JUMPDEST PUSH2 0x151D JUMP JUMPDEST PUSH2 0xC90 JUMP JUMPDEST SWAP1 POP SWAP2 SWAP1 POP JUMP JUMPDEST PUSH1 0x0 PUSH2 0x1554 DUP3 PUSH2 0x1527 JUMP JUMPDEST SWAP1 POP SWAP2 SWAP1 POP JUMP JUMPDEST PUSH1 0x0 PUSH2 0x1566 DUP3 PUSH2 0x1549 JUMP JUMPDEST SWAP1 POP SWAP2 SWAP1 POP JUMP JUMPDEST PUSH2 0x1576 DUP2 PUSH2 0x155B JUMP JUMPDEST DUP3 MSTORE POP POP JUMP JUMPDEST PUSH1 0x0 PUSH1 0x40 DUP3 ADD SWAP1 POP PUSH2 0x1591 PUSH1 0x0 DUP4 ADD DUP6 PUSH2 0xD25 JUMP JUMPDEST PUSH2 0x159E PUSH1 0x20 DUP4 ADD DUP5 PUSH2 0x156D JUMP JUMPDEST SWAP4 SWAP3 POP POP POP JUMP JUMPDEST PUSH1 0x0 PUSH1 0xC0 DUP3 ADD SWAP1 POP PUSH2 0x15BA PUSH1 0x0 DUP4 ADD DUP10 PUSH2 0x1074 JUMP JUMPDEST PUSH2 0x15C7 PUSH1 0x20 DUP4 ADD DUP9 PUSH2 0xD25 JUMP JUMPDEST PUSH2 0x15D4 PUSH1 0x40 DUP4 ADD DUP8 PUSH2 0xD25 JUMP JUMPDEST PUSH2 0x15E1 PUSH1 0x60 DUP4 ADD DUP7 PUSH2 0x156D JUMP JUMPDEST PUSH2 0x15EE PUSH1 0x80 DUP4 ADD DUP6 PUSH2 0xD25 JUMP JUMPDEST PUSH2 0x15FB PUSH1 0xA0 DUP4 ADD DUP5 PUSH2 0xD25 JUMP JUMPDEST SWAP8 SWAP7 POP POP POP POP POP POP POP JUMP JUMPDEST PUSH32 0x5265656E7472616E637947756172643A207265656E7472616E742063616C6C00 PUSH1 0x0 DUP3 ADD MSTORE POP JUMP JUMPDEST PUSH1 0x0 PUSH2 0x163C PUSH1 0x1F DUP4 PUSH2 0xDDE JUMP JUMPDEST SWAP2 POP PUSH2 0x1647 DUP3 PUSH2 0x1606 JUMP JUMPDEST PUSH1 0x20 DUP3 ADD SWAP1 POP SWAP2 SWAP1 POP JUMP JUMPDEST PUSH1 0x0 PUSH1 0x20 DUP3 ADD SWAP1 POP DUP2 DUP2 SUB PUSH1 0x0 DUP4 ADD MSTORE PUSH2 0x166B DUP2 PUSH2 0x162F JUMP JUMPDEST SWAP1 POP SWAP2 SWAP1 POP JUMP JUMPDEST PUSH32 0x4E487B7100000000000000000000000000000000000000000000000000000000 PUSH1 0x0 MSTORE PUSH1 0x51 PUSH1 0x4 MSTORE PUSH1 0x24 PUSH1 0x0 REVERT INVALID LOG2 PUSH5 0x6970667358 0x22 SLT KECCAK256 0xC1 SELFDESTRUCT SWAP1 MSIZE SWAP13 0xB9 PUSH27 0x41D310B496922138D121D90BEFE5B4AE3065D2AB0D265B0EC26473 PUSH16 0x6C63430008130033A264697066735822 SLT KECCAK256 CALL DUP6 0x29 0xF6 SELFBALANCE 0xAD PUSH23 0xAED49639B52E44670FCF8C69067F4323766B963E887A3E PUSH31 0x8064736F6C6343000813003300000000000000000000000000000000000000 "},"methodIdentifiers":{"auctions(uint256)":"571a26a0","changeActiveStatus(uint256)":"a75654d9","createAuction(uint256,uint256,uint256,address)":"819c9e4c","getActiveAuctionIds()":"fdc5f3d1"}}}}}