{
  "_format": "hh-sol-artifact-1",
  "contractName": "AuctionFactory",
  "sourceName": "contracts/AuctionFactory.sol",
  "abi": [
    {
      "inputs": [
        {
          "internalType": "address",
          "name": "_marketplaceAddress",
          "type": "address"
        }
      ],
      "stateMutability": "nonpayable",
      "type": "constructor"
    },
    {
      "anonymous": false,
      "inputs": [
        {
          "indexed": false,
          "internalType": "uint256",
          "name": "nftId",
          "type": "uint256"
        },
        {
          "indexed": false,
          "internalType": "uint256",
          "name": "startingPrice",
          "type": "uint256"
        },
        {
          "indexed": false,
          "internalType": "uint256",
          "name": "startTime",
          "type": "uint256"
        },
        {
          "indexed": false,
          "internalType": "uint256",
          "name": "auctionDuration",
          "type": "uint256"
        },
        {
          "indexed": false,
          "internalType": "address",
          "name": "seller",
          "type": "address"
        },
        {
          "indexed": false,
          "internalType": "address",
          "name": "auctionAddress",
          "type": "address"
        }
      ],
      "name": "AuctionCreated",
      "type": "event"
    },
    {
      "inputs": [
        {
          "internalType": "uint256",
          "name": "",
          "type": "uint256"
        }
      ],
      "name": "auctions",
      "outputs": [
        {
          "internalType": "address",
          "name": "auctionAddress",
          "type": "address"
        },
        {
          "internalType": "uint256",
          "name": "nftId",
          "type": "uint256"
        },
        {
          "internalType": "uint256",
          "name": "startingPrice",
          "type": "uint256"
        },
        {
          "internalType": "uint256",
          "name": "startTime",
          "type": "uint256"
        },
        {
          "internalType": "uint256",
          "name": "auctionDuration",
          "type": "uint256"
        },
        {
          "internalType": "address",
          "name": "seller",
          "type": "address"
        }
      ],
      "stateMutability": "view",
      "type": "function"
    },
    {
      "inputs": [
        {
          "internalType": "uint256",
          "name": "startingPrice",
          "type": "uint256"
        },
        {
          "internalType": "uint256",
          "name": "auctionDuration",
          "type": "uint256"
        },
        {
          "internalType": "uint256",
          "name": "nftId",
          "type": "uint256"
        },
        {
          "internalType": "address",
          "name": "seller",
          "type": "address"
        }
      ],
      "name": "createAuction",
      "outputs": [],
      "stateMutability": "nonpayable",
      "type": "function"
    }
  ],
  "bytecode": "0x608060405234801561001057600080fd5b50604051611e2c380380611e2c8339818101604052810190610032919061011c565b336000806101000a81548173ffffffffffffffffffffffffffffffffffffffff021916908373ffffffffffffffffffffffffffffffffffffffff16021790555080600160006101000a81548173ffffffffffffffffffffffffffffffffffffffff021916908373ffffffffffffffffffffffffffffffffffffffff16021790555050610149565b600080fd5b600073ffffffffffffffffffffffffffffffffffffffff82169050919050565b60006100e9826100be565b9050919050565b6100f9816100de565b811461010457600080fd5b50565b600081519050610116816100f0565b92915050565b600060208284031215610132576101316100b9565b5b600061014084828501610107565b91505092915050565b611cd4806101586000396000f3fe60806040523480156200001157600080fd5b50600436106200003a5760003560e01c8063571a26a0146200003f578063819c9e4c146200007a575b600080fd5b6200005d600480360381019062000057919062000511565b6200009a565b604051620000719695949392919062000599565b60405180910390f35b62000098600480360381019062000092919062000637565b62000116565b005b60026020528060005260406000206000915090508060000160009054906101000a900473ffffffffffffffffffffffffffffffffffffffff16908060010154908060020154908060030154908060040154908060050160009054906101000a900473ffffffffffffffffffffffffffffffffffffffff16905086565b600073ffffffffffffffffffffffffffffffffffffffff168173ffffffffffffffffffffffffffffffffffffffff160362000188576040517f08c379a00000000000000000000000000000000000000000000000000000000081526004016200017f906200070a565b60405180910390fd5b60008411620001ce576040517f08c379a0000000000000000000000000000000000000000000000000000000008152600401620001c590620007a2565b60405180910390fd5b600073ffffffffffffffffffffffffffffffffffffffff166002600084815260200190815260200160002060050160009054906101000a900473ffffffffffffffffffffffffffffffffffffffff1673ffffffffffffffffffffffffffffffffffffffff161462000276576040517f08c379a00000000000000000000000000000000000000000000000000000000081526004016200026d906200083a565b60405180910390fd5b60004290506000838684600160009054906101000a900473ffffffffffffffffffffffffffffffffffffffff16604051620002b190620004c3565b620002c094939291906200085c565b604051809103906000f080158015620002dd573d6000803e3d6000fd5b5090506040518060c001604052808273ffffffffffffffffffffffffffffffffffffffff1681526020018581526020018781526020014281526020018681526020018473ffffffffffffffffffffffffffffffffffffffff168152506002600086815260200190815260200160002060008201518160000160006101000a81548173ffffffffffffffffffffffffffffffffffffffff021916908373ffffffffffffffffffffffffffffffffffffffff1602179055506020820151816001015560408201518160020155606082015181600301556080820151816004015560a08201518160050160006101000a81548173ffffffffffffffffffffffffffffffffffffffff021916908373ffffffffffffffffffffffffffffffffffffffff1602179055509050503073ffffffffffffffffffffffffffffffffffffffff166323b872dd8430876040518463ffffffff1660e01b81526004016200044493929190620008a9565b600060405180830381600087803b1580156200045f57600080fd5b505af115801562000474573d6000803e3d6000fd5b505050507fedab571cba7475c1ac2b5fd955153bf28aaf5f5492ef6100a32d4f20f7edc74e848784888786604051620004b396959493929190620008e6565b60405180910390a1505050505050565b61134b806200095483390190565b600080fd5b6000819050919050565b620004eb81620004d6565b8114620004f757600080fd5b50565b6000813590506200050b81620004e0565b92915050565b6000602082840312156200052a5762000529620004d1565b5b60006200053a84828501620004fa565b91505092915050565b600073ffffffffffffffffffffffffffffffffffffffff82169050919050565b6000620005708262000543565b9050919050565b620005828162000563565b82525050565b6200059381620004d6565b82525050565b600060c082019050620005b0600083018962000577565b620005bf602083018862000588565b620005ce604083018762000588565b620005dd606083018662000588565b620005ec608083018562000588565b620005fb60a083018462000577565b979650505050505050565b620006118162000563565b81146200061d57600080fd5b50565b600081359050620006318162000606565b92915050565b60008060008060808587031215620006545762000653620004d1565b5b60006200066487828801620004fa565b94505060206200067787828801620004fa565b93505060406200068a87828801620004fa565b92505060606200069d8782880162000620565b91505092959194509250565b600082825260208201905092915050565b7f496e76616c69642073656c6c6572206164647265737300000000000000000000600082015250565b6000620006f2601683620006a9565b9150620006ff82620006ba565b602082019050919050565b600060208201905081810360008301526200072581620006e3565b9050919050565b7f5374617274696e67207072696365206d757374206265206174206c656173742060008201527f3120776569000000000000000000000000000000000000000000000000000000602082015250565b60006200078a602583620006a9565b915062000797826200072c565b604082019050919050565b60006020820190508181036000830152620007bd816200077b565b9050919050565b7f41756374696f6e20666f722074686973206e667420616c72656164792065786960008201527f7374730000000000000000000000000000000000000000000000000000000000602082015250565b600062000822602383620006a9565b91506200082f82620007c4565b604082019050919050565b60006020820190508181036000830152620008558162000813565b9050919050565b600060808201905062000873600083018762000588565b62000882602083018662000588565b62000891604083018562000577565b620008a0606083018462000577565b95945050505050565b6000606082019050620008c0600083018662000577565b620008cf602083018562000577565b620008de604083018462000588565b949350505050565b600060c082019050620008fd600083018962000588565b6200090c602083018862000588565b6200091b604083018762000588565b6200092a606083018662000588565b62000939608083018562000577565b6200094860a083018462000577565b97965050505050505056fe60806040523480156200001157600080fd5b506040516200134b3803806200134b8339818101604052810190620000379190620001e1565b600160008190555080600260006101000a81548173ffffffffffffffffffffffffffffffffffffffff021916908373ffffffffffffffffffffffffffffffffffffffff160217905550600260009054906101000a900473ffffffffffffffffffffffffffffffffffffffff16600360006101000a81548173ffffffffffffffffffffffffffffffffffffffff021916908373ffffffffffffffffffffffffffffffffffffffff1602179055508360018190555081600460006101000a81548173ffffffffffffffffffffffffffffffffffffffff021916908373ffffffffffffffffffffffffffffffffffffffff160217905550826005819055505050505062000253565b600080fd5b6000819050919050565b620001568162000141565b81146200016257600080fd5b50565b60008151905062000176816200014b565b92915050565b600073ffffffffffffffffffffffffffffffffffffffff82169050919050565b6000620001a9826200017c565b9050919050565b620001bb816200019c565b8114620001c757600080fd5b50565b600081519050620001db81620001b0565b92915050565b60008060008060808587031215620001fe57620001fd6200013c565b5b60006200020e8782880162000165565b9450506020620002218782880162000165565b93505060406200023487828801620001ca565b92505060606200024787828801620001ca565b91505092959194509250565b6110e880620002636000396000f3fe60806040526004361061003f5760003560e01c80631998aeef1461004457806326b387bb1461004e5780633ccfd60b1461008b578063b9a2de3a146100b6575b600080fd5b61004c6100df565b005b34801561005a57600080fd5b5061007560048036038101906100709190610992565b6103a2565b60405161008291906109d8565b60405180910390f35b34801561009757600080fd5b506100a06103ba565b6040516100ad9190610a0e565b60405180910390f35b3480156100c257600080fd5b506100dd60048036038101906100d89190610a55565b610535565b005b6100e76108d6565b3373ffffffffffffffffffffffffffffffffffffffff16600460009054906101000a900473ffffffffffffffffffffffffffffffffffffffff1673ffffffffffffffffffffffffffffffffffffffff1603610177576040517f08c379a000000000000000000000000000000000000000000000000000000000815260040161016e90610b05565b60405180910390fd5b6005543410156101bc576040517f08c379a00000000000000000000000000000000000000000000000000000000081526004016101b390610b97565b60405180910390fd5b6007543411610200576040517f08c379a00000000000000000000000000000000000000000000000000000000081526004016101f790610c29565b60405180910390fd5b3373ffffffffffffffffffffffffffffffffffffffff16600660009054906101000a900473ffffffffffffffffffffffffffffffffffffffff1673ffffffffffffffffffffffffffffffffffffffff1603610290576040517f08c379a000000000000000000000000000000000000000000000000000000000815260040161028790610c95565b60405180910390fd5b6000600754146103155760075460096000600660009054906101000a900473ffffffffffffffffffffffffffffffffffffffff1673ffffffffffffffffffffffffffffffffffffffff1673ffffffffffffffffffffffffffffffffffffffff168152602001908152602001600020600082825461030d9190610ce4565b925050819055505b3460078190555033600660006101000a81548173ffffffffffffffffffffffffffffffffffffffff021916908373ffffffffffffffffffffffffffffffffffffffff1602179055507f13692bed0518bbe01c8a2b50a32f14d0d4abaa43dce4da7af1814182ee64431733343060405161039093929190610d27565b60405180910390a16103a0610925565b565b60096020528060005260406000206000915090505481565b600060011515600860009054906101000a900460ff16151514610412576040517f08c379a000000000000000000000000000000000000000000000000000000000815260040161040990610dd0565b60405180910390fd5b6000600960003373ffffffffffffffffffffffffffffffffffffffff1673ffffffffffffffffffffffffffffffffffffffff168152602001908152602001600020549050600081111561052c576000600960003373ffffffffffffffffffffffffffffffffffffffff1673ffffffffffffffffffffffffffffffffffffffff168152602001908152602001600020819055503373ffffffffffffffffffffffffffffffffffffffff166108fc829081150290604051600060405180830381858888f1935050505061052b5780600960003373ffffffffffffffffffffffffffffffffffffffff1673ffffffffffffffffffffffffffffffffffffffff168152602001908152602001600020819055506000915050610532565b5b60019150505b90565b61053d6108d6565b600460009054906101000a900473ffffffffffffffffffffffffffffffffffffffff1673ffffffffffffffffffffffffffffffffffffffff163373ffffffffffffffffffffffffffffffffffffffff16146105cd576040517f08c379a00000000000000000000000000000000000000000000000000000000081526004016105c490610e3c565b60405180910390fd5b6000600660009054906101000a900473ffffffffffffffffffffffffffffffffffffffff169050600073ffffffffffffffffffffffffffffffffffffffff16600660009054906101000a900473ffffffffffffffffffffffffffffffffffffffff1673ffffffffffffffffffffffffffffffffffffffff16146107af576000600460009054906101000a900473ffffffffffffffffffffffffffffffffffffffff1673ffffffffffffffffffffffffffffffffffffffff1660075460405161069490610e8d565b60006040518083038185875af1925050503d80600081146106d1576040519150601f19603f3d011682016040523d82523d6000602084013e6106d6565b606091505b505090508061071a576040517f08c379a000000000000000000000000000000000000000000000000000000000815260040161071190610f14565b60405180910390fd5b600360009054906101000a900473ffffffffffffffffffffffffffffffffffffffff1673ffffffffffffffffffffffffffffffffffffffff16638f329b3184846040518363ffffffff1660e01b8152600401610777929190610f34565b600060405180830381600087803b15801561079157600080fd5b505af11580156107a5573d6000803e3d6000fd5b5050505050610861565b600360009054906101000a900473ffffffffffffffffffffffffffffffffffffffff1673ffffffffffffffffffffffffffffffffffffffff16638f329b3183600460009054906101000a900473ffffffffffffffffffffffffffffffffffffffff166040518363ffffffff1660e01b815260040161082e929190610fbc565b600060405180830381600087803b15801561084857600080fd5b505af115801561085c573d6000803e3d6000fd5b505050505b7f93de927ed018f9abbaa00feee71bdae41a752a7b21d3390a039807f8a6870e943042600154600460009054906101000a900473ffffffffffffffffffffffffffffffffffffffff166005546007546040516108c296959493929190610fe5565b60405180910390a1506108d3610925565b50565b60026000540361091b576040517f08c379a000000000000000000000000000000000000000000000000000000000815260040161091290611092565b60405180910390fd5b6002600081905550565b6001600081905550565b600080fd5b600073ffffffffffffffffffffffffffffffffffffffff82169050919050565b600061095f82610934565b9050919050565b61096f81610954565b811461097a57600080fd5b50565b60008135905061098c81610966565b92915050565b6000602082840312156109a8576109a761092f565b5b60006109b68482850161097d565b91505092915050565b6000819050919050565b6109d2816109bf565b82525050565b60006020820190506109ed60008301846109c9565b92915050565b60008115159050919050565b610a08816109f3565b82525050565b6000602082019050610a2360008301846109ff565b92915050565b610a32816109bf565b8114610a3d57600080fd5b50565b600081359050610a4f81610a29565b92915050565b600060208284031215610a6b57610a6a61092f565b5b6000610a7984828501610a40565b91505092915050565b600082825260208201905092915050565b7f53656c6c65722063616e6e6f7420626964206f6e207468656972206f776e206160008201527f756374696f6e0000000000000000000000000000000000000000000000000000602082015250565b6000610aef602683610a82565b9150610afa82610a93565b604082019050919050565b60006020820190508181036000830152610b1e81610ae2565b9050919050565b7f426964206d7573742062652067726561746572207468616e206f72206571756160008201527f6c20746f207374617274696e6720707269636500000000000000000000000000602082015250565b6000610b81603383610a82565b9150610b8c82610b25565b604082019050919050565b60006020820190508181036000830152610bb081610b74565b9050919050565b7f426964206d7573742062652067726561746572207468616e2063757272656e7460008201527f2068696768657374206269640000000000000000000000000000000000000000602082015250565b6000610c13602c83610a82565b9150610c1e82610bb7565b604082019050919050565b60006020820190508181036000830152610c4281610c06565b9050919050565b7f42696464657220697320616c7265616479206869676865737420626964646572600082015250565b6000610c7f602083610a82565b9150610c8a82610c49565b602082019050919050565b60006020820190508181036000830152610cae81610c72565b9050919050565b7f4e487b7100000000000000000000000000000000000000000000000000000000600052601160045260246000fd5b6000610cef826109bf565b9150610cfa836109bf565b9250828201905080821115610d1257610d11610cb5565b5b92915050565b610d2181610954565b82525050565b6000606082019050610d3c6000830186610d18565b610d4960208301856109c9565b610d566040830184610d18565b949350505050565b7f557365722063616e206f6e6c792077697468647261772066756e64732061667460008201527f65722061756374696f6e2068617320656e646564000000000000000000000000602082015250565b6000610dba603483610a82565b9150610dc582610d5e565b604082019050919050565b60006020820190508181036000830152610de981610dad565b9050919050565b7f4f6e6c79204e4654206f776e65722063616e20656e642061756374696f6e0000600082015250565b6000610e26601e83610a82565b9150610e3182610df0565b602082019050919050565b60006020820190508181036000830152610e5581610e19565b9050919050565b600081905092915050565b50565b6000610e77600083610e5c565b9150610e8282610e67565b600082019050919050565b6000610e9882610e6a565b9150819050919050565b7f4661696c656420746f2073656e6420457468657220746f207468652073656c6c60008201527f6572000000000000000000000000000000000000000000000000000000000000602082015250565b6000610efe602283610a82565b9150610f0982610ea2565b604082019050919050565b60006020820190508181036000830152610f2d81610ef1565b9050919050565b6000604082019050610f4960008301856109c9565b610f566020830184610d18565b9392505050565b6000819050919050565b6000610f82610f7d610f7884610934565b610f5d565b610934565b9050919050565b6000610f9482610f67565b9050919050565b6000610fa682610f89565b9050919050565b610fb681610f9b565b82525050565b6000604082019050610fd160008301856109c9565b610fde6020830184610fad565b9392505050565b600060c082019050610ffa6000830189610d18565b61100760208301886109c9565b61101460408301876109c9565b6110216060830186610fad565b61102e60808301856109c9565b61103b60a08301846109c9565b979650505050505050565b7f5265656e7472616e637947756172643a207265656e7472616e742063616c6c00600082015250565b600061107c601f83610a82565b915061108782611046565b602082019050919050565b600060208201905081810360008301526110ab8161106f565b905091905056fea2646970667358221220325e291abd9b5c9b1d57cee0f0edfd5cb4f6291583627fb8fc00f0af5fb6ea2464736f6c63430008130033a26469706673582212207182667583cbfe1317cb18a590c2073f970fe8c724d129400afd53dc8a11cc5664736f6c63430008130033",
  "linkReferences": {},
  "deployedLinkReferences": {}
}