{
  "_format": "hh-sol-artifact-1",
  "contractName": "AuctionFactory",
  "sourceName": "contracts/AuctionFactory.sol",
  "abi": [
    {
      "inputs": [
        {
          "internalType": "address",
          "name": "_marketplaceAddress",
          "type": "address"
        }
      ],
      "stateMutability": "nonpayable",
      "type": "constructor"
    },
    {
      "anonymous": false,
      "inputs": [
        {
          "indexed": false,
          "internalType": "uint256",
          "name": "nftId",
          "type": "uint256"
        },
        {
          "indexed": false,
          "internalType": "uint256",
          "name": "startingPrice",
          "type": "uint256"
        },
        {
          "indexed": false,
          "internalType": "uint256",
          "name": "startTime",
          "type": "uint256"
        },
        {
          "indexed": false,
          "internalType": "uint256",
          "name": "auctionDuration",
          "type": "uint256"
        },
        {
          "indexed": false,
          "internalType": "address",
          "name": "seller",
          "type": "address"
        },
        {
          "indexed": false,
          "internalType": "address",
          "name": "auctionAddress",
          "type": "address"
        }
      ],
      "name": "AuctionCreated",
      "type": "event"
    },
    {
      "inputs": [
        {
          "internalType": "uint256",
          "name": "",
          "type": "uint256"
        }
      ],
      "name": "auctions",
      "outputs": [
        {
          "internalType": "address",
          "name": "auctionAddress",
          "type": "address"
        },
        {
          "internalType": "uint256",
          "name": "nftId",
          "type": "uint256"
        },
        {
          "internalType": "uint256",
          "name": "startingPrice",
          "type": "uint256"
        },
        {
          "internalType": "uint256",
          "name": "startTime",
          "type": "uint256"
        },
        {
          "internalType": "uint256",
          "name": "auctionDuration",
          "type": "uint256"
        },
        {
          "internalType": "address",
          "name": "seller",
          "type": "address"
        },
        {
          "internalType": "bool",
          "name": "active",
          "type": "bool"
        }
      ],
      "stateMutability": "view",
      "type": "function"
    },
    {
      "inputs": [
        {
          "internalType": "uint256",
          "name": "nftId",
          "type": "uint256"
        }
      ],
      "name": "changeActiveStatus",
      "outputs": [],
      "stateMutability": "nonpayable",
      "type": "function"
    },
    {
      "inputs": [
        {
          "internalType": "uint256",
          "name": "startingPrice",
          "type": "uint256"
        },
        {
          "internalType": "uint256",
          "name": "auctionDuration",
          "type": "uint256"
        },
        {
          "internalType": "uint256",
          "name": "nftId",
          "type": "uint256"
        },
        {
          "internalType": "address",
          "name": "seller",
          "type": "address"
        }
      ],
      "name": "createAuction",
      "outputs": [],
      "stateMutability": "nonpayable",
      "type": "function"
    },
    {
      "inputs": [],
      "name": "getActiveAuctionIds",
      "outputs": [
        {
          "internalType": "uint256[]",
          "name": "",
          "type": "uint256[]"
        }
      ],
      "stateMutability": "view",
      "type": "function"
    }
  ],
  "bytecode": "0x608060405234801561001057600080fd5b5060405162002ada38038062002ada83398181016040528101906100349190610160565b33600360006101000a81548173ffffffffffffffffffffffffffffffffffffffff021916908373ffffffffffffffffffffffffffffffffffffffff16021790555080600460006101000a81548173ffffffffffffffffffffffffffffffffffffffff021916908373ffffffffffffffffffffffffffffffffffffffff16021790555080600560006101000a81548173ffffffffffffffffffffffffffffffffffffffff021916908373ffffffffffffffffffffffffffffffffffffffff1602179055505061018d565b600080fd5b600073ffffffffffffffffffffffffffffffffffffffff82169050919050565b600061012d82610102565b9050919050565b61013d81610122565b811461014857600080fd5b50565b60008151905061015a81610134565b92915050565b600060208284031215610176576101756100fd565b5b60006101848482850161014b565b91505092915050565b61293d806200019d6000396000f3fe60806040523480156200001157600080fd5b5060043610620000525760003560e01c8063571a26a01462000057578063819c9e4c1462000093578063a75654d914620000b3578063fdc5f3d114620000d3575b600080fd5b6200007560048036038101906200006f919062000825565b620000f5565b6040516200008a9796959493929190620008ca565b60405180910390f35b620000b16004803603810190620000ab919062000978565b62000184565b005b620000d16004803603810190620000cb919062000825565b6200054b565b005b620000dd62000594565b604051620000ec919062000ab8565b60405180910390f35b60066020528060005260406000206000915090508060000160009054906101000a900473ffffffffffffffffffffffffffffffffffffffff16908060010154908060020154908060030154908060040154908060050160009054906101000a900473ffffffffffffffffffffffffffffffffffffffff16908060050160149054906101000a900460ff16905087565b600073ffffffffffffffffffffffffffffffffffffffff168173ffffffffffffffffffffffffffffffffffffffff1603620001f6576040517f08c379a0000000000000000000000000000000000000000000000000000000008152600401620001ed9062000b3d565b60405180910390fd5b600084116200023c576040517f08c379a0000000000000000000000000000000000000000000000000000000008152600401620002339062000bd5565b60405180910390fd5b60004290506000838684600460009054906101000a900473ffffffffffffffffffffffffffffffffffffffff16306040516200027890620007cb565b6200028895949392919062000bf7565b604051809103906000f080158015620002a5573d6000803e3d6000fd5b5090506040518060e001604052808273ffffffffffffffffffffffffffffffffffffffff1681526020018581526020018781526020014281526020018681526020018473ffffffffffffffffffffffffffffffffffffffff168152602001600115158152506006600086815260200190815260200160002060008201518160000160006101000a81548173ffffffffffffffffffffffffffffffffffffffff021916908373ffffffffffffffffffffffffffffffffffffffff1602179055506020820151816001015560408201518160020155606082015181600301556080820151816004015560a08201518160050160006101000a81548173ffffffffffffffffffffffffffffffffffffffff021916908373ffffffffffffffffffffffffffffffffffffffff16021790555060c08201518160050160146101000a81548160ff021916908315150217905550905050600560009054906101000a900473ffffffffffffffffffffffffffffffffffffffff1673ffffffffffffffffffffffffffffffffffffffff1663804fa8358588866040518463ffffffff1660e01b8152600401620004579392919062000c54565b600060405180830381600087803b1580156200047257600080fd5b505af115801562000487573d6000803e3d6000fd5b50505050620004cb6040518060400160405280601981526020017f526573656c6c204d61726b6574204974656d2043616c6c656400000000000000815250620005ee565b620004d760006200068b565b60028490806001815401808255809150506001900390600052602060002001600090919091909150557fedab571cba7475c1ac2b5fd955153bf28aaf5f5492ef6100a32d4f20f7edc74e8487848887866040516200053b9695949392919062000c91565b60405180910390a1505050505050565b60006006600083815260200190815260200160002060050160146101000a81548160ff0219169083151502179055506200058581620006a1565b6200059160016200068b565b50565b60606002805480602002602001604051908101604052809291908181526020018280548015620005e457602002820191906000526020600020905b815481526020019060010190808311620005cf575b5050505050905090565b620006888160405160240162000605919062000d87565b6040516020818303038152906040527f41304fac000000000000000000000000000000000000000000000000000000007bffffffffffffffffffffffffffffffffffffffffffffffffffffffff19166020820180517bffffffffffffffffffffffffffffffffffffffffffffffffffffffff838183161783525050505062000780565b50565b6001816000016000828254019250508190555050565b60005b6002805490508110156200077c578160028281548110620006ca57620006c962000dab565b5b906000526020600020015403620007665760026001600280549050620006f1919062000e09565b8154811062000705576200070462000dab565b5b90600052602060002001546002828154811062000727576200072662000dab565b5b906000526020600020018190555060028054806200074a576200074962000e44565b5b600190038181906000526020600020016000905590556200077c565b8080620007739062000e73565b915050620006a4565b5050565b6200079b81620007936200079e620007bf565b63ffffffff16565b50565b60006a636f6e736f6c652e6c6f679050600080835160208501845afa505050565b620007d9819050919050565b611a188062000ef083390190565b620007e362000ec0565b565b600080fd5b6000819050919050565b620007ff81620007ea565b81146200080b57600080fd5b50565b6000813590506200081f81620007f4565b92915050565b6000602082840312156200083e576200083d620007e5565b5b60006200084e848285016200080e565b91505092915050565b600073ffffffffffffffffffffffffffffffffffffffff82169050919050565b6000620008848262000857565b9050919050565b620008968162000877565b82525050565b620008a781620007ea565b82525050565b60008115159050919050565b620008c481620008ad565b82525050565b600060e082019050620008e1600083018a6200088b565b620008f060208301896200089c565b620008ff60408301886200089c565b6200090e60608301876200089c565b6200091d60808301866200089c565b6200092c60a08301856200088b565b6200093b60c0830184620008b9565b98975050505050505050565b620009528162000877565b81146200095e57600080fd5b50565b600081359050620009728162000947565b92915050565b60008060008060808587031215620009955762000994620007e5565b5b6000620009a5878288016200080e565b9450506020620009b8878288016200080e565b9350506040620009cb878288016200080e565b9250506060620009de8782880162000961565b91505092959194509250565b600081519050919050565b600082825260208201905092915050565b6000819050602082019050919050565b62000a2181620007ea565b82525050565b600062000a35838362000a16565b60208301905092915050565b6000602082019050919050565b600062000a5b82620009ea565b62000a678185620009f5565b935062000a748362000a06565b8060005b8381101562000aab57815162000a8f888262000a27565b975062000a9c8362000a41565b92505060018101905062000a78565b5085935050505092915050565b6000602082019050818103600083015262000ad4818462000a4e565b905092915050565b600082825260208201905092915050565b7f496e76616c69642073656c6c6572206164647265737300000000000000000000600082015250565b600062000b2560168362000adc565b915062000b328262000aed565b602082019050919050565b6000602082019050818103600083015262000b588162000b16565b9050919050565b7f5374617274696e67207072696365206d757374206265206174206c656173742060008201527f3120776569000000000000000000000000000000000000000000000000000000602082015250565b600062000bbd60258362000adc565b915062000bca8262000b5f565b604082019050919050565b6000602082019050818103600083015262000bf08162000bae565b9050919050565b600060a08201905062000c0e60008301886200089c565b62000c1d60208301876200089c565b62000c2c60408301866200088b565b62000c3b60608301856200088b565b62000c4a60808301846200088b565b9695505050505050565b600060608201905062000c6b60008301866200089c565b62000c7a60208301856200089c565b62000c8960408301846200088b565b949350505050565b600060c08201905062000ca860008301896200089c565b62000cb760208301886200089c565b62000cc660408301876200089c565b62000cd560608301866200089c565b62000ce460808301856200088b565b62000cf360a08301846200088b565b979650505050505050565b600081519050919050565b60005b8381101562000d2957808201518184015260208101905062000d0c565b60008484015250505050565b6000601f19601f8301169050919050565b600062000d538262000cfe565b62000d5f818562000adc565b935062000d7181856020860162000d09565b62000d7c8162000d35565b840191505092915050565b6000602082019050818103600083015262000da3818462000d46565b905092915050565b7f4e487b7100000000000000000000000000000000000000000000000000000000600052603260045260246000fd5b7f4e487b7100000000000000000000000000000000000000000000000000000000600052601160045260246000fd5b600062000e1682620007ea565b915062000e2383620007ea565b925082820390508181111562000e3e5762000e3d62000dda565b5b92915050565b7f4e487b7100000000000000000000000000000000000000000000000000000000600052603160045260246000fd5b600062000e8082620007ea565b91507fffffffffffffffffffffffffffffffffffffffffffffffffffffffffffffffff820362000eb55762000eb462000dda565b5b600182019050919050565b7f4e487b7100000000000000000000000000000000000000000000000000000000600052605160045260246000fdfe60806040523480156200001157600080fd5b5060405162001a1838038062001a1883398181016040528101906200003791906200025c565b600160008190555081600260006101000a81548173ffffffffffffffffffffffffffffffffffffffff021916908373ffffffffffffffffffffffffffffffffffffffff160217905550600260009054906101000a900473ffffffffffffffffffffffffffffffffffffffff16600360006101000a81548173ffffffffffffffffffffffffffffffffffffffff021916908373ffffffffffffffffffffffffffffffffffffffff16021790555080600460006101000a81548173ffffffffffffffffffffffffffffffffffffffff021916908373ffffffffffffffffffffffffffffffffffffffff1602179055508460018190555082600560006101000a81548173ffffffffffffffffffffffffffffffffffffffff021916908373ffffffffffffffffffffffffffffffffffffffff160217905550836006819055507f8a8cc462d00726e0f8c031dd2d6b9dcdf0794fb27a88579830dadee27d43ea7c30604051620001a49190620002f5565b60405180910390a1505050505062000312565b600080fd5b6000819050919050565b620001d181620001bc565b8114620001dd57600080fd5b50565b600081519050620001f181620001c6565b92915050565b600073ffffffffffffffffffffffffffffffffffffffff82169050919050565b60006200022482620001f7565b9050919050565b620002368162000217565b81146200024257600080fd5b50565b60008151905062000256816200022b565b92915050565b600080600080600060a086880312156200027b576200027a620001b7565b5b60006200028b88828901620001e0565b95505060206200029e88828901620001e0565b9450506040620002b18882890162000245565b9350506060620002c48882890162000245565b9250506080620002d78882890162000245565b9150509295509295909350565b620002ef8162000217565b82525050565b60006020820190506200030c6000830184620002e4565b92915050565b6116f680620003226000396000f3fe6080604052600436106100495760003560e01c80623495a41461004e5780631998aeef1461007957806326b387bb146100835780633ccfd60b146100c0578063b9a2de3a146100eb575b600080fd5b34801561005a57600080fd5b50610063610114565b6040516100709190610d1b565b60405180910390f35b61008161013e565b005b34801561008f57600080fd5b506100aa60048036038101906100a59190610d67565b610401565b6040516100b79190610dad565b60405180910390f35b3480156100cc57600080fd5b506100d5610419565b6040516100e29190610de3565b60405180910390f35b3480156100f757600080fd5b50610112600480360381019061010d9190610e2a565b6105ce565b005b6000600760009054906101000a900473ffffffffffffffffffffffffffffffffffffffff16905090565b610146610c81565b3373ffffffffffffffffffffffffffffffffffffffff16600560009054906101000a900473ffffffffffffffffffffffffffffffffffffffff1673ffffffffffffffffffffffffffffffffffffffff16036101d6576040517f08c379a00000000000000000000000000000000000000000000000000000000081526004016101cd90610eda565b60405180910390fd5b60065434101561021b576040517f08c379a000000000000000000000000000000000000000000000000000000000815260040161021290610f6c565b60405180910390fd5b600854341161025f576040517f08c379a000000000000000000000000000000000000000000000000000000000815260040161025690610ffe565b60405180910390fd5b3373ffffffffffffffffffffffffffffffffffffffff16600760009054906101000a900473ffffffffffffffffffffffffffffffffffffffff1673ffffffffffffffffffffffffffffffffffffffff16036102ef576040517f08c379a00000000000000000000000000000000000000000000000000000000081526004016102e69061106a565b60405180910390fd5b60006008541461037457600854600a6000600760009054906101000a900473ffffffffffffffffffffffffffffffffffffffff1673ffffffffffffffffffffffffffffffffffffffff1673ffffffffffffffffffffffffffffffffffffffff168152602001908152602001600020600082825461036c91906110b9565b925050819055505b3460088190555033600760006101000a81548173ffffffffffffffffffffffffffffffffffffffff021916908373ffffffffffffffffffffffffffffffffffffffff1602179055507f13692bed0518bbe01c8a2b50a32f14d0d4abaa43dce4da7af1814182ee6443173334306040516103ef939291906110ed565b60405180910390a16103ff610cd0565b565b600a6020528060005260406000206000915090505481565b600060011515600960009054906101000a900460ff16151514610471576040517f08c379a000000000000000000000000000000000000000000000000000000000815260040161046890611196565b60405180910390fd5b6000600a60003373ffffffffffffffffffffffffffffffffffffffff1673ffffffffffffffffffffffffffffffffffffffff16815260200190815260200160002054905060008111156105c5576000600a60003373ffffffffffffffffffffffffffffffffffffffff1673ffffffffffffffffffffffffffffffffffffffff1681526020019081526020016000208190555060003373ffffffffffffffffffffffffffffffffffffffff1682604051610529906111e7565b60006040518083038185875af1925050503d8060008114610566576040519150601f19603f3d011682016040523d82523d6000602084013e61056b565b606091505b50509050806105c35781600a60003373ffffffffffffffffffffffffffffffffffffffff1673ffffffffffffffffffffffffffffffffffffffff168152602001908152602001600020819055506000925050506105cb565b505b60019150505b90565b6105d6610c81565b600560009054906101000a900473ffffffffffffffffffffffffffffffffffffffff1673ffffffffffffffffffffffffffffffffffffffff163373ffffffffffffffffffffffffffffffffffffffff1614610666576040517f08c379a000000000000000000000000000000000000000000000000000000000815260040161065d90611248565b60405180910390fd5b600080600360009054906101000a900473ffffffffffffffffffffffffffffffffffffffff1673ffffffffffffffffffffffffffffffffffffffff1663a65ff74c846040518263ffffffff1660e01b81526004016106c49190610dad565b6040805180830381865afa1580156106e0573d6000803e3d6000fd5b505050506040513d601f19601f8201168201806040525081019061070491906112bb565b91509150600073ffffffffffffffffffffffffffffffffffffffff16600760009054906101000a900473ffffffffffffffffffffffffffffffffffffffff1673ffffffffffffffffffffffffffffffffffffffff1614610b3e57600060648360085461077091906112fb565b61077a919061136c565b905060008160085461078c919061139d565b90506000606460026008546107a191906112fb565b6107ab919061136c565b90506000600560009054906101000a900473ffffffffffffffffffffffffffffffffffffffff1673ffffffffffffffffffffffffffffffffffffffff16836040516107f5906111e7565b60006040518083038185875af1925050503d8060008114610832576040519150601f19603f3d011682016040523d82523d6000602084013e610837565b606091505b505090508061087b576040517f08c379a000000000000000000000000000000000000000000000000000000000815260040161087290611443565b60405180910390fd5b60008573ffffffffffffffffffffffffffffffffffffffff16856040516108a1906111e7565b60006040518083038185875af1925050503d80600081146108de576040519150601f19603f3d011682016040523d82523d6000602084013e6108e3565b606091505b5050905080610927576040517f08c379a000000000000000000000000000000000000000000000000000000000815260040161091e906114d5565b60405180910390fd5b6000600260009054906101000a900473ffffffffffffffffffffffffffffffffffffffff1673ffffffffffffffffffffffffffffffffffffffff168460405161096f906111e7565b60006040518083038185875af1925050503d80600081146109ac576040519150601f19603f3d011682016040523d82523d6000602084013e6109b1565b606091505b50509050806109f5576040517f08c379a00000000000000000000000000000000000000000000000000000000081526004016109ec90611567565b60405180910390fd5b600360009054906101000a900473ffffffffffffffffffffffffffffffffffffffff1673ffffffffffffffffffffffffffffffffffffffff16638f329b318a600760009054906101000a900473ffffffffffffffffffffffffffffffffffffffff166040518363ffffffff1660e01b8152600401610a749291906115e6565b600060405180830381600087803b158015610a8e57600080fd5b505af1158015610aa2573d6000803e3d6000fd5b50505050600460009054906101000a900473ffffffffffffffffffffffffffffffffffffffff1673ffffffffffffffffffffffffffffffffffffffff1663a75654d98a6040518263ffffffff1660e01b8152600401610b019190610dad565b600060405180830381600087803b158015610b1b57600080fd5b505af1158015610b2f573d6000803e3d6000fd5b50505050505050505050610bf0565b600360009054906101000a900473ffffffffffffffffffffffffffffffffffffffff1673ffffffffffffffffffffffffffffffffffffffff16638f329b3184600560009054906101000a900473ffffffffffffffffffffffffffffffffffffffff166040518363ffffffff1660e01b8152600401610bbd9291906115e6565b600060405180830381600087803b158015610bd757600080fd5b505af1158015610beb573d6000803e3d6000fd5b505050505b7f42cb5db08b8e7bb5fcb35be75ea70eeab5f41fb292cfb2b3afd3b30003288b5a600154600760009054906101000a900473ffffffffffffffffffffffffffffffffffffffff16600560009054906101000a900473ffffffffffffffffffffffffffffffffffffffff166000604051610c6c949392919061160f565b60405180910390a15050610c7e610cd0565b50565b600260005403610cc6576040517f08c379a0000000000000000000000000000000000000000000000000000000008152600401610cbd906116a0565b60405180910390fd5b6002600081905550565b6001600081905550565b600073ffffffffffffffffffffffffffffffffffffffff82169050919050565b6000610d0582610cda565b9050919050565b610d1581610cfa565b82525050565b6000602082019050610d306000830184610d0c565b92915050565b600080fd5b610d4481610cfa565b8114610d4f57600080fd5b50565b600081359050610d6181610d3b565b92915050565b600060208284031215610d7d57610d7c610d36565b5b6000610d8b84828501610d52565b91505092915050565b6000819050919050565b610da781610d94565b82525050565b6000602082019050610dc26000830184610d9e565b92915050565b60008115159050919050565b610ddd81610dc8565b82525050565b6000602082019050610df86000830184610dd4565b92915050565b610e0781610d94565b8114610e1257600080fd5b50565b600081359050610e2481610dfe565b92915050565b600060208284031215610e4057610e3f610d36565b5b6000610e4e84828501610e15565b91505092915050565b600082825260208201905092915050565b7f53656c6c65722063616e6e6f7420626964206f6e207468656972206f776e206160008201527f756374696f6e0000000000000000000000000000000000000000000000000000602082015250565b6000610ec4602683610e57565b9150610ecf82610e68565b604082019050919050565b60006020820190508181036000830152610ef381610eb7565b9050919050565b7f426964206d7573742062652067726561746572207468616e206f72206571756160008201527f6c20746f207374617274696e6720707269636500000000000000000000000000602082015250565b6000610f56603383610e57565b9150610f6182610efa565b604082019050919050565b60006020820190508181036000830152610f8581610f49565b9050919050565b7f426964206d7573742062652067726561746572207468616e2063757272656e7460008201527f2068696768657374206269640000000000000000000000000000000000000000602082015250565b6000610fe8602c83610e57565b9150610ff382610f8c565b604082019050919050565b6000602082019050818103600083015261101781610fdb565b9050919050565b7f42696464657220697320616c7265616479206869676865737420626964646572600082015250565b6000611054602083610e57565b915061105f8261101e565b602082019050919050565b6000602082019050818103600083015261108381611047565b9050919050565b7f4e487b7100000000000000000000000000000000000000000000000000000000600052601160045260246000fd5b60006110c482610d94565b91506110cf83610d94565b92508282019050808211156110e7576110e661108a565b5b92915050565b60006060820190506111026000830186610d0c565b61110f6020830185610d9e565b61111c6040830184610d0c565b949350505050565b7f557365722063616e206f6e6c792077697468647261772066756e64732061667460008201527f65722061756374696f6e2068617320656e646564000000000000000000000000602082015250565b6000611180603483610e57565b915061118b82611124565b604082019050919050565b600060208201905081810360008301526111af81611173565b9050919050565b600081905092915050565b50565b60006111d16000836111b6565b91506111dc826111c1565b600082019050919050565b60006111f2826111c4565b9150819050919050565b7f4f6e6c79204e4654206f776e65722063616e20656e642061756374696f6e0000600082015250565b6000611232601e83610e57565b915061123d826111fc565b602082019050919050565b6000602082019050818103600083015261126181611225565b9050919050565b60008151905061127781610dfe565b92915050565b600061128882610cda565b9050919050565b6112988161127d565b81146112a357600080fd5b50565b6000815190506112b58161128f565b92915050565b600080604083850312156112d2576112d1610d36565b5b60006112e085828601611268565b92505060206112f1858286016112a6565b9150509250929050565b600061130682610d94565b915061131183610d94565b925082820261131f81610d94565b915082820484148315176113365761133561108a565b5b5092915050565b7f4e487b7100000000000000000000000000000000000000000000000000000000600052601260045260246000fd5b600061137782610d94565b915061138283610d94565b9250826113925761139161133d565b5b828204905092915050565b60006113a882610d94565b91506113b383610d94565b92508282039050818111156113cb576113ca61108a565b5b92915050565b7f4661696c656420746f2073656e6420457468657220746f207468652073656c6c60008201527f6572000000000000000000000000000000000000000000000000000000000000602082015250565b600061142d602283610e57565b9150611438826113d1565b604082019050919050565b6000602082019050818103600083015261145c81611420565b9050919050565b7f4661696c656420746f2073656e6420726f79616c7469657320746f206f72696760008201527f696e616c206f776e657200000000000000000000000000000000000000000000602082015250565b60006114bf602a83610e57565b91506114ca82611463565b604082019050919050565b600060208201905081810360008301526114ee816114b2565b9050919050565b7f4661696c656420746f2073656e64206665657320746f206d61726b6574706c6160008201527f636520636f6e7472616374000000000000000000000000000000000000000000602082015250565b6000611551602b83610e57565b915061155c826114f5565b604082019050919050565b6000602082019050818103600083015261158081611544565b9050919050565b6000819050919050565b60006115ac6115a76115a284610cda565b611587565b610cda565b9050919050565b60006115be82611591565b9050919050565b60006115d0826115b3565b9050919050565b6115e0816115c5565b82525050565b60006040820190506115fb6000830185610d9e565b61160860208301846115d7565b9392505050565b60006080820190506116246000830187610d9e565b61163160208301866115d7565b61163e60408301856115d7565b61164b6060830184610d0c565b95945050505050565b7f5265656e7472616e637947756172643a207265656e7472616e742063616c6c00600082015250565b600061168a601f83610e57565b915061169582611654565b602082019050919050565b600060208201905081810360008301526116b98161167d565b905091905056fea2646970667358221220c27a44485c820b470e569514c5de45c328bece68a7a1b7e6c148b7e5de6c936264736f6c63430008130033a2646970667358221220f314913996f5d03d87e1843f05fc36e764e6d19f0e05ce97768f00d2982422aa64736f6c63430008130033",
  "linkReferences": {},
  "deployedLinkReferences": {}
}