{
  "_format": "hh-sol-artifact-1",
  "contractName": "AuctionFactory",
  "sourceName": "contracts/AuctionFactory.sol",
  "abi": [
    {
      "inputs": [
        {
          "internalType": "address",
          "name": "_marketplaceAddress",
          "type": "address"
        }
      ],
      "stateMutability": "nonpayable",
      "type": "constructor"
    },
    {
      "anonymous": false,
      "inputs": [
        {
          "indexed": false,
          "internalType": "uint256",
          "name": "nftId",
          "type": "uint256"
        },
        {
          "indexed": false,
          "internalType": "uint256",
          "name": "startingPrice",
          "type": "uint256"
        },
        {
          "indexed": false,
          "internalType": "uint256",
          "name": "startTime",
          "type": "uint256"
        },
        {
          "indexed": false,
          "internalType": "uint256",
          "name": "auctionDuration",
          "type": "uint256"
        },
        {
          "indexed": false,
          "internalType": "address",
          "name": "seller",
          "type": "address"
        },
        {
          "indexed": false,
          "internalType": "address",
          "name": "auctionAddress",
          "type": "address"
        }
      ],
      "name": "AuctionCreated",
      "type": "event"
    },
    {
      "inputs": [
        {
          "internalType": "uint256",
          "name": "",
          "type": "uint256"
        }
      ],
      "name": "_activeAuctionIds",
      "outputs": [
        {
          "internalType": "uint256",
          "name": "",
          "type": "uint256"
        }
      ],
      "stateMutability": "view",
      "type": "function"
    },
    {
      "inputs": [
        {
          "internalType": "uint256",
          "name": "",
          "type": "uint256"
        }
      ],
      "name": "auctions",
      "outputs": [
        {
          "internalType": "address",
          "name": "auctionAddress",
          "type": "address"
        },
        {
          "internalType": "uint256",
          "name": "nftId",
          "type": "uint256"
        },
        {
          "internalType": "uint256",
          "name": "startingPrice",
          "type": "uint256"
        },
        {
          "internalType": "uint256",
          "name": "startTime",
          "type": "uint256"
        },
        {
          "internalType": "uint256",
          "name": "auctionDuration",
          "type": "uint256"
        },
        {
          "internalType": "address",
          "name": "seller",
          "type": "address"
        },
        {
          "internalType": "bool",
          "name": "active",
          "type": "bool"
        }
      ],
      "stateMutability": "view",
      "type": "function"
    },
    {
      "inputs": [
        {
          "internalType": "uint256",
          "name": "nftId",
          "type": "uint256"
        }
      ],
      "name": "changeActiveStatus",
      "outputs": [],
      "stateMutability": "nonpayable",
      "type": "function"
    },
    {
      "inputs": [
        {
          "internalType": "uint256",
          "name": "startingPrice",
          "type": "uint256"
        },
        {
          "internalType": "uint256",
          "name": "auctionDuration",
          "type": "uint256"
        },
        {
          "internalType": "uint256",
          "name": "nftId",
          "type": "uint256"
        },
        {
          "internalType": "address",
          "name": "seller",
          "type": "address"
        }
      ],
      "name": "createAuction",
      "outputs": [],
      "stateMutability": "nonpayable",
      "type": "function"
    },
    {
      "inputs": [],
      "name": "getActiveAuctionIds",
      "outputs": [
        {
          "internalType": "uint256[]",
          "name": "",
          "type": "uint256[]"
        }
      ],
      "stateMutability": "view",
      "type": "function"
    },
    {
      "inputs": [],
      "name": "marketplaceAddress",
      "outputs": [
        {
          "internalType": "address",
          "name": "",
          "type": "address"
        }
      ],
      "stateMutability": "view",
      "type": "function"
    },
    {
      "inputs": [],
      "name": "owner",
      "outputs": [
        {
          "internalType": "address payable",
          "name": "",
          "type": "address"
        }
      ],
      "stateMutability": "view",
      "type": "function"
    }
  ],
  "bytecode": "0x608060405234801561001057600080fd5b50604051620032623803806200326283398181016040528101906100349190610160565b33600360006101000a81548173ffffffffffffffffffffffffffffffffffffffff021916908373ffffffffffffffffffffffffffffffffffffffff16021790555080600460006101000a81548173ffffffffffffffffffffffffffffffffffffffff021916908373ffffffffffffffffffffffffffffffffffffffff16021790555080600560006101000a81548173ffffffffffffffffffffffffffffffffffffffff021916908373ffffffffffffffffffffffffffffffffffffffff1602179055505061018d565b600080fd5b600073ffffffffffffffffffffffffffffffffffffffff82169050919050565b600061012d82610102565b9050919050565b61013d81610122565b811461014857600080fd5b50565b60008151905061015a81610134565b92915050565b600060208284031215610176576101756100fd565b5b60006101848482850161014b565b91505092915050565b6130c5806200019d6000396000f3fe60806040523480156200001157600080fd5b5060043610620000885760003560e01c80638da5cb5b11620000635780638da5cb5b146200011f578063a75654d91462000141578063daa17f491462000161578063fdc5f3d114620001835762000088565b806310893f87146200008d578063571a26a014620000c3578063819c9e4c14620000ff575b600080fd5b620000ab6004803603810190620000a5919062000812565b620001a5565b604051620000ba919062000855565b60405180910390f35b620000e16004803603810190620000db919062000812565b620001ca565b604051620000f69796959493929190620008d4565b60405180910390f35b6200011d600480360381019062000117919062000982565b62000259565b005b62000129620005e0565b60405162000138919062000a19565b60405180910390f35b6200015f600480360381019062000159919062000812565b62000606565b005b6200016b6200064f565b6040516200017a919062000a36565b60405180910390f35b6200018d62000675565b6040516200019c919062000b21565b60405180910390f35b60028181548110620001b657600080fd5b906000526020600020016000915090505481565b60066020528060005260406000206000915090508060000160009054906101000a900473ffffffffffffffffffffffffffffffffffffffff16908060010154908060020154908060030154908060040154908060050160009054906101000a900473ffffffffffffffffffffffffffffffffffffffff16908060050160149054906101000a900460ff16905087565b600073ffffffffffffffffffffffffffffffffffffffff168173ffffffffffffffffffffffffffffffffffffffff1603620002cb576040517f08c379a0000000000000000000000000000000000000000000000000000000008152600401620002c29062000ba6565b60405180910390fd5b6000841162000311576040517f08c379a0000000000000000000000000000000000000000000000000000000008152600401620003089062000c3e565b60405180910390fd5b60004290506000838684600460009054906101000a900473ffffffffffffffffffffffffffffffffffffffff16306040516200034d90620007c4565b6200035d95949392919062000c60565b604051809103906000f0801580156200037a573d6000803e3d6000fd5b5090506040518060e001604052808273ffffffffffffffffffffffffffffffffffffffff1681526020018581526020018781526020014281526020018681526020018473ffffffffffffffffffffffffffffffffffffffff168152602001600115158152506006600086815260200190815260200160002060008201518160000160006101000a81548173ffffffffffffffffffffffffffffffffffffffff021916908373ffffffffffffffffffffffffffffffffffffffff1602179055506020820151816001015560408201518160020155606082015181600301556080820151816004015560a08201518160050160006101000a81548173ffffffffffffffffffffffffffffffffffffffff021916908373ffffffffffffffffffffffffffffffffffffffff16021790555060c08201518160050160146101000a81548160ff021916908315150217905550905050600560009054906101000a900473ffffffffffffffffffffffffffffffffffffffff1673ffffffffffffffffffffffffffffffffffffffff1663804fa8358588866040518463ffffffff1660e01b81526004016200052c9392919062000cbd565b600060405180830381600087803b1580156200054757600080fd5b505af11580156200055c573d6000803e3d6000fd5b505050506200056c6000620006cf565b60028490806001815401808255809150506001900390600052602060002001600090919091909150557fedab571cba7475c1ac2b5fd955153bf28aaf5f5492ef6100a32d4f20f7edc74e848784888786604051620005d09695949392919062000cfa565b60405180910390a1505050505050565b600360009054906101000a900473ffffffffffffffffffffffffffffffffffffffff1681565b60006006600083815260200190815260200160002060050160146101000a81548160ff0219169083151502179055506200064081620006e5565b6200064c6001620006cf565b50565b600460009054906101000a900473ffffffffffffffffffffffffffffffffffffffff1681565b60606002805480602002602001604051908101604052809291908181526020018280548015620006c557602002820191906000526020600020905b815481526020019060010190808311620006b0575b5050505050905090565b6001816000016000828254019250508190555050565b60005b600280549050811015620007c05781600282815481106200070e576200070d62000d67565b5b906000526020600020015403620007aa576002600160028054905062000735919062000dc5565b8154811062000749576200074862000d67565b5b9060005260206000200154600282815481106200076b576200076a62000d67565b5b906000526020600020018190555060028054806200078e576200078d62000e00565b5b60019003818190600052602060002001600090559055620007c0565b8080620007b79062000e2f565b915050620006e8565b5050565b6122138062000e7d83390190565b600080fd5b6000819050919050565b620007ec81620007d7565b8114620007f857600080fd5b50565b6000813590506200080c81620007e1565b92915050565b6000602082840312156200082b576200082a620007d2565b5b60006200083b84828501620007fb565b91505092915050565b6200084f81620007d7565b82525050565b60006020820190506200086c600083018462000844565b92915050565b600073ffffffffffffffffffffffffffffffffffffffff82169050919050565b60006200089f8262000872565b9050919050565b620008b18162000892565b82525050565b60008115159050919050565b620008ce81620008b7565b82525050565b600060e082019050620008eb600083018a620008a6565b620008fa602083018962000844565b62000909604083018862000844565b62000918606083018762000844565b62000927608083018662000844565b6200093660a0830185620008a6565b6200094560c0830184620008c3565b98975050505050505050565b6200095c8162000892565b81146200096857600080fd5b50565b6000813590506200097c8162000951565b92915050565b600080600080608085870312156200099f576200099e620007d2565b5b6000620009af87828801620007fb565b9450506020620009c287828801620007fb565b9350506040620009d587828801620007fb565b9250506060620009e8878288016200096b565b91505092959194509250565b600062000a018262000872565b9050919050565b62000a1381620009f4565b82525050565b600060208201905062000a30600083018462000a08565b92915050565b600060208201905062000a4d6000830184620008a6565b92915050565b600081519050919050565b600082825260208201905092915050565b6000819050602082019050919050565b62000a8a81620007d7565b82525050565b600062000a9e838362000a7f565b60208301905092915050565b6000602082019050919050565b600062000ac48262000a53565b62000ad0818562000a5e565b935062000add8362000a6f565b8060005b8381101562000b1457815162000af8888262000a90565b975062000b058362000aaa565b92505060018101905062000ae1565b5085935050505092915050565b6000602082019050818103600083015262000b3d818462000ab7565b905092915050565b600082825260208201905092915050565b7f496e76616c69642073656c6c6572206164647265737300000000000000000000600082015250565b600062000b8e60168362000b45565b915062000b9b8262000b56565b602082019050919050565b6000602082019050818103600083015262000bc18162000b7f565b9050919050565b7f5374617274696e67207072696365206d757374206265206174206c656173742060008201527f3120776569000000000000000000000000000000000000000000000000000000602082015250565b600062000c2660258362000b45565b915062000c338262000bc8565b604082019050919050565b6000602082019050818103600083015262000c598162000c17565b9050919050565b600060a08201905062000c77600083018862000844565b62000c86602083018762000844565b62000c956040830186620008a6565b62000ca46060830185620008a6565b62000cb36080830184620008a6565b9695505050505050565b600060608201905062000cd4600083018662000844565b62000ce3602083018562000844565b62000cf26040830184620008a6565b949350505050565b600060c08201905062000d11600083018962000844565b62000d20602083018862000844565b62000d2f604083018762000844565b62000d3e606083018662000844565b62000d4d6080830185620008a6565b62000d5c60a0830184620008a6565b979650505050505050565b7f4e487b7100000000000000000000000000000000000000000000000000000000600052603260045260246000fd5b7f4e487b7100000000000000000000000000000000000000000000000000000000600052601160045260246000fd5b600062000dd282620007d7565b915062000ddf83620007d7565b925082820390508181111562000dfa5762000df962000d96565b5b92915050565b7f4e487b7100000000000000000000000000000000000000000000000000000000600052603160045260246000fd5b600062000e3c82620007d7565b91507fffffffffffffffffffffffffffffffffffffffffffffffffffffffffffffffff820362000e715762000e7062000d96565b5b60018201905091905056fe60806040523480156200001157600080fd5b506040516200221338038062002213833981810160405281019062000037919062000223565b600160008190555081600260006101000a81548173ffffffffffffffffffffffffffffffffffffffff021916908373ffffffffffffffffffffffffffffffffffffffff160217905550600260009054906101000a900473ffffffffffffffffffffffffffffffffffffffff16600360006101000a81548173ffffffffffffffffffffffffffffffffffffffff021916908373ffffffffffffffffffffffffffffffffffffffff16021790555080600460006101000a81548173ffffffffffffffffffffffffffffffffffffffff021916908373ffffffffffffffffffffffffffffffffffffffff1602179055508460018190555082600560006101000a81548173ffffffffffffffffffffffffffffffffffffffff021916908373ffffffffffffffffffffffffffffffffffffffff160217905550836006819055505050505050620002ab565b600080fd5b6000819050919050565b620001988162000183565b8114620001a457600080fd5b50565b600081519050620001b8816200018d565b92915050565b600073ffffffffffffffffffffffffffffffffffffffff82169050919050565b6000620001eb82620001be565b9050919050565b620001fd81620001de565b81146200020957600080fd5b50565b6000815190506200021d81620001f2565b92915050565b600080600080600060a086880312156200024257620002416200017e565b5b60006200025288828901620001a7565b95505060206200026588828901620001a7565b945050604062000278888289016200020c565b93505060606200028b888289016200020c565b92505060806200029e888289016200020c565b9150509295509295909350565b611f5880620002bb6000396000f3fe6080604052600436106100855760003560e01c80633ccfd60b116100595780633ccfd60b14610127578063b9a2de3a14610152578063c6bc51821461017b578063d6fbf202146101a6578063daa17f49146101d157610085565b80623495a41461008a57806308551a53146100b55780631998aeef146100e057806326b387bb146100ea575b600080fd5b34801561009657600080fd5b5061009f6101fc565b6040516100ac919061138f565b60405180910390f35b3480156100c157600080fd5b506100ca610226565b6040516100d791906113cb565b60405180910390f35b6100e861024c565b005b3480156100f657600080fd5b50610111600480360381019061010c9190611417565b6106e9565b60405161011e919061145d565b60405180910390f35b34801561013357600080fd5b5061013c610701565b6040516101499190611493565b60405180910390f35b34801561015e57600080fd5b50610179600480360381019061017491906114da565b610946565b005b34801561018757600080fd5b506101906112c3565b60405161019d919061145d565b60405180910390f35b3480156101b257600080fd5b506101bb6112c9565b6040516101c8919061145d565b60405180910390f35b3480156101dd57600080fd5b506101e66112cf565b6040516101f3919061138f565b60405180910390f35b6000600760009054906101000a900473ffffffffffffffffffffffffffffffffffffffff16905090565b600560009054906101000a900473ffffffffffffffffffffffffffffffffffffffff1681565b6102546112f5565b3373ffffffffffffffffffffffffffffffffffffffff16600560009054906101000a900473ffffffffffffffffffffffffffffffffffffffff1673ffffffffffffffffffffffffffffffffffffffff16036102e4576040517f08c379a00000000000000000000000000000000000000000000000000000000081526004016102db9061158a565b60405180910390fd5b600654341015610329576040517f08c379a00000000000000000000000000000000000000000000000000000000081526004016103209061161c565b60405180910390fd5b3373ffffffffffffffffffffffffffffffffffffffff16600760009054906101000a900473ffffffffffffffffffffffffffffffffffffffff1673ffffffffffffffffffffffffffffffffffffffff16036103b9576040517f08c379a00000000000000000000000000000000000000000000000000000000081526004016103b090611688565b60405180910390fd5b600760009054906101000a900473ffffffffffffffffffffffffffffffffffffffff16600860006101000a81548173ffffffffffffffffffffffffffffffffffffffff021916908373ffffffffffffffffffffffffffffffffffffffff1602179055506000600b60003373ffffffffffffffffffffffffffffffffffffffff1673ffffffffffffffffffffffffffffffffffffffff168152602001908152602001600020549050600081111561055c576000600b60003373ffffffffffffffffffffffffffffffffffffffff1673ffffffffffffffffffffffffffffffffffffffff1681526020019081526020016000208190555060003373ffffffffffffffffffffffffffffffffffffffff16826040516104d4906116d9565b60006040518083038185875af1925050503d8060008114610511576040519150601f19603f3d011682016040523d82523d6000602084013e610516565b606091505b505090508061055a576040517f08c379a00000000000000000000000000000000000000000000000000000000081526004016105519061173a565b60405180910390fd5b505b60095434116105a0576040517f08c379a0000000000000000000000000000000000000000000000000000000008152600401610597906117cc565b60405180910390fd5b6000600760009054906101000a900473ffffffffffffffffffffffffffffffffffffffff169050600060095490503460098190555033600760006101000a81548173ffffffffffffffffffffffffffffffffffffffff021916908373ffffffffffffffffffffffffffffffffffffffff160217905550600073ffffffffffffffffffffffffffffffffffffffff168273ffffffffffffffffffffffffffffffffffffffff16146106a15780600b60008473ffffffffffffffffffffffffffffffffffffffff1673ffffffffffffffffffffffffffffffffffffffff1681526020019081526020016000206000828254610699919061181b565b925050819055505b7f13692bed0518bbe01c8a2b50a32f14d0d4abaa43dce4da7af1814182ee6443173334306040516106d49392919061184f565b60405180910390a15050506106e7611344565b565b600b6020528060005260406000206000915090505481565b600060011515600a60009054906101000a900460ff16151514610759576040517f08c379a0000000000000000000000000000000000000000000000000000000008152600401610750906118f8565b60405180910390fd5b600760009054906101000a900473ffffffffffffffffffffffffffffffffffffffff1673ffffffffffffffffffffffffffffffffffffffff163373ffffffffffffffffffffffffffffffffffffffff16036107e9576040517f08c379a00000000000000000000000000000000000000000000000000000000081526004016107e09061198a565b60405180910390fd5b6000600b60003373ffffffffffffffffffffffffffffffffffffffff1673ffffffffffffffffffffffffffffffffffffffff168152602001908152602001600020549050600081111561093d576000600b60003373ffffffffffffffffffffffffffffffffffffffff1673ffffffffffffffffffffffffffffffffffffffff1681526020019081526020016000208190555060003373ffffffffffffffffffffffffffffffffffffffff16826040516108a1906116d9565b60006040518083038185875af1925050503d80600081146108de576040519150601f19603f3d011682016040523d82523d6000602084013e6108e3565b606091505b505090508061093b5781600b60003373ffffffffffffffffffffffffffffffffffffffff1673ffffffffffffffffffffffffffffffffffffffff16815260200190815260200160002081905550600092505050610943565b505b60019150505b90565b61094e6112f5565b600560009054906101000a900473ffffffffffffffffffffffffffffffffffffffff1673ffffffffffffffffffffffffffffffffffffffff163373ffffffffffffffffffffffffffffffffffffffff1614806109f75750600260009054906101000a900473ffffffffffffffffffffffffffffffffffffffff1673ffffffffffffffffffffffffffffffffffffffff163373ffffffffffffffffffffffffffffffffffffffff16145b610a36576040517f08c379a0000000000000000000000000000000000000000000000000000000008152600401610a2d90611a1c565b60405180910390fd5b600080600360009054906101000a900473ffffffffffffffffffffffffffffffffffffffff1673ffffffffffffffffffffffffffffffffffffffff1663a65ff74c846040518263ffffffff1660e01b8152600401610a94919061145d565b6040805180830381865afa158015610ab0573d6000803e3d6000fd5b505050506040513d601f19601f82011682018060405250810190610ad49190611a7d565b91509150600073ffffffffffffffffffffffffffffffffffffffff16600760009054906101000a900473ffffffffffffffffffffffffffffffffffffffff1673ffffffffffffffffffffffffffffffffffffffff161461117c576000606483600954610b409190611abd565b610b4a9190611b2e565b9050600060646002600954610b5f9190611abd565b610b699190611b2e565b905060008183600954610b7c9190611b5f565b610b869190611b5f565b90506000600560009054906101000a900473ffffffffffffffffffffffffffffffffffffffff1673ffffffffffffffffffffffffffffffffffffffff1682604051610bd0906116d9565b60006040518083038185875af1925050503d8060008114610c0d576040519150601f19603f3d011682016040523d82523d6000602084013e610c12565b606091505b5050905080610c56576040517f08c379a0000000000000000000000000000000000000000000000000000000008152600401610c4d90611c05565b60405180910390fd5b60008573ffffffffffffffffffffffffffffffffffffffff1685604051610c7c906116d9565b60006040518083038185875af1925050503d8060008114610cb9576040519150601f19603f3d011682016040523d82523d6000602084013e610cbe565b606091505b5050905080610d02576040517f08c379a0000000000000000000000000000000000000000000000000000000008152600401610cf990611c97565b60405180910390fd5b6000600260009054906101000a900473ffffffffffffffffffffffffffffffffffffffff1673ffffffffffffffffffffffffffffffffffffffff1685604051610d4a906116d9565b60006040518083038185875af1925050503d8060008114610d87576040519150601f19603f3d011682016040523d82523d6000602084013e610d8c565b606091505b5050905080610dd0576040517f08c379a0000000000000000000000000000000000000000000000000000000008152600401610dc790611d29565b60405180910390fd5b600073ffffffffffffffffffffffffffffffffffffffff16600860009054906101000a900473ffffffffffffffffffffffffffffffffffffffff1673ffffffffffffffffffffffffffffffffffffffff1614158015610e9057506000600b6000600860009054906101000a900473ffffffffffffffffffffffffffffffffffffffff1673ffffffffffffffffffffffffffffffffffffffff1673ffffffffffffffffffffffffffffffffffffffff16815260200190815260200160002054115b15611033576000600b6000600860009054906101000a900473ffffffffffffffffffffffffffffffffffffffff1673ffffffffffffffffffffffffffffffffffffffff1673ffffffffffffffffffffffffffffffffffffffff1681526020019081526020016000205490506000600b6000600860009054906101000a900473ffffffffffffffffffffffffffffffffffffffff1673ffffffffffffffffffffffffffffffffffffffff1673ffffffffffffffffffffffffffffffffffffffff168152602001908152602001600020819055506000600860009054906101000a900473ffffffffffffffffffffffffffffffffffffffff1673ffffffffffffffffffffffffffffffffffffffff1682604051610faa906116d9565b60006040518083038185875af1925050503d8060008114610fe7576040519150601f19603f3d011682016040523d82523d6000602084013e610fec565b606091505b5050905080611030576040517f08c379a000000000000000000000000000000000000000000000000000000000815260040161102790611dbb565b60405180910390fd5b50505b600360009054906101000a900473ffffffffffffffffffffffffffffffffffffffff1673ffffffffffffffffffffffffffffffffffffffff16638f329b318a600760009054906101000a900473ffffffffffffffffffffffffffffffffffffffff166040518363ffffffff1660e01b81526004016110b2929190611e3a565b600060405180830381600087803b1580156110cc57600080fd5b505af11580156110e0573d6000803e3d6000fd5b50505050600460009054906101000a900473ffffffffffffffffffffffffffffffffffffffff1673ffffffffffffffffffffffffffffffffffffffff1663a75654d98a6040518263ffffffff1660e01b815260040161113f919061145d565b600060405180830381600087803b15801561115957600080fd5b505af115801561116d573d6000803e3d6000fd5b5050505050505050505061122e565b600360009054906101000a900473ffffffffffffffffffffffffffffffffffffffff1673ffffffffffffffffffffffffffffffffffffffff16638f329b3184600560009054906101000a900473ffffffffffffffffffffffffffffffffffffffff166040518363ffffffff1660e01b81526004016111fb929190611e3a565b600060405180830381600087803b15801561121557600080fd5b505af1158015611229573d6000803e3d6000fd5b505050505b7f19f5e73c484e5274d91de54225d8a1330339f61b5f27dbe05c47ff361b8dd3c1600154600760009054906101000a900473ffffffffffffffffffffffffffffffffffffffff16600560009054906101000a900473ffffffffffffffffffffffffffffffffffffffff1660006009546040516112ae959493929190611e63565b60405180910390a150506112c0611344565b50565b60015481565b60065481565b600260009054906101000a900473ffffffffffffffffffffffffffffffffffffffff1681565b60026000540361133a576040517f08c379a000000000000000000000000000000000000000000000000000000000815260040161133190611f02565b60405180910390fd5b6002600081905550565b6001600081905550565b600073ffffffffffffffffffffffffffffffffffffffff82169050919050565b60006113798261134e565b9050919050565b6113898161136e565b82525050565b60006020820190506113a46000830184611380565b92915050565b60006113b58261134e565b9050919050565b6113c5816113aa565b82525050565b60006020820190506113e060008301846113bc565b92915050565b600080fd5b6113f48161136e565b81146113ff57600080fd5b50565b600081359050611411816113eb565b92915050565b60006020828403121561142d5761142c6113e6565b5b600061143b84828501611402565b91505092915050565b6000819050919050565b61145781611444565b82525050565b6000602082019050611472600083018461144e565b92915050565b60008115159050919050565b61148d81611478565b82525050565b60006020820190506114a86000830184611484565b92915050565b6114b781611444565b81146114c257600080fd5b50565b6000813590506114d4816114ae565b92915050565b6000602082840312156114f0576114ef6113e6565b5b60006114fe848285016114c5565b91505092915050565b600082825260208201905092915050565b7f53656c6c65722063616e6e6f7420626964206f6e207468656972206f776e206160008201527f756374696f6e0000000000000000000000000000000000000000000000000000602082015250565b6000611574602683611507565b915061157f82611518565b604082019050919050565b600060208201905081810360008301526115a381611567565b9050919050565b7f426964206d7573742062652067726561746572207468616e206f72206571756160008201527f6c20746f207374617274696e6720707269636500000000000000000000000000602082015250565b6000611606603383611507565b9150611611826115aa565b604082019050919050565b60006020820190508181036000830152611635816115f9565b9050919050565b7f42696464657220697320616c7265616479206869676865737420626964646572600082015250565b6000611672602083611507565b915061167d8261163c565b602082019050919050565b600060208201905081810360008301526116a181611665565b9050919050565b600081905092915050565b50565b60006116c36000836116a8565b91506116ce826116b3565b600082019050919050565b60006116e4826116b6565b9150819050919050565b7f4661696c656420746f20726566756e642070726576696f757320626964000000600082015250565b6000611724601d83611507565b915061172f826116ee565b602082019050919050565b6000602082019050818103600083015261175381611717565b9050919050565b7f426964206d7573742062652067726561746572207468616e2063757272656e7460008201527f2068696768657374206269640000000000000000000000000000000000000000602082015250565b60006117b6602c83611507565b91506117c18261175a565b604082019050919050565b600060208201905081810360008301526117e5816117a9565b9050919050565b7f4e487b7100000000000000000000000000000000000000000000000000000000600052601160045260246000fd5b600061182682611444565b915061183183611444565b9250828201905080821115611849576118486117ec565b5b92915050565b60006060820190506118646000830186611380565b611871602083018561144e565b61187e6040830184611380565b949350505050565b7f557365722063616e206f6e6c792077697468647261772066756e64732061667460008201527f65722061756374696f6e2068617320656e646564000000000000000000000000602082015250565b60006118e2603483611507565b91506118ed82611886565b604082019050919050565b60006020820190508181036000830152611911816118d5565b9050919050565b7f686967686573744269646465722063616e6e6f7420776974686472617720667560008201527f6e64730000000000000000000000000000000000000000000000000000000000602082015250565b6000611974602383611507565b915061197f82611918565b604082019050919050565b600060208201905081810360008301526119a381611967565b9050919050565b7f4f6e6c79204e4654206f776e6572206f72206d61726b6574706c61636520636160008201527f6e20656e642061756374696f6e00000000000000000000000000000000000000602082015250565b6000611a06602d83611507565b9150611a11826119aa565b604082019050919050565b60006020820190508181036000830152611a35816119f9565b9050919050565b600081519050611a4b816114ae565b92915050565b611a5a816113aa565b8114611a6557600080fd5b50565b600081519050611a7781611a51565b92915050565b60008060408385031215611a9457611a936113e6565b5b6000611aa285828601611a3c565b9250506020611ab385828601611a68565b9150509250929050565b6000611ac882611444565b9150611ad383611444565b9250828202611ae181611444565b91508282048414831517611af857611af76117ec565b5b5092915050565b7f4e487b7100000000000000000000000000000000000000000000000000000000600052601260045260246000fd5b6000611b3982611444565b9150611b4483611444565b925082611b5457611b53611aff565b5b828204905092915050565b6000611b6a82611444565b9150611b7583611444565b9250828203905081811115611b8d57611b8c6117ec565b5b92915050565b7f4661696c656420746f2073656e6420457468657220746f207468652073656c6c60008201527f6572000000000000000000000000000000000000000000000000000000000000602082015250565b6000611bef602283611507565b9150611bfa82611b93565b604082019050919050565b60006020820190508181036000830152611c1e81611be2565b9050919050565b7f4661696c656420746f2073656e6420726f79616c7469657320746f206f72696760008201527f696e616c206f776e657200000000000000000000000000000000000000000000602082015250565b6000611c81602a83611507565b9150611c8c82611c25565b604082019050919050565b60006020820190508181036000830152611cb081611c74565b9050919050565b7f4661696c656420746f2073656e64206665657320746f206d61726b6574706c6160008201527f636520636f6e7472616374000000000000000000000000000000000000000000602082015250565b6000611d13602b83611507565b9150611d1e82611cb7565b604082019050919050565b60006020820190508181036000830152611d4281611d06565b9050919050565b7f4661696c656420746f2073656e6420726566756e6420746f207468652070656e60008201527f756c74696d617465206269646465720000000000000000000000000000000000602082015250565b6000611da5602f83611507565b9150611db082611d49565b604082019050919050565b60006020820190508181036000830152611dd481611d98565b9050919050565b6000819050919050565b6000611e00611dfb611df68461134e565b611ddb565b61134e565b9050919050565b6000611e1282611de5565b9050919050565b6000611e2482611e07565b9050919050565b611e3481611e19565b82525050565b6000604082019050611e4f600083018561144e565b611e5c6020830184611e2b565b9392505050565b600060a082019050611e78600083018861144e565b611e856020830187611e2b565b611e926040830186611e2b565b611e9f6060830185611380565b611eac608083018461144e565b9695505050505050565b7f5265656e7472616e637947756172643a207265656e7472616e742063616c6c00600082015250565b6000611eec601f83611507565b9150611ef782611eb6565b602082019050919050565b60006020820190508181036000830152611f1b81611edf565b905091905056fea26469706673582212202ddaf606278d54184dfdab05871161f0547b22766fb8acb519f23d484543e5f164736f6c63430008130033a264697066735822122032c709f83c9741317c9d975df2254e36337e5abbf2b37d6803bb90a3f7e695fa64736f6c63430008130033",
  "linkReferences": {},
  "deployedLinkReferences": {}
}