{
  "_format": "hh-sol-artifact-1",
  "contractName": "AuctionFactory",
  "sourceName": "contracts/AuctionFactory.sol",
  "abi": [
    {
      "inputs": [
        {
          "internalType": "address",
          "name": "_marketplaceAddress",
          "type": "address"
        }
      ],
      "stateMutability": "nonpayable",
      "type": "constructor"
    },
    {
      "anonymous": false,
      "inputs": [
        {
          "indexed": false,
          "internalType": "uint256",
          "name": "nftId",
          "type": "uint256"
        },
        {
          "indexed": false,
          "internalType": "uint256",
          "name": "startingPrice",
          "type": "uint256"
        },
        {
          "indexed": false,
          "internalType": "uint256",
          "name": "startTime",
          "type": "uint256"
        },
        {
          "indexed": false,
          "internalType": "uint256",
          "name": "auctionDuration",
          "type": "uint256"
        },
        {
          "indexed": false,
          "internalType": "address",
          "name": "seller",
          "type": "address"
        },
        {
          "indexed": false,
          "internalType": "address",
          "name": "auctionAddress",
          "type": "address"
        }
      ],
      "name": "AuctionCreated",
      "type": "event"
    },
    {
      "inputs": [
        {
          "internalType": "uint256",
          "name": "",
          "type": "uint256"
        }
      ],
      "name": "auctions",
      "outputs": [
        {
          "internalType": "address",
          "name": "auctionAddress",
          "type": "address"
        },
        {
          "internalType": "uint256",
          "name": "nftId",
          "type": "uint256"
        },
        {
          "internalType": "uint256",
          "name": "startingPrice",
          "type": "uint256"
        },
        {
          "internalType": "uint256",
          "name": "startTime",
          "type": "uint256"
        },
        {
          "internalType": "uint256",
          "name": "auctionDuration",
          "type": "uint256"
        },
        {
          "internalType": "address",
          "name": "seller",
          "type": "address"
        }
      ],
      "stateMutability": "view",
      "type": "function"
    },
    {
      "inputs": [
        {
          "internalType": "uint256",
          "name": "startingPrice",
          "type": "uint256"
        },
        {
          "internalType": "uint256",
          "name": "auctionDuration",
          "type": "uint256"
        },
        {
          "internalType": "uint256",
          "name": "nftId",
          "type": "uint256"
        },
        {
          "internalType": "address",
          "name": "seller",
          "type": "address"
        }
      ],
      "name": "createAuction",
      "outputs": [],
      "stateMutability": "nonpayable",
      "type": "function"
    }
  ],
  "bytecode": "0x608060405234801561001057600080fd5b506040516123853803806123858339818101604052810190610032919061015d565b336000806101000a81548173ffffffffffffffffffffffffffffffffffffffff021916908373ffffffffffffffffffffffffffffffffffffffff16021790555080600160006101000a81548173ffffffffffffffffffffffffffffffffffffffff021916908373ffffffffffffffffffffffffffffffffffffffff16021790555080600260006101000a81548173ffffffffffffffffffffffffffffffffffffffff021916908373ffffffffffffffffffffffffffffffffffffffff1602179055505061018a565b600080fd5b600073ffffffffffffffffffffffffffffffffffffffff82169050919050565b600061012a826100ff565b9050919050565b61013a8161011f565b811461014557600080fd5b50565b60008151905061015781610131565b92915050565b600060208284031215610173576101726100fa565b5b600061018184828501610148565b91505092915050565b6121ec806101996000396000f3fe60806040523480156200001157600080fd5b50600436106200003a5760003560e01c8063571a26a0146200003f578063819c9e4c146200007a575b600080fd5b6200005d600480360381019062000057919062000531565b6200009a565b6040516200007196959493929190620005b9565b60405180910390f35b62000098600480360381019062000092919062000657565b62000116565b005b60036020528060005260406000206000915090508060000160009054906101000a900473ffffffffffffffffffffffffffffffffffffffff16908060010154908060020154908060030154908060040154908060050160009054906101000a900473ffffffffffffffffffffffffffffffffffffffff16905086565b600073ffffffffffffffffffffffffffffffffffffffff168173ffffffffffffffffffffffffffffffffffffffff160362000188576040517f08c379a00000000000000000000000000000000000000000000000000000000081526004016200017f906200072a565b60405180910390fd5b60008411620001ce576040517f08c379a0000000000000000000000000000000000000000000000000000000008152600401620001c590620007c2565b60405180910390fd5b600073ffffffffffffffffffffffffffffffffffffffff166003600084815260200190815260200160002060050160009054906101000a900473ffffffffffffffffffffffffffffffffffffffff1673ffffffffffffffffffffffffffffffffffffffff161462000276576040517f08c379a00000000000000000000000000000000000000000000000000000000081526004016200026d906200085a565b60405180910390fd5b60004290506000838684600160009054906101000a900473ffffffffffffffffffffffffffffffffffffffff16604051620002b190620004e3565b620002c094939291906200087c565b604051809103906000f080158015620002dd573d6000803e3d6000fd5b5090506040518060c001604052808273ffffffffffffffffffffffffffffffffffffffff1681526020018581526020018781526020014281526020018681526020018473ffffffffffffffffffffffffffffffffffffffff168152506003600086815260200190815260200160002060008201518160000160006101000a81548173ffffffffffffffffffffffffffffffffffffffff021916908373ffffffffffffffffffffffffffffffffffffffff1602179055506020820151816001015560408201518160020155606082015181600301556080820151816004015560a08201518160050160006101000a81548173ffffffffffffffffffffffffffffffffffffffff021916908373ffffffffffffffffffffffffffffffffffffffff160217905550905050600260009054906101000a900473ffffffffffffffffffffffffffffffffffffffff1673ffffffffffffffffffffffffffffffffffffffff16636b52d83285886040518363ffffffff1660e01b815260040162000464929190620008c9565b600060405180830381600087803b1580156200047f57600080fd5b505af115801562000494573d6000803e3d6000fd5b505050507fedab571cba7475c1ac2b5fd955153bf28aaf5f5492ef6100a32d4f20f7edc74e848784888786604051620004d396959493929190620008f6565b60405180910390a1505050505050565b611853806200096483390190565b600080fd5b6000819050919050565b6200050b81620004f6565b81146200051757600080fd5b50565b6000813590506200052b8162000500565b92915050565b6000602082840312156200054a5762000549620004f1565b5b60006200055a848285016200051a565b91505092915050565b600073ffffffffffffffffffffffffffffffffffffffff82169050919050565b6000620005908262000563565b9050919050565b620005a28162000583565b82525050565b620005b381620004f6565b82525050565b600060c082019050620005d0600083018962000597565b620005df6020830188620005a8565b620005ee6040830187620005a8565b620005fd6060830186620005a8565b6200060c6080830185620005a8565b6200061b60a083018462000597565b979650505050505050565b620006318162000583565b81146200063d57600080fd5b50565b600081359050620006518162000626565b92915050565b60008060008060808587031215620006745762000673620004f1565b5b600062000684878288016200051a565b945050602062000697878288016200051a565b9350506040620006aa878288016200051a565b9250506060620006bd8782880162000640565b91505092959194509250565b600082825260208201905092915050565b7f496e76616c69642073656c6c6572206164647265737300000000000000000000600082015250565b600062000712601683620006c9565b91506200071f82620006da565b602082019050919050565b60006020820190508181036000830152620007458162000703565b9050919050565b7f5374617274696e67207072696365206d757374206265206174206c656173742060008201527f3120776569000000000000000000000000000000000000000000000000000000602082015250565b6000620007aa602583620006c9565b9150620007b7826200074c565b604082019050919050565b60006020820190508181036000830152620007dd816200079b565b9050919050565b7f41756374696f6e20666f722074686973206e667420616c72656164792065786960008201527f7374730000000000000000000000000000000000000000000000000000000000602082015250565b600062000842602383620006c9565b91506200084f82620007e4565b604082019050919050565b60006020820190508181036000830152620008758162000833565b9050919050565b6000608082019050620008936000830187620005a8565b620008a26020830186620005a8565b620008b1604083018562000597565b620008c0606083018462000597565b95945050505050565b6000604082019050620008e06000830185620005a8565b620008ef6020830184620005a8565b9392505050565b600060c0820190506200090d6000830189620005a8565b6200091c6020830188620005a8565b6200092b6040830187620005a8565b6200093a6060830186620005a8565b62000949608083018562000597565b6200095860a083018462000597565b97965050505050505056fe60806040523480156200001157600080fd5b5060405162001853380380620018538339818101604052810190620000379190620001e1565b600160008190555080600260006101000a81548173ffffffffffffffffffffffffffffffffffffffff021916908373ffffffffffffffffffffffffffffffffffffffff160217905550600260009054906101000a900473ffffffffffffffffffffffffffffffffffffffff16600360006101000a81548173ffffffffffffffffffffffffffffffffffffffff021916908373ffffffffffffffffffffffffffffffffffffffff1602179055508360018190555081600460006101000a81548173ffffffffffffffffffffffffffffffffffffffff021916908373ffffffffffffffffffffffffffffffffffffffff160217905550826005819055505050505062000253565b600080fd5b6000819050919050565b620001568162000141565b81146200016257600080fd5b50565b60008151905062000176816200014b565b92915050565b600073ffffffffffffffffffffffffffffffffffffffff82169050919050565b6000620001a9826200017c565b9050919050565b620001bb816200019c565b8114620001c757600080fd5b50565b600081519050620001db81620001b0565b92915050565b60008060008060808587031215620001fe57620001fd6200013c565b5b60006200020e8782880162000165565b9450506020620002218782880162000165565b93505060406200023487828801620001ca565b92505060606200024787828801620001ca565b91505092959194509250565b6115f080620002636000396000f3fe60806040526004361061003f5760003560e01c80631998aeef1461004457806326b387bb1461004e5780633ccfd60b1461008b578063b9a2de3a146100b6575b600080fd5b61004c6100df565b005b34801561005a57600080fd5b5061007560048036038101906100709190610c36565b6103a2565b6040516100829190610c7c565b60405180910390f35b34801561009757600080fd5b506100a06103ba565b6040516100ad9190610cb2565b60405180910390f35b3480156100c257600080fd5b506100dd60048036038101906100d89190610cf9565b61056f565b005b6100e7610b7a565b3373ffffffffffffffffffffffffffffffffffffffff16600460009054906101000a900473ffffffffffffffffffffffffffffffffffffffff1673ffffffffffffffffffffffffffffffffffffffff1603610177576040517f08c379a000000000000000000000000000000000000000000000000000000000815260040161016e90610da9565b60405180910390fd5b6005543410156101bc576040517f08c379a00000000000000000000000000000000000000000000000000000000081526004016101b390610e3b565b60405180910390fd5b6007543411610200576040517f08c379a00000000000000000000000000000000000000000000000000000000081526004016101f790610ecd565b60405180910390fd5b3373ffffffffffffffffffffffffffffffffffffffff16600660009054906101000a900473ffffffffffffffffffffffffffffffffffffffff1673ffffffffffffffffffffffffffffffffffffffff1603610290576040517f08c379a000000000000000000000000000000000000000000000000000000000815260040161028790610f39565b60405180910390fd5b6000600754146103155760075460096000600660009054906101000a900473ffffffffffffffffffffffffffffffffffffffff1673ffffffffffffffffffffffffffffffffffffffff1673ffffffffffffffffffffffffffffffffffffffff168152602001908152602001600020600082825461030d9190610f88565b925050819055505b3460078190555033600660006101000a81548173ffffffffffffffffffffffffffffffffffffffff021916908373ffffffffffffffffffffffffffffffffffffffff1602179055507f13692bed0518bbe01c8a2b50a32f14d0d4abaa43dce4da7af1814182ee64431733343060405161039093929190610fcb565b60405180910390a16103a0610bc9565b565b60096020528060005260406000206000915090505481565b600060011515600860009054906101000a900460ff16151514610412576040517f08c379a000000000000000000000000000000000000000000000000000000000815260040161040990611074565b60405180910390fd5b6000600960003373ffffffffffffffffffffffffffffffffffffffff1673ffffffffffffffffffffffffffffffffffffffff1681526020019081526020016000205490506000811115610566576000600960003373ffffffffffffffffffffffffffffffffffffffff1673ffffffffffffffffffffffffffffffffffffffff1681526020019081526020016000208190555060003373ffffffffffffffffffffffffffffffffffffffff16826040516104ca906110c5565b60006040518083038185875af1925050503d8060008114610507576040519150601f19603f3d011682016040523d82523d6000602084013e61050c565b606091505b50509050806105645781600960003373ffffffffffffffffffffffffffffffffffffffff1673ffffffffffffffffffffffffffffffffffffffff1681526020019081526020016000208190555060009250505061056c565b505b60019150505b90565b610577610b7a565b600460009054906101000a900473ffffffffffffffffffffffffffffffffffffffff1673ffffffffffffffffffffffffffffffffffffffff163373ffffffffffffffffffffffffffffffffffffffff1614610607576040517f08c379a00000000000000000000000000000000000000000000000000000000081526004016105fe90611126565b60405180910390fd5b600080600360009054906101000a900473ffffffffffffffffffffffffffffffffffffffff1673ffffffffffffffffffffffffffffffffffffffff1663a65ff74c846040518263ffffffff1660e01b81526004016106659190610c7c565b6040805180830381865afa158015610681573d6000803e3d6000fd5b505050506040513d601f19601f820116820180604052508101906106a59190611199565b91509150600073ffffffffffffffffffffffffffffffffffffffff16600660009054906101000a900473ffffffffffffffffffffffffffffffffffffffff1673ffffffffffffffffffffffffffffffffffffffff1614610a5257600060648360075461071191906111d9565b61071b919061124a565b905060008160075461072d919061127b565b905060006064600260075461074291906111d9565b61074c919061124a565b90506000600460009054906101000a900473ffffffffffffffffffffffffffffffffffffffff1673ffffffffffffffffffffffffffffffffffffffff1683604051610796906110c5565b60006040518083038185875af1925050503d80600081146107d3576040519150601f19603f3d011682016040523d82523d6000602084013e6107d8565b606091505b505090508061081c576040517f08c379a000000000000000000000000000000000000000000000000000000000815260040161081390611321565b60405180910390fd5b60008573ffffffffffffffffffffffffffffffffffffffff1685604051610842906110c5565b60006040518083038185875af1925050503d806000811461087f576040519150601f19603f3d011682016040523d82523d6000602084013e610884565b606091505b50509050806108c8576040517f08c379a00000000000000000000000000000000000000000000000000000000081526004016108bf906113b3565b60405180910390fd5b6000600260009054906101000a900473ffffffffffffffffffffffffffffffffffffffff1673ffffffffffffffffffffffffffffffffffffffff1684604051610910906110c5565b60006040518083038185875af1925050503d806000811461094d576040519150601f19603f3d011682016040523d82523d6000602084013e610952565b606091505b5050905080610996576040517f08c379a000000000000000000000000000000000000000000000000000000000815260040161098d90611445565b60405180910390fd5b600360009054906101000a900473ffffffffffffffffffffffffffffffffffffffff1673ffffffffffffffffffffffffffffffffffffffff16638f329b318a600660009054906101000a900473ffffffffffffffffffffffffffffffffffffffff166040518363ffffffff1660e01b8152600401610a159291906114c4565b600060405180830381600087803b158015610a2f57600080fd5b505af1158015610a43573d6000803e3d6000fd5b50505050505050505050610b04565b600360009054906101000a900473ffffffffffffffffffffffffffffffffffffffff1673ffffffffffffffffffffffffffffffffffffffff16638f329b3184600460009054906101000a900473ffffffffffffffffffffffffffffffffffffffff166040518363ffffffff1660e01b8152600401610ad19291906114c4565b600060405180830381600087803b158015610aeb57600080fd5b505af1158015610aff573d6000803e3d6000fd5b505050505b7f93de927ed018f9abbaa00feee71bdae41a752a7b21d3390a039807f8a6870e943042600154600460009054906101000a900473ffffffffffffffffffffffffffffffffffffffff16600554600754604051610b65969594939291906114ed565b60405180910390a15050610b77610bc9565b50565b600260005403610bbf576040517f08c379a0000000000000000000000000000000000000000000000000000000008152600401610bb69061159a565b60405180910390fd5b6002600081905550565b6001600081905550565b600080fd5b600073ffffffffffffffffffffffffffffffffffffffff82169050919050565b6000610c0382610bd8565b9050919050565b610c1381610bf8565b8114610c1e57600080fd5b50565b600081359050610c3081610c0a565b92915050565b600060208284031215610c4c57610c4b610bd3565b5b6000610c5a84828501610c21565b91505092915050565b6000819050919050565b610c7681610c63565b82525050565b6000602082019050610c916000830184610c6d565b92915050565b60008115159050919050565b610cac81610c97565b82525050565b6000602082019050610cc76000830184610ca3565b92915050565b610cd681610c63565b8114610ce157600080fd5b50565b600081359050610cf381610ccd565b92915050565b600060208284031215610d0f57610d0e610bd3565b5b6000610d1d84828501610ce4565b91505092915050565b600082825260208201905092915050565b7f53656c6c65722063616e6e6f7420626964206f6e207468656972206f776e206160008201527f756374696f6e0000000000000000000000000000000000000000000000000000602082015250565b6000610d93602683610d26565b9150610d9e82610d37565b604082019050919050565b60006020820190508181036000830152610dc281610d86565b9050919050565b7f426964206d7573742062652067726561746572207468616e206f72206571756160008201527f6c20746f207374617274696e6720707269636500000000000000000000000000602082015250565b6000610e25603383610d26565b9150610e3082610dc9565b604082019050919050565b60006020820190508181036000830152610e5481610e18565b9050919050565b7f426964206d7573742062652067726561746572207468616e2063757272656e7460008201527f2068696768657374206269640000000000000000000000000000000000000000602082015250565b6000610eb7602c83610d26565b9150610ec282610e5b565b604082019050919050565b60006020820190508181036000830152610ee681610eaa565b9050919050565b7f42696464657220697320616c7265616479206869676865737420626964646572600082015250565b6000610f23602083610d26565b9150610f2e82610eed565b602082019050919050565b60006020820190508181036000830152610f5281610f16565b9050919050565b7f4e487b7100000000000000000000000000000000000000000000000000000000600052601160045260246000fd5b6000610f9382610c63565b9150610f9e83610c63565b9250828201905080821115610fb657610fb5610f59565b5b92915050565b610fc581610bf8565b82525050565b6000606082019050610fe06000830186610fbc565b610fed6020830185610c6d565b610ffa6040830184610fbc565b949350505050565b7f557365722063616e206f6e6c792077697468647261772066756e64732061667460008201527f65722061756374696f6e2068617320656e646564000000000000000000000000602082015250565b600061105e603483610d26565b915061106982611002565b604082019050919050565b6000602082019050818103600083015261108d81611051565b9050919050565b600081905092915050565b50565b60006110af600083611094565b91506110ba8261109f565b600082019050919050565b60006110d0826110a2565b9150819050919050565b7f4f6e6c79204e4654206f776e65722063616e20656e642061756374696f6e0000600082015250565b6000611110601e83610d26565b915061111b826110da565b602082019050919050565b6000602082019050818103600083015261113f81611103565b9050919050565b60008151905061115581610ccd565b92915050565b600061116682610bd8565b9050919050565b6111768161115b565b811461118157600080fd5b50565b6000815190506111938161116d565b92915050565b600080604083850312156111b0576111af610bd3565b5b60006111be85828601611146565b92505060206111cf85828601611184565b9150509250929050565b60006111e482610c63565b91506111ef83610c63565b92508282026111fd81610c63565b9150828204841483151761121457611213610f59565b5b5092915050565b7f4e487b7100000000000000000000000000000000000000000000000000000000600052601260045260246000fd5b600061125582610c63565b915061126083610c63565b9250826112705761126f61121b565b5b828204905092915050565b600061128682610c63565b915061129183610c63565b92508282039050818111156112a9576112a8610f59565b5b92915050565b7f4661696c656420746f2073656e6420457468657220746f207468652073656c6c60008201527f6572000000000000000000000000000000000000000000000000000000000000602082015250565b600061130b602283610d26565b9150611316826112af565b604082019050919050565b6000602082019050818103600083015261133a816112fe565b9050919050565b7f4661696c656420746f2073656e6420726f79616c7469657320746f206f72696760008201527f696e616c206f776e657200000000000000000000000000000000000000000000602082015250565b600061139d602a83610d26565b91506113a882611341565b604082019050919050565b600060208201905081810360008301526113cc81611390565b9050919050565b7f4661696c656420746f2073656e64206665657320746f206d61726b6574706c6160008201527f636520636f6e7472616374000000000000000000000000000000000000000000602082015250565b600061142f602b83610d26565b915061143a826113d3565b604082019050919050565b6000602082019050818103600083015261145e81611422565b9050919050565b6000819050919050565b600061148a61148561148084610bd8565b611465565b610bd8565b9050919050565b600061149c8261146f565b9050919050565b60006114ae82611491565b9050919050565b6114be816114a3565b82525050565b60006040820190506114d96000830185610c6d565b6114e660208301846114b5565b9392505050565b600060c0820190506115026000830189610fbc565b61150f6020830188610c6d565b61151c6040830187610c6d565b61152960608301866114b5565b6115366080830185610c6d565b61154360a0830184610c6d565b979650505050505050565b7f5265656e7472616e637947756172643a207265656e7472616e742063616c6c00600082015250565b6000611584601f83610d26565b915061158f8261154e565b602082019050919050565b600060208201905081810360008301526115b381611577565b905091905056fea2646970667358221220c14797b88fdc3606c33e3d3b68eb17af04add381c0227e5c70c4eca45f07853764736f6c63430008130033a2646970667358221220789cc558b7547a7d352c20be8c598cd70aadaf3ad1ec3eda2f9271eb4441212464736f6c63430008130033",
  "linkReferences": {},
  "deployedLinkReferences": {}
}