{
  "_format": "hh-sol-artifact-1",
  "contractName": "AuctionFactory",
  "sourceName": "contracts/AuctionFactory.sol",
  "abi": [
    {
      "inputs": [
        {
          "internalType": "address",
          "name": "_marketplaceAddress",
          "type": "address"
        }
      ],
      "stateMutability": "nonpayable",
      "type": "constructor"
    },
    {
      "anonymous": false,
      "inputs": [
        {
          "indexed": false,
          "internalType": "uint256",
          "name": "nftId",
          "type": "uint256"
        },
        {
          "indexed": false,
          "internalType": "uint256",
          "name": "startingPrice",
          "type": "uint256"
        },
        {
          "indexed": false,
          "internalType": "uint256",
          "name": "startTime",
          "type": "uint256"
        },
        {
          "indexed": false,
          "internalType": "uint256",
          "name": "auctionDuration",
          "type": "uint256"
        },
        {
          "indexed": false,
          "internalType": "address",
          "name": "seller",
          "type": "address"
        },
        {
          "indexed": false,
          "internalType": "address",
          "name": "auctionAddress",
          "type": "address"
        }
      ],
      "name": "AuctionCreated",
      "type": "event"
    },
    {
      "inputs": [
        {
          "internalType": "uint256",
          "name": "",
          "type": "uint256"
        }
      ],
      "name": "_activeAuctionIds",
      "outputs": [
        {
          "internalType": "uint256",
          "name": "",
          "type": "uint256"
        }
      ],
      "stateMutability": "view",
      "type": "function"
    },
    {
      "inputs": [
        {
          "internalType": "uint256",
          "name": "",
          "type": "uint256"
        }
      ],
      "name": "auctions",
      "outputs": [
        {
          "internalType": "address",
          "name": "auctionAddress",
          "type": "address"
        },
        {
          "internalType": "uint256",
          "name": "nftId",
          "type": "uint256"
        },
        {
          "internalType": "uint256",
          "name": "startingPrice",
          "type": "uint256"
        },
        {
          "internalType": "uint256",
          "name": "startTime",
          "type": "uint256"
        },
        {
          "internalType": "uint256",
          "name": "auctionDuration",
          "type": "uint256"
        },
        {
          "internalType": "address",
          "name": "seller",
          "type": "address"
        },
        {
          "internalType": "bool",
          "name": "active",
          "type": "bool"
        }
      ],
      "stateMutability": "view",
      "type": "function"
    },
    {
      "inputs": [
        {
          "internalType": "uint256",
          "name": "nftId",
          "type": "uint256"
        }
      ],
      "name": "changeActiveStatus",
      "outputs": [],
      "stateMutability": "nonpayable",
      "type": "function"
    },
    {
      "inputs": [
        {
          "internalType": "uint256",
          "name": "startingPrice",
          "type": "uint256"
        },
        {
          "internalType": "uint256",
          "name": "auctionDuration",
          "type": "uint256"
        },
        {
          "internalType": "uint256",
          "name": "nftId",
          "type": "uint256"
        },
        {
          "internalType": "address",
          "name": "seller",
          "type": "address"
        }
      ],
      "name": "createAuction",
      "outputs": [],
      "stateMutability": "nonpayable",
      "type": "function"
    },
    {
      "inputs": [],
      "name": "getActiveAuctionIds",
      "outputs": [
        {
          "internalType": "uint256[]",
          "name": "",
          "type": "uint256[]"
        }
      ],
      "stateMutability": "view",
      "type": "function"
    },
    {
      "inputs": [],
      "name": "marketplaceAddress",
      "outputs": [
        {
          "internalType": "address",
          "name": "",
          "type": "address"
        }
      ],
      "stateMutability": "view",
      "type": "function"
    },
    {
      "inputs": [],
      "name": "owner",
      "outputs": [
        {
          "internalType": "address payable",
          "name": "",
          "type": "address"
        }
      ],
      "stateMutability": "view",
      "type": "function"
    }
  ],
  "bytecode": "0x608060405234801561001057600080fd5b50604051620033e5380380620033e583398181016040528101906100349190610160565b33600360006101000a81548173ffffffffffffffffffffffffffffffffffffffff021916908373ffffffffffffffffffffffffffffffffffffffff16021790555080600460006101000a81548173ffffffffffffffffffffffffffffffffffffffff021916908373ffffffffffffffffffffffffffffffffffffffff16021790555080600560006101000a81548173ffffffffffffffffffffffffffffffffffffffff021916908373ffffffffffffffffffffffffffffffffffffffff1602179055505061018d565b600080fd5b600073ffffffffffffffffffffffffffffffffffffffff82169050919050565b600061012d82610102565b9050919050565b61013d81610122565b811461014857600080fd5b50565b60008151905061015a81610134565b92915050565b600060208284031215610176576101756100fd565b5b60006101848482850161014b565b91505092915050565b613248806200019d6000396000f3fe60806040523480156200001157600080fd5b5060043610620000885760003560e01c80638da5cb5b11620000635780638da5cb5b146200011f578063a75654d91462000141578063daa17f491462000161578063fdc5f3d114620001835762000088565b806310893f87146200008d578063571a26a014620000c3578063819c9e4c14620000ff575b600080fd5b620000ab6004803603810190620000a5919062000812565b620001a5565b604051620000ba919062000855565b60405180910390f35b620000e16004803603810190620000db919062000812565b620001ca565b604051620000f69796959493929190620008d4565b60405180910390f35b6200011d600480360381019062000117919062000982565b62000259565b005b62000129620005e0565b60405162000138919062000a19565b60405180910390f35b6200015f600480360381019062000159919062000812565b62000606565b005b6200016b6200064f565b6040516200017a919062000a36565b60405180910390f35b6200018d62000675565b6040516200019c919062000b21565b60405180910390f35b60028181548110620001b657600080fd5b906000526020600020016000915090505481565b60066020528060005260406000206000915090508060000160009054906101000a900473ffffffffffffffffffffffffffffffffffffffff16908060010154908060020154908060030154908060040154908060050160009054906101000a900473ffffffffffffffffffffffffffffffffffffffff16908060050160149054906101000a900460ff16905087565b600073ffffffffffffffffffffffffffffffffffffffff168173ffffffffffffffffffffffffffffffffffffffff1603620002cb576040517f08c379a0000000000000000000000000000000000000000000000000000000008152600401620002c29062000ba6565b60405180910390fd5b6000841162000311576040517f08c379a0000000000000000000000000000000000000000000000000000000008152600401620003089062000c3e565b60405180910390fd5b60004290506000838684600460009054906101000a900473ffffffffffffffffffffffffffffffffffffffff16306040516200034d90620007c4565b6200035d95949392919062000c60565b604051809103906000f0801580156200037a573d6000803e3d6000fd5b5090506040518060e001604052808273ffffffffffffffffffffffffffffffffffffffff1681526020018581526020018781526020014281526020018681526020018473ffffffffffffffffffffffffffffffffffffffff168152602001600115158152506006600086815260200190815260200160002060008201518160000160006101000a81548173ffffffffffffffffffffffffffffffffffffffff021916908373ffffffffffffffffffffffffffffffffffffffff1602179055506020820151816001015560408201518160020155606082015181600301556080820151816004015560a08201518160050160006101000a81548173ffffffffffffffffffffffffffffffffffffffff021916908373ffffffffffffffffffffffffffffffffffffffff16021790555060c08201518160050160146101000a81548160ff021916908315150217905550905050600560009054906101000a900473ffffffffffffffffffffffffffffffffffffffff1673ffffffffffffffffffffffffffffffffffffffff1663804fa8358588866040518463ffffffff1660e01b81526004016200052c9392919062000cbd565b600060405180830381600087803b1580156200054757600080fd5b505af11580156200055c573d6000803e3d6000fd5b505050506200056c6000620006cf565b60028490806001815401808255809150506001900390600052602060002001600090919091909150557fedab571cba7475c1ac2b5fd955153bf28aaf5f5492ef6100a32d4f20f7edc74e848784888786604051620005d09695949392919062000cfa565b60405180910390a1505050505050565b600360009054906101000a900473ffffffffffffffffffffffffffffffffffffffff1681565b60006006600083815260200190815260200160002060050160146101000a81548160ff0219169083151502179055506200064081620006e5565b6200064c6001620006cf565b50565b600460009054906101000a900473ffffffffffffffffffffffffffffffffffffffff1681565b60606002805480602002602001604051908101604052809291908181526020018280548015620006c557602002820191906000526020600020905b815481526020019060010190808311620006b0575b5050505050905090565b6001816000016000828254019250508190555050565b60005b600280549050811015620007c05781600282815481106200070e576200070d62000d67565b5b906000526020600020015403620007aa576002600160028054905062000735919062000dc5565b8154811062000749576200074862000d67565b5b9060005260206000200154600282815481106200076b576200076a62000d67565b5b906000526020600020018190555060028054806200078e576200078d62000e00565b5b60019003818190600052602060002001600090559055620007c0565b8080620007b79062000e2f565b915050620006e8565b5050565b6123968062000e7d83390190565b600080fd5b6000819050919050565b620007ec81620007d7565b8114620007f857600080fd5b50565b6000813590506200080c81620007e1565b92915050565b6000602082840312156200082b576200082a620007d2565b5b60006200083b84828501620007fb565b91505092915050565b6200084f81620007d7565b82525050565b60006020820190506200086c600083018462000844565b92915050565b600073ffffffffffffffffffffffffffffffffffffffff82169050919050565b60006200089f8262000872565b9050919050565b620008b18162000892565b82525050565b60008115159050919050565b620008ce81620008b7565b82525050565b600060e082019050620008eb600083018a620008a6565b620008fa602083018962000844565b62000909604083018862000844565b62000918606083018762000844565b62000927608083018662000844565b6200093660a0830185620008a6565b6200094560c0830184620008c3565b98975050505050505050565b6200095c8162000892565b81146200096857600080fd5b50565b6000813590506200097c8162000951565b92915050565b600080600080608085870312156200099f576200099e620007d2565b5b6000620009af87828801620007fb565b9450506020620009c287828801620007fb565b9350506040620009d587828801620007fb565b9250506060620009e8878288016200096b565b91505092959194509250565b600062000a018262000872565b9050919050565b62000a1381620009f4565b82525050565b600060208201905062000a30600083018462000a08565b92915050565b600060208201905062000a4d6000830184620008a6565b92915050565b600081519050919050565b600082825260208201905092915050565b6000819050602082019050919050565b62000a8a81620007d7565b82525050565b600062000a9e838362000a7f565b60208301905092915050565b6000602082019050919050565b600062000ac48262000a53565b62000ad0818562000a5e565b935062000add8362000a6f565b8060005b8381101562000b1457815162000af8888262000a90565b975062000b058362000aaa565b92505060018101905062000ae1565b5085935050505092915050565b6000602082019050818103600083015262000b3d818462000ab7565b905092915050565b600082825260208201905092915050565b7f496e76616c69642073656c6c6572206164647265737300000000000000000000600082015250565b600062000b8e60168362000b45565b915062000b9b8262000b56565b602082019050919050565b6000602082019050818103600083015262000bc18162000b7f565b9050919050565b7f5374617274696e67207072696365206d757374206265206174206c656173742060008201527f3120776569000000000000000000000000000000000000000000000000000000602082015250565b600062000c2660258362000b45565b915062000c338262000bc8565b604082019050919050565b6000602082019050818103600083015262000c598162000c17565b9050919050565b600060a08201905062000c77600083018862000844565b62000c86602083018762000844565b62000c956040830186620008a6565b62000ca46060830185620008a6565b62000cb36080830184620008a6565b9695505050505050565b600060608201905062000cd4600083018662000844565b62000ce3602083018562000844565b62000cf26040830184620008a6565b949350505050565b600060c08201905062000d11600083018962000844565b62000d20602083018862000844565b62000d2f604083018762000844565b62000d3e606083018662000844565b62000d4d6080830185620008a6565b62000d5c60a0830184620008a6565b979650505050505050565b7f4e487b7100000000000000000000000000000000000000000000000000000000600052603260045260246000fd5b7f4e487b7100000000000000000000000000000000000000000000000000000000600052601160045260246000fd5b600062000dd282620007d7565b915062000ddf83620007d7565b925082820390508181111562000dfa5762000df962000d96565b5b92915050565b7f4e487b7100000000000000000000000000000000000000000000000000000000600052603160045260246000fd5b600062000e3c82620007d7565b91507fffffffffffffffffffffffffffffffffffffffffffffffffffffffffffffffff820362000e715762000e7062000d96565b5b60018201905091905056fe60806040523480156200001157600080fd5b506040516200239638038062002396833981810160405281019062000037919062000223565b600160008190555081600260006101000a81548173ffffffffffffffffffffffffffffffffffffffff021916908373ffffffffffffffffffffffffffffffffffffffff160217905550600260009054906101000a900473ffffffffffffffffffffffffffffffffffffffff16600360006101000a81548173ffffffffffffffffffffffffffffffffffffffff021916908373ffffffffffffffffffffffffffffffffffffffff16021790555080600460006101000a81548173ffffffffffffffffffffffffffffffffffffffff021916908373ffffffffffffffffffffffffffffffffffffffff1602179055508460018190555082600560006101000a81548173ffffffffffffffffffffffffffffffffffffffff021916908373ffffffffffffffffffffffffffffffffffffffff160217905550836006819055505050505050620002ab565b600080fd5b6000819050919050565b620001988162000183565b8114620001a457600080fd5b50565b600081519050620001b8816200018d565b92915050565b600073ffffffffffffffffffffffffffffffffffffffff82169050919050565b6000620001eb82620001be565b9050919050565b620001fd81620001de565b81146200020957600080fd5b50565b6000815190506200021d81620001f2565b92915050565b600080600080600060a086880312156200024257620002416200017e565b5b60006200025288828901620001a7565b95505060206200026588828901620001a7565b945050604062000278888289016200020c565b93505060606200028b888289016200020c565b92505060806200029e888289016200020c565b9150509295509295909350565b6120db80620002bb6000396000f3fe6080604052600436106100c15760003560e01c80633ccfd60b1161007f578063c6bc518211610059578063c6bc518214610238578063d57bde7914610263578063d6fbf2021461028e578063daa17f49146102b9576100c1565b80633ccfd60b146101b957806391f90157146101e4578063b9a2de3a1461020f576100c1565b80623495a4146100c657806308551a53146100f157806310a4fb5f1461011c57806312fa6feb146101475780631998aeef1461017257806326b387bb1461017c575b600080fd5b3480156100d257600080fd5b506100db6102e4565b6040516100e89190611512565b60405180910390f35b3480156100fd57600080fd5b5061010661030e565b604051610113919061154e565b60405180910390f35b34801561012857600080fd5b50610131610334565b60405161013e919061154e565b60405180910390f35b34801561015357600080fd5b5061015c61035a565b6040516101699190611584565b60405180910390f35b61017a61036d565b005b34801561018857600080fd5b506101a3600480360381019061019e91906115d0565b61080a565b6040516101b09190611616565b60405180910390f35b3480156101c557600080fd5b506101ce610822565b6040516101db9190611584565b60405180910390f35b3480156101f057600080fd5b506101f9610a67565b604051610206919061154e565b60405180910390f35b34801561021b57600080fd5b506102366004803603810190610231919061165d565b610a8d565b005b34801561024457600080fd5b5061024d611440565b60405161025a9190611616565b60405180910390f35b34801561026f57600080fd5b50610278611446565b6040516102859190611616565b60405180910390f35b34801561029a57600080fd5b506102a361144c565b6040516102b09190611616565b60405180910390f35b3480156102c557600080fd5b506102ce611452565b6040516102db9190611512565b60405180910390f35b6000600760009054906101000a900473ffffffffffffffffffffffffffffffffffffffff16905090565b600560009054906101000a900473ffffffffffffffffffffffffffffffffffffffff1681565b600860009054906101000a900473ffffffffffffffffffffffffffffffffffffffff1681565b600a60009054906101000a900460ff1681565b610375611478565b3373ffffffffffffffffffffffffffffffffffffffff16600560009054906101000a900473ffffffffffffffffffffffffffffffffffffffff1673ffffffffffffffffffffffffffffffffffffffff1603610405576040517f08c379a00000000000000000000000000000000000000000000000000000000081526004016103fc9061170d565b60405180910390fd5b60065434101561044a576040517f08c379a00000000000000000000000000000000000000000000000000000000081526004016104419061179f565b60405180910390fd5b3373ffffffffffffffffffffffffffffffffffffffff16600760009054906101000a900473ffffffffffffffffffffffffffffffffffffffff1673ffffffffffffffffffffffffffffffffffffffff16036104da576040517f08c379a00000000000000000000000000000000000000000000000000000000081526004016104d19061180b565b60405180910390fd5b600760009054906101000a900473ffffffffffffffffffffffffffffffffffffffff16600860006101000a81548173ffffffffffffffffffffffffffffffffffffffff021916908373ffffffffffffffffffffffffffffffffffffffff1602179055506000600b60003373ffffffffffffffffffffffffffffffffffffffff1673ffffffffffffffffffffffffffffffffffffffff168152602001908152602001600020549050600081111561067d576000600b60003373ffffffffffffffffffffffffffffffffffffffff1673ffffffffffffffffffffffffffffffffffffffff1681526020019081526020016000208190555060003373ffffffffffffffffffffffffffffffffffffffff16826040516105f59061185c565b60006040518083038185875af1925050503d8060008114610632576040519150601f19603f3d011682016040523d82523d6000602084013e610637565b606091505b505090508061067b576040517f08c379a0000000000000000000000000000000000000000000000000000000008152600401610672906118bd565b60405180910390fd5b505b60095434116106c1576040517f08c379a00000000000000000000000000000000000000000000000000000000081526004016106b89061194f565b60405180910390fd5b6000600760009054906101000a900473ffffffffffffffffffffffffffffffffffffffff169050600060095490503460098190555033600760006101000a81548173ffffffffffffffffffffffffffffffffffffffff021916908373ffffffffffffffffffffffffffffffffffffffff160217905550600073ffffffffffffffffffffffffffffffffffffffff168273ffffffffffffffffffffffffffffffffffffffff16146107c25780600b60008473ffffffffffffffffffffffffffffffffffffffff1673ffffffffffffffffffffffffffffffffffffffff16815260200190815260200160002060008282546107ba919061199e565b925050819055505b7f13692bed0518bbe01c8a2b50a32f14d0d4abaa43dce4da7af1814182ee6443173334306040516107f5939291906119d2565b60405180910390a15050506108086114c7565b565b600b6020528060005260406000206000915090505481565b600060011515600a60009054906101000a900460ff1615151461087a576040517f08c379a000000000000000000000000000000000000000000000000000000000815260040161087190611a7b565b60405180910390fd5b600760009054906101000a900473ffffffffffffffffffffffffffffffffffffffff1673ffffffffffffffffffffffffffffffffffffffff163373ffffffffffffffffffffffffffffffffffffffff160361090a576040517f08c379a000000000000000000000000000000000000000000000000000000000815260040161090190611b0d565b60405180910390fd5b6000600b60003373ffffffffffffffffffffffffffffffffffffffff1673ffffffffffffffffffffffffffffffffffffffff1681526020019081526020016000205490506000811115610a5e576000600b60003373ffffffffffffffffffffffffffffffffffffffff1673ffffffffffffffffffffffffffffffffffffffff1681526020019081526020016000208190555060003373ffffffffffffffffffffffffffffffffffffffff16826040516109c29061185c565b60006040518083038185875af1925050503d80600081146109ff576040519150601f19603f3d011682016040523d82523d6000602084013e610a04565b606091505b5050905080610a5c5781600b60003373ffffffffffffffffffffffffffffffffffffffff1673ffffffffffffffffffffffffffffffffffffffff16815260200190815260200160002081905550600092505050610a64565b505b60019150505b90565b600760009054906101000a900473ffffffffffffffffffffffffffffffffffffffff1681565b610a95611478565b600560009054906101000a900473ffffffffffffffffffffffffffffffffffffffff1673ffffffffffffffffffffffffffffffffffffffff163373ffffffffffffffffffffffffffffffffffffffff161480610b3e5750600260009054906101000a900473ffffffffffffffffffffffffffffffffffffffff1673ffffffffffffffffffffffffffffffffffffffff163373ffffffffffffffffffffffffffffffffffffffff16145b610b7d576040517f08c379a0000000000000000000000000000000000000000000000000000000008152600401610b7490611b9f565b60405180910390fd5b600080600360009054906101000a900473ffffffffffffffffffffffffffffffffffffffff1673ffffffffffffffffffffffffffffffffffffffff1663a65ff74c846040518263ffffffff1660e01b8152600401610bdb9190611616565b6040805180830381865afa158015610bf7573d6000803e3d6000fd5b505050506040513d601f19601f82011682018060405250810190610c1b9190611c00565b91509150600073ffffffffffffffffffffffffffffffffffffffff16600760009054906101000a900473ffffffffffffffffffffffffffffffffffffffff1673ffffffffffffffffffffffffffffffffffffffff16146112de576000606483600954610c879190611c40565b610c919190611cb1565b9050600060646002600954610ca69190611c40565b610cb09190611cb1565b905060008183600954610cc39190611ce2565b610ccd9190611ce2565b90506000600560009054906101000a900473ffffffffffffffffffffffffffffffffffffffff1673ffffffffffffffffffffffffffffffffffffffff1682604051610d179061185c565b60006040518083038185875af1925050503d8060008114610d54576040519150601f19603f3d011682016040523d82523d6000602084013e610d59565b606091505b5050905080610d9d576040517f08c379a0000000000000000000000000000000000000000000000000000000008152600401610d9490611d88565b60405180910390fd5b60008573ffffffffffffffffffffffffffffffffffffffff1685604051610dc39061185c565b60006040518083038185875af1925050503d8060008114610e00576040519150601f19603f3d011682016040523d82523d6000602084013e610e05565b606091505b5050905080610e49576040517f08c379a0000000000000000000000000000000000000000000000000000000008152600401610e4090611e1a565b60405180910390fd5b6000600260009054906101000a900473ffffffffffffffffffffffffffffffffffffffff1673ffffffffffffffffffffffffffffffffffffffff1685604051610e919061185c565b60006040518083038185875af1925050503d8060008114610ece576040519150601f19603f3d011682016040523d82523d6000602084013e610ed3565b606091505b5050905080610f17576040517f08c379a0000000000000000000000000000000000000000000000000000000008152600401610f0e90611eac565b60405180910390fd5b600073ffffffffffffffffffffffffffffffffffffffff16600860009054906101000a900473ffffffffffffffffffffffffffffffffffffffff1673ffffffffffffffffffffffffffffffffffffffff1614158015610fd757506000600b6000600860009054906101000a900473ffffffffffffffffffffffffffffffffffffffff1673ffffffffffffffffffffffffffffffffffffffff1673ffffffffffffffffffffffffffffffffffffffff16815260200190815260200160002054115b1561117a576000600b6000600860009054906101000a900473ffffffffffffffffffffffffffffffffffffffff1673ffffffffffffffffffffffffffffffffffffffff1673ffffffffffffffffffffffffffffffffffffffff1681526020019081526020016000205490506000600b6000600860009054906101000a900473ffffffffffffffffffffffffffffffffffffffff1673ffffffffffffffffffffffffffffffffffffffff1673ffffffffffffffffffffffffffffffffffffffff168152602001908152602001600020819055506000600860009054906101000a900473ffffffffffffffffffffffffffffffffffffffff1673ffffffffffffffffffffffffffffffffffffffff16826040516110f19061185c565b60006040518083038185875af1925050503d806000811461112e576040519150601f19603f3d011682016040523d82523d6000602084013e611133565b606091505b5050905080611177576040517f08c379a000000000000000000000000000000000000000000000000000000000815260040161116e90611f3e565b60405180910390fd5b50505b600360009054906101000a900473ffffffffffffffffffffffffffffffffffffffff1673ffffffffffffffffffffffffffffffffffffffff16638f329b318a600760009054906101000a900473ffffffffffffffffffffffffffffffffffffffff166040518363ffffffff1660e01b81526004016111f9929190611fbd565b600060405180830381600087803b15801561121357600080fd5b505af1158015611227573d6000803e3d6000fd5b50505050600460009054906101000a900473ffffffffffffffffffffffffffffffffffffffff1673ffffffffffffffffffffffffffffffffffffffff1663a75654d98a6040518263ffffffff1660e01b81526004016112869190611616565b600060405180830381600087803b1580156112a057600080fd5b505af11580156112b4573d6000803e3d6000fd5b505050506001600a60006101000a81548160ff0219169083151502179055505050505050506113ab565b600360009054906101000a900473ffffffffffffffffffffffffffffffffffffffff1673ffffffffffffffffffffffffffffffffffffffff16638f329b3184600560009054906101000a900473ffffffffffffffffffffffffffffffffffffffff166040518363ffffffff1660e01b815260040161135d929190611fbd565b600060405180830381600087803b15801561137757600080fd5b505af115801561138b573d6000803e3d6000fd5b505050506001600a60006101000a81548160ff0219169083151502179055505b7f19f5e73c484e5274d91de54225d8a1330339f61b5f27dbe05c47ff361b8dd3c1600154600760009054906101000a900473ffffffffffffffffffffffffffffffffffffffff16600560009054906101000a900473ffffffffffffffffffffffffffffffffffffffff16600060095460405161142b959493929190611fe6565b60405180910390a1505061143d6114c7565b50565b60015481565b60095481565b60065481565b600260009054906101000a900473ffffffffffffffffffffffffffffffffffffffff1681565b6002600054036114bd576040517f08c379a00000000000000000000000000000000000000000000000000000000081526004016114b490612085565b60405180910390fd5b6002600081905550565b6001600081905550565b600073ffffffffffffffffffffffffffffffffffffffff82169050919050565b60006114fc826114d1565b9050919050565b61150c816114f1565b82525050565b60006020820190506115276000830184611503565b92915050565b6000611538826114d1565b9050919050565b6115488161152d565b82525050565b6000602082019050611563600083018461153f565b92915050565b60008115159050919050565b61157e81611569565b82525050565b60006020820190506115996000830184611575565b92915050565b600080fd5b6115ad816114f1565b81146115b857600080fd5b50565b6000813590506115ca816115a4565b92915050565b6000602082840312156115e6576115e561159f565b5b60006115f4848285016115bb565b91505092915050565b6000819050919050565b611610816115fd565b82525050565b600060208201905061162b6000830184611607565b92915050565b61163a816115fd565b811461164557600080fd5b50565b60008135905061165781611631565b92915050565b6000602082840312156116735761167261159f565b5b600061168184828501611648565b91505092915050565b600082825260208201905092915050565b7f53656c6c65722063616e6e6f7420626964206f6e207468656972206f776e206160008201527f756374696f6e0000000000000000000000000000000000000000000000000000602082015250565b60006116f760268361168a565b91506117028261169b565b604082019050919050565b60006020820190508181036000830152611726816116ea565b9050919050565b7f426964206d7573742062652067726561746572207468616e206f72206571756160008201527f6c20746f207374617274696e6720707269636500000000000000000000000000602082015250565b600061178960338361168a565b91506117948261172d565b604082019050919050565b600060208201905081810360008301526117b88161177c565b9050919050565b7f42696464657220697320616c7265616479206869676865737420626964646572600082015250565b60006117f560208361168a565b9150611800826117bf565b602082019050919050565b60006020820190508181036000830152611824816117e8565b9050919050565b600081905092915050565b50565b600061184660008361182b565b915061185182611836565b600082019050919050565b600061186782611839565b9150819050919050565b7f4661696c656420746f20726566756e642070726576696f757320626964000000600082015250565b60006118a7601d8361168a565b91506118b282611871565b602082019050919050565b600060208201905081810360008301526118d68161189a565b9050919050565b7f426964206d7573742062652067726561746572207468616e2063757272656e7460008201527f2068696768657374206269640000000000000000000000000000000000000000602082015250565b6000611939602c8361168a565b9150611944826118dd565b604082019050919050565b600060208201905081810360008301526119688161192c565b9050919050565b7f4e487b7100000000000000000000000000000000000000000000000000000000600052601160045260246000fd5b60006119a9826115fd565b91506119b4836115fd565b92508282019050808211156119cc576119cb61196f565b5b92915050565b60006060820190506119e76000830186611503565b6119f46020830185611607565b611a016040830184611503565b949350505050565b7f557365722063616e206f6e6c792077697468647261772066756e64732061667460008201527f65722061756374696f6e2068617320656e646564000000000000000000000000602082015250565b6000611a6560348361168a565b9150611a7082611a09565b604082019050919050565b60006020820190508181036000830152611a9481611a58565b9050919050565b7f686967686573744269646465722063616e6e6f7420776974686472617720667560008201527f6e64730000000000000000000000000000000000000000000000000000000000602082015250565b6000611af760238361168a565b9150611b0282611a9b565b604082019050919050565b60006020820190508181036000830152611b2681611aea565b9050919050565b7f4f6e6c79204e4654206f776e6572206f72206d61726b6574706c61636520636160008201527f6e20656e642061756374696f6e00000000000000000000000000000000000000602082015250565b6000611b89602d8361168a565b9150611b9482611b2d565b604082019050919050565b60006020820190508181036000830152611bb881611b7c565b9050919050565b600081519050611bce81611631565b92915050565b611bdd8161152d565b8114611be857600080fd5b50565b600081519050611bfa81611bd4565b92915050565b60008060408385031215611c1757611c1661159f565b5b6000611c2585828601611bbf565b9250506020611c3685828601611beb565b9150509250929050565b6000611c4b826115fd565b9150611c56836115fd565b9250828202611c64816115fd565b91508282048414831517611c7b57611c7a61196f565b5b5092915050565b7f4e487b7100000000000000000000000000000000000000000000000000000000600052601260045260246000fd5b6000611cbc826115fd565b9150611cc7836115fd565b925082611cd757611cd6611c82565b5b828204905092915050565b6000611ced826115fd565b9150611cf8836115fd565b9250828203905081811115611d1057611d0f61196f565b5b92915050565b7f4661696c656420746f2073656e6420457468657220746f207468652073656c6c60008201527f6572000000000000000000000000000000000000000000000000000000000000602082015250565b6000611d7260228361168a565b9150611d7d82611d16565b604082019050919050565b60006020820190508181036000830152611da181611d65565b9050919050565b7f4661696c656420746f2073656e6420726f79616c7469657320746f206f72696760008201527f696e616c206f776e657200000000000000000000000000000000000000000000602082015250565b6000611e04602a8361168a565b9150611e0f82611da8565b604082019050919050565b60006020820190508181036000830152611e3381611df7565b9050919050565b7f4661696c656420746f2073656e64206665657320746f206d61726b6574706c6160008201527f636520636f6e7472616374000000000000000000000000000000000000000000602082015250565b6000611e96602b8361168a565b9150611ea182611e3a565b604082019050919050565b60006020820190508181036000830152611ec581611e89565b9050919050565b7f4661696c656420746f2073656e6420726566756e6420746f207468652070656e60008201527f756c74696d617465206269646465720000000000000000000000000000000000602082015250565b6000611f28602f8361168a565b9150611f3382611ecc565b604082019050919050565b60006020820190508181036000830152611f5781611f1b565b9050919050565b6000819050919050565b6000611f83611f7e611f79846114d1565b611f5e565b6114d1565b9050919050565b6000611f9582611f68565b9050919050565b6000611fa782611f8a565b9050919050565b611fb781611f9c565b82525050565b6000604082019050611fd26000830185611607565b611fdf6020830184611fae565b9392505050565b600060a082019050611ffb6000830188611607565b6120086020830187611fae565b6120156040830186611fae565b6120226060830185611503565b61202f6080830184611607565b9695505050505050565b7f5265656e7472616e637947756172643a207265656e7472616e742063616c6c00600082015250565b600061206f601f8361168a565b915061207a82612039565b602082019050919050565b6000602082019050818103600083015261209e81612062565b905091905056fea2646970667358221220161bdff1ef889b9d8aaef544f42de0b30e2c4a945c03bd9a6c2b58d8bd1aea3e64736f6c63430008130033a26469706673582212202469a0238874dff2896d84648b8322d0d6cff43d2b185b03719c823aecfafc9864736f6c63430008130033",
  "linkReferences": {},
  "deployedLinkReferences": {}
}